:020000040800F2
:1000000000000320210E0008D10C0008D90C0008C4
:10001000E10C0008E90C0008F10C000800000000E9
:10002000000000000000000000000000F90C0008C3
:10003000070D000800000000150D0008230D000842
:10004000790E0008790E0008790E0008790E000874
:10005000790E0008790E0008790E0008790E000864
:10006000790E0008790E0008790E0008790E000854
:10007000790E0008790E0008790E0008790E000844
:10008000790E0008790E0008790E0008790E000834
:10009000790E0008790E0008790E00082F0D00086F
:1000A000790E0008790E0008790E0008790E000814
:1000B000790E0008790E0008790E0008790E000804
:1000C000790E0008790E00083D0D0008790E000831
:1000D000790E0008790E0008790E0008790E0008E4
:1000E000790E0008790E0008790E0008790E0008D4
:1000F000790E0008790E0008790E0008510D0008ED
:10010000790E0008790E0008790E0008790E0008B3
:10011000790E0008790E0008790E0008790E0008A3
:10012000790E0008790E0008790E0008790E000893
:0C013000790E0008790E0008790E000816
:10013C0010B5054C237833B9044B13B10448AFF315
:10014C0000800123237010BD1C0000200000000063
:10015C00F440000808B5034B1BB103490348AFF347
:10016C00008008BD0000000020000020F4400008C2
:10017C0080B582B000AF7860786800F0FFFE00BFF9
:10018C000837BD4680BD000080B500AF8021054812
:10019C0001F006FB0346002B00D0F7E700BF00BFC1
:1001AC0080BD00BF0004004880B500AF0022402194
:1001BC00334801F00DFB0A20FFF7DAFF0122402142
:1001CC002F4801F005FB0A20FFF7D2FFFFF7DCFFF9
:1001DC00122000F029F9FFF7D7FF012000F024F9D5
:1001EC00B72000F043F9002000F040F9002000F0A7
:1001FC003DF9112000F018F9012000F037F94420E6
:10020C0000F012F9002000F031F90A2000F02EF96C
:10021C00452000F009F9B72000F028F9002000F083
:10022C0025F9002000F022F9002000F01FF93C20F5
:10023C0000F0FAF8052000F019F9212000F0F4F88C
:10024C00002000F013F9802000F010F9182000F0C5
:10025C00EBF8802000F00AF94E2000F0E5F80020C1
:10026C0000F004F94F2000F0DFF8B72000F0FEF8A2
:10027C00002000F0FBF8FFF787FF00BF80BD00BF38
:10028C000004004880B500AF222000F0CDF8F72024
:10029C0000F0ECF8202000F0C7F8FFF775FF00BF66
:1002AC0080BD80B584B000AF7860242000F0BCF82D
:1002BC000023FB6009E07A68FB6813441B7818463E
:1002CC0000F0D4F8FB680133FB60FB68B3F5FD6FFD
:1002DC00F1D3FFF7D7FF00BF1037BD4680BD80B507
:1002EC0000AF102000F0A0F8012000F0BFF864204F
:1002FC00FFF73EFF00BF80BD80B485B000AF7860D3
:10030C004FF0B043DA6C4FF0B0417B681343CB64D1
:10031C004FF0B043DA6C7B681340FB60FB6800BFA6
:10032C001437BD465DF8047B7047000080B586B07D
:10033C0000AF3B1D00221A605A609A60DA601A61A5
:10034C000120FFF7D9FF0220FFF7D6FF0123BB6086
:10035C000023FB6000233B614FF400437B603B1D9B
:10036C0019464FF0904000F0CDFF10237B603B1DF1
:10037C001946134800F0C6FF40237B603B1D19460D
:10038C000F4800F0BFFF08237B603B1D19460C484B
:10039C0000F0B8FF20237B603B1D1946084800F095
:1003AC00B1FF80237B600023BB600023FB603B1DFF
:1003BC001946034800F0A6FF00BF1837BD4680BDA4
:1003CC000004004880B584B000AF0346FB710023E5
:1003DC00FB731EE097F90730002B05DA0122202170
:1003EC00104801F0F5F904E0002220210D4801F03D
:1003FC00EFF9012208210B4801F0EAF9002208214B
:10040C00084801F0E5F9FB795B00FB71FB7B0133DC
:10041C00FB73FB7B072BDDD900BF00BF1037BD463C
:10042C0080BD00BF0004004880B582B000AF034619
:10043C00FB7100224FF400414FF0904001F0C8F9DD
:10044C0000221021084801F0C3F9FB791846FFF788
:10045C00B9FF01224FF400414FF0904001F0B8F980
:10046C0000BF0837BD4680BD0004004880B582B08F
:10047C0000AF0346FB7100224FF400414FF0904057
:10048C0001F0A6F901221021084801F0A1F9FB792D
:10049C001846FFF797FF01224FF400414FF09040B0
:1004AC0001F096F900BF0837BD4680BD0004004836
:1004BC0080B485B000AF78604FF0B043DA6C4FF089
:1004CC00B0417B681343CB644FF0B043DA6C7B686C
:1004DC001340FB60FB6800BF1437BD465DF8047B1E
:1004EC00704780B483B000AF78604FF0B043DA6CE3
:1004FC007B68DB434FF0B0411340CB6400BF0C373B
:10050C00BD465DF8047B704780B584B000AF00F049
:10051C00AFFC00F05BF800F0ABF800F039F900F03C
:10052C00C5F800F0F1F8FFF701FFFFF73DFE0023DF
:10053C00FB6000237B600023FB7200F007FD7860FA
:10054C0035E001214FF0904001F02AF90346002BD1
:10055C0017D1FB7A002B05D10123FB7200F0F6FCBE
:10056C00F86010E000F0F2FC0246FB68D31AB3F519
:10057C00FA6F08D34FF47A7000F010FA00F02AFAF0
:10058C0001E00023FB724FF4FD62FF210D4803F0E4
:10059C007EFD0D4A0021002000F0DCF90948FFF730
:1005AC0080FEFFF79CFE4FF4FA6000F0E7FC00F0D1
:1005BC00CDFC02467B68D31A41F288329342C0D9F3
:1005CC0000BFFDE7380000200C41000880B59AB050
:1005DC0000AF07F1200348220021184603F057FD15
:1005EC003B1D00221A605A609A60DA601A615A61E7
:1005FC009A611E4B1B6823F4C0631C4A43F40073BE
:10060C0013601A4B1B6803F4C0633B603B68022306
:10061C003B624FF48073FB6240233B630023FB641B
:10062C0007F12003184602F061F90346002B01D0B4
:10063C0000F02CFA6F237B600123BB600023FB606E
:10064C0000233B6100237B610023BB610023FB6122
:10065C003B1D0021184602F0BDFC0346002B01D0C7
:10066C0000F014FA00BF6837BD4680BD0004005886
:10067C0080B594B000AF3B4650220021184603F0E1
:10068C0006FD4FF400533B600023BB641023FB6456
:10069C003B46184603F0B1F80346002B01D000F09E
:1006AC00F5F900BF5037BD4680BD000080B500AFE6
:1006BC00134B144A1A60124B00225A60104B4FF421
:1006CC0080629A600E4B4FF6FF725A610C4B0022FF
:1006DC001A620B4B00225A62094B00229A62084B99
:1006EC000022DA62064B00221A63054801F0F6F884
:1006FC000346002B01D000F0C9F900BF80BD00BF3C
:10070C0020080020007C004080B582B000AF07F1CB
:10071C0010037B601C4B1D4A1A601B4B4FF48272FA
:10072C005A60194B00229A60174B4FF4E062DA6062
:10073C00154B00221A61144B00225A61124B4FF4D4
:10074C0000729A61104B1822DA610F4B00221A6268
:10075C000D4B00225A620C4B00229A620A4B072264
:10076C00DA62094B00221A63074B08225A630648C7
:10077C0003F0CAFA0346002B01D000F087F900BF42
:10078C000837BD4680BD00BF58080020003001402E
:10079C0080B586B000AF3B1D00221A605A609A608B
:1007AC00DA601A610120FFF783FE0220FFF780FE5A
:1007BC0000224FF400414FF0904001F009F8002264
:1007CC005021214801F004F801237B600023BB6019
:1007DC000123FB603B1D19464FF0904000F092FD49
:1007EC004FF400437B600123BB600023FB600023BC
:1007FC003B613B1D19464FF0904000F083FD5023A8
:10080C007B600123BB600023FB6000233B613B1D2D
:10081C0019460D4800F076FD80237B604FF4881359
:10082C00BB600023FB603B1D1946074800F06AFDC6
:10083C0000220021172000F0C4FC172000F0DBFC84
:10084C0000BF1837BD4680BD0004004880B48BB093
:10085C0000AF0346FB710B46BB7113467B717B7972
:10086C001F2B6CD97B797E2B69D8384B1B687A7916
:10087C00203A3649C98801FB02F21344FB6100237C
:10088C007B6255E07B6AFA6913441B78FB76002384
:10089C003B6244E0FA7E3B6AC3F1070342FA03F37E
:1008AC0003F00103002B37D0FB793A6A13447B61C8
:1008BC00BB797A6A13443B617B69572B2CDC3B690F
:1008CC00B72B29DC3B69582203FB02F27B691344EA
:1008DC00002B00DA0733DB10FB607B695A4203F014
:1008EC00070302F0070258BF5342C3F10703BB6072
:1008FC00174AFB6813441B785AB20121BB6801FAF2
:10090C0003F35BB2DB435BB213405BB2D9B2104A68
:10091C00FB6813440A461A703B6A01333B620B4B6B
:10092C009B881A463B6A9342B4DB7B6A01337B6239
:10093C00064BDB881A467B6A9342A3DB00E000BFC0
:10094C002C37BD465DF8047B704700BF08000020C3
:10095C003800002080B582B000AF03463A60FB71CE
:10096C000B46BB710FE03B681A78B979FB791846D6
:10097C00FFF76CFF084B9B88DAB2FB791344FB71D1
:10098C003B6801333B603B681B78002BEBD100BF0D
:10099C0000BF0837BD4680BD0800002080B584B07C
:1009AC0000AF78604FF4FA73FB604FF49673BB6042
:1009BC00BA68F968064801F05BF8786800F0DEFA6E
:1009CC00034801F0A2F800BF1037BD4680BD00BF40
:1009DC002008002080B584B000AF72B600BF244B55
:1009EC000322A3F840200420FFF77BFD0220FFF731
:1009FC0078FD0120FFF775FD1E4801F011F801F09C
:100A0C00D9FE1D4B00221A601B4B00225A601A4B58
:100A1C0000229A600023FB7310E0184AFB7B203302
:100A2C004FF0FF3142F82310144AFB7B60334FF038
:100A3C00FF3142F82310FB7B0133FB73FB7B072B4D
:100A4C00EBD962B600BF0E4B1B68BB600D4B1B682D
:100A5C003B603B6883F3088800BFBB687B600A4B34
:100A6C0001221A607B68984700BF1037BD4680BDD5
:100A7C00006800402008002010E000E000E100E0E9
:100A8C000400FF1F0000FF1F0000014080B400AFF6
:100A9C0072B600BF00BFFDE780B485B000AF7860D0
:100AAC004FF0B043DA6C4FF0B0417B681343CB642A
:100ABC004FF0B043DA6C7B681340FB60FB6800BFFF
:100ACC001437BD465DF8047B704780B485B000AF29
:100ADC0078604FF0B0439A6D4FF0B0417B68134390
:100AEC008B654FF0B0439A6D7B681340FB60FB68DD
:100AFC0000BF1437BD465DF8047B704780B483B0EB
:100B0C0000AF78604FF0B0439A6D7B68DB434FF0D9
:100B1C00B04113408B6500BF0C37BD465DF8047BBC
:100B2C00704780B485B000AF78604FF0B0431A6E58
:100B3C004FF0B0417B6813430B664FF0B0431A6E15
:100B4C007B681340FB60FB6800BF1437BD465DF843
:100B5C00047B704780B582B000AF3B4600221A6020
:100B6C005A6000233B6000237B603B46184601F033
:100B7C0043FA01F083FA00BF0837BD4680BD000080
:100B8C0080B59CB000AF786007F15C0300221A605E
:100B9C005A609A60DA601A6107F10C035022002146
:100BAC00184603F074FA7B681B681A4A93422DD1DD
:100BBC001023FB604FF440237B6307F10C031846B2
:100BCC0002F01BFE0346002B01D0FFF75FFF4FF036
:100BDC000040FFF77AFF0220FFF75EFF0423FB655E
:100BEC0002233B6600237B660023BB660123FB6666
:100BFC0007F15C031946084800F084FB0022002131
:100C0C002F2000F0DEFA2F2000F0F5FA00BF70372D
:100C1C00BD4680BD007C00400004004880B582B019
:100C2C0000AF78607B681B68084A93420AD14FF08A
:100C3C000040FFF763FF0421054800F0D3FC2F2090
:100C4C0000F0E7FA00BF0837BD4680BD007C0040CD
:100C5C000004004880B588B000AF786007F10C0341
:100C6C0000221A605A609A60DA601A617B681B680D
:100C7C00124A93421ED14FF48050FFF752FF0220CC
:100C8C00FFF70AFF2823FB6002233B6100237B61F3
:100C9C000023BB610523FB6107F10C0319460848CF
:100CAC0000F030FB00220021222000F08AFA2220E2
:100CBC0000F0A1FA00BF2037BD4680BD00300140D6
:100CCC000004004880B400AF00BFFDE780B400AF63
:100CDC0000BFFDE780B400AF00BFFDE780B400AFFC
:100CEC0000BFFDE780B400AF00BFFDE780B400AFEC
:100CFC0000BFBD465DF8047B704780B400AF00BFF9
:100D0C00BD465DF8047B704780B400AF00BFBD46A4
:100D1C005DF8047B704780B500AF00F003F900BFAD
:100D2C0080BD80B500AF802000F06AFD00BF80BDA3
:100D3C0080B500AF024803F08BF800BF80BD00BF48
:100D4C005808002080B500AF024800F0FAFE00BF42
:100D5C0080BD00BF2008002080B400AF244BD3F826
:100D6C008830234A43F47003C2F888304FF0B04304
:100D7C001B684FF0B04243F0010313604FF0B043D7
:100D8C004FF4E0229A604FF0B0431A684FF0B04134
:100D9C00184B13400B604FF0B043D3F894304FF026
:100DAC00B04223F00503C2F894304FF0B043D3F8AF
:100DBC0098304FF0B04223F00103C2F898304FF056
:100DCC00B0430D4ADA604FF0B0430B4A1A614FF052
:100DDC00B0431B684FF0B04223F4802313604FF0F4
:100DEC00B04300229A6100BFBD465DF8047B70479A
:100DFC0000ED00E0FBFEF6FA00100422D458C450BB
:100E0C000433C4188C42F9D3704703600430884211
:100E1C00FBD370470C488546FFF79EFF0B480C49E7
:100E2C000C4A0023FFF7EDFF0B480C490C4A00233A
:100E3C00FFF7E7FF0B480C490023FFF7E8FF03F02F
:100E4C002FF9FFF761FBFEE70000032008000020EC
:100E5C001C00002040460008000003200000032076
:100E6C00544600081C000020C0080020FEE70000CB
:100E7C0080B582B000AF0023FB710C4B1B680B4A92
:100E8C0043F480731360032000F090F90F2000F0FE
:100E9C000FF80346002B02D00123FB7101E0FFF792
:100EAC0059FEFB7918460837BD4680BD00400058F6
:100EBC0080B584B000AF78600023FB73174B1B78B0
:100ECC00002B24D002F034FA0246144B1B7819463E
:100EDC004FF47A73B3FBF1F3B2FBF3F3184600F063
:100EEC00A6F90346002B0FD17B680F2B09D80022E3
:100EFC0079684FF0FF3000F064F9094A7B681360A1
:100F0C0007E00123FB7304E00123FB7301E00123E1
:100F1C00FB73FB7B18461037BD4680BD18000020C4
:100F2C001400002080B400AF064B1B781A46064B09
:100F3C001B681344044A136000BFBD465DF8047B74
:100F4C00704700BF18000020BC08002080B400AF20
:100F5C00034B1B681846BD465DF8047B704700BF09
:100F6C00BC08002080B400AF034B1B681846BD467C
:100F7C005DF8047B704700BF1400002080B584B07E
:100F8C0000AF7860FFF7E2FFB8607B68FB60FB683E
:100F9C00B3F1FF3F05D00A4B1B781A46FB6813448C
:100FAC00FB6000BFFFF7D2FF0246BB68D31AFA689A
:100FBC009A42F7D800BF00BF1037BD4680BD00BFB6
:100FCC001800002080B485B000AF78607B6803F017
:100FDC000703FB600C4BDB68BB60BA684FF6FF0382
:100FEC001340BB60FB681A02BB68134343F0BF633A
:100FFC0043F40033BB60044ABB68D36000BF1437B2
:10100C00BD465DF8047B704700ED00E080B400AF96
:10101C00044BDB681B0A03F007031846BD465DF85A
:10102C00047B704700ED00E080B483B000AF034652
:10103C00FB7197F90730002B0BDBFB7903F01F02D8
:10104C00074997F907305B09012000FA02F241F8D1
:10105C00232000BF0C37BD465DF8047B704700BFF2
:10106C0000E100E080B483B000AF0346FB7197F958
:10107C000730002B12DBFB7903F01F020A4997F9AA
:10108C0007305B09012000FA02F2203341F82320DB
:10109C00BFF34F8F00BFBFF36F8F00BF00BF0C3784
:1010AC00BD465DF8047B704700E100E080B483B07E
:1010BC0000AF03463960FB7197F90730002B0ADB50
:1010CC003B68DAB20C4997F907301201D2B20B44E3
:1010DC0083F800230AE03B68DAB20849FB7903F095
:1010EC000F03043B1201D2B20B441A7600BF0C372B
:1010FC00BD465DF8047B704700E100E000ED00E0C8
:10110C0080B489B000AFF860B9607A60FB6803F016
:10111C000703FB61FB69C3F10703042B28BF0423FE
:10112C00BB61FB690433062B02D9FB69033B00E06E
:10113C0000237B614FF0FF32BB6902FA03F3DA4301
:10114C00BB681A407B699A404FF0FF317B6901FA0A
:10115C0003F3D9437B680B40134318462437BD4631
:10116C005DF8047B7047000080B582B000AF7860FA
:10117C007B68013BB3F1807F01D301230FE00A4A66
:10118C007B68013B53600F214FF0FF30FFF78EFF60
:10119C00054B00229A60044B07221A600023184664
:1011AC000837BD4680BD00BF10E000E080B582B0BE
:1011BC0000AF78607868FFF705FF00BF0837BD46C1
:1011CC0080BD80B586B000AF0346B9607A60FB7312
:1011DC00FFF71CFF78617A68B9687869FFF790FFB0
:1011EC00024697F90F3011461846FFF75FFF00BF14
:1011FC001837BD4680BD80B582B000AF0346FB7189
:10120C0097F907301846FFF70FFF00BF0837BD46A8
:10121C0080BD80B582B000AF0346FB7197F90730F3
:10122C001846FFF71FFF00BF0837BD4680BD80B5CD
:10123C0082B000AF78607868FFF796FF03461846D7
:10124C000837BD4680BD80B584B000AF7860002300
:10125C00FB737B6893F82530DBB2022B05D07B68DF
:10126C000422DA630123FB7347E07B681B681A686E
:10127C007B681B6822F00E021A607B681B681A6878
:10128C007B681B6822F001021A607B689B6C1A68F1
:10129C007B689B6C22F480721A607B685B6C03F039
:1012AC001C027B681B6C012101FA02F25A607B68FC
:1012BC00DB6C7A68126D5A607B685B6D002B0CD00E
:1012CC007B685B6D1A687B685B6D22F480721A60B8
:1012DC007B689B6D7A68D26D5A607B68012283F8BB
:1012EC0025207B68002283F824207B689B6B002BD5
:1012FC0003D07B689B6B78689847FB7B184610374C
:10130C00BD4680BD80B487B000AF786039600023E3
:10131C007B614CE13B681A6801217B6901FA03F39C
:10132C001340FB60FB68002B00F03E813B685B6860
:10133C0003F00303012B05D03B685B6803F0030348
:10134C00022B30D17B689B683B617B695B0003227D
:10135C0002FA03F3DB433A6913403B613B68DA68FA
:10136C007B695B0002FA03F33A6913433B617B68C8
:10137C003A699A607B685B683B6101227B6902FA7F
:10138C0003F3DB433A6913403B613B685B681B0921
:10139C0003F001027B6902FA03F33A6913433B61E0
:1013AC007B683A695A603B685B6803F00303032B64
:1013BC0017D07B68DB683B617B695B00032202FA18
:1013CC0003F3DB433A6913403B613B689A687B69E2
:1013DC005B0002FA03F33A6913433B617B683A6999
:1013EC00DA603B685B6803F00303022B23D17B6953
:1013FC00DA087B68083253F822303B617B6903F0D2
:10140C0007039B000F2202FA03F3DB433A691340F4
:10141C003B613B681A697B6903F007039B0002FA86
:10142C0003F33A6913433B617B69DA087B68083242
:10143C00396943F822107B681B683B617B695B0050
:10144C00032202FA03F3DB433A6913403B613B6826
:10145C005B6803F003027B695B0002FA03F33A69F1
:10146C0013433B617B683A691A603B685B6803F421
:10147C004033002B00F09880544A7B699B08023360
:10148C0052F823303B617B6903F003039B000F226E
:10149C0002FA03F3DB433A6913403B617B68B3F117
:1014AC00904F19D07B684A4A934213D07B68494AC3
:1014BC0093420DD07B68484A934207D07B68474AD9
:1014CC00934201D1042308E0072306E0032304E040
:1014DC00022302E0012300E000237A6902F00302F8
:1014EC00920093403A6913433B6138497B699B08EE
:1014FC0002333A6941F82320394B1B683B61FB6886
:10150C00DB433A6913403B613B685B6803F480132F
:10151C00002B03D03A69FB6813433B61304A3B69AB
:10152C0013602F4B5B683B61FB68DB433A691340EC
:10153C003B613B685B6803F40013002B03D03A69F2
:10154C00FB6813433B61264A3B695360244BD3F839
:10155C0080303B61FB68DB433A6913403B613B687D
:10156C005B6803F48033002B03D03A69FB681343A8
:10157C003B611B4A3B69C2F88030194BD3F884306D
:10158C003B61FB68DB433A6913403B613B685B683A
:10159C0003F40033002B03D03A69FB6813433B611F
:1015AC000F4A3B69C2F884307B6901337B613B682D
:1015BC001A687B6922FA03F3002B7FF4ABAE00BFF1
:1015CC0000BF1C37BD465DF8047B7047000001402E
:1015DC000004004800080048000C004800100048B7
:1015EC000008005880B487B000AF786039600023E1
:1015FC007B61BBE001227B6902FA03F33A6813407A
:10160C003B613B69002B00F0AE805F4A7B699B0815
:10161C00023352F82330FB607B6903F003039B0019
:10162C000F2202FA03F3FA681340FB607B68B3F1F4
:10163C00904F19D07B68554A934213D07B68544A1B
:10164C0093420DD07B68534A934207D07B68524A31
:10165C00934201D1042308E0072306E0032304E0AE
:10166C00022302E0012300E000237A6902F0030266
:10167C0092009340FA689A4236D1484BD3F88020B6
:10168C003B69DB4345491340C1F88030434BD3F8E9
:10169C0084203B69DB4341491340C1F884303F4B04
:1016AC001A683B69DB433D4913400B603B4B5A685E
:1016BC003B69DB43394913404B607B6903F00303FF
:1016CC009B000F2202FA03F3FB602F4A7B699B08F5
:1016DC00023352F82310FB68DA432B487B699B08D2
:1016EC000A40023340F823207B681A687B695B0050
:1016FC00032101FA03F31A437B681A607B69DA0849
:10170C007B68083253F822107B6903F007039B00B7
:10171C000F2202FA03F3DB437A69D20819407B6883
:10172C00083243F822107B68DA687B695B0003217E
:10173C0001FA03F3DB431A407B68DA607B685A6872
:10174C0001217B6901FA03F3DB431A407B685A6081
:10175C007B689A687B695B00032101FA03F3DB4326
:10176C001A407B689A607B6901337B613A687B69BC
:10177C0022FA03F3002B7FF43DAF00BF00BF1C37F0
:10178C00BD465DF8047B7047000001400004004832
:10179C0000080048000C00480010004800080058E1
:1017AC0080B485B000AF78600B467B807B681A698B
:1017BC007B881340002B02D00123FB7301E0002334
:1017CC00FB73FB7B18461437BD465DF8047B7047F2
:1017DC0080B483B000AF78600B467B8013467B707F
:1017EC007B78002B03D07A887B689A6102E07A8838
:1017FC007B689A6200BF0C37BD465DF8047B70476E
:10180C0080B582B000AF0346FB80084BDA68FB88DA
:10181C001340002B06D0054AFB88D360FB88184682
:10182C0000F006F800BF0837BD4680BD0008005820
:10183C0080B483B000AF0346FB8000BF0C37BD46BD
:10184C005DF8047B704780B483B000AF78604FF0D4
:10185C00B0439A6B4FF0B0417B6813438B6300BF6E
:10186C000C37BD465DF8047B704780B483B000AF85
:10187C0078604FF0B043DA6B4FF0B0417B681343A4
:10188C00CB6300BF0C37BD465DF8047B704780B45A
:10189C0083B000AF78604FF0B0439A6B7B68DB434A
:1018AC004FF0B04113408B6300BF0C37BD465DF861
:1018BC00047B704780B483B000AF78604FF0B043C6
:1018CC00DA6B7B68DB434FF0B0411340CB6300BF56
:1018DC000C37BD465DF8047B7047000080B584B0C2
:1018EC0000AF78607B68002B01D101238FE07B680F
:1018FC005B68012B7B6893F83630DBB2002B06D18A
:10190C007B68002283F835207868FFF739F97B680B
:10191C00022283F836207B681B68DB68FB607B68DF
:10192C005B68012B04D07B689B6AB3F5000F03D175
:10193C00FB6823F01E03FB607B685B694FF6FF724C
:10194C00934205D0FB6823F4604323F0C003FB6093
:10195C00FA68314B1340FB607B685A687B689B6864
:10196C001A437B681B6A1A437B685B6A1A437B6861
:10197C009B6A1343FA681343FB607B685B68002B1C
:10198C0007D17B68DA697B681B691343FA681343D8
:10199C00FB607B685B68012B04D07B689B6AB3F5AA
:1019AC00000F07D17B68DA687B681B691343FA6800
:1019BC001343FB607B685B694FF6FF7293420AD05E
:1019CC007B685A697B689B691A437B68DB691343A4
:1019DC00FA681343FB607B681B68FA68DA607B6803
:1019EC001B680E4A934208D17B68D96A7B681A6BD4
:1019FC007B681B680A431A6204E07B681B687A6880
:101A0C00D26A1A627B68012283F8362000231846BA
:101A1C001037BD4680BD00BFFEF119FF007C0040B1
:101A2C0080B582B000AF78607B68002B01D10123B8
:101A3C001AE07B68022283F83620786800F0A0F95F
:101A4C00786800F05FF90346032B01D103230BE008
:101A5C007868FFF7E3F87B68002283F836207B6810
:101A6C00002283F83520002318460837BD4680BD78
:101A7C0080B584B000AFF860B9607A60FB68022270
:101A8C0083F83620FB681B68DA68FB681B6822F455
:101A9C008012DA60FB681B681A69FB681B6842F0ED
:101AAC0001021A61FB681B6810225A60FB681B68F4
:101ABC00BA689A611021F86800F032F90346032BDA
:101ACC0001D103231DE0FB681B6808225A60FB68E8
:101ADC001B687A685A610821F86800F021F90346FE
:101AEC00032B01D103230CE0FB681B681A69FB680C
:101AFC001B6842F004021A61FB68012283F836204D
:101B0C00002318461037BD4680BD80B582B000AFAB
:101B1C0078607B68022283F83620786800F030F910
:101B2C00786800F0EFF80346032B01D1032304E09F
:101B3C007B68012283F83620002318460837BD46FF
:101B4C0080BD80B582B000AF78607B681B681B6875
:101B5C0003F00103012B0DD17B681B689B6803F01C
:101B6C000103012B06D17B681B6801225A6078683F
:101B7C0000F082F87B681B681B6803F00203022BE1
:101B8C000DD17B681B689B6803F00203022B06D106
:101B9C007B681B6802225A60786800F077F87B68D3
:101BAC001B681B6803F00403042B0DD17B681B68B6
:101BBC009B6803F00403042B06D17B681B6804228A
:101BCC005A60786800F06CF87B681B681B6803F03F
:101BDC000803082B0DD17B681B689B6803F0080376
:101BEC00082B06D17B681B6808225A60786800F0C5
:101BFC0061F87B681B681B6803F01003102B0DD178
:101C0C007B681B689B6803F01003102B06D17B6864
:101C1C001B6810225A60786800F056F87B681B68C5
:101C2C001B6803F02003202B0DD17B681B689B687D
:101C3C0003F02003202B06D17B681B6820225A60FE
:101C4C00786800F04BF87B681B681B6803F0400356
:101C5C00402B0DD17B681B689B6803F04003402B25
:101C6C0006D17B681B6840225A60786800F040F807
:101C7C0000BF0837BD4680BD80B483B000AF78602C
:101C8C0000BF0C37BD465DF8047B704780B483B051
:101C9C0000AF786000BF0C37BD465DF8047B704721
:101CAC0080B483B000AF786000BF0C37BD465DF8E0
:101CBC00047B704780B483B000AF786000BF0C37F2
:101CCC00BD465DF8047B704780B483B000AF78608C
:101CDC0000BF0C37BD465DF8047B704780B483B001
:101CEC0000AF786000BF0C37BD465DF8047B7047D1
:101CFC0080B483B000AF786000BF0C37BD465DF890
:101D0C00047B704780B483B000AF78607B6893F835
:101D1C003630DBB218460C37BD465DF8047B704795
:101D2C0080B485B000AF786039600023FB73124B30
:101D3C001B68124AA2FB03239B0B4FF47A7202FB23
:101D4C0003F3BB60BB68013BBB60BB68002B01D1DC
:101D5C000323FB737B681B681A683B6813403A6863
:101D6C009A4202D0BB68002BECD1FB7B184614378F
:101D7C00BD465DF8047B7047100000205917B7D1A1
:101D8C0080B58CB000AF7860EFF310833B613B699A
:101D9C00FB6201237B617B6983F3108800BF7B6846
:101DAC001B689B68BB627B681B68DB687B627B681B
:101DBC001B685B693B627B681B689B69FB617B688A
:101DCC001B681B6ABB617B681B683B4A934203D050
:101DDC003A4A934209D00FE04FF00040FFF733FD31
:101DEC004FF00040FFF753FD06E02020FFF73DFDCC
:101DFC002020FFF75FFD00BF3B6A002B02D1FB697F
:101E0C00002B3BD03B6A002B1AD07B681B681A69ED
:101E1C007B681B6842F001021A617B681B683A6A96
:101E2C005A6108217868FFF77BFF0346032B03D127
:101E3C007B68032283F836207B681B6808225A6073
:101E4C00FB69002B1AD07B681B681A697B681B68BE
:101E5C0042F001021A617B681B68FA699A611021D1
:101E6C007868FFF75DFF0346032B03D17B680322E1
:101E7C0083F836207B681B6810225A607B681B68CD
:101E8C001A697B681B6822F001021A617B681B6867
:101E9C00BA6A9A607B681B687A6ADA607B681B682E
:101EAC00BA691A62FB6AFB60FB6883F3108800BF97
:101EBC0000BF3037BD4680BD007C00400094004020
:101ECC0080B483B000AF7860064BD3F8802005490E
:101EDC007B681343C1F8803000BF0C37BD465DF8FA
:101EEC00047B70470008005880B483B000AF786062
:101EFC00074BD3F880207B68DB4305491340C1F8BE
:101F0C00803000BF0C37BD465DF8047B704700BFC6
:101F1C000008005880B483B000AF7860074BD3F84A
:101F2C00C0207B68DB4305491340C1F8C03000BFBB
:101F3C000C37BD465DF8047B704700BF00080058A5
:101F4C0080B483B000AF7860054B1A6804497B6895
:101F5C0013430B6000BF0C37BD465DF8047B704724
:101F6C000008005880B483B000AF7860064B1A6844
:101F7C007B68DB43044913400B6000BF0C37BD4644
:101F8C005DF8047B704700BF0008005880B483B034
:101F9C0000AF7860054B5A6804497B6813434B606B
:101FAC0000BF0C37BD465DF8047B70470008005835
:101FBC0080B483B000AF7860064B5A687B68DB4313
:101FCC00044913404B6000BF0C37BD465DF8047BE1
:101FDC00704700BF0008005880B400AF054B1B6869
:101FEC00044A43F48073136000BFBD465DF8047B64
:101FFC00704700BF0004005880B582B000AF786015
:10200C001D4B5B6823F00E027B681B681A49134357
:10201C004B604FF48030FFF767FF4FF48030FFF7D1
:10202C0079FF4FF48030FFF7C3FF4FF48030FFF798
:10203C0099FF7B685B6803F48033002B03D04FF46B
:10204C008030FFF73DFF7B685B6803F00103002BDA
:10205C0003D04FF48030FFF773FF7B685B6803F0AD
:10206C000203002B03D04FF48030FFF78FFF0023C7
:10207C0018460837BD4680BD0004005880B400AF38
:10208C00054B5B68044A43F00103536000BFBD4637
:10209C005DF8047B704700BF0004005880B400AFAB
:1020AC00044B1B6803F4C0631846BD465DF8047B03
:1020BC00704700BF0004005880B400AF4FF0B0432D
:1020CC001B6803F48013B3F5801F01D1012300E0DA
:1020DC0000231846BD465DF8047B704780B400AF02
:1020EC004FF0B0431B684FF0B04243F480331360A1
:1020FC0000BFBD465DF8047B704780B400AF4FF065
:10210C00B0431B684FF0B04223F48033136000BF20
:10211C00BD465DF8047B704780B400AF4FF0B04310
:10212C001B6803F40033B3F5003F01D1012300E039
:10213C0000231846BD465DF8047B704780B400AFA1
:10214C004FF0B0431B684FF0B04243F48073136000
:10215C0000BFBD465DF8047B704780B400AF4FF004
:10216C00B0431B684FF0B04223F48073136000BF80
:10217C00BD465DF8047B704780B400AF4FF0B043B0
:10218C001B6803F48063B3F5806F01D1012300E079
:10219C0000231846BD465DF8047B704780B483B0BD
:1021AC0000AF78604FF0B0435B6823F0FE427B6871
:1021BC001B064FF0B04113434B6000BF0C37BD46BC
:1021CC005DF8047B704780B400AF4FF0B043D3F898
:1021DC0098304FF0B04243F00103C2F8983000BF82
:1021EC00BD465DF8047B704780B400AF4FF0B04340
:1021FC00D3F898304FF0B04223F00103C2F8983076
:10220C0000BFBD465DF8047B704780B400AF4FF053
:10221C00B043D3F8983003F00203022B01D1012311
:10222C0000E000231846BD465DF8047B704780B47F
:10223C0000AF4FF0B043D3F890304FF0B04243F0C2
:10224C000103C2F8903000BFBD465DF8047B7047B7
:10225C0080B400AF4FF0B043D3F890304FF0B042A1
:10226C0023F00103C2F8903000BFBD465DF8047B3B
:10227C00704780B400AF4FF0B043D3F890304FF0BC
:10228C00B04243F00403C2F8903000BFBD465DF885
:10229C00047B704780B400AF4FF0B043D3F890305C
:1022AC004FF0B04223F00403C2F8903000BFBD469B
:1022BC005DF8047B704780B400AF4FF0B043D3F8A7
:1022CC00903003F00203022B01D1012300E0002324
:1022DC001846BD465DF8047B704780B400AF4FF0E4
:1022EC00B043D3F894304FF0B04243F00103C2F83E
:1022FC00943000BFBD465DF8047B704780B400AFDE
:10230C004FF0B043D3F894304FF0B04223F00103B8
:10231C00C2F8943000BFBD465DF8047B704780B4B2
:10232C0000AF4FF0B043D3F8943003F00203022B0C
:10233C0001D1012300E000231846BD465DF8047B63
:10234C00704780B400AF4FF0B043D3F894304FF0E7
:10235C00B04243F00403C2F8943000BFBD465DF8B0
:10236C00047B704780B400AF4FF0B043D3F8943087
:10237C004FF0B04223F00403C2F8943000BFBD46C6
:10238C005DF8047B704780B400AF4FF0B043D3F8D6
:10239C00943003F00803082B01D1012300E0002343
:1023AC001846BD465DF8047B704780B483B000AF1F
:1023BC0078604FF0B043D3F8943023F470627B68AC
:1023CC001B024FF0B0411343C1F8943000BF0C37DF
:1023DC00BD465DF8047B704780B400AF4FF0B0434E
:1023EC001B684FF0B04243F00103136000BFBD46C1
:1023FC005DF8047B704780B400AF4FF0B0431B68AE
:10240C004FF0B04223F00103136000BFBD465DF8EE
:10241C00047B704780B400AF4FF0B0431B6803F0EF
:10242C000203022B01D1012300E000231846BD4614
:10243C005DF8047B704780B400AF4FF0B0431B686D
:10244C004FF0B04223F00403136000BFBD465DF8AB
:10245C00047B704780B483B000AF78604FF0B0431A
:10246C001B6823F0F0024FF0B0417B6813430B6004
:10247C0000BF0C37BD465DF8047B704780B483B059
:10248C0000AF4FF0B0431B6803F0F0037B607B6838
:10249C00B02B01D9B0237B607B6818460C37BD4646
:1024AC005DF8047B704780B483B000AF78604FF068
:1024BC00B0435B6823F47F427B681B024FF0B04152
:1024CC0013434B6000BF0C37BD465DF8047B70476F
:1024DC0080B483B000AF78604FF0B0439B6823F0BA
:1024EC0003024FF0B0417B6813438B6000BF0C3785
:1024FC00BD465DF8047B704780B400AF4FF0B0432D
:10250C009B6803F00C031846BD465DF8047B7047CE
:10251C0080B483B000AF78604FF0B0439B6823F079
:10252C00F0024FF0B0417B6813438B6000BF0C3757
:10253C00BD465DF8047B704780B483B000AF786013
:10254C004FF0B043D3F8083123F0F0024FF0B04114
:10255C007B681343C1F8083100BF0C37BD465DF8EA
:10256C00047B704780B483B000AF78604FF0B04309
:10257C00D3F8083123F00F027B681B094FF0B041F0
:10258C001343C1F8083100BF0C37BD465DF8047B1E
:10259C00704780B483B000AF78604FF0B0439B6855
:1025AC0023F4E0624FF0B0417B6813438B6000BFB3
:1025BC000C37BD465DF8047B704780B483B000AF28
:1025CC0078604FF0B0439B6823F460524FF0B041F9
:1025DC007B6813438B6000BF0C37BD465DF8047BF2
:1025EC00704780B400AF4FF0B0439B6803F0F0032A
:1025FC001846BD465DF8047B704780B400AF4FF0C1
:10260C00B043D3F808311B0103F0F0031846BD4664
:10261C005DF8047B704780B400AF4FF0B0431B688B
:10262C004FF0B04243F08073136000BFBD465DF8BD
:10263C00047B704780B400AF4FF0B0431B684FF081
:10264C00B04223F08073136000BFBD465DF8047B7D
:10265C00704780B400AF4FF0B0431B6803F00073B9
:10266C00B3F1007F01D1012300E000231846BD46E1
:10267C005DF8047B704780B400AF4FF0B043DB686B
:10268C001B0A03F07F031846BD465DF8047B7047B8
:10269C0080B400AF4FF0B043DB6803F060431846E2
:1026AC00BD465DF8047B704780B400AF4FF0B0437B
:1026BC00DB6803F070031846BD465DF8047B704779
:1026CC0080B400AF4FF0B0431B6803F00063B3F16C
:1026DC00006F01D1012300E000231846BD465DF8D0
:1026EC00047B704780B400AF4FF0B043DB6803F05D
:1026FC0003031846BD465DF8047B704780B400AFF9
:10270C004FF0B0439B6803F48033B3F5803F01D1A5
:10271C00012300E000231846BD465DF8047B70479A
:10272C0080B400AF4FF0B043D3F8083103F400335A
:10273C00B3F5003F01D1012300E000231846BD464C
:10274C005DF8047B704780B400AF4FF0B043D3F812
:10275C00083103F48033B3F5803F01D1012300E04D
:10276C0000231846BD465DF8047B704780B400AF6B
:10277C004FF0B0439B6803F40033B3F5003F01D135
:10278C00012300E000231846BD465DF8047B70472A
:10279C0080B400AF4FF0B0439B6803F48023B3F5D3
:1027AC00802F01D1012300E000231846BD465DF8BF
:1027BC00047B704780B582B000AFFEF7C7FB786032
:1027CC00FFF739FEFFF708FE08E0FEF7BFFB0246F5
:1027DC007B68D31A022B01D9032378E0FFF71AFE8A
:1027EC000346002BF1D06020FFF734FE0020FFF7EA
:1027FC005AFE4020FFF7D2FCFEF7A8FB78604FF0A2
:10280C00B04300229A600AE0FEF7A0FB02467B6808
:10281C00D31A41F28832934201D9032357E04FF087
:10282C00B0439B6803F00C03002BEDD14FF0B04389
:10283C001A684FF0B041284B13400B60FEF786FB33
:10284C00786008E0FEF782FB02467B68D31A022B05
:10285C0001D903233BE0FFF7FCFE0346002BF1D12B
:10286C004FF0B0431D4ADA60FEF770FB786008E069
:10287C00FEF76CFB02467B68D31A022B01D90323AB
:10288C0025E0FFF71DFF0346002BF1D14FF0B043BD
:10289C00124A1A614FF0B04300229A614FF0B043D4
:1028AC004FF0FF321A624FF0B0434FF44032C3F88E
:1028BC0008210B4B0B4A1A600B4B1B681846FEF792
:1028CC00F7FA0346002B01D0012300E00023184641
:1028DC000837BD4680BD00BFFFF4EEFA00010422AC
:1028EC001000002000093D001400002090B58DB0B0
:1028FC0000AF78607B68002B01D1012363E37B6818
:10290C001B6803F02003002B00F08D80FFF7F4FD13
:10291C00F862FFF7E7FEB862FB6A002B05D0FB6A92
:10292C000C2B47D1BB6A012B44D17B68DB69002B94
:10293C0001D1012347E37B685C6AFFF79FFD0346E7
:10294C009C4214D97B685B6A184600F005FD03466F
:10295C00002B01D0012336E37B685B6A1846FFF736
:10296C0079FD7B681B6A1846FFF79DFD13E07B68B9
:10297C005B6A1846FFF76EFD7B681B6A1846FFF70B
:10298C0092FD7B685B6A184600F0E6FC0346002B60
:10299C0001D0012317E300F0CBFC0346A44A1360DB
:1029AC00A44B1B681846FEF783FA0346002B39D05C
:1029BC00012308E37B68DB69002B1ED0FFF70CFDBD
:1029CC00FEF7C4FA786208E0FEF7C0FA02467B6AAA
:1029DC00D31A022B01D90323F5E2FFF71BFD0346A3
:1029EC00002BF1D07B685B6A1846FFF733FD7B68E0
:1029FC001B6A1846FFF757FD15E0FFF7FCFCFEF7C6
:102A0C00A5FA786208E0FEF7A1FA02467B6AD31AAF
:102A1C00022B01D90323D6E2FFF7FCFC0346002B63
:102A2C00F1D100E000BF7B681B6803F00103002BB1
:102A3C0047D0FFF761FD3862FFF754FEF8613B6A3F
:102A4C00082B05D03B6A0C2B08D1FB69032B05D155
:102A5C007B685B68002B34D10123B4E27B685B6834
:102A6C00B3F5803F02D1FFF739FB01E0FFF745FBDF
:102A7C007B685B68002B12D0FEF768FA786208E07E
:102A8C00FEF764FA02467B6AD31A642B01D903233E
:102A9C0099E2FFF741FB0346002BF1D011E0FEF762
:102AAC0055FA786208E0FEF751FA02467B6AD31AAF
:102ABC00642B01D9032386E2FFF72EFB0346002B80
:102ACC00F1D17B681B6803F00203002B4CD0FFF79D
:102ADC0013FDB861FFF706FE7861BB69042B05D0C6
:102AEC00BB690C2B0ED17B69022B0BD17B68DB688D
:102AFC00002B01D1012366E27B681B691846FFF7A6
:102B0C004DFB31E07B68DB68002B19D0FFF716FB1F
:102B1C00FEF71CFA786208E0FEF718FA02467B6AA8
:102B2C00D31A022B01D903234DE2FFF725FB0346F1
:102B3C00002BF1D07B681B691846FFF72FFB13E0C5
:102B4C00FFF70BFBFEF702FA786208E0FEF7FEF9DE
:102B5C0002467B6AD31A022B01D9032333E2FFF717
:102B6C000BFB0346002BF1D17B681B6803F00803B9
:102B7C00002B06D17B681B6803F01003002B00F0C0
:102B8C00A3807B685B69002B76D07B681B6803F0A5
:102B9C001003002B46D0FFF7C2FB0346002B13D1CA
:102BAC00FFF79BFBFEF7D2F9786208E0FEF7CEF94F
:102BBC0002467B6AD31A022B01D9032303E2FFF7E7
:102BCC00AEFB0346002BF1D0FFF7BBFBFEF7BEF9C3
:102BDC00786208E0FEF7BAF902467B6AD31A032B37
:102BEC0001D90323EFE1FFF7CEFB0346002BF1D015
:102BFC007B689B691846FFF7D8FBFFF77FFBFEF756
:102C0C00A5F9786208E0FEF7A1F902467B6AD31AAF
:102C1C00022B01D90323D6E1FFF781FB0346002BDE
:102C2C00F1D151E0FFF759FBFEF790F978620CE017
:102C3C001000002014000020FEF788F902467B6A81
:102C4C00D31A022B01D90323BDE1FFF768FB03461E
:102C5C00002BF1D0FFF786FB08E0FEF777F9024670
:102C6C007B6AD31A032B01D90323ACE1FFF78BFB4F
:102C7C000346002BF1D127E0FFF774FBFEF766F952
:102C8C00786208E0FEF762F902467B6AD31A032BDE
:102C9C0001D9032397E1FFF776FB0346002BF1D113
:102CAC00FFF72CFBFEF752F9786208E0FEF74EF9BD
:102CBC0002467B6AD31A022B01D9032383E1FFF767
:102CCC002EFB0346002BF1D17B681B6803F0040339
:102CDC00002B5BD0A74B1B6803F48073002B14D123
:102CEC00FFF77AF9FEF732F9786208E0FEF72EF971
:102CFC0002467B6AD31A022B01D9032363E19D4B55
:102D0C001B6803F48073002BF0D07B689B68012B4D
:102D1C0002D1FFF78CFA0CE07B689B68052B04D181
:102D2C00FFF7A7FAFFF783FA03E0FFF791FAFFF733
:102D3C00B1FA7B689B68002B14D0FEF707F9786218
:102D4C000AE0FEF703F902467B6AD31A41F2883295
:102D5C00934201D9032336E1FFF7ADFA0346002B6A
:102D6C00EFD013E0FEF7F2F878620AE0FEF7EEF827
:102D7C0002467B6AD31A41F28832934201D903236B
:102D8C0021E1FFF798FA0346002BEFD17B681B6813
:102D9C0003F04003002B2CD07B689B6A002B14D0D3
:102DAC00FFF711FAFEF7D2F8786208E0FEF7CEF8DA
:102DBC0002467B6AD31A022B01D9032303E1FFF7E6
:102DCC0024FA0346002BF1D013E0FFF70DFAFEF7BF
:102DDC00BDF8786208E0FEF7B9F802467B6AD31AB0
:102DEC00022B01D90323EEE0FFF70FFA0346002B69
:102DFC00F1D17B68DB6A002B00F0E480FFF77CFBF1
:102E0C0038614FF0B043DB68FB607B68DB6A022BF8
:102E1C0040F0B480FB6803F003027B681B6B9A42A2
:102E2C0023D1FB6803F070027B685B6B9A421CD168
:102E3C00FB681B0A03F07F027B689B6B9A4214D1E0
:102E4C00FB6803F478127B68DB6B9A420DD1FB684C
:102E5C0003F060627B681B6C9A4206D1FB6803F03E
:102E6C0060427B685B6C9A425DD03B690C2B58D0FE
:102E7C004FF0B0431B6803F08063002B01D001239B
:102E8C00A1E0FFF7D7FBFEF761F8786208E0FEF7E8
:102E9C005DF802467B6AD31A022B01D9032392E018
:102EAC004FF0B0431B6803F00073002BEFD14FF0D1
:102EBC00B043DA68304B13407A68116B7A68526B06
:102ECC0011437A68926B120211437A68D26B1143E8
:102EDC007A68126C11437A68526C0A434FF0B04115
:102EEC001343CB60FFF797FB4FF0B043DB684FF019
:102EFC00B04243F08053D360FEF728F8786208E0C4
:102F0C00FEF724F802467B6AD31A022B01D903235D
:102F1C0059E04FF0B0431B6803F00073002BEFD067
:102F2C0050E001234FE04FF0B0431B6803F00073F7
:102F3C00002B47D1FFF76FFB4FF0B043DB684FF02E
:102F4C00B04243F08053D360FEF700F8786208E09B
:102F5C00FDF7FCFF02467B6AD31A022B01D903232F
:102F6C0031E04FF0B0431B6803F00073002BEFD03F
:102F7C0028E000BF000400588C80C1113B690C2B69
:102F8C001ED0FFF757FBFDF7E1FF786208E0FDF775
:102F9C00DDFF02467B6AD31A022B01D9032312E010
:102FAC004FF0B0431B6803F00073002BEFD14FF0D0
:102FBC00B043DA684FF0B041054B1340CB6001E0F1
:102FCC00012300E0002318463437BD4690BD00BFF6
:102FDC00FCFFFEEE80B584B000AF786039607B6892
:102FEC00002B01D101232DE1984B1B6803F0070343
:102FFC003A689A421BD9954B1B6823F007029349F8
:10300C003B6813430B60FDF7A1FFF86008E0FDF788
:10301C009DFF0246FB68D31A022B01D9032311E151
:10302C008A4B1B6803F007033A689A42EFD17B681E
:10303C001B6803F00203002B16D07B689B681846B4
:10304C00FFF766FAFDF782FFF86008E0FDF77EFFF8
:10305C000246FB68D31A022B01D90323F2E0FFF7D7
:10306C004DFB0346002BF1D07B681B6803F020035B
:10307C00002B16D07B685B691846FFF75DFAFDF7ED
:10308C0065FFF86008E0FDF761FF0246FB68D31AA4
:10309C00022B01D90323D5E0FFF742FB0346002B9B
:1030AC00F1D07B681B6803F04003002B16D07B68C3
:1030BC009B691846FFF756FAFDF748FFF86008E0E1
:1030CC00FDF744FF0246FB68D31A022B01D90323F8
:1030DC00B8E0FFF738FB0346002BF1D07B681B6888
:1030EC0003F00403002B16D07B68DB681846FFF74F
:1030FC0050FAFDF72BFFF86008E0FDF727FF0246BA
:10310C00FB68D31A022B01D903239BE0FFF72EFB9C
:10311C000346002BF1D07B681B6803F00803002BDF
:10312C0017D07B681B69DB001846FFF746FAFDF7E2
:10313C000DFFF86008E0FDF709FF0246FB68D31AA3
:10314C00022B01D903237DE0FFF722FB0346002B62
:10315C00F1D07B681B6803F00103002B43D07B6824
:10316C005B68022B06D1FEF7D7FF0346002B1ED15E
:10317C00012367E07B685B68032B06D1FFF769FAD4
:10318C000346002B13D101235CE07B685B68002BAA
:10319C0006D1FFF73FF90346002B08D1012351E07C
:1031AC00FEF7EAFF0346002B01D101234AE07B68BE
:1031BC005B681846FFF78CF9FDF7C8FEF8600AE06B
:1031CC00FDF7C4FE0246FB68D31A41F288329342E3
:1031DC0001D9032336E0FFF78FF902467B685B6861
:1031EC009B009A42ECD1194B1B6803F007033A6819
:1031FC009A421BD2154B1B6823F0070213493B68FC
:10320C0013430B60FDF7A2FEF86008E0FDF79EFE8D
:10321C000246FB68D31A022B01D9032312E00B4B95
:10322C001B6803F007033A689A42EFD100F080F86C
:10323C000346074A1360FDF795FE03461846FDF753
:10324C0037FE034618461037BD4680BD0040005877
:10325C001000002090B585B000AFFFF74DF97860F5
:10326C007B68002B0AD1FFF709F903461B0903F011
:10327C000F032B4A52F82330FB604BE07B68042B86
:10328C0002D1284BFB6045E07B68082B0AD1FEF786
:10329C0013FF0346012B02D1234BFB603AE0234B77
:1032AC00FB6037E0FFF71EFA38603B68022B03D057
:1032BC003B68032B03D00DE01A4BBB6015E0FEF707
:1032CC00FBFE0346012B02D1174BBB600DE0174BE5
:1032DC00BB600AE0FFF7D2F803461B0903F00F03AB
:1032EC000F4A52F82330BB6000BFFFF7C4F9024607
:1032FC00BB6803FB02F4FFF7D7F903461B09013344
:10330C00B4FBF3F4FFF7C4F903465B0F0133B4FBD2
:10331C00F3F3FB60FB6818461437BD4690BD00BF45
:10332C00F84500080024F40000093D0000127A0062
:10333C0098B500AFFFF78EFF0446FFF752F903462E
:10334C001B0903F00F03034A52F82330B4FBF3F3C9
:10335C00184698BDB845000890B585B000AF7860A8
:10336C007B68B02B03D9154BDB6AFB6007E07B68ED
:10337C001B0903F00F03114A52F82330FB60FFF7CF
:10338C003CF903461B0903F00F030D4A52F8233096
:10339C00FA68B2FBF3F3BB60BB680A4AA2FB0323D7
:1033AC009C0CFEF77BFE03461946204600F00CF8F9
:1033BC00034618461437BD4690BD00BFF8450008BB
:1033CC00B845000883DE1B4390B593B000AF78601E
:1033DC003960374B07F128040FCB84E80F00354ACE
:1033EC0007F11C0307CA83E80700334B07F10C04F1
:1033FC000FCB84E80F0000237B643B68B3F5007FA0
:10340C001AD100233B6413E03B6C9B0048333B44D4
:10341C0053F8203C7A689A4207D83B6C9B0048339F
:10342C003B4453F83C3C7B6420E03B6C01333B64F5
:10343C003B6C032BE8D919E00023FB6313E0FB6B17
:10344C009B0048333B4453F82C3C7A689A4207D88B
:10345C00FB6B9B0048333B4453F83C3C7B6405E0DE
:10346C00FB6B0133FB63FB6B022BE8D9134B1B6823
:10347C0023F0070211497B6C13430B60FDF766FDCB
:10348C00B86308E0FDF762FD0246BB6BD31A022B52
:10349C0001D9032307E0094B1B6803F007037A6C7F
:1034AC009A42EFD1002318464C37BD4690BD00BF61
:1034BC001841000828410008344100080040005819
:1034CC0080B400AF4FF0B043D3F8903003F0010359
:1034DC00012B01D1012300E000231846BD465DF805
:1034EC00047B704780B400AF4FF0B043D3F89030FA
:1034FC0003F00203022B01D1012300E00023184644
:10350C00BD465DF8047B704780B483B000AF786033
:10351C004FF0B043D3F8943023F440424FF0B04115
:10352C007B681343C1F8943000BF0C37BD465DF87F
:10353C00047B704780B483B000AF78604FF0B04329
:10354C005B6A23F003024FF0B0417B6813434B627C
:10355C0000BF0C37BD465DF8047B704780B483B068
:10356C0000AF78604FF0B0435B6A23F030024FF04D
:10357C00B0417B6813434B6200BF0C37BD465DF80E
:10358C00047B704780B483B000AF78604FF0B043D9
:10359C00D3F8883023F003024FF0B0417B6813431B
:1035AC00C1F8883000BF0C37BD465DF8047B70470E
:1035BC0080B483B000AF78604FF0B043D3F888305C
:1035CC0023F440624FF0B0417B681343C1F888305C
:1035DC0000BF0C37BD465DF8047B704780B483B0E8
:1035EC0000AF78604FF0B043D3F888207B681B099C
:1035FC0003F47F23DB431A407B681B0103F47F2316
:10360C004FF0B0411343C1F8883000BF0C37BD46B2
:10361C005DF8047B704780B483B000AF78604FF0E6
:10362C00B043D3F888207B681B0C1B04DB431A4087
:10363C007B681B044FF0B0411343C1F8883000BFC6
:10364C000C37BD465DF8047B704780B483B000AF87
:10365C0078604FF0B043D3F8883023F440024FF039
:10366C00B0417B681343C1F8883000BF0C37BD46AE
:10367C005DF8047B704780B483B000AF78604FF086
:10368C00B043D3F8883023F040424FF0B0417B6810
:10369C001343C1F8883000BF0C37BD465DF8047B7E
:1036AC00704780B483B000AF78604FF0B043D3F86C
:1036BC00883023F040624FF0B0417B681343C1F86F
:1036CC00883000BF0C37BD465DF8047B704780B571
:1036DC0082B000AF78607868FFF7E3FF00BF08376F
:1036EC00BD4680BD80B483B000AF78604FF0B0436E
:1036FC00D3F8883023F040524FF0B0417B6813432D
:10370C00C1F8883000BF0C37BD465DF8047B7047AC
:10371C0080B483B000AF78604FF0B043D3F89030F2
:10372C0023F440724FF0B0417B681343C1F89030E2
:10373C0000BF0C37BD465DF8047B704780B400AF0A
:10374C004FF0B043D3F8903003F440731846BD46A5
:10375C005DF8047B704780B400AF4FF0B043D3F8F2
:10376C0090304FF0B04243F48033C2F8903000BF39
:10377C00BD465DF8047B704780B400AF4FF0B0439A
:10378C00D3F890304FF0B04223F48033C2F890302D
:10379C0000BFBD465DF8047B704780B400AF4FF0AE
:1037AC00B0431B684FF0B04243F08063136000BF1E
:1037BC00BD465DF8047B704780B400AF4FF0B0435A
:1037CC001B684FF0B04223F08063136000BFBD460E
:1037DC005DF8047B704780B400AF4FF0B0431B68BA
:1037EC0003F00063B3F1006F01D1012300E000236B
:1037FC001846BD465DF8047B704780B588B000AFB5
:10380C0078600023FB770023BB777B681B6803F091
:10381C004003002B34D07B681B6BB3F5400F21D0D9
:10382C00B3F5400F1BD8B3F5000F1DD0B3F5000F47
:10383C0015D8002B0BD0B3F5800F10D14FF0B0433F
:10384C00DB684FF0B04243F48033D3600DE07B680B
:10385C000433184600F047F90346FB7705E00123D3
:10386C00FB7702E000BF00E000BFFB7F002B05D11F
:10387C007B681B6B1846FFF7E8FE01E0FB7FBB770C
:10388C007B681B6803F40063002B46D0FFF756FFE0
:10389C00B8617B681B6CBA699A423CD0FEF79CFB02
:1038AC00BB69002B05D17B681B6C1846FFF730FFFA
:1038BC002EE04FF0B043D3F890307B61FFF74BFF15
:1038CC00FFF75AFF7B6923F440727B681B6C134330
:1038DC007B614FF0B0427B69C2F89030FFF7F0FD8E
:1038EC000346012B14D1FDF731FB38610BE0FDF7DA
:1038FC002DFB02463B69D31A41F28832934202D91E
:10390C000323FB7704E0FFF7EDFD0346012BEED11B
:10391C00FB7FBB7701E0FB7FBB777B681B6803F009
:10392C000103002B04D07B689B691846FFF72AFE25
:10393C007B681B6803F00203002B04D07B68DB69F7
:10394C001846FFF735FE7B681B6803F01003002B4D
:10395C0004D07B689B6A1846FFF75DFE7B681B688A
:10396C0003F02003002B04D07B68DB6A1846FFF7BA
:10397C0052FE7B681B6803F00403002B04D07B68A9
:10398C001B6A1846FFF72AFE7B681B6803F00803C6
:10399C00002B04D07B685B6A1846FFF71FFE7B6820
:1039AC001B6803F48073002B22D07B685B6B18467A
:1039BC00FFF78DFE7B685B6BB3F1006F07D14FF0A7
:1039CC00B043DB684FF0B04243F08073D3607B6848
:1039DC005B6BB3F1806F0BD17B680433184600F03E
:1039EC00DDF80346FB77FB7F002B01D0FB7FBB7719
:1039FC007B681B6803F40073002B2BD07B689B6BDC
:103A0C00B3F1804F08D07B689B6BB3F1004F03D0B0
:103A1C007B689B6B002B05D17B689B6B1846FFF773
:103A2C002AFE0AE07B689B6B23F08053FB6000202E
:103A3C00FFF721FEF868FFF734FE7B689B6BB3F150
:103A4C00C05F07D14FF0B043DB684FF0B04243F09A
:103A5C008073D3607B681B6803F48063002B22D0D7
:103A6C007B68DB6B1846FFF73DFE7B68DB6BB3F1C5
:103A7C00005F07D14FF0B043DB684FF0B04243F426
:103A8C008033D3607B68DB6BB3F1805F0BD17B68D9
:103A9C000433184600F0DDF80346FB77FB7F002B60
:103AAC0001D0FB7FBB777B681B6803F48053002B32
:103ABC0004D07B685B6C1846FFF726FD7B681B689F
:103ACC0003F40053002B09D07B68DB6C1846FFF71E
:103ADC0045FD7B689B6C1846FFF72CFDBB7F184699
:103AEC002037BD4680BD80B584B000AF7860002320
:103AFC00FB73FFF761FEFDF729FAB86009E0FDF7EB
:103B0C0025FA0246BB68D31A022B02D90323FB7396
:103B1C0004E0FFF760FE0346002BF0D1FB7B002B8B
:103B2C0037D14FF0B0431B6923F4FE427B681B680E
:103B3C001B024FF0B04113430B614FF0B0431B69B4
:103B4C0023F478127B685B684FF0B04113430B6130
:103B5C00FFF723FEFDF7FAF9B86009E0FDF7F6F977
:103B6C000246BB68D31A022B02D90323FB7304E071
:103B7C00FFF731FE0346012BF0D1FB7B002B08D164
:103B8C004FF0B0431A697B681B694FF0B041134387
:103B9C000B61FB7B18461037BD4680BD80B584B0E9
:103BAC0000AF78600023FB73FFF706FEFDF7CEF93C
:103BBC00B86009E0FDF7CAF90246BB68D31A022BBC
:103BCC0002D90323FB7304E0FFF705FE0346002B29
:103BDC00F0D1FB7B002B37D14FF0B0431B6923F4A2
:103BEC00FE427B681B681B024FF0B04113430B6114
:103BFC004FF0B0431B6923F060627B689B684FF009
:103C0C00B04113430B61FFF7C8FDFDF79FF9B86096
:103C1C0009E0FDF79BF90246BB68D31A022B02D9C7
:103C2C000323FB7304E0FFF7D6FD0346012BF0D111
:103C3C00FB7B002B08D14FF0B0431A697B681B69E2
:103C4C004FF0B04113430B61FB7B18461037BD4658
:103C5C0080BD80B584B000AF78600023FB73FFF7A4
:103C6C00ABFDFDF773F9B86009E0FDF76FF902469B
:103C7C00BB68D31A022B02D90323FB7304E0FFF7B2
:103C8C00AAFD0346002BF0D1FB7B002B37D14FF064
:103C9C00B0431B6923F4FE427B681B681B024FF088
:103CAC00B04113430B614FF0B0431B6923F06042EA
:103CBC007B68DB684FF0B04113430B61FFF76DFD80
:103CCC00FDF744F9B86009E0FDF740F90246BB681E
:103CDC00D31A022B02D90323FB7304E0FFF77BFDFD
:103CEC000346012BF0D1FB7B002B08D14FF0B043E6
:103CFC001A697B681B694FF0B04113430B61FB7B66
:103D0C0018461037BD4680BD80B584B000AF7860D2
:103D1C007B68002B01D1012395E07B685B6A002B4B
:103D2C0008D17B685B68B3F5827F09D07B68002281
:103D3C00DA6105E07B6800221A617B6800225A6117
:103D4C007B6800229A627B6893F85D30DBB2002BB3
:103D5C0006D17B68002283F85C207868FCF77AFF38
:103D6C007B68022283F85D207B681B681A687B687D
:103D7C001B6822F040021A607B68DB68B3F5E06FC9
:103D8C0002D90023FB6002E04FF48053FB607B6898
:103D9C00DB68B3F5706F07D07B68DB68B3F5E06F59
:103DAC0002D07B6800229A627B685B6803F48272A3
:103DBC007B689B6803F404431A437B681B6903F01C
:103DCC0002031A437B685B6903F001031A437B68A7
:103DDC009B6903F400731A437B68DB6903F03803B7
:103DEC001A437B681B6A03F0800342EA03017B6879
:103DFC009B6A03F400527B681B680A431A607B6859
:103E0C009B691B0C03F004027B685B6A03F01003D4
:103E1C001A437B685B6B03F008031A437B68DB680F
:103E2C0003F4706342EA0301FB6803F480527B687D
:103E3C001B680A435A607B6800221A667B68012261
:103E4C0083F85D20002318461037BD4680BD000066
:103E5C0080B588B000AF78607B681B685B68FB61DD
:103E6C007B681B689B68BB61BB699B0903F0010302
:103E7C00002B0FD1BB6903F00103002B0AD0FB69A7
:103E8C009B0903F00103002B04D07B68DB6C786882
:103E9C009847D7E0BB695B0803F00103002B0AD0FD
:103EAC00FB69DB0903F00103002B04D07B681B6D5D
:103EBC0078689847C6E0BB695B0903F00103002BE7
:103ECC000CD1BB699B0903F00103002B06D1BB6924
:103EDC001B0A03F00103002B00F0B480FB695B09A3
:103EEC0003F00103002B00F0AD80BB699B0903F0CC
:103EFC000103002B23D07B6893F85D30DBB2032BDE
:103F0C0011D07B681B6E43F004027B681A66002399
:103F1C007B617B681B68DB687B617B681B689B68CB
:103F2C007B617B690BE000233B617B681B68DB6872
:103F3C003B617B681B689B683B613B6982E0BB69AA
:103F4C005B0903F00103002B14D07B681B6E43F05C
:103F5C0001027B681A660023FB607B681B689B6808
:103F6C00FB607B681B681A687B681B6822F0400248
:103F7C001A60FB68BB691B0A03F00103002B0CD011
:103F8C007B681B6E43F008027B681A660023BB60DB
:103F9C007B681B689B68BB60BB687B681B6E002BD7
:103FAC004FD07B681B685A687B681B6822F0E00264
:103FBC005A607B68012283F85D20FB6903F00203E1
:103FCC00002B04D1FB6903F00103002B34D07B6878
:103FDC001B685A687B681B6822F003025A607B6876
:103FEC009B6D002B11D07B689B6D184A9A637B6884
:103FFC009B6D1846FDF727F90346002B05D07B680F
:10400C001B6E43F040027B681A667B685B6D002B6D
:10401C0016D07B685B6D0D4A9A637B685B6D1846A6
:10402C00FDF711F90346002B0AD07B681B6E43F099
:10403C0040027B681A6603E0786800F009F800E03B
:10404C0000BF00BF2037BD4680BD00BF71400008D7
:10405C0080B483B000AF786000BF0C37BD465DF80C
:10406C00047B704780B584B000AF78607B689B6A36
:10407C00FB60FB680022A3F84620FB680022DA876D
:10408C00F868FFF7E5FF00BF1037BD4680BD02445E
:10409C000346934200D1704703F8011BF9E7000077
:1040AC0070B50D4D0D4C641BA4100026A64209D111
:1040BC000B4D0C4C00F018F8641BA4100026A64203
:1040CC0005D170BD55F8043B98470136EEE755F81D
:1040DC00043B98470136F2E738460008384600089A
:1040EC00384600083C460008F8B500BFF8BC08BCD0
:1040FC009E467047F8B500BFF8BC08BC9E4670479A
:10410C0061686F6A2073766574000000120000000D
:10411C0024000000360000004000000006000000F3
:10412C000C00000010000000000000000100000066
:10413C00020000000300000000000000000000006E
:10414C000000000000101010101000001000000003
:10415C00006C484800000000000000000014142807
:10416C007C287C28505000000010384040384870A3
:10417C0010100000002050200C70081408000000E3
:10418C0000000018202054483400000000101010CB
:10419C0010000000000000000008081010101010A3
:1041AC001008080000202010101010101020200003
:1041BC0000107C10282800000000000000001010E7
:1041CC0010FE10101000000000000000000000188D
:1041DC001030200000000000007C000000000000F7
:1041EC000000000000000030300000000004040853
:1041FC00081010202040000000384444444444443B
:10420C003800000000301010101010107C0000005E
:10421C0000384404081020447C000000003844049A
:10422C001804044438000000000C141424447E04C8
:10423C000E000000003C202038040444380000002C
:10424C00001C20407844444438000000007C4404A6
:10425C000808081010000000003844443844444456
:10426C003800000000384444443C0408700000004E
:10427C00000000303000003030000000000000185A
:10428C00180000183020000000000C106080601036
:10429C000C000000000000007C007C00000000000E
:1042AC000000C02018041820C000000000001824D2
:1042BC0004081000300000003844444C54544C4066
:1042CC00443800000030102828287C44EE00000000
:1042DC0000F8444478444444F8000000003C444056
:1042EC00404040443800000000F0484444444448F6
:1042FC00F000000000FC445070504044FC000000F2
:10430C00007E22283828202070000000003C444009
:10431C00404E44443800000000EE44447C44444485
:10432C00EE000000007C1010101010107C0000003B
:10433C00003C0808084848483000000000EE44489B
:10434C0050704844E60000000070202020202424F7
:10435C007C00000000EE6C6C54544444EE000000F1
:10436C0000EE64645454544CEC0000000038444497
:10437C00444444443800000000782424243820208D
:10438C00700000000038444444444444381C00008D
:10439C0000F8444444784844E200000000344C40A7
:1043AC00380404645800000000FE92101010101025
:1043BC003800000000EE44444444444438000000FB
:1043CC0000EE4444282828101000000000EE44445D
:1043DC00545454542800000000C64428101028449B
:1043EC00C600000000EE4428281010103800000011
:1043FC00007C4408101020447C0000000038202071
:10440C0020202020202038000040202020101008E0
:10441C0008080000003808080808080808083800D0
:10442C0000101028440000000000000000000000F4
:10443C0000000000000000FE00100800000000005A
:10444C000000000000000038443C44443E000000E2
:10445C0000C0405864444444F80000000000003C94
:10446C004440404438000000000C04344C444444A4
:10447C003E00000000000038447C40403C0000003E
:10448C00001C207C202020207C0000000000003636
:10449C004C4444443C04380000C0405864444444F8
:1044AC00EE00000000100070101010107C000000D6
:1044BC0000100078080808080808700000C0405C6C
:1044CC0048705048DC000000003010101010101024
:1044DC007C000000000000E854545454FE0000001E
:1044EC00000000D864444444EE0000000000003892
:1044FC004444444438000000000000D86444444460
:10450C007840E000000000364C4444443C040E006B
:10451C000000006C302020207C0000000000003CDB
:10452C0044380444780000000000207C2020202225
:10453C001C000000000000CC4444444C3600000039
:10454C00000000EE4444282810000000000000EE9B
:10455C004454545428000000000000CC483030482B
:10456C00CC000000000000EE442428181010780045
:10457C000000007C481020447C0000000008101053
:10458C001010201010100800001010101010101037
:10459C001010000000201010101008101010200037
:1045AC000000000000245800000000000100000082
:1045BC0003000000050000000100000001000000E5
:1045CC00060000000A0000002000000002000000AD
:1045DC000400000008000000100000004000000073
:1045EC00800000000001000000020000A086010015
:1045FC00400D0300801A060000350C0040420F00ED
:10460C0080841E0000093D0000127A000024F40092
:10461C0000366E010048E801006CDC02000000006E
:0C462C0000000000000000000000000082
:044638006101000814
:04463C003D01000834
:104640004441000807000C0000093D001000000074
:044650000100000065
:0400000508000E21C0
:00000001FF
