:020000040800F2
:1000000000000320A53A00084938000851380008CC
:1000100059380008613800086938000800000000FD
:10002000000000000000000000000000713800081F
:100030007F380008000000008D3800089B38000859
:10004000FD3A00086F390008FD3A0008A938000899
:10005000FD3A0008FD3A0008BD380008FD3A0008E6
:10006000CB380008D9380008E7380008F538000810
:10007000FD3A0008FD3A0008FD3A0008FD3A000884
:10008000FD3A0008FD3A0008FD3A00080139000871
:1000900015390008FD3A0008FD3A00082939000822
:1000A000FD3A0008FD3A0008FD3A0008FD3A000854
:1000B000FD3A0008FD3A0008FD3A0008FD3A000844
:1000C000FD3A0008FD3A0008FD3A0008FD3A000834
:1000D000FD3A0008FD3A000839390008FD3A0008E9
:1000E000FD3A00084D390008FD3A0008FD3A0008C5
:1000F000FD3A0008FD3A0008FD3A0008FD3A000804
:10010000FD3A0008FD3A0008FD3A0008FD3A0008F3
:10011000FD3A0008FD3A000861390008FD3A000880
:10012000FD3A0008FD3A0008FD3A0008FD3A0008D3
:0C013000FD3A0008FD3A0008FD3A000806
:1001400010B5054C237833B9044B13B10448AFF311
:1001500000800123237010BD300200200000000049
:1001600050A5010808B5034B1BB103490348AFF381
:10017000008008BD000000003402002050A50108E6
:10018000034613F8012B002AFBD1181A01387047D7
:1001900001F0FF01102A2BDB10F0070F08D010F838
:1001A000013B013A8B422DD010F0070F42B3F6D13C
:1001B000F0B441EA012141EA014122F007047FF055
:1001C00000070023F0E80256083C85EA010586EAAC
:1001D000010685FA47F5A3FA87F586FA47F6A5FAE8
:1001E00087F68EB9EED1F0BC01F0FF0102F00702F4
:1001F00032B110F8013B013A83EA010313B1F8D19F
:100200000020704701387047002D06BF354603387F
:10021000073815F0010F07D1013015F4807F02BFB8
:10022000013015F4C03F0130F0BC0138704700BF09
:100230007BB972B90029BEBF00204FF0004106E033
:1002400008BF00281CBF6FF000414FF0FF3000F0E6
:10025000E7B9ADF1080C6DE904CE002909DB002BEC
:100260001ADB00F061F8DDF804E0DDE9022304B0F8
:100270007047404261EB4101002B1BDB00F054F85A
:10028000DDF804E0DDE9022304B0404261EB410106
:10029000524263EB43037047524263EB430300F067
:1002A00043F8DDF804E0DDE9022304B0404261EBED
:1002B00041017047524263EB430300F035F8DDF82B
:1002C00004E0DDE9022304B0524263EB43037047CC
:1002D00053B94AB9002908BF00281CBF4FF0FF31AD
:1002E0004FF0FF3000F09CB9ADF1080C6DE904CE81
:1002F00000F01AF8DDF804E0DDE9022304B07047ED
:10030000430803F05533C01A830803F0333300F079
:100310003330184400EB101000F00F3000EB0020D9
:1003200000EB0040000E70472DE9F047089D8E4617
:1003300004468846002B4AD18A42174662D9B2FA4F
:1003400082F64EB1C6F1200301FA06F820FA03F353
:10035000B74043EA0808B4404FEA174E1FFA87FC3B
:10036000B8FBFEF1230C0EFB118843EA084301FBA6
:100370000CF29A4209D9FB1801F1FF3080F0EA80B3
:100380009A4240F2E78002393B449A1AA3B2B2FB88
:10039000FEF00EFB102243EA024300FB0CFC9C45DE
:1003A00009D9FB1800F1FF3280F0D6809C4540F25D
:1003B000D3803B44023840EA0140A3EB0C03002108
:1003C0001DB1F3400022C5E90032BDE8F0878B4241
:1003D00005D90DB1C5E9000100210846F5E7B3FADA
:1003E00083F1002946D1734502D3824200F2058190
:1003F000841A6EEB030201209046002DE5D0C5E97A
:100400000048E2E7002A00F09080B2FA82F6002E5F
:1004100040F0A4808A1A030C4FEA174E80B2BCB297
:100420000121B2FBFEFC0EFB1C2243EA024304FB4B
:100430000CF29A4207D9FB180CF1FF3802D29A420B
:1004400000F2E080C4469B1AB3FBFEF20EFB1233AF
:1004500040EA034302FB04F49C4207D9FB1802F173
:10046000FF3002D29C4200F2CA8002461B1B42EAC5
:100470000C40A5E7C1F120068B4022FA06F71F4386
:100480000EFA01F420FA06F32EFA06FE4FEA174997
:10049000234300FA01F81FFA87FCBEFBF9F01C0C9D
:1004A00009FB10EE44EA0E4400FB0CFEA64502FADE
:1004B00001F209D93C1900F1FF3A80F09C80A64571
:1004C00040F2998002383C44A4EB0E041FFA83FEEC
:1004D000B4FBF9F309FB13444EEA044403FB0CFCA0
:1004E000A44508D93C1903F1FF3E80F08280A44561
:1004F0007FD9023B3C4443EA0040A4EB0C04A0FB40
:1005000002EC64457346E14662D35FD05DB1B8EB5F
:10051000030264EB090404FA06F622FA01F31E430F
:10052000CC40C5E9006400214FE7B1FBF2FC010CAF
:1005300041EA0E4180B240EA01423B4638463C4621
:10054000B846BE462026B1FBF7F1A2EB080241EA0D
:100550000C4166E7014618E710462CE7C6F1200279
:100560002EFA02F3B740B14020FA02F24FEA174EDA
:100570000A43B3FBFEF8BCB20EFB1833110C41EA80
:10058000034108FB04F9B04089454FEA104380B2AB
:100590003ED9791808F1FF3C01D289451FD8A1EB5B
:1005A0000901B1FBFEF909FB04F80EFB191192B227
:1005B00042EA0142424529D2BA1809F1FF31C4D2B8
:1005C0004245C2D2A9F102013A44BEE7F0459DD2AC
:1005D000BEEB02036CEB070C0138E14696E7A7EB94
:1005E00009094944A8F1020CB1FBFEF909FB04F822
:1005F000DBE773467FE7504666E70846FDE63B4487
:10060000023A33E7ACF1020C3B441CE749469CE755
:10061000A1EB0901C446B1FBFEF909FB04F8C4E7EC
:10062000704700BF80B582B000AF786005F000F978
:1006300002467B68D31ADB43DB0FDBB21846083770
:10064000BD4680BD80B483B000AF0346FB80FB880D
:1006500003F003039BB2002B1AD1FB88114AA2FBC3
:1006600003125209642101FB02F29B1A9BB2002B78
:100670000CD1FB880B4AA2FB0312D2094FF4C871BC
:1006800001FB02F29B1A9BB2002B01D1012300E077
:10069000002303F00103DBB218460C37BD465DF8BA
:1006A000047B70471F85EB5180B584B000AF786044
:1006B00039600023FB607B68002B1ED03B68002B59
:1006C0001BD07B689B78002B17D07B689B780C2B0A
:1006D00013D87B68DB78002B0FD07B68DB781F2B6F
:1006E0000BD87B689B79172B07D87B68DB793B2B72
:1006F00003D87B681B7A3B2B01D9002354E04FF4CD
:10070000FA637B8111E07B891846FFF79BFF034664
:10071000002B02D04FF4B77301E040F26D13FA687A
:100720001344FB607B8901337B817B681B887A895A
:100730009A42E8D37B689B78013B1D4A32F813301C
:100740001A46FB681344FB607B689B78022B0AD92E
:100750007B681B881846FFF775FF0346002B02D005
:10076000FB680133FB607B68DB781A46FB68134447
:10077000013BFB60FB680F4A03FB02F27B689B793D
:1007800019464FF4616301FB03F31A447B68DB797C
:1007900019460B461B015B1A9B0013447A68127AB8
:1007A0001A443B681A60012318461037BD4680BDC5
:1007B00034A701088051010080B586B000AF2C4BF2
:1007C0001B7883F00103DBB2002B06D1294B1B7889
:1007D00083F00103DBB2002B02D04FF0FF3342E085
:1007E00004F0FCFE034683F00103DBB2002B26D1AC
:1007F00007F10803184604F09FFE034683F0010347
:10080000DBB2002B1BD13B4619461B48FFF74CFFC0
:10081000034683F00103DBB2002B10D13A1D07F130
:10082000080311461846FFF73FFF034683F0010314
:10083000DBB2002B03D17A683B689A4202D24FF0B8
:10084000FF3310E07A683B68D31A0C4AA2FB0323FB
:100850005B097B617B6941F29772934202D941F255
:1008600097737B617B6918461837BD4680BD00BF12
:10087000380A00203B0A00203C0A0020898888882A
:1008800080B584B002AF786039607B68002B2FD0D0
:100890003B68002B2CD0184B1B68002B05DA174A3D
:1008A0003968786819F0A0F923E0134B1B68144AE3
:1008B00082FB03129211DB17D01A0F4B1A68104BF0
:1008C00083FB02139911D317CB1A4FF47A7101FBF2
:1008D00003F3D31A0B4A82FB03129210DB17D31ACD
:1008E00000930346084A3968786819F07DF900E0FA
:1008F00000BF0837BD4680BD0C00002070A5010870
:10090000D34D6210676666667CA5010880B582B02B
:1009100000AF786039607B68002B17D03B68002BF4
:1009200014D00C4B93F9003013F1800F05D10A4A13
:100930003968786819F058F909E0064B93F90030E6
:10094000064A3968786819F04FF900E000BF0837A7
:10095000BD4680BD080000208CA5010894A50108B3
:1009600080B582B000AF786039607B68002B20D002
:100970003B68002B1DD0114B1B7883F00103DBB2C9
:10098000002B05D00E4A3968786819F02DF911E06E
:100990000C4B1B780C4AA2FB03125209642101FB89
:1009A00002F29B1ADBB2094A3968786819F01CF91F
:1009B00000E000BF0837BD4680BD00BF380A0020F8
:1009C0009CA501083A0A00201F85EB51A0A501084B
:1009D00080B588B002AFF860B9607A60FFF7ECFECE
:1009E0007861FB68002B29D0BB68002B26D07B6880
:1009F000002B02D07B687A691A607B69B3F1FF3FF4
:100A000005D1104AB968F86819F0EEF817E07B696B
:100A10000D4AA2FB0323580979690B4BA3FB012361
:100A20005A0913461B019B1A9B00CA1A00920346DF
:100A3000064AB968F86819F0D7F800E000BF18371F
:100A4000BD4680BDA8A5010889888888B0A5010891
:100A500080B485B000AF78607B68FB607B68002B5A
:100A600002DA4FF0FF3317E0FB68B3F52F6F02DABD
:100A70004FF42F63FB60FB6841F20402934202DDF6
:100A800041F20403FB60FB68A3F52F63054A82FB78
:100A900003129210DB17D31A18461437BD465DF8BF
:100AA000047B70474FECC44E80B590B002AFF86045
:100AB000B9607A603B602B4B7B634FF0FF333B6345
:100AC0000323FB62FB68002B48D0BB68002B45D09A
:100AD00007F1140318220021184619F0BBF807F19A
:100AE0001403184603F02AFA7B691846FFF7B0FF93
:100AF0003863BB6AFB62BB6A012B02D11A4B7B6372
:100B00000DE0BB6A022B02D1184B7B6307E0BB6A86
:100B1000002B02D1164B7B6301E0124B7B637B6899
:100B2000002B02D07B68FA6A1A603B68002B02D067
:100B30003B683A6B1A603B6B002B08DB3B6B009306
:100B40007B6B0C4AB968F86819F04EF807E07B6BCC
:100B5000094AB968F86819F047F800E000BF38376B
:100B6000BD4680BDBCA50108C0A50108CCA50108F3
:100B7000D4A50108DCA50108E4A5010890B58BB057
:100B800004AF0446084611461A462346FB80034636
:100B9000BB800B467B8013463B80FA887B881344DE
:100BA000FB82BA883B881344BB8208237B823B8844
:100BB000184AA2FB03235B083B82FB8AFB813A882D
:100BC0003B8AD31A5B089AB2BB881344BB81BB8AA9
:100BD000FA8AB988F8880124029400240194002438
:100BE000009404F0CFF8FA897B8A13449CB2BA8946
:100BF0003B8A13449BB2B989F889012202920122EF
:100C0000019200220092224604F0BCF800BF1C377B
:100C1000BD4690BDABAAAAAA90B589B004AF7860D2
:100C200039607B68002B64D03B68002B61D0334B6C
:100C30001B7883F00103DBB2002B05D0304A396802
:100C4000786818F0D1FF55E02E4B1B7883F0010334
:100C5000DBB2002B38D02B4B5B69002B18D0294B13
:100C60001B7A1C46274B1B6B264A526B254991F871
:100C700048100846234991F84910039102900192C7
:100C800000932346204A3968786818F0ADFF31E0B8
:100C90001C4B1B7A1C461B4B1B7B1846194B5B6A73
:100CA000DBB2184A126A1949A1FB0212920C1549CB
:100CB000896A03910292019300902346144A39688D
:100CC000786818F091FF15E002F0C8FAF8600D4B53
:100CD000B3F8403019460B4BB3F842301A46FB6864
:100CE000019300920B460B4A3968786818F07CFF34
:100CF00000E000BF1437BD4690BD00BF390A002098
:100D0000ECA50108480A0020F4A5010883DE1B4376
:100D10000CA6010824A6010880B5A2B004AF786033
:100D20004FF0FF337B614FF0FF333B6107F17003FE
:100D300008211846FFF714FE07F168037A680821B6
:100D40001846FFF745FE594803F0C6FDFF2003F0A3
:100D5000A5FE574B1B78002B47D007F1100307F176
:100D6000140207F118001821FFF79EFE2C237822A9
:100D70000C211E20FFF702FF3B69002B12DB3B69B1
:100D800007F108004B4A082118F02EFF07F108026E
:100D900000230193FF230093474B16213A2004F0D0
:100DA00017F909E000230193FF230093424B434AC4
:100DB0001621382004F00CF907F1180200230193E2
:100DC000FF2300933E4B4221202004F001F97B6871
:100DD000002B03D03B4B1A687B681A607B693A4A48
:100DE00013603B69394A13605CE007F15403122138
:100DF0001846FFF745FD07F148030C211846FFF799
:100E000085FD07F1300318211846FFF705FF07F1AC
:100E1000700200230193FF2300932D4B0221042035
:100E200004F0D6F807F1680200230193FF23009332
:100E3000274B02214C2004F0CBF80123029300231E
:100E40000193002300932223B2222221062003F0E3
:100E5000EFFE07F1300200230193FF230093184BAC
:100E60002A21062004F0B4F807F15402002301936C
:100E7000FF230093124B3A21062004F0A9F807F152
:100E8000480200230193FF2300930D4B3A21642075
:100E900004F09EF80C4B4FF0FF321A600B4B4FF0F2
:100EA000FF321A607837BD4680BD00BF4C0200207B
:100EB000370A002034A60108440000203CA601089F
:100EC0003C0000201000002014000020180000202A
:100ED0004C00002080B582B000AF104B1B7883F02F
:100EE0000103DBB2002B13D10D4B1B78002B0FD16C
:100EF000FFF762FC78607B68B3F1FF3F0AD0094BD3
:100F00001B687A689A4206D0054B01221A7002E0EB
:100F100000BF00E000BF0837BD4680BD380A002092
:100F2000360A00201000002080B588B000AF4FF0D6
:100F3000FF337B604FF0FF333B600F4B1B7883F038
:100F40000103DBB2002B13D10C4B1B78002B0FD10C
:100F50003B463A1D07F108001821FFF7A5FD7A6806
:100F6000074B1B689A4204D0044B01221A7000E020
:100F700000BF2037BD4680BD370A0020360A00205A
:100F80001400002080B582B002AF03F083FBFF2382
:100F900000934FF48773B8225821254803F04AFC88
:100FA000234803F099FCFF2003F078FD214B012238
:100FB0001A70214B01221A70204B01221A70204B0B
:100FC00000221A701F4B00221A701F4B00221A7049
:100FD0001E4B00221A701E4B80221A701D4B4FF0C0
:100FE000FF321A601C4B00221A700A2200211B4893
:100FF00018F030FE4C220021194818F02BFE194B36
:1010000000221A60184B00221A60184B00221A6046
:10101000174B4FF0FF321A60164B4FF0FF321A6039
:10102000154B4FF0FF321A6001231846BD4680BDB4
:101030004C020020340A0020350A0020360A002025
:10104000370A0020380A0020390A00203A0A002016
:10105000080000200C0000203B0A00203C0A002071
:10106000480A0020940A0020980A00209C0A0020C8
:1010700010000020140000201800002080B500AFF0
:1010800003F0EEF90346184680BD80B500AF03F0CB
:10109000F9F90346184680BD80B582B000AF03461B
:1010A000FB71124B1B78FA799A421BD00F4AFB79DD
:1010B00013700F4B01221A7004F0BAFB034603F5BC
:1010C0006A4360330B4A1360FB7983F00103DBB2A0
:1010D000002B07D0084B4FF0FF321A60074B4FF040
:1010E000FF321A6000BF0837BD4680BD370A0020B6
:1010F000360A00209C0A002014000020180000205E
:1011000080B584B000AFBA607B600346FB730B46CA
:10111000BB731C4B01221A701B4AFB7B13701B4ACA
:10112000BB7B13701A4ABB6813601A4B00221A70FB
:101130003B7E002B0DD07B68002B0AD0164B7A68C3
:101140001068516803C312891A80124B01221A7069
:1011500004E00A220021104818F07CFD04F068FB2E
:10116000034603F56A4360330C4A13600C4B4FF09F
:10117000FF321A600B4B01221A7000BF1037BD46B8
:1011800080BD00BF380A00203A0A00200800002075
:101190000C0000203B0A00203C0A0020980A002096
:1011A00010000020360A002080B582B000AF7860C1
:1011B00039607B68002B08D10D4B00221A704C223D
:1011C00000210C4818F046FD0AE0094B01221A7074
:1011D000084A7B68104619464C231A4618F06EFDE3
:1011E000054B01221A7000BF0837BD4680BD00BF05
:1011F000390A0020480A0020360A002080B582B053
:1012000000AF4FF0FF337B60404B1B7883F001034E
:10121000DBB2002B6DD103F047F903F021F903464F
:10122000002B68D13A4B1B681846FFF7FBF90346C1
:1012300083F00103DBB2002B5FD1364B1B78002B10
:101240000FD003F0C7F80346002B58D0314B0022D3
:101250001A7004F0EDFA034603F57A732C4A136012
:101260004DE02D4B1B78002B15D0FFF75DFE2B4B6F
:101270001B681846FFF7D6F90346002B21D0284BF0
:1012800001221A7004F0D4FA034603F56A4360336E
:10129000224A136015E0234B1B78002B11D0224B00
:1012A0001B681846FFF7BEF90346002B09D0FFF76D
:1012B00011FE04F0BDFA034603F56A4360331A4A8F
:1012C0001360174B1B7883F00103DBB2002B18D19E
:1012D0003B1D1846FFF720FD144803F09BF803461A
:1012E000002B0FD00E4B00221A707B68104A13603F
:1012F00008E000BF06E000BF04E000BF02E000BF5E
:1013000000E000BF0837BD4680BD00BF340A0020A2
:10131000940A0020350A0020370A00209C0A002089
:10132000360A0020380A0020980A00204C020020CB
:101330001000002080B582B000AF7860396004F002
:1013400063F8034683F00103DBB2002B01D00023D6
:1013500072E004F061F9034683F00103DBB2002B75
:1013600001D0002368E0012004F0C2F9034683F0B5
:101370000103DBB2002B01D000235DE078680FF0A1
:101380009BFD034683F00103DBB2002B01D0002359
:1013900052E0386800F0F0FC02F03EFC00F07CFA0D
:1013A00000F084FB01F0D6FD03461A46244B1A7068
:1013B000FFF7E8FD034683F00103DBB2002B01D009
:1013C000002339E000F042FA03461A461D4B1A701A
:1013D0001D4B00221A7000F0C7FA00F047FA0346CE
:1013E000184602F05BFD01200FF08CFD0FF0D8FDD8
:1013F00000F0B0FB034683F00103DBB2002B01D009
:10140000002319E000F05EFA0346002B06D000F03E
:101410009BFA0E4B01221A7001230DE00B4B0022A8
:101420001A7017F0C7FF034683F00103DBB2002BED
:1014300001D000F038FA012318460837BD4680BDB8
:10144000AE0A0020A10A0020AD0A0020A00A002058
:1014500080B594B000AF00F0D5FA00F0D5FC964B03
:101460001B78DBB2002B0CD000F052FA034683F05D
:101470000103DBB2002B04D08F4B00221A7002F064
:10148000A1FD8E4B1B78002B22D08D4B1B78DBB23D
:10149000002B1DD08B4B1B7883F00103DBB2002B9C
:1014A00016D001F097FE034683F00103DBB2002B58
:1014B0000ED001F08DFD0346002B03D0804B00229F
:1014C0001A7005E07E4B00221A707F4B00221A70C2
:1014D0007A4B1B78002B0ED07B4B1B78DBB2002B9A
:1014E00009D001F077FE0346002B04D0764B002292
:1014F0001A7001F0EFFD714B1B78002B14D0724B6A
:101500001B78DBB2002B0FD06D4B1B78DBB2002BAE
:101510000AD101F05FFE034683F00103DBB2002B2A
:1015200002D0694B00221A70644B1B78002B1ED02E
:1015300001F0F2FD3B1D184601F05CFE0346002B56
:1015400015D0624B1B78042B07D1BB6C184601F0F9
:1015500075FE5E4B00221A7009E05D4B18463B1D7C
:101560004C22194618F0AAFB5A4B01221A70574B0D
:101570001B78013B032B50D801A252F823F000BF87
:1015800091150008BB150008FD1500081B16000882
:10159000002001F053FE01F01BFD0346002B08D094
:1015A00004F046F903464C4A1360484B02221A7075
:1015B00038E0464B00221A7034E004F039F9024654
:1015C000454B1B68D31AB3F57A7F28DB01F098FDF1
:1015D0003B1D184601F00EFE01F0FAFC0346002BFD
:1015E00008D004F025F903463B4A1360374B032229
:1015F0001A7014E0354B00221A7010E004F018F94C
:101600000246354B1B68D31AB3F57A7F09DB01F02C
:1016100061FD2E4B04221A7003E000BF02E000BF00
:1016200000E000BF00F074F9034683F00103DBB271
:10163000002B18D000F01AF90346184602F02EFCD1
:1016400002F096FC0346002B14BF01230023DBB2FB
:1016500083F00103DBB203F00103DBB218460FF0A5
:1016600051FC0FF09DFC00F093FA00F0C1FAFFF777
:10167000C5FD1A4B1B78DBB2002B0BD117F09AFE7D
:101680000346002B06D000F0C9F90346002B01D019
:1016900000F009F902F06CFC0346002B06D000F0C4
:1016A00009F900F034FA00F06FF901E000F06CF98C
:1016B0005037BD4680BD00BFA50A0020AE0A0020FD
:1016C000A30A0020AC0A0020A40A0020FC0A002083
:1016D000B00A0020AF0A0020000B0020A00A002062
:1016E00080B582B000AF0346FB80FB88102B06D18B
:1016F00000F0ACF803461A463D4B1A7075E0FB88C3
:10170000042B49D104214FF0904006F0E5FC03463C
:10171000012B1FD1374B01221A70374B00221A7050
:101720004C220021354818F095FA354B1B78002BD8
:101730005AD0344B1B7883F00103DBB2002B53D01B
:1017400000200FF0DFFB304B01221A702F4B0022DC
:101750001A7049E0274B1B78DBB2002B44D0254B95
:1017600000221A702A4B01221A7004F061F8034615
:10177000284A1360224B1B78002B35D0224B1B7854
:10178000DBB2002B04D101F025FD0346002B2BD04A
:101790001E4B01221A7027E0FB88082B01D10FF0A5
:1017A000E7FCFB88012B20D11B4B1B78002B1CD1A5
:1017B000134B1B78002B18D0124B1B7883F00103BE
:1017C000DBB2002B11D001F005FD034683F00103CD
:1017D000DBB2002B09D00C4B1B78DBB2002B04D101
:1017E0000D4B01221A7000E000BF0837BD4680BDD6
:1017F000A10A0020A60A0020AF0A0020B00A00209B
:10180000AE0A0020AC0A0020A30A0020A40A00208F
:10181000A20A0020A80A0020FC0A002080B400AF21
:10182000034B01221A7000BFBD465DF8047B704770
:10183000A50A002080B400AF034B01221A7000BF3C
:10184000BD465DF8047B7047A50A002080B500AF57
:101850001021054806F040FC0346002B01D001236F
:1018600000E00023184680BD0010004880B500AF9E
:10187000084B1B78DBB2002B04D100F023F80346A1
:10188000002B01D0012300E0002303F00103DBB2B1
:10189000184680BDA10A002080B400AF00BFBD463D
:1018A0005DF8047B704780B400AF00BFBD465DF8B3
:1018B000047B704780B400AF00BFBD465DF8047B79
:1018C0007047000080B500AF104B1B7883F0010318
:1018D000DBB2002B07D117F015FE034683F001039E
:1018E000DBB2002B01D000230DE017F01DFE0346F4
:1018F000002B14BF01230023DBB283F00103DBB212
:1019000003F00103DBB2184680BD00BFAD0A002022
:1019100080B500AF0A4B1B78002B0BD0094B1B780E
:10192000DBB2002B04D101F055FC0346002B01D0A3
:10193000012300E0002303F00103DBB2184680BD61
:10194000AE0A0020A30A002080B500AF054B01229B
:101950001A70012016F06CFE0120FFF79DFB00BFFE
:1019600080BD00BFAC0A002080B500AF054B00224F
:101970001A70002016F05CFE0020FFF78DFB00BF00
:1019800080BD00BFAC0A002080B500AF1A4B1B78A9
:10199000002B11D1194B1B78002B0DD100F05AFAF6
:1019A0000346002B08D1164B1B78002B06D001F004
:1019B00011FC0346002B01D030BF1BE0FFF75EFB9C
:1019C0000346002B09D0FFF760FB034683F00103B9
:1019D000DBB2002B01D030BF0CE003F041FF01204F
:1019E00009F0A8F900F0C0FA00F034FB03F048FF5A
:1019F00002F0E8FA80BD00BFAC0A0020AD0A00206A
:101A0000AE0A002080B500AFFFF720FF03461A465C
:101A1000014B1A7000BF80BDA10A002080B58EB0B6
:101A200000AF0023FB8017F0C5FC034683F00103E1
:101A3000DBB2002B03D016F0E1FE034632E017F0D4
:101A4000AFFC034683F00103DBB2002B01D000237F
:101A500028E002F0ABFA034683F00103DBB2002B6F
:101A600001D000231EE017F05DFC034683F0010364
:101A7000DBB2002B01D0002314E0BA1D07F10803EC
:101A80003021184616F01CFE0346002B07D0FB88B9
:101A9000302B04D107F1080318460FF02FFC16F085
:101AA000ADFE034618463837BD4680BD80B500AF51
:101AB00017F080FC034683F00103DBB2002B04D057
:101AC00016F09CFE0346002B0FD1FFF7A7FF03463D
:101AD000002B0CD117F064FC034683F00103DBB24A
:101AE000002B05D016F020FE02E000BF00E000BF92
:101AF00080BD80B500AF17F05DFC0346002B01D020
:101B0000FFF78CFF16F07AFE0346184680BD80B5BD
:101B10008CB000AF3B4618460FF07EFB3B463021B1
:101B2000184616F095FD00200FF0ECF917F042FC76
:101B3000034683F00103DBB2002B06D017F042FB13
:101B40000346002B01D017F06DFC00BF3037BD46B7
:101B500080BD000080B500AF0C4B1B78002B01D07E
:101B6000012311E0FFF7C5FF034683F00103DBB259
:101B7000002B01D0002307E017F0AEFC16F0A0FB0D
:101B8000024B01221A700123184680BDAD0A0020C5
:101B900080B582B000AFFFF795FE0346FB71FB797D
:101BA000002B0ED0104B1B7883F00103DBB2002B0F
:101BB00003D0FFF77FFEFFF7C7FE0C4B01221A7020
:101BC0000FE0094B1B78002B08D0FFF7CDFEFFF785
:101BD00025FF0346002B01D0FFF765FE034B0022D3
:101BE0001A700837BD4680BDAC0A0020A00A00204C
:101BF00090B5A1B002AF802387F84F30002387F85B
:101C00007730002387F87630012387F87530524B00
:101C10001B78DBB2002B00F09980504B1B78002B17
:101C200006D04D4B00221A70282000F0BFF890E03B
:101C3000FFF76EFE0346002B26D003F0F9FD0246A7
:101C4000474B1B68D31AB3F5FA6FC0F28180454B3E
:101C500000221A70444B00221A7001F051FA434BD3
:101C60001B78002B10D03B46184601F0C3FA034600
:101C7000002B09D03E4B18463B464C22194618F023
:101C80001DF83C4B01221A70334B00221A7007F1E9
:101C90005C0318220021184617F0DCFF07F15C03F3
:101CA000184602F04BF907F14F0318460FF092FA6D
:101CB00003F094FC0346002B09D007F150031846AB
:101CC00003F03AFC0346002B01D0012300E000237F
:101CD00087F8773097F8773003F0010387F877308B
:101CE00097F94F2097F875301146184616F0B0FD59
:101CF000034687F8763097F94F4097F86430002B09
:101D000001D0FA6D01E04FF0FF3297F87730002BE9
:101D100002D007F1500300E0002397F8750097F810
:101D2000771000912146FFF7EBF9124B1B78002B3F
:101D30000FD097F86430002B01D0FB6D01E04FF01D
:101D4000FF3319460A48FFF72FFA02E000BF00E010
:101D500000BF7C37BD4690BDA20A0020AC0A00201F
:101D6000A80A0020A30A0020A40A0020AE0A00202E
:101D7000B00A0020AF0A002080B483B000AF7860C2
:101D8000074A7B681360074B00221A70064B00223B
:101D90001A6000BF0C37BD465DF8047B704700BF7A
:101DA000040B0020080B00200C0B002080B582B033
:101DB00000AF7860114B1B68002B18D0104B1B78BC
:101DC000002B0CD10D4B1B6808220F21184607F081
:101DD0008BF80346002B0CD1094B01221A7003F03B
:101DE00027FD02467B681344064A136002E000BFE9
:101DF00000E000BF0837BD4680BD00BF040B0020D7
:101E0000080B00200C0B002080B500AF0E4B1B68A8
:101E1000002B14D00D4B1B78002B10D003F008FDC5
:101E200002460B4B1B68D31A002B0ADB064B1B68C0
:101E3000184607F0A6F8054B00221A7002E000BF12
:101E400000E000BF80BD00BF040B0020080B002095
:101E50000C0B002080B400AF054B1B78002B14BF87
:101E600001230023DBB21846BD465DF8047B7047B2
:101E7000080B002080B483B000AF78604FF0B0430F
:101E8000D3F8903023F018024FF0B0417B68134331
:101E9000C1F8903000BF0C37BD465DF8047B704739
:101EA00080B485B000AF78604FF0B0439A6C4FF0CB
:101EB000B0417B6813438B644FF0B0439A6C7B68EE
:101EC0001340FB60FB6800BF1437BD465DF8047B20
:101ED000704780B485B000AF78604FF0B043DA6CE3
:101EE0004FF0B0417B681343CB644FF0B043DA6CE2
:101EF0007B681340FB60FB6800BF1437BD465DF88C
:101F0000047B704780B500AF03F024FC00F02CF890
:101F100000F0A0F800F0C2FA00F0AEFA00F07EF98E
:101F20000FF0D6FD0346002B01D000F0CCFB00F0F3
:101F3000AFF800F0A1F900F031F900F039FA00F043
:101F40000BF907490748FFF7F5F9034683F001034A
:101F5000DBB2002B01D000F0B6FBFFF779FAFCE70B
:101F6000EC0B0020980B002080B59AB000AF07F171
:101F7000200348220021184617F06CFE3B1D00226A
:101F80001A605A609A60DA601A615A619A6108F0C0
:101F900063FE1020FFF76EFF2D4B1B6823F4C06318
:101FA0002B4A43F400731360294B1B6803F4C0638E
:101FB0003B603B6827233B624FF480337B62012305
:101FC000BB624FF48073FB620123FB6340233B63DE
:101FD00000233B6480237B640223FB6401233B6575
:101FE00000237B650C23BB654FF4C023FB654FF0DA
:101FF00020437B664FF0C0633B6607F12003184621
:1020000009F058FA0346002B01D000F05CFB6F2367
:102010007B600323BB600023FB6000233B61002344
:102020007B61A023BB610023FB613B1D012118469E
:1020300009F0B4FD0346002B01D000F044FB0BF087
:1020400058F90BF05CF900BF6837BD4680BD00BF92
:102050000004005880B594B000AF3B4650220021E8
:10206000184617F0F7FD4FF400533B600123BB64A3
:102070001023FB643B4618460AF0AFFB0346002BD7
:1020800001D000F020FB00BF5037BD4680BD0000EE
:1020900080B586B000AF3B4600221A605A609A6055
:1020A000DA601A615A61294B294A1A60274B0022CB
:1020B0005A60264B00229A60244B0022DA60234BA0
:1020C00000221A61214B04225A61204B00221A7609
:1020D0001E4B00225A761D4B0122DA611B4B002257
:1020E00083F82020194B00229A62184B0022DA62F2
:1020F000164B002283F83020144B00225A63134BF6
:10210000002283F83820114803F0E0FD0346002B3D
:1021100001D000F0D8FA0F4B3B6006237B60072309
:10212000BB607F23FB6004233B6100237B613B4654
:102130001946064804F038F80346002B01D000F099
:10214000C2FA00BF1837BD4680BD00BF100B00208B
:10215000000004504000201980B500AF0D4B0E4A1E
:102160001A600C4B00221A710A4B00225A71094B5B
:1021700000225A61074B00229A61064B01221A6223
:10218000044804F0AFFE0346002B01D000F09BFA98
:1021900000BF80BD740B00200030024080B500AF4E
:1021A0001B4B1C4A1A601A4B1B4A5A60184B0022E0
:1021B0009A60174B0122DA60154B00221A61144B0A
:1021C00000225A61124B00229A61114B0022DA61FF
:1021D0000F4B00221A620E4805F0C6FF0346002B83
:1021E00001D000F070FA0021094806F0F9FC03461E
:1021F000002B01D000F067FA0021054806F03BFDF6
:102200000346002B01D000F05EFA00BF80BD00BF86
:10221000980B002000540040F93E501080B500AFEC
:10222000134B144A1A60124B00225A60104B4FF4A1
:1022300020629A600E4B4FF6FF725A610C4B0022DF
:102240001A620B4B00225A62094B00229A62084B19
:102250000022DA62064B00221A63054806F0A2FD4E
:102260000346002B01D000F02EFA00BF80BD00BF56
:10227000EC0B0020007C004080B590B000AF07F16F
:102280002C0300221A605A609A60DA601A610023F7
:10229000BB623B4628220021184617F0DBFC424B6C
:1022A000424A1A60404B00225A603F4B7F229A609C
:1022B0003D4BFF22DA603C4B00221A613A4B002270
:1022C0009A61394B0022DA61374B00225A61364855
:1022D0000BF0DAFA0346002B01D000F0F4F90023EA
:1022E00087F82C30002387F82D30002387F82E3014
:1022F00000233B630023BB630023FB6307F12C0334
:102300000122194628480BF047FB0346002B01D059
:1023100000F0D9F9012387F82830012387F8293004
:10232000012387F82A30002387F82B3007F1280390
:10233000012219461C480BF02CFC0346002B01D04F
:1023400000F0C1F900233B7000237B700023BB70B9
:1023500000237B600023FB6000233B6100237B6143
:102360000023BB610023FB61012387F820304FF479
:1023700080737B623B46012219460B480BF0E2FC5E
:102380000346002B01D000F09EF9002200210648F0
:102390000BF038FF0346002B01D000F094F900BF8A
:1023A0004037BD4680BD00BF240C002000280040FF
:1023B00080B500AF2E4B2F4A1A602D4B00225A6475
:1023C0002B4B01225A602A4B40229A64284B002250
:1023D000DA64274B00221A65254B00229A60244BB1
:1023E00000225A61224B00229A61214B00229A62FC
:1023F0001F4B0222DA611E4B4AF644421A621C4B02
:102400000022DA621A4B00221A63194B012283F868
:102410003820174B0222DA63154B4FF400721A640E
:10242000134B20225A65124B01229A65104B002251
:10243000DA650F4B00221A660D4B4FF480225A6664
:102440000B4B00229A660A4B0022DA66084B0422E4
:102450001A67074B4FF6FF725A6705480CF060F891
:102460000346002B01D000F02EF900BF80BD00BF55
:10247000480C00200454014080B500AF0420FFF751
:102480000FFD0120FFF70CFD002200210B2004F0BE
:10249000E6FC0B2004F0FDFC00BF80BD80B586B0DB
:1024A00000AF3B1D00221A605A609A60DA601A6120
:1024B0000420FFF70EFD0220FFF70BFD0120FFF7C0
:1024C00008FD1020FFF705FD002248F290014FF0B3
:1024D000904005F019FE002279216A4805F014FEAB
:1024E00001237B604FF48813BB600023FB603B1D1E
:1024F00019464FF0904005F0A1FB04237B604FF498
:102500004413BB600123FB603B1D19464FF0904014
:1025100005F094FB08237B604FF40413BB60012398
:10252000FB603B1D19464FF0904005F087FB48F2D9
:1025300090037B600123BB600023FB6000233B61B1
:102540003B1D19464FF0904005F078FB60237B60FF
:102550000023BB600123FB603B1D19464FF09040F8
:1025600005F06CFB79237B600123BB600023FB60DB
:1025700000233B613B1D1946424805F05FFB1023D9
:102580007B604FF44413BB600023FB603B1D194686
:102590003D4805F053FB80237B604FF48813BB60FC
:1025A0000023FB603B1D1946364805F047FB00221F
:1025B0000021062004F053FC062004F06AFC0022EF
:1025C0000021082004F04BFC082004F062FC0022EB
:1025D0000021092004F043FC092004F05AFC0022E9
:1025E00000210A2004F03BFC0A2004F052FC0022E7
:1025F0000021172004F033FC172004F04AFC0123CB
:102600007B604FF40413BB600123FB603B1D194644
:102610004FF0904005F012FB04237B604FF444130D
:10262000BB600123FB603B1D19464FF0904005F055
:1026300005FB08237B604FF40413BB600123FB60A0
:102640003B1D19464FF0904005F0F8FA0022052195
:10265000092004F004FC092004F01BFC00220521E1
:10266000062004F0FCFB062004F013FC00220521E8
:10267000082004F0F4FB082004F00BFC00BF18371E
:10268000BD4680BD000400480010004880B582B0FF
:1026900000AF7860FFF7C2F800BF0837BD4680BDC5
:1026A00080B582B000AF0346FB80FB881846FFF779
:1026B00017F800BF0837BD4680BD80B500AFFFF7F3
:1026C000B9F800BF80BD80B400AF72B600BF00BFD4
:1026D000FDE780B485B000AF78604FF0B043DA6CAE
:1026E0004FF0B0417B681343CB644FF0B043DA6CDA
:1026F0007B681340FB60FB6800BF1437BD465DF884
:10270000047B704780B582B000AF786003F090F82A
:1027100002467B68D31ADB43DB0FDBB2184608376F
:10272000BD4680BD80B586B000AF3B1D00221A605B
:102730005A609A60DA601A610120FFF7CAFF4FF40D
:10274000E0637B600223BB600023FB6000233B61EE
:1027500003237B613B1D19464FF0904005F06EFA54
:1027600000BF1837BD4680BD80B500AF0122802173
:102770004FF0904005F0C8FC00BF80BD80B500AFB1
:10278000012280214FF0904005F0BEFC00BF80BDCB
:1027900080B586B000AF3B1D00221A605A609A6077
:1027A000DA601A614FF4E0614FF0904005F0B6FB3B
:1027B0004FF440737B600023BB600023FB603B1D34
:1027C00019464FF0904005F039FA4FF480637B6072
:1027D0000023BB600023FB603B1D19464FF0904077
:1027E00005F02CFAFFF7CAFF00BF1837BD4680BDC1
:1027F00080B584B000AF0346FB71634BFB60FB68A0
:102800001B68624A93420AD1FB68D3F88430002BDC
:1028100005D0FB68D3F884301B68002B04D15C4BD7
:1028200001221A720023AAE0594B02221A72F86898
:102830000CF06AFB0346222B02D1F8680CF056F824
:10284000F8680BF0FFFFFB6800225A64FB68012266
:102850005A60FB6840229A64FB680022DA64FB79C4
:10286000002B01D0012200E00022FB681A65FB6802
:1028700000229A60FB6800225A61FB6800229A617C
:10288000FB6800229A62FB680222DA61FB68414A17
:102890001A62FB680022DA62FB6800221A63FB6896
:1028A000012283F83820FB680222DA63FB684FF4C8
:1028B00000721A64FB6820225A65FB6801229A653F
:1028C000FB680022DA65FB6800221A66FB684FF499
:1028D00080225A66FB6800229A66FB680022DA664C
:1028E000FB6804221A67FB6804225A67F8680BF039
:1028F00017FE0346FB72264AFB7A537240200AF009
:10290000E3F80346224A1362F8680CF0FDFA034626
:102910001A461F4B1A73F8680CF004FB03461C4A56
:102920005362FB7A002B04D0194B03221A72002346
:1029300025E0FB68D3F884302022DA61FB68D3F805
:102940008430184604F0C0FB0346FB72104AFB7A41
:102950009372FB68D3F88430184604F0DBFE03461C
:102960001A460B4B5A73FB7A002B04D0084B0422F7
:102970001A72002303E0064B05221A72012318463F
:102980001037BD4680BD00BF480C002004540140F4
:10299000982D00200077010080B582B000AF4FF481
:1029A0000062284928480CF063F80346FB71274A67
:1029B000FB79D37224480CF0A7FA03461A46234B3E
:1029C0001A7321480CF0AEFA0346204A53624020A5
:1029D0000AF07AF803461D4A13621B4BD3F8843081
:1029E000002B08D0184BD3F88430184604F092FE20
:1029F00003461A4600E00022144B5A73124BD3F8D8
:102A00008430002B0BD0104BD3F884301B68002B84
:102A100005D00D4BD3F884301B685B6800E00023C1
:102A20000A4A9362FB79002B04D0084B06221A72E3
:102A3000002303E0054B07221A72012318460837CA
:102A4000BD4680BD400D0020480C0020982D002080
:102A500080B500AF02480BF049FF00BF80BD00BF4A
:102A6000480C002080B500AF4C220021114817F01F
:102A7000F1F8104B00221A720E4B00221A700D4B07
:102A80000022A3F84A200B4B202283F84820094B50
:102A9000002283F8492014220021074817F0DAF8B1
:102AA00014220021054817F0D5F8054B00221A70B2
:102AB00000BF80BD982D0020682D00207C2D0020B7
:102AC000902D002080B586B000AF786000237B6138
:102AD00040E07A687B691344234A52F823303B6113
:102AE0003869FDF70DFC0346FB73204B5B69002B37
:102AF00005D17B69002B02D11C4A3B6993631B4AB9
:102B00003B69D3633B69002B04D1184B1B6B01332A
:102B1000164A13633B69B3F1FF3F04D1134B5B6B60
:102B20000133124A5363114B93F84830FA7B9A42AF
:102B300003D20E4AFB7B82F848300C4B93F84930A5
:102B4000FA7B9A4203D9094AFB7B82F849307B69B8
:102B500001337B617B69B3F5806FBAD300BF00BFDF
:102B60001837BD4680BD00BF400D0020982D0020C5
:102B70002DE9B04F92B000AFF861F869FFF7A2FFFE
:102B800000237B64EAE0FA697B6C13447E4A52F8C6
:102B900023307B637D4B1B68002B05D07B4B1B6870
:102BA000013B7A4A1360D6E07B6B87F8333007230A
:102BB0003B64CCE097F833203B6C42FA03F303F01C
:102BC0000103002B01D0012301E04FF0FF33FB6232
:102BD0006F4B1A68FB6A13446D4A13600123FB6351
:102BE00010E06B4AFB6B52F82310FB6B5A1E684BCC
:102BF00053F82230CA186649FB6B41F82320FB6B5F
:102C00000133FB63FB6B042BEBD9624B1B78013365
:102C1000DBB2604A13705F4B1B780F2B40F294803D
:102C20005B4B1B69BB635B4A002313700023FB6390
:102C300010E0594AFB6B52F82330BA6BD31A3B624F
:102C40005549FA6BBB6B41F822303B6ABB63FB6BA7
:102C50000133FB63FB6B042BEBD9BB6B5B11BB62DA
:102C6000BB6A9AB24D4B1B689BB2D31A9BB2FB84D2
:102C70004B4AFB8CA2F84A30494B9B690133484AC6
:102C80009361B7F92630002B03DAFB8C5B429BB2D1
:102C900000E0FB8CBB84BB8C00221C461546414BDC
:102CA000D3E9002314EB020A45EB030B3D4BC3E9C8
:102CB00000ABBB6ADA17984691463B4BD3E9002339
:102CC00018EB0201396149EB03037B61364BD7E90D
:102CD0000412C3E90012324BB3F84030BA8C9A4266
:102CE00003D92F4ABB8CA2F840302D4B9B69002B97
:102CF0000FD02C4BD3E90001294B9B690022BB600C
:102D0000FA60D7E90223FDF7E3FA02460B4693B2D5
:102D100000E00023224AA2F84230214B9B69002B9D
:102D20000FD0214BD3E900011D4B9B6900223B6072
:102D30007A60D7E90023FDF77BFA02460B4613467B
:102D400000E00023164A53643B6C013B3B643B6C40
:102D5000002BBFF62FAF7B6C01337B647B6CB3F52C
:102D6000806FFFF410AF0E4BDB6901330C4AD36167
:102D70000B4B5B6903F58063094A536100BF483719
:102D8000BD46BDE8B08F00BF400D0020642D00207F
:102D9000682D0020902D00207C2D0020942D0020F7
:102DA000982D0020502D0020582D002080B582B095
:102DB00000AF60480CF0B6F878605E4BD3F8843012
:102DC0003B605C4B1B681B6803F48033002B14BF13
:102DD00001230023DAB2584B1A71564B1B681B684B
:102DE00003F40033002B14BF01230023DAB2524B4B
:102DF0005A71504B1B6D012B0CBF01230023DAB21B
:102E00004D4BDA714D4B5B6C03F00103002B14BF8B
:102E100001230023DAB2484B9A7146480CF074F84B
:102E200003461A46444B1A733B68002B05D038689A
:102E300004F070FC03461A4600E000223E4B5A7331
:102E4000402009F041FE03463B4A13623A4A7B6840
:102E500053623B68002B07D03B681B68002B03D0F4
:102E60003B681B685B6800E00023334A9362314B88
:102E70001B685B69304AD36202F0DAFC0246304BD1
:102E80001B68D31A2C4A13612E4B1B78DBB2002B24
:102E900004D17B6803F00103002B01D0012300E083
:102EA000002303F00103DAB2234B5A70264B1B7840
:102EB000DBB2002B04D17B6803F08003002B01D030
:102EC000012300E0002303F00103DAB21A4B9A70E9
:102ED000194B0022DA70184B9B69002B08D0164B57
:102EE0009B7883F00103DBB2002B01D0012300E0CB
:102EF000002303F00103DAB20F4B1A700E4B1B785C
:102F000083F00103DBB2002B06D00B4B1B7A072B9F
:102F100002D8094B08221A72FFF79AFDFFF738FC16
:102F20000A4B00221A700A4B01221A7000BF0837A0
:102F3000BD4680BD480C0020982D00200054014063
:102F4000442D0020412D0020422D0020602D002026
:102F5000622D002080B500AF144B1B78002B01D0F0
:102F6000012321E0124B1B68124A934203D1124BFA
:102F70001B68002B01D1002316E0FFF709FCFFF7C7
:102F800071FD0E4B00221A700D4B00221A700D4B72
:102F900000221A700C4B00221A700C4B00221A707F
:102FA000024B01221A700123184680BD612D0020BA
:102FB000480C002004540140E00C0020402D00206B
:102FC000412D0020422D0020602D0020622D002088
:102FD00080B500AF324B1B7883F00103DBB2002BCE
:102FE00003D1304B1B78002B01D0002355E0FFF7B5
:102FF00039FD4FF4005200212B4816F02BFE2B4BCD
:1030000000221A702A4B00221A702A4B00221A70D2
:10301000294B00221A7002F00BFC0346274A13606A
:10302000274B00221A6027494FF000024FF000039F
:10303000C1E9002324494FF000024FF00003C1E929
:103040000023224B00221A70214B4FF416621A60A3
:10305000FFF78AFB1D4B1B781846FFF7C9FB034699
:1030600083F00103DBB2002B03D0FFF791FB0023B9
:1030700013E0FFF757FBFFF78FFC034683F00103D4
:10308000DBB2002B05D0FFF7E3FCFFF781FB002349
:1030900003E0044B01221A700123184680BD00BFD3
:1030A000612D0020602D0020400D0020402D0020CB
:1030B000412D0020422D0020622D0020442D0020B3
:1030C000482D0020502D0020582D0020632D002079
:1030D000642D002080B500AF074B1B78012B08D171
:1030E00002F0A6FB03462033044A1360024B02227F
:1030F0001A7000BF80BD00BF602D0020482D002049
:1031000080B500AF034B1B78002B01D0FFF74EFEBC
:1031100000BF80BD602D002080B582B000AF284B7D
:103120001B78002B48D0274B1B78FB71FB7903F0F1
:103130000103002B0AD0234B1B78DBB223F00103E1
:10314000DAB2204B1A700020FFF712FDFB7903F072
:103150000203002B0BD01B4B1B78DBB223F00203C6
:10316000DAB2184B1A704FF48060FFF701FD164B6E
:103170001B78DBB2002B02D0FFF718FE1DE002F037
:1031800057FB0246114B1B68D31A1A4641F287338C
:103190009A4202DDFFF70AFE0FE0094B1B78022B73
:1031A0000BD10B4B1B681846FFF7ACFA0346002BFC
:1031B00003D0FFF7FBFD00E000BF0837BD4680BD30
:1031C000602D0020402D0020422D0020442D0020A5
:1031D000482D002080B400AF054B1B78002B14BF96
:1031E00001230023DBB21846BD465DF8047B70471F
:1031F000602D002080B582B000AF78600D4B1B7849
:1032000083F00103DBB2002B02D17B68002B01D1DC
:1032100000230BE07B68084A184611464C231A46E7
:1032200016F04CFD034B00221A7001231846083794
:10323000BD4680BD622D0020982D002080B483B053
:1032400000AF7860044A7B68136000BF0C37BD464E
:103250005DF8047B704700BF942D002080B400AF60
:10326000034B1B681846BD465DF8047B704700BFE2
:10327000942D002080B582B000AF074BD3F8843086
:103280007B607B68002B02D0786804F094F900BF63
:103290000837BD4680BD00BF480C002080B483B015
:1032A00000AF78607B680E4A934212D10D4B1B78B9
:1032B000DBB203F00103002B02D00B4B01221A708A
:1032C000084B1B78DBB243F00103DAB2054B1A70EE
:1032D00000E000BF0C37BD465DF8047B704700BFBF
:1032E000480C0020402D0020412D002080B483B0E8
:1032F00000AF78607B680E4A934212D10D4B1B7869
:10330000DBB203F00203002B02D00B4B01221A7038
:10331000084B1B78DBB243F00203DAB2054B1A709C
:1033200000E000BF0C37BD465DF8047B704700BF6E
:10333000480C0020402D0020412D002080B483B097
:1033400000AF78607B68064A934203D1054B0122A7
:103350001A7000E000BF0C37BD465DF8047B704773
:10336000480C0020422D002080B400AF4FF0B04345
:10337000D3F890304FF0B04243F40043C2F890309D
:1033800000BFBD465DF8047B704780B485B000AFD8
:1033900078604FF0B0439A6C4FF0B0417B681343B4
:1033A0008B644FF0B0439A6C7B681340FB60FB6802
:1033B00000BF1437BD465DF8047B704780B485B00C
:1033C00000AF78604FF0B043DA6C4FF0B0417B68EB
:1033D0001343CB644FF0B043DA6C7B681340FB605F
:1033E000FB6800BF1437BD465DF8047B704780B4AE
:1033F00085B000AF78604FF0B0439A6D4FF0B041A8
:103400007B6813438B654FF0B0439A6D7B68134024
:10341000FB60FB6800BF1437BD465DF8047B704756
:1034200080B485B000AF78604FF0B0431A6E4FF0B3
:10343000B0417B6813430B664FF0B0431A6E7B6854
:103440001340FB60FB6800BF1437BD465DF8047B8A
:10345000704780B483B000AF78604FF0B0431A6E0D
:103460007B68DB434FF0B04113400B6600BF0C3765
:10347000BD465DF8047B704780B500AF07F04AFC9D
:1034800000220021362003F0EAFC362003F001FD83
:1034900000BF80BD80B59CB000AF786007F15C03D1
:1034A00000221A605A609A60DA601A6107F10C0310
:1034B00050220021184616F0CDFB7B681B68154A88
:1034C000934223D14FF48063FB604FF04053BB64C1
:1034D00007F10C03184609F080F90346002B01D0D0
:1034E000FFF7F1F84FF40050FFF768FF0120FFF7F6
:1034F00065FF0223FB6503233B6600237B6607F120
:103500005C0319464FF0904004F098FB00BF703701
:10351000BD4680BD0000045080B582B000AF786029
:103520007B681B68054A934203D14FF48050FFF734
:103530002CFF00BF0837BD4680BD00BF00300240F1
:1035400080B59CB000AF786007F15C0300221A6080
:103550005A609A60DA601A6107F10C035022002168
:10356000184616F077FB7B681B68174A934226D1F2
:103570000423FB604FF44033FB6207F10C03184651
:1035800009F02BF90346002B01D0FFF79CF802202D
:10359000FFF714FF4FF44073FB6512233B660123D2
:1035A0007B660023BB660423FB6607F15C031946B8
:1035B000064804F043FB4FF40010FFF718FF00BF6C
:1035C0007037BD4680BD00BF005400400004004875
:1035D00080B59CB000AF786007F15C0300221A60F0
:1035E0005A609A60DA601A6107F10C0350220021D8
:1035F000184616F02FFB7B681B68164A934225D1AC
:103600001023FB604FF440237B6307F10C03184643
:1036100009F0E3F80346002B01D0FFF754F84FF010
:103620000040FFF7E4FE0220FFF7C8FE0423FB651D
:1036300002233B6600237B660023BB660123FB66F7
:1036400007F15C031946044804F0F8FA00BF70372C
:10365000BD4680BD007C00400004004880B596B0A7
:1036600000AF786007F1080350220021184616F0D9
:10367000F1FA7B681B68164A934225D14FF4006328
:10368000BB604FF48073BB6407F10803184609F070
:10369000A4F80346002B01D0FFF715F8FFF764FEEE
:1036A0004FF48060FFF7A3FE00220021032003F007
:1036B000D6FB032003F0EDFB00220021292003F0BC
:1036C000CEFB292003F0E5FB00BF5837BD4680BD87
:1036D0000028004080B59CB000AF786007F10C0373
:1036E00050220021184616F0B5FA7B681B683B4A49
:1036F00093426FD14023FB600C233B614FF4C02306
:103700007B614FF0C063BB614FF0C043FB614FF47E
:1037100080333B620023FB6307F10C03184609F07A
:103720005CF80346002B01D0FEF7CDFF2C4B1B6845
:10373000002B0BD14FF40010FFF772FE0022002186
:10374000262003F08CFB262003F0A3FB244B1B68F0
:103750000133234A13604FF4E063FB6502233B66A9
:1037600000237B660023BB660323FB6607F15C0333
:1037700019464FF0904004F061FA1A4B1A4A1A6049
:10378000184B12225A60174B00229A60154B0022E8
:10379000DA60144B80221A61124B4FF400725A61A6
:1037A000104B4FF400629A610E4B0022DA610D4B10
:1037B0004FF400521A620B4803F086FC0346002BBC
:1037C00001D0FEF780FF7B68064AC3F88420054AD3
:1037D0007B68936200BF7037BD4680BD04540140D2
:1037E000E42D0020E00C00200800024080B582B0EB
:1037F00000AF78607B681B68114A93421BD1114B64
:103800001B68013B0F4A13600E4B1B68002B06D14F
:103810004FF40010FFF71DFE262003F048FB4FF485
:10382000E0614FF0904004F079FB7B68D3F884307E
:10383000184603F0F1FC00BF0837BD4680BD00BF4D
:1038400004540140E42D002080B400AF00BFFDE728
:1038500080B400AF00BFFDE780B400AF00BFFDE75C
:1038600080B400AF00BFFDE780B400AF00BFFDE74C
:1038700080B400AF00BFBD465DF8047B704780B4E4
:1038800000AF00BFBD465DF8047B704780B400AF59
:1038900000BFBD465DF8047B704780B500AF01F006
:1038A000B3FF00BF80BD000080B500AF02480AF042
:1038B000D5FD00BF80BD00BF240C002080B500AF47
:1038C000012004F039FC00BF80BD80B500AF0420AA
:1038D00004F032FC00BF80BD80B500AF082004F0CA
:1038E0002BFC00BF80BD80B500AF102004F024FC8D
:1038F00000BF80BD80B500AFFFF7BCFC00BF80BD3E
:1039000080B500AF024805F027FD00BF80BD00BFB5
:103910003C38012080B500AF024805F01DFD00BF16
:1039200080BD00BF3C38012080B500AF802004F08E
:1039300003FC00BF80BD000080B500AF02480BF063
:103940002BF900BF80BD00BF480C002080B500AF40
:1039500002480AF047FB00BF80BD00BF240C0020D6
:1039600080B400AF00BFBD465DF8047B704780B5F2
:1039700000AF07F00BFA00BF80BD000080B586B035
:1039800000AF7860144A154BD31A7B617B693B61A9
:10399000134B1B68002B02D1114B124A1A60104BBB
:1039A0001A687B6813443A699A4207D216F05AF9AA
:1039B00003460C221A604FF0FF3309E0084B1B68E6
:1039C000FB60074B1A687B681344054A1360FB6869
:1039D00018461837BD4680BD0000032000040000D3
:1039E000E82D0020E83E012080B400AF244BD3F83E
:1039F0008830234A43F47003C2F888304FF0B04354
:103A00001B684FF0B04243F0010313604FF0B04326
:103A10004FF4E0229A604FF0B0431A684FF0B04183
:103A2000184B13400B604FF0B043D3F894304FF075
:103A3000B04223F00503C2F894304FF0B043D3F8FE
:103A400098304FF0B04223F00103C2F898304FF0A5
:103A5000B0430D4ADA604FF0B0430B4A1A614FF0A1
:103A6000B0431B684FF0B04223F4802313604FF043
:103A7000B04300229A6100BFBD465DF8047B7047E9
:103A800000ED00E0FBFEF6FA00100422D458C4500A
:103A90000433C4188C42F9D3704703600430884261
:103AA000FBD370470C488546FFF79EFF0B480C4937
:103AB0000C4A0023FFF7EDFF0B480C490C4A00238A
:103AC000FFF7E7FF0B480C490023FFF7E8FF16F06C
:103AD000CFF8FEF717FAFEE70000032008000020E9
:103AE00030020020C4D7010800000320000003209A
:103AF000ECD9010830020020E83E0120FEE780B446
:103B000085B000AF78604FF0B043DA6C4FF0B04151
:103B10007B681343CB644FF0B043DA6C7B6813408F
:103B2000FB60FB6800BF1437BD465DF8047B70473F
:103B300080B483B000AF786039607A683B68D31A8C
:103B4000DB43DB0FDBB218460C37BD465DF8047B68
:103B50007047000080B586B000AF1F4B1B78002B6C
:103B600036D11D4B01221A700220FFF7C8FF012039
:103B7000FFF7C5FF3B1D00221A605A609A60DA60A9
:103B80001A6101237B600123BB600023FB600023DB
:103B90003B613B1D1946114804F050F84FF4806317
:103BA0007B600023BB600023FB603B1D19464FF088
:103BB000904004F043F802237B600323BB600023A2
:103BC000FB603B1D19464FF0904004F037F800E0D1
:103BD00000BF1837BD4680BDEC2D00200004004812
:103BE00080B582B000AF0346FB71FB791A46012114
:103BF000064804F089FA064AFB791370054AFB79F6
:103C0000D37200BF0837BD4680BD00BF0004004826
:103C1000ED2D00202400002080B500AFFFF79AFFB3
:103C20000B4B00221A7001F003FE03466433094A6D
:103C30001360094B00221A600120FFF7D1FF012019
:103C400000F04EF8002000F019F800BF80BD00BF62
:103C5000EE2D0020F02D0020F42D002080B500AFC7
:103C60004FF480614FF0904004F036FA0346002B89
:103C70000CBF01230023DBB2184680BD80B582B0A3
:103C800000AF0346FB71134AFB795372124B1A784B
:103C9000104B9A72114B1A780E4BDA72FB79184658
:103CA00000F09CF903460B4A53610A4B5B69012BF8
:103CB0000CBF01230023DAB2064B1A73FB791846B6
:103CC00000F0CAF803461A46024B1A7400BF0837C0
:103CD000BD4680BD2400002020000020ED2D0020E6
:103CE00080B584B000AF0346FB7101F0A1FDF86020
:103CF000FB7983F00103DBB2002B0FD0314B1B7A31
:103D0000002B0BD0304B1B681946F868FFF710FFEB
:103D1000034683F00103DBB2002B4ED100F07AF9A9
:103D2000B860FB6803F57A73274A1360BB68002B01
:103D300013DA244B4FF0FF321A60224B234A5A60A9
:103D4000204B00221A721F4B00225A731D4B002277
:103D50009A731C4B0022DA7330E01A4ABB68136076
:103D6000BB6807EE903AB8EEE77ADFED196AC7EE66
:103D7000267A144BC3ED017A124B01221A72BB68EA
:103D800040F6B832934294BF01230023DAB20D4BC0
:103D90005A73BB68B3F52F6F94BF01230023DAB2C7
:103DA000084B9A73BB6841F2030293428CBF012314
:103DB0000023DAB2034BDA7300E000BF1037BD46D0
:103DC00080BD00BF24000020F42D0020000080BF33
:103DD00000007A4480B483B000AF0346FB71FB79E6
:103DE00083F00103DBB2002B01D0002328E0174B46
:103DF0001B7883F00103DBB2002B01D000231FE00E
:103E0000134B1B7A83F00103DBB2002B01D001239B
:103E100016E0104B1B78002B0AD00D4B1B681A467E
:103E200041F203039A4294BF01230023DBB207E06F
:103E3000074B1B68B3F57A6F94BF01230023DBB2F5
:103E400018460C37BD465DF8047B70472000002003
:103E500024000020ED2D002080B483B000AF034685
:103E6000FB71FB79002B01D001230EE00A4B1B7A7A
:103E7000002B06D0084B1B68B3F5486F01D3012314
:103E800000E0002303F00103DBB218460C37BD4607
:103E90005DF8047B704700BF2400002080B584B02B
:103EA00000AF0346FB7101F0C3FCF860FB79002B07
:103EB00008D0204B1B7883F00103DBB2002B01D02C
:103EC000012300E00023FB72FB7A03F00103FB7285
:103ED000FB7A002B06D0FB686433174A136001207D
:103EE000FFF77EFEFB7A1846FFF7FAFE124B1B68BF
:103EF0001946F868FFF71CFE034683F00103DBB2A6
:103F0000002B03D00120FFF76BFE07E0FB7918467A
:103F1000FFF760FF03461846FFF762FEFB7918467D
:103F2000FFF7ACFE034AFB79137000BF1037BD46A4
:103F300080BD00BFEE2D0020F02D0020B0B483B076
:103F400000AF78607B68002B0AD07B68074A1C466C
:103F500015460FCD0FC495E8030084E8030000E088
:103F600000BF0C37BD46B0BC704700BF2400002026
:103F700080B400AF0C4B5B7A83F00103DBB2002B03
:103F800009D0094B1B7A002B05D0074B9B7B002BDC
:103F900001D0012300E0002303F00103DBB2184647
:103FA000BD465DF8047B70472400002080B500AF5B
:103FB000034B5B7A1846FFF74FFF0346184680BD58
:103FC0002400002080B400AF034B00221A6000BF21
:103FD000BD465DF8047B7047F42D002080B582B0AB
:103FE00000AF0346FB71FFF739FE0346002B01D0FB
:103FF000012309E0FB79002B05D0054B1B78002B32
:1040000001D0022300E0002318460837BD4680BDDA
:10401000ED2D002080B58AB000AF3B4600221A602B
:104020005A609A60DA601A615A6140F61C437B62FA
:10403000474B3B6006237B600723BB607F23FB600D
:1040400004233B6100237B613B461946414802F053
:10405000ABF80346002B02D04FF0FF3373E03D482E
:1040600001F080FF0346002B02D04FF0FF336AE0DF
:104070000521384801F0FDFF0346002B05D03548E7
:1040800001F0C4FF4FF0FF335DE0324802F07EF8EC
:1040900003467B842F4801F0B9FF2F4B1B881A463B
:1040A0004FF4616303FB02F27B8CB2FBF3F37B62A0
:1040B0002A4B3B6006237B600723BB607F23FB60AA
:1040C00004233B6100237B613B461946214802F0F3
:1040D0006BF80346002B02D04FF0FF3333E01D484E
:1040E00001F040FF0346002B02D04FF0FF332AE0DF
:1040F0000521184801F0BDFF0346002B05D01548E7
:1041000001F084FF4FF0FF331DE0124802F03EF84B
:1041100003463B840F4801F079FF3B8C7A6A03FB2E
:1041200002F20F4BA3FB0213D21A52081344DB0A0C
:10413000FB61FB690B4A02FB03F30B4AA2FB03235F
:104140009B0BBB61BB6918462837BD4680BD00BFCD
:1041500001000080100B0020AA75FF1F40002019ED
:104160000101100088E307001B923D5980B582B021
:1041700000AF786001F05CFB02467B68D31ADB433A
:10418000DB0FDBB218460837BD4680BD80B582B074
:1041900000AF03463960FB710B4AFB7913700B4A81
:1041A0003B6813600A4B01221A7001F041FB034681
:1041B0000A33084A136000224021074803F0A4FF95
:1041C00000BF0837BD4680BDF82D0020042E00201A
:1041D000F92D0020FC2D00200004004880B500AF20
:1041E000012000F0E3FAB72000F002FB002000F00D
:1041F000FFFA002000F0FCFA112000F0D7FA0120AD
:1042000000F0F6FA442000F0D1FA002000F0F0FAB5
:104210000A2000F0EDFA452000F0C8FAB72000F0BF
:10422000E7FA002000F0E4FA002000F0E1FA0020B4
:1042300000F0DEFA3C2000F0B9FA052000F0D8FAD0
:10424000212000F0B3FA002000F0D2FA802000F024
:10425000CFFA182000F0AAFA802000F0C9FA4E2008
:1042600000F0A4FA002000F0C3FA4F2000F09EFAFC
:10427000B72000F0BDFA002000F0BAFA00BF80BD00
:1042800080B500AF012000F091FA272000F0B0FACD
:10429000012000F0ADFA012000F0AAFA112000F090
:1042A00085FA012000F0A4FA442000F07FFA0020F3
:1042B00000F09EFA0A2000F09BFA452000F076FA02
:1042C000272000F095FA012000F092FA002000F07B
:1042D0008FFA002000F08CFA3C2000F067FA0520ED
:1042E00000F086FA212000F061FA002000F080FA48
:1042F000802000F07DFA182000F058FA802000F0AD
:1043000077FA4E2000F052FA002000F071FA4F20A8
:1043100000F04CFA272000F06BFA012000F068FA58
:1043200000BF80BD80B582B000AF242000F03EFA0F
:1043300000237B6005E0FF2000F05AFA7B68013320
:104340007B607B68B3F5FD6FF5D300BF00BF083716
:10435000BD4680BD80B586B000AF78607B68002B1D
:1043600027D00B23FB60B823BB60242000F01EFA8B
:1043700000233B6118E000237B610EE03B69FA6893
:1043800003FB02F27B6913447A6813441B781846D6
:1043900000F02EFA7B6901337B617A69FB689A42EF
:1043A000ECD33B6901333B613A69BB689A42E2D383
:1043B00000E000BF1837BD4680BD80B500AF2220A9
:1043C00000F0F4F9F72000F013FA202000F0EEF9E5
:1043D00000BF80BD80B500AF0C4B1B78DBB2002B5B
:1043E0000AD10B4B1B681846FFF7C0FE034683F04B
:1043F0000103DBB2002B01D0002304E000210120E7
:10440000FFF7C4FE0123184680BD00BFF92D002030
:10441000002E002080B582B000AF78607B68002B52
:104420000FD00D4B1B78DBB2002B0AD10B4B1B6856
:104430001846FFF79BFE034683F00103DBB2002B17
:1044400001D0002304E079680220FFF79FFE0123DA
:1044500018460837BD4680BDF92D0020002E0020EB
:1044600080B400AF064B1B78DBB2002B14BF0123D6
:104470000023DBB21846BD465DF8047B704700BFE1
:10448000F92D002080B400AF064B1B78DBB2033B54
:10449000032B01D8012300E000231846BD465DF838
:1044A000047B7047F92D002080B500AF664B1B7868
:1044B000DBB2062B00F2B08001A252F823F000BF5D
:1044C0002D460008DD440008134500083345000868
:1044D0004F45000891450008DF4500085B4B1B680D
:1044E0001846FFF743FE034683F00103DBB2002BBF
:1044F00040F09E8001224021554803F005FE01F066
:1045000097F903460A33514A13604F4B02221A703F
:1045100099E04E4B1B681846FFF728FE034683F0D0
:104520000103DBB2002B40F08580474B03221A7059
:1045300089E08021464803F0CFFD0346012B7BD064
:10454000122000F033F9404B04221A707BE08021E6
:104550003F4803F0C1FD0346012B6FD03D4B1B7854
:10456000DBB2012B02D1FFF739FE0DE0394B1B788E
:10457000DBB2022B02D1FFF783FE05E0324B0022B3
:104580001A70344B00221A702F4B05221A705AE011
:1045900080212F4803F0A0FD0346012B50D02D4B66
:1045A0001B78DBB2012B02D1FFF7BCFE11E0294BD7
:1045B0001B78DBB2022B05D1274B1B681846FFF78F
:1045C000C9FE06E0204B00221A70224B00221A700E
:1045D00039E0FFF7F2FE1C4B06221A7033E080210F
:1045E0001B4803F079FD0346012B2BD0102000F06F
:1045F000DDF8012000F0FCF801F01AF903466433FD
:10460000164A1360104B00221A70124B00221A70C7
:10461000114B00221A6016E00B4B00221A700D4B52
:1046200000221A700C4B00221A600CE000BF0AE056
:1046300000BF08E000BF06E000BF04E000BF02E0EA
:1046400000BF00E000BF80BDF92D0020FC2D002040
:1046500000040048F82D0020042E0020002E002029
:1046600080B485B000AF78604FF0B043DA6C4FF0A3
:10467000B0417B681343CB644FF0B043DA6C7B6886
:104680001340FB60FB6800BF1437BD465DF8047B38
:104690007047000080B586B000AF3B1D00221A6055
:1046A0005A609A60DA601A610120FFF7D9FF022090
:1046B000FFF7D6FF4FF400437B600123BB6000236C
:1046C000FB6000233B613B1D19464FF0904003F017
:1046D000B5FA10237B603B1D1946184803F0AEFA6B
:1046E00040237B603B1D1946144803F0A7FA2023A2
:1046F0007B603B1D1946114803F0A0FA08237B603C
:104700003B1D19460D4803F099FA80237B604FF456
:104710004413BB600123FB603B1D1946074803F0AF
:104720008DFA00220521172002F099FB172002F0D4
:10473000B0FB00BF1837BD4680BD00BF0004004875
:1047400080B584B000AF0346FB71002208211648F3
:1047500003F0DAFC0023FB731EE097F90730002B0F
:1047600005DA01222021104803F0CEFC04E00022EB
:1047700020210D4803F0C8FC012208210A4803F05B
:10478000C3FC00220821084803F0BEFCFB795B0053
:10479000FB71FB7B0133FB73FB7B072BDDD900BF78
:1047A00000BF1037BD4680BD0004004880B582B010
:1047B00000AF0346FB7100224FF400414FF09040E0
:1047C00003F0A2FC00221021084803F09DFCFB79B5
:1047D0001846FFF7B5FF01224FF400414FF090401B
:1047E00003F092FC00BF0837BD4680BD00040048BE
:1047F00080B582B000AF0346FB7100224FF4004148
:104800004FF0904003F080FC01221021084803F093
:104810007BFCFB791846FFF793FF01224FF4004120
:104820004FF0904003F070FC00BF0837BD4680BDDC
:104830000004004880B485B000AFF8600846114617
:104840001A4603467B810B463B811346FB80214B76
:1048500000221A601F4AFB6813601E4A7B8913817D
:104860001C4A3B8953811B4A3B8B93817B8903F014
:1048700007039BB2002B03D17B89DB089BB204E0CA
:104880007B89DB089BB201339BB2124A5382114AE7
:104890003B8993820F4AFB88D3810E4B00221A82F8
:1048A000FB88002B02D0FB88B42B06D1094A7B89F8
:1048B0009380084A3B89D38006E0064A3B8993806F
:1048C000044A7B89D38000BF00BF1437BD465DF822
:1048D000047B7047082E002080B483B000AF78605E
:1048E000044A7B68136000BF0C37BD465DF8047B4B
:1048F000704700BF082E002080B487B000AF034689
:10490000FB800B46BB8013467B80634B9B88FA88F9
:104910009A4200F2B480604BDB88BA889A4200F277
:10492000AE805D4BDB89B3F5877F2BD0B3F5877FF6
:1049300000F3A780B42B16D0B42B00F3A280002B79
:1049400002D05A2B05D09CE0FB88FB82BB88BB823F
:1049500022E0514B1A89BB88D31A9BB2013BFB82E0
:10496000FB88BB8218E04C4B1A89FB88D31A9BB298
:10497000013BFB82484B5A89BB88D31A9BB2013B4F
:10498000BB8209E0BB88FB82434B5A89FB88D31A60
:104990009BB2013BBB8200BF3F4B1B8A032B72D8EB
:1049A00001A252F823F000BFF7490008B9490008F6
:1049B000C9490008D9490008374B1A89FB8AD31A1C
:1049C0009BB2013BFB8217E0334B5A89BB8AD31A57
:1049D0009BB2013BBB820FE02F4B1A89FB8AD31A93
:1049E0009BB2013BFB822C4B5A89BB8AD31A9BB2E8
:1049F000013BBB8200E000BF274B1B89FA8A9A4229
:104A000043D8254B5B89BA8A9A423ED8FB8ADB0899
:104A10009BB21946BB8A204A528A02FB03F30B441D
:104A20003B611D4B1A683B6913441B78FB737B8801
:104A3000002B12D1FB8A03F007036FF0800242FAC9
:104A400003F35AB297F90F30134059B2124B1A6858
:104A50003B691344CAB21A7018E0FB8A03F00703DB
:104A6000802242FA03F35AB297F90F30134359B236
:104A7000094B1A683B691344CAB21A7006E000BFBA
:104A800004E000BF02E000BF00E000BF1C37BD46ED
:104A90005DF8047B704700BF082E002080B485B00D
:104AA00000AF0346FB800023BB811CE00023FB8199
:104AB00011E0FA89BB891249498A01FB03F31344C7
:104AC000BB600F4B1A68BB681344FA88D2B21A70E5
:104AD000FB890133FB810A4B5B8AFA899A42E8D34E
:104AE000BB890133BB81064B9B8ABA899A42DDD3CD
:104AF00000BF00BF1437BD465DF8047B704700BFA0
:104B0000082E002090B585B000AF04460846114637
:104B10001A462346FB800346BB800B467B80134628
:104B20007B70424B9B88FA889A427AD83F4BDB884D
:104B3000BA889A4275D897F82030012B44D10023C7
:104B4000FB8139E00023BB8129E0FA88B7F90E30F8
:104B50001A447B78D31A002B28DBBA88B7F90C30BB
:104B60001A447B78D31A002B20DBFA89FB88134484
:104B70009AB27B789BB2D31A98B2BA89BB88134495
:104B80009AB27B789BB2D31A9BB27A881946FFF708
:104B9000B3FEB7F90C309BB201339BB2BB81B7F9BE
:104BA0000C207B785B00013B9A42CEDBB7F90E30DC
:104BB0009BB201339BB2FB81B7F90E207B785B007F
:104BC000013B9A42BEDB2DE00023FB8123E0002362
:104BD000BB8115E0FA89FB8813449BB2013B98B274
:104BE000BA89BB8813449BB2013B9BB27A881946B1
:104BF000FFF782FEB7F90C309BB201339BB2BB8149
:104C0000B7F90C207B789A42E4DBB7F90E309BB2FF
:104C100001339BB2FB81B7F90E207B789A42D6DB39
:104C200000E000BF1437BD4690BD00BF082E002035
:104C300090B58DB002AF0446084611461A46234689
:104C4000FB800346BB800B467B8013463B804B4B6F
:104C50009B88FA889A4200F28880484BDB88BA88A1
:104C60009A4200F28280454B9B887A889A427CD88F
:104C7000424BDB883A889A4277D8FB88FB84BB8812
:104C8000BB847A88FB88D31A002BB8BF5B42BB6118
:104C90003A88BB88D31A002BB8BF5B425B427B616A
:104CA000FA887B889A4201D2012301E04FF0FF335A
:104CB0003B61BA883B889A4201D2012301E04FF060
:104CC000FF33FB60BA697B6913443B620023FB77C7
:104CD000FB7F0133FB7797F83C30012B17D1FA7F2C
:104CE000274BA3FB021359080B465B000B44D31A56
:104CF000DBB2002B0BD197F84030B98CF88C012235
:104D00000092FF22FFF7FEFE0023FB7708E097F8F2
:104D100040303A8FB98CF88C01240094FFF7F2FEF2
:104D20003B6A5B007A699A420CDCFA8C7B889A4277
:104D30001DD03A6A7B6913443B623B699AB2FB8C93
:104D40001344FB843B6A5B00BA699A42C0DBBA8CAD
:104D50003B889A420DD03A6ABB6913443B62FB68B8
:104D60009AB2BB8C1344BB84B2E700BF02E000BF21
:104D700000E000BF2C37BD4690BD00BF082E0020CC
:104D8000ABAAAAAA90B589B004AF0446084611465A
:104D90001A462346FB800346BB800B467B801346A6
:104DA0003B80374B9B88FA889A4264D8344BDB8827
:104DB000BA889A425FD8324B9B887A889A425AD8EE
:104DC0002F4BDB883A889A4255D897F82430002B2D
:104DD00018D0BB88FB8110E0FC897A88F989F888B3
:104DE00097F828300293002301933B8C00932346CD
:104DF000FFF71EFFFB890133FB81FA893B889A424A
:104E0000EAD339E0BC887A88B988F88897F82830DE
:104E10000293002301933B8C00932346FFF708FF86
:104E20003C88FA88B988F88897F8283002930023DC
:104E300001933B8C00932346FFF7FAFEBC887A88E7
:104E40003988788897F828300293002301933B8CA7
:104E500000932346FFF7ECFE3C88FA88398878886F
:104E600097F828300293002301933B8C009323464C
:104E7000FFF7DEFE00E000BF1437BD4690BD00BF67
:104E8000082E002080B588B000AF7B600346FB8110
:104E90000B46BB811346FB724C4B9B88FA899A42A6
:104EA00000F28F80494BDB88BA899A4200F28980F0
:104EB000FB7A203B7A68D28802FB03F37A689288F7
:104EC000D20892B211467A68928802F0070292B232
:104ED000002A14BF01220022D2B20A4402FB03F3CB
:104EE0007B617B681A687B691344BB610023FB8389
:104EF00061E00023BB834CE03B8DFF2B18D1BB69E5
:104F00001B781946BB8B03F00703802242FA03F398
:104F10000B40002B31D0FA89BB8B134498B2BA896D
:104F2000FB8B13449BB2BA8D1946FFF7E5FC24E0D6
:104F3000BB691B781946BB8B03F00703802242FA3A
:104F400003F30B40002B0CD0FA89BB8B134498B2AF
:104F5000BA89FB8B13449BB2BA8D1946FFF7CCFC80
:104F60000BE0FA89BB8B134498B2BA89FB8B1344CC
:104F70009BB23A8D1946FFF7BFFCBB8B03F00703CA
:104F80009BB2072B02D1BB690133BB61BB8B0133E1
:104F9000BB837B689B88BA8B9A42ADD37B689B8826
:104FA00003F007039BB2002B02D0BB690133BB6146
:104FB000FB8B0133FB837B68DB88FA8B9A4298D3A7
:104FC00000E000BF2037BD4680BD00BF082E002096
:104FD00080B588B002AFBA607B600346FB810B46A8
:104FE000BB81FB89FB82BB89BB82214B9B88FA89F1
:104FF0009A4238D81E4BDB88BA899A4233D82DE0C2
:10500000FB8A7A6892881344194A9288934206DD93
:10501000FB89FB827B68DA88BB8A1344BB82BB8A2C
:105020007A68D2881344124AD288934203DDFB89FE
:10503000FB82BB89BB82BB681A78B98AF88ABB8CB1
:1050400001933B8C00937B68FFF71CFFBB68013327
:10505000BB607B689A88FB8A1344FB82BB681B7821
:10506000002BCDD100E000BF1837BD4680BD00BF8A
:10507000082E002080B483B000AF78607B68002BDE
:1050800001D1002312E07B681B78172B01D9002384
:105090000CE07B685B783B2B01D9002306E07B6842
:1050A0009B783B2B01D9002300E0012318460C37E5
:1050B000BD465DF8047B704780B483B000AF786074
:1050C0007B68002B01D100232BE07B681B88B3F5A4
:1050D000FA6F05D37B681B8840F63302934201D9EF
:1050E00000231EE07B689B78002B03D07B689B78B5
:1050F0000C2B01D9002314E07B68DB78002B03D054
:105100007B68DB781F2B01D900230AE07B681B79C1
:10511000002B03D07B681B79072B01D9002300E00B
:10512000012318460C37BD465DF8047B704700002C
:1051300080B483B000AF114B7B6000233B600FE075
:105140000F4A3B6813441B781A467B6853407B60C8
:105150007B680C4A02FB03F37B603B6801333B60D6
:10516000074A3B6813441B78002BE9D17B6818463B
:105170000C37BD465DF8047B704700BFC59D1C81A0
:1051800050D601089301000180B485B000AF78606B
:105190007B68002B01D1002329E00023FB7322E070
:1051A0007B681A78FB7B154911F823309A4217D196
:1051B0007B6801331A78FB7B10499B000B445B78BA
:1051C0009A420DD17B6802331A78FB7B0B499B0016
:1051D0000B449B789A4203D1FB7B0133DBB206E0A0
:1051E000FB7B0133FB73FB7B0B2BD9D900231846C8
:1051F0001437BD465DF8047B704700BF68D60108D0
:1052000080B485B000AF0346FB800B467B7113462C
:105210003B71FB88FB817B79022B02D8FB89013B28
:10522000FB81FB89FA89920892B21344FA891649E4
:10523000A1FB0212520992B29B1AFA891249A1FBF0
:105240000212D20992B213447A79013A0F498A5C68
:105250001A443B791A440E4BA3FB0213D11A490896
:105260000B4499080B46DB005B1AD11A0B467B7383
:105270007B7B002B01D07B7B00E007231846143793
:10528000BD465DF8047B70471F85EB5198D6010839
:105290002549922480B58AB000AF7860584A07F15A
:1052A000180307CA83E80700564A07F10C0307CA28
:1052B00003C31A707B68002B01D100239BE007F128
:1052C00018031846FFF760FF034687F8273097F862
:1052D0002730002B01D100238DE03B7F202B03D012
:1052E0003B7F303BDBB200E0002387F82630FB7FBA
:1052F0001A465201D21A92001344DB009AB297F870
:105300002030194689000B44194688001946034687
:105310000B449B009BB213449AB297F82130194674
:1053200089000B445B009BB213449BB297F8222088
:1053300013449BB203F53E5330339AB27B681A8014
:105340007B6897F827209A7097F826301A469200C3
:1053500013445B00DAB27B7F1344DBB2303BDAB23A
:105360007B68DA703B7B1A46920013445B00DAB22A
:105370007B7B1344DBB2103BDAB27B689A71FB7B18
:105380001A46920013445B00DAB23B7C1344DBB252
:10539000103BDAB27B68DA71BB7C1A469200134488
:1053A0005B00DAB2FB7C1344DBB2103BDAB27B6801
:1053B0001A727B6818887B6899787B68DB781A4654
:1053C000FFF71EFF03461A467B681A717B68184672
:1053D000FFF772FE0346002B09D07B6806331846A0
:1053E000FFF748FE0346002B01D0012300E0002315
:1053F00003F00103DBB218462837BD4680BD00BF6D
:1054000040A601084CA6010880B400AF064B1B68FB
:10541000064A93420CBF01230023DBB21846BD4667
:105420005DF8047B704700BF240C0020002800407A
:1054300080B588B000AF786007F10C0300221A60D5
:105440005A609A60DA601A610023BB60FFF7DCFFE4
:10545000034683F00103DBB2002B17D17B68002BDE
:1054600014D07B681846FFF727FE034683F001033C
:10547000DBB2002B0AD17B6806331846FFF7FAFD32
:10548000034683F00103DBB2002B01D0002348E088
:105490007B689B793B737B68DB797B737B681B7ACA
:1054A000BB730023BB610023FB617B681B793B72EC
:1054B0007B689B787B727B68DB78BB727B681B8820
:1054C0001A4AA2FB03125209642101FB02F29B1A41
:1054D0009BB2DBB2FB7207F10C03002219461448A1
:1054E00008F05AFA0346002B01D0002319E007F117
:1054F0000803002219460E4808F04BFB0346002B18
:1055000001D000230DE00B4A1321094808F0CCFF1D
:10551000FFF70EFE03461A461221054808F0C4FFA5
:10552000012318462037BD4680BD00BF1F85EB51C3
:10553000240C00203143545280B588B000AF78600D
:1055400007F10C0300221A605A609A60DA601A614F
:105550000023BB60FFF758FF034683F00103DBB273
:10556000002B02D17B68002B01D1002330E007F132
:105570000C0300221946184808F0ADFA0346002B28
:1055800001D0002324E007F1080300221946124845
:1055900008F088FB0346002B01D0002318E03A7B7B
:1055A0007B689A717A7B7B68DA71BA7B7B681A7246
:1055B000FB7A03F5FA639AB27B681A807A7A7B6881
:1055C0009A70BA7A7B68DA703A7A7B681A7101232A
:1055D00018462037BD4680BD240C002080B500AFA2
:1055E000FFF712FF034683F00103DBB2002B01D06B
:1055F00000230AE01321064808F070FF0346054A1D
:1056000093420CBF01230023DBB2184680BD00BFCC
:10561000240C00203143545280B584B000AFFFF712
:10562000F3FE034683F00103DBB2002B01D000231D
:1056300022E0FFF77DFDF860FFF7D0FF0346002B67
:1056400009D012210E4808F049FF0246FB68934238
:1056500001D1012310E03B461846FFF71BFE03462D
:1056600083F00103DBB2002B01D0002304E03B46B2
:105670001846FFF7DDFE034618461037BD4680BDCD
:10568000240C002080B584B000AFFFF7A7FF0346CD
:1056900083F00103DBB2002B09D13B1D1846FFF755
:1056A0004BFF034683F00103DBB2002B01D0002344
:1056B0001AE0BB8840F2BB72934201D8002313E08A
:1056C000BB88A3F2BC735A06BB795B051A43FB790E
:1056D0001B041A43BB7ADB021A43FB7A5B011343B8
:1056E0003A7B5208D2B2134318461037BD4680BDEC
:1056F00080B582B000AF7860FFF786FE034683F086
:105700000103DBB2002B01D000231DE07B68002BDE
:1057100003D07B68B3F5803F01D9002314E00C4827
:1057200008F03CFE0346002B01D000230CE07B6810
:10573000013B04221946064808F064FD0346002B8D
:105740000CBF01230023DBB218460837BD4680BDDD
:10575000240C002080B582B000AF0023FB710C4BFD
:105760001B680B4A43F480731360032001F06CFB49
:105770000F2000F00FF80346002B02D00123FB712D
:1057800001E0FDF779FEFB7918460837BD4680BD7C
:105790000040005880B584B000AF78600023FB73F0
:1057A000174B1B78002B24D006F0A4FB0246144BA9
:1057B0001B7819464FF47A73B3FBF1F3B2FBF3F3A2
:1057C000184601F082FB0346002B0FD17B680F2B9C
:1057D00009D8002279684FF0FF3001F040FB094AF8
:1057E0007B68136007E00123FB7304E00123FB7374
:1057F00001E00123FB73FB7B18461037BD4680BDDB
:10580000580000205400002080B400AF064B1B78E5
:105810001A46064B1B681344044A136000BFBD467A
:105820005DF8047B704700BF58000020202E002048
:1058300080B400AF034B1B681846BD465DF8047B7F
:10584000704700BF202E002080B400AF034B1B68C0
:105850001846BD465DF8047B704700BF5400002029
:1058600080B400AF054B1B68044A23F002031360A9
:1058700000BFBD465DF8047B704700BF10E000E04C
:1058800080B400AF054B1B68044A43F00203136069
:1058900000BFBD465DF8047B704700BF10E000E02C
:1058A00080B483B000AF786039607B689B6823F474
:1058B0007C123B681A437B689A6000BF0C37BD4678
:1058C0005DF8047B704780B483B000AF78603960C6
:1058D0007B689B6823F0E0723B681A437B689A60A0
:1058E00000BF0C37BD465DF8047B704780B483B0C1
:1058F00000AF78607B689B6803F0E07318460C3754
:10590000BD465DF8047B704780B487B000AFF86097
:10591000B9607A603B60FB6860331A46BB689B00E5
:1059200013447B617B691A68084B13407A6802F064
:10593000F8413A680A43134343F000427B691A6016
:1059400000BF1C37BD465DF8047B704700F0FF03C5
:1059500080B485B000AF786039607B6860331A46E8
:105960003B689B001344FB60FB681B6803F0F84333
:1059700018461437BD465DF8047B704780B487B085
:1059800000AFF860B9607A60FB6860331A46BB68A4
:105990009B0013447B617B691B6823F000427B689A
:1059A0001A437B691A6000BF1C37BD465DF8047B53
:1059B000704780B483B000AF78607B68DB6803F425
:1059C0004063002B01D1012300E0002318460C376F
:1059D000BD465DF8047B704780B487B000AFF860C7
:1059E000B9607A60FB6830331A46BB681B0A9B00BB
:1059F00003F00C0313447B617B691A68BB6803F0F6
:105A00001F031F2101FA03F3DB431A407B689B0E3F
:105A100003F01F01BB6803F01F0301FA03F31A43ED
:105A20007B691A6000BF1C37BD465DF8047B704778
:105A300080B487B000AFF860B9607A60FB68143357
:105A40001A46BB685B0E9B0003F0040313447B61A2
:105A50007B691A68BB681B0D03F01F03072101FA5D
:105A600003F3DB431A40BB681B0D03F01F03796887
:105A700001FA03F31A437B691A6000BF1C37BD4665
:105A80005DF8047B7047000080B485B000AFF8601B
:105A9000B9607A60FB68D3F8B020BB68C3F3120327
:105AA000DB431A407B6803F018030849D940BB6800
:105AB0000B40C3F312031A43FB68C3F8B02000BFC6
:105AC0001437BD465DF8047B704700BFFFFF070039
:105AD00080B483B000AF78607B689B6823F020437C
