:020000040800F2
:100000000000032019220008E11F0008E91F000872
:10001000F11F0008F91F000801200008000000007F
:10002000000000000000000000000000092000089F
:1000300017200008000000002520000833200008D9
:1000400071220008AF20000871220008412000083A
:100050007122000871220008A12000087122000806
:10006000BB200008C920000855200008E520000832
:100070007122000871220008712200087122000814
:100080007122000871220008712200087122000804
:10009000652000087122000871220008D72000089E
:1000A00071220008712200087122000871220008E4
:1000B00071220008712200087122000871220008D4
:1000C00071220008712200087920000871220008BE
:1000D00071220008712200087122000871220008B4
:1000E000712200088D20000871220008712200088A
:1000F0007122000871220008712200087122000894
:100100007122000871220008712200087122000883
:100110007122000871220008712200087122000873
:100120007122000871220008712200087122000863
:0C013000712200087122000871220008F2
:1001400010B5054C237833B9044B13B10448AFF311
:1001500000800123237010BD300200200000000049
:100160007468010808B5034B1BB103490348AFF39A
:10017000008008BD000000003402002074680108FF
:10018000034613F8012B002AFBD1181A01387047D7
:1001900001F0FF01102A2BDB10F0070F08D010F838
:1001A000013B013A8B422DD010F0070F42B3F6D13C
:1001B000F0B441EA012141EA014122F007047FF055
:1001C00000070023F0E80256083C85EA010586EAAC
:1001D000010685FA47F5A3FA87F586FA47F6A5FAE8
:1001E00087F68EB9EED1F0BC01F0FF0102F00702F4
:1001F00032B110F8013B013A83EA010313B1F8D19F
:100200000020704701387047002D06BF354603387F
:10021000073815F0010F07D1013015F4807F02BFB8
:10022000013015F4C03F0130F0BC0138704700BF09
:1002300080B582B000AF786004F034FD02467B6880
:10024000D31ADB43DB0FDBB218460837BD4680BD4F
:1002500080B483B000AF0346FB80FB8803F0030348
:100260009BB2002B1AD1FB88114AA2FB0312520940
:10027000642101FB02F29B1A9BB2002B0CD1FB887C
:100280000B4AA2FB0312D2094FF4C87101FB02F220
:100290009B1A9BB2002B01D1012300E0002303F045
:1002A0000103DBB218460C37BD465DF8047B70478E
:1002B0001F85EB5180B584B000AF786039600023B2
:1002C000FB607B68002B1ED03B68002B1BD07B683B
:1002D0009B78002B17D07B689B780C2B13D87B68FE
:1002E000DB78002B0FD07B68DB781F2B0BD87B686B
:1002F0009B79172B07D87B68DB793B2B03D87B686E
:100300001B7A3B2B01D9002354E04FF4FA637B8125
:1003100011E07B891846FFF79BFF0346002B02D0B4
:100320004FF4B77301E040F26D13FA681344FB60B9
:100330007B8901337B817B681B887A899A42E8D369
:100340007B689B78013B1D4A32F813301A46FB68E4
:100350001344FB607B689B78022B0AD97B681B885F
:100360001846FFF775FF0346002B02D0FB680133E8
:10037000FB607B68DB781A46FB681344013BFB603B
:10038000FB680F4A03FB02F27B689B7919464FF426
:10039000616301FB03F31A447B68DB7919460B4662
:1003A0001B015B1A9B0013447A68127A1A443B685B
:1003B0001A60012318461037BD4680BD406A010807
:1003C0008051010080B586B000AF2C4B1B7883F0C4
:1003D0000103DBB2002B06D1294B1B7883F001030C
:1003E000DBB2002B02D04FF0FF3342E004F030FBD1
:1003F000034683F00103DBB2002B26D107F108038B
:10040000184604F0D3FA034683F00103DBB2002B55
:100410001BD13B4619461B48FFF74CFF034683F0B0
:100420000103DBB2002B10D13A1D07F1080311467E
:100430001846FFF73FFF034683F00103DBB2002BB2
:1004400003D17A683B689A4202D24FF0FF3310E042
:100450007A683B68D31A0C4AA2FB03235B097B61D1
:100460007B6941F29772934202D941F297737B61A3
:100470007B6918461837BD4680BD00BF380A00208A
:100480003B0A00203C0A00208988888880B584B017
:1004900002AF786039607B68002B2FD03B68002B5F
:1004A0002CD0184B1B68002B05DA174A396878687E
:1004B00015F02CFD23E0134B1B68144A82FB03123A
:1004C0009211DB17D01A0F4B1A68104B83FB0213E3
:1004D0009911D317CB1A4FF47A7101FB03F3D31A96
:1004E0000B4A82FB03129210DB17D31A00930346C8
:1004F000084A3968786815F009FD00E000BF083740
:10050000BD4680BD0C00002098680108D34D6210E4
:1005100067666666A468010880B582B000AF78603F
:1005200039607B68002B17D03B68002B14D00C4B34
:1005300093F9003013F1800F05D10A4A39687868C1
:1005400015F0E4FC09E0064B93F90030064A3968DF
:10055000786815F0DBFC00E000BF0837BD4680BDC1
:1005600008000020B4680108BC68010880B582B0AA
:1005700000AF786039607B68002B20D03B68002B8F
:100580001DD0114B1B7883F00103DBB2002B05D08B
:100590000E4A3968786815F0B9FC11E00C4B1B78ED
:1005A0000C4AA2FB03125209642101FB02F29B1ABE
:1005B000DBB2094A3968786815F0A8FC00E000BF92
:1005C0000837BD4680BD00BF380A0020C468010856
:1005D0003A0A00201F85EB51C868010880B588B031
:1005E00002AFF860B9607A60FFF7ECFE7861FB68F3
:1005F000002B29D0BB68002B26D07B68002B02D0B3
:100600007B687A691A607B69B3F1FF3F05D1104AB4
:10061000B968F86815F07AFC17E07B690D4AA2FB0F
:100620000323580979690B4BA3FB01235A0913468D
:100630001B019B1A9B00CA1A00920346064AB9681E
:10064000F86815F063FC00E000BF1837BD4680BDB8
:10065000D068010889888888D868010880B485B086
:1006600000AF78607B68FB607B68002B02DA4FF09C
:10067000FF3317E0FB68B3F52F6F02DA4FF42F63F7
:10068000FB60FB6841F20402934202DD41F2040385
:10069000FB60FB68A3F52F63054A82FB03129210EF
:1006A000DB17D31A18461437BD465DF8047B704734
:1006B0004FECC44E80B590B002AFF860B9607A607C
:1006C0003B602B4B7B634FF0FF333B630323FB62A9
:1006D000FB68002B48D0BB68002B45D007F1140302
:1006E00018220021184615F047FC07F1140318469C
:1006F00001F0DEFF7B691846FFF7B0FF3863BB6A85
:10070000FB62BB6A012B02D11A4B7B630DE0BB6A13
:10071000022B02D1184B7B6307E0BB6A002B02D18E
:10072000164B7B6301E0124B7B637B68002B02D08E
:100730007B68FA6A1A603B68002B02D03B683A6B10
:100740001A603B6B002B08DB3B6B00937B6B0C4A06
:10075000B968F86815F0DAFB07E07B6B094AB968FD
:10076000F86815F0D3FB00E000BF3837BD4680BD08
:10077000E4680108E8680108F4680108FC680108F9
:10078000046901080C69010890B58BB004AF0446F8
:10079000084611461A462346FB800346BB800B469B
:1007A0007B8013463B80FA887B881344FB82BA889F
:1007B0003B881344BB8208237B823B88184AA2FBF8
:1007C00003235B083B82FB8AFB813A883B8AD31A6E
:1007D0005B089AB2BB881344BB81BB8AFA8AB9888A
:1007E000F88801240294002401940024009402F06B
:1007F00083FEFA897B8A13449CB2BA893B8A1344EC
:100800009BB2B989F8890122029201220192002249
:100810000092224602F070FE00BF1C37BD4690BD1C
:10082000ABAAAAAA80B584B002AF786039607B68B1
:10083000002B35D03B68002B32D01B4B1B7883F04C
:100840000103DBB2002B05D0184A3968786815F02F
:100850005DFB26E0164B1B7883F00103DBB2002B17
:100860000CD0134B9B8A1A46114BDB8A009313461C
:10087000104A3968786815F049FB12E00C4B9B8AE6
:1008800019460B4BDB8A1A46094B9B699B0A01935D
:1008900000920B46084A3968786815F037FB00E08B
:1008A00000BF0837BD4680BD390A00201469010821
:1008B000480A00201C6901082C69010880B5A2B013
:1008C00004AF78604FF0FF337B614FF0FF333B6143
:1008D00007F1700308211846FFF748FE07F1680387
:1008E0007A6808211846FFF779FE594802F0AEFBF6
:1008F000FF2002F08DFC574B1B78002B47D007F1EF
:10090000100307F1140207F118001821FFF7D2FEB7
:100910002C2378220C211E20FFF736FF3B69002B89
:1009200012DB3B6907F108004B4A082115F0EEFA8B
:1009300007F1080200230193FF230093474B162180
:100940003A2002F0FFFE09E000230193FF23009309
:10095000424B434A1621382002F0F4FE07F11802F8
:1009600000230193FF2300933E4B4221202002F0FD
:10097000E9FE7B68002B03D03B4B1A687B681A604A
:100980007B693A4A13603B69394A13605CE007F1BE
:10099000540312211846FFF779FD07F148030C2193
:1009A0001846FFF7B9FD07F1300318211846FFF785
:1009B00039FF07F1700200230193FF2300932D4BB1
:1009C0000221042002F0BEFE07F168020023019319
:1009D000FF230093274B02214C2002F0B3FE01239A
:1009E000029300230193002300932223B2222221A9
:1009F000062002F0D7FC07F1300200230193FF2309
:100A00000093184B2A21062002F09CFE07F15402A5
:100A100000230193FF230093124B3A21062002F09A
:100A200091FE07F1480200230193FF2300930D4B31
:100A30003A21642002F086FE0C4B4FF0FF321A6020
:100A40000B4B4FF0FF321A607837BD4680BD00BFB8
:100A50004C020020370A00204069010844000020B1
:100A6000486901083C00002010000020140000200C
:100A7000180000204C00002080B582B000AF104B61
:100A80001B7883F00103DBB2002B13D10D4B1B78D5
:100A9000002B0FD1FFF796FC78607B68B3F1FF3F26
:100AA0000AD0094B1B687A689A4206D0054B01228E
:100AB0001A7002E000BF00E000BF0837BD4680BDED
:100AC000380A0020360A00201000002080B588B0C7
:100AD00000AF4FF0FF337B604FF0FF333B600F4BB5
:100AE0001B7883F00103DBB2002B13D10C4B1B7876
:100AF000002B0FD13B463A1D07F108001821FFF7E4
:100B0000D9FD7A68074B1B689A4204D0044B012236
:100B10001A7000E000BF2037BD4680BD370A0020B4
:100B2000360A00201400002080B582B002AF02F027
:100B30006BF9FF2300934FF48773B822582125489F
:100B400002F032FA234802F081FAFF2002F060FB43
:100B5000214B01221A70214B01221A70204B0122D5
:100B60001A70204B00221A701F4B00221A701F4B64
:100B700000221A701E4B00221A701E4B80221A701F
:100B80001D4B4FF0FF321A601C4B00221A700A22D4
:100B900000211B4815F0F0F920220021194815F01A
:100BA000EBF9194B00221A60184B00221A60184BFF
:100BB00000221A60174B4FF0FF321A60164B4FF0AD
:100BC000FF321A60154B4FF0FF321A6001231846AE
:100BD000BD4680BD4C020020340A0020350A0020AA
:100BE000360A0020370A0020380A0020390A00207F
:100BF0003A0A0020080000200C0000203B0A0020D8
:100C00003C0A0020480A0020680A00206C0A0020E4
:100C1000700A00201000002014000020180000209E
:100C200080B500AF01F0D6FF0346184680BD80B501
:100C300000AF01F0E1FF0346184680BD80B582B0E9
:100C400000AF0346FB71124B1B78FA799A421BD016
:100C50000F4AFB7913700F4B01221A7004F022F82F
:100C6000034603F56A4360330B4A1360FB7983F054
:100C70000103DBB2002B07D0084B4FF0FF321A60A4
:100C8000074B4FF0FF321A6000BF0837BD4680BDEA
:100C9000370A0020360A0020700A002014000020C5
:100CA0001800002080B584B000AFBA607B600346B6
:100CB000FB730B46BB731C4B01221A701B4AFB7B58
:100CC00013701B4ABB7B13701A4ABB6813601A4B24
:100CD00000221A703B7E002B0DD07B68002B0AD0BF
:100CE000164B7A681068516803C312891A80124B38
:100CF00001221A7004E00A220021104815F03CF984
:100D000003F0D0FF034603F56A4360330C4A1360D7
:100D10000C4B4FF0FF321A600B4B01221A7000BFD0
:100D20001037BD4680BD00BF380A00203A0A0020B7
:100D3000080000200C0000203B0A00203C0A002094
:100D40006C0A002010000020360A0020B0B582B0E6
:100D500000AF786039607B68002B08D10E4B002211
:100D60001A70202200210D4815F006F90CE00A4BFC
:100D700001221A70094A7B6814461D460FCD0FC424
:100D800095E80F0084E80F00054B01221A7000BFA0
:100D90000837BD46B0BD00BF390A0020480A002010
:100DA000360A002080B582B000AF4FF0FF337B6081
:100DB000404B1B7883F00103DBB2002B6DD101F0B7
:100DC0002DFF01F007FF0346002B68D13A4B1B684B
:100DD0001846FFF72DFA034683F00103DBB2002B20
:100DE0005FD1364B1B78002B0FD001F0ADFE0346D0
:100DF000002B58D0314B00221A7003F053FF0346EA
:100E000003F57A732C4A13604DE02D4B1B78002BB1
:100E100015D0FFF75BFE2B4B1B681846FFF708FA4F
:100E20000346002B21D0284B01221A7003F03AFF11
:100E3000034603F56A436033224A136015E0234BEF
:100E40001B78002B11D0224B1B681846FFF7F0F9D6
:100E50000346002B09D0FFF70FFE03F023FF0346E4
:100E600003F56A4360331A4A1360174B1B7883F00B
:100E70000103DBB2002B18D13B1D1846FFF71EFD06
:100E8000144801F081FE0346002B0FD00E4B0022C8
:100E90001A707B68104A136008E000BF06E000BFCC
:100EA00004E000BF02E000BF00E000BF0837BD461D
:100EB00080BD00BF340A0020680A0020350A0020E7
:100EC000370A0020700A0020360A0020380A002065
:100ED0006C0A00204C0200201000002080B582B077
:100EE00000AF7860396003F0C9FC034683F001036A
:100EF000DBB2002B01D000236CE003F0C7FD0346FA
:100F000083F00103DBB2002B01D0002362E001205B
:100F100003F028FE034683F00103DBB2002B01D06F
:100F2000002357E0786802F05FFC034683F001037A
:100F3000DBB2002B01D000234CE0386800F01CFB32
:100F400001F024FA00F01CF900F0FCF9FFF7ECFDC9
:100F5000034683F00103DBB2002B01D0002339E00C
:100F600000F0E8F803461A461C4B1A701C4B00228E
:100F70001A7000F051F900F0EDF80346184601F040
:100F800047FB012002F056FC02F0A8FC00F02EFA0C
:100F9000034683F00103DBB2002B01D0002319E0EC
:100FA00000F004F90346002B06D000F025F90D4BA4
:100FB00001221A7001230DE00A4B00221A7014F06E
:100FC00091FB034683F00103DBB2002B01D000F05C
:100FD000DEF8012318460837BD4680BD750A00209B
:100FE0007A0A0020740A002080B500AF00F056F99C
:100FF00000F00AFB244B1B78DBB2002B04D0224B01
:1010000000221A7001F098FB00F0A4F8034618467D
:1010100001F0FEFA01F066FB0346002B14BF01232A
:101020000023DBB283F00103DBB203F00103DBB288
:10103000184602F0FFFB02F051FC00F0F5F900F059
:1010400023FAFFF7AFFE114B1B78DBB2002B0BD15D
:1010500014F048FB0346002B06D000F02BF90346A2
:10106000002B01D000F093F801F03CFB0346002B6D
:1010700006D000F093F800F096F900F0DDF801E0FA
:1010800000F0DAF880BD00BF770A0020740A002063
:1010900080B582B000AF0346FB80FB88102B06D1E1
:1010A00000F048F803461A46134B1A7021E0FB88FB
:1010B000042B17D104214FF0904005F07DFD03462D
:1010C000002B03D00D4B01221A7011E00B4B1B7843
:1010D000DBB2002B0CD0094B00221A70084B012206
:1010E0001A7005E0FB88082B03D102F0DFFC00E05A
:1010F00000BF0837BD4680BD750A0020780A002071
:10110000760A002080B400AF034B01221A7000BFA2
:10111000BD465DF8047B7047770A002080B400AFBD
:10112000034B01221A7000BFBD465DF8047B704777
:10113000770A002080B500AF1021054805F03CFD7E
:101140000346002B01D0012300E00023184680BD98
:101150000010004880B500AF084B1B78DBB2002BB5
:1011600004D100F023F80346002B01D0012300E056
:10117000002303F00103DBB2184680BD750A00208E
:1011800080B400AF00BFBD465DF8047B704780B4FB
:1011900000AF00BFBD465DF8047B704780B400AF70
:1011A00000BFBD465DF8047B7047000080B500AF0E
:1011B000104B1B7883F00103DBB2002B07D114F036
:1011C00039FB034683F00103DBB2002B01D000237F
:1011D0000DE014F041FB0346002B14BF0123002354
:1011E000DBB283F00103DBB203F00103DBB218468C
:1011F00080BD00BF7A0A002080B500AF054B0122F8
:101200001A70012013F0ACFB0120FFF717FD00BF9F
:1012100080BD00BF790A002080B500AF054B0022D9
:101220001A70002013F09CFB0020FFF707FD00BFA1
:1012300080BD00BF790A002080B500AF154B1B7838
:10124000002B08D1144B1B78002B04D100F002FABC
:101250000346002B01D030BF1BE0FFF7E1FC034643
:10126000002B09D0FFF7E3FC034683F00103DBB258
:10127000002B01D030BF0CE003F02CFD012008F062
:1012800087FA00F053FA00F0C7FA03F033FD01F0DB
:1012900053FA80BD790A00207A0A002080B500AF99
:1012A000FFF748FF03461A46014B1A7000BF80BD86
:1012B000750A002080B58EB000AF0023FB8014F0CB
:1012C00011FA034683F00103DBB2002B03D013F0C5
:1012D0002DFC034632E014F0FBF9034683F00103D2
:1012E000DBB2002B01D0002328E001F019FA0346FD
:1012F00083F00103DBB2002B01D000231EE014F0C9
:10130000A9F9034683F00103DBB2002B01D00023CF
:1013100014E0BA1D07F108033021184613F068FBEA
:101320000346002B07D0FB88302B04D107F10803BC
:10133000184602F0EFFC13F0F9FB03461846383765
:10134000BD4680BD80B500AF14F0CCF9034683F0F4
:101350000103DBB2002B04D013F0E8FB0346002BA3
:101360000FD1FFF7A7FF0346002B0CD114F0B0F903
:10137000034683F00103DBB2002B05D013F06CFBB6
:1013800002E000BF00E000BF80BD80B500AF14F0F8
:10139000A9F90346002B01D0FFF78CFF13F0C6FB21
:1013A0000346184680BD80B58CB000AF3B4618465A
:1013B00002F03EFC3B463021184613F0E1FA0020D3
:1013C00002F038FA14F08EF9034683F00103DBB221
:1013D000002B06D014F08EF80346002B01D014F039
:1013E000B9F900BF3037BD4680BD000080B500AF01
:1013F0000C4B1B78002B01D0012311E0FFF7C5FF38
:10140000034683F00103DBB2002B01D0002307E089
:1014100014F0FAF913F0ECF8024B01221A700123D0
:10142000184680BD7A0A002080B582B000AFFFF771
:10143000BDFE0346FB71FB79002B0ED0104B1B78D1
:1014400083F00103DBB2002B03D0FFF7A7FEFFF709
:10145000D3FE0C4B01221A700FE0094B1B78002BB6
:1014600008D0FFF7D9FEFFF725FF0346002B01D078
:10147000FFF78DFE034B00221A700837BD4680BD72
:10148000790A0020740A002090B58FB002AF802343
:10149000FB71002387F82F30002387F82E300123BB
:1014A00087F82D30324B1B78DBB2002B5CD0304BF1
:1014B00000221A702F4B1B78002B03D0282000F03D
:1014C00075F852E007F1140318220021184614F0B1
:1014D00053FD07F11403184601F0EAF8FB1D184606
:1014E00002F084FB03F0B4FA0346002B09D007F1A5
:1014F0000803184603F05AFA0346002B01D00123D3
:1015000000E0002387F82F3097F82F3003F0010315
:1015100087F82F3097F9072097F82D301146184695
:1015200013F02EFB034687F82E3097F907403B7FD8
:10153000002B01D07A6901E04FF0FF3297F82F308D
:10154000002B02D007F1080300E0002397F82D00DC
:1015500097F82F1000912146FFF7A4FB4FF0FF31C1
:101560000020FFF7F3FB00E000BF3437BD4690BD1D
:10157000760A0020790A002080B483B000AF78603A
:10158000074A7B681360074B00221A70064B002243
:101590001A6000BF0C37BD465DF8047B704700BF82
:1015A0007C0A0020800A0020840A002080B582B0D6
:1015B00000AF7860114B1B68002B18D0104B1B78C4
:1015C000002B0CD10D4B1B6808220F21184606F08A
:1015D000FBF90346002B0CD1094B01221A7003F0D2
:1015E00061FB02467B681344064A136002E000BFB9
:1015F00000E000BF0837BD4680BD00BF7C0A002068
:10160000800A0020840A002080B500AF0E4B1B68C2
:10161000002B14D00D4B1B78002B10D003F042FB95
:1016200002460B4B1B68D31A002B0ADB064B1B68C8
:10163000184606F016FA054B00221A7002E000BFA9
:1016400000E000BF80BD00BF7C0A0020800A0020AF
:10165000840A002080B400AF054B1B78002B14BF18
:1016600001230023DBB21846BD465DF8047B7047BA
:10167000800A002080B483B000AF78604FF0B043A0
:10168000D3F8903023F018024FF0B0417B68134339
:10169000C1F8903000BF0C37BD465DF8047B704741
:1016A00080B485B000AF78604FF0B043DA6C4FF093
:1016B000B0417B681343CB644FF0B043DA6C7B6876
:1016C0001340FB60FB6800BF1437BD465DF8047B28
:1016D0007047000080B500AF03F076FA00F026F8FE
:1016E00000F09AF800F024FA00F058F90CF064FCCD
:1016F0000346002B01D000F00CFB00F0ABF800F02B
:101700007BF900F00BF907490748FFF7E7FB0346B1
:1017100083F00103DBB2002B01D000F0FAFAFFF7EF
:1017200063FCFCE7400B0020EC0A002080B59AB077
:1017300000AF07F1200348220021184614F01CFCDA
:101740003B1D00221A605A609A60DA601A615A6181
:101750009A6107F0AFFF1020FFF78CFF2D4B1B683D
:1017600023F4C0632B4A43F400731360294B1B68B6
:1017700003F4C0633B603B6827233B624FF4803334
:101780007B620123BB624FF48073FB620123FB6326
:1017900040233B6300233B6460237B640223FB64A0
:1017A00001233B6500237B651823BB654FF40033A1
:1017B000FB654FF000537B664FF000733B6607F10B
:1017C0002003184608F0A4FB0346002B01D000F0CC
:1017D000A0FA6F237B600223BB600023FB60002321
:1017E0003B6100237B618023BB610023FB613B1DC8
:1017F0000121184608F000FF0346002B01D000F03D
:1018000088FA09F0A0FC09F0A4FC00BF6837BD46C7
:1018100080BD00BF0004005880B594B000AF3B46C7
:1018200050220021184614F0A7FB4FF400533B60F0
:101830000023BB641023FB643B46184609F00DFBF4
:101840000346002B01D000F064FA00BF5037BD46BC
:1018500080BD000080B586B000AF3B4600221A6014
:101860005A609A60DA601A615A61294B294A1A60F3
:10187000274B00225A60264B00229A60244B0022FC
:10188000DA60234B00221A61214B04225A61204B5B
:1018900000221A761E4B00225A761D4B0122DA6175
:1018A0001B4B002283F82020194B00229A62184B10
:1018B0000022DA62164B002283F83020144B0022FB
:1018C0005A63134B002283F83820114803F038FC88
:1018D0000346002B01D000F01CFA0F4B3B6006239F
:1018E0007B600723BB607F23FB6004233B610023F5
:1018F0007B613B461946064803F090FE0346002BE9
:1019000001D000F006FA00BF1837BD4680BD00BF09
:10191000880A0020000004504000201980B500AF64
:101920001B4B1C4A1A601A4B1B4A5A60184B002268
:101930009A60174B0122DA60154B00221A61144B92
:1019400000225A61124B00229A61114B0022DA6187
:101950000F4B00221A620E4805F076F90346002B61
:1019600001D000F0D6F90021094805F0A9FE034690
:10197000002B01D000F0CDF90021054805F0EBFE69
:101980000346002B01D000F0C4F900BF80BD00BFAA
:10199000EC0A002000540040F93E501080B500AF22
:1019A000134B144A1A60124B00225A60104B4FF42A
:1019B00020629A600E4B4FF6FF725A610C4B002268
:1019C0001A620B4B00225A62094B00229A62084BA2
:1019D0000022DA62064B00221A63054805F052FF26
:1019E0000346002B01D000F094F900BF80BD00BF7A
:1019F000400B0020007C004080B590B000AF07F1A4
:101A00002C0300221A605A609A60DA601A6100237F
:101A1000BB623B4628220021184614F0ADFA424B27
:101A2000424A1A60404B00225A603F4B7F229A6024
:101A30003D4BFF22DA603C4B00221A613A4B0022F8
:101A40009A61394B0022DA61374B00225A613648DD
:101A500009F096FC0346002B01D000F05AF9002350
:101A600087F82C30002387F82D30002387F82E309C
:101A700000233B630023BB630023FB6307F12C03BC
:101A800001221946284809F005FD0346002B01D024
:101A900000F03FF9012387F82830012387F8293027
:101AA000012387F82A30002387F82B3007F1280319
:101AB000012219461C4809F0EAFD0346002B01D01B
:101AC00000F027F900233B7000237B700023BB70DC
:101AD00000237B600023FB6000233B6100237B61CC
:101AE0000023BB610023FB61012387F820304FF402
:101AF00080737B623B46012219460B4809F0A0FE29
:101B00000346002B01D000F004F900220021064812
:101B10000AF0F6F80346002B01D000F0FAF800BFF7
:101B20004037BD4680BD00BF780B00200028004034
:101B300080B586B000AF3B1D00221A605A609A60E3
:101B4000DA601A610420FFF7ABFD0220FFF7A8FD61
:101B50000120FFF7A5FD1020FFF7A2FD00221021B4
:101B60004FF0904005F040F8002280214FF0904067
:101B700005F03AF801224FF400414FF0904005F093
:101B800033F800220121524805F02EF800221021DE
:101B90004F4805F029F8012240214D4805F024F86E
:101BA00069237B600023BB600123FB603B1D19465A
:101BB0004FF0904004F090FE48F290037B600123C8
:101BC000BB600023FB6000233B613B1D19464FF0C7
:101BD000904004F081FE51237B600123BB60002311
:101BE000FB6000233B613B1D1946394804F074FE3D
:101BF00010237B604FF44413BB600023FB603B1D4C
:101C00001946344804F068FE4FF480637B6000237B
:101C1000BB600023FB603B1D19464FF0904004F071
:101C20005BFE80237B600023BB600123FB603B1DC8
:101C30001946274804F050FE002200210A2004F033
:101C400024FB0A2004F03BFB01237B604FF40413C8
:101C5000BB600123FB603B1D19464FF0904004F030
:101C60003BFE04237B604FF44413BB600123FB6005
:101C70003B1D19464FF0904004F02EFE08237B6078
:101C80004FF44413BB600123FB603B1D19464FF02A
:101C9000904004F021FE00220521092004F0F5FA0D
:101CA000092004F00CFB00220521062004F0EDFAC7
:101CB000062004F004FB00220521082004F0E5FAC8
:101CC000082004F0FCFA00BF1837BD4680BD00BFF5
:101CD000000400480010004880B582B000AF786072
:101CE000FFF710FA00BF0837BD4680BD80B582B04F
:101CF00000AF0346FB80FB881846FFF7C9F900BF19
:101D00000837BD4680BD80B500AFFFF707FA00BFBA
:101D100080BD80B400AF72B600BF00BFFDE7000019
:101D200080B500AF024804F043FB00BF80BD00BF98
:101D3000000C002080B400AF4FF0B043D3F89030D7
:101D40004FF0B04243F40043C2F8903000BFBD46AC
:101D50005DF8047B704780B485B000AF78604FF0C9
:101D6000B043DA6C4FF0B0417B681343CB644FF063
:101D7000B043DA6C7B681340FB60FB6800BF14372C
:101D8000BD465DF8047B704780B485B000AF7860D5
:101D90004FF0B0439A6D4FF0B0417B6813438B65B1
:101DA0004FF0B0439A6D7B681340FB60FB6800BF47
:101DB0001437BD465DF8047B704780B400AF00BFA8
:101DC000BD465DF8047B704780B59CB000AF78607D
:101DD00007F15C0300221A605A609A60DA601A61A7
:101DE00007F10C0350220021184614F0C5F87B6857
:101DF0001B68154A934223D14FF48063FB604FF078
:101E00004053BB6407F10C03184609F026F803465B
:101E1000002B01D0FFF77DFF4FF40050FFF79BFF31
:101E20000120FFF798FF0223FB6503233B66002395
:101E30007B6607F15C0319464FF0904004F04CFDBF
:101E400000BF7037BD4680BD0000045080B59CB017
:101E500000AF786007F15C0300221A605A609A6054
:101E6000DA601A6107F10C0350220021184614F0C1
:101E700083F87B681B68174A934226D10423FB60D2
:101E80004FF44033FB6207F10C03184608F0E5FFFE
:101E90000346002B01D0FFF73CFF0220FFF75BFF5A
:101EA0004FF44073FB6512233B6601237B660023DE
:101EB000BB660423FB6607F15C031946064804F081
:101EC0000BFD4FF40010FFF75FFF00BF7037BD46FA
:101ED00080BD00BF005400400004004880B59CB0A5
:101EE00000AF786007F15C0300221A605A609A60C4
:101EF000DA601A6107F10C0350220021184614F031
:101F00003BF87B681B68164A934225D11023FB607F
:101F10004FF00C137B6307F10C03184608F09DFF8C
:101F20000346002B01D0FFF7F4FE4FF00040FFF70F
:101F30002BFF0220FFF70FFF0423FB6502233B6604
:101F400000237B660023BB660123FB6607F15C036D
:101F50001946044804F0C0FC00BF7037BD4680BD80
:101F6000007C00400004004880B596B000AF786067
:101F700007F1080350220021184613F0FDFF7B688B
:101F80001B68164A934225D14FF40063BB604FF49F
:101F90008073BB6407F10803184608F05EFF034630
:101FA000002B01D0FFF7B5FEFFF7C4FE4FF48060B1
:101FB000FFF7EAFE00220021032004F066F9032067
:101FC00004F07DF900220021292004F05EF9292087
:101FD00004F075F900BF5837BD4680BD00280040A9
:101FE00080B400AF00BFFDE780B400AF00BFFDE7E5
:101FF00080B400AF00BFFDE780B400AF00BFFDE7D5
:1020000080B400AF00BFFDE780B400AF00BFBD46A5
:102010005DF8047B704780B400AF00BFBD465DF83B
:10202000047B704780B400AF00BFBD465DF8047B01
:10203000704780B500AF02F021FE00BF80BD0000F8
:1020400080B500AF024809F087FF00BF80BD00BF28
:10205000780B002080B500AF102004F0DDFD00BF3C
:1020600080BD000080B500AF024805F0E5FE00BF6E
:1020700080BD00BF9416012080B500AF024809F072
:10208000CDFF00BF80BD00BF9C0B002080B500AF1E
:10209000024809F025FD00BF80BD00BF780B00207D
:1020A00080B500AF012004F0B7FD00BF80BD80B552
:1020B00000AF07F099FB00BF80BD80B500AF0420E2
:1020C00004F0AAFD00BF80BD80B500AF082004F079
:1020D000A3FD00BF80BD80B500AF802004F09CFD53
:1020E00000BF80BD80B500AFFFF71AFE00BF80BD06
:1020F00080B586B000AF7860144A154BD31A7B6167
:102100007B693B61134B1B68002B02D1114B124AB8
:102110001A60104B1A687B6813443A699A4207D2D6
:1021200013F032FF03460C221A604FF0FF3309E030
:10213000084B1B68FB60074B1A687B681344054A11
:102140001360FB6818461837BD4680BD00000320A9
:1021500000040000600C0020301D012080B400AF9E
:10216000244BD3F88830234A43F47003C2F88830F4
:102170004FF0B0431B684FF0B04243F001031360CF
:102180004FF0B0434FF4E0229A604FF0B0431A682A
:102190004FF0B041184B13400B604FF0B043D3F8F1
:1021A00094304FF0B04223F00503C2F894304FF062
:1021B000B043D3F898304FF0B04223F00103C2F897
:1021C00098304FF0B0430D4ADA604FF0B0430B4AFD
:1021D0001A614FF0B0431B684FF0B04223F48023E4
:1021E00013604FF0B04300229A6100BFBD465DF816
:1021F000047B704700ED00E0FBFEF6FA00100422BD
:10220000D458C4500433C4188C42F9D370470360C7
:1022100004308842FBD370470C488546FFF79EFF89
:102220000B480C490C4A0023FFF7EDFF0B480C4903
:102230000C4A0023FFF7E7FF0B480C490023FFF788
:10224000E8FF13F0A7FEFFF745FAFEE700000320C2
:102250000800002030020020509A010800000320EE
:1022600000000320789C010830020020301D01206E
:10227000FEE780B485B000AF78604FF0B043DA6C11
:102280004FF0B0417B681343CB644FF0B043DA6C3E
:102290007B681340FB60FB6800BF1437BD465DF8E8
:1022A000047B704780B483B000AF786039607A688F
:1022B0003B68D31ADB43DB0FDBB218460C37BD4655
:1022C0005DF8047B7047000080B586B000AF1F4BFF
:1022D0001B78002B36D11D4B01221A700220FFF70C
:1022E000C8FF0120FFF7C5FF3B1D00221A605A609E
:1022F0009A60DA601A6101237B600123BB600023CE
:10230000FB6000233B613B1D1946114804F0E4FAD1
:102310004FF480637B600023BB600023FB603B1DA8
:1023200019464FF0904004F0D7FA02237B60032354
:10233000BB600023FB603B1D19464FF0904004F04A
:10234000CBFA00E000BF1837BD4680BD640C00200A
:102350000004004880B582B000AF0346FB71FB79F2
:102360001A460121064804F03FFC064AFB79137027
:10237000054AFB79D37200BF0837BD4680BD00BF58
:1023800000040048650C00202400002080B500AF48
:10239000FFF79AFF0B4B00221A7002F083FC0346F2
:1023A0006433094A1360094B00221A600120FFF7C9
:1023B000D1FF012000F04EF8002000F019F800BF16
:1023C00080BD00BF660C0020680C00206C0C002053
:1023D00080B500AF4FF480614FF0904004F0ECFB0B
:1023E0000346002B0CBF01230023DBB2184680BD3F
:1023F00080B582B000AF0346FB71134AFB7953727C
:10240000124B1A78104B9A72114B1A780E4BDA72E3
:10241000FB79184600F09CF903460B4A53610A4BBE
:102420005B69012B0CBF01230023DAB2064B1A7340
:10243000FB79184600F0CAF803461A46024B1A7494
:1024400000BF0837BD4680BD2400002020000020CA
:10245000650C002080B584B000AF0346FB7102F02C
:1024600021FCF860FB7983F00103DBB2002B0FD075
:10247000314B1B7A002B0BD0304B1B681946F86888
:10248000FFF710FF034683F00103DBB2002B4ED1B0
:1024900000F07AF9B860FB6803F57A73274A136095
:1024A000BB68002B13DA244B4FF0FF321A60224B2B
:1024B000234A5A60204B00221A721F4B00225A7383
:1024C0001D4B00229A731C4B0022DA7330E01A4A2B
:1024D000BB681360BB6807EE903AB8EEE77ADFEDB1
:1024E000196AC7EE267A144BC3ED017A124B01220A
:1024F0001A72BB6840F6B832934294BF012300239E
:10250000DAB20D4B5A73BB68B3F52F6F94BF01233A
:102510000023DAB2084B9A73BB6841F2030293427C
:102520008CBF01230023DAB2034BDA7300E000BF53
:102530001037BD4680BD00BF240000206C0C002079
:10254000000080BF00007A4480B483B000AF03462F
:10255000FB71FB7983F00103DBB2002B01D0002378
:1025600028E0174B1B7883F00103DBB2002B01D06E
:1025700000231FE0134B1B7A83F00103DBB2002B17
:1025800001D0012316E0104B1B78002B0AD00D4B15
:102590001B681A4641F203039A4294BF01230023A9
:1025A000DBB207E0074B1B68B3F57A6F94BF0123DA
:1025B0000023DBB218460C37BD465DF8047B70473C
:1025C0002000002024000020650C002080B483B08F
:1025D00000AF0346FB71FB79002B01D001230EE015
:1025E0000A4B1B7A002B06D0084B1B68B3F5486FCB
:1025F00001D3012300E0002303F00103DBB21846FE
:102600000C37BD465DF8047B704700BF24000020F6
:1026100080B584B000AF0346FB7102F043FBF86065
:10262000FB79002B08D0204B1B7883F00103DBB231
:10263000002B01D0012300E00023FB72FB7A03F0A2
:102640000103FB72FB7A002B06D0FB686433174A48
:1026500013600120FFF77EFEFB7A1846FFF7FAFEB3
:10266000124B1B681946F868FFF71CFE034683F0FF
:102670000103DBB2002B03D00120FFF76BFE07E064
:10268000FB791846FFF760FF03461846FFF762FE26
:10269000FB791846FFF7ACFE034AFB79137000BFC5
:1026A0001037BD4680BD00BF660C0020680C0020BE
:1026B000B0B483B000AF78607B68002B0AD07B6831
:1026C000074A1C4615460FCD0FC495E8030084E861
:1026D000030000E000BF0C37BD46B0BC704700BF30
:1026E0002400002080B400AF0C4B5B7A83F0010320
:1026F000DBB2002B09D0094B1B7A002B05D0074B0E
:102700009B7B002B01D0012300E0002303F0010399
:10271000DBB21846BD465DF8047B704724000020FC
:1027200080B500AF034B5B7A1846FFF74FFF0346B7
:10273000184680BD2400002080B400AF034B002267
:102740001A6000BFBD465DF8047B70476C0C00202A
:1027500080B582B000AF0346FB71FFF739FE034638
:10276000002B01D0012309E0FB79002B05D0054B9C
:102770001B78002B01D0022300E000231846083705
:10278000BD4680BD650C002080B58AB000AF3B46D9
:1027900000221A605A609A60DA601A615A6140F643
:1027A0001C437B62474B3B6006237B600723BB6077
:1027B0007F23FB6004233B6100237B613B4619467A
:1027C000414802F02BFF0346002B02D04FF0FF33AD
:1027D00073E03D4802F000FE0346002B02D04FF0AC
:1027E000FF336AE00521384802F07DFE0346002BE6
:1027F00005D0354802F044FE4FF0FF335DE032482B
:1028000002F0FEFE03467B842F4802F039FE2F4B78
:102810001B881A464FF4616303FB02F27B8CB2FB08
:10282000F3F37B622A4B3B6006237B600723BB608C
:102830007F23FB6004233B6100237B613B461946F9
:10284000214802F0EBFE0346002B02D04FF0FF338D
:1028500033E01D4802F0C0FD0346002B02D04FF0CC
:10286000FF332AE00521184802F03DFE0346002B05
:1028700005D0154802F004FE4FF0FF331DE012486A
:1028800002F0BEFE03463B840F4802F0F9FD3B8C8C
:102890007A6A03FB02F20F4BA3FB0213D21A52080F
:1028A0001344DB0AFB61FB690B4A02FB03F30B4A8F
:1028B000A2FB03239B0BBB61BB6918462837BD46AF
:1028C00080BD00BF01000080880A0020AA75FF1F9C
:1028D000400020190101100088E307001B923D59B8
:1028E00080B582B000AF786002F0DCF902467B6808
:1028F000D31ADB43DB0FDBB218460837BD4680BD79
:1029000080B582B000AF03463960FB710B4AFB799A
:1029100013700B4A3B6813600A4B01221A7002F0D5
:10292000C1F903460A33084A1360002240210748D0
:1029300004F05AF900BF0837BD4680BD700C002076
:102940007C0C0020710C0020740C00200004004856
:1029500080B500AF012000F0E3FAB72000F002FBE1
:10296000002000F0FFFA002000F0FCFA112000F037
:10297000D7FA012000F0F6FA442000F0D1FA002046
:1029800000F0F0FA0A2000F0EDFA452000F0C8FA55
:10299000B72000F0E7FA002000F0E4FA002000F091
:1029A000E1FA002000F0DEFA3C2000F0B9FA052040
:1029B00000F0D8FA212000F0B3FA002000F0D2FA9B
:1029C000802000F0CFFA182000F0AAFA802000F052
:1029D000C9FA4E2000F0A4FA002000F0C3FA4F20FC
:1029E00000F09EFAB72000F0BDFA002000F0BAFA1D
:1029F00000BF80BD80B500AF012000F091FA272014
:102A000000F0B0FA012000F0ADFA012000F0AAFABF
:102A1000112000F085FA012000F0A4FA442000F013
:102A20007FFA002000F09EFA0A2000F09BFA452071
:102A300000F076FA272000F095FA012000F092FAD3
:102A4000002000F08FFA002000F08CFA3C2000F00B
:102A500067FA052000F086FA212000F061FA0020D4
:102A600000F080FA802000F07DFA182000F058FA7B
:102A7000802000F077FA4E2000F052FA002000F09B
:102A800071FA4F2000F04CFA272000F06BFA012079
:102A900000F068FA00BF80BD80B582B000AF24208E
:102AA00000F03EFA00237B6005E0FF2000F05AFAB8
:102AB0007B6801337B607B68B3F5FD6FF5D300BFA6
:102AC00000BF0837BD4680BD80B586B000AF7860D6
:102AD0007B68002B27D00B23FB60B823BB6024202E
:102AE00000F01EFA00233B6118E000237B610EE03A
:102AF0003B69FA6803FB02F27B6913447A6813446A
:102B00001B78184600F02EFA7B6901337B617A69E5
:102B1000FB689A42ECD33B6901333B613A69BB687D
:102B20009A42E2D300E000BF1837BD4680BD80B5B1
:102B300000AF222000F0F4F9F72000F013FA202073
:102B400000F0EEF900BF80BD80B500AF0C4B1B78E4
:102B5000DBB2002B0AD10B4B1B681846FFF7C0FEF7
:102B6000034683F00103DBB2002B01D0002304E015
:102B700000210120FFF7C4FE0123184680BD00BFDD
:102B8000710C0020780C002080B582B000AF786016
:102B90007B68002B0FD00D4B1B78DBB2002B0AD1CA
:102BA0000B4B1B681846FFF79BFE034683F001039F
:102BB000DBB2002B01D0002304E079680220FFF78C
:102BC0009FFE012318460837BD4680BD710C0020CA
:102BD000780C002080B400AF064B1B78DBB2002BD2
:102BE00014BF01230023DBB21846BD465DF8047B09
:102BF000704700BF710C002080B400AF064B1B78FB
:102C0000DBB2033B032B01D8012300E0002318466D
:102C1000BD465DF8047B7047710C002080B500AFA5
:102C2000664B1B78DBB2062B00F2B08001A252F893
:102C300023F000BFA12D0008512C0008872C0008AC
:102C4000A72C0008C32C0008052D0008532D0008F0
:102C50005B4B1B681846FFF743FE034683F00103F6
:102C6000DBB2002B40F09E8001224021554803F04A
:102C7000BBFF02F017F803460A33514A13604F4B6B
:102C800002221A7099E04E4B1B681846FFF728FE87
:102C9000034683F00103DBB2002B40F08580474BF5
:102CA00003221A7089E08021464803F085FF03461D
:102CB000012B7BD0122000F033F9404B04221A7014
:102CC0007BE080213F4803F077FF0346012B6FD064
:102CD0003D4B1B78DBB2012B02D1FFF739FE0DE033
:102CE000394B1B78DBB2022B02D1FFF783FE05E0E4
:102CF000324B00221A70344B00221A702F4B0522DF
:102D00001A705AE080212F4803F056FF0346012B2A
:102D100050D02D4B1B78DBB2012B02D1FFF7BCFE4C
:102D200011E0294B1B78DBB2022B05D1274B1B6826
:102D30001846FFF7C9FE06E0204B00221A70224B0E
:102D400000221A7039E0FFF7F2FE1C4B06221A70BF
:102D500033E080211B4803F02FFF0346012B2BD0CB
:102D6000102000F0DDF8012000F0FCF801F09AFFDF
:102D700003466433164A1360104B00221A70124B3C
:102D800000221A70114B00221A6016E00B4B002231
:102D90001A700D4B00221A700C4B00221A600CE0C6
:102DA00000BF0AE000BF08E000BF06E000BF04E08B
:102DB00000BF02E000BF00E000BF80BD710C00203A
:102DC000740C002000040048700C00207C0C0020D3
:102DD000780C002080B485B000AF78604FF0B0432D
:102DE000DA6C4FF0B0417B681343CB644FF0B043D3
:102DF000DA6C7B681340FB60FB6800BF1437BD468C
:102E00005DF8047B7047000080B586B000AF3B1DC5
:102E100000221A605A609A60DA601A610120FFF796
:102E2000D9FF0220FFF7D6FF4FF400437B60012358
:102E3000BB600023FB6000233B613B1D19464FF044
:102E4000904003F049FD10237B603B1D1946184854
:102E500003F042FD40237B603B1D1946144803F0FC
:102E60003BFD20237B603B1D1946114803F034FDD8
:102E700008237B603B1D19460D4803F02DFD802380
:102E80007B604FF44413BB600123FB603B1D19467C
:102E9000074803F021FD00220521172003F0F5F972
:102EA000172003F00CFA00BF1837BD4680BD00BFE5
:102EB0000004004880B584B000AF0346FB710022D7
:102EC0000821164803F090FE0023FB731EE097F9DB
:102ED0000730002B05DA01222021104803F084FE80
:102EE00004E0002220210D4803F07EFE012208218B
:102EF0000A4803F079FE00220821084803F074FE16
:102F0000FB795B00FB71FB7B0133FB73FB7B072BC6
:102F1000DDD900BF00BF1037BD4680BD00040048AA
:102F200080B582B000AF0346FB7100224FF4004130
:102F30004FF0904003F058FE00221021084803F0A3
:102F400053FEFB791846FFF7B5FF01224FF400410D
:102F50004FF0904003F048FE00BF0837BD4680BDEB
:102F60000004004880B582B000AF0346FB71002228
:102F70004FF400414FF0904003F036FE0122102143
:102F8000084803F031FEFB791846FFF793FF012252
:102F90004FF400414FF0904003F026FE00BF083789
:102FA000BD4680BD0004004880B485B000AFF86025
:102FB000084611461A4603467B810B463B81134661
:102FC000FB80214B00221A601F4AFB6813601E4AD7
:102FD0007B8913811C4A3B8953811B4A3B8B93811C
:102FE0007B8903F007039BB2002B03D17B89DB08AD
:102FF0009BB204E07B89DB089BB201339BB2124A8F
:103000005382114A3B8993820F4AFB88D3810E4B2E
:1030100000221A82FB88002B02D0FB88B42B06D139
:10302000094A7B899380084A3B89D38006E0064A97
:103030003B899380044A7B89D38000BF00BF14374B
:10304000BD465DF8047B7047800C002080B483B0DF
:1030500000AF7860044A7B68136000BF0C37BD4640
:103060005DF8047B704700BF800C002080B487B0FF
:1030700000AF0346FB800B46BB8013467B80634B4F
:103080009B88FA889A4200F2B480604BDB88BA8849
:103090009A4200F2AE805D4BDB89B3F5877F2BD07F
:1030A000B3F5877F00F3A780B42B16D0B42B00F3C1
:1030B000A280002B02D05A2B05D09CE0FB88FB821B
:1030C000BB88BB8222E0514B1A89BB88D31A9BB2C2
:1030D000013BFB82FB88BB8218E04C4B1A89FB88C2
:1030E000D31A9BB2013BFB82484B5A89BB88D31A47
:1030F0009BB2013BBB8209E0BB88FB82434B5A89F0
:10310000FB88D31A9BB2013BBB8200BF3F4B1B8A9B
:10311000032B72D801A252F823F000BF6B310008D4
:103120002D3100083D3100084D310008374B1A8918
:10313000FB8AD31A9BB2013BFB8217E0334B5A89BF
:10314000BB8AD31A9BB2013BBB820FE02F4B1A897B
:10315000FB8AD31A9BB2013BFB822C4B5A89BB8A58
:10316000D31A9BB2013BBB8200E000BF274B1B89F7
:10317000FA8A9A4243D8254B5B89BA8A9A423ED84A
:10318000FB8ADB089BB21946BB8A204A528A02FBA3
:1031900003F30B443B611D4B1A683B6913441B78D6
:1031A000FB737B88002B12D1FB8A03F007036FF0BF
:1031B000800242FA03F35AB297F90F30134059B222
:1031C000124B1A683B691344CAB21A7018E0FB8AA2
:1031D00003F00703802242FA03F35AB297F90F3043
:1031E000134359B2094B1A683B691344CAB21A70A7
:1031F00006E000BF04E000BF02E000BF00E000BF47
:103200001C37BD465DF8047B704700BF800C002072
:1032100080B485B000AF0346FB800023BB811CE077
:103220000023FB8111E0FA89BB891249498A01FB1D
:1032300003F31344BB600F4B1A68BB681344FA884E
:10324000D2B21A70FB890133FB810A4B5B8AFA897F
:103250009A42E8D3BB890133BB81064B9B8ABA896A
:103260009A42DDD300BF00BF1437BD465DF8047B32
:10327000704700BF800C002090B585B000AF0446B9
:10328000084611461A462346FB800346BB800B4680
:103290007B8013467B70424B9B88FA889A427AD88F
:1032A0003F4BDB88BA889A4275D897F82030012BBB
:1032B00044D10023FB8139E00023BB8129E0FA8857
:1032C000B7F90E301A447B78D31A002B28DBBA8862
:1032D000B7F90C301A447B78D31A002B20DBFA891B
:1032E000FB8813449AB27B789BB2D31A98B2BA89FE
:1032F000BB8813449AB27B789BB2D31A9BB27A886C
:103300001946FFF7B3FEB7F90C309BB201339BB2FD
:10331000BB81B7F90C207B785B00013B9A42CEDB86
:10332000B7F90E309BB201339BB2FB81B7F90E2087
:103330007B785B00013B9A42BEDB2DE00023FB81E2
:1033400023E00023BB8115E0FA89FB8813449BB27C
:10335000013B98B2BA89BB8813449BB2013B9BB234
:103360007A881946FFF782FEB7F90C309BB2013319
:103370009BB2BB81B7F90C207B789A42E4DBB7F9AA
:103380000E309BB201339BB2FB81B7F90E207B78E4
:103390009A42D6DB00E000BF1437BD4690BD00BFA7
:1033A000800C002090B58DB002AF0446084611464F
:1033B0001A462346FB800346BB800B467B801346A0
:1033C0003B804B4B9B88FA889A4200F28880484B9E
:1033D000DB88BA889A4200F28280454B9B887A88C3
:1033E0009A427CD8424BDB883A889A4277D8FB884D
:1033F000FB84BB88BB847A88FB88D31A002BB8BFB8
:103400005B42BB613A88BB88D31A002BB8BF5B42D2
:103410005B427B61FA887B889A4201D2012301E0FA
:103420004FF0FF333B61BA883B889A4201D20123B7
:1034300001E04FF0FF33FB60BA697B6913443B62E4
:103440000023FB77FB7F0133FB7797F83C30012BA0
:1034500017D1FA7F274BA3FB021359080B465B00D9
:103460000B44D31ADBB2002B0BD197F84030B98C48
:10347000F88C01220092FF22FFF7FEFE0023FB776B
:1034800008E097F840303A8FB98CF88C012400940A
:10349000FFF7F2FE3B6A5B007A699A420CDCFA8C19
:1034A0007B889A421DD03A6A7B6913443B623B6930
:1034B0009AB2FB8C1344FB843B6A5B00BA699A4264
:1034C000C0DBBA8C3B889A420DD03A6ABB69134480
:1034D0003B62FB689AB2BB8C1344BB84B2E700BF6B
:1034E00002E000BF00E000BF2C37BD4690BD00BF2A
:1034F000800C0020ABAAAAAA90B589B004AF0446FC
:10350000084611461A462346FB800346BB800B46FD
:103510007B8013463B80374B9B88FA889A4264D85D
:10352000344BDB88BA889A425FD8324B9B887A88C2
:103530009A425AD82F4BDB883A889A4255D897F846
:103540002430002B18D0BB88FB8110E0FC897A88DE
:10355000F989F88897F828300293002301933B8C6F
:1035600000932346FFF71EFFFB890133FB81FA8995
:103570003B889A42EAD339E0BC887A88B988F888CF
:1035800097F828300293002301933B8C0093234645
:10359000FFF708FF3C88FA88B988F88897F8283040
:1035A0000293002301933B8C00932346FFF7FAFE1E
:1035B000BC887A883988788897F828300293002365
:1035C00001933B8C00932346FFF7ECFE3C88FA887E
:1035D0003988788897F828300293002301933B8C30
:1035E00000932346FFF7DEFE00E000BF1437BD4620
:1035F00090BD00BF800C002080B588B000AF7B601C
:103600000346FB810B46BB811346FB724C4B9B88E8
:10361000FA899A4200F28F80494BDB88BA899A4234
:1036200000F28980FB7A203B7A68D28802FB03F3A0
:103630007A689288D20892B211467A68928802F02B
:10364000070292B2002A14BF01220022D2B20A4419
:1036500002FB03F37B617B681A687B691344BB61DF
:103660000023FB8361E00023BB834CE03B8DFF2BF9
:1036700018D1BB691B781946BB8B03F00703802266
:1036800042FA03F30B40002B31D0FA89BB8B134471
:1036900098B2BA89FB8B13449BB2BA8D1946FFF7D7
:1036A000E5FC24E0BB691B781946BB8B03F00703DC
:1036B000802242FA03F30B40002B0CD0FA89BB8B1B
:1036C000134498B2BA89FB8B13449BB2BA8D194646
:1036D000FFF7CCFC0BE0FA89BB8B134498B2BA8994
:1036E000FB8B13449BB23A8D1946FFF7BFFCBB8B93
:1036F00003F007039BB2072B02D1BB690133BB6107
:10370000BB8B0133BB837B689B88BA8B9A42ADD35A
:103710007B689B8803F007039BB2002B02D0BB6938
:103720000133BB61FB8B0133FB837B68DB88FA8B46
:103730009A4298D300E000BF2037BD4680BD00BF4D
:10374000800C002080B588B002AFBA607B60034671
:10375000FB810B46BB81FB89FB82BB89BB82214B72
:103760009B88FA899A4238D81E4BDB88BA899A42DC
:1037700033D82DE0FB8A7A6892881344194A9288DC
:10378000934206DDFB89FB827B68DA88BB8A13449F
:10379000BB82BB8A7A68D2881344124AD288934289
:1037A00003DDFB89FB82BB89BB82BB681A78B98ABF
:1037B000F88ABB8C01933B8C00937B68FFF71CFF5E
:1037C000BB680133BB607B689A88FB8A1344FB8229
:1037D000BB681B78002BCDD100E000BF1837BD4679
:1037E00080BD00BF800C002080B582B000AF786043
:1037F0007B68002B04D07B681B680C4A934201D085
:1038000000230FE048220021094812F0B5FB084AC6
:103810007B681360064B01221A71054B4FF400427E
:103820001A82012318460837BD4680BD0054004067
:10383000980C002080B582B000AF0346FB71264B88
:103840001B7983F00103DBB2002B3FD1224B5B7964
:10385000FA799A423CD0204AFB795371FB7983F084
:103860000103DBB2002B12D0002210214FF0904058
:1038700003F0BAF9184B00229A71174B0022DA7143
:10388000154B00221A72144B00225A7321E00122B8
:1038900010214FF0904003F0A7F90F4B01229A71CD
:1038A0000D4B0022DA710C4B00221A7201F0FAF96A
:1038B0000346094A5361084B00229A61064B5B6933
:1038C000054AD361044B01225A7302E000BF00E0B5
:1038D00000BF0837BD4680BD980C002080B588B079
:1038E00000AF714B1B7983F00103DBB2002B40F07A
:1038F000CE806D4B5B7983F00103DBB2002B40F08F
:10390000C680694B9B7983F00103DBB2002B40F04A
:10391000BE8001F0C7F9F861634B5B69FA69D31A9D
:10392000312B40F2B680604BDB691946F86900F034
:1039300093FD034683F00103DBB2002B40F0AB8024
:10394000594BDB7983F00103DBB2002B16D000F07A
:1039500045FB034683F00103DBB2002B08D0524B3A
:1039600000221A72FB6903F57A734F4AD36197E01C
:103970004D4B0122DA714C4B01225A7300F0AAFB25
:103980000346FB76484B5B7B002B04D1464B5B7AAE
:10399000FA7E9A420AD0FB7E002B02D000F0C0FCD7
:1039A00001E000F013FD404B00225A733E4B5B7A5E
:1039B00083F00103DBB2002B2CD03B4B1B7A83F04E
:1039C0000103DBB2002B07D1374B9B69FA69D31A8D
:1039D0004EF65F22934260D9BB1D184600F04EFBA5
:1039E0000346002B0DD0B7F906202F4BDA812E4B62
:1039F00001221A722C4AFB6993612B4AFB69D3613D
:103A00004BE0294B00221A72FB6903F57A73264AB0
:103A1000D36142E007F1080207F11403114618468A
:103A200000F016FC034683F00103DBB2002B36D115
:103A30007A691D4B5B6AD31A3B2B31D93B1D184663
:103A400000F01CFB0346002B18D0B7F90420164BDE
:103A5000DA81154B01221A727B69134A5362124AAA
:103A6000FB699361104AFB69D361B7F9043007F130
:103A700008010122184600F01BFC11E00A4B00224D
:103A80001A72FB6903F57A73074AD36108E000BF35
:103A900006E000BF04E000BF02E000BF00E000BF9E
:103AA0002037BD4680BD00BF980C002080B400AF19
:103AB000074B1B7983F00103DBB2002B03D1044BCE
:103AC00001225A7300E000BFBD465DF8047B7047D9
:103AD000980C002080B588B000AF78607B68002B20
:103AE00014D0414B1B7983F00103DBB2002B0DD1C5
:103AF0003D4B5B7983F00103DBB2002B06D13A4BDF
:103B00009B7983F00103DBB2002B01D0002367E037
:103B100001F0C8F8F861344B5B69FA69D31A312BAC
:103B200001D800235CE0304BDB7983F00103DBB28A
:103B3000002B14D000F052FA034683F00103DBB2ED
:103B4000002B09D0284B00221A72FB6903F57A7307
:103B5000254AD361002343E0234B0122DA7107F1A8
:103B60001A03184600F08AFA034683F00103DBB219
:103B7000002B09D01C4B00221A72FB6903F57A73E3
:103B8000194AD36100232BE0B7F91A20164BDA81CA
:103B9000154B01221A72144AFB699361124AFB69A0
:103BA000D361B7F91A207B681A800F4B5B7A002B20
:103BB00015D007F1080207F114031146184600F06A
:103BC00047FB0346002B0AD07B69074A5362B7F9CB
:103BD0001A3007F108010122184600F069FB0123A1
:103BE00018462037BD4680BD980C002080B584B0B3
:103BF00000AF78607B68002B0AD007F10E031846EF
:103C0000FFF768FF034683F00103DBB2002B01D00E
:103C1000002309E0B7F90E30184600F02FFC0346E8
:103C20001A467B681A70012318461037BD4680BDBE
:103C300080B582B000AF78607B68002B62D0302204
:103C40000021786812F098F97B6801221A602F4BE6
:103C50001A6A7B689A602D4B1B7A002B03D02B4B82
:103C6000B3F90E2000E02A4A7B68DA81274B9B7A61
:103C7000002B03D0254BB3F9102000E0244A7B68C9
:103C80009A81224B9B7A002B0CD07B685B6843F0B7
:103C900001027B685A607B681C4A1033283207CACD
:103CA00003C31A80194B5B7A002B05D07B685B68D5
:103CB00043F002027B685A60144BDB7A002B0FD072
:103CC0007B685B6843F004027B685A607B680F4A3C
:103CD0001A333232106851681860596012891A819B
:103CE0000A4B1B7B002B0ED07B685B6843F00802FD
:103CF0007B685A607B68054A24333C3207CA03C399
:103D00001A8000E000BF0837BD4680BD980C002037
:103D10000080FFFF80B586B000AF78607B68002B25
:103D200003D07B681B68012B01D0002397E07B68E0
:103D30009B684D4A13627B685B6803F00103002BAC
:103D400014BF01230023DAB2474B9A727B685B6889
:103D500003F00203002B14BF01230023DAB2424B0D
:103D60005A727B685B6803F00403002B14BF0123C5
:103D70000023DAB23C4BDA727B685B6803F008031D
:103D8000002B14BF01230023DAB2374B1A737B6870
:103D9000B3F90E3013F5004F08D07B68B3F90E204D
:103DA000314BDA81304B01221A7202E02E4B002295
:103DB0001A722D4B9B7A002B0CD07B68B3F90C2028
:103DC000294B1A82284B7A682833103207CA03C35A
:103DD0001A8008E0244B4FF400421A820A22002184
:103DE000224812F0C9F8204BDB7A002B0AD01E4B78
:103DF0007A6832331A321068516818605960128933
:103E00001A8104E00A220021194812F0B5F8164B75
:103E10001B7B002B07D0144B7A683C33243207CA33
:103E200003C31A8004E00A220021124812F0A4F809
:103E30000D4B5B7A002B11D007F1080207F1140338
:103E40001146184600F004FA0346002B03D07B69A4
:103E5000054A536202E0044B00225A6201231846CD
:103E60001837BD4680BD00BF980C0020C00C002054
:103E7000CA0C0020D40C002080B586B002AF0346E7
:103E80003960FB711346BB803B68002B02D0BB88B6
:103E9000022B01D900231BE0FB793B73BA8807F1A1
:103EA0000C0301333968184612F09AF80A4B186867
:103EB000BB8801339BB207F10C02052100919221CE
:103EC00002F05EFF0346002B0CBF01230023DBB290
:103ED00018461037BD4680BD980C002080B586B0CE
:103EE00004AF03463960FB711346BB803B68002B6F
:103EF00001D1002313E00C4B1868FB799AB205231B
:103F00000293BB8801933B6800930123922103F045
:103F10004FF80346002B0CBF01230023DBB21846E9
:103F20000837BD4680BD00BF980C002080B485B026
:103F300000AF0346FB80FB887B81B7F90A301B1179
:103F40007B81B7F90A2013469B0013445B00FB609A
:103F5000FB68002B07DBFB680833002B00DA0F330C
:103F60001B11FB6006E0FB68083B002B00DA0F33F7
:103F70001B11FB60FB681BB218461437BD465DF889
:103F8000047B704780B485B000AF0346FB80B7F96F
:103F900006301B01FB60FB68002B09DBFB68053367
:103FA0000D4A82FB03129210DB17D31AFB6008E064
:103FB000FB68053B084A82FB03129210DB17D31AF9
:103FC000FB60FB689BB21B019BB218461437BD46D1
:103FD0005DF8047B704700BF6766666680B582B097
:103FE00000AF60233B7100237B713B1D0222194609
:103FF0000120FFF741FF034683F00103DBB2002BF2
:1040000001D0002336E0F020FFF7BCFF0346FB8021
:10401000FB881B0A9BB2DBB23B70FB88DBB27B7078
:104020003B46022219460220FFF726FF034683F093
:104030000103DBB2002B01D000231BE0FA20FFF7C5
:10404000A1FF0346FB80FB881B0A9BB2DBB23B70DF
:10405000FB88DBB27B703B46022219460320FFF748
:104060000BFF034683F00103DBB2002B01D00023DA
:1040700000E0012318460837BD4680BD80B584B0F6
:1040800000AF78607B68002B0CD007F10C03022294
:1040900019460020FFF722FF034683F00103DBB23D
:1040A000002B01D0002311E03B7B1BB21B021AB294
:1040B0007B7B1BB213431BB2FB81FB891846FFF7C6
:1040C00035FF03461A467B681A80012318461037CD
:1040D000BD4680BD80B500AF08214FF0904002F092
:1040E0006BFD0346002B0CBF01230023DBB21846F7
:1040F00080BD000080B584B000AF786039600023D7
:10410000FB607B68002B12D03B68002B0FD07B68D4
:104110009B78002B0BD07B689B780C2B07D87B6897
:10412000DB78002B03D07B68DB781F2B01D90023C1
:1041300054E04FF4FA637B8111E07B89184600F06C
:1041400055F80346002B02D04FF4B77301E040F25C
:104150006D13FA681344FB607B8901337B817B68B4
:104160001B887A899A42E8D37B689B78013B1D4A79
:1041700032F813301A46FB681344FB607B689B7867
:10418000022B0AD97B681B88184600F02FF80346DB
:10419000002B02D0FB680133FB607B68DB781A469A
:1041A000FB681344013BFB60FB680F4A03FB02F210
:1041B0007B689B7919464FF4616301FB03F31A4452
:1041C0007B68DB7919460B461B015B1A9B00134485
:1041D0007A68127A1A443B681A600123184610372D
:1041E000BD4680BDDC9801088051010080B483B0D9
:1041F00000AF0346FB80FB8803F003039BB2002B58
:104200001AD1FB88114AA2FB03125209642101FB57
:1042100002F29B1A9BB2002B0CD1FB880B4AA2FB2B
:104220000312D2094FF4C87101FB02F29B1A9BB230
:10423000002B01D1012300E0002303F00103DBB2D6
:1042400018460C37BD465DF8047B70471F85EB515F
:1042500080B586B000AF7860396007F10C0318466E
:1042600000F0A4FB034683F00103DBB2002B0BD16B
:1042700007F10C0379681846FFF73CFF034683F00B
:104280000103DBB2002B01D000230CE03B68002BC4
:1042900008D03B681A4607F10C0303CB106051604D
:1042A0001B881381012318461837BD4680BD0000C6
:1042B00080B582B000AF03463960FB8013467B7146
:1042C000154B9B7A83F00103DBB2002B06D1124B16
:1042D000B3F91030B7F906209A4219DD0E4B0122CE
:1042E0009A720D4AFB8813827B79002B0BD03B68B6
:1042F000002B08D0084B3A6828331068516803C374
:1043000012891A8004E00A220021044811F034FEC8
:1043100000BF0837BD4680BD980C0020C00C0020AF
:1043200080B586B000AF284B01225A7207F10C020B
:1043300007F1080311461846FFF78AFF0346002BD2
:1043400010D0214B03F1320207F10C0303CB1060B4
:1043500051601B8813811C4B0122DA72BB681A4A18
:10436000536205E0184B0022DA72174B00225A62A2
:10437000BB1D1846FFF782FE0346002B15D0B7F988
:104380000620114BDA81104B01221A7200F08AFCD0
:1043900003460D4A9361B7F906300B4AD27A07F10A
:1043A0000C011846FFF784FF09E0074B00221A7240
:1043B00000F078FC034603F57A73034AD36100BF2B
:1043C0001837BD4680BD00BF980C002080B586B070
:1043D00000AF1F4BDB7A002B30D007F10C031846DF
:1043E00000F0E4FA0346002B28D007F10803194631
:1043F0001848FFF77FFE0346002B1FD03A1D07F138
:104400000C0311461846FFF775FE0346002B15D026
:104410007A68BB689A4211D30D4B1A6A7968BB68F7
:10442000CB1A13440A4A1362094B3C3307F10C02BE
:1044300007CA03C31A80064B01221A73044B0022D9
:104440005A72034B0022DA7200BF1837BD4680BD96
:10445000980C0020CA0C002080B483B000AF7860B4
:1044600039607A683B68D31ADB43DB0FDBB218464E
:104470000C37BD465DF8047B7047000080B485B002
:1044800000AF0346FB80B7F90630002B0ADBB7F913
:1044900006300533134A82FB03129210DB17D31A3E
:1044A000FB8109E0B7F90630053B0E4A82FB031297
:1044B0009210DB17D31AFB81B7F90E307F2B01DD89
:1044C0007F23FB81B7F90E3013F1800F02DA4FF62C
:1044D0008073FB81FB895BB218461437BD465DF8DB
:1044E000047B70476766666680B483B000AF78600F
:1044F0007B68002B01D1002312E07B681B78172B0F
:1045000001D900230CE07B685B783B2B01D90023A9
:1045100006E07B689B783B2B01D9002300E0012358
:1045200018460C37BD465DF8047B704780B483B0F5
:1045300000AF78607B68002B01D100232BE07B6803
:104540001B88B3F5FA6F05D37B681B8840F63302EE
:10455000934201D900231EE07B689B78002B03D097
:104560007B689B780C2B01D9002314E07B68DB78F7
:10457000002B03D07B68DB781F2B01D900230AE0D6
:104580007B681B79002B03D07B681B79072B01D933
:10459000002300E0012318460C37BD465DF8047B7C
:1045A0007047000080B483B000AF114B7B600023E4
:1045B0003B600FE00F4A3B6813441B781A467B6848
:1045C00053407B607B680C4A02FB03F37B603B68D3
:1045D00001333B60074A3B6813441B78002BE9D149
:1045E0007B6818460C37BD465DF8047B704700BFFA
:1045F000C59D1C81F49801089301000180B485B029
:1046000000AF78607B68002B01D1002329E00023F4
:10461000FB7322E07B681A78FB7B154911F8233085
:104620009A4217D17B6801331A78FB7B10499B00B3
:104630000B445B789A420DD17B6802331A78FB7B7E
:104640000B499B000B449B789A4203D1FB7B0133BF
:10465000DBB206E0FB7B0133FB73FB7B0B2BD9D971
:10466000002318461437BD465DF8047B704700BF31
:104670000C99010880B485B000AF0346FB800B465F
:104680007B7113463B71FB88FB817B79022B02D83F
:10469000FB89013BFB81FB89FA89920892B21344A2
:1046A000FA891649A1FB0212520992B29B1AFA89A1
:1046B0001249A1FB0212D20992B213447A79013A4B
:1046C0000F498A5C1A443B791A440E4BA3FB021330
:1046D000D11A49080B4499080B46DB005B1AD11A22
:1046E0000B467B737B7B002B01D07B7B00E0072399
:1046F00018461437BD465DF8047B70471F85EB51A3
:104700003C9901082549922480B58AB000AF7860B1
:10471000584A07F1180307CA83E80700564A07F109
:104720000C0307CA03C31A707B68002B01D1002356
:104730009BE007F118031846FFF760FF034687F870
:10474000273097F82730002B01D100238DE03B7FE5
:10475000202B03D03B7F303BDBB200E0002387F807
:104760002630FB7F1A465201D21A92001344DB0016
:104770009AB297F82030194689000B4419468800F0
:10478000194603460B449B009BB213449AB297F818
:104790002130194689000B445B009BB213449BB245
:1047A00097F8222013449BB203F53E5330339AB25C
:1047B0007B681A807B6897F827209A7097F82630D4
:1047C0001A46920013445B00DAB27B7F1344DBB2DB
:1047D000303BDAB27B68DA703B7B1A4692001344B6
:1047E0005B00DAB27B7B1344DBB2103BDAB27B684E
:1047F0009A71FB7B1A46920013445B00DAB23B7C51
:104800001344DBB2103BDAB27B68DA71BB7C1A4628
:10481000920013445B00DAB2FB7C1344DBB2103B22
:10482000DAB27B681A727B6818887B6899787B6833
:10483000DB781A46FFF71EFF03461A467B681A719B
:104840007B681846FFF772FE0346002B09D07B6891
:1048500006331846FFF748FE0346002B01D001231C
:1048600000E0002303F00103DBB218462837BD4601
:1048700080BD00BF4C6901085869010880B400AFD1
:10488000064B1B68064A93420CBF01230023DBB290
:104890001846BD465DF8047B704700BF780B0020CA
:1048A0000028004080B588B000AF786007F10C03A5
:1048B00000221A605A609A60DA601A610023BB60B5
:1048C000FFF7DCFF034683F00103DBB2002B17D1B7
:1048D0007B68002B14D07B681846FFF727FE034641
:1048E00083F00103DBB2002B0AD17B680633184644
:1048F000FFF7FAFD034683F00103DBB2002B01D082
:10490000002348E07B689B793B737B68DB797B7392
:104910007B681B7ABB730023BB610023FB617B6850
:104920001B793B727B689B787B727B68DB78BB7200
:104930007B681B881A4AA2FB03125209642101FBFF
:1049400002F29B1A9BB2DBB2FB7207F10C0300224E
:104950001946144806F09EFD0346002B01D00023A3
:1049600019E007F10803002219460E4806F08FFEF1
:104970000346002B01D000230DE00B4A1321094808
:1049800007F010FBFFF70EFE03461A4612210548FA
:1049900007F008FB012318462037BD4680BD00BF45
:1049A0001F85EB51780B00203143545280B588B0FD
:1049B00000AF786007F10C0300221A605A609A6019
:1049C000DA601A610023BB60FFF758FF034683F0EB
:1049D0000103DBB2002B02D17B68002B01D1002345
:1049E00030E007F10C0300221946184806F0F1FDEB
:1049F0000346002B01D0002324E007F10803002226
:104A00001946124806F0CCFE0346002B01D00023C5
:104A100018E03A7B7B689A717A7B7B68DA71BA7BA3
:104A20007B681A72FB7A03F5FA639AB27B681A8084
:104A30007A7A7B689A70BA7A7B68DA703A7A7B689D
:104A40001A71012318462037BD4680BD780B00201F
:104A500080B500AFFFF712FF034683F00103DBB21E
:104A6000002B01D000230AE01321064807F0B4FA16
:104A70000346054A93420CBF01230023DBB21846CC
:104A800080BD00BF780B00203143545280B584B004
:104A900000AFFFF7F3FE034683F00103DBB2002B08
:104AA00001D0002322E0FFF77DFDF860FFF7D0FF83
:104AB0000346002B09D012210E4807F08DFA02465A
:104AC000FB68934201D1012310E03B461846FFF7F3
:104AD0001BFE034683F00103DBB2002B01D0002351
:104AE00004E03B461846FFF7DDFE03461846103744
:104AF000BD4680BD780B002080B584B000AFFFF7C5
:104B0000A7FF034683F00103DBB2002B09D13B1D55
:104B10001846FFF74BFF034683F00103DBB2002B7F
:104B200001D000231AE0BB8840F2BB72934201D847
:104B3000002313E0BB88A3F2BC735A06BB795B0564
:104B40001A43FB791B041A43BB7ADB021A43FB7A34
:104B50005B0113433A7B5208D2B213431846103715
:104B6000BD4680BD80B582B000AF7860FFF786FE9D
:104B7000034683F00103DBB2002B01D000231DE0CC
:104B80007B68002B03D07B68B3F5803F01D90023FD
:104B900014E00C4807F080F90346002B01D00023F5
:104BA0000CE07B68013B04221946064807F0A8F890
:104BB0000346002B0CBF01230023DBB21846083745
:104BC000BD4680BD780B002080B582B000AF0023C9
:104BD000FB710C4B1B680B4A43F48073136003207A
:104BE00001F048FB0F2000F00FF80346002B02D025
:104BF0000123FB7101E0FDF7E0F8FB791846083767
:104C0000BD4680BD0040005880B584B000AF7860DC
:104C10000023FB73174B1B78002B24D005F098FE64
:104C20000246144B1B7819464FF47A73B3FBF1F329
:104C3000B2FBF3F3184601F050FB0346002B0FD1F3
:104C40007B680F2B09D8002279684FF0FF3001F004
:104C50001CFB094A7B68136007E00123FB7304E037
:104C60000123FB7301E00123FB73FB7B1846103724
:104C7000BD4680BD580000205400002080B400AF25
:104C8000064B1B781A46064B1B681344044A1360F4
:104C900000BFBD465DF8047B704700BF5800002090
:104CA000E00C002080B400AF034B1B681846BD46E3
:104CB0005DF8047B704700BFE00C002080B400AFBB
:104CC000034B1B681846BD465DF8047B704700BF68
:104CD0005400002080B400AF054B1B68044A23F049
:104CE0000203136000BFBD465DF8047B704700BF40
:104CF00010E000E080B400AF054B1B68044A43F0AD
:104D00000203136000BFBD465DF8047B704700BF1F
:104D100010E000E080B483B000AF786039607B6859
:104D20009B6823F47C123B681A437B689A6000BF3F
:104D30000C37BD465DF8047B704780B483B000AF8C
:104D4000786039607B689B6823F0E0723B681A43A7
:104D50007B689A6000BF0C37BD465DF8047B7047E6
:104D600080B483B000AF78607B689B6803F0E07329
:104D700018460C37BD465DF8047B704780B487B099
:104D800000AFF860B9607A603B60FB6860331A4638
:104D9000BB689B0013447B617B691A68084B134016
:104DA0007A6802F0F8413A680A43134343F000423C
:104DB0007B691A6000BF1C37BD465DF8047B7047F5
:104DC00000F0FF0380B485B000AF786039607B6885
:104DD00060331A463B689B001344FB60FB681B680A
:104DE00003F0F84318461437BD465DF8047B70475E
:104DF00080B487B000AFF860B9607A60FB68603358
:104E00001A46BB689B0013447B617B691B6823F0D7
:104E100000427B681A437B691A6000BF1C37BD469D
:104E20005DF8047B704780B483B000AF78607B6826
:104E3000DB6803F44063002B01D1012300E0002371
:104E400018460C37BD465DF8047B704780B487B0C8
:104E500000AFF860B9607A60FB6830331A46BB680F
:104E60001B0A9B0003F00C0313447B617B691A68E7
:104E7000BB6803F01F031F2101FA03F3DB431A4051
:104E80007B689B0E03F01F01BB6803F01F0301FA50
:104E900003F31A437B691A6000BF1C37BD465DF8F7
:104EA000047B704780B487B000AFF860B9607A6067
:104EB000FB6814331A46BB685B0E9B0003F00403C7
:104EC00013447B617B691A68BB681B0D03F01F03E9
:104ED000072101FA03F3DB431A40BB681B0D03F003
:104EE0001F03796801FA03F31A437B691A6000BF54
:104EF0001C37BD465DF8047B7047000080B485B068
:104F000000AFF860B9607A60FB68D3F8B020BB6886
:104F1000C3F31203DB431A407B6803F0180308490C
:104F2000D940BB680B40C3F312031A43FB68C3F8B4
:104F3000B02000BF1437BD465DF8047B704700BF4A
:104F4000FFFF070080B483B000AF78607B689B6888
:104F500023F0204323F03F037A68936000BF0C37AF
:104F6000BD465DF8047B704780B483B000AF7860C5
:104F70007B689B6803F00053B3F1005F01D101230C
:104F800000E0002318460C37BD465DF8047B7047EF
:104F900080B483B000AF78607B689B6823F01043D7
:104FA00023F03F0343F080527B689A6000BF0C37C8
:104FB000BD465DF8047B704780B483B000AF786075
:104FC0007B689B6803F08053B3F1805F01D10123BC
:104FD00000E0002318460C37BD465DF8047B70479F
:104FE00080B483B000AF78607B689B6823F0004397
:104FF00023F03F0343F001027B689A6000BF0C3747
:10500000BD465DF8047B704780B483B000AF786024
:105010007B689B6823F0004323F03F0343F00202C8
:105020007B689A6000BF0C37BD465DF8047B704713
:1050300080B483B000AF78607B689B6803F00103A5
:10504000012B01D1012300E0002318460C37BD4697
:105050005DF8047B704780B483B000AF78607B68F4
:105060009B6803F00203022B01D1012300E000231F
:1050700018460C37BD465DF8047B704780B483B09A
:1050800000AF78607B689B6823F0004323F03F0308
:1050900043F004027B689A6000BF0C37BD465DF8A0
:1050A000047B704780B483B000AF78607B689B68F6
:1050B00023F0004323F03F0343F010027B689A6023
:1050C00000BF0C37BD465DF8047B704780B483B0E9
:1050D00000AF78607B689B6803F00403042B01D168
:1050E000012300E0002318460C37BD465DF8047B21
:1050F000704780B483B000AF78607B689B6823F012
:10510000004323F03F0343F020027B689A6000BF16
:105110000C37BD465DF8047B704780B483B000AFA8
:1051200078607B689B6803F00803082B01D101239A
:1051300000E0002318460C37BD465DF8047B70473D
:1051400080B588B000AF78600023FB770023BB6197
:105150000023BB607B68002B01D101232EE17B681B
:105160001B69002B7B685B6D002B09D17868FCF70D
:105170002BFE7B6800229A657B68002283F8502012
:105180007B681B681846FFF7EFFE0346002B04D030
:105190007B681B681846FFF7D5FE7B681B681846BE
:1051A000FFF70AFF0346002B15D17B681B681846E2
:1051B000FFF7EEFE834B1B689B09834AA2FB032388
:1051C0009B0901335B00BB6002E0BB68013BBB6035
:1051D000BB68002BF9D17B681B681846FFF7ECFE13
:1051E0000346002B0DD17B685B6D43F010027B689A
:1051F0005A657B689B6D43F001027B689A650123C9
:10520000FB777B681B681846FFF760FF78617B6857
:105210005B6D03F01003002B40F0C7807B69002B0F
:1052200040F0C3807B685B6D23F4817343F002021E
:105230007B685A657B681B681846FFF7F9FE0346D2
:10524000002B0BD16148FFF7F3FE0346002B05D17D
:105250007B685B6819465E48FFF75CFD7B685B7E98
:105260005A037B685B6B1A437B68DB681A437B6875
:105270009B681A437B6893F820301B041343BA6978
:105280001343BB617B6893F82030012B06D17B6808
:105290005B6A013B5B04BA691343BB617B689B6A31
:1052A000002B09D07B689B6A03F470727B68DB6A11
:1052B0001343BA691343BB617B681B68DA68454BCB
:1052C00013407A681268B9690B43D3607B681B6826
:1052D0001846FFF7FBFE38617B681B681846FFF72E
:1052E0001CFFF8603B69002B3DD1FB68002B3AD1D5
:1052F0007B681B7E9A037B6893F830305B00134316
:10530000BB617B681B68DB6823F4804323F00203E6
:105310007A681268B9690B43D3607B6893F83830B8
:10532000012B18D17B681B681B6923F4FF6323F0F2
:1053300004037A68D16B7A68126C11437A68526CF4
:1053400011437A68926C0A431A437B681B6842F0E7
:1053500001021A6107E07B681B681A697B681B6899
:1053600022F001021A617B681B69012B0CD17B685A
:105370001B681B6B23F00F017B68DB695A1E7B687F
:105380001B680A431A6307E07B681B681A6B7B681B
:105390001B6822F00F021A637B685B6D23F0030326
:1053A00043F001027B685A6507E07B685B6D43F060
:1053B00010027B685A650123FB77FB7F1846203774
:1053C000BD4680BD1C000020632D3E05000004503A
:1053D0000003045007C0F0FF80B584B000AF7860D0
:1053E0007B681B681846FFF771FE0346002B40D10F
:1053F0007B6893F85030012B01D102233CE07B689D
:10540000012283F85020786800F08AFD0346FB7380
:10541000FB7B002B28D17B685B6D23F4706323F04A
:10542000010343F480727B685A657B685B6D03F40B
:105430008053B3F5805F06D17B689B6D23F0060235
:105440007B689A6502E07B6800229A657B681B682E
:105450001C221A607B68002283F850207B681B683E
:105460001846FFF70BFE06E07B68002283F8502009
:1054700001E00223FB73FB7B18461037BD4680BD5D
:1054800080B584B000AF78607B6893F85030012B12
:1054900001D1022323E07B68012283F850200321FD
:1054A000786800F081FC0346FB73FB7B002B11D175
:1054B000786800F0AFFD0346FB73FB7B002B09D13E
:1054C0007B685B6D23F4885323F0010343F00102F2
:1054D0007B685A657B68002283F85020FB7B184666
:1054E0001037BD4680BD80B584B000AF78603960AC
:1054F0007B685B69082B02D10823FB6010E07B68A6
:105500001B68DB6803F00103002B07D07B685B6D31
:1055100043F020027B685A6501236DE00423FB60A1
:10552000FFF7C0FBB86021E03B68B3F1FF3F1DD03F
:10553000FFF7B8FB0246BB68D31A3A689A4202D317
:105540003B68002B12D17B681B681A68FB6813400C
:10555000002B0BD17B685B6D43F004027B685A65BE
:105560007B68002283F85020032345E07B681B689A
:105570001A68FB681340002BD6D07B685B6D43F440
:1055800000727B685A657B681B681846FFF74BFC06
:105590000346002B1CD07B685B7E002B18D17B68F8
:1055A0001B681B6803F00803082B11D17B685B6D37
:1055B00023F480727B685A657B685B6D03F48053CB
:1055C000002B05D17B685B6D43F001027B685A6557
:1055D000FB68082B04D17B681B6808221A600AE06C
:1055E0007B681B68DB6803F48043002B03D17B6876
:1055F0001B680C221A60002318461037BD4680BD78
:1056000080B483B000AF78607B681B681B6C184661
:105610000C37BD465DF8047B7047000080B5B6B01E
:1056200000AF78603960002387F8D7300023FB6033
:105630007B6893F85030012B01D102239FE37B68F4
:10564000012283F850207B681B681846FFF73EFD57
:105650000346002B40F084837B6818683B685968D8
:105660003B681B681A46FFF7F1FB7B681B6818460E
:10567000FFF72CFDC7F8D0007B681B681846FFF7C2
:105680004CFDC7F8CC00D7F8D030002B40F0A681F5
:10569000D7F8CC30002B40F0A1817B6818683B68BC
:1056A00019683B689B681A46FFF7FCFB3B685A6920
:1056B0007B681B68DB68DB0803F003035B0002FA0E
:1056C00003F3C7F8C8303B681B69042B0AD07B681A
:1056D00018683B6819693B681A68D7F8C830FFF743
:1056E0004DFB7BE17B681B6800211846FFF76AFBD6
:1056F0000346C3F31203002B0AD17B681B68002109
:105700001846FFF75FFB03469B0E03F01F021EE0E7
:105710007B681B6800211846FFF754FB0346C7F857
:10572000BC30D7F8BC3093FAA3F3C7F8C030D7F831
:10573000C030C7F8B830D7F8B830002B01D12023DB
:1057400004E0D7F8B830B3FA83F3DBB21A463B680B
:105750001B68C3F31203002B05D13B681B689B0E2B
:1057600003F01F0318E03B681B68C7F8B030D7F898
:10577000B03093FAA3F3C7F8AC30D7F8AC30C7F821
:10578000B430D7F8B430002B01D1202304E0D7F88F
:10579000B430B3FA83F3DBB29A4206D17B681B685C
:1057A000002200211846FFF723FB7B681B680121BC
:1057B0001846FFF707FB0346C3F31203002B0AD179
:1057C0007B681B6801211846FFF7FCFA03469B0E15
:1057D00003F01F021EE07B681B6801211846FFF7DB
:1057E000F1FA0346C7F8A430D7F8A43093FAA3F32C
:1057F000C7F8A030D7F8A030C7F8A830D7F8A8303D
:10580000002B01D1202304E0D7F8A830B3FA83F3AA
:10581000DBB21A463B681B68C3F31203002B05D1A9
:105820003B681B689B0E03F01F0318E03B681B6876
:10583000C7F89830D7F8983093FAA3F3C7F89430A4
:10584000D7F89430C7F89C30D7F89C30002B01D1A2
:10585000202304E0D7F89C30B3FA83F3DBB29A42FA
:1058600006D17B681B68002201211846FFF7C0FAA9
:105870007B681B6802211846FFF7A4FA0346C3F3AE
:105880001203002B0AD17B681B6802211846FFF720
:1058900099FA03469B0E03F01F021EE07B681B680B
:1058A00002211846FFF78EFA0346C7F88C30D7F866
:1058B0008C3093FAA3F3C7F88830D7F88830C7F84C
:1058C0009030D7F89030002B01D1202304E0D7F896
:1058D0009030B3FA83F3DBB21A463B681B68C3F31C
:1058E0001203002B05D13B681B689B0E03F01F03BE
:1058F00016E03B681B68C7F88030D7F8803093FA11
:10590000A3F3FB67FB6FC7F88430D7F88430002B14
:1059100001D1202304E0D7F88430B3FA83F3DBB25B
:105920009A4206D17B681B68002202211846FFF7C5
:105930005FFA7B681B6803211846FFF743FA0346AA
:10594000C3F31203002B0AD17B681B68032118469E
:10595000FFF738FA03469B0E03F01F0217E07B683F
:105960001B6803211846FFF72DFA03467B677B6F00
:1059700093FAA3F33B673B6FBB67BB6F002B01D16F
:10598000202303E0BB6FB3FA83F3DBB21A463B6814
:105990001B68C3F31203002B05D13B681B689B0EE9
:1059A00003F01F0311E03B681B68BB66BB6E93FAF4
:1059B000A3F37B667B6EFB66FB6E002B01D120237D
:1059C00003E0FB6EB3FA83F3DBB29A4206D17B6845
:1059D0001B68002203211846FFF70AFA7B681B6840
:1059E0001846FFF725FB0346002B40F0C2817B6879
:1059F00018683B6819683B68DB681A46FFF77EFA4F
:105A00003B68DB688E4A934240F030817B681868BF
:105A10003B681B68C3F31203002B0BD13B681B6868
:105A20009B0E013303F01F03092B94BF01230023B6
:105A3000DBB219E03B681B68FB65FB6D93FAA3F3CF
:105A4000BB65BB6D3B663B6E002B01D1202303E0A1
:105A50003B6EB3FA83F3DBB2013303F01F03092B70
:105A600094BF01230023DBB2002B79D03B681B6875
:105A7000C3F31203002B07D13B681B689B0E013355
:105A80009B0603F0F84215E03B681B683B653B6DE5
:105A900093FAA3F3FB64FB6C7B657B6D002B01D158
:105AA000202303E07B6DB3FA83F3DBB201339B0663
:105AB00003F0F8423B681B68C3F31203002B09D1C3
:105AC0003B681B689B0E013303F01F03012101FAA1
:105AD00003F317E03B681B687B647B6C93FAA3F3CA
