:020000040800F2
:1000000000000320BD0C0008F90A0008010B0008DD
:10001000090B0008110B0008190B00080000000074
:10002000000000000000000000000000210B00089C
:100030002F0B0008000000003D0B00084B0B0008D0
:10004000150D00087B0B0008150D0008150D0008A4
:10005000150D0008150D0008150D0008150D0008F8
:10006000870B0008150D00086D0B0008150D000822
:10007000150D0008150D0008150D0008150D0008D8
:10008000150D0008150D0008150D0008150D0008C8
:10009000590B0008150D0008150D0008150D000876
:1000A000150D0008150D0008150D0008150D0008A8
:1000B000150D0008150D0008150D0008150D000898
:1000C000150D0008150D0008150D0008150D000888
:1000D000150D0008150D0008150D0008150D000878
:1000E000150D0008150D0008150D0008150D000868
:1000F000150D0008150D0008150D0008150D000858
:10010000150D0008150D0008150D0008150D000847
:10011000150D0008150D0008150D0008150D000837
:10012000150D0008150D0008150D0008150D000827
:0C013000150D0008150D0008150D000845
:1001400010B5054C237833B9044B13B10448AFF311
:1001500000800123237010BDE80100200000000092
:100160007408010808B5034B1BB103490348AFF3FA
:10017000008008BD00000000EC01002074080108A8
:10018000034613F8012B002AFBD1181A01387047D7
:1001900001F0FF01102A2BDB10F0070F08D010F838
:1001A000013B013A8B422DD010F0070F42B3F6D13C
:1001B000F0B441EA012141EA014122F007047FF055
:1001C00000070023F0E80256083C85EA010586EAAC
:1001D000010685FA47F5A3FA87F586FA47F6A5FAE8
:1001E00087F68EB9EED1F0BC01F0FF0102F00702F4
:1001F00032B110F8013B013A83EA010313B1F8D19F
:100200000020704701387047002D06BF354603387F
:10021000073815F0010F07D1013015F4807F02BFB8
:10022000013015F4C03F0130F0BC0138704700BF09
:1002300080B584B000AF786000F0FCFEF8600A4B37
:100240001B69094A23F00403136100E030BF00F08A
:10025000F1FE0246FB68D31A7A689A42F6D800BFCC
:1002600000BF1037BD4680BD00ED00E080B483B014
:1002700000AF78604FF0B043D3F8903023F018020D
:100280004FF0B0417B681343C1F8903000BF0C378A
:10029000BD465DF8047B704780B485B000AF7860E0
:1002A0004FF0B043DA6C4FF0B0417B681343CB643E
:1002B0004FF0B043DA6C7B681340FB60FB6800BF13
:1002C0001437BD465DF8047B7047000080B582B0EE
:1002D00000AF00F041FE00F093F800F005F900F0E7
:1002E000B3F900F083F908F0F5F90346002B01D0CB
:1002F00000F02CFB00F016F9002000F081FD0FF05B
:100300003FFA0346002B0DD00FF0DAF90346002B1D
:1003100005D00122324933480DF048FA07E00EF0CB
:10032000BBFE04E001222E492E480DF03FFA00F0FA
:10033000F9FA10212C4802F0EDFC0346002B01D005
:10034000012200E00022294B1A7000F073FE0346E0
:10035000274A1360254B1B78DBB2002B0AD000F034
:10036000B4FA00F07BFA01200EF086FE214B022247
:100370001A7007E000200EF07FFE00F09FFA1D4B80
:1003800000221A701C4B1B78DBB2002B05D01A4BD5
:1003900000221A70282000F0A9F9184B1B78DBB254
:1003A000002B16D0154B00221A7000F039FD786032
:1003B0007B68002B03DB7B68B3F52F6F09DA0FF046
:1003C0002BF90346002B01D00FF012FA00F096FA39
:1003D00005E000F0E3F900F013FA00F08FFAD1E73E
:1003E00098080108D402002000100048A102002053
:1003F000A4020020A0020020AA020020AC020020DB
:1004000080B59AB000AF07F12003482200211846BA
:100410000FF0B2FD3B1D00221A605A609A60DA604C
:100420001A615A619A6104F041FC1020FFF71EFF27
:100430002C4B1B6823F4C0632A4A43F400731360F7
:10044000284B1B6803F4C0633B603B6827233B6277
:100450004FF480337B620123BB624FF48073FB62F5
:100460000123FB6340233B6300233B6460237B64E5
:100470000223FB6401233B6500237B651823BB65D6
:100480004FF40033FB654FF000537B664FF0007371
:100490003B6607F12003184605F036F80346002BAB
:1004A00001D000F053FA6F237B600223BB6000236E
:1004B000FB6000233B6100237B618023BB61002341
:1004C000FB613B1D0121184605F092FB0346002B02
:1004D00001D000F03BFA06F021F900BF6837BD46B5
:1004E00080BD00BF0004005880B594B000AF3B460B
:1004F0005022002118460FF03FFD4FF400533B609F
:100500000023BB641023FB643B46184605F090FFB4
:100510000346002B01D000F019FA00BF5037BD464A
:1005200080BD000080B586B000AF3B4600221A6057
:100530005A609A60DA601A615A61294B294A1A6036
:10054000274B00225A60264B00229A60244B00223F
:10055000DA60234B00221A61214B04225A61204B9E
:1005600000221A761E4B00225A761D4B0122DA61B8
:100570001B4B002283F82020194B00229A62184B53
:100580000022DA62164B002283F83020144B00223E
:100590005A63134B002283F83820114800F098FF6B
:1005A0000346002B01D000F0D1F90F4B3B6006232E
:1005B0007B600723BB607F23FB6004233B61002338
:1005C0007B613B461946064801F0F0F90346002BD3
:1005D00001D000F0BBF900BF1837BD4680BD00BF99
:1005E00004020020000004504000201980B500AF34
:1005F000134B144A1A60124B00225A60104B4FF4EE
:1006000020629A600E4B4FF6FF725A610C4B00222B
:100610001A620B4B00225A62094B00229A62084B65
:100620000022DA62064B00221A63054802F004FC3D
:100630000346002B01D000F089F900BF80BD00BF48
:1006400068020020007C004080B586B000AF3B1DF2
:1006500000221A605A609A60DA601A611020FFF76F
:100660001BFE0420FFF718FE0120FFF715FE0220F5
:10067000FFF712FE01237B600023BB600123FB60B8
:100680003B1D19464FF0904002F0D4F904237B60E3
:100690004FF40413BB600123FB603B1D19464FF070
:1006A000904002F0C7F910237B604FF44413BB6005
:1006B0000023FB603B1D19460B4802F0BBF90022EA
:1006C00005210A2001F0A9FF0A2001F0C0FF002245
:1006D0000521082001F0A1FF082001F0B8FF00BFAC
:1006E0001837BD4680BD00BF0010004880B584B0FB
:1006F00000AF78600F23FB600823BB60BA68F9681D
:10070000064802F03BFC7868FFF792FD034802F0D0
:1007100082FC00BF1037BD4680BD00BF68020020CC
:1007200080B584B000AF0346FB80FB88102B1AD144
:1007300000F080FCF860134B1B68FA68D31A132B87
:100740001BD9104AFB68136010210F4802F0E2FA2F
:100750000346002B01D0012200E000220B4B1A704F
:100760000B4B01221A70FB88042B07D1094B012285
:100770001A70094B01221A7000E000BF1037BD4605
:1007800080BD00BFA402002000100048A10200208C
:10079000A0020020A9020020AA02002080B500AF1C
:1007A000154B1B78DBB2022B21D0022B22DC002B55
:1007B0001FD0012B00D01DE0104B1B78DBB2002BAB
:1007C0000AD000F082F800F049F801200EF054FC45
:1007D000094B02221A700DE000F05AF800200EF0CA
:1007E0004BFC00F06BF8044B00221A7002E000BFD3
:1007F00000E000BF00BF80BDA0020020A1020020D9
:1008000080B584B004AF134B1B78DBB2002B1DD036
:10081000104B00221A70104B1B78DBB2002B11D149
:100820006FF07F03029301230193FF230093FF23C3
:10083000FF22FF214FF6FF700EF064FC2820FFF727
:1008400055FF04E02820FFF751FF00E000BFBD4640
:1008500080BD00BFA9020020A002002080B500AF2B
:100860000A4B1B78002B0ED10EF08AFF0346002B9B
:1008700001D00EF025FF0EF047FA044B01221A704A
:10088000012000F029F800BF80BD00BFA8020020B1
:1008900080B500AF074B1B78002B08D006480AF044
:1008A00020F8044B00221A70002000F015F800BF59
:1008B00080BD00BFA80200203405012080B400AF35
:1008C00000BFBD465DF8047B704780B400AF00BF39
:1008D000BD465DF8047B704780B483B000AF03462B
:1008E000FB71FB791A46044B1A7000BF0C37BD46EA
:1008F0005DF8047B704700BFAB02002080B500AFFD
:10090000074B1B78DBB2002B01D030BF07E000F0B3
:10091000A9FB012004F038FA00F0B4FB00BF80BD51
:10092000AB02002080B483B000AF0C37BD465DF849
:10093000047B704780B400AF034B01221A7000BFE4
:10094000BD465DF8047B7047AC02002080B400AF68
:1009500072B600BF00BFFDE780B485B000AF78601D
:100960004FF0B043DA6C4FF0B0417B681343CB6477
:100970004FF0B043DA6C7B681340FB60FB6800BF4C
:100980001437BD465DF8047B704780B485B000AF76
:1009900078604FF0B0439A6D4FF0B0417B681343DD
:1009A0008B654FF0B0439A6D7B681340FB60FB682A
:1009B00000BF1437BD465DF8047B704780B400AFBC
:1009C00000BFBD465DF8047B7047000080B59CB059
:1009D00000AF786007F15C0300221A605A609A60E9
:1009E000DA601A6107F10C035022002118460FF05B
:1009F000C3FA7B681B681C4A934231D14FF4806371
:100A0000FB6018233B614FF400337B614FF00073B0
:100A1000BB614FF00053FB614FF080533B624FF0DE
:100A20008053BB6407F10C03184605F001FD034633
:100A3000002B01D0FFF78AFF4FF40050FFF78CFF27
:100A40000120FFF789FF0223FB6503233B66002398
:100A50007B6607F15C0319464FF0904001F0EAFF16
:100A600000BF7037BD4680BD0000045080B59CB00B
:100A700000AF786007F15C0300221A605A609A6048
:100A8000DA601A6107F10C035022002118460FF0BA
:100A900073FA7B681B68164A934225D11023FB60CA
:100AA0004FF00C137B6307F10C03184605F0C0FCF4
:100AB0000346002B01D0FFF749FF4FF00040FFF73E
:100AC00064FF0220FFF748FF0423FB6502233B6617
:100AD00000237B660023BB660123FB6607F15C03F2
:100AE0001946044801F0A6FF00BF7037BD4680BD1F
:100AF000007C00400004004880B400AF00BFFDE768
:100B000080B400AF00BFFDE780B400AF00BFFDE7D9
:100B100080B400AF00BFFDE780B400AF00BFFDE7C9
:100B200080B400AF00BFBD465DF8047B704780B461
:100B300000AF00BFBD465DF8047B704780B400AFD6
:100B400000BFBD465DF8047B704780B500AF00F084
:100B50005DFA00BF80BD000080B500AF024802F022
:100B600067FC00BF80BD00BF180C012080B500AF3E
:100B7000102002F0FFF800BF80BD80B500AF04F088
:100B80002FF900BF80BD80B500AF042002F0F2F85D
:100B900000BF80BD80B586B000AF7860144A154BA9
:100BA000D31A7B617B693B61134B1B68002B02D11D
:100BB000114B124A1A60104B1A687B6813443A6949
:100BC0009A4207D20FF0E0F903460C221A604FF068
:100BD000FF3309E0084B1B68FB60074B1A687B6812
:100BE0001344054A1360FB6818461837BD4680BD9C
:100BF0000000032000040000B0020020B812012011
:100C000080B400AF244BD3F88830234A43F47003F8
:100C1000C2F888304FF0B0431B684FF0B04243F049
:100C2000010313604FF0B0434FF4E0229A604FF09D
:100C3000B0431A684FF0B041184B13400B604FF0AF
:100C4000B043D3F894304FF0B04223F00503C2F81C
:100C500094304FF0B043D3F898304FF0B04223F0C7
:100C60000103C2F898304FF0B0430D4ADA604FF0FC
:100C7000B0430B4A1A614FF0B0431B684FF0B042CB
:100C800023F4802313604FF0B04300229A6100BF29
:100C9000BD465DF8047B704700ED00E0FBFEF6FA10
:100CA00000100422D458C4500433C4188C42F9D321
:100CB0007047036004308842FBD370470C48854678
:100CC000FFF79EFF0B480C490C4A0023FFF7EDFF8E
:100CD0000B480C490C4A0023FFF7E7FF0B480C496F
:100CE0000023FFF7E8FF0FF055F9FFF7EFFAFEE7F3
:100CF0000000032008000020E8010020100B01087C
:100D00000000032000000320F00C0108E80100208F
:100D1000B4120120FEE780B485B000AF78604FF0D8
:100D2000B043DA6C4FF0B0417B681343CB644FF0B3
:100D3000B043DA6C7B681340FB60FB6800BF14377C
:100D4000BD465DF8047B704780B586B000AF1F4B91
:100D50001B78002B36D11D4B01221A700220FFF7A1
:100D6000DAFF0120FFF7D7FF3B1D00221A605A600F
:100D70009A60DA601A6101237B600123BB60002363
:100D8000FB6000233B613B1D1946114801F052FEF8
:100D90004FF480637B600023BB600023FB603B1D3E
:100DA00019464FF0904001F045FE02237B6003237B
:100DB000BB600023FB603B1D19464FF0904001F0E3
:100DC00039FE00E000BF1837BD4680BDB4020020E8
:100DD0000004004880B582B000AF0346FB71FB7988
:100DE0001A460121044801F0ADFF044AFB79137053
:100DF00000BF0837BD4680BD00040048B502002092
:100E000080B582B000AF0346FB71FFF79DFFFB7911
:100E10001846FFF7DFFF00BF0837BD4680BD000062
:100E200080B58CB000AF3B1D00221A605A609A60FA
:100E3000DA601A615A61414B7B600623BB6007236D
:100E4000FB603B1D19463E4800F0B0FD0346002BF9
:100E500002D04FF0FF336DE0394800F085FC0346C7
:100E6000002B02D04FF0FF3364E00521344800F03E
:100E700002FD0346002B05D0314800F0C9FC4FF0BD
:100E8000FF3357E02E4800F083FD0346FB852C48D6
:100E900000F0BEFC2B4B1B881A464FF4616303FB2A
:100EA00002F2FB8DB2FBF3F3BB62274B7B600623A0
:100EB000BB600723FB603B1D1946214800F076FD0F
:100EC0000346002B02D04FF0FF3333E01C4800F004
:100ED0004BFC0346002B02D04FF0FF332AE00521E4
:100EE000174800F0C8FC0346002B05D0144800F05A
:100EF0008FFC4FF0FF331DE0114800F049FD034621
:100F0000FB840F4800F084FCFB8CBA6A03FB02F2FE
:100F10000E4BA3FB0213D21A52081344DB0A3B62A6
:100F20003B6A0B4A02FB03F30A4AA2FB03239B0B17
:100F3000FB61FB6918463037BD4680BD010000806B
:100F400004020020AA75FF1F4000201901011000B3
:100F500088E307001B923D5980B582B000AF0023A3
:100F6000FB710C4B1B680B4A43F480731360032026
:100F700001F048FB0F2000F00FF80346002B02D0D1
:100F80000123FB7101E0FFF719FDFB7918460837D3
:100F9000BD4680BD0040005880B584B000AF786089
:100FA0000023FB73174B1B78002B24D004F0CCFFDD
:100FB0000246144B1B7819464FF47A73B3FBF1F3D6
:100FC000B2FBF3F3184601F050FB0346002B0FD1A0
:100FD0007B680F2B09D8002279684FF0FF3001F0B1
:100FE0001CFB094A7B68136007E00123FB7304E0E4
:100FF0000123FB7301E00123FB73FB7B18461037D1
:10100000BD4680BD100000200C00002080B400AF61
:10101000064B1B781A46064B1B681344044A1360A0
:1010200000BFBD465DF8047B704700BF1000002084
:10103000B802002080B400AF034B1B681846BD46C1
:101040005DF8047B704700BFB802002080B400AF99
:10105000034B1B681846BD465DF8047B704700BF14
:101060000C00002080B400AF054B1B68044A23F03D
:101070000203136000BFBD465DF8047B704700BFEC
:1010800010E000E080B400AF054B1B68044A43F059
:101090000203136000BFBD465DF8047B704700BFCC
:1010A00010E000E080B483B000AF786039607B6806
:1010B0009B6823F47C123B681A437B689A6000BFEC
:1010C0000C37BD465DF8047B704780B483B000AF39
:1010D000786039607B689B6823F0E0723B681A4354
:1010E0007B689A6000BF0C37BD465DF8047B704793
:1010F00080B483B000AF78607B689B6803F0E073D6
:1011000018460C37BD465DF8047B704780B487B045
:1011100000AFF860B9607A603B60FB6860331A46E4
:10112000BB689B0013447B617B691A68084B1340C2
:101130007A6802F0F8413A680A43134343F00042E8
:101140007B691A6000BF1C37BD465DF8047B7047A1
:1011500000F0FF0380B485B000AF786039607B6831
:1011600060331A463B689B001344FB60FB681B68B6
:1011700003F0F84318461437BD465DF8047B70470A
:1011800080B487B000AFF860B9607A60FB68603304
:101190001A46BB689B0013447B617B691B6823F084
:1011A00000427B681A437B691A6000BF1C37BD464A
:1011B0005DF8047B704780B483B000AF78607B68D3
:1011C000DB6803F44063002B01D1012300E000231E
:1011D00018460C37BD465DF8047B704780B487B075
:1011E00000AFF860B9607A60FB6830331A46BB68BC
:1011F0001B0A9B0003F00C0313447B617B691A6894
:10120000BB6803F01F031F2101FA03F3DB431A40FD
:101210007B689B0E03F01F01BB6803F01F0301FAFC
:1012200003F31A437B691A6000BF1C37BD465DF8A3
:10123000047B704780B487B000AFF860B9607A6013
:10124000FB6814331A46BB685B0E9B0003F0040373
:1012500013447B617B691A68BB681B0D03F01F0395
:10126000072101FA03F3DB431A40BB681B0D03F0AF
:101270001F03796801FA03F31A437B691A6000BF00
:101280001C37BD465DF8047B7047000080B485B014
:1012900000AFF860B9607A60FB68D3F8B020BB6833
:1012A000C3F31203DB431A407B6803F018030849B9
:1012B000D940BB680B40C3F312031A43FB68C3F861
:1012C000B02000BF1437BD465DF8047B704700BFF7
:1012D000FFFF070080B483B000AF78607B689B6835
:1012E00023F0204323F03F037A68936000BF0C375C
:1012F000BD465DF8047B704780B483B000AF786072
:101300007B689B6803F00053B3F1005F01D10123B8
:1013100000E0002318460C37BD465DF8047B70479B
:1013200080B483B000AF78607B689B6823F0104383
:1013300023F03F0343F080527B689A6000BF0C3774
:10134000BD465DF8047B704780B483B000AF786021
:101350007B689B6803F08053B3F1805F01D1012368
:1013600000E0002318460C37BD465DF8047B70474B
:1013700080B483B000AF78607B689B6823F0004343
:1013800023F03F0343F001027B689A6000BF0C37F3
:10139000BD465DF8047B704780B483B000AF7860D1
:1013A0007B689B6823F0004323F03F0343F0020275
:1013B0007B689A6000BF0C37BD465DF8047B7047C0
:1013C00080B483B000AF78607B689B6803F0010352
:1013D000012B01D1012300E0002318460C37BD4644
:1013E0005DF8047B704780B483B000AF78607B68A1
:1013F0009B6803F00203022B01D1012300E00023CC
:1014000018460C37BD465DF8047B704780B483B046
:1014100000AF78607B689B6823F0004323F03F03B4
:1014200043F004027B689A6000BF0C37BD465DF84C
:10143000047B704780B483B000AF78607B689B68A2
:1014400023F0004323F03F0343F010027B689A60CF
:1014500000BF0C37BD465DF8047B704780B483B095
:1014600000AF78607B689B6803F00403042B01D114
:10147000012300E0002318460C37BD465DF8047BCD
:10148000704780B483B000AF78607B689B6823F0BE
:10149000004323F03F0343F020027B689A6000BFC3
:1014A0000C37BD465DF8047B704780B483B000AF55
:1014B00078607B689B6803F00803082B01D1012347
:1014C00000E0002318460C37BD465DF8047B7047EA
:1014D00080B588B000AF78600023FB770023BB6144
:1014E0000023BB607B68002B01D101232EE17B68C8
:1014F0001B69002B7B685B6D002B09D17868FFF7B7
:1015000065FA7B6800229A657B68002283F8502088
:101510007B681B681846FFF7EFFE0346002B04D0DC
:101520007B681B681846FFF7D5FE7B681B6818466A
:10153000FFF70AFF0346002B15D17B681B6818468E
:10154000FFF7EEFE834B1B689B09834AA2FB032334
:101550009B0901335B00BB6002E0BB68013BBB60E1
:10156000BB68002BF9D17B681B681846FFF7ECFEBF
:101570000346002B0DD17B685B6D43F010027B6846
:101580005A657B689B6D43F001027B689A65012375
:10159000FB777B681B681846FFF760FF78617B6804
:1015A0005B6D03F01003002B40F0C7807B69002BBC
:1015B00040F0C3807B685B6D23F4817343F00202CB
:1015C0007B685A657B681B681846FFF7F9FE03467F
:1015D000002B0BD16148FFF7F3FE0346002B05D12A
:1015E0007B685B6819465E48FFF75CFD7B685B7E45
:1015F0005A037B685B6B1A437B68DB681A437B6822
:101600009B681A437B6893F820301B041343BA6924
:101610001343BB617B6893F82030012B06D17B68B4
:101620005B6A013B5B04BA691343BB617B689B6ADD
:10163000002B09D07B689B6A03F470727B68DB6ABD
:101640001343BA691343BB617B681B68DA68454B77
:1016500013407A681268B9690B43D3607B681B68D2
:101660001846FFF7FBFE38617B681B681846FFF7DA
:101670001CFFF8603B69002B3DD1FB68002B3AD181
:101680007B681B7E9A037B6893F830305B001343C2
:10169000BB617B681B68DB6823F4804323F0020393
:1016A0007A681268B9690B43D3607B6893F8383065
:1016B000012B18D17B681B681B6923F4FF6323F09F
:1016C00004037A68D16B7A68126C11437A68526CA1
:1016D00011437A68926C0A431A437B681B6842F094
:1016E00001021A6107E07B681B681A697B681B6846
:1016F00022F001021A617B681B69012B0CD17B6807
:101700001B681B6B23F00F017B68DB695A1E7B682B
:101710001B680A431A6307E07B681B681A6B7B68C7
:101720001B6822F00F021A637B685B6D23F00303D2
:1017300043F001027B685A6507E07B685B6D43F00C
:1017400010027B685A650123FB77FB7F1846203720
:10175000BD4680BD08000020632D3E0500000450FA
:101760000003045007C0F0FF80B584B000AF78607C
:101770007B681B681846FFF771FE0346002B40D1BB
:101780007B6893F85030012B01D102233CE07B6849
:10179000012283F85020786800F08AFD0346FB732D
:1017A000FB7B002B28D17B685B6D23F4706323F0F7
:1017B000010343F480727B685A657B685B6D03F4B8
:1017C0008053B3F5805F06D17B689B6D23F00602E2
:1017D0007B689A6502E07B6800229A657B681B68DB
:1017E0001C221A607B68002283F850207B681B68EB
:1017F0001846FFF70BFE06E07B68002283F85020B6
:1018000001E00223FB73FB7B18461037BD4680BD09
:1018100080B584B000AF78607B6893F85030012BBE
:1018200001D1022323E07B68012283F850200321A9
:10183000786800F081FC0346FB73FB7B002B11D121
:10184000786800F0AFFD0346FB73FB7B002B09D1EA
:101850007B685B6D23F4885323F0010343F001029E
:101860007B685A657B68002283F85020FB7B184612
:101870001037BD4680BD80B584B000AF7860396058
:101880007B685B69082B02D10823FB6010E07B6852
:101890001B68DB6803F00103002B07D07B685B6DDE
:1018A00043F020027B685A6501236DE00423FB604E
:1018B000FFF7C0FBB86021E03B68B3F1FF3F1DD0EC
:1018C000FFF7B8FB0246BB68D31A3A689A4202D3C4
:1018D0003B68002B12D17B681B681A68FB681340B9
:1018E000002B0BD17B685B6D43F004027B685A656B
:1018F0007B68002283F85020032345E07B681B6847
:101900001A68FB681340002BD6D07B685B6D43F4EC
:1019100000727B685A657B681B681846FFF74BFCB2
:101920000346002B1CD07B685B7E002B18D17B68A4
:101930001B681B6803F00803082B11D17B685B6DE3
:1019400023F480727B685A657B685B6D03F4805377
:10195000002B05D17B685B6D43F001027B685A6503
:10196000FB68082B04D17B681B6808221A600AE018
:101970007B681B68DB6803F48043002B03D17B6822
:101980001B680C221A60002318461037BD4680BD24
:1019900080B483B000AF78607B681B681B6C18460E
:1019A0000C37BD465DF8047B7047000080B5B6B0CB
:1019B00000AF78603960002387F8D7300023FB60E0
:1019C0007B6893F85030012B01D102239FE37B68A1
:1019D000012283F850207B681B681846FFF73EFD04
:1019E0000346002B40F084837B6818683B68596885
:1019F0003B681B681A46FFF7F1FB7B681B681846BB
:101A0000FFF72CFDC7F8D0007B681B681846FFF76E
:101A10004CFDC7F8CC00D7F8D030002B40F0A681A1
:101A2000D7F8CC30002B40F0A1817B6818683B6868
:101A300019683B689B681A46FFF7FCFB3B685A69CC
:101A40007B681B68DB68DB0803F003035B0002FABA
:101A500003F3C7F8C8303B681B69042B0AD07B68C6
:101A600018683B6819693B681A68D7F8C830FFF7EF
:101A70004DFB7BE17B681B6800211846FFF76AFB82
:101A80000346C3F31203002B0AD17B681B680021B5
:101A90001846FFF75FFB03469B0E03F01F021EE094
:101AA0007B681B6800211846FFF754FB0346C7F804
:101AB000BC30D7F8BC3093FAA3F3C7F8C030D7F8DE
:101AC000C030C7F8B830D7F8B830002B01D1202388
:101AD00004E0D7F8B830B3FA83F3DBB21A463B68B8
:101AE0001B68C3F31203002B05D13B681B689B0ED8
:101AF00003F01F0318E03B681B68C7F8B030D7F845
:101B0000B03093FAA3F3C7F8AC30D7F8AC30C7F8CD
:101B1000B430D7F8B430002B01D1202304E0D7F83B
:101B2000B430B3FA83F3DBB29A4206D17B681B6808
:101B3000002200211846FFF723FB7B681B68012168
:101B40001846FFF707FB0346C3F31203002B0AD125
:101B50007B681B6801211846FFF7FCFA03469B0EC1
:101B600003F01F021EE07B681B6801211846FFF787
:101B7000F1FA0346C7F8A430D7F8A43093FAA3F3D8
:101B8000C7F8A030D7F8A030C7F8A830D7F8A830E9
:101B9000002B01D1202304E0D7F8A830B3FA83F357
:101BA000DBB21A463B681B68C3F31203002B05D156
:101BB0003B681B689B0E03F01F0318E03B681B6823
:101BC000C7F89830D7F8983093FAA3F3C7F8943051
:101BD000D7F89430C7F89C30D7F89C30002B01D14F
:101BE000202304E0D7F89C30B3FA83F3DBB29A42A7
:101BF00006D17B681B68002201211846FFF7C0FA56
:101C00007B681B6802211846FFF7A4FA0346C3F35A
:101C10001203002B0AD17B681B6802211846FFF7CC
:101C200099FA03469B0E03F01F021EE07B681B68B7
:101C300002211846FFF78EFA0346C7F88C30D7F812
:101C40008C3093FAA3F3C7F88830D7F88830C7F8F8
:101C50009030D7F89030002B01D1202304E0D7F842
:101C60009030B3FA83F3DBB21A463B681B68C3F3C8
:101C70001203002B05D13B681B689B0E03F01F036A
:101C800016E03B681B68C7F88030D7F8803093FABD
:101C9000A3F3FB67FB6FC7F88430D7F88430002BC1
:101CA00001D1202304E0D7F88430B3FA83F3DBB208
:101CB0009A4206D17B681B68002202211846FFF772
:101CC0005FFA7B681B6803211846FFF743FA034657
:101CD000C3F31203002B0AD17B681B68032118464B
:101CE000FFF738FA03469B0E03F01F0217E07B68EC
:101CF0001B6803211846FFF72DFA03467B677B6FAD
:101D000093FAA3F33B673B6FBB67BB6F002B01D11B
:101D1000202303E0BB6FB3FA83F3DBB21A463B68C0
:101D20001B68C3F31203002B05D13B681B689B0E95
:101D300003F01F0311E03B681B68BB66BB6E93FAA0
:101D4000A3F37B667B6EFB66FB6E002B01D1202329
:101D500003E0FB6EB3FA83F3DBB29A4206D17B68F1
:101D60001B68002203211846FFF70AFA7B681B68EC
:101D70001846FFF725FB0346002B40F0C2817B6825
:101D800018683B6819683B68DB681A46FFF77EFAFB
:101D90003B68DB688E4A934240F030817B6818686C
:101DA0003B681B68C3F31203002B0BD13B681B6815
:101DB0009B0E013303F01F03092B94BF0123002363
:101DC000DBB219E03B681B68FB65FB6D93FAA3F37C
:101DD000BB65BB6D3B663B6E002B01D1202303E04E
:101DE0003B6EB3FA83F3DBB2013303F01F03092B1D
:101DF00094BF01230023DBB2002B79D03B681B6822
:101E0000C3F31203002B07D13B681B689B0E013301
:101E10009B0603F0F84215E03B681B683B653B6D91
:101E200093FAA3F3FB64FB6C7B657B6D002B01D104
:101E3000202303E07B6DB3FA83F3DBB201339B060F
:101E400003F0F8423B681B68C3F31203002B09D16F
:101E50003B681B689B0E013303F01F03012101FA4D
:101E600003F317E03B681B687B647B6C93FAA3F376
:101E70003B643B6CBB64BB6C002B01D1202303E0B3
:101E8000BB6CB3FA83F3DBB2013303F01F03012110
:101E900001FA03F342EA03013B681B68C3F3120330
:101EA000002B0AD13B681B689B0E013303F01F0215
:101EB00013465B0013441B0518E03B681B68BB63BB
:101EC000BB6B93FAA3F37B637B6BFB63FB6B002B16
:101ED00001D1202303E0FB6BB3FA83F3DBB20133C0
:101EE00003F01F0213465B0013441B050B4380E005
:101EF0003B681B68C3F31203002B07D13B681B68C8
:101F00009B0E01339B0603F0F84215E03B681B680B
:101F1000FB62FB6A93FAA3F3BB62BB6A3B633B6B56
:101F2000002B01D1202303E03B6BB3FA83F3DBB238
:101F300001339B0603F0F8423B681B68C3F31203AE
:101F4000002B09D13B681B689B0E013303F01F0374
:101F5000012101FA03F317E03B681B683B623B6A0F
:101F600093FAA3F3FB61FB697B627B6A002B01D1CF
:101F7000202303E07B6AB3FA83F3DBB2013303F07F
:101F80001F03012101FA03F342EA03013B681B68C6
:101F9000C3F31203002B0DD13B681B689B0E01336A
:101FA00003F01F0213465B0013441E3B1B0543F066
:101FB00000731DE03B681B687B617B6993FAA3F3A8
:101FC0003B613B69BB61BB69002B03D1202305E06A
:101FD00000007F40BB69B3FA83F3DBB2013303F047
:101FE0001F0213465B0013441E3B1B0543F00073A6
:101FF0000B433A6892681946FFF71CF93B681A6868
:10200000454B1340002B7CD04448FFF771F8C7F8CC
:10201000C4004348FFF7D4F90346002B5ED13B6868
:102020001B68404A934227D1D7F8C43003F4000319
:10203000002B21D17B681B68394A934261D1D7F8C4
:10204000C43043F4000319463448FFF73EF8364BDA
:102050001B689B09354AA2FB03239B095A1C1346A4
:102060005B0013449B00FB6002E0FB68013BFB60EC
:10207000FB68002BF9D144E03B681B682C4A934273
:1020800013D1D7F8C43003F08073002B0DD17B68D7
:102090001B68234A934234D1D7F8C43043F080738D
:1020A00019461E48FFF711F82BE03B681B68214AD0
:1020B000934226D1D7F8C43003F48003002B20D1FB
:1020C0007B681B68164A93421BD1D7F8C43043F48F
:1020D000800319461148FEF7F8FF12E07B685B6D3C
:1020E00043F020027B685A65012387F8D73008E067
:1020F0007B685B6D43F020027B685A65012387F89B
:10210000D7307B68002283F8502097F8D7301846E4
:10211000D837BD4680BD00BF0000088000030450D2
:1021200000000450000052C708000020632D3E0547
:10213000000084CB0100008080B588B000AF7860DB
:1021400039600023FB613B68BB617B681B681846F4
:10215000FFF784F938617B681B681846FFF7A5F91B
:10216000F8603B69002B03D1FB68002B00F09880DE
:102170007B681B68DB6803F00073002B2AD07B6848
:102180005B7E012B26D17B681B7E012B22D1012394
:10219000BB6114E0FB69454A93420DD97B685B6DD6
:1021A00043F010027B685A657B689B6D43F0010227
:1021B0007B689A65012374E0FB690133FB617B68EE
:1021C0001B681B6803F04003402BE3D17B681B684E
:1021D00040221A60BB69022B14D07B681B6818462A
:1021E000FFF73CF90346002B0CD07B681B681846B0
:1021F000FFF7F9F80346002B04D17B681B681846EB
:10220000FFF718F9BB69012B14D07B681B681846CF
:10221000FFF74BF90346002B0CD07B681B68184670
:10222000FFF7E1F80346002B04D17B681B681846D2
:10223000FFF727F9BB69022B05D0BB69032B05D13A
:102240000C237B6105E008237B6102E004237B61B2
:1022500000BFFEF7EFFEB8601BE0FEF7EBFE0246A4
:10226000BB68D31A052B14D97B681B689A687B69F5
:102270001340002B0DD07B685B6D43F010027B6830
:102280005A657B689B6D43F001027B689A65012368
:1022900007E07B681B689A687B691340002BDCD1E0
:1022A000002318462037BD4680BD00BFFFFF3FA377
:1022B00080B584B000AF78600023BB607B681B688A
:1022C0001846FFF77DF80346002B5ED17B681B683C
:1022D0009A68304B1340002B0DD07B685B6D43F048
:1022E00010027B685A657B689B6D43F001027B6836
:1022F0009A6501234AE07B681B681846FFF738F8A7
:102300002548FEF7F5FE034603F40003002B0FD02B
:10231000224B1B689B09224AA2FB03239B09013322
:10232000BB6002E0BB68013BBB60BB68002BF9D11E
:10233000FEF780FEF86021E07B681B681846FFF717
:102340003FF80346002B04D17B681B681846FFF753
:102350000FF8FEF76FFE0246FB68D31A022B0DD969
:102360007B685B6D43F010027B685A657B689B6DF0
:1023700043F001027B689A65012307E07B681B68D4
:102380001B6803F00103012BD6D100231846103738
:10239000BD4680BD3F0000800003045008000020BF
:1023A000632D3E0580B584B000AF78607B681B6804
:1023B0001846FFF718F8F8607B681B681846FEF7A8
:1023C000FFFF0346002B47D0FB68002B44D17B68FE
:1023D0001B689B6803F00D03012B0CD17B681B6805
:1023E0001846FEF7D9FF7B681B6803221A60FEF7C8
:1023F00021FEB86029E07B685B6D43F010027B68CA
:102400005A657B689B6D43F001027B689A650123E6
:1024100023E0FEF70FFE0246BB68D31A022B14D945
:102420007B681B689B6803F00103002B0DD07B6861
:102430005B6D43F010027B685A657B689B6D43F0CF
:1024400001027B689A65012307E07B681B689B6833
:1024500003F00103002BDCD1002318461037BD46E2
:1024600080BD000080B485B000AF78607B6803F069
:102470000703FB600C4BDB68BB60BA684FF6FF03D9
:102480001340BB60FB681A02BB68134343F0BF6391
:1024900043F40033BB60044ABB68D36000BF143709
:1024A000BD465DF8047B704700ED00E080B400AFEE
:1024B000044BDB681B0A03F007031846BD465DF8B2
:1024C000047B704700ED00E080B483B000AF0346AA
:1024D000FB7197F90730002B0BDBFB7903F01F0230
:1024E000074997F907305B09012000FA02F241F829
:1024F000232000BF0C37BD465DF8047B704700BF4A
:1025000000E100E080B483B000AF03463960FB71A6
:1025100097F90730002B0ADB3B68DAB20C4997F9D0
:1025200007301201D2B20B4483F800230AE03B6863
:10253000DAB20849FB7903F00F03043B1201D2B26F
:102540000B441A7600BF0C37BD465DF8047B70471C
:1025500000E100E000ED00E080B489B000AFF86079
:10256000B9607A60FB6803F00703FB61FB69C3F1A4
:102570000703042B28BF0423BB61FB690433062B2C
:1025800002D9FB69033B00E000237B614FF0FF327F
:10259000BB6902FA03F3DA43BB681A407B699A40CD
:1025A0004FF0FF317B6901FA03F3D9437B680B409D
:1025B000134318462437BD465DF8047B704700007E
:1025C00080B582B000AF78607B68013BB3F1807F5B
:1025D00001D301230FE00A4A7B68013B53600F21BE
:1025E0004FF0FF30FFF78EFF054B00229A60044B3F
:1025F00007221A60002318460837BD4680BD00BF79
:1026000010E000E080B582B000AF78607868FFF736
:1026100029FF00BF0837BD4680BD80B586B000AF3A
:102620000346B9607A60FB73FFF740FF78617A6810
:10263000B9687869FFF790FF024697F90F301146A5
:102640001846FFF75FFF00BF1837BD4680BD80B555
:1026500082B000AF0346FB7197F907301846FFF7C9
:1026600033FF00BF0837BD4680BD80B582B000AFE4
:1026700078607868FFF7A4FF034618460837BD4620
:1026800080BD000080B586B000AFF860B960C7E9D2
:1026900000231C4B1B78012B01D102232DE0194B89
:1026A00001221A70174B00225A604FF47A7000F022
:1026B00069F80346FB75FB7D002B1AD1FB68012BE3
:1026C00005D1D7E90023B86800F0CAF804E03B68F8
:1026D0001946B8680EF0DCF84FF47A7000F052F842
:1026E0000346FB75084B5A69FB68DB4306491340F8
:1026F0004B61044B00221A70FB7D18461837BD460B
:1027000080BD00BFBC0200200040005880B483B0F0
:1027100000AF0023FB710B4B5B69002B0BDA094BFD
:10272000094A9A60074B094A9A60064B5B69002B7D
:1027300001DA0123FB71FB7918460C37BD465DF8C1
:10274000047B70470040005823016745AB89EFCDFB
:1027500080B483B000AF0023FB71094B5B69084A6A
:1027600043F000435361064B5B69002B01DB0123FF
:10277000FB71FB7918460C37BD465DF8047B70474A
:102780000040005880B584B000AF7860FEF752FC7E
:10279000B86009E0FEF74EFC0246BB68D31A7A68BF
:1027A0009A4201D8032353E02B4B1B6903F4803377
:1027B000B3F5803FEED0284B1B69FB60FB6803F04C
:1027C0000103002B02D0244B01221A61FB6803F4A1
:1027D0000043002B07D0204B4FF400421A61FB68E6
:1027E00023F40043FB60FA684CF2FA331340FB60B9
:1027F000FB68B3F1804F07D3174B9A69FB6803F06E
:102800004043154913438B61FB6823F04043002B81
:1028100004D0114AFB6823F040431361FB68002B8E
:102820000ED00E4AFB685360012311E0FEF702FC54
:102830000246BB68D31A7A689A4201D8032307E09C
:10284000054B1B6903F48023B3F5802FEED00023E2
:1028500018461037BD4680BD00400058BC0200201D
:1028600080B485B000AFF860C7E900230E4B5B6908
:102870000D4A43F001035361FB683A681A60BFF3E5
:102880006F8F00BFD7E900014FF000024FF0000347
:102890000A000023F968043113460B6000BF1437A7
:1028A000BD465DF8047B70470040005880B584B099
:1028B00000AF78603960244B1B78012B01D10223D3
:1028C0003DE0214B01221A701F4B00225A604FF449
:1028D0007A70FFF757FF0346FB73FB7B002B2AD16F
:1028E0007B681B68022B24D13B684FF0FF321A60D3
:1028F0007B685B68BB6012E0B86800F027F84FF4B3
:102900007A70FFF73FFF0346FB73FB7B002B03D07E
:102910003B68BA681A600AE0BB680133BB607B6839
:102920005A687B689B681344BA689A42E4D300F003
:102930006FF800F025F8044B00221A70FB7B184654
:102940001037BD4680BD00BFBC02002080B483B0FC
:1029500000AF7860094B5B6923F4FF627B68DB00A2
:102960001343064A43F4803343F00203536100BF2C
:102970000C37BD465DF8047B704700BF004000582F
:1029800080B400AF214B1B6803F40073B3F5007FE4
:1029900017D11E4B1B681D4A23F4007313601B4B99
:1029A0001B681A4A43F400631360184B1B68174AEC
:1029B00023F400631360154B1B68144A43F400733F
:1029C0001360124B1B6803F48063B3F5806F17D15B
:1029D0000E4B1B680D4A23F4806313600B4B1B687E
:1029E0000A4A43F480531360084B1B68074A23F4D8
:1029F00080531360054B1B68044A43F480631360E3
:102A000000BFBD465DF8047B704700BF0040005822
:102A100080B400AF064B5B69054A23F4FF6323F0E3
:102A20000203536100BFBD465DF8047B704700BFE1
:102A30000040005880B487B000AF78603960002350
:102A40007B614CE13B681A6801217B6901FA03F361
:102A50001340FB60FB68002B00F03E813B685B6825
:102A600003F00303012B05D03B685B6803F003030D
:102A7000022B30D17B689B683B617B695B00032242
:102A800002FA03F3DB433A6913403B613B68DA68BF
:102A90007B695B0002FA03F33A6913433B617B688D
:102AA0003A699A607B685B683B6101227B6902FA44
:102AB00003F3DB433A6913403B613B685B681B09E6
:102AC00003F001027B6902FA03F33A6913433B61A5
:102AD0007B683A695A603B685B6803F00303032B29
:102AE00017D07B68DB683B617B695B00032202FADD
:102AF00003F3DB433A6913403B613B689A687B69A7
:102B00005B0002FA03F33A6913433B617B683A695D
:102B1000DA603B685B6803F00303022B23D17B6917
:102B2000DA087B68083253F822303B617B6903F096
:102B300007039B000F2202FA03F3DB433A691340B9
:102B40003B613B681A697B6903F007039B0002FA4B
:102B500003F33A6913433B617B69DA087B68083207
:102B6000396943F822107B681B683B617B695B0015
:102B7000032202FA03F3DB433A6913403B613B68EB
:102B80005B6803F003027B695B0002FA03F33A69B6
:102B900013433B617B683A691A603B685B6803F4E6
:102BA0004033002B00F09880544A7B699B08023325
:102BB00052F823303B617B6903F003039B000F2233
:102BC00002FA03F3DB433A6913403B617B68B3F1DC
:102BD000904F19D07B684A4A934213D07B68494A88
:102BE00093420DD07B68484A934207D07B68474A9E
:102BF000934201D1042308E0072306E0032304E005
:102C0000022302E0012300E000237A6902F00302BC
:102C1000920093403A6913433B6138497B699B08B2
:102C200002333A6941F82320394B1B683B61FB684A
:102C3000DB433A6913403B613B685B6803F48013F4
:102C4000002B03D03A69FB6813433B61304A3B6970
:102C500013602F4B5B683B61FB68DB433A691340B1
:102C60003B613B685B6803F40013002B03D03A69B7
:102C7000FB6813433B61264A3B695360244BD3F8FE
:102C800080303B61FB68DB433A6913403B613B6842
:102C90005B6803F48033002B03D03A69FB6813436D
:102CA0003B611B4A3B69C2F88030194BD3F8843032
:102CB0003B61FB68DB433A6913403B613B685B68FF
:102CC00003F40033002B03D03A69FB6813433B61E4
:102CD0000F4A3B69C2F884307B6901337B613B68F2
:102CE0001A687B6922FA03F3002B7FF4ABAE00BFB6
:102CF00000BF1C37BD465DF8047B704700000140F3
:102D00000004004800080048000C0048001000487B
:102D10000008005880B485B000AF78600B467B8017
:102D20007B681A697B881340002B02D00123FB7358
:102D300001E00023FB73FB7B18461437BD465DF8AA
:102D4000047B704780B483B000AF78600B467B8013
:102D500013467B707B78002B03D07A887B689A615E
:102D600002E07A887B689A6200BF0C37BD465DF846
:102D7000047B704780B582B000AF0346FB80084BF0
:102D8000DA68FB881340002B06D0054AFB88D36025
:102D9000FB881846FDF7C4FC00BF0837BD4680BD60
:102DA0000008005880B483B000AF78604FF0B043A3
:102DB0009A6B4FF0B0417B6813438B6300BF0C37B5
:102DC000BD465DF8047B704780B483B000AF786087
:102DD0004FF0B043DA6B4FF0B0417B681343CB63E5
:102DE00000BF0C37BD465DF8047B704780B483B0EC
:102DF00000AF78604FF0B0439A6B7B68DB434FF0D5
:102E0000B04113408B6300BF0C37BD465DF8047BB7
:102E1000704780B483B000AF78604FF0B043DA6B96
:102E20007B68DB434FF0B0411340CB6300BF0C37EE
:102E3000BD465DF8047B704780B584B000AF786014
:102E40007B68002B01D101238FE07B685B68012B3D
:102E50007B6893F83630DBB2002B06D17B6800220A
:102E600083F835207868FDF701FE7B68022283F83D
:102E700036207B681B68DB68FB607B685B68012B26
:102E800004D07B689B6AB3F5000F03D1FB6823F085
:102E90001E03FB607B685B694FF6FF72934205D0AF
:102EA000FB6823F4604323F0C003FB60FA68314BF6
:102EB0001340FB607B685A687B689B681A437B6899
:102EC0001B6A1A437B685B6A1A437B689B6A1343DD
:102ED000FA681343FB607B685B68002B07D17B6853
:102EE000DA697B681B691343FA681343FB607B68EC
:102EF0005B68012B04D07B689B6AB3F5000F07D198
:102F00007B68DA687B681B691343FA681343FB60CC
:102F10007B685B694FF6FF7293420AD07B685A69FF
:102F20007B689B691A437B68DB691343FA68134328
:102F3000FB607B681B68FA68DA607B681B680E4A76
:102F4000934208D17B68D96A7B681A6B7B681B68DF
:102F50000A431A6204E07B681B687A68D26A1A62C4
:102F60007B68012283F83620002318461037BD46BF
:102F700080BD00BFFEF119FF007C004080B584B029
:102F800000AFF860B9607A60FB68022283F83620EF
:102F9000FB681B68DA68FB681B6822F48012DA6041
:102FA000FB681B681A69FB681B6842F001021A6122
:102FB000FB681B6810225A60FB681B68BA689A613C
:102FC0001021F86800F052F80346032B01D10323C7
:102FD0001DE0FB681B6808225A60FB681B687A6862
:102FE0005A610821F86800F041F80346032B01D12B
:102FF00003230CE0FB681B681A69FB681B6842F03E
:1030000004021A61FB68012283F836200023184667
:103010001037BD4680BD80B582B000AF78607B6858
:10302000022283F83620786800F050F8786800F0C3
:103030000EF80346032B01D1032304E07B68012231
:1030400083F83620002318460837BD4680BD80B47B
:1030500083B000AF78607B6893F83630DBB21846F7
:103060000C37BD465DF8047B7047000080B485B026
:1030700000AF786039600023FB73124B1B68124A63
:10308000A2FB03239B0B4FF47A7202FB03F3BB609A
:10309000BB68013BBB60BB68002B01D10323FB7302
:1030A0007B681B681A683B6813403A689A4202D0F2
:1030B000BB68002BECD1FB7B18461437BD465DF88E
:1030C000047B7047080000205917B7D180B58CB039
:1030D00000AF7860EFF310833B613B69FB62012333
:1030E0007B617B6983F3108800BF7B681B689B68EA
:1030F000BB627B681B68DB687B627B681B685B6903
:103100003B627B681B689B69FB617B681B681B6A71
:10311000BB617B681B683B4A934203D03A4A9342A7
:1031200009D00FE04FF00040FFF73CFE4FF00040A9
:10313000FFF75CFE06E02020FFF746FE2020FFF7A9
:1031400068FE00BF3B6A002B02D1FB69002B3BD01D
:103150003B6A002B1AD07B681B681A697B681B6866
:1031600042F001021A617B681B683A6A5A610821C1
:103170007868FFF77BFF0346032B03D17B680322AC
:1031800083F836207B681B6808225A60FB69002B95
:103190001AD07B681B681A697B681B6842F00102C1
:1031A0001A617B681B68FA699A6110217868FFF7D9
:1031B0005DFF0346032B03D17B68032283F836208F
:1031C0007B681B6810225A607B681B681A697B68E1
:1031D0001B6822F001021A617B681B68BA6A9A6058
:1031E0007B681B687A6ADA607B681B68BA691A6256
:1031F000FB6AFB60FB6883F3108800BF00BF3037B9
:10320000BD4680BD007C00400094004080B584B085
:1032100000AF78607B68002B01D10123C0E07B68A0
:1032200093F89132DBB2002B06D17B68002283F841
:10323000902278680CF020FB7B68032283F89122AF
:103240007B681B68184603F097FB0023FB733EE086
:10325000FA7B796813469B001344DB000B4411335F
:1032600001221A70FA7B796813469B001344DB0035
:103270000B441033FA7B1A70FA7B796813469B0073
:103280001344DB000B44133300221A70FA7B796875
:1032900013469B001344DB000B44203300221A60CA
:1032A000FA7B796813469B001344DB000B442433FC
:1032B00000221A60FB7B79685A1C13469B0013445A
:1032C000DB000B4400221A60FB7B0133FB737B683D
:1032D0001B79FA7B9A42BBD30023FB7344E0FA7B51
:1032E000796813469B001344DB000B4403F251132F
:1032F00000221A70FA7B796813469B001344DB00A6
:103300000B4403F5A873FA7B1A70FA7B79681346AD
:103310009B001344DB000B4403F2531300221A708A
:10332000FA7B796813469B001344DB000B4403F5DA
:10333000B07300221A60FA7B796813469B0013442D
:10334000DB000B4403F5B27300221A60FA7B796844
:1033500013469B001344DB000B4403F5B4730022B7
:103360001A60FB7B0133FB737B681B79FA7B9A4203
:10337000B5D37B6818687B68043393E8060003F0D4
:1033800016FB7B6800221A737B68012283F8912266
:103390007B689B7A012B02D1786801F05DFC0023E9
:1033A00018461037BD4680BD80B582B000AF78604A
:1033B0007B6893F89032012B01D1022312E07B68E5
:1033C000012283F890227B681B68184603F0BDFA3F
:1033D0007B681B68184605F0B1F87B68002283F80B
:1033E0009022002318460837BD4680BD80B582B0C4
:1033F00000AF78607B6893F89032012B01D10223F3
:1034000012E07B68012283F890227B681B681846D3
:1034100003F0B2FA7B681B68184605F0A6F87B68D3
:10342000002283F89022002318460837BD4680BD4D
:1034300080B584B000AF78607B681B68184605F0E3
:10344000A9F8F860FB6803F40043002B03D0786808
:1034500000F033FB10E1FB6803F48063002B13D012
:103460007B681B68B3F844309AB27B681B6822F40F
:10347000806292B2A3F8442078680CF0A2FA00218E
:10348000786800F0FCF8F7E0FB6803F48043002B59
:103490000CD07B681B68B3F844309AB27B681B6819
:1034A00022F4804292B2A3F84420E5E0FB6803F4E2
:1034B0000053002B0CD07B681B68B3F844309AB2E1
:1034C0007B681B6822F4005292B2A3F84420D3E038
:1034D000FB6803F48053002B34D07B681B68B3F87F
:1034E00040309AB27B681B6822F0040292B2A3F8C3
:1034F00040207B681B68B3F840309AB27B681B6839
:1035000022F0080292B2A3F840207B6893F8C832F8
:10351000012B07D17B68002283F8C822002178683C
:103520000CF074FC78680CF085FA7B681B68B3F8C3
:1035300044309AB27B681B6822F4805292B2A3F89E
:10354000442099E0FB6803F40063002B27D07B68DC
:103550001B68B3F840309AB27B681B6842F00802DF
:1035600092B2A3F840207B681B68B3F844309AB24B
:103570007B681B6822F4006292B2A3F844207B6847
:103580001B68B3F840309AB27B681B6842F00402B3
:1035900092B2A3F8402078680CF032FA6CE0FB6835
:1035A00003F08003002B40D07B681B68B3F84430E5
:1035B0009AB27B681B6822F0800292B2A3F8442082
:1035C0007B6893F8C832002B2BD17B681B68B3F85B
:1035D00040309AB27B681B6842F0040292B2A3F8B2
:1035E00040207B681B68B3F840309AB27B681B6848
:1035F00042F0080292B2A3F840207B68012283F8CF
:10360000C8227B681B68B3F854309BB29B0803F058
:103610003C027B68C3F8CC22012178680CF0F6FBF1
:103620002AE078680CF0ECF926E0FB6803F40073FC
:10363000002B0FD07B681B68B3F844309AB27B68CC
:103640001B6822F4007292B2A3F8442078680CF050
:10365000AAF911E0FB6803F48073002B0CD07B689F
:103660001B68B3F844309AB27B681B6822F48072FE
:1036700092B2A3F8442000BF1037BD4680BD80B58C
:1036800082B000AF78600B46FB707B6893F8903295
:10369000012B01D1022312E07B68012283F89022E2
:1036A0007B68FA781A737B681B68FA7811461846AB
:1036B00004F030FF7B68002283F890220023184634
:1036C0000837BD4680BD80B584B000AF786008463D
:1036D00011461A460346FB700B463B801346BB70EF
:1036E0000023FB7297F90330002B0EDAFB7803F00E
:1036F000070213469B001344DB0010337A6813441F
:10370000FB60FB6801225A700EE0FB7803F00702B1
:1037100013469B001344DB0003F5A8737A68134437
:10372000FB60FB6800225A70FB7803F00703DAB2F3
:10373000FB681A703B88C3F30A02FB681A61FB68D6
:10374000BA78DA70BB78022B02D1FB6800221A71BA
:103750007B6893F89032012B01D102230EE07B6845
:10376000012283F890227B681B68F968184603F0F1
:1037700053F97B68002283F89022FB7A18461037B1
:10378000BD4680BD80B584B000AF78600B46FB704D
:1037900097F90330002B0EDAFB7803F0070213468B
:1037A0009B001344DB0010337A681344FB60FB6812
:1037B00001225A700EE0FB7803F0070213469B00CB
:1037C0001344DB0003F5A8737A681344FB60FB68BD
:1037D00000225A70FB7803F00703DAB2FB681A7014
:1037E0007B6893F89032012B01D102230EE07B68B5
:1037F000012283F890227B681B68F968184603F061
:10380000F3FD7B68002283F89022002318461037CE
:10381000BD4680BD80B586B000AFF8607A603B6081
:103820000B46FB72FB7A03F0070213469B0013441E
:10383000DB0003F5A873FA6813447B617B697A683F
:103840005A617B693A689A617B690022DA617B6917
:1038500000225A70FB7A03F00703DAB27B691A7010
:10386000FB681B687969184603F0ABFF0023184614
:103870001837BD4680BD80B483B000AF78600B467A
:10388000FB70FB7803F00702796813469B00134432
:10389000DB000B4403F5B6731B6818460C37BD46B6
:1038A0005DF8047B704780B586B000AFF8607A6041
:1038B0003B600B46FB72FB7A03F0070213469B004A
:1038C0001344DB001033FA6813447B617B697A6828
:1038D0005A617B693A689A617B69012283F82420E6
:1038E0007B693A681A627B690022DA617B6901228E
:1038F0005A70FB7A03F00703DAB27B691A70FB682F
:103900001B687969184603F05CFF002318461837D6
:10391000BD4680BD80B584B000AF78600B46FB70BB
:10392000FB7803F007037A681279934201D90123E7
:103930003EE097F90330002B0EDAFB7803F0070224
:1039400013469B001344DB0010337A681344FB607A
:10395000FB6801225A700CE0FA7813469B0013446E
:10396000DB0003F5A8737A681344FB60FB68002250
:103970005A70FB6801229A70FB7803F00703DAB2F1
:10398000FB681A707B6893F89032012B01D10223F7
:103990000EE07B68012283F890227B681B68F9683F
:1039A000184604F0BDFC7B68002283F890220023B7
:1039B00018461037BD4680BD80B584B000AF786032
:1039C0000B46FB70FB7803F00F037A681279934281
:1039D00001D9012340E097F90330002B0EDAFB7880
:1039E00003F0070213469B001344DB0010337A6890
:1039F0001344FB60FB6801225A700EE0FB7803F071
:103A0000070213469B001344DB0003F5A8737A6892
:103A10001344FB60FB6800225A70FB6800229A7016
:103A2000FB7803F00703DAB2FB681A707B6893F83F
:103A30009032012B01D102230EE07B68012283F832
:103A400090227B681B68F968184604F0BAFC7B6812
:103A5000002283F89022002318461037BD4680BD0F
:103A600080B582B000AF78600B46FB707B6893F83E
:103A70009032012B01D102231BE07B68012283F8E5
:103A8000902297F90330002B09DA7B681A68FB78DB
:103A900003F007031946104602F0A7FF04E07B6815
:103AA0001B68184602F0ADFF7B68002283F8902265
:103AB000002318460837BD4680BD80B592B000AFE0
:103AC000786033E37B681B68B3F844307B877B8F77
:103AD000DBB203F00F0387F8393097F83930002B49
:103AE00040F008817B8F03F01003002B4CD17B68E2
:103AF0001B681B889BB223F4E14323F070033B81D6
:103B00007B681A683B896FEA43436FEA53439BB271
:103B100013807B6810333B647B681B68B3F85030BC
:103B20009BB21A463B6C1B78DB0013447A68126820
:103B3000134403F202431B88C3F309023B6CDA61AE
:103B40003B6C5A693B6CDB691A443B6C5A6100213F
:103B500078680BF00EFF7B681B7BDBB2002B00F05C
:103B6000E5823B6C9B69002B40F0E0827B681B7B0D
:103B7000DBB263F07F03DAB27B681B68A3F84C20EA
:103B80007B6800221A73D1E27B6803F5A8733B645B
:103B90007B681B681B88FB86FB8E03F40063002B8D
:103BA00032D07B681B68B3F850309BB21A463B6C2E
:103BB0001B78DB0013447A681268134403F206434F
:103BC0001B88C3F309023B6CDA617B6818687B6869
:103BD00003F526713B6CDA883B6CDB699BB204F021
:103BE0002CFD7B681B681B889AB240F68F731340CC
:103BF0007B817B681B687A8942F0800292B21A80CE
:103C000078680BF089FE91E2B7F93630002B80F22C
:103C10008D827B681B681B889AB240F68F731340B5
:103C2000FB817B681B68FA8942F0800292B21A809D
:103C30007B681B68B3F850309BB21A463B6C1B780C
:103C4000DB0013447A681268134403F206431B88AE
:103C5000C3F309023B6CDA613B6CDB69002B19D0C2
:103C60003B6C5B69002B15D07B6818683B6C59690D
:103C70003B6CDA883B6CDB699BB204F0DEFC3B6C8E
:103C80005A693B6CDB691A443B6C5A6100217868C5
:103C90000BF054FE7B681B681B88FB86FB8E03F4CD
:103CA0000063002B40F04282FB8E03F44053B3F5D7
:103CB000405F00F03B827B681B681B889BB223F44B
:103CC000804323F07003BB81BB8983F48053BB81A5
:103CD000BB8983F40053BB817B681A68BB8943F0BE
:103CE0007F4343F47F0343F4004343F080039BB2DC
:103CF00013801BE27B681B681A4697F839309B00DB
:103D000013441B88FB86B7F93630002B80F2F18014
:103D10007B681B681A4697F839309B0013441B8850
:103D20009AB240F68F731340BB867B681B681A46B5
:103D300097F839309B001344BA8E42F0800292B259
:103D40001A8097F8392013469B001344DB0003F5D3
:103D5000A8737A6813443B643B6C1B7B002B23D114
:103D60007B681B68B3F850309BB21A463B6C1B78DB
:103D7000DB0013447A681268134403F206431B887D
:103D8000C3F30903A7F84630B7F84630002B00F01C
:103D90008B807B6818683B6C59693B6CDA88B7F894
:103DA000463004F04AFC7FE03B6CDB78022B09D103
:103DB000FB8E1A46396C786800F0C6F90346A7F8FE
:103DC000463071E07B681B681A463B6C1B789B0091
:103DD00013441B889BB223F4E04323F07003BB879A
:103DE0007B681B681A463B6C1B789B001A44BB8F90
:103DF00043F07F4343F47F0343F4004343F0C003A5
:103E00009BB213807B681B681A463B6C1B789B0037
:103E100013441B889BB203F48043002B22D07B68A1
:103E20001B68B3F850309BB21A463B6C1B78DB0022
:103E300013447A681268134403F202431B88C3F3E5
:103E40000903A7F84630B7F84630002B2CD07B6822
:103E500018683B6C59693B6C1A89B7F8463004F016
:103E6000ECFB21E07B681B68B3F850309BB21A462C
:103E70003B6C1B78DB0013447A681268134403F22E
:103E800006431B88C3F30903A7F84630B7F846304A
:103E9000002B09D07B6818683B6C59693B6C5A89C8
:103EA000B7F8463004F0C9FB3B6CDA69B7F8463026
:103EB0001A443B6CDA613B6C5A69B7F846301A44D5
:103EC0003B6C5A613B6C9B69002B05D0B7F84620D0
:103ED0003B6C1B699A4206D23B6C1B78194678688A
:103EE0000BF02CFD05E07B681B68396C184603F06D
:103EF00068FCFB8E03F08003002B00F0178197F81D
:103F0000392013469B001344DB0010337A681344B6
:103F10003B647B681B681A4697F839309B00134452
:103F20001B889BB223F4E14323F07003FB877B687B
:103F30001B681A4697F839309B001A44FB8F6FEACA
:103F400043436FEA53439BB213803B6CDB78012BF6
:103F500040F0A1803B6C00229A613B6C1B7B002BE4
:103F600000F09280FB8E03F04003002B46D03B6CA8
:103F70005B78002B26D17B681B687B617B681B68A4
:103F8000B3F850309BB21A467B6913447B613B6C9B
:103F90001B78DA007B69134403F202433B613B69FF
:103FA0001B889BB2C3F309039AB23B691A803B6931
:103FB0001B889BB26FEA43436FEA53439AB23B6953
:103FC0001A8061E03B6C5B78012B5DD17B681B68DC
:103FD000FB617B681B68B3F850309BB21A46FB69E3
:103FE0001344FB613B6C1B78DA00FB69134403F25A
:103FF0000243BB61BB6900221A8045E07B681B68F5
:10400000FB623B6C5B78002B26D17B681B687B6274
:104010007B681B68B3F850309BB21A467B6A134426
:104020007B623B6C1B78DA007B6A134403F2064325
:104030003B623B6A1B889BB2C3F309039AB23B6A9B
:104040001A803B6A1B889BB26FEA43436FEA534373
:104050009AB23B6A1A8017E03B6C5B78012B13D154
:104060007B681B68B3F850309BB21A46FB6A134456
:10407000FB623B6C1B78DA00FB6A134403F20643D5
:10408000BB62BB6A00221A803B6C1B7819467868B9
:104090000BF06FFC4AE0FB8E03F48073002B3FD1E2
:1040A0007B681B68B3F850309BB21A463B6C1B7898
:1040B000DB0013447A681268134403F202431B883E
:1040C000C3F309037B863B6C9A697B8E9A4206D9BF
:1040D0003B6C9A697B8ED21A3B6C9A6102E03B6C16
:1040E00000229A613B6C9B69002B06D13B6C1B78CC
:1040F000194678680BF03DFC18E03B6C5A697B8EE2
:104100001A443B6C5A613B6CDA697B8E1A443B6CF7
:10411000DA617B681B68396C184603F052FB05E0D6
:10412000FB8E1A46396C786800F017F97B681B68BB
:10413000B3F844309BB21BB2002BFFF6C3AC002394
:1041400018464837BD4680BD80B588B000AFF860DE
:10415000B9601346FB80FB8803F48043002B7CD0BE
:10416000FB681B68B3F850309BB21A46BB681B78DB
:10417000DB001344FA681268134403F202431B88FD
:10418000C3F309037B83BB689A697B8B9A4206D38E
:10419000BB689A697B8BD21ABB689A6102E0BB68E4
:1041A00000229A61BB689B69002B23D1FB681B68C6
:1041B0001A46BB681B789B0013441B889BB223F4F0
:1041C000804323F070033B833B8B83F400533B839A
:1041D000FB681B681A46BB681B789B001A443B8B24
:1041E00043F07F4343F47F0343F4004343F08003F1
:1041F0009BB21380FB8803F04003002B1FD0FB68A9
:104200001B681A46BB681B789B0013441B889BB233
:1042100023F4E04323F07003FB82FB681B681A461B
:10422000BB681B789B001A44FB8A43F07F4343F42E
:104230007F0343F4004343F0C0039BB213807B8BA6
:10424000002B00F08580FB681868BB685969BB6863
:104250001A897B8B04F0F1F97AE0FB681B68B3F8EC
:1042600050309BB21A46BB681B78DB001344FA68D7
:104270001268134403F206431B88C3F309037B83CC
:10428000BB689A697B8B9A4206D3BB689A697B8B21
:10429000D21ABB689A6102E0BB6800229A61BB68CF
:1042A0009B69002B23D1FB681B681A46BB681B78EF
:1042B0009B0013441B889BB223F4804323F07003BC
:1042C000FB83FB8B83F40053FB83FB681B681A465C
:1042D000BB681B789B001A44FB8B43F07F4343F47D
:1042E0007F0343F4004343F080039BB21380FB88B9
:1042F00003F04003002B1FD1FB681B681A46BB6804
:104300001B789B0013441B889BB223F4E04323F0EB
:104310007003BB83FB681B681A46BB681B789B0055
:104320001A44BB8B43F07F4343F47F0343F40043C1
:1043300043F0C0039BB213807B8B002B08D0FB683B
:104340001868BB685969BB685A897B8B04F075F99A
:104350007B8B18462037BD4680BD80B5A6B000AF28
:10436000F860B9601346FB80FB8803F04003002B24
:1043700000F0F781FB681B68B3F850309BB21A4617
:10438000BB681B78DB001344FA681268134403F21D
:1043900002431B88C3F30903A7F89630BB689A69E8
:1043A000B7F896309A4207D9BB689A69B7F8963041
:1043B000D21ABB689A6102E0BB6800229A61BB68AE
:1043C0009B69002B40F0E180BB685B78002B26D115
:1043D000FB681B683B63FB681B68B3F850309BB2FB
:1043E0001A463B6B13443B63BB681B78DA003B6B9C
:1043F000134403F20243FB62FB6A1B889BB2C3F3C4
:1044000009039AB2FB6A1A80FB6A1B889BB26FEAA7
:1044100043436FEA53439AB2FB6A1A801AE0BB68BF
:104420005B78012B16D1FB681B68BB63FB681B68BC
:10443000B3F850309BB21A46BB6B1344BB63BB68E6
:104440001B78DA00BB6B134403F202437B637B6B84
:1044500000221A80FB681B68BB62BB685B78002B7C
:1044600026D1FB681B683B62FB681B68B3F85030C1
:104470009BB21A463B6A13443B62BB681B78DA0066
:104480003B6A134403F20643FB61FB691B889BB242
:10449000C3F309039AB2FB691A80FB691B889BB2BC
:1044A0006FEA43436FEA53439AB2FB691A8017E0FD
:1044B000BB685B78012B13D1FB681B68B3F85030E5
:1044C0009BB21A46BB6A1344BB62BB681B78DA0016
:1044D000BB6A134403F206437B627B6A00221A80A4
:1044E000BB68DB78022B23D1FB681B681A46BB68CC
:1044F0001B789B0013441B889BB223F4E04323F0FA
:1045000040037B837B8B83F020037B83FB681B68EA
:104510001A46BB681B789B001A447B8B43F07F4391
:1045200043F47F0343F4004343F080039BB21380C2
:10453000BB681B781946F8680BF01BFAFB8803F47C
:104540008043002B1FD0FB681B681A46BB681B7892
:104550009B0013441B889BB223F4E04323F07003B9
:104560003B83FB681B681A46BB681B789B001A4498
:104570003B8B43F07F4343F47F0343F4404343F0DA
:1045800080039BB2138000231FE3FB8803F4804366
:10459000002B21D0FB681B681A46BB681B789B0068
:1045A00013441B889BB223F4E04323F07003A7F865
:1045B0004E30FB681B681A46BB681B789B001A4488
:1045C000B7F84E3043F07F4343F47F0343F4404356
:1045D00043F080039BB21380BB6893F82430012B17
:1045E00040F0CA82BB685A69B7F896301A44BB6873
:1045F0005A61BB68DA69B7F896301A44BB68DA6169
:10460000BB681A6ABB681B699A4209D3BB681B69FD
:10461000BB65BB681A6ABB6DD21ABB681A6215E02B
:10462000BB681B6A002B07D1B7F89630BB65BB6827
:10463000002283F8242009E0BB68002283F82420AC
:10464000BB681B6ABB65BB6800221A62BB685B78EB
:10465000002B5FD1FB681B683B64FB681B68B3F8E9
:1046600050309BB21A463B6C13443B64BB681B78CA
:10467000DA003B6C134403F20243FB63FB6B1B88C1
:104680009BB2C3F309039AB2FB6B1A80BB6D002B7C
:104690000AD1FB6B1B889BB26FEA43436FEA53431B
:1046A0009AB2FB6B1A8051E0BB6D3E2B16D8BB6DE6
:1046B0005B083B65BB6D03F00103002B02D03B6D33
:1046C00001333B65FB6B1B889AB23B6D9BB29B022F
:1046D0009BB213439AB2FB6B1A8037E0BB6D5B0948
:1046E0003B65BB6D03F01F03002B02D13B6D013B0B
:1046F0003B65FB6B1B889AB23B6D9BB29B029BB2E6
:1047000013439BB26FEA43436FEA53439AB2FB6B86
:104710001A801BE0BB685B78012B17D1FB681B6814
:10472000BB64FB681B68B3F850309BB21A46BB6C85
:104730001344BB64BB681B78DA00BB6C134403F200
:1047400002437B64BB6D9AB27B6C1A80FB6818686D
:10475000BB685969BB681A89BB6D9BB203F02AFF1D
:104760000AE2FB681B68B3F850309BB21A46BB687C
:104770001B78DB001344FA681268134403F2064303
:104780001B88C3F30903A7F89630BB689A69B7F88A
:1047900096309A4207D3BB689A69B7F89630D21A16
:1047A000BB689A6102E0BB6800229A61BB689B69A2
:1047B000002B40F0F680BB685B78002B26D1FB68AD
:1047C0001B687B67FB681B68B3F850309BB21A46C6
:1047D0007B6F13447B67BB681B78DA007B6F1344E5
:1047E00003F202433B673B6F1B889BB2C3F3090391
:1047F0009AB23B6F1A803B6F1B889BB26FEA4343B0
:104800006FEA53439AB23B6F1A801AE0BB685B7839
:10481000012B16D1FB681B68FB67FB681B68B3F8AC
:1048200050309BB21A46FB6F1344FB67BB681B7882
:10483000DA00FB6F134403F20243BB67BB6F002235
:104840001A80FB681B68C7F88430BB685B78002B54
:104850002FD1FB681B68C7F88C30FB681B68B3F866
:1048600050309BB21A46D7F88C301344C7F88C30BE
:10487000BB681B78DA00D7F88C30134403F2064388
:10488000C7F88830D7F888301B889BB2C3F3090378
:104890009AB2D7F888301A80D7F888301B889BB234
:1048A0006FEA43436FEA53439AB2D7F888301A80CD
:1048B0001CE0BB685B78012B18D1FB681B68B3F860
:1048C00050309BB21A46D7F884301344C7F884306E
:1048D000BB681B78DA00D7F88430134403F2064330
:1048E000C7F88030D7F8803000221A80BB68DB78A8
:1048F000022B27D1FB681B681A46BB681B789B00FC
:1049000013441B889BB223F4E04323F04003A7F831
:104910009430B7F8943083F02003A7F89430FB6804
:104920001B681A46BB681B789B001A44B7F8943082
:1049300043F07F4343F47F0343F4004343F0800399
:104940009BB21380BB681B781946F8680BF011F80E
:10495000FB8803F48043002B21D1FB681B681A46B7
:10496000BB681B789B0013441B889BB223F4E04375
:1049700023F07003A7F89230FB681B681A46BB68E7
:104980001B789B001A44B7F8923043F07F4343F4FE
:104990007F0343F4404343F080039BB21380002322
:1049A00013E1FB8803F48043002B21D1FB681B68D3
:1049B0001A46BB681B789B0013441B889BB223F4E8
:1049C000E04323F07003A7F85630FB681B681A46D3
:1049D000BB681B789B001A44B7F8563043F07F43FE
:1049E00043F47F0343F4404343F080039BB21380BE
:1049F000BB6893F82430012B40F0BE80BB685A6935
:104A0000B7F896301A44BB685A61BB68DA69B7F8E0
:104A100096301A44BB68DA61BB681A6ABB681B69C6
:104A20009A4209D3BB681B69BB65BB681A6ABB6D38
:104A3000D21ABB681A6215E0BB681B6A002B07D14B
:104A4000B7F89630BB65BB68002283F8242009E0E4
:104A5000BB681B6ABB65BB6800221A62BB68002288
:104A600083F82420FB681B68FB65BB685B78002B20
:104A70005FD1FB681B68BB66FB681B68B3F85030EE
:104A80009BB21A46BB6E1344BB66BB681B78DA0048
:104A9000BB6E134403F206437B667B6E1B889BB29E
:104AA000C3F309039AB27B6E1A80BB6D002B0AD147
:104AB0007B6E1B889BB26FEA43436FEA53439AB203
:104AC0007B6E1A804EE0BB6D3E2B16D8BB6D5B082B
:104AD0003B66BB6D03F00103002B02D03B6E01333C
:104AE0003B667B6E1B889AB23B6E9BB29B029BB26D
:104AF00013439AB27B6E1A8034E0BB6D5B093B6650
:104B0000BB6D03F01F03002B02D13B6E013B3B66E4
:104B10007B6E1B889AB23B6E9BB29B029BB2134387
:104B20009BB26FEA43436FEA53439AB27B6E1A809B
:104B300018E0BB685B78012B14D1FB681B68B3F8E5
:104B400050309BB21A46FB6D1344FB65BB681B7863
:104B5000DA00FB6D134403F20643FB66BB6D9AB2A9
:104B6000FB6E1A80FB681868BB685969BB685A8974
:104B7000BB6D9BB203F01EFDFB681B681A46BB6849
:104B80001B789B0013441B889BB223F4E04323F063
:104B90004003FB82FB8A83F01003FB82FB8A83F0D5
:104BA0002003FB82FB681B681A46BB681B789B00CE
:104BB0001A44FB8A43F07F4343F47F0343F40043EA
:104BC00043F080039BB21380002318469837BD46FC
:104BD00080BD80B487B000AFF8607B600B467B81FE
:104BE00013463B817B8903F080039BB2002B0BD0E3
:104BF0007B8903F0070213469B001344DB0010334C
:104C0000FA6813447B6109E07A8913469B001344D8
:104C1000DB0003F5A873FA6813447B613B89002B22
:104C200007D17B6900221A737B689AB27B69DA80AC
:104C30000BE07B6901221A737B689AB27B691A8147
:104C40007B681B0C9AB27B695A81002318461C377B
:104C5000BD465DF8047B704780B485B000AF7860D6
:104C60007B681B68FB607B680122C3F8D0227B68ED
:104C7000002283F8C822FB68B3F854309BB243F09B
:104C800001039AB2FB68A3F85420FB68B3F85430D0
:104C90009BB243F002039AB2FB68A3F854200023AE
:104CA00018461437BD465DF8047B704780B400AFEA
:104CB000054B1B68044A43F48073136000BFBD4674
:104CC0005DF8047B704700BF0004005880B483B0D7
:104CD00000AF7860044BDA687B68134018460C37E5
:104CE000BD465DF8047B70470008005880B483B06F
:104CF00000AF7860044BDA6A7B68134018460C37C3
:104D0000BD465DF8047B70470008005880B483B04E
:104D100000AF7860044A7B68D36000BF0C37BD46A3
:104D20005DF8047B704700BF0008005880B483B072
:104D300000AF7860044A7B68D36200BF0C37BD4681
:104D40005DF8047B704700BF0008005880B400AFD6
:104D5000044B1B6803F4C0631846BD465DF8047B32
:104D6000704700BF0004005880B400AF054B5B687B
:104D7000044A43F48063536000BFBD465DF8047B82
:104D8000704700BF0004005880B483B000AF0346F2
:104D9000FB71114B1B6823F007030F4A43F002031A
:104DA00013600E4B1B690D4A43F004031361FB793A
:104DB000012B01D130BF02E040BF20BF20BF074B15
:104DC0001B69064A23F00403136100BF0C37BD467C
:104DD0005DF8047B704700BF0004005800ED00E060
:104DE00080B500AF4FF48030FFF770FF0346002B13
:104DF00005D0FBF79FFD4FF48030FFF787FF4FF0A2
:104E00000040FFF763FF0346002B05D000F011F8C8
:104E10004FF00040FFF77AFF0220FFF767FF0346DD
:104E2000002B04D000F00CF80220FFF77FFF00BF3A
:104E300080BD80B400AF00BFBD465DF8047B704705
:104E400080B400AF00BFBD465DF8047B704780B4FE
:104E500000AF4FF0B0431B6803F48013B3F5801F1D
:104E600001D1012300E000231846BD465DF8047B14
:104E7000704780B400AF4FF0B0431B684FF0B042B2
:104E800043F48033136000BFBD465DF8047B704778
:104E900080B400AF4FF0B0431B684FF0B04223F432
:104EA0008033136000BFBD465DF8047B704780B45B
:104EB00000AF4FF0B0431B6803F40033B3F5003F7D
:104EC00001D1012300E000231846BD465DF8047BB4
:104ED000704780B400AF4FF0B0431B684FF0B04252
:104EE00043F48073136000BFBD465DF8047B7047D8
:104EF00080B400AF4FF0B0431B684FF0B04223F4D2
:104F00008073136000BFBD465DF8047B704780B4BA
:104F100000AF4FF0B0431B6803F48063B3F5806FBC
:104F200001D1012300E000231846BD465DF8047B53
:104F3000704780B483B000AF78604FF0B0435B68D7
:104F400023F0FE427B681B064FF0B04113434B60D9
:104F500000BF0C37BD465DF8047B704780B400AFDE
:104F60004FF0B043D3F898304FF0B04243F0010314
:104F7000C2F8983000BFBD465DF8047B704780B42E
:104F800000AF4FF0B043D3F898304FF0B04223F069
:104F90000103C2F8983000BFBD465DF8047B70473E
:104FA00080B400AF4FF0B043D3F8983003F0020361
:104FB000022B01D1012300E000231846BD465DF815
:104FC000047B704780B400AF4FF0B043D3F890300B
:104FD0004FF0B04243F00103C2F8903000BFBD462D
:104FE0005DF8047B704780B400AF4FF0B043D3F856
:104FF00090304FF0B04223F00103C2F8903000BF70
:10500000BD465DF8047B704780B400AF4FF0B043FD
:10501000D3F890304FF0B04243F00403C2F8903020
:1050200000BFBD465DF8047B704780B400AF4FF011
:10503000B043D3F890304FF0B04223F00403C2F8ED
:10504000903000BFBD465DF8047B704780B400AF70
:105050004FF0B043D3F8903003F00203022B01D19C
:10506000012300E000231846BD465DF8047B70472D
:1050700080B400AF4FF0B043D3F894304FF0B0425B
:1050800043F00103C2F8943000BFBD465DF8047BD5
:10509000704780B400AF4FF0B043D3F894304FF076
:1050A000B04223F00103C2F8943000BFBD465DF862
:1050B000047B704780B400AF4FF0B043D3F8943016
:1050C00003F00203022B01D1012300E00023184664
:1050D000BD465DF8047B704780B400AF4FF0B0432D
:1050E000D3F894304FF0B04243F00403C2F8943048
:1050F00000BFBD465DF8047B704780B400AF4FF041
:10510000B043D3F894304FF0B04223F00403C2F818
:10511000943000BFBD465DF8047B704780B400AF9B
:105120004FF0B043D3F8943003F00803082B01D1BB
:10513000012300E000231846BD465DF8047B70475C
:1051400080B483B000AF78604FF0B043D3F89430B0
:1051500023F470627B681B024FF0B0411343C1F827
:10516000943000BF0C37BD465DF8047B704780B4B7
:1051700000AF4FF0B0431B684FF0B04243F0010363
:10518000136000BFBD465DF8047B704780B400AF7C
:105190004FF0B0431B684FF0B04223F0010313609F
:1051A00000BFBD465DF8047B704780B400AF4FF090
:1051B000B0431B6803F00203022B01D1012300E07E
:1051C00000231846BD465DF8047B704780B483B069
:1051D00000AF78604FF0B0431B6823F0F0024FF04F
:1051E000B0417B6813430B6000BF0C37BD465DF8D0
:1051F000047B704780B483B000AF4FF0B0431B68AE
:1052000003F0F0037B607B68B02B01D9B0237B6097
:105210007B6818460C37BD465DF8047B704780B448
:1052200083B000AF78604FF0B0435B6823F47F42F7
:105230007B681B024FF0B04113434B6000BF0C373B
:10524000BD465DF8047B704780B483B000AF7860E2
:105250004FF0B0439B6823F003024FF0B0417B68EE
:1052600013438B6000BF0C37BD465DF8047B70476D
:1052700080B400AF4FF0B0439B6803F00C031846B6
:10528000BD465DF8047B704780B483B000AF7860A2
:105290004FF0B0439B6823F0F0024FF0B0417B68C1
:1052A00013438B6000BF0C37BD465DF8047B70472D
:1052B00080B483B000AF78604FF0B043D3F80831CA
:1052C00023F0F0024FF0B0417B681343C1F808317E
:1052D00000BF0C37BD465DF8047B704780B483B0D7
:1052E00000AF78604FF0B043D3F8083123F00F02DD
:1052F0007B681B094FF0B0411343C1F8083100BF70
:105300000C37BD465DF8047B704780B483B000AFB6
:1053100078604FF0B0439B6823F4E0624FF0B041F7
:105320007B6813438B6000BF0C37BD465DF8047B80
:10533000704780B483B000AF78604FF0B0439B6893
:1053400023F460524FF0B0417B6813438B6000BF81
:105350000C37BD465DF8047B704780B400AF4FF05A
:10536000B0439B6803F0F0031846BD465DF8047B2C
:10537000704780B400AF4FF0B043D3F808311B0141
:1053800003F0F0031846BD465DF8047B704780B417
:1053900000AF4FF0B0431B684FF0B04243F0807352
:1053A000136000BFBD465DF8047B704780B400AF5A
:1053B0004FF0B0431B684FF0B04223F0807313608E
:1053C00000BFBD465DF8047B704780B400AF4FF06E
:1053D000B0431B6803F00073B3F1007F01D10123D8
:1053E00000E000231846BD465DF8047B704780B49A
:1053F00000AF4FF0B043DB681B0A03F07F03184691
:10540000BD465DF8047B704780B400AF4FF0B043F9
:10541000DB6803F060431846BD465DF8047B7047C7
:1054200080B400AF4FF0B043DB6803F07003184660
:10543000BD465DF8047B704780B400AF4FF0B043C9
:10544000DB6803F003031846BD465DF8047B704734
:1054500080B400AF4FF0B0439B6803F48033B3F5E2
:10546000803F01D1012300E000231846BD465DF8CE
:10547000047B704780B400AF4FF0B043D3F80831DD
:1054800003F40033B3F5003F01D1012300E0002312
:105490001846BD465DF8047B704780B400AF4FF0FE
:1054A000B043D3F8083103F48033B3F5803F01D122
:1054B000012300E000231846BD465DF8047B7047D9
:1054C00080B400AF4FF0B0439B6803F40033B3F5F2
:1054D000003F01D1012300E000231846BD465DF8DE
:1054E000047B704780B400AF4FF0B0439B6803F477
:1054F0008023B3F5802F01D1012300E0002318465B
:10550000BD465DF8047B704790B58DB000AF786004
:105510007B68002B01D1012363E37B681B6803F0E8
:105520002003002B00F08D80FFF7A2FEF862FFF74A
:1055300083FFB862FB6A002B05D0FB6A0C2B47D1B6
:10554000BB6A012B44D17B68DB69002B01D10123AD
:1055500047E37B685C6AFFF74DFE03469C4214D923
:105560007B685B6A184600F003FD0346002B01D000
:10557000012336E37B685B6A1846FFF727FE7B68EA
:105580001B6A1846FFF74BFE13E07B685B6A184600
:10559000FFF71CFE7B681B6A1846FFF740FE7B681E
:1055A0005B6A184600F0E4FC0346002B01D001239F
:1055B00017E300F0C9FC0346A44A1360A44B1B6820
:1055C0001846FBF7E9FC0346002B39D0012308E31A
:1055D0007B68DB69002B1ED0FFF7C9FDFBF72AFDB6
:1055E000786208E0FBF726FD02467B6AD31A022B9D
:1055F00001D90323F5E2FFF7D8FD0346002BF1D0D4
:105600007B685B6A1846FFF7E1FD7B681B6A1846FA
:10561000FFF705FE15E0FFF7B9FDFBF70BFD78621C
:1056200008E0FBF707FD02467B6AD31A022B01D97B
:105630000323D6E2FFF7B9FD0346002BF1D100E0CA
:1056400000BF7B681B6803F00103002B47D0FFF706
:105650000FFE3862FFF7F0FEF8613B6A082B05D0B9
:105660003B6A0C2B08D1FB69032B05D17B685B6877
:10567000002B34D10123B4E27B685B68B3F5803F33
:1056800002D1FFF7F6FB01E0FFF702FC7B685B68E5
:10569000002B12D0FBF7CEFC786208E0FBF7CAFCC7
:1056A00002467B6AD31A642B01D9032399E2FFF7E0
:1056B000FEFB0346002BF1D011E0FBF7BBFC786248
:1056C00008E0FBF7B7FC02467B6AD31A642B01D9CA
:1056D000032386E2FFF7EBFB0346002BF1D17B6847
:1056E0001B6803F00203002B4CD0FFF7C1FDB8612B
:1056F000FFF7A2FE7861BB69042B05D0BB690C2BB8
:105700000ED17B69022B0BD17B68DB68002B01D1AA
:10571000012366E27B681B691846FFF70AFC31E04B
:105720007B68DB68002B19D0FFF7D3FBFBF782FC0B
:10573000786208E0FBF77EFC02467B6AD31A022BF4
:1057400001D903234DE2FFF7E2FB0346002BF1D022
:105750007B681B691846FFF7ECFB13E0FFF7C8FBFB
:10576000FBF768FC786208E0FBF764FC02467B6AA2
:10577000D31A022B01D9032333E2FFF7C8FB0346F8
:10578000002BF1D17B681B6803F00803002B06D1C6
:105790007B681B6803F01003002B00F0A3807B687C
:1057A0005B69002B76D07B681B6803F01003002B2D
:1057B00046D0FFF77FFC0346002B13D1FFF758FCC0
:1057C000FBF738FC786208E0FBF734FC02467B6AA2
:1057D000D31A022B01D9032303E2FFF76BFC034624
:1057E000002BF1D0FFF778FCFBF724FC786208E08F
:1057F000FBF720FC02467B6AD31A032B01D9032353
:10580000EFE1FFF78BFC0346002BF1D07B689B692F
:105810001846FFF795FCFFF73CFCFBF70BFC7862A2
:1058200008E0FBF707FC02467B6AD31A022B01D97A
:105830000323D6E1FFF73EFC0346002BF1D151E0F4
:10584000FFF716FCFBF7F6FB78620CE0080000207F
:105850000C000020FBF7EEFB02467B6AD31A022BFA
:1058600001D90323BDE1FFF725FC0346002BF1D04E
:10587000FFF743FC08E0FBF7DDFB02467B6AD31A27
:10588000032B01D90323ACE1FFF748FC0346002BAF
:10589000F1D127E0FFF731FCFBF7CCFB786208E0A1
:1058A000FBF7C8FB02467B6AD31A032B01D90323FB
:1058B00097E1FFF733FC0346002BF1D1FFF7E9FB3B
:1058C000FBF7B8FB786208E0FBF7B4FB02467B6AA3
:1058D000D31A022B01D9032383E1FFF7EBFB034625
:1058E000002BF1D17B681B6803F00403002B5BD015
:1058F000A74B1B6803F48073002B14D1FFF7D6F974
:10590000FBF798FB786208E0FBF794FB02467B6AA2
:10591000D31A022B01D9032363E19D4B1B6803F4C7
:105920008073002BF0D07B689B68012B02D1FFF7BE
:1059300049FB0CE07B689B68052B04D1FFF764FBF7
:10594000FFF740FB03E0FFF74EFBFFF76EFB7B68C2
:105950009B68002B14D0FBF76DFB78620AE0FBF725
:1059600069FB02467B6AD31A41F28832934201D91D
:10597000032336E1FFF76AFB0346002BEFD013E069
:10598000FBF758FB78620AE0FBF754FB02467B6AA0
:10599000D31A41F28832934201D9032321E1FFF760
:1059A00055FB0346002BEFD17B681B6803F04003D7
:1059B000002B2CD07B689B6A002B14D0FFF7CEFA0B
:1059C000FBF738FB786208E0FBF734FB02467B6AA2
:1059D000D31A022B01D9032303E1FFF7E1FA0346AF
:1059E000002BF1D013E0FFF7CAFAFBF723FB786234
:1059F00008E0FBF71FFB02467B6AD31A022B01D992
:105A00000323EEE0FFF7CCFA0346002BF1D17B68CD
:105A1000DB6A002B00F0E480FFF72AFC38614FF0CE
:105A2000B043DB68FB607B68DB6A022B40F0B4802C
:105A3000FB6803F003027B681B6B9A4223D1FB686F
:105A400003F070027B685B6B9A421CD1FB681B0AF7
:105A500003F07F027B689B6B9A4214D1FB6803F4CE
:105A600078127B68DB6B9A420DD1FB6803F06062B1
:105A70007B681B6C9A4206D1FB6803F060427B682E
:105A80005B6C9A425DD03B690C2B58D04FF0B04311
:105A90001B6803F08063002B01D00123A1E0FFF716
:105AA00085FCFBF7C7FA786208E0FBF7C3FA024609
:105AB0007B6AD31A022B01D9032392E04FF0B04343
:105AC0001B6803F00073002BEFD14FF0B043DA688E
:105AD000304B13407A68116B7A68526B11437A68C5
