:020000040800F2
:1000000000000320CD47000871450008794500082D
:10001000814500088945000891450008000000005E
:1000200000000000000000000000000099450008EA
:10003000A745000800000000B5450008C3450008BA
:10004000254800089746000825480008D1450008C3
:100050002548000825480008E5450008254800080F
:10006000F3450008014600080F4600081D46000839
:1000700025480008254800082548000825480008AC
:10008000254800082548000825480008294600089A
:100090003D4600082548000825480008514600084C
:1000A000254800082548000825480008254800087C
:1000B000254800082548000825480008254800086C
:1000C000254800082548000825480008254800085C
:1000D0002548000825480008614600082548000812
:1000E00025480008754600082548000825480008EE
:1000F000254800082548000825480008254800082C
:10010000254800082548000825480008254800081B
:1001100025480008254800088946000825480008A9
:1001200025480008254800082548000825480008FB
:0C01300025480008254800082548000864
:1001400010B5054C237833B9044B13B10448AFF311
:1001500000800123237010BD300200200000000049
:1001600084BF010808B5034B1BB103490348AFF333
:10017000008008BD000000003402002084BF010898
:10018000034613F8012B002AFBD1181A01387047D7
:1001900001F0FF01102A2BDB10F0070F08D010F838
:1001A000013B013A8B422DD010F0070F42B3F6D13C
:1001B000F0B441EA012141EA014122F007047FF055
:1001C00000070023F0E80256083C85EA010586EAAC
:1001D000010685FA47F5A3FA87F586FA47F6A5FAE8
:1001E00087F68EB9EED1F0BC01F0FF0102F00702F4
:1001F00032B110F8013B013A83EA010313B1F8D19F
:100200000020704701387047002D06BF354603387F
:10021000073815F0010F07D1013015F4807F02BFB8
:10022000013015F4C03F0130F0BC0138704700BF09
:100230007BB972B90029BEBF00204FF0004106E033
:1002400008BF00281CBF6FF000414FF0FF3000F0E6
:10025000E7B9ADF1080C6DE904CE002909DB002BEC
:100260001ADB00F061F8DDF804E0DDE9022304B0F8
:100270007047404261EB4101002B1BDB00F054F85A
:10028000DDF804E0DDE9022304B0404261EB410106
:10029000524263EB43037047524263EB430300F067
:1002A00043F8DDF804E0DDE9022304B0404261EBED
:1002B00041017047524263EB430300F035F8DDF82B
:1002C00004E0DDE9022304B0524263EB43037047CC
:1002D00053B94AB9002908BF00281CBF4FF0FF31AD
:1002E0004FF0FF3000F09CB9ADF1080C6DE904CE81
:1002F00000F01AF8DDF804E0DDE9022304B07047ED
:10030000430803F05533C01A830803F0333300F079
:100310003330184400EB101000F00F3000EB0020D9
:1003200000EB0040000E70472DE9F047089D8E4617
:1003300004468846002B4AD18A42174662D9B2FA4F
:1003400082F64EB1C6F1200301FA06F820FA03F353
:10035000B74043EA0808B4404FEA174E1FFA87FC3B
:10036000B8FBFEF1230C0EFB118843EA084301FBA6
:100370000CF29A4209D9FB1801F1FF3080F0EA80B3
:100380009A4240F2E78002393B449A1AA3B2B2FB88
:10039000FEF00EFB102243EA024300FB0CFC9C45DE
:1003A00009D9FB1800F1FF3280F0D6809C4540F25D
:1003B000D3803B44023840EA0140A3EB0C03002108
:1003C0001DB1F3400022C5E90032BDE8F0878B4241
:1003D00005D90DB1C5E9000100210846F5E7B3FADA
:1003E00083F1002946D1734502D3824200F2058190
:1003F000841A6EEB030201209046002DE5D0C5E97A
:100400000048E2E7002A00F09080B2FA82F6002E5F
:1004100040F0A4808A1A030C4FEA174E80B2BCB297
:100420000121B2FBFEFC0EFB1C2243EA024304FB4B
:100430000CF29A4207D9FB180CF1FF3802D29A420B
:1004400000F2E080C4469B1AB3FBFEF20EFB1233AF
:1004500040EA034302FB04F49C4207D9FB1802F173
:10046000FF3002D29C4200F2CA8002461B1B42EAC5
:100470000C40A5E7C1F120068B4022FA06F71F4386
:100480000EFA01F420FA06F32EFA06FE4FEA174997
:10049000234300FA01F81FFA87FCBEFBF9F01C0C9D
:1004A00009FB10EE44EA0E4400FB0CFEA64502FADE
:1004B00001F209D93C1900F1FF3A80F09C80A64571
:1004C00040F2998002383C44A4EB0E041FFA83FEEC
:1004D000B4FBF9F309FB13444EEA044403FB0CFCA0
:1004E000A44508D93C1903F1FF3E80F08280A44561
:1004F0007FD9023B3C4443EA0040A4EB0C04A0FB40
:1005000002EC64457346E14662D35FD05DB1B8EB5F
:10051000030264EB090404FA06F622FA01F31E430F
:10052000CC40C5E9006400214FE7B1FBF2FC010CAF
:1005300041EA0E4180B240EA01423B4638463C4621
:10054000B846BE462026B1FBF7F1A2EB080241EA0D
:100550000C4166E7014618E710462CE7C6F1200279
:100560002EFA02F3B740B14020FA02F24FEA174EDA
:100570000A43B3FBFEF8BCB20EFB1833110C41EA80
:10058000034108FB04F9B04089454FEA104380B2AB
:100590003ED9791808F1FF3C01D289451FD8A1EB5B
:1005A0000901B1FBFEF909FB04F80EFB191192B227
:1005B00042EA0142424529D2BA1809F1FF31C4D2B8
:1005C0004245C2D2A9F102013A44BEE7F0459DD2AC
:1005D000BEEB02036CEB070C0138E14696E7A7EB94
:1005E00009094944A8F1020CB1FBFEF909FB04F822
:1005F000DBE773467FE7504666E70846FDE63B4487
:10060000023A33E7ACF1020C3B441CE749469CE755
:10061000A1EB0901C446B1FBFEF909FB04F8C4E7EC
:10062000704700BF80B582B000AF786005F094FFDE
:1006300002467B68D31ADB43DB0FDBB21846083770
:10064000BD4680BD80B483B000AF0346FB80FB880D
:1006500003F003039BB2002B1AD1FB88114AA2FBC3
:1006600003125209642101FB02F29B1A9BB2002B78
:100670000CD1FB880B4AA2FB0312D2094FF4C871BC
:1006800001FB02F29B1A9BB2002B01D1012300E077
:10069000002303F00103DBB218460C37BD465DF8BA
:1006A000047B70471F85EB5180B584B000AF786044
:1006B00039600023FB607B68002B1ED03B68002B59
:1006C0001BD07B689B78002B17D07B689B780C2B0A
:1006D00013D87B68DB78002B0FD07B68DB781F2B6F
:1006E0000BD87B689B79172B07D87B68DB793B2B72
:1006F00003D87B681B7A3B2B01D9002354E04FF4CD
:10070000FA637B8111E07B891846FFF79BFF034664
:10071000002B02D04FF4B77301E040F26D13FA687A
:100720001344FB607B8901337B817B681B887A895A
:100730009A42E8D37B689B78013B1D4A32F813301C
:100740001A46FB681344FB607B689B78022B0AD92E
:100750007B681B881846FFF775FF0346002B02D005
:10076000FB680133FB607B68DB781A46FB68134447
:10077000013BFB60FB680F4A03FB02F27B689B793D
:1007800019464FF4616301FB03F31A447B68DB797C
:1007900019460B461B015B1A9B0013447A68127AB8
:1007A0001A443B681A60012318461037BD4680BDC5
:1007B000B0C101088051010080B586B000AF2C4B5C
:1007C0001B7883F00103DBB2002B06D1294B1B7889
:1007D00083F00103DBB2002B02D04FF0FF3342E085
:1007E00005F090FD034683F00103DBB2002B26D118
:1007F00007F10803184605F033FD034683F00103B3
:10080000DBB2002B1BD13B4619461B48FFF74CFFC0
:10081000034683F00103DBB2002B10D13A1D07F130
:10082000080311461846FFF73FFF034683F0010314
:10083000DBB2002B03D17A683B689A4202D24FF0B8
:10084000FF3310E07A683B68D31A0C4AA2FB0323FB
:100850005B097B617B6941F29772934202D941F255
:1008600097737B617B6918461837BD4680BD00BF12
:10087000380A00203B0A00203C0A0020898888882A
:1008800080B584B002AF786039607B68002B2FD0D0
:100890003B68002B2CD0184B1B68002B05DA174A3D
:1008A000396878681AF06AF923E0134B1B68144A18
:1008B00082FB03129211DB17D01A0F4B1A68104BF0
:1008C00083FB02139911D317CB1A4FF47A7101FBF2
:1008D00003F3D31A0B4A82FB03129210DB17D31ACD
:1008E00000930346084A396878681AF047F900E02F
:1008F00000BF0837BD4680BD0C000020A8BF01081E
:10090000D34D621067666666B4BF010880B582B0D9
:1009100000AF786039607B68002B17D03B68002BF4
:1009200014D00C4B93F9003013F1800F05D10A4A13
:10093000396878681AF022F909E0064B93F900301B
:10094000064A396878681AF019F900E000BF0837DC
:10095000BD4680BD08000020C4BF0108CCBF01080F
:1009600080B582B000AF786039607B68002B20D002
:100970003B68002B1DD0114B1B7883F00103DBB2C9
:10098000002B05D00E4A396878681AF0F7F811E0A4
:100990000C4B1B780C4AA2FB03125209642101FB89
:1009A00002F29B1ADBB2094A396878681AF0E6F855
:1009B00000E000BF0837BD4680BD00BF380A0020F8
:1009C000D4BF01083A0A00201F85EB51D8BF0108A7
:1009D00080B588B002AFF860B9607A60FFF7ECFECE
:1009E0007861FB68002B29D0BB68002B26D07B6880
:1009F000002B02D07B687A691A607B69B3F1FF3FF4
:100A000005D1104AB968F8681AF0B8F817E07B69A0
:100A10000D4AA2FB0323580979690B4BA3FB012361
:100A20005A0913461B019B1A9B00CA1A00920346DF
:100A3000064AB968F8681AF0A1F800E000BF183754
:100A4000BD4680BDE0BF010889888888E8BF0108ED
:100A500080B485B000AF78607B68FB607B68002B5A
:100A600002DA4FF0FF3317E0FB68B3F52F6F02DABD
:100A70004FF42F63FB60FB6841F20402934202DDF6
:100A800041F20403FB60FB68A3F52F63054A82FB78
:100A900003129210DB17D31A18461437BD465DF8BF
:100AA000047B70474FECC44E80B590B002AFF86045
:100AB000B9607A603B602B4B7B634FF0FF333B6345
:100AC0000323FB62FB68002B48D0BB68002B45D09A
:100AD00007F114031822002118461AF085F807F1CF
:100AE0001403184604F0BEF87B691846FFF7B0FF00
:100AF0003863BB6AFB62BB6A012B02D11A4B7B6372
:100B00000DE0BB6A022B02D1184B7B6307E0BB6A86
:100B1000002B02D1164B7B6301E0124B7B637B6899
:100B2000002B02D07B68FA6A1A603B68002B02D067
:100B30003B683A6B1A603B6B002B08DB3B6B009306
:100B40007B6B0C4AB968F8681AF018F807E07B6B01
:100B5000094AB968F8681AF011F800E000BF3837A0
:100B6000BD4680BDF4BF0108F8BF010804C00108FC
:100B70000CC0010814C001081CC0010890B58BB05E
:100B800004AF0446084611461A462346FB80034636
:100B9000BB800B467B8013463B80FA887B881344DE
:100BA000FB82BA883B881344BB8208237B823B8844
:100BB000184AA2FB03235B083B82FB8AFB813A882D
:100BC0003B8AD31A5B089AB2BB881344BB81BB8AA9
:100BD000FA8AB988F8880124029400240194002438
:100BE000009404F063FFFA897B8A13449CB2BA89AB
:100BF0003B8A13449BB2B989F889012202920122EF
:100C0000019200220092224604F050FF00BF1C37E0
:100C1000BD4690BDABAAAAAAB0B586B004AF7860B5
:100C200039607B68002B00F082803B68002B7ED00F
:100C3000414B1B7883F00103DBB2002B05D03F4A08
:100C40003968786819F09AFF72E03D4B1B7883F0A1
:100C50000103DBB2002B38D0394B5B69002B18D075
:100C6000374B1B7A1C46364B1B6B354A526B34494B
:100C700091F848100846324991F8491003910290C2
:100C80000192009323462F4A3968786819F076FF5D
:100C90004EE02B4B1B7A1C46294B1B7B1846284BDE
:100CA0005B6ADBB2264A126A2749A1FB0212920C48
:100CB0002349896A03910292019300902346234AB3
:100CC0003968786819F05AFF32E01D4B93F85830B4
:100CD000002B13D01A4B93F858301846184BDB6D85
:100CE000174A126E1649C96C02910192009303468D
:100CF000174A3968786819F041FF19E0104B1D6DEB
:100D00000F4BDC6C03F0E8F8F0EE407AB6EE007AB8
:100D100077EE877AFCEEE77A17EE903A019300942B
:100D20002B460C4A3968786819F028FF00E000BFAC
:100D30000837BD46B0BD00BF390A002024C00108F5
:100D4000480A00202CC0010883DE1B4344C0010870
:100D50005CC0010870C0010880B5A2B004AF786023
:100D60004FF0FF337B614FF0FF333B6107F17003BE
:100D700008211846FFF7F4FD07F168037A68082197
:100D80001846FFF725FE594804F03AFCFF2004F00E
:100D900019FD574B1B78002B47D007F1100307F1C3
:100DA000140207F118001821FFF77EFE2C23782289
:100DB0000C211E20FFF7E2FE3B69002B12DB3B6992
:100DC00007F108004B4A082119F0D8FE07F1080284
:100DD00000230193FF230093474B16213A2004F090
:100DE0008BFF09E000230193FF230093424B434A0A
:100DF0001621382004F080FF07F118020023019328
:100E0000FF2300933E4B4221202004F075FF7B68B6
:100E1000002B03D03B4B1A687B681A607B693A4A07
:100E200013603B69394A13605CE007F154031221F7
:100E30001846FFF725FD07F148030C211846FFF778
:100E400065FD07F1300318211846FFF7E5FE07F1AD
:100E5000700200230193FF2300932D4B02210420F5
:100E600004F04AFF07F1680200230193FF23009377
:100E7000274B02214C2004F03FFF01230293002363
:100E80000193002300932223B2222221062004F0A2
:100E900063FD07F1300200230193FF230093184BF9
:100EA0002A21062004F028FF07F1540200230193B1
:100EB000FF230093124B3A21062004F01DFF07F197
:100EC000480200230193FF2300930D4B3A21642035
:100ED00004F012FF0C4B4FF0FF321A600B4B4FF037
:100EE000FF321A607837BD4680BD00BF4C0200203B
:100EF000370A002080C001084400002088C0010893
:100F00003C000020100000201400002018000020E9
:100F10004C00002080B582B000AF104B1B7883F0EE
:100F20000103DBB2002B13D10D4B1B78002B0FD12B
:100F3000FFF742FC78607B68B3F1FF3F0AD0094BB2
:100F40001B687A689A4206D0054B01221A7002E0AB
:100F500000BF00E000BF0837BD4680BD380A002052
:100F6000360A00201000002080B588B000AF4FF096
:100F7000FF337B604FF0FF333B600F4B1B7883F0F8
:100F80000103DBB2002B13D10C4B1B78002B0FD1CC
:100F90003B463A1D07F108001821FFF785FD7A68E6
:100FA000074B1B689A4204D0044B01221A7000E0E0
:100FB00000BF2037BD4680BD370A0020360A00201A
:100FC0001400002080B582B002AF04F0F7F9FF23CF
:100FD00000934FF48773B8225821254804F0BEFAD5
:100FE000234804F00DFBFF2004F0ECFB214B012211
:100FF0001A70214B01221A70204B01221A70204BCB
:1010000000221A701F4B00221A701F4B00221A7008
:101010001E4B00221A701E4B80221A701D4B4FF07F
:10102000FF321A601C4B00221A700A2200211B4852
:1010300019F0DAFD64220021194819F0D5FD194B89
:1010400000221A60184B00221A60184B00221A6006
:10105000174B4FF0FF321A60164B4FF0FF321A60F9
:10106000154B4FF0FF321A6001231846BD4680BD74
:101070004C020020340A0020350A0020360A0020E5
:10108000370A0020380A0020390A00203A0A0020D6
:10109000080000200C0000203B0A00203C0A002031
:1010A000480A0020AC0A0020B00A0020B40A002040
:1010B00010000020140000201800002080B500AFB0
:1010C00004F062F80346184680BD80B500AF04F016
:1010D0006DF80346184680BD80B582B000AF034668
:1010E000FB71124B1B78FA799A421BD00F4AFB799D
:1010F00013700F4B01221A7005F02EFA034603F508
:101100006A4360330B4A1360FB7983F00103DBB25F
:10111000002B07D0084B4FF0FF321A60074B4FF0FF
:10112000FF321A6000BF0837BD4680BD370A002075
:10113000360A0020B40A0020140000201800002005
:1011400080B584B000AFBA607B600346FB730B468A
:10115000BB731C4B01221A701B4AFB7B13701B4A8A
:10116000BB7B13701A4ABB6813601A4B00221A70BB
:101170003B7E002B0DD07B68002B0AD0164B7A6883
:101180001068516803C312891A80124B01221A7029
:1011900004E00A220021104819F026FD05F0DCF9D0
:1011A000034603F56A4360330C4A13600C4B4FF05F
:1011B000FF321A600B4B01221A7000BF1037BD4678
:1011C00080BD00BF380A00203A0A00200800002035
:1011D0000C0000203B0A00203C0A0020B00A00203E
:1011E00010000020360A002080B582B000AF786081
:1011F00039607B68002B08D10D4B00221A706422E5
:1012000000210C4819F0F0FC0AE0094B01221A7089
:10121000084A7B681046194664231A4619F018FDDF
:10122000054B01221A7000BF0837BD4680BD00BFC4
:10123000390A0020480A0020360A002080B582B012
:1012400000AF4FF0FF337B60404B1B7883F001030E
:10125000DBB2002B6DD103F0BBFF03F095FF03461B
:10126000002B68D13A4B1B681846FFF7DBF90346A1
:1012700083F00103DBB2002B5FD1364B1B78002BD0
:101280000FD003F03BFF0346002B58D0314B002218
:101290001A7005F061F9034603F57A732C4A13605E
:1012A0004DE02D4B1B78002B15D0FFF75DFE2B4B2F
:1012B0001B681846FFF7B6F90346002B21D0284BD0
:1012C00001221A7005F048F9034603F56A436033BA
:1012D000224A136015E0234B1B78002B11D0224BC0
:1012E0001B681846FFF79EF90346002B09D0FFF74D
:1012F00011FE05F031F9034603F56A4360331A4ADB
:101300001360174B1B7883F00103DBB2002B18D15D
:101310003B1D1846FFF720FD144803F00FFF03465E
:10132000002B0FD00E4B00221A707B68104A1360FE
:1013300008E000BF06E000BF04E000BF02E000BF1D
:1013400000E000BF0837BD4680BD00BF340A002062
:10135000AC0A0020350A0020370A0020B40A002019
:10136000360A0020380A0020B00A00204C02002073
:101370001000002080B582B000AF7860396004F0C2
:10138000D7FE034683F00103DBB2002B01D000231C
:1013900072E004F0D5FF034683F00103DBB2002BBB
:1013A00001D0002368E0012005F036F8034683F001
:1013B0000103DBB2002B01D000235DE0786810F060
:1013C0000FFC034683F00103DBB2002B01D00023A6
:1013D00052E0386800F042FE03F0B2FA00F0F0FA92
:1013E00000F0F8FB02F0B4FB03461A46244B1A70D7
:1013F000FFF7E8FD034683F00103DBB2002B01D0C9
:10140000002339E000F0B6FA03461A461D4B1A7065
:101410001D4B00221A7000F03BFB00F0BBFA0346A4
:10142000184603F0CFFB012010F000FC10F04CFC3C
:1014300000F024FC034683F00103DBB2002B01D053
:10144000002319E000F0D2FA0346002B06D000F08A
:101450000FFB0E4B01221A7001230DE00B4B0022F3
:101460001A7018F071FF034683F00103DBB2002B02
:1014700001D000F0ACFA012318460837BD4680BD04
:10148000CA0A0020B90A0020C90A0020B80A0020B0
:1014900090B5B1B002AF00F049FB00F027FE9B4BC6
:1014A0001B78DBB2002B0CD000F0C6FA034683F0A9
:1014B0000103DBB2002B04D0944B00221A7003F01E
:1014C00015FC934B1B78002B22D0924B1B78DBB280
:1014D000002B1DD0904B1B7883F00103DBB2002B57
:1014E00016D002F077FC034683F00103DBB2002B39
:1014F0000ED002F06BFB0346002B03D0854B00227D
:101500001A7005E0834B00221A70844B00221A7077
:101510007F4B1B78002B0ED0804B1B78DBB2002B4F
:1015200009D002F057FC0346002B04D07B4B00226D
:101530001A7002F0CDFB764B1B78002B14D0774B42
:101540001B78DBB2002B0FD0724B1B78DBB2002B69
:101550000AD102F03FFC034683F00103DBB2002B0B
:1015600002D06E4B00221A70694B1B78002B00F0E2
:10157000838002F0CFFB07F15003184602F03AFCDB
:101580000346002B78D0664B1B78042B69D1D7F823
:101590009430184602F052FC02F07EFCD7F8B030CE
:1015A0009BB2A7F84430D7F8AC309BB2A7F84630CE
:1015B00097F8A830A7F84830D7F8A0309BB2A7F822
:1015C0004A30D7F8A4309BB2A7F84C30D7F89C30FB
:1015D00007F1440107F14400524A0092052218F035
:1015E0007BF800233B6407F140023B461146184656
:1015F00002F080FC0346002B1DD03B6C102B28BF53
:101600001023C7F8B4303B6C39463846464A00923E
:10161000D7F8B42018F060F83B6C102B0BD9384683
:101620002030394620313B6CA3F110023B6C3F4C1B
:10163000009418F051F83E4B184607F1500364220D
:10164000194619F005FB3B4B01221A70344B00225E
:101650001A7007F150034FF0FF311846FFF7C4FD31
:101660000AE0334B184607F150036422194619F07B
:10167000EFFA304B01221A70294B1B78013B032BE8
:1016800040D801A252F823F099160008C3160008AA
:10169000E916000805170008002002F0CFFB02F051
:1016A00095FA0346002B08D004F056FF0346224A61
:1016B00013601B4B02221A7041E0194B00221A7072
:1016C0003DE004F049FF02461B4B1B68D31A632B15
:1016D0001ADD02F0C3FB04F03FFF0346164A136015
:1016E0000F4B03221A700FE004F036FF0246124B34
:1016F0001B68D31A0E2B21DD02F0EAFA084B0422F4
:101700001A701BE000BF1AE000BF18E0BD0A0020FD
:10171000CA0A0020BB0A0020C80A0020BC0A002018
:10172000300B00208CC0010890C0010894C0010853
:10173000CC0A0020CB0A0020340B002000BF00F0B0
:101740007BF9034683F00103DBB2002B18D000F0D5
:1017500021F90346184603F035FA03F09DFA0346D3
:10176000002B14BF01230023DBB283F00103DBB2A3
:1017700003F00103DBB2184610F058FA10F0A4FA97
:1017800000F09AFA00F0C8FA00F056F9034683F028
:101790000103DBB2002B01D0FFF750FD104B1B788B
:1017A000DBB2002B0BD118F0CFFD0346002B06D087
:1017B00000F0C8F90346002B01D000F008F903F04F
:1017C0006BFA0346002B06D000F008F900F033FA5C
:1017D00000F06EF901E000F06BF9BC37BD4690BD3A
:1017E000B80A002080B582B000AF0346FB80FB88BA
:1017F000102B06D100F0BEF803461A46454B1A706E
:1018000084E0FB88042B56D104214FF0904007F070
:10181000F7FA0346012B24D104F09EFE03463E4A0C
:1018200013603E4B01221A703D4B00221A70642255
:1018300000213C4819F0D8F93B4B1B78002B62D0B3
:101840003A4B1B7883F00103DBB2002B5BD0002006
:1018500010F0ECF9364B01221A70364B00221A7048
:1018600051E02E4B1B78DBB2002B4CD004F074FE01
:101870000246294B1B68D31A632B46DD274B0022F7
:101880001A702D4B01221A7004F066FE03462B4A93
:101890001360254B1B78002B35D0254B1B78DBB212
:1018A000002B04D102F096FA0346002B2BD0214BDB
:1018B00001221A7027E0FB88082B01D110F0ECFA06
:1018C000FB88012B22D11E4B1B78002B1ED1164BFF
:1018D0001B78002B1AD0154B1B7883F00103DBB269
:1018E000002B13D002F076FA034683F00103DBB23B
:1018F000002B0BD00E4B1B78DBB2002B06D1104B0C
:1019000001221A7002E000BF00E000BF0837BD46A8
:1019100080BD00BFB90A0020C40A0020BE0A002012
:10192000CB0A0020CC0A0020CA0A0020C80A0020E6
:10193000BB0A0020BC0A0020BA0A0020C00A00200E
:10194000300B002080B400AF034B01221A7000BF9F
:10195000BD465DF8047B7047BD0A002080B400AF2F
:10196000034B01221A7000BFBD465DF8047B70472F
:10197000BD0A002080B500AF1021054807F040FAED
:101980000346002B01D0012300E00023184680BD50
:101990000010004880B500AF084B1B78DBB2002B6D
:1019A00004D100F023F80346002B01D0012300E00E
:1019B000002303F00103DBB2184680BDB90A002002
:1019C00080B400AF00BFBD465DF8047B704780B4B3
:1019D00000AF00BFBD465DF8047B704780B400AF28
:1019E00000BFBD465DF8047B7047000080B500AFC6
:1019F000104B1B7883F00103DBB2002B07D118F0EA
:101A00004BFD034683F00103DBB2002B01D0002322
:101A10000DE018F053FD0346002B14BF01230023F3
:101A2000DBB283F00103DBB203F00103DBB2184643
:101A300080BD00BFC90A002080B500AF0A4B1B78EB
:101A4000002B0BD0094B1B78DBB2002B04D102F02A
:101A5000C1F90346002B01D0012300E0002303F06D
:101A60000103DBB2184680BDCA0A0020BB0A002071
:101A700080B500AF054B01221A70012017F06CFCF5
:101A80000120FFF729FB00BF80BD00BFC80A00206E
:101A900080B500AF054B00221A70002017F05CFCE7
:101AA0000020FFF719FB00BF80BD00BFC80A00205F
:101AB00080B500AF1A4B1B78002B11D1194B1B7846
:101AC000002B0DD100F038FB0346002B08D1164B3C
:101AD0001B78002B06D002F07DF90346002B01D0C5
:101AE00030BF1BE0FFF7EAFA0346002B09D0FFF7EF
:101AF000ECFA034683F00103DBB2002B01D030BFC8
:101B00000CE004F041FD012009F0A8FF00F09EFB6D
:101B100000F012FC04F048FD03F0E8F880BD00BFBF
:101B2000C80A0020C90A0020CA0A002080B500AFF8
:101B3000FFF720FF03461A46014B1A7000BF80BD15
:101B4000B90A002080B58EB000AF0023FB8018F0EA
:101B5000FBFB034683F00103DBB2002B03D017F03D
:101B6000E1FC034632E018F0E5FB034683F0010395
:101B7000DBB2002B01D0002328E003F0ABF80346D2
:101B800083F00103DBB2002B01D000231EE018F02C
:101B900093FB034683F00103DBB2002B01D000234B
:101BA00014E0BA1D07F108033021184617F01CFC99
:101BB0000346002B07D0FB88302B04D107F1080324
:101BC000184610F02FFA17F0ADFC034618463837C8
:101BD000BD4680BD80B500AF18F0B6FB034683F06C
:101BE0000103DBB2002B04D017F09CFC0346002B52
:101BF0000FD1FFF7A7FF0346002B0CD118F09AFB7B
:101C0000034683F00103DBB2002B05D017F020FC64
:101C100002E000BF00E000BF80BD80B500AF18F05B
:101C200093FB0346002B01D0FFF78CFF17F07AFCE3
:101C30000346184680BD80B58CB000AF3B461846C1
:101C400010F07EF93B463021184617F095FB002036
:101C50000FF0ECFF18F078FB034683F00103DBB2D2
:101C6000002B06D018F078FA0346002B01D018F0AC
:101C7000A3FB00BF3037BD4680BD000080B500AF7C
:101C80000C4B1B78002B01D0012311E0FFF7C5FF9F
:101C9000034683F00103DBB2002B01D0002307E0F1
:101CA00018F0E4FB17F0A0F9024B01221A7001238F
:101CB000184680BDC90A002080B582B000AFFFF78A
:101CC00095FE0346FB71FB79002B0ED0104B1B7861
:101CD00083F00103DBB2002B03D0FFF77FFEFFF799
:101CE000C7FE0C4B01221A700FE0094B1B78002B2A
:101CF00008D0FFF7CDFEFFF725FF0346002B01D0EC
:101D0000FFF765FE034B00221A700837BD4680BD01
:101D1000C80A0020B80A002090B5B3B002AF8023F3
:101D200087F88330002387F8B330002387F8B23078
:101D3000012387F8B130BD4B1B78DBB2002B00F0DC
:101D40006E81BB4B1B78002B06D0B84B00221A705B
:101D5000282000F09DF965E1FFF76EFE0346002B99
:101D600026D004F0F9FB0246B24B1B68D31AB3F538
:101D7000FA6FC0F25681B04B00221A70AF4B0022AE
:101D80001A7001F0BBFFAE4B1B78002B10D03B4606
:101D9000184602F02FF80346002B09D0A94B18462D
:101DA0003B466422194618F053FFA74B01221A70D4
:101DB0009E4B00221A7007F190031822002118464A
:101DC00018F012FF07F19003184602F04BFF07F1DD
:101DD0008303184610F092F804F094FA0346002B9F
:101DE00009D007F18403184604F03AFA0346002BA1
:101DF00001D0012300E0002387F8B33097F8B33017
:101E000003F0010387F8B33097F9832097F8B130D6
:101E10001146184617F0B0FB034687F8B2308A4BDC
:101E20001B78002B00F0CE80864B1B6E9BB2A7F870
:101E30007830844BDB6D9BB2A7F87A30814B93F8F6
:101E40005830A7F87C307F4B1B6D9BB2A7F87E30D3
:101E50007C4B5B6D9BB2A7F880307A4BDB6C07F153
:101E6000780107F17800794A0092052217F034FCD6
:101E700000237B6707F174023B461146184602F0C7
:101E800039F80346002B1DD07B6F102B28BF102381
:101E9000C7F8AC307B6F394638466D4A0092D7F8A8
:101EA000AC2017F019FC7B6F102B0BD93846203073
:101EB000394620317B6FA3F110027B6F654C009493
:101EC00017F00AFC00233B670023FB6607F16C0256
:101ED00007F170031146184602F034F80346002B50
:101EE00070D02023C7F8A8300023C7F8BC300023E7
:101EF000C7F8B83061E0FA6ED7F8BC30D31AC7F82B
:101F0000B430D7F8B420D7F8A8309A4203D9D7F81C
:101F1000A830C7F8B430452387F86430572387F8D2
:101F20006530D7F8B830092B0AD8D7F8B830DBB20B
:101F30003033DBB287F86630002387F867301DE066
:101F4000D7F8B830444AA2FB0323DB08DBB23033B6
:101F5000DBB287F86630D7F8B8103F4BA3FB0123FC
:101F6000DA0813469B0013445B00CA1AD3B230331D
:101F7000DBB287F86730002387F868303A6FD7F80C
:101F8000BC305B00D0183A6FD7F8BC305B00D1187A
:101F9000FA6E07F1640300931346D7F8B42017F0E4
:101FA0009BFBD7F8BC20D7F8B4301344C7F8BC303B
:101FB000D7F8B8300133C7F8B830FB6ED7F8BC207B
:101FC0009A4298D397F9834097F89830002B02D023
:101FD000D7F8902001E04FF0FF3297F8B330002B94
:101FE00002D007F1840300E0002397F8B10097F8CE
:101FF000B31000912146FFF7A3F8134B1B78002B79
:1020000010D097F89830002B02D0D7F8903001E02C
:102010004FF0FF3319460B48FFF7E6F802E000BF28
:1020200000E000BFC437BD4690BD00BFBA0A002023
:10203000C80A0020C00A0020BB0A0020BC0A0020F9
:10204000CA0A0020CC0A0020CB0A002098C0010850
:102050009CC00108A0C00108CDCCCCCC80B483B01A
:1020600000AF7860074A7B681360074B00221A7044
:10207000064B00221A6000BF0C37BD465DF8047B9A
:10208000704700BF380B00203C0B0020400B0020A5
:1020900080B582B000AF7860114B1B68002B18D060
:1020A000104B1B78002B0CD10D4B1B6808220F2105
:1020B000184607F0ADFD0346002B0CD1094B012259
:1020C0001A7004F049FA02467B681344064A13600A
:1020D00002E000BF00E000BF0837BD4680BD00BF82
:1020E000380B00203C0B0020400B002080B500AFD7
:1020F0000E4B1B68002B14D00D4B1B78002B10D0FF
:1021000004F02AFA02460B4B1B68D31A002B0ADB99
:10211000064B1B68184607F0C8FD054B00221A70D5
:1021200002E000BF00E000BF80BD00BF380B002010
:102130003C0B0020400B002080B400AF054B1B7807
:10214000002B14BF01230023DBB21846BD465DF807
:10215000047B70473C0B002080B483B000AF7860F4
:102160004FF0B043D3F8903023F018024FF0B04155
:102170007B681343C1F8903000BF0C37BD465DF853
:10218000047B704780B485B000AF78604FF0B043F7
:102190009A6C4FF0B0417B6813438B644FF0B043AF
:1021A0009A6C7B681340FB60FB6800BF1437BD4628
:1021B0005DF8047B704780B485B000AF78604FF065
:1021C000B043DA6C4FF0B0417B681343CB644FF0FF
:1021D000B043DA6C7B681340FB60FB6800BF1437C8
:1021E000BD465DF8047B704780B500AF04F046F94A
:1021F00000F02CF800F0A0F800F0C2FA00F0AEFAFF
:1022000000F07EF910F0F8FA0346002B01D000F040
:10221000CCFB00F0AFF800F0A1F900F031F900F0CC
:1022200039FA00F00BF907490748FFF7A3F803460E
:1022300083F00103DBB2002B01D000F0B6FBFFF707
:1022400027F9FCE7200C0020CC0B002080B59AB0C9
:1022500000AF07F1200348220021184618F0C4FC03
:102260003B1D00221A605A609A60DA601A615A6156
:102270009A6109F085FB1020FFF76EFF2D4B1B685C
:1022800023F4C0632B4A43F400731360294B1B688B
:1022900003F4C0633B603B6827233B624FF4803309
:1022A0007B620123BB624FF48073FB620123FB63FB
:1022B00040233B6300233B6480237B640223FB6455
:1022C00001233B6500237B650C23BB654FF4C023D2
:1022D000FB654FF080437B664FF0C0633B6607F1C0
:1022E0002003184609F07AFF0346002B01D000F0C6
:1022F0005CFB6F237B600323BB600023FB60002338
:102300003B6100237B61A023BB610023FB613B1D7C
:10231000032118460AF0D6FA0346002B01D000F03C
:1023200044FB0BF07AFE0BF07EFE00BF6837BD4623
:1023300080BD00BF0004005880B594B000AF3B469C
:1023400050220021184618F04FFC4FF400533B6018
:102350000123BB641023FB643B4618460BF0D1F805
:102360000346002B01D000F020FB00BF5037BD46D4
:1023700080BD000080B586B000AF3B4600221A60E9
:102380005A609A60DA601A615A61294B294A1A60C8
:10239000274B00225A60264B00229A60244B0022D1
:1023A000DA60234B00221A61214B04225A61204B30
:1023B00000221A761E4B00225A761D4B0122DA614A
:1023C0001B4B002283F82020194B00229A62184BE5
:1023D0000022DA62164B002283F83020144B0022D0
:1023E0005A63134B002283F83820114804F002FB93
:1023F0000346002B01D000F0D8FA0F4B3B600623B8
:102400007B600723BB607F23FB6004233B610023C9
:102410007B613B461946064804F05AFD0346002BF3
:1024200001D000F0C2FA00BF1837BD4680BD00BF22
:10243000440B0020000004504000201980B500AF7C
:102440000D4B0E4A1A600C4B00221A710A4B0022E7
:102450005A71094B00225A61074B00229A61064BC0
:1024600001221A62044805F0D1FB0346002B01D07B
:1024700000F09BFA00BF80BDA80B00200030024096
:1024800080B500AF1B4B1C4A1A601A4B1B4A5A609E
:10249000184B00229A60174B0122DA60154B00227C
:1024A0001A61144B00225A61124B00229A61114B9F
:1024B0000022DA610F4B00221A620E4806F0E8FC97
:1024C0000346002B01D000F070FA0021094807F004
:1024D0001BFA0346002B01D000F067FA00210548E3
:1024E00007F05DFA0346002B01D000F05EFA00BF52
:1024F00080BD00BFCC0B002000540040F93E5010BE
:1025000080B500AF134B144A1A60124B00225A6078
:10251000104B4FF420629A600E4B4FF6FF725A61D7
:102520000C4B00221A620B4B00225A62094B00220C
:102530009A62084B0022DA62064B00221A630548B1
:1025400007F0C4FA0346002B01D000F02EFA00BFBA
:1025500080BD00BF200C0020007C004080B590B002
:1025600000AF07F12C0300221A605A609A60DA600B
:102570001A610023BB623B4628220021184618F04E
:1025800033FB424B424A1A60404B00225A603F4B99
:102590007F229A603D4BFF22DA603C4B00221A6199
:1025A0003A4B00229A61394B0022DA61374B002204
:1025B0005A6136480BF0FCFF0346002B01D000F0B7
:1025C000F4F9002387F82C30002387F82D300023FE
:1025D00087F82E3000233B630023BB630023FB639B
:1025E00007F12C030122194628480CF069F803462C
:1025F000002B01D000F0D9F9012387F828300123FE
:1026000087F82930012387F82A30002387F82B30F8
:1026100007F12803012219461C480CF04EF9034625
:10262000002B01D000F0C1F900233B7000237B7028
:102630000023BB7000237B600023FB6000233B6111
:1026400000237B610023BB610023FB61012387F82A
:1026500020304FF480737B623B46012219460B48C1
:102660000CF004FA0346002B01D000F09EF9002282
:10267000002106480CF05AFC0346002B01D000F064
:1026800094F900BF4037BD4680BD00BF580C002004
:102690000028004080B500AF2E4B2F4A1A602D4B0A
:1026A00000225A642B4B01225A602A4B40229A6422
:1026B000284B0022DA64274B00221A65254B0022A2
:1026C0009A60244B00225A61224B00229A61214BCE
:1026D00000229A621F4B0222DA611E4B4AF64442E4
:1026E0001A621C4B0022DA621A4B00221A63194B41
:1026F000012283F83820174B0222DA63154B4FF47E
:1027000000721A64134B20225A65124B01229A65FB
:10271000104B0022DA650F4B00221A660D4B4FF466
:1027200080225A660B4B00229A660A4B0022DA6618
:10273000084B04221A67074B4FF6FF725A67054889
:102740000CF082FD0346002B01D000F02EF900BFF3
:1027500080BD00BF7C0C00200454014080B500AF58
:102760000420FFF70FFD0120FFF70CFD00220021E0
:102770000B2005F008FA0B2005F01FFA00BF80BD02
:1027800080B586B000AF3B1D00221A605A609A6087
:10279000DA601A610420FFF70EFD0220FFF70BFD3F
:1027A0000120FFF708FD1020FFF705FD002248F289
:1027B00090014FF0904006F03BFB002279216A48DF
:1027C00006F036FB01237B604FF48813BB600023C7
:1027D000FB603B1D19464FF0904006F0C3F8042300
:1027E0007B604FF44413BB600123FB603B1D194623
:1027F0004FF0904006F0B6F808237B604FF40413C6
:10280000BB600123FB603B1D19464FF0904006F072
:10281000A9F848F290037B600123BB600023FB60B2
:1028200000233B613B1D19464FF0904006F09AF89B
:1028300060237B600023BB600123FB603B1D1946C6
:102840004FF0904006F08EF879237B600123BB6047
:102850000023FB6000233B613B1D1946424806F004
:1028600081F810237B604FF44413BB600023FB60AE
:102870003B1D19463D4806F075F880237B604FF4F8
:102880008813BB600023FB603B1D1946364806F0E9
:1028900069F800220021062005F075F9062005F0F0
:1028A0008CF900220021082005F06DF9082005F0C0
:1028B00084F900220021092005F065F9092005F0BE
:1028C0007CF9002200210A2005F05DF90A2005F0BC
:1028D00074F900220021172005F055F9172005F0A2
:1028E0006CF901237B604FF40413BB600123FB6090
:1028F0003B1D19464FF0904006F034F804237B60EE
:102900004FF44413BB600123FB603B1D19464FF09D
:10291000904006F027F808237B604FF40413BB6057
:102920000123FB603B1D19464FF0904006F01AF85A
:1029300000220521092005F026F9092005F03DF9BE
:1029400000220521062005F01EF9062005F035F9C4
:1029500000220521082005F016F9082005F02DF9C0
:1029600000BF1837BD4680BD000400480010004875
:1029700080B582B000AF7860FEF7E4FF00BF083793
:10298000BD4680BD80B582B000AF0346FB80FB88AA
:102990001846FEF727FF00BF0837BD4680BD80B54B
:1029A00000AFFEF7DBFF00BF80BD80B400AF72B6A2
:1029B00000BF00BFFDE780B485B000AF78604FF086
:1029C000B043DA6C4FF0B0417B681343CB644FF0F7
:1029D000B043DA6C7B681340FB60FB6800BF1437C0
:1029E000BD465DF8047B704780B582B000AF78606B
:1029F00003F0B2FD02467B68D31ADB43DB0FDBB288
:102A000018460837BD4680BD80B586B000AF3B1D77
:102A100000221A605A609A60DA601A610120FFF79A
:102A2000CAFF4FF4E0637B600223BB600023FB60BE
:102A300000233B6103237B613B1D19464FF090400F
:102A400005F090FF00BF1837BD4680BD80B500AFD0
:102A5000012280214FF0904006F0EAF900BF80BDCE
:102A600080B500AF012280214FF0904006F0E0F9E0
:102A700000BF80BD80B586B000AF3B1D00221A604C
:102A80005A609A60DA601A614FF4E0614FF090404A
:102A900006F0D8F84FF440737B600023BB6000233E
:102AA000FB603B1D19464FF0904005F05BFF4FF473
:102AB00080637B600023BB600023FB603B1D1946E5
:102AC0004FF0904005F04EFFFFF7CAFF00BF1837E8
:102AD000BD4680BD80B584B000AF0346FB71634B3B
:102AE000FB60FB681B68624A93420AD1FB68D3F81B
:102AF0008430002B05D0FB68D3F884301B68002B92
:102B000004D15C4B01221A720023AAE0594B022225
:102B10001A72F8680DF08CF80346222B02D1F8687F
:102B20000CF078FDF8680CF021FDFB6800225A6477
:102B3000FB6801225A60FB6840229A64FB6800220D
:102B4000DA64FB79002B01D0012200E00022FB684F
:102B50001A65FB6800229A60FB6800225A61FB68D4
:102B600000229A61FB6800229A62FB680222DA6105
:102B7000FB68414A1A62FB680022DA62FB680022A5
:102B80001A63FB68012283F83820FB680222DA63AB
:102B9000FB684FF400721A64FB6820225A65FB68D8
:102BA00001229A65FB680022DA65FB6800221A663A
:102BB000FB684FF480225A66FB6800229A66FB6825
:102BC0000022DA66FB6804221A67FB6804225A674F
:102BD000F8680CF039FB0346FB72264AFB7A537205
:102BE00040200AF005FE0346224A1362F8680DF001
:102BF0001FF803461A461F4B1A73F8680DF026F8A3
:102C000003461C4A5362FB7A002B04D0194B032263
:102C10001A72002325E0FB68D3F884302022DA61A1
:102C2000FB68D3F88430184605F0E2F80346FB72DF
:102C3000104AFB7A9372FB68D3F88430184605F08B
:102C4000FDFB03461A460B4B5A73FB7A002B04D04C
:102C5000084B04221A72002303E0064B05221A7265
:102C6000012318461037BD4680BD00BF7C0C0020F4
:102C700004540140685B002000EE020080B582B081
:102C800000AF4FF48052284928480CF085FD0346D8
:102C9000FB71274AFB79D37224480CF0C9FF034625
:102CA0001A46234B1A7321480CF0D0FF0346204AE2
:102CB000536240200AF09CFD03461D4A13621B4BE1
:102CC000D3F88430002B08D0184BD3F88430184642
:102CD00005F0B4FB03461A4600E00022144B5A7379
:102CE000124BD3F88430002B0BD0104BD3F8843028
:102CF0001B68002B05D00D4BD3F884301B685B6834
:102D000000E000230A4A9362FB79002B04D0084BB1
:102D100006221A72002303E0054B07221A720123D0
:102D200018460837BD4680BD740D00207C0C00207D
:102D3000685B002080B500AF02480CF06BFC00BF60
:102D400080BD00BF7C0C002080B588B000AF64223D
:102D50000021814817F048FF7F4B00221A727E4BFA
:102D600000221A707C4B0022A3F84A207A4B2022C2
:102D700083F84820784B002283F849201022002154
:102D8000764817F031FF10220021754817F02CFF0C
:102D9000744B00221A70744B14221A60734B1B7808
:102DA00083F00103DBB2002B51D00023FB6148E02C
:102DB0000023BB6100237B6100233B610023FB6098
:102DC0000723BB601FE0FA69BB6822FA03F303F034
:102DD0000103002B01D0012301E04FF0FF333B60E2
:102DE000BA693B681344BB617A69BB6913447B6170
:102DF0003A697B6913443B61FA683B691344FB60A1
:102E0000BB68013BBB60BB68002BDCDABB6919B255
:102E1000574AFB6922F813107B6919B2554AFB69BE
:102E200022F813103B6919B2534AFB6922F81310B8
:102E3000FB6819B2514AFB6922F81310FB69013390
:102E4000FB61FB69FF2BB3D9484B01221A704C4B35
:102E500000221A604B4B4FF000021A604A4B4FF0B1
:102E600000021A60494B00221A60494B4FF00002E1
:102E70001A60484B00221A60474B00221A60474BE9
:102E800000221A60464B00221A70464B00221A702C
:102E9000454B4FF000021A60444B00221A70444B1D
:102EA0004FF000021A604FF440720021414817F0C1
:102EB0009BFE414B00221A60404B00221A70802278
:102EC00000213F4817F090FE802200213D4817F076
:102ED0008BFE802200213C4817F086FE3B4B0022EF
:102EE0001A603B4B00221A603A4B00221A703A4B90
:102EF0001B7883F00103DBB2002B29D000237B6019
:102F000020E0364A7B6832F8133007EE903AF8EE4C
:102F1000677A9FED337A67EE877ADFED326A87EE64
:102F2000A67AB0EE470A18F0FBFAF0EE407A77EE98
:102F3000A77A2D4A7B689B001344C3ED007A7B6817
:102F400001337B607B681F2BDBD9234B01221A7076
:102F500000BF2037BD4680BD685B0020984D002033
:102F6000A84D0020B84D0020BC4D0020C4550020C5
:102F7000C44D0020C44F0020C4510020C453002081
:102F8000C8550020D0550020E4550020E855002009
:102F9000F0550020F4550020F85500200056002080
:102FA0000456002005560020085600200C5600202C
:102FB00010560020145600201459002018590020E3
:102FC0009C5900201C5A00209C5A00201C5B0020A9
:102FD000205B0020655B0020645B0020C8C1010805
:102FE000DB0FC940000080451C59002080B586B029
:102FF00000AF786000237B6140E07A687B6913440E
:10300000234A52F823303B613869FDF779F90346CA
:10301000FB73204B5B69002B05D17B69002B02D130
:103020001C4A3B6993631B4A3B69D3633B69002B92
:1030300004D1184B1B6B0133164A13633B69B3F180
:10304000FF3F04D1134B5B6B0133124A5363114BA7
:1030500093F84830FA7B9A4203D20E4AFB7B82F8FF
:1030600048300C4B93F84930FA7B9A4203D9094A0D
:10307000FB7B82F849307B6901337B617B69B3F567
:10308000006FBAD300BF00BF1837BD4680BD00BF78
:10309000740D0020685B00202DE9B04F9CB000AF9C
:1030A000F860F868FFF7A2FF0023FB664EE3FA68BA
:1030B000FB6E1344AA4A52F82330FB65A94B1B68E8
:1030C000002B05D0A74B1B68013BA64A13603AE3CF
:1030D000FB6D87F85B30A44B1B687B65A24B5B687C
:1030E0003B65A14B9B68FB649F4BD968FB6CD80088
:1030F0003A6D1346DB0013449B0018447A6D134667
:103100001B019B1ADB00034497F85B20974830F9BA
:10311000122013440B44944AD360934B99683B6D3F
:10312000D8007A6D1346DB0013449B00034497F8E4
:103130005B208F4830F9122013440B448A4A936075
:10314000894B5A687B6DDB0097F85B10894830F932
:1031500011100B441344844A5360834B1B6897F847
:103160005B20854931F9122013447F4A1360834B59
:103170001B780133DAB2814B1A70804B1B78032B1A
:1031800040F2E182784BDB68BB667C4B00221A7010
:1031900000237B6610E07A4A7B6E52F82330BA6EC9
:1031A000D31A3B6176497B6EBA6E41F823203B69A6
:1031B000BB667B6E01337B667B6E032BEBD9BB6EEC
:1031C0005B12BB646F4B1B68002B05D06D4B1B68FB
:1031D000013B6C4A1360B6E2BB6C9AB26A4B1B6847
:1031E0009BB2D31A9BB2A7F84630684AB7F846306C
:1031F000A2F84A30654B9B690133644A9361B7F981
:10320000463007EE903AF8EEE77AC7ED107A604B59
:10321000D3ED007A97ED107A77EE677A9FED5D7ABD
:1032200027EE877A5A4BD3ED007A77EE277A584B00
:10323000C3ED007A564BD3ED007A97ED107A77EE16
:10324000677AC7ED0F7AD7ED0F7A27EEA77A524B40
:10325000D3ED007A77EE277A4F4BC3ED007A4F4BD0
:103260001B6801334D4A13604C4B1B68FF2B40F227
:103270006381494B1B68BB63444BDB6C0133434A9E
:10328000D364474B1B78002B1CD0464B1B68013383
:10329000444A1360444BD3ED007A97ED0E7A77EEF3
:1032A000676A404B1B6807EE903AF8EE677A86EE45
:1032B000A77A3D4BD3ED007A77EE277A3A4BC3EDF0
:1032C000007A32E1394BD3ED007A97ED0E7AB4EE05
:1032D000E77AF1EE10FA02DD344ABB6B1360344B2F
:1032E0001B78002B00F021812F4BD3ED007AF5EEF7
:1032F000C07AF1EE10FA40F318812E4BD3ED007A2C
:1033000097ED0E7A77EE677AB5EE007A27EE877A38
:10331000284BD3ED007A77EE277A264BC3ED007A5F
:10332000254B1B68B3F5C07F5DD2224BD3ED007AED
:10333000B2EE047A67EE876A1B4B93ED007AC6EE15
:10334000877AC7ED0D7AD7ED0D7A9FED1C7AF4EEF2
:10335000C77AF1EE10FA33DD4FF6FF713BE000BFA4
:10336000740D0020944D0020984D0020C45300207F
:10337000C4510020C44F0020C44D0020B84D00208F
:10338000A84D0020BC4D0020C04D0020685B0020EF
:10339000D05500200000003BE4550020E8550020F7
:1033A000D4550020E0550020EC550020F0550020B9
:1033B000FC550020085600201459002000FF7F47CC
:1033C000D7ED0D7AB6EE007A77EE877AFCEEE77AE3
:1033D00017EE903A99B2B14B1B685A1CAF48026085
:1033E000AF4A22F81310AF4B1B78002B29D0AE4BFD
:1033F000D3ED007AB7EE087A27EE877AAB4BD3EDA0
:10340000007AB4EEE77AF1EE10FA02DDA84B012261
:103410001A70A74B1B78002B13D0A44B93ED007AA6
:10342000A44BD3ED007AB4EEE77AF1EE10FA08DDA2
:103430009C4B00221A709E4B00221A709E4B002259
:103440001A70984B1B7883F00103DBB2002B42D03B
:10345000964B93ED007A974BD3ED007AB4EEE77A72
:10346000F1EE10FA10DD904BD3ED007AB0EE087A51
:1034700027EE877A8D4BD3ED007AB4EEE77AF1EE42
:1034800010FA01D5012300E0002387F8333097F8C4
:10349000333003F0010387F8333097F8333083F08B
:1034A0000103DBB2002B12D0834B1B78002B0ED014
:1034B000824B1B680133814A13607A4B01221A70D8
:1034C0007B4B00221A707C4B00221A7003E07A4A70
:1034D00097F833301370744BD3ED007AB0EE087A5E
:1034E00067EE877A97ED0E7AB4EEE77AF1EE10FA8E
:1034F00004DD734B1B680133714A13606A4BD3EDD3
:10350000007AB1EE047A67EE877A97ED0E7AB4EE20
:10351000E77AF1EE10FA04DD6A4B1B680133694A61
:103520001360624B1B68634A1360674B4FF00002E5
:103530001A60664B00221A6000233B662EE0644A44
:103540003B6E9B00134493ED007A624A3B6E9B00F6
:103550001344D3ED007A27EE277A5F4A3B6E9B0037
:103560001344D3ED007A77EE677A97ED0F7A77EE12
:10357000277AC7ED057A574A3B6E9B0013441A68B9
:1035800055493B6E9B000B441A60524A3B6E9B00B0
:1035900013447A691A603B6E01333B663B6E1F2B06
:1035A000CDD94E4B1B6801334C4A13604B4B1B6803
:1035B000B3F5805F69D300233B6651E0444A3B6E1C
:1035C0009B0013441B68FB62424A3B6E9B00134402
:1035D0001B68BB62404A3B6E9B0013441B687B62C6
:1035E000D7ED0A7A27EEA77AD7ED097A67EEA77AA0
:1035F00037EE277AD7ED0B6AD7ED0A7A66EEA76A1F
:10360000D7ED097A66EEA77A77EE677AC7ED087A82
:10361000D7ED087AF5EEC07AF1EE10FA06DD97EDF7
:10362000080A17F05FFFF0EE407A01E0DFED2C7A38
:10363000C7ED077A2B4A3B6E9B001344D3ED007A0B
:1036400097ED077AB4EEE77AF1EE10FA05DD254A38
:103650003B6E9B001344FA691A603B6E01333B6674
:103660003B6E1F2BAAD9802200211A4817F0BCFA02
:1036700080220021184817F0B7FA184B00221A6070
:10368000194B1B680133184A1360B7F94630002BF9
:103690002CDAB7F846305B429BB229E0145900207F
:1036A0001456002004560020EC5500200856002037
:1036B00005560020105600200C5600200056002011
:1036C000F4550020F8550020E4550020E85500206E
:1036D0001C5900209C5900201C5A00201C5B002013
:1036E000000000009C5A0020205B0020B7F8463004
:1036F0007B837B8B00221C4615461F4BD3E900239E
:1037000014EB020A45EB030B1B4BC3E900ABBB6C8C
:10371000DA1798469146194BD3E9002318EB0201BA
:10372000396049EB03037B60144BD7E90012C3E90E
:103730000012134BB3F840307A8B9A4203D9104AE7
:103740007B8BA2F84030FB6E0133FB66FB6EB3F55A
:10375000006FFFF4ACAC0A4BDB690133084AD3615C
:10376000074B5B6903F50063054A536100BF70377F
:10377000BD46BDE8B08F00BF804D0020884D0020C1
:10378000685B00202DE9B0438AB000AF99480CF087
:103790005DFA3862974BD3F88430FB61954B1B6818
:1037A0001B6803F48033002B14BF01230023DAB21B
:1037B000914B1A718F4B1B681B6803F40033002B6D
:1037C00014BF01230023DAB28B4B5A71894B1B6D56
:1037D000012B0CBF01230023DAB2874BDA71874B30
:1037E0005B6C03F00103002B14BF01230023DAB24A
:1037F000814B9A717F480CF01BFA03461A467E4BA8
:103800001A73FB69002B05D0F86904F017FE034614
:103810001A4600E00022784B5A73402009F0E8FF76
:103820000346754A1362744A3B6A5362FB69002B74
:1038300007D0FB691B68002B03D0FB691B685B6822
:1038400000E000236C4A93626A4B1B685B696A4A1A
:10385000D36202F081FE0246694B1B68D31A664AA6
:103860001361684B1B78DBB2002B04D13B6A03F079
:103870000103002B01D0012300E0002303F001032A
:10388000DAB25D4B5A70604B1B78DBB2002B04D16F
:103890003B6A03F08003002B01D0012300E00023EA
:1038A00003F00103DAB2544B9A70534B0022DA70E2
:1038B000514B9B69002B08D04F4B9B7883F0010341
:1038C000DBB2002B01D0012300E0002303F0010351
:1038D000DAB2494B1A70484B9B69002B21D04B4BF5
:1038E000D3E90001444B9B69002298469146424629
:1038F0004B46FCF7EDFC02460B4692B23E4BA3F85A
:103900004220434BD3E900013B4B9B6900221C46FC
:10391000154622462B46FCF78BFC02460B46364BDF
:103920005A643C4BD3ED007AF5EEC07AF1EE10FA12
:103930000DDD384BD3ED007ADFED376A87EEA67ADE
:10394000B0EE470A17F0CEFDF0EE407A01E0DFED71
:10395000337AC7ED067A324BD3ED007AF5EEC07AB2
:10396000F1EE10FA0DDD2E4BD3ED007ADFED2A6A71
:1039700087EEA67AB0EE470A17F0B4FDF0EE407A73
:1039800001E0DFED267AC7ED057AD7ED057AF5EE91
:10399000C07AF1EE10FA06DDD7ED066A97ED057AEA
:1039A000C6EE877A01E0DFED1D7AC7ED047AD7ED28
:1039B000067AB6EE007A77EE877AFCEEE77A17EEB3
:1039C000902A0D4BDA65D7ED057AB6EE007A77EEE0
:1039D000877AFCEEE77A17EE902A074B1A66D7ED46
:1039E000047A9FED107AF4EEC77AF1EE10FA1BDD3F
:1039F000FF2325E07C0C0020685B00200054014080
:103A0000784D0020754D0020764D0020804D00201F
:103A1000884D0020F0550020000080430000000089
:103A2000EC55002000007F43D7ED047AB6EE007A13
:103A300077EE877AFCEEE77AC7ED017A3B79DBB265
:103A4000364A82F85830364B1B68344A1365354B7A
:103A50001B68324A5365344B1B68002B14BF01238B
:103A60000023DAB2314B1A702C4B1B7883F0010320
:103A7000DBB2002B06D0294B1B7A072B02D8274B31
:103A800008221A72254B1B78002B38D0284B1B6854
:103A9000002B34D000237B622BE0264A7B6A9B00FC
:103AA0001344D3ED007A37EEA77ADFED236AC7EE31
:103AB000267AC7ED037AD7ED037A9FED207AF4EEEC
:103AC000C77AF1EE10FA02DD4FF6FF720AE0D7ED89
:103AD000037AB6EE007A77EE877AFCEEE77A17EE95
:103AE000903A9AB216497B6A21F813207B6A013317
:103AF0007B627B6A1F2BD0D9124B01221A70FFF711
:103B000019F9FEF7B7FF104B00221A700F4B012274
:103B10001A7000BF2837BD46BDE8B083685B00203F
:103B2000F455002000560020145900201859002098
:103B3000205B00209C5A00200000804500FF7F474A
:103B4000245B0020655B0020904D0020924D0020FA
:103B500080B500AF144B1B78002B01D0012321E06E
:103B6000124B1B68124A934203D1124B1B68002B65
:103B700001D1002316E0FEF77DFFFFF7E5F80E4BBD
:103B800000221A700D4B00221A700D4B00221A7081
:103B90000C4B00221A700C4B00221A70024B0122AF
:103BA0001A700123184680BD914D00207C0C002026
:103BB00004540140140D0020744D0020754D002068
:103BC000764D0020904D0020924D002080B500AF32
:103BD000324B1B7883F00103DBB2002B03D1304B57
:103BE0001B78002B01D0002355E0FFF7ADF84FF410
:103BF000804200212B4816F0F7FF2B4B00221A7051
:103C00002A4B00221A702A4B00221A70294B0022DC
:103C10001A7002F0A1FC0346274A1360274B0022CA
:103C20001A6027494FF000024FF00003C1E900235A
:103C300024494FF000024FF00003C1E90023224B5A
:103C400000221A70214B4FF496521A60FEF7FEFEC6
:103C50001D4B1B781846FEF73DFF034683F001031A
:103C6000DBB2002B03D0FEF705FF002313E0FEF7C5
:103C7000CBFEFFF703F8034683F00103DBB2002B12
:103C800005D0FFF757F8FEF7F5FE002303E0044BDD
:103C900001221A700123184680BD00BF914D0020FB
:103CA000904D0020740D0020744D0020754D0020B3
:103CB000764D0020924D0020784D00207C4D002054
:103CC000804D0020884D0020934D0020944D002011
:103CD00080B500AF074B1B78012B08D102F03CFCEC
:103CE00003462033044A1360024B02221A7000BFBD
:103CF00080BD00BF904D00207C4D002080B500AFFE
:103D0000034B1B78002B01D0FFF73CFD00BF80BDAB
:103D1000904D002080B582B000AF284B1B78002B5F
:103D200047D0274B1B78FB71FB7903F00103002B75
:103D30000AD0234B1B78DBB223F00103DAB2204B0D
:103D40001A700020FFF7A8F9FB7903F00203002B9B
:103D50000BD01B4B1B78DBB223F00203DAB2184BFB
:103D60001A704FF40060FFF797F9164B1B78DBB21F
:103D7000002B02D0FFF706FD1CE002F0EDFB02462F
:103D8000114B1B68D31A1A46104B9A4202DDFFF7FB
:103D9000F9FC0FE0094B1B78022B0BD10C4B1B6875
:103DA0001846FEF721FE0346002B03D0FFF7EAFC7E
:103DB00000E000BF0837BD4680BD00BF904D002029
:103DC000744D0020764D0020784D0020BF2709005B
:103DD0007C4D002080B400AF054B1B78002B14BF36
:103DE00001230023DBB21846BD465DF8047B704713
:103DF000904D002080B582B000AF78600D4B1B78ED
:103E000083F00103DBB2002B02D17B68002B01D1D0
:103E100000230BE07B68084A1846114664231A46C3
:103E200016F016FF034B00221A70012318460837BC
:103E3000BD4680BD924D0020685B002080B483B0F9
:103E400000AF7860044A7B68136000BF0C37BD4642
:103E50005DF8047B704700BFC04D002080B400AF08
:103E6000094B01221A70094B4FF000021A60084BEF
:103E70004FF000021A60074B00221A6000BFBD46D7
:103E80005DF8047B704700BFD4550020D855002052
:103E9000DC550020E055002080B483B000AF4FF027
:103EA00000037B60094B00221A70094B1B68002B32
:103EB00002D0084B01221A707B6807EE903AB0EEF0
:103EC000670A0C37BD465DF8047B7047D455002067
:103ED000E0550020FC55002080B400AF044B1B6867
:103EE00007EE903AB0EE670ABD465DF8047B704776
:103EF000CC55002080B582B000AF786039600F4BA0
:103F00001B7883F00103DBB2002B05D17B68002B0B
:103F100002D03B68002B01D100230BE0402208496E
:103F2000786816F095FE3B6820221A60034B002249
:103F30001A70012318460837BD4680BD655B002016
:103F4000245B002080B483B000AF78603960104BF0
:103F50001B7883F00103DBB2002B05D17B68002BBB
:103F600002D03B68002B01D100230AE07B68094A9C
:103F70001A60094B1A683B681A60054B00221A70D8
:103F8000012318460C37BD465DF8047B704700BF1F
:103F900018590020145600201459002080B582B012
:103FA00000AF074BD3F884307B607B68002B02D0D6
:103FB000786804F094F900BF0837BD4680BD00BFA3
:103FC0007C0C002080B483B000AF78607B680E4A20
:103FD000934212D10D4B1B78DBB203F00103002B8F
:103FE00002D00B4B01221A70084B1B78DBB243F056
:103FF0000103DAB2054B1A7000E000BF0C37BD4672
:104000005DF8047B704700BF7C0C0020744D0020DD
:10401000754D002080B483B000AF78607B680E4A95
:10402000934212D10D4B1B78DBB203F00203002B3D
:1040300002D00B4B01221A70084B1B78DBB243F005
:104040000203DAB2054B1A7000E000BF0C37BD4620
:104050005DF8047B704700BF7C0C0020744D00208D
:10406000754D002080B483B000AF78607B68064A4D
:10407000934203D1054B01221A7000E000BF0C37B8
:10408000BD465DF8047B70477C0C0020764D002017
:1040900080B400AF4FF0B043D3F890304FF0B0424F
:1040A00043F40043C2F8903000BFBD465DF8047B86
:1040B000704780B485B000AF78604FF0B0439A6C21
:1040C0004FF0B0417B6813438B644FF0B0439A6C60
:1040D0007B681340FB60FB6800BF1437BD465DF88A
:1040E000047B704780B485B000AF78604FF0B04378
:1040F000DA6C4FF0B0417B681343CB644FF0B043B0
:10410000DA6C7B681340FB60FB6800BF1437BD4668
:104110005DF8047B704780B485B000AF78604FF0E5
:10412000B0439A6D4FF0B0417B6813438B654FF0FD
:10413000B0439A6D7B681340FB60FB6800BF143787
:10414000BD465DF8047B704780B485B000AF7860F1
:104150004FF0B0431A6E4FF0B0417B6813430B66CB
:104160004FF0B0431A6E7B681340FB60FB6800BFE2
:104170001437BD465DF8047B704780B483B000AF50
:1041800078604FF0B0431A6E7B68DB434FF0B0416C
:1041900013400B6600BF0C37BD465DF8047B7047CB
:1041A00080B500AF07F04AFC00220021362003F062
:1041B000EAFC362003F001FD00BF80BD80B59CB055
:1041C00000AF786007F15C0300221A605A609A60C1
:1041D000DA601A6107F10C0350220021184616F02C
:1041E00003FD7B681B68154A934223D14FF480631B
:1041F000FB604FF04053BB6407F10C03184609F015
:1042000080F90346002B01D0FEF7CFFB4FF400509E
:10421000FFF768FF0120FFF765FF0223FB6503231B
:104220003B6600237B6607F15C0319464FF0904024
:1042300004F098FB00BF7037BD4680BD00000450FD
:1042400080B582B000AF78607B681B68054A9342F6
:1042500003D14FF48050FFF72CFF00BF0837BD4655
:1042600080BD00BF0030024080B59CB000AF7860D8
:1042700007F15C0300221A605A609A60DA601A61E2
:1042800007F10C0350220021184616F0ADFC7B68A4
:104290001B68174A934226D10423FB604FF4403336
:1042A000FB6207F10C03184609F02BF90346002BBB
:1042B00001D0FEF77AFB0220FFF714FF4FF44073A2
:1042C000FB6512233B6601237B660023BB66042348
:1042D000FB6607F15C031946064804F043FB4FF404
:1042E0000010FFF718FF00BF7037BD4680BD00BF4C
:1042F000005400400004004880B59CB000AF7860D6
:1043000007F15C0300221A605A609A60DA601A6151
:1043100007F10C0350220021184616F065FC7B685B
:104320001B68164A934225D11023FB604FF44023AB
:104330007B6307F10C03184609F0E3F80346002BF2
:1043400001D0FEF732FB4FF00040FFF7E4FE022001
:10435000FFF7C8FE0423FB6502233B6600237B6650
:104360000023BB660123FB6607F15C031946044882
:1043700004F0F8FA00BF7037BD4680BD007C0040F5
:104380000004004880B596B000AF786007F10803DC
:1043900050220021184616F027FC7B681B68164A3D
:1043A000934225D14FF40063BB604FF48073BB642C
:1043B00007F10803184609F0A4F80346002B01D0C2
:1043C000FEF7F3FAFFF764FE4FF48060FFF7A3FEF9
:1043D00000220021032003F0D6FB032003F0EDFBB5
:1043E00000220021292003F0CEFB292003F0E5FB69
:1043F00000BF5837BD4680BD0028004080B59CB046
:1044000000AF786007F10C0350220021184616F027
:10441000EBFB7B681B683B4A93426FD14023FB60F8
:104420000C233B614FF4C0237B614FF0C063BB6141
:104430004FF0C043FB614FF480333B620023FB63CA
:1044400007F10C03184609F05CF80346002B01D075
:10445000FEF7ABFA2C4B1B68002B0BD14FF400106E
:10446000FFF772FE00220021262003F08CFB26209D
:1044700003F0A3FB244B1B680133234A13604FF462
:10448000E063FB6502233B6600237B660023BB667B
:104490000323FB6607F15C0319464FF0904004F0DC
:1044A00061FA1A4B1A4A1A60184B12225A60174BBB
:1044B00000229A60154B0022DA60144B80221A61A8
:1044C000124B4FF400725A61104B4FF400629A6124
:1044D0000E4B0022DA610D4B4FF400521A620B486A
:1044E00003F086FC0346002B01D0FEF75EFA7B68E2
:1044F000064AC3F88420054A7B68936200BF703780
:10450000BD4680BD04540140CC5B0020140D00204A
:104510000800024080B582B000AF78607B681B68FD
:10452000114A93421BD1114B1B68013B0F4A136088
:104530000E4B1B68002B06D14FF40010FFF71DFE39
:10454000262003F048FB4FF4E0614FF0904004F068
:1045500079FB7B68D3F88430184603F0F1FC00BF88
:104560000837BD4680BD00BF04540140CC5B00202D
:1045700080B400AF00BFFDE780B400AF00BFFDE72F
:1045800080B400AF00BFFDE780B400AF00BFFDE71F
:1045900080B400AF00BFFDE780B400AF00BFBD46F0
:1045A0005DF8047B704780B400AF00BFBD465DF886
:1045B000047B704780B400AF00BFBD465DF8047B4C
:1045C000704780B500AF01F0B3FF00BF80BD0000B1
:1045D00080B500AF02480AF0D5FD00BF80BD00BF26
:1045E000580C002080B500AF012004F039FC00BF5A
:1045F00080BD80B500AF042004F032FC00BF80BD58
:1046000080B500AF082004F02BFC00BF80BD80B552
:1046100000AF102004F024FC00BF80BD80B500AFC7
:10462000FFF7BCFC00BF80BD80B500AF024805F0BD
:1046300027FD00BF80BD00BF2466012080B500AF0C
:10464000024805F01DFD00BF80BD00BF24660120AB
:1046500080B500AF802004F003FC00BF80BD0000E7
:1046600080B500AF02480BF02BF900BF80BD00BF42
:104670007C0C002080B500AF02480AF047FB00BF69
:1046800080BD00BF580C002080B400AF00BFBD4605
:104690005DF8047B704780B500AF07F00BFA00BFF0
:1046A00080BD000080B586B000AF7860144A154B1D
:1046B000D31A7B617B693B61134B1B68002B02D1D2
:1046C000114B124A1A60104B1A687B6813443A69FE
:1046D0009A4207D216F090FA03460C221A604FF065
:1046E000FF3309E0084B1B68FB60074B1A687B68C7
:1046F0001344054A1360FB6818461837BD4680BD51
:104700000000032000040000D05B0020D06C0120DA
:1047100080B400AF244BD3F88830234A43F47003AD
:10472000C2F888304FF0B0431B684FF0B04243F0FE
:10473000010313604FF0B0434FF4E0229A604FF052
:10474000B0431A684FF0B041184B13400B604FF064
:10475000B043D3F894304FF0B04223F00503C2F8D1
:1047600094304FF0B043D3F898304FF0B04223F07C
:104770000103C2F898304FF0B0430D4ADA604FF0B1
:10478000B0430B4A1A614FF0B0431B684FF0B04280
:1047900023F4802313604FF0B04300229A6100BFDE
:1047A000BD465DF8047B704700ED00E0FBFEF6FAC5
:1047B00000100422D458C4500433C4188C42F9D3D6
:1047C0007047036004308842FBD370470C4885462D
:1047D000FFF79EFF0B480C490C4A0023FFF7EDFF43
:1047E0000B480C490C4A0023FFF7E7FF0B480C4924
:1047F0000023FFF7E8FF16F005FAFDF7F5FCFEE7EA
:1048000000000320080000203002002050F60108BC
:10481000000003200000032078F801083002002087
:10482000D06C0120FEE780B485B000AF78604FF017
:10483000B043DA6C4FF0B0417B681343CB644FF068
:10484000B043DA6C7B681340FB60FB6800BF143731
:10485000BD465DF8047B704780B483B000AF7860DC
:1048600039607A683B68D31ADB43DB0FDBB218464A
:104870000C37BD465DF8047B7047000080B586B0FC
:1048800000AF1F4B1B78002B36D11D4B01221A7035
:104890000220FFF7C8FF0120FFF7C5FF3B1D0022E4
:1048A0001A605A609A60DA601A6101237B60012302
:1048B000BB600023FB6000233B613B1D1946114890
:1048C00004F050F84FF480637B600023BB6000234A
:1048D000FB603B1D19464FF0904004F043F8022363
:1048E0007B600323BB600023FB603B1D19464FF038
:1048F000904004F037F800E000BF1837BD4680BD97
:10490000D45B00200004004880B582B000AF0346AD
:10491000FB71FB791A460121064804F089FA064A20
:10492000FB791370054AFB79D37200BF0837BD4687
:1049300080BD00BF00040048D55B0020240000209B
:1049400080B500AFFFF79AFF0B4B00221A7001F001
:1049500003FE03466433094A1360094B00221A60C0
:104960000120FFF7D1FF012000F04EF8002000F0F9
:1049700019F800BF80BD00BFD65B0020D85B0020C7
:10498000DC5B002080B500AF4FF480614FF09040B9
:1049900004F036FA0346002B0CBF01230023DBB2E0
:1049A000184680BD80B582B000AF0346FB71134A44
:1049B000FB795372124B1A78104B9A72114B1A787A
:1049C0000E4BDA72FB79184600F09CF903460B4A4D
:1049D00053610A4B5B69012B0CBF01230023DAB240
:1049E000064B1A73FB79184600F0CAF803461A46BC
:1049F000024B1A7400BF0837BD4680BD240000205A
:104A000020000020D55B002080B584B000AF0346B5
:104A1000FB7101F0A1FDF860FB7983F00103DBB2CB
:104A2000002B0FD0314B1B7A002B0BD0304B1B6867
:104A30001946F868FFF710FF034683F00103DBB265
:104A4000002B4ED100F07AF9B860FB6803F57A7359
:104A5000274A1360BB68002B13DA244B4FF0FF3258
:104A60001A60224B234A5A60204B00221A721F4BB5
:104A700000225A731D4B00229A731C4B0022DA73DA
:104A800030E01A4ABB681360BB6807EE903AB8EE94
:104A9000E77ADFED196AC7EE267A144BC3ED017A87
:104AA000124B01221A72BB6840F6B832934294BF8F
:104AB00001230023DAB20D4B5A73BB68B3F52F6F95
:104AC00094BF01230023DAB2084B9A73BB6841F20A
:104AD000030293428CBF01230023DAB2034BDA7343
:104AE00000E000BF1037BD4680BD00BF240000209D
:104AF000DC5B0020000080BF00007A4480B483B0FB
:104B000000AF0346FB71FB7983F00103DBB2002B9E
:104B100001D0002328E0174B1B7883F00103DBB2A0
:104B2000002B01D000231FE0134B1B7A83F00103FD
:104B3000DBB2002B01D0012316E0104B1B78002BB9
:104B40000AD00D4B1B681A4641F203039A4294BFE8
:104B500001230023DBB207E0074B1B68B3F57A6F34
:104B600094BF01230023DBB218460C37BD465DF825
:104B7000047B70472000002024000020D55B00202B
:104B800080B483B000AF0346FB71FB79002B01D0EA
:104B900001230EE00A4B1B7A002B06D0084B1B6842
:104BA000B3F5486F01D3012300E0002303F00103B4
:104BB000DBB218460C37BD465DF8047B704700BF7A
:104BC0002400002080B584B000AF0346FB7101F0E3
:104BD000C3FCF860FB79002B08D0204B1B7883F0D6
:104BE0000103DBB2002B01D0012300E00023FB72A4
:104BF000FB7A03F00103FB72FB7A002B06D0FB6803
:104C00006433174A13600120FFF77EFEFB7A1846D3
:104C1000FFF7FAFE124B1B681946F868FFF71CFEF7
:104C2000034683F00103DBB2002B03D00120FFF722
:104C30006BFE07E0FB791846FFF760FF0346184656
:104C4000FFF762FEFB791846FFF7ACFE034AFB79DB
:104C5000137000BF1037BD4680BD00BFD65B00207B
:104C6000D85B0020B0B483B000AF78607B68002BC5
:104C70000AD07B68074A1C4615460FCD0FC495E83D
:104C8000030084E8030000E000BF0C37BD46B0BC61
:104C9000704700BF2400002080B400AF0C4B5B7A4B
:104CA00083F00103DBB2002B09D0094B1B7A002BE8
:104CB00005D0074B9B7B002B01D0012300E0002394
:104CC00003F00103DBB21846BD465DF8047B704774
:104CD0002400002080B500AF034B5B7A1846FFF735
:104CE0004FFF0346184680BD2400002080B400AF6B
:104CF000034B00221A6000BFBD465DF8047B70477D
:104D0000DC5B002080B582B000AF0346FB71FFF78B
:104D100039FE0346002B01D0012309E0FB79002B6B
:104D200005D0054B1B78002B01D0022300E00023A7
:104D300018460837BD4680BDD55B002080B58AB0D7
:104D400000AF3B4600221A605A609A60DA601A612E
:104D50005A6140F61C437B62474B3B6006237B60F5
:104D60000723BB607F23FB6004233B6100237B613F
:104D70003B461946414802F0ABF80346002B02D0EF
:104D80004FF0FF3373E03D4801F080FF0346002BF6
:104D900002D04FF0FF336AE00521384801F0FDFFF3
:104DA0000346002B05D0354801F0C4FF4FF0FF3318
:104DB0005DE0324802F07EF803467B842F4801F024
:104DC000B9FF2F4B1B881A464FF4616303FB02F2B5
:104DD0007B8CB2FBF3F37B622A4B3B6006237B6048
:104DE0000723BB607F23FB6004233B6100237B61BF
:104DF0003B461946214802F06BF80346002B02D0CF
:104E00004FF0FF3333E01D4801F040FF0346002B15
:104E100002D04FF0FF332AE00521184801F0BDFF12
:104E20000346002B05D0154801F084FF4FF0FF33F7
:104E30001DE0124802F03EF803463B840F4801F0A3
:104E400079FF3B8C7A6A03FB02F20F4BA3FB021340
:104E5000D21A52081344DB0AFB61FB690B4A02FBBE
:104E600003F30B4AA2FB03239B0BBB61BB691846F0
:104E70002837BD4680BD00BF01000080440B0020E4
:104E8000AA75FF1F400020190101100088E30700E8
:104E90001B923D5980B582B000AF786001F05CFB99
:104EA00002467B68D31ADB43DB0FDBB218460837B8
:104EB000BD4680BD80B582B000AF03463960FB714E
:104EC0000B4AFB7913700B4A3B6813600A4B0122B3
:104ED0001A7001F041FB03460A33084A13600022AE
:104EE0004021074803F0A4FF00BF0837BD4680BD3E
:104EF000E05B0020EC5B0020E15B0020E45B002035
:104F00000004004880B500AF012000F0E3FAB720AC
:104F100000F002FB002000F0FFFA002000F0FCFA95
:104F2000112000F0D7FA012000F0F6FA442000F03A
:104F3000D1FA002000F0F0FA0A2000F0EDFA452046
:104F400000F0C8FAB72000F0E7FA002000F0E4FA19
:104F5000002000F0E1FA002000F0DEFA3C2000F032
:104F6000B9FA052000F0D8FA212000F0B3FA0020A9
:104F700000F0D2FA802000F0CFFA182000F0AAFA50
:104F8000802000F0C9FA4E2000F0A4FA002000F0C2
:104F9000C3FA4F2000F09EFAB72000F0BDFA0020BF
:104FA00000F0BAFA00BF80BD80B500AF012000F06C
:104FB00091FA272000F0B0FA012000F0ADFA0120AC
:104FC00000F0AAFA112000F085FA012000F0A4FAFE
:104FD000442000F07FFA002000F09EFA0A2000F042
:104FE0009BFA452000F076FA272000F095FA012080
:104FF00000F092FA002000F08FFA002000F08CFA06
:105000003C2000F067FA052000F086FA212000F02D
:1050100061FA002000F080FA802000F07DFA18206C
:1050200000F058FA802000F077FA4E2000F052FA93
:10503000002000F071FA4F2000F04CFA272000F019
:105040006BFA012000F068FA00BF80BD80B582B025
:1050500000AF242000F03EFA00237B6005E0FF2033
:1050600000F05AFA7B6801337B607B68B3F5FD6F13
:10507000F5D300BF00BF0837BD4680BD80B586B000
:1050800000AF78607B68002B27D00B23FB60B82330
:10509000BB60242000F01EFA00233B6118E00023CF
:1050A0007B610EE03B69FA6803FB02F27B69134403
:1050B0007A6813441B78184600F02EFA7B69013396
:1050C0007B617A69FB689A42ECD33B6901333B61AF
:1050D0003A69BB689A42E2D300E000BF1837BD4688
:1050E00080BD80B500AF222000F0F4F9F72000F079
:1050F00013FA202000F0EEF900BF80BD80B500AFAC
:105100000C4B1B78DBB2002B0AD10B4B1B681846EB
:10511000FFF7C0FE034683F00103DBB2002B01D092
:10512000002304E000210120FFF7C4FE01231846FC
:1051300080BD00BFE15B0020E85B002080B582B04D
:1051400000AF78607B68002B0FD00D4B1B78DBB273
:10515000002B0AD10B4B1B681846FFF79BFE03463A
:1051600083F00103DBB2002B01D0002304E0796857
:105170000220FFF79FFE012318460837BD4680BD79
:10518000E15B0020E85B002080B400AF064B1B7899
:10519000DBB2002B14BF01230023DBB21846BD464F
:1051A0005DF8047B704700BFE15B002080B400AF76
:1051B000064B1B78DBB2033B032B01D8012300E035
:1051C00000231846BD465DF8047B7047E15B002074
:1051D00080B500AF664B1B78DBB2062B00F2B080C7
:1051E00001A252F823F000BF5553000805520008F1
:1051F0003B5200085B52000877520008B952000881
:10520000075300085B4B1B681846FFF743FE034635
:1052100083F00103DBB2002B40F09E80012240218D
:10522000554803F005FE01F097F903460A33514A49
:1052300013604F4B02221A7099E04E4B1B681846C0
:10524000FFF728FE034683F00103DBB2002B40F09A
:105250008580474B03221A7089E08021464803F07D
:10526000CFFD0346012B7BD0122000F033F9404BD9
:1052700004221A707BE080213F4803F0C1FD034601
:10528000012B6FD03D4B1B78DBB2012B02D1FFF716
:1052900039FE0DE0394B1B78DBB2022B02D1FFF750
:1052A00083FE05E0324B00221A70344B00221A7044
:1052B0002F4B05221A705AE080212F4803F0A0FDE1
:1052C0000346012B50D02D4B1B78DBB2012B02D1B2
:1052D000FFF7BCFE11E0294B1B78DBB2022B05D196
:1052E000274B1B681846FFF7C9FE06E0204B00223B
:1052F0001A70224B00221A7039E0FFF7F2FE1C4BA5
:1053000006221A7033E080211B4803F079FD034622
:10531000012B2BD0102000F0DDF8012000F0FCF86C
:1053200001F01AF903466433164A1360104B002249
:105330001A70124B00221A70114B00221A6016E0EC
:105340000B4B00221A700D4B00221A700C4B0022DE
:105350001A600CE000BF0AE000BF08E000BF06E0F2
:1053600000BF04E000BF02E000BF00E000BF80BD5E
:10537000E15B0020E45B002000040048E05B0020CB
:10538000EC5B0020E85B002080B485B000AF786063
:105390004FF0B043DA6C4FF0B0417B681343CB64FD
:1053A0004FF0B043DA6C7B681340FB60FB6800BFD2
:1053B0001437BD465DF8047B7047000080B586B0A9
:1053C00000AF3B1D00221A605A609A60DA601A61D1
:1053D0000120FFF7D9FF0220FFF7D6FF4FF400436B
:1053E0007B600123BB600023FB6000233B613B1D0E
:1053F00019464FF0904003F0B5FA10237B603B1D37
:105400001946184803F0AEFA40237B603B1D19464D
:10541000144803F0A7FA20237B603B1D194611486E
:1054200003F0A0FA08237B603B1D19460D4803F0EA
:1054300099FA80237B604FF44413BB600123FB6027
:105440003B1D1946074803F08DFA0022052117205D
:1054500002F099FB172002F0B0FB00BF1837BD46E1
:1054600080BD00BF0004004880B584B000AF034693
:10547000FB7100220821164803F0DAFC0023FB73BD
:105480001EE097F90730002B05DA01222021104891
:1054900003F0CEFC04E0002220210D4803F0C8FCFC
:1054A000012208210A4803F0C3FC00220821084811
:1054B00003F0BEFCFB795B00FB71FB7B0133FB73EC
:1054C000FB7B072BDDD900BF00BF1037BD4680BD79
:1054D0000004004880B582B000AF0346FB71002293
:1054E0004FF400414FF0904003F0A2FC0022102145
:1054F000084803F09DFCFB791846FFF7B5FF012231
:105500004FF400414FF0904003F092FC00BF083789
:10551000BD4680BD0004004880B582B000AF0346A0
:10552000FB7100224FF400414FF0904003F080FCEB
:1055300001221021084803F07BFCFB791846FFF795
:1055400093FF01224FF400414FF0904003F070FCB4
:1055500000BF0837BD4680BD0004004880B485B058
:1055600000AFF860084611461A4603467B810B4699
:105570003B811346FB80214B00221A601F4AFB68C7
:1055800013601E4A7B8913811C4A3B8953811B4A45
:105590003B8B93817B8903F007039BB2002B03D1E4
:1055A0007B89DB089BB204E07B89DB089BB201337B
:1055B0009BB2124A5382114A3B8993820F4AFB885D
:1055C000D3810E4B00221A82FB88002B02D0FB886D
:1055D000B42B06D1094A7B899380084A3B89D38042
:1055E00006E0064A3B899380044A7B89D38000BF4A
:1055F00000BF1437BD465DF8047B7047F05B0020A8
:1056000080B483B000AF7860044A7B68136000BF49
:105610000C37BD465DF8047B704700BFF05B00208F
:1056200080B487B000AF0346FB800B46BB801346B7
:105630007B80634B9B88FA889A4200F2B480604B6F
:10564000DB88BA889A4200F2AE805D4BDB89B3F505
:10565000877F2BD0B3F5877F00F3A780B42B16D0BC
:10566000B42B00F3A280002B02D05A2B05D09CE073
:10567000FB88FB82BB88BB8222E0514B1A89BB8826
:10568000D31A9BB2013BFB82FB88BB8218E04C4BD8
:105690001A89FB88D31A9BB2013BFB82484B5A897B
:1056A000BB88D31A9BB2013BBB8209E0BB88FB825B
:1056B000434B5A89FB88D31A9BB2013BBB8200BF84
:1056C0003F4B1B8A032B72D801A252F823F000BF74
:1056D0001F570008E1560008F1560008015700085E
:1056E000374B1A89FB8AD31A9BB2013BFB8217E026
:1056F000334B5A89BB8AD31A9BB2013BBB820FE062
:105700002F4B1A89FB8AD31A9BB2013BFB822C4B8D
:105710005A89BB8AD31A9BB2013BBB8200E000BF0F
:10572000274B1B89FA8A9A4243D8254B5B89BA8A50
:105730009A423ED8FB8ADB089BB21946BB8A204AB4
:10574000528A02FB03F30B443B611D4B1A683B6911
:1057500013441B78FB737B88002B12D1FB8A03F068
:1057600007036FF0800242FA03F35AB297F90F3041
:10577000134059B2124B1A683B691344CAB21A70EB
:1057800018E0FB8A03F00703802242FA03F35AB2BF
:1057900097F90F30134359B2094B1A683B69134408
:1057A000CAB21A7006E000BF04E000BF02E000BF0A
:1057B00000E000BF1C37BD465DF8047B704700BFAA
:1057C000F05B002080B485B000AF0346FB8000236F
:1057D000BB811CE00023FB8111E0FA89BB891249DF
:1057E000498A01FB03F31344BB600F4B1A68BB6883
:1057F0001344FA88D2B21A70FB890133FB810A4B39
:105800005B8AFA899A42E8D3BB890133BB81064B94
:105810009B8ABA899A42DDD300BF00BF1437BD46C8
:105820005DF8047B704700BFF05B002090B585B049
:1058300000AF0446084611461A462346FB8003463D
:10584000BB800B467B8013467B70424B9B88FA885B
:105850009A427AD83F4BDB88BA889A4275D897F833
:105860002030012B44D10023FB8139E00023BB8190
:1058700029E0FA88B7F90E301A447B78D31A002B46
:1058800028DBBA88B7F90C301A447B78D31A002B7E
:1058900020DBFA89FB8813449AB27B789BB2D31A37
:1058A00098B2BA89BB8813449AB27B789BB2D31A58
:1058B0009BB27A881946FFF7B3FEB7F90C309BB25A
:1058C00001339BB2BB81B7F90C207B785B00013BB5
:1058D0009A42CEDBB7F90E309BB201339BB2FB810B
:1058E000B7F90E207B785B00013B9A42BEDB2DE0CE
:1058F0000023FB8123E00023BB8115E0FA89FB88AC
:1059000013449BB2013B98B2BA89BB8813449BB243
:10591000013B9BB27A881946FFF782FEB7F90C303B
:105920009BB201339BB2BB81B7F90C207B789A42C2
:10593000E4DBB7F90E309BB201339BB2FB81B7F9C0
:105940000E207B789A42D6DB00E000BF1437BD46BC
:1059500090BD00BFF05B002090B58DB002AF044653
:10596000084611461A462346FB800346BB800B4679
:105970007B8013463B804B4B9B88FA889A4200F20F
:105980008880484BDB88BA889A4200F28280454B77
:105990009B887A889A427CD8424BDB883A889A4224
:1059A00077D8FB88FB84BB88BB847A88FB88D31AB2
:1059B000002BB8BF5B42BB613A88BB88D31A002B6F
:1059C000B8BF5B425B427B61FA887B889A4201D216
:1059D000012301E04FF0FF333B61BA883B889A42D4
:1059E00001D2012301E04FF0FF33FB60BA697B690C
:1059F00013443B620023FB77FB7F0133FB7797F86F
:105A00003C30012B17D1FA7F274BA3FB0213590817
:105A10000B465B000B44D31ADBB2002B0BD197F87B
:105A20004030B98CF88C01220092FF22FFF7FEFE75
:105A30000023FB7708E097F840303A8FB98CF88C58
:105A400001240094FFF7F2FE3B6A5B007A699A42F8
:105A50000CDCFA8C7B889A421DD03A6A7B6913442D
:105A60003B623B699AB2FB8C1344FB843B6A5B004C
:105A7000BA699A42C0DBBA8C3B889A420DD03A6A26
:105A8000BB6913443B62FB689AB2BB8C1344BB8472
:105A9000B2E700BF02E000BF00E000BF2C37BD4608
:105AA00090BD00BFF05B0020ABAAAAAA90B589B058
:105AB00004AF0446084611461A462346FB800346B7
:105AC000BB800B467B8013463B80374B9B88FA8814
:105AD0009A4264D8344BDB88BA889A425FD8324BFA
