:020000040800F2
:100000000000032089380008353600083D36000816
:10001000453600084D36000855360008000000003F
:100020000000000000000000000000005D36000835
:100030006B3600080000000079360008873600089B
:10004000E138000853370008E13800089536000809
:10005000E1380008E1380008A9360008E138000856
:10006000B7360008C5360008D3360008E136000868
:10007000E1380008E1380008E1380008E1380008FC
:10008000E1380008E1380008E1380008ED360008E2
:1000900001370008E1380008E1380008153700088A
:1000A000E1380008E1380008E1380008E1380008CC
:1000B000E1380008E1380008E1380008E1380008BC
:1000C000E1380008E1380008E1380008E1380008AC
:1000D000E1380008E138000823370008E13800085B
:1000E000E138000831370008E1380008E13800083D
:1000F000E1380008E1380008E1380008E13800087C
:10010000E1380008E1380008E1380008E13800086B
:10011000E1380008E138000845370008E1380008F8
:10012000E1380008E1380008E1380008E13800084B
:0C013000E1380008E1380008E138000860
:1001400010B5054C237833B9044B13B10448AFF311
:1001500000800123237010BD300200200000000049
:10016000F899010808B5034B1BB103490348AFF3E5
:10017000008008BD0000000034020020F89901084A
:10018000034613F8012B002AFBD1181A01387047D7
:1001900001F0FF01102A2BDB10F0070F08D010F838
:1001A000013B013A8B422DD010F0070F42B3F6D13C
:1001B000F0B441EA012141EA014122F007047FF055
:1001C00000070023F0E80256083C85EA010586EAAC
:1001D000010685FA47F5A3FA87F586FA47F6A5FAE8
:1001E00087F68EB9EED1F0BC01F0FF0102F00702F4
:1001F00032B110F8013B013A83EA010313B1F8D19F
:100200000020704701387047002D06BF354603387F
:10021000073815F0010F07D1013015F4807F02BFB8
:10022000013015F4C03F0130F0BC0138704700BF09
:1002300053B94AB9002908BF00281CBF4FF0FF314D
:100240004FF0FF3000F09CB9ADF1080C6DE904CE21
:1002500000F01AF8DDF804E0DDE9022304B070478D
:10026000430803F05533C01A830803F0333300F01A
:100270003330184400EB101000F00F3000EB00207A
:1002800000EB0040000E70472DE9F047089D8E46B8
:1002900004468846002B4AD18A42174662D9B2FAF0
:1002A00082F64EB1C6F1200301FA06F820FA03F3F4
:1002B000B74043EA0808B4404FEA174E1FFA87FCDC
:1002C000B8FBFEF1230C0EFB118843EA084301FB47
:1002D0000CF29A4209D9FB1801F1FF3080F0EA8054
:1002E0009A4240F2E78002393B449A1AA3B2B2FB29
:1002F000FEF00EFB102243EA024300FB0CFC9C457F
:1003000009D9FB1800F1FF3280F0D6809C4540F2FD
:10031000D3803B44023840EA0140A3EB0C030021A8
:100320001DB1F3400022C5E90032BDE8F0878B42E1
:1003300005D90DB1C5E9000100210846F5E7B3FA7A
:1003400083F1002946D1734502D3824200F2058130
:10035000841A6EEB030201209046002DE5D0C5E91A
:100360000048E2E7002A00F09080B2FA82F6002E00
:1003700040F0A4808A1A030C4FEA174E80B2BCB238
:100380000121B2FBFEFC0EFB1C2243EA024304FBEC
:100390000CF29A4207D9FB180CF1FF3802D29A42AC
:1003A00000F2E080C4469B1AB3FBFEF20EFB123350
:1003B00040EA034302FB04F49C4207D9FB1802F114
:1003C000FF3002D29C4200F2CA8002461B1B42EA66
:1003D0000C40A5E7C1F120068B4022FA06F71F4327
:1003E0000EFA01F420FA06F32EFA06FE4FEA174938
:1003F000234300FA01F81FFA87FCBEFBF9F01C0C3E
:1004000009FB10EE44EA0E4400FB0CFEA64502FA7E
:1004100001F209D93C1900F1FF3A80F09C80A64511
:1004200040F2998002383C44A4EB0E041FFA83FE8C
:10043000B4FBF9F309FB13444EEA044403FB0CFC40
:10044000A44508D93C1903F1FF3E80F08280A44501
:100450007FD9023B3C4443EA0040A4EB0C04A0FBE0
:1004600002EC64457346E14662D35FD05DB1B8EB00
:10047000030264EB090404FA06F622FA01F31E43B0
:10048000CC40C5E9006400214FE7B1FBF2FC010C50
:1004900041EA0E4180B240EA01423B4638463C46C2
:1004A000B846BE462026B1FBF7F1A2EB080241EAAE
:1004B0000C4166E7014618E710462CE7C6F120021A
:1004C0002EFA02F3B740B14020FA02F24FEA174E7B
:1004D0000A43B3FBFEF8BCB20EFB1833110C41EA21
:1004E000034108FB04F9B04089454FEA104380B24C
:1004F0003ED9791808F1FF3C01D289451FD8A1EBFC
:100500000901B1FBFEF909FB04F80EFB191192B2C7
:1005100042EA0142424529D2BA1809F1FF31C4D258
:100520004245C2D2A9F102013A44BEE7F0459DD24C
:10053000BEEB02036CEB070C0138E14696E7A7EB34
:1005400009094944A8F1020CB1FBFEF909FB04F8C2
:10055000DBE773467FE7504666E70846FDE63B4427
:10056000023A33E7ACF1020C3B441CE749469CE7F6
:10057000A1EB0901C446B1FBFEF909FB04F8C4E78D
:10058000704700BF80B582B000AF786005F042F8D8
:1005900002467B68D31ADB43DB0FDBB21846083711
:1005A000BD4680BD80B483B000AF0346FB80FB88AE
:1005B00003F003039BB2002B1AD1FB88114AA2FB64
:1005C00003125209642101FB02F29B1A9BB2002B19
:1005D0000CD1FB880B4AA2FB0312D2094FF4C8715D
:1005E00001FB02F29B1A9BB2002B01D1012300E018
:1005F000002303F00103DBB218460C37BD465DF85B
:10060000047B70471F85EB5180B584B000AF7860E4
:1006100039600023FB607B68002B1ED03B68002BF9
:100620001BD07B689B78002B17D07B689B780C2BAA
:1006300013D87B68DB78002B0FD07B68DB781F2B0F
:100640000BD87B689B79172B07D87B68DB793B2B12
:1006500003D87B681B7A3B2B01D9002354E04FF46D
:10066000FA637B8111E07B891846FFF79BFF034605
:10067000002B02D04FF4B77301E040F26D13FA681B
:100680001344FB607B8901337B817B681B887A89FB
:100690009A42E8D37B689B78013B1D4A32F81330BD
:1006A0001A46FB681344FB607B689B78022B0AD9CF
:1006B0007B681B881846FFF775FF0346002B02D0A6
:1006C000FB680133FB607B68DB781A46FB681344E8
:1006D000013BFB60FB680F4A03FB02F27B689B79DE
:1006E00019464FF4616301FB03F31A447B68DB791D
:1006F00019460B461B015B1A9B0013447A68127A59
:100700001A443B681A60012318461037BD4680BD65
:10071000CC9B01088051010080B586B000AF2C4B06
:100720001B7883F00103DBB2002B06D1294B1B7829
:1007300083F00103DBB2002B02D04FF0FF3342E025
:1007400004F03EFE034683F00103DBB2002B26D10A
:1007500007F10803184604F0E1FD034683F00103A6
:10076000DBB2002B1BD13B4619461B48FFF74CFF61
:10077000034683F00103DBB2002B10D13A1D07F1D1
:10078000080311461846FFF73FFF034683F00103B5
:10079000DBB2002B03D17A683B689A4202D24FF059
:1007A000FF3310E07A683B68D31A0C4AA2FB03239C
:1007B0005B097B617B6941F29772934202D941F2F6
:1007C00097737B617B6918461837BD4680BD00BFB3
:1007D000380A00203B0A00203C0A002089888888CB
:1007E00080B584B002AF786039607B68002B2FD071
:1007F0003B68002B2CD0184B1B68002B05DA174ADE
:100800003968786818F044FC23E0134B1B68144ADD
:1008100082FB03129211DB17D01A0F4B1A68104B90
:1008200083FB02139911D317CB1A4FF47A7101FB92
:1008300003F3D31A0B4A82FB03129210DB17D31A6D
:1008400000930346084A3968786818F021FC00E0F4
:1008500000BF0837BD4680BD0C000020189A010873
:10086000D34D621067666666249A010880B582B02F
:1008700000AF786039607B68002B17D03B68002B95
:1008800014D00C4B93F9003013F1800F05D10A4AB4
:100890003968786818F0FCFB09E0064B93F90030E2
:1008A000064A3968786818F0F3FB00E000BF0837A3
:1008B000BD4680BD08000020349A01083C9A01081A
:1008C00080B582B000AF786039607B68002B20D0A3
:1008D0003B68002B1DD0114B1B7883F00103DBB26A
:1008E000002B05D00E4A3968786818F0D1FB11E06A
:1008F0000C4B1B780C4AA2FB03125209642101FB2A
:1009000002F29B1ADBB2094A3968786818F0C0FB1A
:1009100000E000BF0837BD4680BD00BF380A002098
:10092000449A01083A0A00201F85EB51489A0108B1
:1009300080B588B002AFF860B9607A60FFF7ECFE6E
:100940007861FB68002B29D0BB68002B26D07B6820
:10095000002B02D07B687A691A607B69B3F1FF3F94
:1009600005D1104AB968F86818F092FB17E07B6966
:100970000D4AA2FB0323580979690B4BA3FB012302
:100980005A0913461B019B1A9B00CA1A0092034680
:10099000064AB968F86818F07BFB00E000BF18371A
:1009A000BD4680BD509A010889888888589A0108F8
:1009B00080B485B000AF78607B68FB607B68002BFB
:1009C00002DA4FF0FF3317E0FB68B3F52F6F02DA5E
:1009D0004FF42F63FB60FB6841F20402934202DD97
:1009E00041F20403FB60FB68A3F52F63054A82FB19
:1009F00003129210DB17D31A18461437BD465DF860
:100A0000047B70474FECC44E80B590B002AFF860E5
:100A1000B9607A603B602B4B7B634FF0FF333B63E5
:100A20000323FB62FB68002B48D0BB68002B45D03A
:100A300007F1140318220021184618F05FFB07F194
:100A40001403184603F06CF97B691846FFF7B0FFF2
:100A50003863BB6AFB62BB6A012B02D11A4B7B6312
:100A60000DE0BB6A022B02D1184B7B6307E0BB6A27
:100A7000002B02D1164B7B6301E0124B7B637B683A
:100A8000002B02D07B68FA6A1A603B68002B02D008
:100A90003B683A6B1A603B6B002B08DB3B6B0093A7
:100AA0007B6B0C4AB968F86818F0F2FA07E07B6BC8
:100AB000094AB968F86818F0EBFA00E000BF383767
:100AC000BD4680BD649A0108689A0108749A0108BD
:100AD0007C9A0108849A01088C9A010890B58BB021
:100AE00004AF0446084611461A462346FB800346D7
:100AF000BB800B467B8013463B80FA887B8813447F
:100B0000FB82BA883B881344BB8208237B823B88E4
:100B1000184AA2FB03235B083B82FB8AFB813A88CD
:100B20003B8AD31A5B089AB2BB881344BB81BB8A49
:100B3000FA8AB988F88801240294002401940024D8
:100B4000009404F011F8FA897B8A13449CB2BA89A4
:100B50003B8A13449BB2B989F8890122029201228F
:100B6000019200220092224603F0FEFF00BF1C37D4
:100B7000BD4690BDABAAAAAAB0B58AB006AF786050
:100B800039607B68002B6CD03B68002B69D0374BF9
:100B90001B7883F00103DBB2002B05D0344A39689F
:100BA000786818F075FA5DE0324B1B7883F001032A
:100BB000DBB2002B41D02F4BDB78002B01D002237E
:100BC00006E02C4BDB79002B01D0012300E0002351
:100BD000FB60284B9B78002B01D0012500E000250D
:100BE000244B5B78002B01D0012300E00023214A35
:100BF0001279002A01D0012200E000221D49497922
:100C0000002901D0012100E000211A488079002844
:100C100001D0012000E00020164CE469E4B2059404
:100C2000FC68049403900291019200932B46124AAF
:100C30003968786818F02CFA14E00E4B1B8C1846B3
:100C40000C4B5B8C19460B4B1B690A4AD26802920B
:100C5000019300910346094A3968786818F018FA38
:100C600000E000BF1037BD46B0BD00BF390A00200C
:100C7000949A0108480A00209C9A0108B89A010831
:100C800080B5A2B004AF78604FF0FF337B614FF0C6
:100C9000FF333B6107F1700308211846FFF710FE90
:100CA00007F168037A6808211846FFF741FE5948A2
:100CB00003F004FDFF2003F0E3FD574B1B78002BEE
:100CC00047D007F1100307F1140207F118001821AB
:100CD000FFF79AFE2C2378220C211E20FFF7FEFE40
:100CE0003B69002B12DB3B6907F108004B4A0821E6
:100CF00018F0CEF907F1080200230193FF230093B7
:100D0000474B16213A2004F055F809E000230193DF
:100D1000FF230093424B434A1621382004F04AF83F
:100D200007F1180200230193FF2300933E4B422159
:100D3000202004F03FF87B68002B03D03B4B1A685F
:100D40007B681A607B693A4A13603B69394A1360D1
:100D50005CE007F1540312211846FFF741FD07F14B
:100D600048030C211846FFF781FD07F130031821D5
:100D70001846FFF701FF07F1700200230193FF23DC
:100D800000932D4B0221042004F014F807F16802AF
:100D900000230193FF230093274B02214C2004F0F2
:100DA00009F80123029300230193002300932223D7
:100DB000B2222221062003F02DFE07F1300200238B
:100DC0000193FF230093184B2A21062003F0F2FF22
:100DD00007F1540200230193FF230093124B3A21A1
:100DE000062003F0E7FF07F1480200230193FF23E9
:100DF00000930D4B3A21642003F0DCFF0C4B4FF0C5
:100E0000FF321A600B4B4FF0FF321A607837BD4645
:100E100080BD00BF4C020020370A0020CC9A010898
:100E200044000020D49A01083C000020100000205B
:100E300014000020180000204C00002080B582B073
:100E400000AF104B1B7883F00103DBB2002B13D1F2
:100E50000D4B1B78002B0FD1FFF75EFC78607B6891
:100E6000B3F1FF3F0AD0094B1B687A689A4206D05B
:100E7000054B01221A7002E000BF00E000BF0837F6
:100E8000BD4680BD380A0020360A00201000002030
:100E900080B588B000AF4FF0FF337B604FF0FF3379
:100EA0003B600F4B1B7883F00103DBB2002B13D1A7
:100EB0000C4B1B78002B0FD13B463A1D07F1080065
:100EC0001821FFF7A1FD7A68074B1B689A4204D0EE
:100ED000044B01221A7000E000BF2037BD4680BDE0
:100EE000370A0020360A00201400002080B582B0A6
:100EF00002AF03F0C1FAFF2300934FF48773B822C7
:100F00005821254803F088FB234803F0D7FBFF2036
:100F100003F0B6FC214B01221A70214B01221A70FA
:100F2000204B01221A70204B00221A701F4B002206
:100F30001A701F4B00221A701E4B00221A701E4B93
:100F400080221A701D4B4FF0FF321A601C4B00229A
:100F50001A700A2200211B4818F0D0F82C22002118
:100F6000194818F0CBF8194B00221A60184B0022D0
:100F70001A60184B00221A60174B4FF0FF321A60AC
:100F8000164B4FF0FF321A60154B4FF0FF321A60CC
:100F900001231846BD4680BD4C020020340A0020C3
:100FA000350A0020360A0020370A0020380A0020BF
:100FB000390A00203A0A0020080000200C00002016
:100FC0003B0A00203C0A0020480A0020740A002046
:100FD000780A00207C0A0020100000201400002065
:100FE0001800002080B500AF03F02CF90346184626
:100FF00080BD80B500AF03F037F90346184680BDC9
:1010000080B582B000AF0346FB71124B1B78FA79B2
:101010009A421BD00F4AFB7913700F4B01221A70B2
:1010200004F0F8FA034603F56A4360330B4A136091
:10103000FB7983F00103DBB2002B07D0084B4FF0A4
:10104000FF321A60074B4FF0FF321A6000BF0837BB
:10105000BD4680BD370A0020360A00207C0A0020E9
:10106000140000201800002080B584B000AFBA60E2
:101070007B600346FB730B46BB731C4B01221A704B
:101080001B4AFB7B13701B4ABB7B13701A4ABB685D
:1010900013601A4B00221A703B7E002B0DD07B6828
:1010A000002B0AD0164B7A681068516803C3128966
:1010B0001A80124B01221A7004E00A220021104803
:1010C00018F01CF804F0A6FA034603F56A436033EF
:1010D0000C4A13600C4B4FF0FF321A600B4B01228D
:1010E0001A7000BF1037BD4680BD00BF380A00200F
:1010F0003A0A0020080000200C0000203B0A0020D3
:101100003C0A0020780A002010000020360A002047
:10111000B0B582B000AF786039607B68002B08D131
:101120000F4B00221A702C2200210E4817F0E6FF08
:101130000EE00B4B01221A700A4A7B6814461D46CA
:101140000FCD0FC40FCD0FC495E8070084E807004A
:10115000054B01221A7000BF0837BD46B0BD00BF65
:10116000390A0020480A0020360A002080B582B0E3
:1011700000AF4FF0FF337B60404B1B7883F00103DF
:10118000DBB2002B6DD103F081F803F05BF803466E
:10119000002B68D13A4B1B681846FFF7F3F903465A
:1011A00083F00103DBB2002B5FD1364B1B78002BA1
:1011B0000FD003F001F80346002B58D0314B00222A
:1011C0001A7004F027FA034603F57A732C4A136069
:1011D0004DE02D4B1B78002B15D0FFF759FE2B4B04
:1011E0001B681846FFF7CEF90346002B21D0284B89
:1011F00001221A7004F00EFA034603F56A436033C5
:10120000224A136015E0234B1B78002B11D0224B90
:101210001B681846FFF7B6F90346002B09D0FFF705
:101220000DFE04F0F7F9034603F56A4360331A4AEA
:101230001360174B1B7883F00103DBB2002B18D12E
:101240003B1D1846FFF71CFD144802F0D5FF03466E
:10125000002B0FD00E4B00221A707B68104A1360CF
:1012600008E000BF06E000BF04E000BF02E000BFEE
:1012700000E000BF0837BD4680BD00BF340A002033
:10128000740A0020350A0020370A00207C0A00205A
:10129000360A0020380A0020780A00204C0200207C
:1012A0001000002080B582B000AF7860396003F094
:1012B0009DFF034683F00103DBB2002B01D0002326
:1012C00072E004F09BF8034683F00103DBB2002BCD
:1012D00001D0002368E0012004F0FCF8034683F00D
:1012E0000103DBB2002B01D000235DE078680EF033
:1012F00083FF034683F00103DBB2002B01D0002300
:1013000052E0386800F0EEFB02F078FB00F0B8F92C
:1013100000F0C8FA01F0F8FD03461A46244B1A7093
:10132000FFF7E4FD034683F00103DBB2002B01D09D
:10133000002339E000F07EF903461A461D4B1A706F
:101340001D4B00221A7000F00BFA00F083F90346DF
:10135000184602F095FC01200EF074FF0EF0C6FF57
:1013600000F0F4FA034683F00103DBB2002B01D056
:10137000002319E000F09AF90346002B06D000F094
:10138000DFF90E4B01221A7001230DE00B4B0022F6
:101390001A7017F063FA034683F00103DBB2002BE7
:1013A00001D000F074F9012318460837BD4680BD0E
:1013B000890A0020810A0020880A0020800A002073
:1013C00080B592B000AF4FF0FF337B6400F016FAA7
:1013D00000F0D0FB564B1B78DBB2002B0CD000F09A
:1013E0008BF9034683F00103DBB2002B04D0504B92
:1013F00000221A7002F0D8FC4E4B1B78002B18D03C
:101400004D4B1B78DBB2002B13D04C4B1B7883F079
:101410000103DBB2002B0CD001F090FE034683F0F9
:101420000103DBB2002B04D0434B00221A7001F001
:10143000ADFD404B1B78002B0ED0414B1B78DBB22F
:10144000002B09D001F07AFE0346002B04D03C4B60
:1014500000221A7001F006FE364B1B78002B1ED0BE
:1014600001F016FE07F11803184601F077FE034657
:10147000002B14D03B4618220021184617F03EFEE0
:101480003B46184602F04CFC3B7A002B01D03B68EF
:101490007B6407F11803796C1846FFF739FE00F0FA
:1014A0002BF9034683F00103DBB2002B18D000F0C8
:1014B000D1F80346184602F0E3FB02F04BFC03466A
:1014C000002B14BF01230023DBB283F00103DBB246
:1014D00003F00103DBB218460EF0B4FE0EF006FF77
:1014E00000F052FA00F080FAFFF740FE154B1B782F
:1014F000DBB2002B0BD117F0B1F90346002B06D05D
:1015000000F088F90346002B01D000F0C0F802F08B
:1015100021FC0346002B06D000F0C0F800F0F3F9E0
:1015200000F02EF901E000F02BF94837BD4680BDF0
:10153000850A0020890A0020830A0020870A0020EB
:10154000840A0020800A002080B582B000AF0346E4
:10155000FB80FB88102B06D100F06CF803461A467E
:10156000214B1A703CE0FB88042B32D104214FF050
:10157000904006F0A1FB0346002B17D11B4B012224
:101580001A701B4B1B78002B29D01A4B1B7883F049
:101590000103DBB2002B22D000200EF053FE164BCD
:1015A00001221A70154B00221A7018E00F4B1B789D
:1015B000DBB2002B13D00D4B00221A70104B01220E
:1015C0001A700B4B1B78002B09D00C4B01221A70A0
:1015D00005E0FB88082B03D10EF070FF00E000BF90
:1015E0000837BD4680BD00BF810A0020860A002062
:1015F000890A0020870A0020830A0020840A00202C
:10160000820A002080B400AF034B01221A7000BF91
:10161000BD465DF8047B7047850A002080B400AFAA
:10162000034B01221A7000BFBD465DF8047B704772
:10163000850A002080B500AF1021054806F03CFB6C
:101640000346002B01D0012300E00023184680BD93
:101650000010004880B500AF084B1B78DBB2002BB0
:1016600004D100F023F80346002B01D0012300E051
:10167000002303F00103DBB2184680BD810A00207D
:1016800080B400AF00BFBD465DF8047B704780B4F6
:1016900000AF00BFBD465DF8047B704780B400AF6B
:1016A00000BFBD465DF8047B7047000080B500AF09
:1016B000104B1B7883F00103DBB2002B07D117F02E
:1016C00075F9034683F00103DBB2002B01D0002340
:1016D0000DE017F07DF90346002B14BF0123002312
:1016E000DBB283F00103DBB203F00103DBB2184687
:1016F00080BD00BF880A002080B500AF0D4B1B786D
:10170000002B10D00C4B1B78DBB2002B09D10B4BFC
:101710001B78DBB2002B04D101F010FD0346002B37
:1017200001D0012300E0002303F00103DBB21846DF
:1017300080BD00BF890A0020830A0020840A00209F
:1017400080B500AF054B01221A70012016F0C4F9D4
:101750000120FFF755FC00BF80BD00BF870A0020B5
:1017600080B500AF054B00221A70002016F0B4F9C6
:101770000020FFF745FC00BF80BD00BF870A0020A6
:1017800080B500AF1A4B1B78002B11D1194B1B7879
:10179000002B0DD100F014FA0346002B08D1164B94
:1017A0001B78002B06D001F0C9FC0346002B01D0AA
:1017B00030BF1BE0FFF716FC0346002B09D0FFF7F4
:1017C00018FC034683F00103DBB2002B01D030BFCD
:1017D0000CE003F037FF012009F09CF800F07AFAE2
:1017E00000F0EEFA03F03EFF02F0DEFA80BD00BF2B
:1017F000870A0020880A0020890A002080B500AFEF
:10180000FFF718FF03461A46014B1A7000BF80BD50
:10181000810A002080B58EB000AF0023FB8017F056
:101820001DF8034683F00103DBB2002B03D016F052
:1018300039FA034632E017F007F8034683F0010354
:10184000DBB2002B01D0002328E002F0A1FA03460E
:1018500083F00103DBB2002B01D000231EE016F061
:10186000B5FF034683F00103DBB2002B01D0002358
:1018700014E0BA1D07F108033021184616F074F978
:101880000346002B07D0FB88302B04D107F1080357
:1018900018460EF087FF16F005FA0346184638374B
:1018A000BD4680BD80B500AF16F0D8FF034683F07B
:1018B0000103DBB2002B04D016F0F4F90346002B31
:1018C0000FD1FFF7A7FF0346002B0CD116F0BCFF8A
:1018D000034683F00103DBB2002B05D016F078F944
:1018E00002E000BF00E000BF80BD80B500AF16F091
:1018F000B5FF0346002B01D0FFF78CFF16F0D2F99D
:101900000346184680BD80B58CB000AF3B461846F4
:101910000EF0D6FE3B463021184616F0EDF80020BA
:101920000EF090FC16F09AFF034683F00103DBB241
:10193000002B06D016F09AFE0346002B01D016F0BD
:10194000C5FF00BF3037BD4680BD000080B500AF89
:101950000C4B1B78002B01D0012311E0FFF7C5FFD2
:10196000034683F00103DBB2002B01D0002307E024
:1019700017F006F815F0F8FE024B01221A70012349
:10198000184680BD880A002080B582B000AFFFF7FE
:101990008DFE0346FB71FB79002B0ED0104B1B789C
:1019A00083F00103DBB2002B03D0FFF777FEFFF7D4
:1019B000C7FE0C4B01221A700FE0094B1B78002B5D
:1019C00008D0FFF7CDFEFFF725FF0346002B01D01F
:1019D000FFF75DFE034B00221A700837BD4680BD3D
:1019E000870A0020800A002090B58FB002AF8023C4
:1019F000FB71002387F82F30002387F82E30012356
:101A000087F82D30354B1B78DBB2002B61D0334B80
:101A100000221A70324B1B78002B03D0282000F0D4
:101A20007BF857E007F1140318220021184617F03D
:101A300065FB07F11403184602F072F9FFF75CFE2C
:101A40000346002B04D0FB1D18460EF017FE03E0E2
:101A5000FB1D18460EF0D2FD03F0B2FC0346002B2E
:101A600009D007F10803184603F058FC0346002B81
:101A700001D0012300E0002387F82F3097F82F30A2
:101A800003F0010387F82F3097F9072097F82D30DE
:101A90001146184616F030F9034687F82E3097F9AC
:101AA00007403B7F002B01D07A6901E04FF0FF3205
:101AB00097F82F30002B02D007F1080300E0002335
:101AC00097F82D0097F82F1000912146FFF7CCFAD8
:101AD00000E000BF3437BD4690BD00BF820A002041
:101AE000870A002080B483B000AF7860074A7B6823
:101AF0001360074B00221A70064B00221A6000BFC9
:101B00000C37BD465DF8047B704700BF8C0A00208F
:101B1000900A0020940A002080B582B000AF78605F
:101B2000114B1B68002B18D0104B1B78002B0CD1CD
:101B30000D4B1B6808220F21184606F0C5FF03460F
:101B4000002B0CD1094B01221A7003F063FD0246F1
:101B50007B681344064A136002E000BF00E000BF48
:101B60000837BD4680BD00BF8C0A0020900A0020C7
:101B7000940A002080B500AF0E4B1B68002B14D0D8
:101B80000D4B1B78002B10D003F044FD02460B4B8D
:101B90001B68D31A002B0ADB064B1B68184606F09D
:101BA000E0FF054B00221A7002E000BF00E000BF1A
:101BB00080BD00BF8C0A0020900A0020940A0020FB
:101BC00080B400AF054B1B78002B14BF012300230A
:101BD000DBB21846BD465DF8047B7047900A0020D2
:101BE00080B483B000AF78604FF0B043D3F890304A
:101BF00023F018024FF0B0417B681343C1F89030D6
:101C000000BF0C37BD465DF8047B704780B485B0DB
:101C100000AF78604FF0B0439A6C4FF0B0417B68F2
:101C200013438B644FF0B0439A6C7B681340FB60A6
:101C3000FB6800BF1437BD465DF8047B704780B475
:101C400085B000AF78604FF0B043DA6C4FF0B04130
:101C50007B681343CB644FF0B043DA6C7B6813406E
:101C6000FB60FB6800BF1437BD465DF8047B70471E
:101C700080B500AF03F060FC00F02CF800F0A0F895
:101C800000F0C2FA00F0AEFA00F07EF90FF074F93D
:101C90000346002B01D000F0CCFB00F0AFF800F0C1
:101CA000A1F900F031F900F039FA00F00BF9074919
:101CB0000748FFF7F7FA034683F00103DBB2002B76
:101CC00001D000F0B6FBFFF77BFBFCE7740B0020B4
:101CD000200B002080B59AB000AF07F12003482206
:101CE0000021184617F00AFA3B1D00221A605A60BC
:101CF0009A60DA601A615A619A6108F09DFD1020BD
:101D0000FFF76EFF2D4B1B6823F4C0632B4A43F48F
:101D100000731360294B1B6803F4C0633B603B688E
:101D200027233B624FF480337B620123BB624FF475
:101D30008073FB620123FB6340233B6300233B640E
:101D400080237B640223FB6401233B6500237B65C6
:101D50000C23BB654FF4C023FB654FF020437B662B
:101D60004FF0C0633B6607F12003184609F092F973
:101D70000346002B01D000F05CFB6F237B60032344
:101D8000BB600023FB6000233B6100237B61A02339
:101D9000BB610023FB613B1D0121184609F0EEFCED
:101DA0000346002B01D000F044FB0BF092F80BF03F
:101DB00096F800BF6837BD4680BD00BF00040058DC
:101DC00080B594B000AF3B4650220021184617F072
:101DD00095F94FF400533B600123BB641023FB646F
:101DE0003B4618460AF0E9FA0346002B01D000F002
:101DF00020FB00BF5037BD4680BD000080B586B0D7
:101E000000AF3B4600221A605A609A60DA601A619D
:101E10005A61294B294A1A60274B00225A60264BE7
:101E200000229A60244B0022DA60234B00221A61C0
:101E3000214B04225A61204B00221A761E4B0022AD
:101E40005A761D4B0122DA611B4B002283F82020B9
:101E5000194B00229A62184B0022DA62164B0022BC
:101E600083F83020144B00225A63134B002283F86E
:101E70003820114803F01CFE0346002B01D000F06F
:101E8000D8FA0F4B3B6006237B600723BB607F23A0
:101E9000FB6004233B6100237B613B4619460648F7
:101EA00004F074F80346002B01D000F0C2FA00BF22
:101EB0001837BD4680BD00BF980A002000000450BE
:101EC0004000201980B500AF0D4B0E4A1A600C4B34
:101ED00000221A710A4B00225A71094B00225A61E2
:101EE000074B00229A61064B01221A62044804F053
:101EF000EBFE0346002B01D000F09BFA00BF80BD33
:101F0000FC0A00200030024080B500AF1B4B1C4A89
:101F10001A601A4B1B4A5A60184B00229A60174BE2
:101F20000122DA60154B00221A61144B00225A611B
:101F3000124B00229A61114B0022DA610F4B0022F2
:101F40001A620E4805F000FF0346002B01D000F096
:101F500070FA0021094806F033FC0346002B01D03B
:101F600000F067FA0021054806F075FC0346002BD7
:101F700001D000F05EFA00BF80BD00BF200B002042
:101F800000540040F93E501080B500AF134B144A86
:101F90001A60124B00225A60104B4FF420629A6074
:101FA0000E4B4FF6FF725A610C4B00221A620B4B1C
:101FB00000225A62094B00229A62084B0022DA6220
:101FC000064B00221A63054806F0DCFC0346002B92
:101FD00001D000F02EFA00BF80BD00BF740B0020BE
:101FE000007C004080B590B000AF07F12C030022C8
:101FF0001A605A609A60DA601A610023BB623B463D
:1020000028220021184617F079F8424B424A1A60FC
:10201000404B00225A603F4B7F229A603D4BFF228B
:10202000DA603C4B00221A613A4B00229A61394B2C
:102030000022DA61374B00225A6136480BF014FA5D
:102040000346002B01D000F0F4F9002387F82C3070
:10205000002387F82D30002387F82E3000233B63C0
:102060000023BB630023FB6307F12C030122194605
:1020700028480BF081FA0346002B01D000F0D9F973
:10208000012387F82830012387F82930012387F8B6
:102090002A30002387F82B3007F128030122194644
:1020A0001C480BF066FB0346002B01D000F0C1F981
:1020B00000233B7000237B700023BB7000237B60F8
:1020C0000023FB6000233B6100237B610023BB6195
:1020D0000023FB61012387F820304FF480737B627B
:1020E0003B46012219460B480BF01CFC0346002B13
:1020F00001D000F09EF90022002106480BF072FE8C
:102100000346002B01D000F094F900BF4037BD46D4
:1021100080BD00BFAC0B00200028004080B500AFA0
:102120002E4B2F4A1A602D4B00225A642B4B012252
:102130005A602A4B40229A64284B0022DA64274BCB
:1021400000221A65254B00229A60244B00225A6116
:10215000224B00229A61214B00229A621F4B0222DD
:10216000DA611E4B4AF644421A621C4B0022DA62C4
:102170001A4B00221A63194B012283F83820174B9F
:102180000222DA63154B4FF400721A64134B2022BB
:102190005A65124B01229A65104B0022DA650F4BEB
:1021A00000221A660D4B4FF480225A660B4B002218
:1021B0009A660A4B0022DA66084B04221A67074B1C
:1021C0004FF6FF725A6705480BF09AFF0346002B43
:1021D00001D000F02EF900BF80BD00BFD00B002061
:1021E0000454014080B500AF0420FFF70FFD01202B
:1021F000FFF70CFD002200210B2004F022FD0B2034
:1022000004F039FD00BF80BD80B586B000AF3B1D36
:1022100000221A605A609A60DA601A610420FFF79F
:102220000EFD0220FFF70BFD0120FFF708FD102037
:10223000FFF705FD002248F290014FF0904005F0B5
:1022400053FD002279216A4805F04EFD01237B6091
:102250004FF48813BB600023FB603B1D19464FF011
:10226000904005F0DBFA04237B604FF44413BB601D
:102270000123FB603B1D19464FF0904005F0CEFA5C
:1022800008237B604FF40413BB600123FB603B1DFC
:1022900019464FF0904005F0C1FA48F290037B6078
:1022A0000123BB600023FB6000233B613B1D1946FB
:1022B0004FF0904005F0B2FA60237B600023BB60D2
:1022C0000123FB603B1D19464FF0904005F0A6FA34
:1022D00079237B600123BB600023FB6000233B610B
:1022E0003B1D1946424805F099FA10237B604FF4D4
:1022F0004413BB600023FB603B1D19463D4805F0BD
:102300008DFA80237B604FF48813BB600023FB6051
:102310003B1D1946364805F081FA002200210620AF
:1023200004F08FFC062004F0A6FC00220021082007
:1023300004F087FC082004F09EFC00220021092004
:1023400004F07FFC092004F096FC002200210A2002
:1023500004F077FC0A2004F08EFC002200211720F4
:1023600004F06FFC172004F086FC01237B604FF41F
:102370000413BB600123FB603B1D19464FF09040E6
:1023800005F04CFA04237B604FF44413BB60012337
:10239000FB603B1D19464FF0904005F03FFA0823C3
:1023A0007B604FF40413BB600123FB603B1D1946A7
:1023B0004FF0904005F032FA00220521092004F088
:1023C00040FC092004F057FC00220521062004F0FF
:1023D00038FC062004F04FFC00220521082004F000
:1023E00030FC082004F047FC00BF1837BD4680BD14
:1023F000000400480010004880B582B000AF78604B
:10240000FFF700F900BF0837BD4680BD80B582B038
:1024100000AF0346FB80FB881846FFF795F800BF26
:102420000837BD4680BD80B500AFFFF7F7F800BFA5
:1024300080BD80B400AF72B600BF00BFFDE780B4BE
:1024400085B000AF78604FF0B0439A6C4FF0B04168
:102450007B6813438B644FF0B0439A6C7B681340E6
:10246000FB60FB6800BF1437BD465DF8047B704716
:1024700080B485B000AF78604FF0B043DA6C4FF0B5
:10248000B0417B681343CB644FF0B043DA6C7B6898
:102490001340FB60FB6800BF1437BD465DF8047B4A
:1024A000704780B485B000AF78604FF0B0431A6ECB
:1024B0004FF0B0417B6813430B664FF0B0431A6E88
:1024C0007B681340FB60FB6800BF1437BD465DF8B6
:1024D000047B704780B483B000AF78604FF0B043A6
:1024E0001A6E7B68DB434FF0B04113400B6600BFB0
:1024F0000C37BD465DF8047B704780B483B000AFF5
:1025000078604FF0B0431A6C4FF0B0417B681343D2
:102510000B6400BF0C37BD465DF8047B704780B488
:1025200083B000AF78604FF0B0431A6C7B68DB4338
:102530004FF0B04113400B6400BF0C37BD465DF84F
:10254000047B704780B582B000AF786003F062F81A
:1025500002467B68D31ADB43DB0FDBB21846083731
:10256000BD4680BD80B586B000AF3B1D00221A601D
:102570005A609A60DA601A610120FFF779FF4FF420
:10258000E1637B600223BB600023FB6000233B61AF
:1025900003237B613B1D19464FF0904005F03EF947
:1025A000092004F076FB00BF1837BD4680BD80B51A
:1025B00000AF012280214FF0904005F095FB00BF55
:1025C00080BD80B500AF012280214FF0904005F022
:1025D0008BFB00BF80BD80B586B000AF3B1D0022E5
:1025E0001A605A609A60DA601A614FF4E1614FF044
:1025F000904005F083FA4FF440737B600023BB608A
:102600000023FB603B1D19464FF0904005F006F992
:102610004FF480637B600023BB600023FB603B1DA5
:1026200019464FF0904005F0F9F808237B604FF40D
:102630004413BB600123FB603B1D19464FF09040E3
:1026400005F0ECF8092004F016FBFFF7BAFF00BF15
:102650001837BD4680BD80B594B000AF3B465022D0
:102660000021184616F04AFD40233B6018237B608A
:102670004FF40033BB604FF480337B6100233B6336
:102680003B46184609F099FE0346002B0CBF012378
:102690000023DBB218465037BD4680BD80B500AF81
:1026A0000120FFF7CCFE204B204A1A601E4B12225D
:1026B0005A601D4B00229A601B4B0022DA601A4BB5
:1026C00080221A61184B4FF400725A61164B4FF476
:1026D00000629A61144B2022DA61134B4FF40052CE
:1026E0001A62114804F0E2FB0346002B01D00023DC
:1026F00017E00D4B00229A620B4B0D4A1A630A4BEE
:102700000C4ADA62084B0C4A5A63074B00229A6360
:10271000002205210B2004F094FA0B2004F0ABFA00
:102720000123184680BD00BFC80C002008000240ED
:10273000692E0008A92E0008E92E000880B586B091
:1027400000AF0346FB71402009F0AEFF3861324B09
:10275000FB603A6913469B0013445B001A46FB6812
:102760005B00B2FBF3F3BB60BB682C4AA2FB032304
:10277000DB087B61B968294BA3FB0123DA08134608
:102780009B0013445B00CA1A082A02D97B690133F3
:102790007B614FF40010FFF784FE4FF40010FFF749
:1027A000ACFE4FF40010FFF7BAFE1D4B00221A607A
:1027B0001B4B00225A601A4B00229A60184B0022D1
:1027C000DA60174B00221A61154B4FF0FF329A6105
:1027D000134B5B68124A43F008035360FB79002BEC
:1027E00002D041F2812201E041F281027B691B05A6
:1027F0000B4913430B600A4B1F229A60084B094A8E
:10280000DA60094B00229A64074B40F221325A6485
:1028100000BF1837BD4680BD0080BB00CDCCCCCCFE
:1028200004540140000103000054014080B500AF92
:10283000124B4FF0FF329A61104B5B680F4A43F026
:10284000080353600E4A4FF400630E490E4804F02B
:10285000D5FB0346002B01D000230CE0074B1B687F
:10286000064A43F400331360044B1B68034A43F4E5
:10287000803313600123184680BD00BF045401401B
:10288000280D002020540140C80C002080B500AF66
:102890000F4B1B680E4A23F4003313600C4B1B686C
:1028A0000B4A23F480331360094B4FF0FF329A61D7
:1028B000084804F01EFC084B5B6C074A23F0010338
:1028C00053644FF40010FFF705FE00BF80BD00BF4A
:1028D00004540140C80C00200054014080B500AFF2
:1028E0002C220021054816F009FC044B00221A7026
:1028F000024B00221A8500BF80BD00BF442D00207E
:102900002DE9B04FBEB000AFC7F8AC000023C7F848
:10291000F0300023C7F8EC300023C7F8E83000237C
:10292000C7F8E4300023C7F8F430D3E0D7F8F43028
:102930005A00D7F8AC301344C7F8C4300023C7F8A6
:10294000C030E24AD7F8C43052F823301846FDF7B9
:1029500087FC03461A46D7F8C0301344C7F8C03086
:10296000D7F8C4305A1CD94B53F822301846FDF71B
:1029700077FC03461A46D7F8C0301344C7F8C03076
:10298000D7F8C030203BC7F8BC30D7F8BC301BB2FA
:10299000CF4A1385CE4B1B695A1CCD4B1A61D7F811
:1029A000BC30002BB8BF5B42C7F8B830D7F8F02076
:1029B000D7F8B8301344C7F8F030C54B1B8C1A4613
:1029C000D7F8B830934204D9D7F8B8309BB2C04A90
:1029D0001384D7F8BC30DA17C7F88030C7F88420E2
:1029E000D7F8EC30DA179A469346504659464FF0DE
:1029F00000024FF000034FEA8B0343EA9A734FEA59
:102A00008A02841A61EB03054FF000024FF00003C5
:102A10002B0143EA1473220114461D46B4EB0A0845
:102A200065EB0B094FF000024FF000034FEA8913EA
:102A300043EA98634FEA88129046994618EB0A03D6
:102A4000C7F8A03049EB0B03C7F8A4304FF00002E1
:102A50004FF00003D7F8A4108B00D7F8A01043EA7A
:102A60009173D7F8A0108A00C7E9282310461946A9
:102A70004FF000024FF00003820B42EA81428B13B9
:102A8000D7F880108918B967D7F8841041EB030391
:102A9000FB67D7F8E830DA173B677A67BB6FD7E98F
:102AA0001C0102469B1ABB61FB6F0A4663EB0203E3
:102AB000FB61D7E90623C7E92C23D7F8EC30C7F828
:102AC000E830D7F8B030C7F8EC30D7F8F43001333D
:102AD000C7F8F430D7F8F430B3F5007FFFF426AF31
:102AE000D7F8EC30DA17BB66FA66D7F8EC30DA17AD
:102AF0003B667A66D7E91A452B46D7E918894246DC
:102B000002FB03F24B46214601FB03F3134422462A
:102B10004146A2FB0112C7F89C200A46C7F898203C
:102B2000D7F89C201344C7F89C30D7E92634C7E96E
:102B30003634C7E93634D7F8E830DA17BB65FA65BA
:102B4000D7F8E830DA173B657A65D7E916452B46A2
:102B5000D7E91489424602FB03F24B46214601FBAA
:102B600003F3134422464146A2FB0112C7F8942006
:102B70000A46C7F89020D7F894201344C7F8943039
:102B8000D7E92434C7E93434C7E93434D7F8EC3012
:102B9000DA17BB64FA64D7E91289404649464FF018
:102BA00000024FF000034C46A300444643EA9473EE
:102BB0004446A200841A3C6161EB03037B614FF041
:102BC00000024FF00003D7E9044529460B012146D6
:102BD00043EA117321460A0110461946034642464C
:102BE0009B1ABB600B464A4663EB0203FB604FF047
:102BF00000024FF00003D7E9024529468B01214628
:102C000043EA916321468A0110461946034642462B
:102C10009B183B604B460A4642EB03037B604FF038
:102C200000024FF00003D7E9004529468B002146FA
:102C300043EA917321468A004FF000004FF00001F3
:102C4000900B40EA83409913D7F8E830DA173B64D9
:102C50007A64D7E91045234603FB01F22B4600FBBB
:102C600003F313442246A0FB0212C7F88C200A4645
:102C7000C7F88820D7F88C201344C7F88C30D7E9E0
:102C80002234C7E93234C7E93234D7E93601D7E90B
:102C900034238418BC6341EB0303FB63D7E932237D
:102CA000D7E90E4521468A4229468B4109DAD7F8F1
:102CB000D820D7F8D0301A44D7F8C830D31AC7F87C
:102CC000E430034B5B69013304E000BF280D0020B2
:102CD000442D00201E4A53611D4BDB6803F58063C1
:102CE0001B4AD360D7F8F03000223B637A63194B5C
:102CF000D3E90023D7E90C4521468918B962294652
:102D000043EB0101F962134BD7E90A12C3E9001240
:102D1000104BD3E900010E4B1B6900223B627A6223
:102D2000D7E90823FDF784FA02460B4692B2084B16
:102D30005A84074B5B6AD7F8E4209A4203D9044AC5
:102D4000D7F8E430536200BFF837BD46BDE8B08F16
:102D5000442D0020382D002080B500AF394B1B6872
:102D600003F48033002B14BF01230023DAB2364B67
:102D70001A71344B1B6803F40033002B14BF01237A
:102D80000023DAB2304B5A712E4B1B6803F40073E8
:102D9000002B14BF01230023DAB22B4BDA712B4B2B
:102DA0005B6C03F00103002B14BF01230023DAB294
:102DB000254B9A71264B1B685B68234A9361214B14
:102DC0005B69214AD361FFF761FDFFF704FC02F064
:102DD00021FC02461F4B1B68D31A1B4A93601E4BF3
:102DE0001B78DBB2002B14BF01230023DAB2164B91
:102DF0005A701A4B1B78DBB2002B14BF012300233F
:102E0000DAB2114B9A70104B0022DA700E4B1B692C
:102E1000002B08D00C4B9B7883F00103DBB2002B16
:102E200001D0012300E0002303F00103DAB2064BD6
:102E30001A700B4B00221A700A4B01221A7000BF45
:102E400080BD00BF04540140442D002000540140C7
:102E5000C80C00202C2D0020292D00202A2D002018
:102E6000402D0020422D002080B483B000AF786058
:102E70000B4B1B78DBB203F00103002B02D0094B94
:102E800001221A70064B1B78DBB243F00103DAB261
:102E9000034B1A7000BF0C37BD465DF8047B7047CA
:102EA000282D0020292D002080B483B000AF786049
:102EB0000B4B1B78DBB203F00203002B02D0094B53
:102EC00001221A70064B1B78DBB243F00203DAB220
:102ED000034B1A7000BF0C37BD465DF8047B70478A
:102EE000282D0020292D002080B483B000AF786009
:102EF000044B01221A7000BF0C37BD465DF8047BFD
:102F0000704700BF2A2D002080B500AF194B1B78F9
:102F1000002B01D001232AE0FFF79DFB034683F03D
:102F20000103DBB2002B01D0002320E0FFF7B6FB4A
:102F3000034683F00103DBB2002B01D0002316E02F
:102F4000FFF749FBFFF7CAFC0B4B00221A700B4B33
:102F500000221A700A4B00221A700A4B00221A70C3
:102F6000094B00221A70034B01221A7001231846E4
:102F700080BD00BF412D0020282D0020292D0020DC
:102F80002A2D0020402D0020422D002080B500AFCA
:102F9000294B1B7883F00103DBB2002B03D1274BB5
:102FA0001B78002B01D0002344E0FFF797FC4FF47F
:102FB00000520021224816F0A1F8224B00221A707C
:102FC000214B00221A70214B00221A70204B002244
:102FD0001A7002F01FFB03461E4A13601E4B0022AC
:102FE0001A601E494FF000024FF00003C1E90023B0
:102FF0001B4B00221A70FFF7DAFAFFF7B3FAFFF75C
:103000002AFB174B1B781846FFF798FBFFF70EFCBF
:10301000034683F00103DBB2002B07D0FFF7DBFA96
:103020004FF40010FFF756FA002303E0034B012290
:103030001A700123184680BD412D0020402D00202C
:10304000280D0020282D0020292D00202A2D0020C9
:10305000422D00202C2D0020302D0020382D002066
:10306000432D002080B500AF074B1B78012B08D102
:1030700002F0D0FA03462033044A1360024B0222C6
:103080001A7000BF80BD00BF402D0020302D0020F1
:1030900080B582B000AF254B1B78002B42D0244B6B
:1030A0001B78FB71FB7903F00103002B0AD0204B46
:1030B0001B78DBB223F00103DAB21D4B1A7000203B
:1030C000FFF71EFC1A4B1B78FB71FB7903F0020320
:1030D000002B0BD0164B1B78DBB223F00203DAB2C5
:1030E000134B1A704FF48060FFF70AFC114B1B78EA
:1030F000DBB2002B02D0FFF72FFE14E00B4B1B7846
:10310000022B10D10C4B1B681846FFF71BFA034625
:10311000002B08D0064B1B78DBB2002B03D1FFF746
:103120001BFE00E000BF0837BD4680BD402D0020DB
:10313000282D00202A2D0020302D002080B400AF43
:10314000054B1B78002B14BF01230023DBB218466C
:10315000BD465DF8047B7047402D0020B0B483B0BD
:1031600000AF7860104B1B7883F00103DBB2002BBB
:1031700002D17B68002B01D100230FE07B680B4A52
:103180001C4615460FCD0FC40FCD0FC495E80700A0
:1031900084E80700044B00221A70012318460C37FC
:1031A000BD46B0BC704700BF422D0020442D00201A
:1031B00080B500AF024803F0FBFF00BF80BD00BF39
:1031C000C80C002080B400AF4FF0B043D3F890306B
:1031D0004FF0B04243F40043C2F8903000BFBD4608
:1031E0005DF8047B704780B485B000AF78604FF025
:1031F000B0439A6C4FF0B0417B6813438B644FF03F
:10320000B0439A6C7B681340FB60FB6800BF1437C7
:10321000BD465DF8047B704780B485B000AF786030
:103220004FF0B043DA6C4FF0B0417B681343CB648E
:103230004FF0B043DA6C7B681340FB60FB6800BF63
:103240001437BD465DF8047B704780B485B000AF8D
:1032500078604FF0B0439A6D4FF0B0417B681343F4
:103260008B654FF0B0439A6D7B681340FB60FB6841
:1032700000BF1437BD465DF8047B704780B485B04D
:1032800000AF78604FF0B0431A6E4FF0B0417B68EA
:1032900013430B664FF0B0431A6E7B681340FB601C
:1032A000FB6800BF1437BD465DF8047B704780B5EE
:1032B00000AF07F01FFB00220021362003F0C1FC05
:1032C000362003F0D8FC00BF80BD000080B59CB064
:1032D00000AF786007F15C0300221A605A609A60C0
:1032E000DA601A6107F10C0350220021184615F02C
:1032F00005FF7B681B68154A934223D14FF4806316
:10330000FB604FF04053BB6407F10C03184609F013
:1033100054F80346002B01D0FFF78BF84FF4005010
:10332000FFF77AFF0120FFF777FF0223FB650323F6
:103330003B6600237B6607F15C0319464FF0904023
:1033400004F06CFA00BF7037BD4680BD0000045029
:1033500080B582B000AF78607B681B68054A9342F5
:1033600003D14FF48050FFF73EFF00BF0837BD4642
:1033700080BD00BF0030024080B59CB000AF7860D7
:1033800007F15C0300221A605A609A60DA601A61E1
:1033900007F10C0350220021184615F0AFFE7B68A0
:1033A0001B68174A934226D10423FB604FF4403335
:1033B000FB6207F10C03184608F0FFFF0346002BE1
:1033C00001D0FFF736F80220FFF726FF4FF44073D5
:1033D000FB6512233B6601237B660023BB66042347
:1033E000FB6607F15C031946064804F017FA4FF430
:1033F0000010FFF72AFF00BF7037BD4680BD00BF39
:10340000005400400004004880B59CB000AF7860D4
:1034100007F15C0300221A605A609A60DA601A6150
:1034200007F10C0350220021184615F067FE7B6857
:103430001B68164A934225D11023FB604FF44023AA
:103440007B6307F10C03184608F0B7FF0346002B17
:1034500001D0FEF7EEFF4FF00040FFF7F6FE02202E
:10346000FFF7DAFE0423FB6502233B6600237B663D
:103470000023BB660123FB6607F15C031946044881
:1034800004F0CCF900BF7037BD4680BD007C004021
:103490000004004880B596B000AF786007F10803DB
:1034A00050220021184615F029FE7B681B68164A39
:1034B000934225D14FF40063BB604FF48073BB642B
:1034C00007F10803184608F078FF0346002B01D0E7
:1034D000FEF7AFFFFFF776FE4FF48060FFF7B5FE13
:1034E00000220021032003F0ACFB032003F0C3FB08
:1034F00000220021292003F0A4FB292003F0BBFBBC
:1035000000BF5837BD4680BD0028004080B59CB044
:1035100000AF786007F10C0350220021184615F027
:10352000EDFD7B681B683F4A934276D14023FB60E8
:103530000C233B614FF4C0237B614FF0C063BB6140
:103540004FF0C043FB614FF480333B620023FB63C9
:1035500007F10C03184608F030FF0346002B01D09A
:10356000FEF767FF304B1B68002B0BD14FF40010A8
:10357000FFF784FE00220021262003F062FB2620B4
:1035800003F079FB284B1B680133274A13604FF483
:10359000E063FB6502233B6600237B660023BB667A
:1035A0000323FB6607F15C0319464FF0904004F0DB
:1035B00035F91E4B1E4A1A601C4B12225A601B4BD7
:1035C00000229A60194B0022DA60184B80221A619F
:1035D000164B4FF400725A61144B4FF400629A611B
:1035E000124B0022DA61114B4FF400521A620F485D
:1035F00003F05CFC0346002B01D0FEF71AFF7B684A
:103600000A4AC3F88420094A7B6893627B68074AA8
:10361000C3F88020054A7B68936200BF7037BD46BF
:1036200080BD00BF04540140702D0020680C0020B4
:103630000800024080B400AF00BFFDE780B400AFD7
:1036400000BFFDE780B400AF00BFFDE780B400AF6E
:1036500000BFFDE780B400AF00BFFDE780B400AF5E
:1036600000BFBD465DF8047B704780B400AF00BF6B
:10367000BD465DF8047B704780B400AF00BFBD4617
:103680005DF8047B704780B500AF01F0AFFF00BF6D
:1036900080BD000080B500AF02480AF0CFFC00BF3B
:1036A00080BD00BFAC0B002080B500AF012004F04E
:1036B00033FB00BF80BD80B500AF042004F02CFBBD
:1036C00000BF80BD80B500AF082004F025FB00BF1F
:1036D00080BD80B500AF102004F01EFB00BF80BD90
:1036E00080B500AFFFF764FD00BF80BD80B500AFBF
:1036F000024805F021FC00BF80BD00BFC837012093
:1037000080B500AF024805F017FC00BF80BD00BFC8
:10371000C837012080B500AF802004F0FDFA00BF5B
:1037200080BD80B400AF00BFBD465DF8047B70472C
:1037300080B500AF02480AF045FA00BF80BD00BF67
:10374000AC0B002080B400AF00BFBD465DF8047B29
:10375000704780B500AF07F009F900BF80BD0000D9
:1037600080B586B000AF7860144A154BD31A7B61E0
:103770007B693B61134B1B68002B02D1114B124A32
:103780001A60104B1A687B6813443A699A4207D250
:1037900015F0BCFC03460C221A604FF0FF3309E021
:1037A000084B1B68FB60074B1A687B681344054A8B
:1037B0001360FB6818461837BD4680BD0000032023
:1037C00000040000742D0020783E012080B400AF7A
:1037D000244BD3F88830234A43F47003C2F888306E
:1037E0004FF0B0431B684FF0B04243F00103136049
:1037F0004FF0B0434FF4E0229A604FF0B0431A68A4
:103800004FF0B041184B13400B604FF0B043D3F86A
:1038100094304FF0B04223F00503C2F894304FF0DB
:10382000B043D3F898304FF0B04223F00103C2F810
:1038300098304FF0B0430D4ADA604FF0B0430B4A76
:103840001A614FF0B0431B684FF0B04223F480235D
:1038500013604FF0B04300229A6100BFBD465DF88F
:10386000047B704700ED00E0FBFEF6FA0010042236
:10387000D458C4500433C4188C42F9D37047036041
:1038800004308842FBD370470C488546FFF79EFF03
:103890000B480C490C4A0023FFF7EDFF0B480C497D
:1038A0000C4A0023FFF7E7FF0B480C490023FFF702
:1038B000E8FF15F031FCFEF7DBF9FEE7000003201E
:1038C00008000020300200205CCC0108000003202A
:1038D0000000032084CE010830020020743E012045
:1038E000FEE780B485B000AF78604FF0B043DA6C8B
:1038F0004FF0B0417B681343CB644FF0B043DA6CB8
:103900007B681340FB60FB6800BF1437BD465DF861
:10391000047B704780B483B000AF786039607A6808
:103920003B68D31ADB43DB0FDBB218460C37BD46CE
:103930005DF8047B7047000080B586B000AF1F4B78
:103940001B78002B36D11D4B01221A700220FFF785
:10395000C8FF0120FFF7C5FF3B1D00221A605A6017
:103960009A60DA601A6101237B600123BB60002347
:10397000FB6000233B613B1D1946114803F04EFFDD
:103980004FF480637B600023BB600023FB603B1D22
:1039900019464FF0904003F041FF02237B60032360
:1039A000BB600023FB603B1D19464FF0904003F0C5
:1039B00035FF00E000BF1837BD4680BD782D0020E0
:1039C0000004004880B582B000AF0346FB71FB796C
:1039D0001A460121064804F087F9064AFB7913705C
:1039E000054AFB79D37200BF0837BD4680BD00BFD2
:1039F00000040048792D00202400002080B500AF8D
:103A0000FFF79AFF0B4B00221A7001F003FE0346EA
:103A10006433094A1360094B00221A600120FFF742
:103A2000D1FF012000F04EF8002000F019F800BF8F
:103A300080BD00BF7A2D00207C2D0020802D00202D
:103A400080B500AF4FF480614FF0904004F034F93E
:103A50000346002B0CBF01230023DBB2184680BDB8
:103A600080B582B000AF0346FB71134AFB795372F5
:103A7000124B1A78104B9A72114B1A780E4BDA725D
:103A8000FB79184600F09CF903460B4A53610A4B38
:103A90005B69012B0CBF01230023DAB2064B1A73BA
:103AA000FB79184600F0CAF803461A46024B1A740E
:103AB00000BF0837BD4680BD240000202000002044
:103AC000792D002080B584B000AF0346FB7101F072
:103AD000A1FDF860FB7983F00103DBB2002B0FD06E
:103AE000314B1B7A002B0BD0304B1B681946F86802
:103AF000FFF710FF034683F00103DBB2002B4ED12A
:103B000000F07AF9B860FB6803F57A73274A13600E
:103B1000BB68002B13DA244B4FF0FF321A60224BA4
:103B2000234A5A60204B00221A721F4B00225A73FC
:103B30001D4B00229A731C4B0022DA7330E01A4AA4
:103B4000BB681360BB6807EE903AB8EEE77ADFED2A
:103B5000196AC7EE267A144BC3ED017A124B012283
:103B60001A72BB6840F6B832934294BF0123002317
:103B7000DAB20D4B5A73BB68B3F52F6F94BF0123B4
:103B80000023DAB2084B9A73BB6841F203029342F6
:103B90008CBF01230023DAB2034BDA7300E000BFCD
:103BA0001037BD4680BD00BF24000020802D0020BE
:103BB000000080BF00007A4480B483B000AF0346A9
:103BC000FB71FB7983F00103DBB2002B01D00023F2
:103BD00028E0174B1B7883F00103DBB2002B01D0E8
:103BE00000231FE0134B1B7A83F00103DBB2002B91
:103BF00001D0012316E0104B1B78002B0AD00D4B8F
:103C00001B681A4641F203039A4294BF0123002322
:103C1000DBB207E0074B1B68B3F57A6F94BF012353
:103C20000023DBB218460C37BD465DF8047B7047B5
:103C30002000002024000020792D002080B483B0D3
:103C400000AF0346FB71FB79002B01D001230EE08E
:103C50000A4B1B7A002B06D0084B1B68B3F5486F44
:103C600001D3012300E0002303F00103DBB2184677
:103C70000C37BD465DF8047B704700BF2400002070
:103C800080B584B000AF0346FB7101F0C3FCF8605F
:103C9000FB79002B08D0204B1B7883F00103DBB2AB
:103CA000002B01D0012300E00023FB72FB7A03F01C
:103CB0000103FB72FB7A002B06D0FB686433174AC2
:103CC00013600120FFF77EFEFB7A1846FFF7FAFE2D
:103CD000124B1B681946F868FFF71CFE034683F079
:103CE0000103DBB2002B03D00120FFF76BFE07E0DE
:103CF000FB791846FFF760FF03461846FFF762FEA0
:103D0000FB791846FFF7ACFE034AFB79137000BF3E
:103D10001037BD4680BD00BF7A2D00207C2D0020CD
:103D2000B0B483B000AF78607B68002B0AD07B68AA
:103D3000074A1C4615460FCD0FC495E8030084E8DA
:103D4000030000E000BF0C37BD46B0BC704700BFA9
:103D50002400002080B400AF0C4B5B7A83F0010399
:103D6000DBB2002B09D0094B1B7A002B05D0074B87
:103D70009B7B002B01D0012300E0002303F0010313
:103D8000DBB21846BD465DF8047B70472400002076
:103D900080B500AF034B5B7A1846FFF74FFF034631
:103DA000184680BD2400002080B400AF034B0022E1
:103DB0001A6000BFBD465DF8047B7047802D00206F
:103DC00080B582B000AF0346FB71FFF739FE0346B2
:103DD000002B01D0012309E0FB79002B05D0054B16
:103DE0001B78002B01D0022300E00023184608377F
:103DF000BD4680BD792D002080B58AB000AF3B461E
:103E000000221A605A609A60DA601A615A6140F6BC
:103E10001C437B62474B3B6006237B600723BB60F0
:103E20007F23FB6004233B6100237B613B461946F3
:103E3000414802F0ABF80346002B02D04FF0FF33AD
:103E400073E03D4801F080FF0346002B02D04FF0A5
:103E5000FF336AE00521384801F0FDFF0346002BDF
:103E600005D0354801F0C4FF4FF0FF335DE0324824
:103E700002F07EF803467B842F4801F0B9FF2F4BF8
:103E80001B881A464FF4616303FB02F27B8CB2FB82
:103E9000F3F37B622A4B3B6006237B600723BB6006
:103EA0007F23FB6004233B6100237B613B46194673
:103EB000214802F06BF80346002B02D04FF0FF338D
:103EC00033E01D4801F040FF0346002B02D04FF0C5
:103ED000FF332AE00521184801F0BDFF0346002BFF
:103EE00005D0154801F084FF4FF0FF331DE0124864
:103EF00002F03EF803463B840F4801F079FF3B8C0B
:103F00007A6A03FB02F20F4BA3FB0213D21A520888
:103F10001344DB0AFB61FB690B4A02FB03F30B4A08
:103F2000A2FB03239B0BBB61BB6918462837BD4628
:103F300080BD00BF01000080980A0020AA75FF1F05
:103F4000400020190101100088E307001B923D5931
:103F500080B582B000AF786001F05CFB02467B6800
:103F6000D31ADB43DB0FDBB218460837BD4680BDF2
:103F700080B582B000AF03463960FB710B4AFB7914
:103F800013700B4A3B6813600A4B01221A7001F050
:103F900041FB03460A33084A1360002240210748C8
:103FA00003F0A2FE00BF0837BD4680BD842D00206F
:103FB000902D0020852D0020882D00200004004831
:103FC00080B500AF012000F0E3FAB72000F002FB5B
:103FD000002000F0FFFA002000F0FCFA112000F0B1
:103FE000D7FA012000F0F6FA442000F0D1FA0020C0
:103FF00000F0F0FA0A2000F0EDFA452000F0C8FACF
:10400000B72000F0E7FA002000F0E4FA002000F00A
:10401000E1FA002000F0DEFA3C2000F0B9FA0520B9
:1040200000F0D8FA212000F0B3FA002000F0D2FA14
:10403000802000F0CFFA182000F0AAFA802000F0CB
:10404000C9FA4E2000F0A4FA002000F0C3FA4F2075
:1040500000F09EFAB72000F0BDFA002000F0BAFA96
:1040600000BF80BD80B500AF012000F091FA27208D
:1040700000F0B0FA012000F0ADFA012000F0AAFA39
:10408000112000F085FA012000F0A4FA442000F08D
:104090007FFA002000F09EFA0A2000F09BFA4520EB
:1040A00000F076FA272000F095FA012000F092FA4D
:1040B000002000F08FFA002000F08CFA3C2000F085
:1040C00067FA052000F086FA212000F061FA00204E
:1040D00000F080FA802000F07DFA182000F058FAF5
:1040E000802000F077FA4E2000F052FA002000F015
:1040F00071FA4F2000F04CFA272000F06BFA0120F3
:1041000000F068FA00BF80BD80B582B000AF242007
:1041100000F03EFA00237B6005E0FF2000F05AFA31
:104120007B6801337B607B68B3F5FD6FF5D300BF1F
:1041300000BF0837BD4680BD80B586B000AF78604F
:104140007B68002B27D00B23FB60B823BB602420A7
:1041500000F01EFA00233B6118E000237B610EE0B3
:104160003B69FA6803FB02F27B6913447A681344E3
:104170001B78184600F02EFA7B6901337B617A695F
:10418000FB689A42ECD33B6901333B613A69BB68F7
:104190009A42E2D300E000BF1837BD4680BD80B52B
:1041A00000AF222000F0F4F9F72000F013FA2020ED
:1041B00000F0EEF900BF80BD80B500AF0C4B1B785E
:1041C000DBB2002B0AD10B4B1B681846FFF7C0FE71
:1041D000034683F00103DBB2002B01D0002304E08F
:1041E00000210120FFF7C4FE0123184680BD00BF57
:1041F000852D00208C2D002080B582B000AF786026
:104200007B68002B0FD00D4B1B78DBB2002B0AD143
:104210000B4B1B681846FFF79BFE034683F0010318
:10422000DBB2002B01D0002304E079680220FFF705
:104230009FFE012318460837BD4680BD852D00200E
:104240008C2D002080B400AF064B1B78DBB2002B16
:1042500014BF01230023DBB21846BD465DF8047B82
:10426000704700BF852D002080B400AF064B1B783F
:10427000DBB2033B032B01D8012300E000231846E7
:10428000BD465DF8047B7047852D002080B500AFEA
:10429000664B1B78DBB2062B00F2B08001A252F80D
:1042A00023F000BF11440008C1420008F742000893
:1042B000174300083343000875430008C343000850
:1042C0005B4B1B681846FFF743FE034683F0010370
:1042D000DBB2002B40F09E8001224021554803F0C4
:1042E00003FD01F097F903460A33514A13604F4B1F
:1042F00002221A7099E04E4B1B681846FFF728FE01
:10430000034683F00103DBB2002B40F08580474B6E
:1043100003221A7089E08021464803F0CDFC034651
:10432000012B7BD0122000F033F9404B04221A708D
:104330007BE080213F4803F0BFFC0346012B6FD098
:104340003D4B1B78DBB2012B02D1FFF739FE0DE0AC
:10435000394B1B78DBB2022B02D1FFF783FE05E05D
:10436000324B00221A70344B00221A702F4B052258
:104370001A705AE080212F4803F09EFC0346012B5F
:1043800050D02D4B1B78DBB2012B02D1FFF7BCFEC6
:1043900011E0294B1B78DBB2022B05D1274B1B68A0
:1043A0001846FFF7C9FE06E0204B00221A70224B88
:1043B00000221A7039E0FFF7F2FE1C4B06221A7039
:1043C00033E080211B4803F077FC0346012B2BD000
:1043D000102000F0DDF8012000F0FCF801F01AF9DF
:1043E00003466433164A1360104B00221A70124BB6
:1043F00000221A70114B00221A6016E00B4B0022AB
:104400001A700D4B00221A700C4B00221A600CE03F
:1044100000BF0AE000BF08E000BF06E000BF04E004
:1044200000BF02E000BF00E000BF80BD852D00207E
:10443000882D002000040048842D0020902D0020AD
:104440008C2D002080B485B000AF78604FF0B04371
:10445000DA6C4FF0B0417B681343CB644FF0B0434C
:10446000DA6C7B681340FB60FB6800BF1437BD4605
:104470005DF8047B7047000080B586B000AF3B1D3F
:1044800000221A605A609A60DA601A610120FFF710
:10449000D9FF0220FFF7D6FF4FF400437B600123D2
:1044A000BB600023FB6000233B613B1D19464FF0BE
:1044B000904003F0B3F910237B603B1D1946184868
:1044C00003F0ACF940237B603B1D1946144803F010
:1044D000A5F920237B603B1D1946114803F09EF986
:1044E00008237B603B1D19460D4803F097F9802394
:1044F0007B604FF44413BB600123FB603B1D1946F6
:10450000074803F08BF900220521172002F099FBE0
:10451000172002F0B0FB00BF1837BD4680BD00BFBA
:104520000004004880B584B000AF0346FB71002250
:104530000821164803F0D8FB0023FB731EE097F90F
:104540000730002B05DA01222021104803F0CCFBB4
:1045500004E0002220210D4803F0C6FB01220821BF
:104560000A4803F0C1FB00220821084803F0BCFB05
:10457000FB795B00FB71FB7B0133FB73FB7B072B40
:10458000DDD900BF00BF1037BD4680BD0004004824
:1045900080B582B000AF0346FB7100224FF40041AA
:1045A0004FF0904003F0A0FB00221021084803F0D8
:1045B0009BFBFB791846FFF7B5FF01224FF4004142
:1045C0004FF0904003F090FB00BF0837BD4680BD20
:1045D0000004004880B582B000AF0346FB710022A2
:1045E0004FF400414FF0904003F07EFB0122102178
:1045F000084803F079FBFB791846FFF793FF012287
:104600004FF400414FF0904003F06EFB00BF0837BD
:10461000BD4680BD0004004880B485B000AFF8609E
:10462000084611461A4603467B810B463B811346DA
:10463000FB80214B00221A601F4AFB6813601E4A50
:104640007B8913811C4A3B8953811B4A3B8B938195
:104650007B8903F007039BB2002B03D17B89DB0826
:104660009BB204E07B89DB089BB201339BB2124A08
:104670005382114A3B8993820F4AFB88D3810E4BA8
:1046800000221A82FB88002B02D0FB88B42B06D1B3
:10469000094A7B899380084A3B89D38006E0064A11
:1046A0003B899380044A7B89D38000BF00BF1437C5
:1046B000BD465DF8047B7047942D002080B483B024
:1046C00000AF7860044A7B68136000BF0C37BD46BA
:1046D0005DF8047B704700BF942D002080B487B044
:1046E00000AF0346FB800B46BB8013467B80634BC9
:1046F0009B88FA889A4200F2B480604BDB88BA88C3
:104700009A4200F2AE805D4BDB89B3F5877F2BD0F8
:10471000B3F5877F00F3A780B42B16D0B42B00F33A
:10472000A280002B02D05A2B05D09CE0FB88FB8294
:10473000BB88BB8222E0514B1A89BB88D31A9BB23B
:10474000013BFB82FB88BB8218E04C4B1A89FB883B
:10475000D31A9BB2013BFB82484B5A89BB88D31AC0
:104760009BB2013BBB8209E0BB88FB82434B5A8969
:10477000FB88D31A9BB2013BBB8200BF3F4B1B8A15
:10478000032B72D801A252F823F000BFDB470008C8
:104790009D470008AD470008BD470008374B1A8900
:1047A000FB8AD31A9BB2013BFB8217E0334B5A8939
:1047B000BB8AD31A9BB2013BBB820FE02F4B1A89F5
:1047C000FB8AD31A9BB2013BFB822C4B5A89BB8AD2
:1047D000D31A9BB2013BBB8200E000BF274B1B8971
:1047E000FA8A9A4243D8254B5B89BA8A9A423ED8C4
:1047F000FB8ADB089BB21946BB8A204A528A02FB1D
:1048000003F30B443B611D4B1A683B6913441B784F
:10481000FB737B88002B12D1FB8A03F007036FF038
:10482000800242FA03F35AB297F90F30134059B29B
:10483000124B1A683B691344CAB21A7018E0FB8A1B
:1048400003F00703802242FA03F35AB297F90F30BC
:10485000134359B2094B1A683B691344CAB21A7020
:1048600006E000BF04E000BF02E000BF00E000BFC0
:104870001C37BD465DF8047B704700BF942D0020B7
:1048800080B485B000AF0346FB800023BB811CE0F1
:104890000023FB8111E0FA89BB891249498A01FB97
:1048A00003F31344BB600F4B1A68BB681344FA88C8
:1048B000D2B21A70FB890133FB810A4B5B8AFA89F9
:1048C0009A42E8D3BB890133BB81064B9B8ABA89E4
:1048D0009A42DDD300BF00BF1437BD465DF8047BAC
:1048E000704700BF942D002090B585B000AF0446FE
:1048F000084611461A462346FB800346BB800B46FA
:104900007B8013467B70424B9B88FA889A427AD808
:104910003F4BDB88BA889A4275D897F82030012B34
:1049200044D10023FB8139E00023BB8129E0FA88D0
:10493000B7F90E301A447B78D31A002B28DBBA88DB
:10494000B7F90C301A447B78D31A002B20DBFA8994
:10495000FB8813449AB27B789BB2D31A98B2BA8977
:10496000BB8813449AB27B789BB2D31A9BB27A88E5
:104970001946FFF7B3FEB7F90C309BB201339BB277
:10498000BB81B7F90C207B785B00013B9A42CEDB00
:10499000B7F90E309BB201339BB2FB81B7F90E2001
:1049A0007B785B00013B9A42BEDB2DE00023FB815C
:1049B00023E00023BB8115E0FA89FB8813449BB2F6
:1049C000013B98B2BA89BB8813449BB2013B9BB2AE
:1049D0007A881946FFF782FEB7F90C309BB2013393
:1049E0009BB2BB81B7F90C207B789A42E4DBB7F924
:1049F0000E309BB201339BB2FB81B7F90E207B785E
:104A00009A42D6DB00E000BF1437BD4690BD00BF20
:104A1000942D002090B58DB002AF04460846114693
:104A20001A462346FB800346BB800B467B80134619
:104A30003B804B4B9B88FA889A4200F28880484B17
:104A4000DB88BA889A4200F28280454B9B887A883C
:104A50009A427CD8424BDB883A889A4277D8FB88C6
:104A6000FB84BB88BB847A88FB88D31A002BB8BF31
:104A70005B42BB613A88BB88D31A002BB8BF5B424C
:104A80005B427B61FA887B889A4201D2012301E074
:104A90004FF0FF333B61BA883B889A4201D2012331
:104AA00001E04FF0FF33FB60BA697B6913443B625E
:104AB0000023FB77FB7F0133FB7797F83C30012B1A
:104AC00017D1FA7F274BA3FB021359080B465B0053
:104AD0000B44D31ADBB2002B0BD197F84030B98CC2
:104AE000F88C01220092FF22FFF7FEFE0023FB77E5
:104AF00008E097F840303A8FB98CF88C0124009484
:104B0000FFF7F2FE3B6A5B007A699A420CDCFA8C92
:104B10007B889A421DD03A6A7B6913443B623B69A9
:104B20009AB2FB8C1344FB843B6A5B00BA699A42DD
:104B3000C0DBBA8C3B889A420DD03A6ABB691344F9
:104B40003B62FB689AB2BB8C1344BB84B2E700BFE4
:104B500002E000BF00E000BF2C37BD4690BD00BFA3
:104B6000942D0020ABAAAAAA90B589B004AF044640
:104B7000084611461A462346FB800346BB800B4677
:104B80007B8013463B80374B9B88FA889A4264D8D7
:104B9000344BDB88BA889A425FD8324B9B887A883C
:104BA0009A425AD82F4BDB883A889A4255D897F8C0
:104BB0002430002B18D0BB88FB8110E0FC897A8858
:104BC000F989F88897F828300293002301933B8CE9
:104BD00000932346FFF71EFFFB890133FB81FA890F
:104BE0003B889A42EAD339E0BC887A88B988F88849
:104BF00097F828300293002301933B8C00932346BF
:104C0000FFF708FF3C88FA88B988F88897F82830B9
:104C10000293002301933B8C00932346FFF7FAFE97
:104C2000BC887A883988788897F8283002930023DE
:104C300001933B8C00932346FFF7ECFE3C88FA88F7
:104C40003988788897F828300293002301933B8CA9
:104C500000932346FFF7DEFE00E000BF1437BD4699
:104C600090BD00BF942D002080B588B000AF7B6060
:104C70000346FB810B46BB811346FB724C4B9B8862
:104C8000FA899A4200F28F80494BDB88BA899A42AE
:104C900000F28980FB7A203B7A68D28802FB03F31A
:104CA0007A689288D20892B211467A68928802F0A5
:104CB000070292B2002A14BF01220022D2B20A4493
:104CC00002FB03F37B617B681A687B691344BB6159
:104CD0000023FB8361E00023BB834CE03B8DFF2B73
:104CE00018D1BB691B781946BB8B03F007038022E0
:104CF00042FA03F30B40002B31D0FA89BB8B1344EB
:104D000098B2BA89FB8B13449BB2BA8D1946FFF750
:104D1000E5FC24E0BB691B781946BB8B03F0070355
:104D2000802242FA03F30B40002B0CD0FA89BB8B94
:104D3000134498B2BA89FB8B13449BB2BA8D1946BF
:104D4000FFF7CCFC0BE0FA89BB8B134498B2BA890D
:104D5000FB8B13449BB23A8D1946FFF7BFFCBB8B0C
:104D600003F007039BB2072B02D1BB690133BB6180
:104D7000BB8B0133BB837B689B88BA8B9A42ADD3D4
:104D80007B689B8803F007039BB2002B02D0BB69B2
:104D90000133BB61FB8B0133FB837B68DB88FA8BC0
:104DA0009A4298D300E000BF2037BD4680BD00BFC7
:104DB000942D002080B588B002AFBA607B600346B6
:104DC000FB810B46BB81FB89FB82BB89BB82214BEC
:104DD0009B88FA899A4238D81E4BDB88BA899A4256
:104DE00033D82DE0FB8A7A6892881344194A928856
:104DF000934206DDFB89FB827B68DA88BB8A134419
:104E0000BB82BB8A7A68D2881344124AD288934202
:104E100003DDFB89FB82BB89BB82BB681A78B98A38
:104E2000F88ABB8C01933B8C00937B68FFF71CFFD7
:104E3000BB680133BB607B689A88FB8A1344FB82A2
:104E4000BB681B78002BCDD100E000BF1837BD46F2
:104E500080BD00BF942D002080B483B000AF786087
:104E60007B68002B01D1002312E07B681B78172B95
:104E700001D900230CE07B685B783B2B01D9002330
:104E800006E07B689B783B2B01D9002300E00123DF
:104E900018460C37BD465DF8047B704780B483B07C
:104EA00000AF78607B68002B01D100232BE07B688A
:104EB0001B88B3F5FA6F05D37B681B8840F6330275
:104EC000934201D900231EE07B689B78002B03D01E
:104ED0007B689B780C2B01D9002314E07B68DB787E
:104EE000002B03D07B68DB781F2B01D900230AE05D
:104EF0007B681B79002B03D07B681B79072B01D9BA
:104F0000002300E0012318460C37BD465DF8047B02
:104F10007047000080B483B000AF114B7B6000236A
:104F20003B600FE00F4A3B6813441B781A467B68CE
:104F300053407B607B680C4A02FB03F37B603B6859
:104F400001333B60074A3B6813441B78002BE9D1CF
:104F50007B6818460C37BD465DF8047B704700BF80
:104F6000C59D1C81E8CA01089301000180B485B089
:104F700000AF78607B68002B01D1002329E000237B
:104F8000FB7322E07B681A78FB7B154911F823300C
:104F90009A4217D17B6801331A78FB7B10499B003A
:104FA0000B445B789A420DD17B6802331A78FB7B05
:104FB0000B499B000B449B789A4203D1FB7B013346
:104FC000DBB206E0FB7B0133FB73FB7B0B2BD9D9F8
:104FD000002318461437BD465DF8047B704700BFB8
:104FE00000CB010880B485B000AF0346FB800B46C0
:104FF0007B7113463B71FB88FB817B79022B02D8C6
:10500000FB89013BFB81FB89FA89920892B2134428
:10501000FA891649A1FB0212520992B29B1AFA8927
:105020001249A1FB0212D20992B213447A79013AD1
:105030000F498A5C1A443B791A440E4BA3FB0213B6
:10504000D11A49080B4499080B46DB005B1AD11AA8
:105050000B467B737B7B002B01D07B7B00E007231F
:1050600018461437BD465DF8047B70471F85EB5129
:1050700030CB01082549922480B58AB000AF786012
:10508000584A07F1180307CA83E80700564A07F190
:105090000C0307CA03C31A707B68002B01D10023DD
:1050A0009BE007F118031846FFF760FF034687F8F7
:1050B000273097F82730002B01D100238DE03B7F6C
:1050C000202B03D03B7F303BDBB200E0002387F88E
:1050D0002630FB7F1A465201D21A92001344DB009D
:1050E0009AB297F82030194689000B441946880077
:1050F000194603460B449B009BB213449AB297F89F
:105100002130194689000B445B009BB213449BB2CB
:1051100097F8222013449BB203F53E5330339AB2E2
:105120007B681A807B6897F827209A7097F826305A
:105130001A46920013445B00DAB27B7F1344DBB261
:10514000303BDAB27B68DA703B7B1A46920013443C
:105150005B00DAB27B7B1344DBB2103BDAB27B68D4
:105160009A71FB7B1A46920013445B00DAB23B7CD7
:105170001344DBB2103BDAB27B68DA71BB7C1A46AF
:10518000920013445B00DAB2FB7C1344DBB2103BA9
:10519000DAB27B681A727B6818887B6899787B68BA
:1051A000DB781A46FFF71EFF03461A467B681A7122
:1051B0007B681846FFF772FE0346002B09D07B6818
:1051C00006331846FFF748FE0346002B01D00123A3
:1051D00000E0002303F00103DBB218462837BD4688
:1051E00080BD00BFD89A0108E49A010880B400AFDE
:1051F000064B1B68064A93420CBF01230023DBB217
:105200001846BD465DF8047B704700BFAC0B00201C
:105210000028004080B588B000AF786007F10C032B
:1052200000221A605A609A60DA601A610023BB603B
:10523000FFF7DCFF034683F00103DBB2002B17D13D
:105240007B68002B14D07B681846FFF727FE0346C7
:1052500083F00103DBB2002B0AD17B6806331846CA
:10526000FFF7FAFD034683F00103DBB2002B01D008
:10527000002348E07B689B793B737B68DB797B7319
:105280007B681B7ABB730023BB610023FB617B68D7
:105290001B793B727B689B787B727B68DB78BB7287
:1052A0007B681B881A4AA2FB03125209642101FB86
:1052B00002F29B1A9BB2DBB2FB7207F10C030022D5
:1052C0001946144808F058F90346002B01D0002372
:1052D00019E007F10803002219460E4808F049FAC0
:1052E0000346002B01D000230DE00B4A132109488F
:1052F00008F0CAFEFFF70EFE03461A4612210548C3
:1053000008F0C2FE012318462037BD4680BD00BF0D
:105310001F85EB51AC0B00203143545280B588B04F
:1053200000AF786007F10C0300221A605A609A609F
:10533000DA601A610023BB60FFF758FF034683F071
:105340000103DBB2002B02D17B68002B01D10023CB
:1053500030E007F10C0300221946184808F0ABF9B9
:105360000346002B01D0002324E007F108030022AC
:105370001946124808F086FA0346002B01D0002394
:1053800018E03A7B7B689A717A7B7B68DA71BA7B2A
:105390007B681A72FB7A03F5FA639AB27B681A800B
:1053A0007A7A7B689A70BA7A7B68DA703A7A7B6824
:1053B0001A71012318462037BD4680BDAC0B002072
:1053C00080B500AFFFF712FF034683F00103DBB2A5
:1053D000002B01D000230AE01321064808F06EFEDE
:1053E0000346054A93420CBF01230023DBB2184653
:1053F00080BD00BFAC0B00203143545280B584B057
:1054000000AFFFF7F3FE034683F00103DBB2002B8E
:1054100001D0002322E0FFF77DFDF860FFF7D0FF09
:105420000346002B09D012210E4808F047FE024621
:10543000FB68934201D1012310E03B461846FFF779
:105440001BFE034683F00103DBB2002B01D00023D7
:1054500004E03B461846FFF7DDFE034618461037CA
:10546000BD4680BDAC0B002080B584B000AFFFF717
:10547000A7FF034683F00103DBB2002B09D13B1DDC
:105480001846FFF74BFF034683F00103DBB2002B06
:1054900001D000231AE0BB8840F2BB72934201D8CE
:1054A000002313E0BB88A3F2BC735A06BB795B05EB
:1054B0001A43FB791B041A43BB7ADB021A43FB7ABB
:1054C0005B0113433A7B5208D2B21343184610379C
:1054D000BD4680BD80B582B000AF7860FFF786FE24
:1054E000034683F00103DBB2002B01D000231DE053
:1054F0007B68002B03D07B68B3F5803F01D9002384
:1055000014E00C4808F03AFD0346002B01D00023BC
:105510000CE07B68013B04221946064808F062FC57
:105520000346002B0CBF01230023DBB218460837CB
:10553000BD4680BDAC0B002080B582B000AF00231B
:10554000FB710C4B1B680B4A43F480731360032000
:1055500001F06CFB0F2000F00FF80346002B02D087
:105560000123FB7101E0FDF7A2FEFB791846083725
:10557000BD4680BD0040005880B584B000AF786063
:105580000023FB73174B1B78002B24D006F0A2FAE4
:105590000246144B1B7819464FF47A73B3FBF1F3B0
:1055A000B2FBF3F3184601F082FB0346002B0FD148
:1055B0007B680F2B09D8002279684FF0FF3001F08B
:1055C00040FB094A7B68136007E00123FB7304E09A
:1055D0000123FB7301E00123FB73FB7B18461037AB
:1055E000BD4680BD580000205400002080B400AFAC
:1055F000064B1B781A46064B1B681344044A13607B
:1056000000BFBD465DF8047B704700BF5800002016
:10561000AC2D002080B400AF034B1B681846BD467C
:105620005DF8047B704700BFAC2D002080B400AF54
:10563000034B1B681846BD465DF8047B704700BFEE
:105640005400002080B400AF054B1B68044A23F0CF
:105650000203136000BFBD465DF8047B704700BFC6
:1056600010E000E080B400AF054B1B68044A43F033
:105670000203136000BFBD465DF8047B704700BFA6
:1056800010E000E080B483B000AF786039607B68E0
:105690009B6823F47C123B681A437B689A6000BFC6
:1056A0000C37BD465DF8047B704780B483B000AF13
:1056B000786039607B689B6823F0E0723B681A432E
:1056C0007B689A6000BF0C37BD465DF8047B70476D
:1056D00080B483B000AF78607B689B6803F0E073B0
:1056E00018460C37BD465DF8047B704780B487B020
:1056F00000AFF860B9607A603B60FB6860331A46BF
:10570000BB689B0013447B617B691A68084B13409C
:105710007A6802F0F8413A680A43134343F00042C2
:105720007B691A6000BF1C37BD465DF8047B70477B
:1057300000F0FF0380B485B000AF786039607B680B
:1057400060331A463B689B001344FB60FB681B6890
:1057500003F0F84318461437BD465DF8047B7047E4
:1057600080B487B000AFF860B9607A60FB686033DE
:105770001A46BB689B0013447B617B691B6823F05E
:1057800000427B681A437B691A6000BF1C37BD4624
:105790005DF8047B704780B483B000AF78607B68AD
:1057A000DB6803F44063002B01D1012300E00023F8
:1057B00018460C37BD465DF8047B704780B487B04F
:1057C00000AFF860B9607A60FB6830331A46BB6896
:1057D0001B0A9B0003F00C0313447B617B691A686E
:1057E000BB6803F01F031F2101FA03F3DB431A40D8
:1057F0007B689B0E03F01F01BB6803F01F0301FAD7
:1058000003F31A437B691A6000BF1C37BD465DF87D
:10581000047B704780B487B000AFF860B9607A60ED
:10582000FB6814331A46BB685B0E9B0003F004034D
:1058300013447B617B691A68BB681B0D03F01F036F
:10584000072101FA03F3DB431A40BB681B0D03F089
:105850001F03796801FA03F31A437B691A6000BFDA
:105860001C37BD465DF8047B7047000080B485B0EE
:1058700000AFF860B9607A60FB68D3F8B020BB680D
:10588000C3F31203DB431A407B6803F01803084993
:10589000D940BB680B40C3F312031A43FB68C3F83B
:1058A000B02000BF1437BD465DF8047B704700BFD1
:1058B000FFFF070080B483B000AF78607B689B680F
:1058C00023F0204323F03F037A68936000BF0C3736
:1058D000BD465DF8047B704780B483B000AF78604C
:1058E0007B689B6803F00053B3F1005F01D1012393
:1058F00000E0002318460C37BD465DF8047B704776
:1059000080B483B000AF78607B689B6823F010435D
:1059100023F03F0343F080527B689A6000BF0C374E
:10592000BD465DF8047B704780B483B000AF7860FB
:105930007B689B6803F08053B3F1805F01D1012342
:1059400000E0002318460C37BD465DF8047B704725
:1059500080B483B000AF78607B689B6823F000431D
:1059600023F03F0343F001027B689A6000BF0C37CD
:10597000BD465DF8047B704780B483B000AF7860AB
:105980007B689B6823F0004323F03F0343F002024F
:105990007B689A6000BF0C37BD465DF8047B70479A
:1059A00080B483B000AF78607B689B6803F001032C
:1059B000012B01D1012300E0002318460C37BD461E
:1059C0005DF8047B704780B483B000AF78607B687B
:1059D0009B6803F00203022B01D1012300E00023A6
:1059E00018460C37BD465DF8047B704780B483B021
:1059F00000AF78607B689B6823F0004323F03F038F
:105A000043F004027B689A6000BF0C37BD465DF826
:105A1000047B704780B483B000AF78607B689B687C
:105A200023F0004323F03F0343F010027B689A60A9
:105A300000BF0C37BD465DF8047B704780B483B06F
:105A400000AF78607B689B6803F00403042B01D1EE
:105A5000012300E0002318460C37BD465DF8047BA7
:105A6000704780B483B000AF78607B689B6823F098
:105A7000004323F03F0343F020027B689A6000BF9D
:105A80000C37BD465DF8047B704780B483B000AF2F
:105A900078607B689B6803F00803082B01D1012321
:105AA00000E0002318460C37BD465DF8047B7047C4
:105AB00080B588B000AF78600023FB770023BB611E
:105AC0000023BB607B68002B01D101232EE17B68A2
:105AD0001B69002B7B685B6D002B09D17868FDF793
