:020000040800F2
:100000000000032025360008ED330008F533000812
:10001000FD330008053400080D340008000000001E
:10002000000000000000000000000000153400087F
:100030002334000800000000313400083F34000879
:100040007D360008BB3400087D3600084D340008BA
:100050007D3600087D360008AD3400087D36000886
:10006000C7340008D534000861340008F1340008B2
:100070007D3600087D3600087D3600087D36000894
:100080007D3600087D3600087D3600087D36000884
:10009000713400087D3600087D360008E33400081E
:1000A0007D3600087D3600087D3600087D36000864
:1000B0007D3600087D3600087D3600087D36000854
:1000C0007D3600087D360008853400087D3600083E
:1000D0007D3600087D3600087D3600087D36000834
:1000E0007D360008993400087D3600087D3600080A
:1000F0007D3600087D3600087D3600087D36000814
:100100007D3600087D3600087D3600087D36000803
:100110007D3600087D3600087D3600087D360008F3
:100120007D3600087D3600087D3600087D360008E3
:0C0130007D3600087D3600087D36000892
:1001400010B5054C237833B9044B13B10448AFF311
:1001500000800123237010BD300200200000000049
:10016000E891010808B5034B1BB103490348AFF3FD
:10017000008008BD0000000034020020E891010862
:10018000034613F8012B002AFBD1181A01387047D7
:1001900001F0FF01102A2BDB10F0070F08D010F838
:1001A000013B013A8B422DD010F0070F42B3F6D13C
:1001B000F0B441EA012141EA014122F007047FF055
:1001C00000070023F0E80256083C85EA010586EAAC
:1001D000010685FA47F5A3FA87F586FA47F6A5FAE8
:1001E00087F68EB9EED1F0BC01F0FF0102F00702F4
:1001F00032B110F8013B013A83EA010313B1F8D19F
:100200000020704701387047002D06BF354603387F
:10021000073815F0010F07D1013015F4807F02BFB8
:10022000013015F4C03F0130F0BC0138704700BF09
:1002300053B94AB9002908BF00281CBF4FF0FF314D
:100240004FF0FF3000F09CB9ADF1080C6DE904CE21
:1002500000F01AF8DDF804E0DDE9022304B070478D
:10026000430803F05533C01A830803F0333300F01A
:100270003330184400EB101000F00F3000EB00207A
:1002800000EB0040000E70472DE9F047089D8E46B8
:1002900004468846002B4AD18A42174662D9B2FAF0
:1002A00082F64EB1C6F1200301FA06F820FA03F3F4
:1002B000B74043EA0808B4404FEA174E1FFA87FCDC
:1002C000B8FBFEF1230C0EFB118843EA084301FB47
:1002D0000CF29A4209D9FB1801F1FF3080F0EA8054
:1002E0009A4240F2E78002393B449A1AA3B2B2FB29
:1002F000FEF00EFB102243EA024300FB0CFC9C457F
:1003000009D9FB1800F1FF3280F0D6809C4540F2FD
:10031000D3803B44023840EA0140A3EB0C030021A8
:100320001DB1F3400022C5E90032BDE8F0878B42E1
:1003300005D90DB1C5E9000100210846F5E7B3FA7A
:1003400083F1002946D1734502D3824200F2058130
:10035000841A6EEB030201209046002DE5D0C5E91A
:100360000048E2E7002A00F09080B2FA82F6002E00
:1003700040F0A4808A1A030C4FEA174E80B2BCB238
:100380000121B2FBFEFC0EFB1C2243EA024304FBEC
:100390000CF29A4207D9FB180CF1FF3802D29A42AC
:1003A00000F2E080C4469B1AB3FBFEF20EFB123350
:1003B00040EA034302FB04F49C4207D9FB1802F114
:1003C000FF3002D29C4200F2CA8002461B1B42EA66
:1003D0000C40A5E7C1F120068B4022FA06F71F4327
:1003E0000EFA01F420FA06F32EFA06FE4FEA174938
:1003F000234300FA01F81FFA87FCBEFBF9F01C0C3E
:1004000009FB10EE44EA0E4400FB0CFEA64502FA7E
:1004100001F209D93C1900F1FF3A80F09C80A64511
:1004200040F2998002383C44A4EB0E041FFA83FE8C
:10043000B4FBF9F309FB13444EEA044403FB0CFC40
:10044000A44508D93C1903F1FF3E80F08280A44501
:100450007FD9023B3C4443EA0040A4EB0C04A0FBE0
:1004600002EC64457346E14662D35FD05DB1B8EB00
:10047000030264EB090404FA06F622FA01F31E43B0
:10048000CC40C5E9006400214FE7B1FBF2FC010C50
:1004900041EA0E4180B240EA01423B4638463C46C2
:1004A000B846BE462026B1FBF7F1A2EB080241EAAE
:1004B0000C4166E7014618E710462CE7C6F120021A
:1004C0002EFA02F3B740B14020FA02F24FEA174E7B
:1004D0000A43B3FBFEF8BCB20EFB1833110C41EA21
:1004E000034108FB04F9B04089454FEA104380B24C
:1004F0003ED9791808F1FF3C01D289451FD8A1EBFC
:100500000901B1FBFEF909FB04F80EFB191192B2C7
:1005100042EA0142424529D2BA1809F1FF31C4D258
:100520004245C2D2A9F102013A44BEE7F0459DD24C
:10053000BEEB02036CEB070C0138E14696E7A7EB34
:1005400009094944A8F1020CB1FBFEF909FB04F8C2
:10055000DBE773467FE7504666E70846FDE63B4427
:10056000023A33E7ACF1020C3B441CE749469CE7F6
:10057000A1EB0901C446B1FBFEF909FB04F8C4E78D
:10058000704700BF80B582B000AF786005F090FD85
:1005900002467B68D31ADB43DB0FDBB21846083711
:1005A000BD4680BD80B483B000AF0346FB80FB88AE
:1005B00003F003039BB2002B1AD1FB88114AA2FB64
:1005C00003125209642101FB02F29B1A9BB2002B19
:1005D0000CD1FB880B4AA2FB0312D2094FF4C8715D
:1005E00001FB02F29B1A9BB2002B01D1012300E018
:1005F000002303F00103DBB218460C37BD465DF85B
:10060000047B70471F85EB5180B584B000AF7860E4
:1006100039600023FB607B68002B1ED03B68002BF9
:100620001BD07B689B78002B17D07B689B780C2BAA
:1006300013D87B68DB78002B0FD07B68DB781F2B0F
:100640000BD87B689B79172B07D87B68DB793B2B12
:1006500003D87B681B7A3B2B01D9002354E04FF46D
:10066000FA637B8111E07B891846FFF79BFF034605
:10067000002B02D04FF4B77301E040F26D13FA681B
:100680001344FB607B8901337B817B681B887A89FB
:100690009A42E8D37B689B78013B1D4A32F81330BD
:1006A0001A46FB681344FB607B689B78022B0AD9CF
:1006B0007B681B881846FFF775FF0346002B02D0A6
:1006C000FB680133FB607B68DB781A46FB681344E8
:1006D000013BFB60FB680F4A03FB02F27B689B79DE
:1006E00019464FF4616301FB03F31A447B68DB791D
:1006F00019460B461B015B1A9B0013447A68127A59
:100700001A443B681A60012318461037BD4680BD65
:10071000BC9301088051010080B586B000AF2C4B1E
:100720001B7883F00103DBB2002B06D1294B1B7829
:1007300083F00103DBB2002B02D04FF0FF3342E025
:1007400005F08CFB034683F00103DBB2002B26D1BE
:1007500007F10803184605F02FFB034683F0010359
:10076000DBB2002B1BD13B4619461B48FFF74CFF61
:10077000034683F00103DBB2002B10D13A1D07F1D1
:10078000080311461846FFF73FFF034683F00103B5
:10079000DBB2002B03D17A683B689A4202D24FF059
:1007A000FF3310E07A683B68D31A0C4AA2FB03239C
:1007B0005B097B617B6941F29772934202D941F2F6
:1007C00097737B617B6918461837BD4680BD00BFB3
:1007D000380A00203B0A00203C0A002089888888CB
:1007E00080B584B002AF786039607B68002B2FD071
:1007F0003B68002B2CD0184B1B68002B05DA174ADE
:100800003968786818F03CF823E0134B1B68144AE9
:1008100082FB03129211DB17D01A0F4B1A68104B90
:1008200083FB02139911D317CB1A4FF47A7101FB92
:1008300003F3D31A0B4A82FB03129210DB17D31A6D
:1008400000930346084A3968786818F019F800E000
:1008500000BF0837BD4680BD0C000020089201088B
:10086000D34D6210676666661492010880B582B047
:1008700000AF786039607B68002B17D03B68002B95
:1008800014D00C4B93F9003013F1800F05D10A4AB4
:100890003968786817F0F4FF09E0064B93F90030E7
:1008A000064A3968786817F0EBFF00E000BF0837A8
:1008B000BD4680BD08000020249201082C9201084A
:1008C00080B582B000AF786039607B68002B20D0A3
:1008D0003B68002B1DD0114B1B7883F00103DBB26A
:1008E000002B05D00E4A3968786817F0C9FF11E06F
:1008F0000C4B1B780C4AA2FB03125209642101FB2A
:1009000002F29B1ADBB2094A3968786817F0B8FF1F
:1009100000E000BF0837BD4680BD00BF380A002098
:10092000349201083A0A00201F85EB5138920108E1
:1009300080B588B002AFF860B9607A60FFF7ECFE6E
:100940007861FB68002B29D0BB68002B26D07B6820
:10095000002B02D07B687A691A607B69B3F1FF3F94
:1009600005D1104AB968F86817F08AFF17E07B696B
:100970000D4AA2FB0323580979690B4BA3FB012302
:100980005A0913461B019B1A9B00CA1A0092034680
:10099000064AB968F86817F073FF00E000BF18371F
:1009A000BD4680BD40920108898888884892010828
:1009B00080B485B000AF78607B68FB607B68002BFB
:1009C00002DA4FF0FF3317E0FB68B3F52F6F02DA5E
:1009D0004FF42F63FB60FB6841F20402934202DD97
:1009E00041F20403FB60FB68A3F52F63054A82FB19
:1009F00003129210DB17D31A18461437BD465DF860
:100A0000047B70474FECC44E80B590B002AFF860E5
:100A1000B9607A603B602B4B7B634FF0FF333B63E5
:100A20000323FB62FB68002B48D0BB68002B45D03A
:100A300007F1140318220021184617F057FF07F199
:100A40001403184603F03AF87B691846FFF7B0FF25
:100A50003863BB6AFB62BB6A012B02D11A4B7B6312
:100A60000DE0BB6A022B02D1184B7B6307E0BB6A27
:100A7000002B02D1164B7B6301E0124B7B637B683A
:100A8000002B02D07B68FA6A1A603B68002B02D008
:100A90003B683A6B1A603B6B002B08DB3B6B0093A7
:100AA0007B6B0C4AB968F86817F0EAFE07E07B6BCD
:100AB000094AB968F86817F0E3FE00E000BF38376C
:100AC000BD4680BD54920108589201086492010805
:100AD0006C920108749201087C92010890B58BB069
:100AE00004AF0446084611461A462346FB800346D7
:100AF000BB800B467B8013463B80FA887B8813447F
:100B0000FB82BA883B881344BB8208237B823B88E4
:100B1000184AA2FB03235B083B82FB8AFB813A88CD
:100B20003B8AD31A5B089AB2BB881344BB81BB8A49
:100B3000FA8AB988F88801240294002401940024D8
:100B4000009403F0DFFEFA897B8A13449CB2BA89D1
:100B50003B8A13449BB2B989F8890122029201228F
:100B6000019200220092224603F0CCFE00BF1C3707
:100B7000BD4690BDABAAAAAAB0B58AB006AF786050
:100B800039607B68002B6CD03B68002B69D0374BF9
:100B90001B7883F00103DBB2002B05D0344A39689F
:100BA000786817F06DFE5DE0324B1B7883F001032F
:100BB000DBB2002B41D02F4BDB78002B01D002237E
:100BC00006E02C4BDB79002B01D0012300E0002351
:100BD000FB60284B9B78002B01D0012500E000250D
:100BE000244B5B78002B01D0012300E00023214A35
:100BF0001279002A01D0012200E000221D49497922
:100C0000002901D0012100E000211A488079002844
:100C100001D0012000E00020164CE469E4B2059404
:100C2000FC68049403900291019200932B46124AAF
:100C30003968786817F024FE14E00E4B1B8C1846B8
:100C40000C4B5B8C19460B4B1B690A4AD26802920B
:100C5000019300910346094A3968786817F010FE3D
:100C600000E000BF1037BD46B0BD00BF390A00200C
:100C700084920108480A00208C920108A892010879
:100C800080B5A2B004AF78604FF0FF337B614FF0C6
:100C9000FF333B6107F1700308211846FFF710FE90
:100CA00007F168037A6808211846FFF741FE5948A2
:100CB00003F0D2FBFF2003F0B1FC574B1B78002B55
:100CC00047D007F1100307F1140207F118001821AB
:100CD000FFF79AFE2C2378220C211E20FFF7FEFE40
:100CE0003B69002B12DB3B6907F108004B4A0821E6
:100CF00017F0C6FD07F1080200230193FF230093BC
:100D0000474B16213A2003F023FF09E0002301930B
:100D1000FF230093424B434A1621382003F018FF6B
:100D200007F1180200230193FF2300933E4B422159
:100D3000202003F00DFF7B68002B03D03B4B1A688B
:100D40007B681A607B693A4A13603B69394A1360D1
:100D50005CE007F1540312211846FFF741FD07F14B
:100D600048030C211846FFF781FD07F130031821D5
:100D70001846FFF701FF07F1700200230193FF23DC
:100D800000932D4B0221042003F0E2FE07F16802DC
:100D900000230193FF230093274B02214C2003F0F3
:100DA000D7FE012302930023019300230093222303
:100DB000B2222221062003F0FBFC07F130020023BF
:100DC0000193FF230093184B2A21062003F0C0FE55
:100DD00007F1540200230193FF230093124B3A21A1
:100DE000062003F0B5FE07F1480200230193FF231C
:100DF00000930D4B3A21642003F0AAFE0C4B4FF0F8
:100E0000FF321A600B4B4FF0FF321A607837BD4645
:100E100080BD00BF4C020020370A0020BC920108B0
:100E200044000020C49201083C0000201000002073
:100E300014000020180000204C00002080B582B073
:100E400000AF104B1B7883F00103DBB2002B13D1F2
:100E50000D4B1B78002B0FD1FFF75EFC78607B6891
:100E6000B3F1FF3F0AD0094B1B687A689A4206D05B
:100E7000054B01221A7002E000BF00E000BF0837F6
:100E8000BD4680BD380A0020360A00201000002030
:100E900080B588B000AF4FF0FF337B604FF0FF3379
:100EA0003B600F4B1B7883F00103DBB2002B13D1A7
:100EB0000C4B1B78002B0FD13B463A1D07F1080065
:100EC0001821FFF7A1FD7A68074B1B689A4204D0EE
:100ED000044B01221A7000E000BF2037BD4680BDE0
:100EE000370A0020360A00201400002080B582B0A6
:100EF00002AF03F08FF9FF2300934FF48773B822FA
:100F00005821254803F056FA234803F0A5FAFF209C
:100F100003F084FB214B01221A70214B01221A702D
:100F2000204B01221A70204B00221A701F4B002206
:100F30001A701F4B00221A701E4B00221A701E4B93
:100F400080221A701D4B4FF0FF321A601C4B00229A
:100F50001A700A2200211B4817F0C8FC2C2200211D
:100F6000194817F0C3FC194B00221A60184B0022D5
:100F70001A60184B00221A60174B4FF0FF321A60AC
:100F8000164B4FF0FF321A60154B4FF0FF321A60CC
:100F900001231846BD4680BD4C020020340A0020C3
:100FA000350A0020360A0020370A0020380A0020BF
:100FB000390A00203A0A0020080000200C00002016
:100FC0003B0A00203C0A0020480A0020740A002046
:100FD000780A00207C0A0020100000201400002065
:100FE0001800002080B500AF02F0FAFF0346184653
:100FF00080BD80B500AF03F005F80346184680BDFC
:1010000080B582B000AF0346FB71124B1B78FA79B2
:101010009A421BD00F4AFB7913700F4B01221A70B2
:1010200005F046F8034603F56A4360330B4A136044
:10103000FB7983F00103DBB2002B07D0084B4FF0A4
:10104000FF321A60074B4FF0FF321A6000BF0837BB
:10105000BD4680BD370A0020360A00207C0A0020E9
:10106000140000201800002080B584B000AFBA60E2
:101070007B600346FB730B46BB731C4B01221A704B
:101080001B4AFB7B13701B4ABB7B13701A4ABB685D
:1010900013601A4B00221A703B7E002B0DD07B6828
:1010A000002B0AD0164B7A681068516803C3128966
:1010B0001A80124B01221A7004E00A220021104803
:1010C00017F014FC04F0F4FF034603F56A436033A1
:1010D0000C4A13600C4B4FF0FF321A600B4B01228D
:1010E0001A7000BF1037BD4680BD00BF380A00200F
:1010F0003A0A0020080000200C0000203B0A0020D3
:101100003C0A0020780A002010000020360A002047
:10111000B0B582B000AF786039607B68002B08D131
:101120000F4B00221A702C2200210E4817F0DEFB14
:101130000EE00B4B01221A700A4A7B6814461D46CA
:101140000FCD0FC40FCD0FC495E8070084E807004A
:10115000054B01221A7000BF0837BD46B0BD00BF65
:10116000390A0020480A0020360A002080B582B0E3
:1011700000AF4FF0FF337B60404B1B7883F00103DF
:10118000DBB2002B6DD102F04FFF02F029FF0346C6
:10119000002B68D13A4B1B681846FFF7F3F903465A
:1011A00083F00103DBB2002B5FD1364B1B78002BA1
:1011B0000FD002F0CFFE0346002B58D0314B002257
:1011C0001A7004F075FF034603F57A732C4A136016
:1011D0004DE02D4B1B78002B15D0FFF759FE2B4B04
:1011E0001B681846FFF7CEF90346002B21D0284B89
:1011F00001221A7004F05CFF034603F56A43603372
:10120000224A136015E0234B1B78002B11D0224B90
:101210001B681846FFF7B6F90346002B09D0FFF705
:101220000DFE04F045FF034603F56A4360331A4A96
:101230001360174B1B7883F00103DBB2002B18D12E
:101240003B1D1846FFF71CFD144802F0A3FE0346A1
:10125000002B0FD00E4B00221A707B68104A1360CF
:1012600008E000BF06E000BF04E000BF02E000BFEE
:1012700000E000BF0837BD4680BD00BF340A002033
:10128000740A0020350A0020370A00207C0A00205A
:10129000360A0020380A0020780A00204C0200207C
:1012A0001000002080B582B000AF7860396004F093
:1012B000EBFC034683F00103DBB2002B01D00023DB
:1012C00072E004F0E9FD034683F00103DBB2002B7A
:1012D00001D0002368E0012004F04AFE034683F0B9
:1012E0000103DBB2002B01D000235DE0786803F03E
:1012F00081FC034683F00103DBB2002B01D0002305
:1013000052E0386800F0ACFB02F046FA00F0A4F9B5
:1013100000F090FA01F070FD03461A46244B1A7053
:10132000FFF7E4FD034683F00103DBB2002B01D09D
:10133000002339E000F06AF903461A461D4B1A7083
:101340001D4B00221A7000F0D3F900F06FF903462C
:10135000184602F063FB012003F072FC03F0C4FCAA
:1013600000F0BCFA034683F00103DBB2002B01D08E
:10137000002319E000F086F90346002B06D000F0A8
:10138000A7F90E4B01221A7001230DE00B4B00222E
:101390001A7016F061FE034683F00103DBB2002BE6
:1013A00001D000F060F9012318460837BD4680BD22
:1013B000890A0020810A0020880A0020800A002073
:1013C00080B592B000AF4FF0FF337B6400F0DEF9E0
:1013D00000F08EFB4E4B1B78DBB2002B04D04C4B45
:1013E00000221A7002F0AEFB4A4B1B78002B18D07B
:1013F000494B1B78DBB2002B13D0484B1B7883F092
:101400000103DBB2002B0CD001F056FE034683F043
:101410000103DBB2002B04D03F4B00221A7001F015
:101420002DFD3C4B1B78002B0ED03D4B1B78DBB2C7
:10143000002B09D001F040FE0346002B04D0384BAE
:1014400000221A7001F096FD324B1B78002B1ED043
:1014500001F0A6FD07F11803184601F03DFE034612
:10146000002B14D03B4618220021184617F03EFAF4
:101470003B46184602F022FB3B7A002B01D03B682A
:101480007B6407F11803796C1846FFF741FE00F002
:10149000CDF80346184602F0C1FA02F029FB0346D4
:1014A000002B14BF01230023DBB283F00103DBB266
:1014B00003F00103DBB2184603F0C2FB03F014FC97
:1014C00000F02AFA00F058FAFFF750FE154B1B788F
:1014D000DBB2002B0BD116F0BFFD0346002B06D06C
:1014E00000F060F90346002B01D000F0BCF802F0D8
:1014F000FFFA0346002B06D000F0BCF800F0CBF951
:1015000000F006F901E000F003F94837BD4680BD60
:10151000850A0020890A0020830A0020870A00200B
:10152000840A0020800A002080B582B000AF034604
:10153000FB80FB88102B06D100F068F803461A46A2
:101540001F4B1A7039E0FB88042B2FD104214FF078
:10155000904007F039F80346002B14D0194B0122B4
:101560001A70194B1B78002B26D0184B1B7883F070
:101570000103DBB2002B1FD0154B01221A70154B53
:1015800000221A7018E00F4B1B78DBB2002B13D02F
:101590000C4B00221A70104B01221A700A4B1B7858
:1015A000002B09D00B4B01221A7005E0FB88082B99
:1015B00003D103F081FC00E000BF0837BD4680BDC9
:1015C000810A0020860A0020890A0020870A00205C
:1015D000830A0020840A0020820A002080B400AF21
:1015E000034B01221A7000BFBD465DF8047B7047B3
:1015F000850A002080B400AF034B01221A7000BF9F
:10160000BD465DF8047B7047850A002080B500AFB9
:101610001021054806F0D8FF0346002B01D0012316
:1016200000E00023184680BD0010004880B500AFE0
:10163000084B1B78DBB2002B04D100F023F80346E3
:10164000002B01D0012300E0002303F00103DBB2F3
:10165000184680BD810A002080B400AF00BFBD469F
:101660005DF8047B704780B400AF00BFBD465DF8F5
:10167000047B704780B400AF00BFBD465DF8047BBB
:101680007047000080B500AF104B1B7883F001035A
:10169000DBB2002B07D116F087FD034683F0010370
:1016A000DBB2002B01D000230DE016F08FFD0346C6
:1016B000002B14BF01230023DBB283F00103DBB254
:1016C00003F00103DBB2184680BD00BF880A00208A
:1016D00080B500AF054B01221A70012015F0FAFD0C
:1016E0000120FFF78DFC00BF80BD00BF870A0020EE
:1016F00080B500AF054B00221A70002015F0EAFDFE
:101700000020FFF77DFC00BF80BD00BF870A0020DE
:1017100080B500AF1A4B1B78002B11D1194B1B78E9
:10172000002B0DD100F00AFA0346002B08D1164B0E
:101730001B78002B06D001F0BFFC0346002B01D024
:1017400030BF1BE0FFF74EFC0346002B09D0FFF72C
:1017500050FC034683F00103DBB2002B01D030BF05
:101760000CE004F0BDFC012009F01AFD00F052FA73
:1017700000F0C6FA04F0C4FC02F0E4F980BD00BF3A
:10178000870A0020880A0020890A002080B500AF5F
:10179000FFF73CFF03461A46014B1A7000BF80BD9D
:1017A000810A002080B58EB000AF0023FB8016F0C8
:1017B00053FC034683F00103DBB2002B03D015F08A
:1017C0006FFE034632E016F03DFC034683F0010352
:1017D000DBB2002B01D0002328E002F0A7F903467A
:1017E00083F00103DBB2002B01D000231EE016F0D2
:1017F000EBFB034683F00103DBB2002B01D0002397
:1018000014E0BA1D07F108033021184615F0AAFDAF
:101810000346002B07D0FB88302B04D107F10803C7
:10182000184603F07DFC15F03BFE0346184638379A
:10183000BD4680BD80B500AF16F00EFC034683F0B8
:101840000103DBB2002B04D015F02AFE0346002B67
:101850000FD1FFF7A7FF0346002B0CD116F0F2FBC8
:10186000034683F00103DBB2002B05D015F0AEFD7B
:1018700002E000BF00E000BF80BD80B500AF16F001
:10188000EBFB0346002B01D0FFF78CFF15F008FEA1
:101890000346184680BD80B58CB000AF3B46184665
:1018A00003F0CCFB3B463021184615F023FD002009
:1018B00003F0C6F916F0D0FB034683F00103DBB258
:1018C000002B06D016F0D0FA0346002B01D016F0FC
:1018D000FBFB00BF3037BD4680BD000080B500AFC8
:1018E0000C4B1B78002B01D0012311E0FFF7C5FF43
:1018F000034683F00103DBB2002B01D0002307E095
:1019000016F03CFC15F02EFB024B01221A7001234D
:10191000184680BD880A002080B582B000AFFFF76E
:10192000B1FE0346FB71FB79002B0ED0104B1B78E8
:1019300083F00103DBB2002B03D0FFF79BFEFFF720
:10194000C7FE0C4B01221A700FE0094B1B78002BCD
:1019500008D0FFF7CDFEFFF725FF0346002B01D08F
:10196000FFF781FE034B00221A700837BD4680BD89
:10197000870A0020800A002090B58FB002AF802334
:10198000FB71002387F82F30002387F82E300123C6
:1019900087F82D30304B1B78DBB2002B57D02E4B05
:1019A00000221A702D4B1B78002B03D0282000F04A
:1019B00071F84DE007F1140318220021184616F0C3
:1019C00095FF07F11403184602F078F8FB1D18463E
:1019D00003F012FB04F042FA0346002B09D007F192
:1019E0000803184604F0E8F90346002B01D0012350
:1019F00000E0002387F82F3097F82F3003F0010321
:101A000087F82F3097F9072097F82D3011461846A0
:101A100015F070FD034687F82E3097F907403B7F9D
:101A2000002B01D07A6901E04FF0FF3297F82F3098
:101A3000002B02D007F1080300E0002397F82D00E7
:101A400097F82F1000912146FFF70EFB00E000BF32
:101A50003437BD4690BD00BF820A0020870A0020AF
:101A600080B483B000AF7860074A7B681360074B8F
:101A700000221A70064B00221A6000BF0C37BD46C8
:101A80005DF8047B704700BF8C0A0020900A00209C
:101A9000940A002080B582B000AF7860114B1B68BB
:101AA000002B18D0104B1B78002B0CD10D4B1B6852
:101AB00008220F21184607F08FFC0346002B0CD19B
:101AC000094B01221A7004F0F3FA02467B681344B2
:101AD000064A136002E000BF00E000BF0837BD46C1
:101AE00080BD00BF8C0A0020900A0020940A0020CC
:101AF00080B500AF0E4B1B68002B14D00D4B1B782C
:101B0000002B10D004F0D4FA02460B4B1B68D31AFA
:101B1000002B0ADB064B1B68184607F0AAFC054B96
:101B200000221A7002E000BF00E000BF80BD00BFCD
:101B30008C0A0020900A0020940A002080B400AF94
:101B4000054B1B78002B14BF01230023DBB2184682
:101B5000BD465DF8047B7047900A002080B483B0D6
:101B600000AF78604FF0B043D3F8903023F0180204
:101B70004FF0B0417B681343C1F8903000BF0C3781
:101B8000BD465DF8047B704780B485B000AF7860D7
:101B90004FF0B043DA6C4FF0B0417B681343CB6435
:101BA0004FF0B043DA6C7B681340FB60FB6800BF0A
:101BB0001437BD465DF8047B7047000080B500AF68
:101BC00004F008FA00F026F800F09AF800F024FA81
:101BD00000F058F90EF0AAFE0346002B01D000F0E9
:101BE0000CFB00F0ABF800F07BF900F00BF90749B3
:101BF0000748FFF757FB034683F00103DBB2002BD6
:101C000001D000F0FAFAFFF7DBFBFCE7500B0020F5
:101C1000FC0A002080B59AB000AF07F120034822EB
:101C20000021184616F062FE3B1D00221A605A6021
:101C30009A60DA601A615A619A6109F043FA1020D9
:101C4000FFF78CFF2D4B1B6823F4C0632B4A43F432
:101C500000731360294B1B6803F4C0633B603B684F
:101C600027233B624FF480337B620123BB624FF436
:101C70008073FB620123FB6340233B6300233B64CF
:101C800060237B640223FB6401233B6500237B65A7
:101C90001823BB654FF40033FB654FF000537B66A0
:101CA0004FF000733B6607F12003184609F038FE39
:101CB0000346002B01D000F0A0FA6F237B600223C3
:101CC000BB600023FB6000233B6100237B6180231A
:101CD000BB610023FB613B1D012118460AF094F90A
:101CE0000346002B01D000F088FA0BF038FD0BF012
:101CF0003CFD00BF6837BD4680BD00BF00040058F2
:101D000080B594B000AF3B4650220021184616F033
:101D1000EDFD4FF400533B600023BB641023FB64D4
:101D20003B4618460AF08FFF0346002B01D000F017
:101D300064FA00BF5037BD4680BD000080B586B054
:101D400000AF3B4600221A605A609A60DA601A615E
:101D50005A61294B294A1A60274B00225A60264BA8
:101D600000229A60244B0022DA60234B00221A6181
:101D7000214B04225A61204B00221A761E4B00226E
:101D80005A761D4B0122DA611B4B002283F820207A
:101D9000194B00229A62184B0022DA62164B00227D
:101DA00083F83020144B00225A63134B002283F82F
:101DB0003820114804F0CAFB0346002B01D000F084
:101DC0001CFA0F4B3B6006237B600723BB607F231D
:101DD000FB6004233B6100237B613B4619460648B8
:101DE00004F022FE0346002B01D000F006FA00BFEB
:101DF0001837BD4680BD00BF980A0020000004507F
:101E00004000201980B500AF1B4B1C4A1A601A4BCA
:101E10001B4A5A60184B00229A60174B0122DA6065
:101E2000154B00221A61144B00225A61124B0022FA
:101E30009A61114B0022DA610F4B00221A620E48A0
:101E400006F00AFC0346002B01D000F0D6F9002171
:101E5000094807F03DF90346002B01D000F0CDF909
:101E60000021054807F07FF90346002B01D000F060
:101E7000C4F900BF80BD00BFFC0A00200054004030
:101E8000F93E501080B500AF134B144A1A60124B44
:101E900000225A60104B4FF420629A600E4B4FF6AE
:101EA000FF725A610C4B00221A620B4B00225A62DD
:101EB000094B00229A62084B0022DA62064B00228C
:101EC0001A63054807F0E6F90346002B01D000F03D
:101ED00094F900BF80BD00BF500B0020007C004083
:101EE00080B590B000AF07F12C0300221A605A6051
:101EF0009A60DA601A610023BB623B462822002107
:101F0000184616F0F3FC424B424A1A60404B00223E
:101F10005A603F4B7F229A603D4BFF22DA603C4B78
:101F200000221A613A4B00229A61394B0022DA6191
:101F3000374B00225A6136480BF0DCFE0346002B7B
:101F400001D000F05AF9002387F82C30002387F8DD
:101F50002D30002387F82E3000233B630023BB6322
:101F60000023FB6307F12C030122194628480BF0DC
:101F70004BFF0346002B01D000F03FF9012387F807
:101F80002830012387F82930012387F82A300023DD
:101F900087F82B3007F12803012219461C480CF062
:101FA00030F80346002B01D000F027F900233B70E6
:101FB00000237B700023BB7000237B600023FB6049
:101FC00000233B6100237B610023BB610023FB6195
:101FD000012387F820304FF480737B623B46012257
:101FE00019460B480CF0E6F80346002B01D000F030
:101FF00004F90022002106480CF03CFB0346002BAC
:1020000001D000F0FAF800BF4037BD4680BD00BFE8
:10201000880B00200028004080B586B000AF3B1D33
:1020200000221A605A609A60DA601A610420FFF791
:10203000ABFD0220FFF7A8FD0120FFF7A5FD102052
:10204000FFF7A2FD002210214FF0904006F0D4FAD5
:10205000012280214FF0904006F0CEFA01224FF489
:1020600000414FF0904006F0C7FA0022012152488B
:1020700006F0C2FA002210214F4806F0BDFA0122F4
:1020800040214D4806F0B8FA69237B600023BB600D
:102090000123FB603B1D19464FF0904006F046F8C7
:1020A00048F290037B600123BB600023FB600023A8
:1020B0003B613B1D19464FF0904006F037F8512325
:1020C0007B600123BB600023FB6000233B613B1D61
:1020D0001946394806F02AF810237B604FF4441360
:1020E000BB600023FB603B1D1946344806F01EF818
:1020F0004FF480637B600023BB600023FB603B1DCB
:1021000019464FF0904006F011F880237B600023C1
:10211000BB600123FB603B1D1946274806F006F80B
:10212000002200210A2005F0B6FA0A2005F0CDFAB7
:1021300001237B604FF40413BB600123FB603B1D54
:1021400019464FF0904005F0F1FF04237B604FF4F7
:102150004413BB600123FB603B1D19464FF09040C8
:1021600005F0E4FF08237B604FF44413BB600123B8
:10217000FB603B1D19464FF0904005F0D7FF002251
:102180000521092005F087FA092005F09EFA0022B2
:102190000521062005F07FFA062005F096FA0022B8
:1021A0000521082005F077FA082005F08EFA00BF17
:1021B0001837BD4680BD00BF00040048001000482D
:1021C00080B582B000AF7860FFF708FA00BF08372B
:1021D000BD4680BD80B582B000AF0346FB80FB8862
:1021E0001846FFF7A1F900BF0837BD4680BD80B58E
:1021F00000AFFFF7FFF900BF80BD80B400AF72B63B
:1022000000BF00BFFDE780B485B000AF78604FF03D
:10221000B0439A6C4FF0B0417B6813438B644FF02E
:10222000B0439A6C7B681340FB60FB6800BF1437B7
:10223000BD465DF8047B704780B485B000AF786020
:102240004FF0B043DA6C4FF0B0417B681343CB647E
:102250004FF0B043DA6C7B681340FB60FB6800BF53
:102260001437BD465DF8047B704780B485B000AF7D
:1022700078604FF0B0431A6E4FF0B0417B68134363
:102280000B664FF0B0431A6E7B681340FB60FB682F
:1022900000BF1437BD465DF8047B704780B483B03F
:1022A00000AF78604FF0B0431A6E7B68DB434FF0AD
:1022B000B04113400B6600BF0C37BD465DF8047B90
:1022C000704780B483B000AF78604FF0B0431A6CB1
:1022D0004FF0B0417B6813430B6400BF0C37BD4621
:1022E0005DF8047B704780B483B000AF78604FF036
:1022F000B0431A6C7B68DB434FF0B04113400B6472
:1023000000BF0C37BD465DF8047B704780B582B0D6
:1023100000AF786003F0CCFE02467B68D31ADB4343
:10232000DB0FDBB218460837BD4680BD80B586B0EE
:1023300000AF3B1D00221A605A609A60DA601A6191
:102340000120FFF779FF4FF440737B600223BB60ED
:102350000023FB6000233B6103237B613B1D194687
:102360004FF0904005F0E2FE00BF1837BD4680BD3B
:1023700080B500AF012280214FF0904006F03CF97B
:1023800000BF80BD80B500AF012280214FF090409A
:1023900006F032F900BF80BD80B586B000AF3B1DAE
:1023A00000221A605A609A60DA601A614FF4407134
:1023B0004FF0904006F02AF84FF440737B60002302
:1023C000BB600023FB603B1D19464FF0904005F0B9
:1023D000ADFEFFF7D7FF00BF1837BD4680BD80B503
:1023E00094B000AF3B4650220021184616F07EFA0A
:1023F00040233B6018237B604FF40033BB604FF4F5
:1024000080337B6100233B633B4618460AF01BFC8C
:102410000346002B0CBF01230023DBB218465037C4
:10242000BD4680BD80B500AF0120FFF7ECFE204B1C
:10243000204A1A601E4B12225A601D4B00229A60DD
:102440001B4B0022DA601A4B80221A61184B4FF4A2
:1024500080725A61164B4FF480629A61144B2022AD
:10246000DA61134B4FF400521A62114805F048F933
:102470000346002B01D0002317E00D4B00229A6287
:102480000B4B0D4A1A630A4B0C4ADA62084B0C4A92
:102490005A63074B00229A63002205210B2005F0A6
:1024A000FAF80B2005F011F90123184680BD00BF92
:1024B000100C002008000240592D0008992D00083A
:1024C000D92D000880B586B000AF0346FB714020CF
:1024D0000AF030FD38613A6913469B0013445B00F3
:1024E0001A462E4BA3FB0223DB0CFB60FB682C4A35
:1024F000A2FB0323DB087B61F968294BA3FB0123C3
:10250000DA0813469B0013445B00CA1A082A02D952
:102510007B6901337B614FF40010FFF7A6FE4FF497
:102520000010FFF7CEFE4FF40010FFF7DCFE1D4B4E
:1025300000221A601B4B00225A601A4B00229A603C
:10254000184B0022DA60174B00221A61154B4FF02E
:10255000FF329A61134B5B68124A43F008035360E1
:10256000FB79002B02D041F2812201E041F281028D
:102570007B691B050B4913430B600A4B0F229A60C2
:10258000084B0022DA60084B00229A64064B40F2A6
:1025900001225A6400BF1837BD4680BDF119760587
:1025A000CDCCCCCC045401400054014080B500AFE8
:1025B000124B4FF0FF329A61104B5B680F4A43F0A9
:1025C000080353600E4A4FF400630E490E4805F0AD
:1025D0003FF90346002B01D000230CE0074B1B689A
:1025E000064A43F400331360044B1B68034A43F468
:1025F000803313600123184680BD00BF045401409E
:10260000700C002020540140100C002080B500AF59
:102610000F4B1B680E4A23F4003313600C4B1B68EE
:102620000B4A23F480331360094B4FF0FF329A6159
:10263000084805F088F9084B5B6C074A23F0010352
:1026400053644FF40010FFF729FE00BF80BD00BFA8
:1026500004540140100C00200054014080B500AF2C
:102660002C220021054816F041F9044B00221A7073
:10267000024B00221A8500BF80BD00BF941C0020C1
:1026800080B400AF0E4B1B69002B0ED10C4BDB68E6
:10269000002B0AD10B4B1B78DBB2002B05D10A4B68
:1026A0001B685B68B3F5006F01D0012300E00023D5
:1026B00003F00103DBB21846BD465DF8047B7047AA
:1026C000941C0020701C0020100C002080B582B0EB
:1026D00000AF0346FB71FFF799FF4FF480520021D2
:1026E000184816F003F9184B00221A70174B0022F5
:1026F0001A70174B00221A7016494FF000024FF063
:102700000003C1E90023FFF7A9FF134B00221A7051
:10271000124AFB791370124B01221A7003F0C8FCA5
:10272000034606330F4A1360FFF759FEFB7918463C
:10273000FFF7C8FEFFF73AFF034618460837BD46C5
:1027400080BD00BF700C0020701C0020711C002098
:10275000721C0020801C00208A1C00208C1C002081
:102760008D1C0020901C00202DE9B04FBEB000AFA2
:10277000C7F8AC000023C7F8F0300023C7F8EC30EE
:102780000023C7F8E8300023C7F8E4300023C7F877
:10279000F430F9E0D7F8F4309A00D7F8AC301344AD
:1027A000C7F8C4300023C7F8C030754AD7F8C43022
:1027B00032F813301846FDF753FD03461A46D7F892
:1027C000C0301344C7F8C030D7F8C4305A1C6C4B23
:1027D00033F812301846FDF743FD03461A46D7F882
:1027E000C0301344C7F8C030D7F8C4309A1C644BCB
:1027F00033F812301846FDF733FD03461A46D7F872
:10280000C0301344C7F8C030D7F8C430DA1C5C4B72
:1028100033F812301846FDF723FD03461A46D7F861
:10282000C0301344C7F8C030D7F8C030203BC7F8D9
:10283000BC30D7F8BC301BB2524A1385514B1B69D0
:102840005A1C504B1A61D7F8BC30002BB8BF5B4202
:10285000C7F8B830D7F8F020D7F8B8301344C7F825
:10286000F030484B1B8C1A46D7F8B830934204D945
:10287000D7F8B8309BB2434A1384D7F8BC30DA1784
:10288000C7F88030C7F88420D7F8EC30DA179A46BA
:102890009346504659464FF000024FF000034FEA6E
:1028A0008B0343EA9A734FEA8A02841A61EB0305A9
:1028B0004FF000024FF000032B0143EA1473220192
:1028C00014461D46B4EB0A0865EB0B094FF00002F5
:1028D0004FF000034FEA891343EA98634FEA8812E6
:1028E0009046994618EB0A03C7F8A03049EB0B0352
:1028F000C7F8A4304FF000024FF00003D7F8A4103F
:102900008B00D7F8A01043EA9173D7F8A0108A0083
:10291000C7E92823104619464FF000024FF0000384
:10292000820B42EA81428B13D7F880108918B9676D
:10293000D7F8841041EB0303FB67D7F8E830DA17C8
:102940003B677A67BB6FD7E91C0102469B1ABB61E4
:10295000FB6F0A4663EB0203FB61D7E90623C7E975
:102960002C23D7F8EC30C7F8E830D7F8B030C7F8E8
:10297000EC30D7F8F4300133C7F8F43004E000BF8E
:10298000700C0020941C0020D7F8F430FF2B7FF649
:1029900001AFD7F8EC30DA17BB66FA66D7F8EC303F
:1029A000DA173B667A66D7E91A452B46D7E91889C4
:1029B000424602FB03F24B46214601FB03F313445C
:1029C00022464146A2FB0112C7F89C200A46C7F8DE
:1029D0009820D7F89C201344C7F89C30D7E92634B8
:1029E000C7E93634C7E93634D7F8E830DA17BB65BB
:1029F000FA65D7F8E830DA173B657A65D7E9164506
:102A00002B46D7E91489424602FB03F24B46214686
:102A100001FB03F3134422464146A2FB0112C7F80F
:102A200094200A46C7F89020D7F894201344C7F89A
:102A30009430D7E92434C7E93434C7E93434D7F8BB
:102A4000EC30DA17BB64FA64D7E91289404649468C
:102A50004FF000024FF000034C46A300444643EA07
:102A600094734446A200841A3C6161EB03037B61CA
:102A70004FF000024FF00003D7E9044529460B014F
:102A8000214643EA117321460A01104619460346BE
:102A900042469B1ABB600B464A4663EB0203FB604F
:102AA0004FF000024FF00003D7E9024529468B01A1
:102AB000214643EA916321468A011046194603469E
:102AC00042469B183B604B460A4642EB03037B6041
:102AD0004FF000024FF00003D7E9004529468B0074
:102AE000214643EA917321468A004FF000004FF0DF
:102AF0000001900B40EA83409913D7F8E830DA17C9
:102B00003B647A64D7E91045234603FB01F22B4668
:102B100000FB03F313442246A0FB0212C7F88C20EB
:102B20000A46C7F88820D7F88C201344C7F88C30A1
:102B3000D7E92234C7E93234C7E93234D7E936015C
:102B4000D7E934238418BC6341EB0303FB63D7E963
:102B50003223D7E90E4521468A4229468B4109DABC
:102B6000D7F8D820D7F8D0301A44D7F8C830D31ABD
:102B7000C7F8E430204B5B6901331F4A53611E4B99
:102B8000DB6803F580631C4AD360D7F8F03000227D
:102B90003B637A63194BD3E90023D7E90C452146FF
:102BA0008918B962294643EB0101F962134BD7E951
:102BB0000A12C3E90012114BD3E900010E4B1B6945
:102BC00000223B627A62D7E90823FDF731FB024617
:102BD0000B4692B2084B5A84074B5B6AD7F8E42045
:102BE0009A4203D9044AD7F8E430536200BFF83759
:102BF000BD46BDE8B08F00BF941C0020801C0020A3
:102C000080B582B000AFFFF73BFD0346FB71464B3A
:102C10001B6803F48033002B14BF01230023DAB2B6
:102C2000424B1A71404B1B6803F40033002B14BF56
:102C300001230023DAB23D4B5A713B4B1B6803F46E
:102C40000073002B14BF01230023DAB2374BDA7173
:102C5000374B5B6C03F00103002B14BF01230023EF
:102C6000DAB2324B9A71334B1B685B682F4A93611F
:102C70002D4B5B692D4AD361FFF7C8FCFFF78CFB36
:102C800003F016FA02462C4B1B68D31A274A9360AE
:102C90002A4B1B78DBB2002B14BF01230023DAB2CE
:102CA000224B5A70264B1B78DBB2002B14BF01233A
:102CB0000023DAB21D4B9A70FB7983F00103DBB27B
:102CC000002B05D01F4B1B78002B01D0012300E007
:102CD000002303F00103DAB2144BDA70134B1B69C3
:102CE000002B08D0114B9B7883F00103DBB2002B43
:102CF00001D0012300E0002303F00103DAB20B4B03
:102D00001A700A4B1B78002B03D00F4B1A780F4B0D
:102D10001A700F4B00221A700E4B01221A7000BF5E
:102D20000837BD4680BD00BF04540140941C0020FC
:102D300000540140100C0020741C0020711C002065
:102D4000721C00208D1C00208C1C00208B1C00207D
:102D5000881C00208A1C002080B483B000AF7860FB
:102D60000B4B1B78DBB203F00103002B02D0094BA5
:102D700001221A70064B1B78DBB243F00103DAB272
:102D8000034B1A7000BF0C37BD465DF8047B7047DB
:102D9000701C0020711C002080B483B000AF7860EC
:102DA0000B4B1B78DBB203F00203002B02D0094B64
:102DB00001221A70064B1B78DBB243F00203DAB231
:102DC000034B1A7000BF0C37BD465DF8047B70479B
:102DD000701C0020711C002080B483B000AF7860AC
:102DE000044B01221A7000BF0C37BD465DF8047B0E
:102DF000704700BF721C002080B500AF194B1B78D4
:102E0000002B01D001232AE0FFF7E9FA034683F003
:102E10000103DBB2002B01D0002320E0FFF702FB0F
:102E2000034683F00103DBB2002B01D0002316E040
:102E3000FFF7B2FAFFF712FC0B4B00221A700B4B94
:102E400000221A700A4B00221A700A4B00221A70D4
:102E5000094B00221A70034B01221A7001231846F5
:102E600080BD00BF891C0020701C0020711C002048
:102E7000721C0020881C00208A1C002080B500AF36
:102E80002E4B1B7883F00103DBB2002B03D12C4BBC
:102E90001B78002B01D000234DE0FFF7DFFB4FF440
:102EA00080520021274815F021FD274B00221A707F
:102EB000264B00221A70264B00221A70254B002246
:102EC0001A7003F0F5F80346234A1360234B0022DF
:102ED0001A60214B1B680633214A136021494FF0C9
:102EE00000024FF00003C1E900231F4B1A781F4B6B
:102EF0001A701F4B00221A70FFF73AFAFFF716FA02
:102F0000FFF76DFA194B1B781846FFF7DBFAFFF74E
:102F10004DFB034683F00103DBB2002B07D0FFF724
:102F20003BFA4FF40010FFF7B9F9002303E0044B1C
:102F300001221A700123184680BD00BF891C0020A1
:102F4000881C0020700C0020701C0020711C0020C8
:102F5000721C00208A1C0020741C0020781C002099
:102F6000901C0020801C00208B1C00208C1C00204A
:102F70008D1C002080B500AF074B1B78012B08D1BA
:102F800003F096F803462033044A1360024B0222F2
:102F90001A7000BF80BD00BF881C0020781C002074
:102FA00080B582B000AF3D4B1B78002B72D03C4BFC
:102FB0001B78FB71FB7903F00103002B0AD0384B1F
:102FC0001B78DBB223F00103DAB2354B1A70002014
:102FD000FFF7CAFB324B1B78FB71FB7903F002034E
:102FE000002B0BD02E4B1B78DBB223F00203DAB29E
:102FF0002B4B1A704FF48060FFF7B6FB294B1B7800
:10300000DBB2002B02D0FFF7FBFD44E0264B1B7820
:1030100083F00103DBB2002B28D0244B1B68184639
:10302000FFF774F90346002B20D0FFF729FB034676
:1030300083F00103DBB2002B18D01D4B1B78002B53
:1030400014BF01230023DBB283F00103DBB203F0E2
:103050000103DBB21846FFF739FB034683F0010397
:10306000DBB2002B02D0FFF7CBFD14E00B4B1B783B
:10307000022B10D10F4B1B681846FFF747F9034688
:10308000002B08D0064B1B78DBB2002B03D1FFF7D7
:10309000B7FD00E000BF0837BD4680BD881C00209A
:1030A000701C0020721C00208D1C0020901C002031
:1030B0008C1C0020781C002080B400AF054B1B78CE
:1030C000002B14BF01230023DBB21846BD465DF878
:1030D000047B7047881C0020B0B483B000AF7860D8
:1030E000104B1B7883F00103DBB2002B02D17B680D
:1030F000002B01D100230FE07B680B4A1C461546CC
:103100000FCD0FC40FCD0FC495E8070084E807006A
:10311000044B00221A70012318460C37BD46B0BC80
:10312000704700BF8A1C0020941C002080B500AFAF
:10313000024804F0C6FC00BF80BD00BF100C002098
:1031400080B400AF4FF0B043D3F890304FF0B042AE
:1031500043F40043C2F8903000BFBD465DF8047BE5
:10316000704780B485B000AF78604FF0B043DA6C40
:103170004FF0B0417B681343CB644FF0B043DA6C3F
:103180007B681340FB60FB6800BF1437BD465DF8E9
:10319000047B704780B485B000AF78604FF0B043D7
:1031A0009A6D4FF0B0417B6813438B654FF0B0438D
:1031B0009A6D7B681340FB60FB6800BF1437BD4607
:1031C0005DF8047B704780B400AF00BFBD465DF87A
:1031D000047B704780B59CB000AF786007F15C035A
:1031E00000221A605A609A60DA601A6107F10C03D3
:1031F00050220021184615F079FB7B681B68154AA0
:10320000934223D14FF48063FB604FF04053BB6483
:1032100007F10C03184609F016FD0346002B01D0F8
:10322000FEF7EBFF4FF40050FFF79BFF0120FFF785
:1032300098FF0223FB6503233B6600237B6607F1AF
:103240005C0319464FF0904004F070FF00BF7037E8
:10325000BD4680BD0000045080B59CB000AF7860D2
:1032600007F15C0300221A605A609A60DA601A6102
:1032700007F10C0350220021184615F037FB7B683C
:103280001B68174A934226D10423FB604FF4403356
:10329000FB6207F10C03184609F0D5FC0346002B2E
:1032A00001D0FEF7AAFF0220FFF75BFF4FF4407347
:1032B000FB6512233B6601237B660023BB66042368
:1032C000FB6607F15C031946064804F02FFF4FF434
:1032D0000010FFF75FFF00BF7037BD4680BD00BF25
:1032E000005400400004004880B59CB000AF7860F6
:1032F00007F15C0300221A605A609A60DA601A6172
:1033000007F10C0350220021184615F0EFFA7B68F4
:103310001B68164A934225D11023FB604FF00C1313
:103320007B6307F10C03184609F08DFC0346002B64
:1033300001D0FEF762FF4FF00040FFF72BFF0220A5
:10334000FFF70FFF0423FB6502233B6600237B6628
:103350000023BB660123FB6607F15C0319460448A2
:1033600004F0E4FE00BF7037BD4680BD007C004025
:103370000004004880B596B000AF786007F10803FC
:1033800050220021184615F0B1FA7B681B68164AD6
:10339000934225D14FF40063BB604FF48073BB644C
:1033A00007F10803184609F04EFC0346002B01D034
:1033B000FEF723FFFFF7C4FE4FF48060FFF7EAFE3D
:1033C00000220021032004F066F9032004F07DF9B7
:1033D00000220021292004F05EF9292004F075F96B
:1033E00000BF5837BD4680BD0028004080B400AF04
:1033F00000BFFDE780B400AF00BFFDE780B400AFC1
:1034000000BFFDE780B400AF00BFFDE780B400AFB0
:1034100000BFFDE780B400AF00BFBD465DF8047B90
:10342000704780B400AF00BFBD465DF8047B7047B5
:1034300080B400AF00BFBD465DF8047B704780B527
:1034400000AF02F021FE00BF80BD000080B500AFDC
:1034500002480BF03BFA00BF80BD00BF880B002084
:1034600080B500AF102005F0DFF800BF80BD000080
:1034700080B500AF024806F0E7F900BF80BD00BF8D
:10348000F426012080B500AF02480BF081FA00BF9E
:1034900080BD00BFAC0B002080B500AF02480AF031
:1034A000D9FF00BF80BD00BF880B002080B500AFF2
:1034B000012005F0B9F800BF80BD80B500AF07F06E
:1034C0009BFE00BF80BD80B500AF042005F0ACF8C6
:1034D00000BF80BD80B500AF082005F0A5F800BF93
:1034E00080BD80B500AF802005F09EF800BF80BD94
:1034F00080B500AFFFF71AFE00BF80BD80B586B073
:1035000000AF7860144A154BD31A7B617B693B612D
:10351000134B1B68002B02D1114B124A1A60104B3F
:103520001A687B6813443A699A4207D215F0E6F9A3
:1035300003460C221A604FF0FF3309E0084B1B686A
:10354000FB60074B1A687B681344054A1360FB68ED
:1035500018461837BD4680BD000003200004000057
:10356000C01C0020902D012080B400AF244BD3F864
:103570008830234A43F47003C2F888304FF0B043D8
:103580001B684FF0B04243F0010313604FF0B043AB
:103590004FF4E0229A604FF0B0431A684FF0B04108
:1035A000184B13400B604FF0B043D3F894304FF0FA
:1035B000B04223F00503C2F894304FF0B043D3F883
:1035C00098304FF0B04223F00103C2F898304FF02A
:1035D000B0430D4ADA604FF0B0430B4A1A614FF026
:1035E000B0431B684FF0B04223F4802313604FF0C8
:1035F000B04300229A6100BFBD465DF8047B70476E
:1036000000ED00E0FBFEF6FA00100422D458C4508E
:103610000433C4188C42F9D37047036004308842E5
:10362000FBD370470C488546FFF79EFF0B480C49BB
:103630000C4A0023FFF7EDFF0B480C490C4A00230E
:10364000FFF7E7FF0B480C490023FFF7E8FF15F0F1
:103650005BF9FEF7B3FAFEE7000003200800002044
:10366000300200204CC401080000032000000320A9
:1036700074C6010830020020902D0120FEE780B4BE
:1036800085B000AF78604FF0B043DA6C4FF0B041D6
:103690007B681343CB644FF0B043DA6C7B68134014
:1036A000FB60FB6800BF1437BD465DF8047B7047C4
:1036B00080B483B000AF786039607A683B68D31A11
:1036C000DB43DB0FDBB218460C37BD465DF8047BED
:1036D0007047000080B586B000AF1F4B1B78002BF1
:1036E00036D11D4B01221A700220FFF7C8FF0120BE
:1036F000FFF7C5FF3B1D00221A605A609A60DA602E
:103700001A6101237B600123BB600023FB6000235F
:103710003B613B1D1946114804F008FD4FF48063DE
:103720007B600023BB600023FB603B1D19464FF00C
:10373000904004F0FBFC02237B600323BB6000236A
:10374000FB603B1D19464FF0904004F0EFFC00E099
:1037500000BF1837BD4680BDC41C002000040048CF
:1037600080B582B000AF0346FB71FB791A46012198
:10377000064804F041FF064AFB791370054AFB79BD
:10378000D37200BF0837BD4680BD00BF00040048AB
:10379000C51C00202400002080B500AFFFF79AFF71
:1037A0000B4B00221A7002F083FC03466433094A73
:1037B0001360094B00221A600120FFF7D1FF01209E
:1037C00000F04EF8002000F019F800BF80BD00BFE7
:1037D000C61C0020C81C0020CC1C002080B500AFF7
:1037E0004FF480614FF0904004F0EEFE0346002B52
:1037F0000CBF01230023DBB2184680BD80B582B028
:1038000000AF0346FB71134AFB795372124B1A78CF
:10381000104B9A72114B1A780E4BDA72FB791846DC
:1038200000F09CF903460B4A53610A4B5B69012B7C
:103830000CBF01230023DAB2064B1A73FB7918463A
:1038400000F0CAF803461A46024B1A7400BF083744
:10385000BD4680BD2400002020000020C51C0020A3
:1038600080B584B000AF0346FB7102F021FCF86024
:10387000FB7983F00103DBB2002B0FD0314B1B7AB5
:10388000002B0BD0304B1B681946F868FFF710FF70
:10389000034683F00103DBB2002B4ED100F07AF92E
:1038A000B860FB6803F57A73274A1360BB68002B86
:1038B00013DA244B4FF0FF321A60224B234A5A602E
:1038C000204B00221A721F4B00225A731D4B0022FC
:1038D0009A731C4B0022DA7330E01A4ABB681360FB
:1038E000BB6807EE903AB8EEE77ADFED196AC7EEEB
:1038F000267A144BC3ED017A124B01221A72BB686F
:1039000040F6B832934294BF01230023DAB20D4B44
:103910005A73BB68B3F52F6F94BF01230023DAB24B
:10392000084B9A73BB6841F2030293428CBF012398
:103930000023DAB2034BDA7300E000BF1037BD4654
:1039400080BD00BF24000020CC1C0020000080BFF0
:1039500000007A4480B483B000AF0346FB71FB796A
:1039600083F00103DBB2002B01D0002328E0174BCA
:103970001B7883F00103DBB2002B01D000231FE092
:10398000134B1B7A83F00103DBB2002B01D0012320
:1039900016E0104B1B78002B0AD00D4B1B681A4603
:1039A00041F203039A4294BF01230023DBB207E0F4
:1039B000074B1B68B3F57A6F94BF01230023DBB27A
:1039C00018460C37BD465DF8047B70472000002088
:1039D00024000020C51C002080B483B000AF034643
:1039E000FB71FB79002B01D001230EE00A4B1B7AFF
:1039F000002B06D0084B1B68B3F5486F01D3012399
:103A000000E0002303F00103DBB218460C37BD468B
:103A10005DF8047B704700BF2400002080B584B0AF
:103A200000AF0346FB7102F043FBF860FB79002B0B
:103A300008D0204B1B7883F00103DBB2002B01D0B0
:103A4000012300E00023FB72FB7A03F00103FB7209
:103A5000FB7A002B06D0FB686433174A1360012001
:103A6000FFF77EFEFB7A1846FFF7FAFE124B1B6843
:103A70001946F868FFF71CFE034683F00103DBB22A
:103A8000002B03D00120FFF76BFE07E0FB791846FF
:103A9000FFF760FF03461846FFF762FEFB79184602
:103AA000FFF7ACFE034AFB79137000BF1037BD4629
:103AB00080BD00BFC61C0020C81C0020B0B483B06D
:103AC00000AF78607B68002B0AD07B68074A1C46F1
:103AD00015460FCD0FC495E8030084E8030000E00D
:103AE00000BF0C37BD46B0BC704700BF24000020AB
:103AF00080B400AF0C4B5B7A83F00103DBB2002B88
:103B000009D0094B1B7A002B05D0074B9B7B002B60
:103B100001D0012300E0002303F00103DBB21846CB
:103B2000BD465DF8047B70472400002080B500AFDF
:103B3000034B5B7A1846FFF74FFF0346184680BDDC
:103B40002400002080B400AF034B00221A6000BFA5
:103B5000BD465DF8047B7047CC1C002080B582B068
:103B600000AF0346FB71FFF739FE0346002B01D07F
:103B7000012309E0FB79002B05D0054B1B78002BB6
:103B800001D0022300E0002318460837BD4680BD5F
:103B9000C51C002080B58AB000AF3B4600221A60E9
:103BA0005A609A60DA601A615A6140F61C437B627F
:103BB000474B3B6006237B600723BB607F23FB6092
:103BC00004233B6100237B613B461946414802F0D8
:103BD0002BFF0346002B02D04FF0FF3373E03D482C
:103BE00002F000FE0346002B02D04FF0FF336AE0E4
:103BF0000521384802F07DFE0346002B05D03548EC
:103C000002F044FE4FF0FF335DE0324802F0FEFE6A
:103C100003467B842F4802F039FE2F4B1B881A463F
:103C20004FF4616303FB02F27B8CB2FBF3F37B6224
:103C30002A4B3B6006237B600723BB607F23FB602E
:103C400004233B6100237B613B461946214802F077
:103C5000EBFE0346002B02D04FF0FF3333E01D484C
:103C600002F0C0FD0346002B02D04FF0FF332AE0E4
:103C70000521184802F03DFE0346002B05D01548EB
:103C800002F004FE4FF0FF331DE0124802F0BEFECA
:103C900003463B840F4802F0F9FD3B8C7A6A03FB34
:103CA00002F20F4BA3FB0213D21A52081344DB0A91
:103CB000FB61FB690B4A02FB03F30B4AA2FB0323E4
:103CC0009B0BBB61BB6918462837BD4680BD00BF52
:103CD00001000080980A0020AA75FF1F40002019EB
:103CE0000101100088E307001B923D5980B582B0A6
:103CF00000AF786002F0DCF902467B68D31ADB4340
:103D0000DB0FDBB218460837BD4680BD80B582B0F8
:103D100000AF03463960FB710B4AFB7913700B4A05
:103D20003B6813600A4B01221A7002F0C1F9034686
:103D30000A33084A136000224021074804F05CFC63
:103D400000BF0837BD4680BDD01C0020DC1C002011
:103D5000D11C0020D41C00200004004880B500AF16
:103D6000012000F0E3FAB72000F002FB002000F091
:103D7000FFFA002000F0FCFA112000F0D7FA012031
:103D800000F0F6FA442000F0D1FA002000F0F0FA3A
:103D90000A2000F0EDFA452000F0C8FAB72000F044
:103DA000E7FA002000F0E4FA002000F0E1FA002039
:103DB00000F0DEFA3C2000F0B9FA052000F0D8FA55
:103DC000212000F0B3FA002000F0D2FA802000F0A9
:103DD000CFFA182000F0AAFA802000F0C9FA4E208D
:103DE00000F0A4FA002000F0C3FA4F2000F09EFA81
:103DF000B72000F0BDFA002000F0BAFA00BF80BD85
:103E000080B500AF012000F091FA272000F0B0FA51
:103E1000012000F0ADFA012000F0AAFA112000F014
:103E200085FA012000F0A4FA442000F07FFA002077
:103E300000F09EFA0A2000F09BFA452000F076FA86
:103E4000272000F095FA012000F092FA002000F0FF
:103E50008FFA002000F08CFA3C2000F067FA052071
:103E600000F086FA212000F061FA002000F080FACC
:103E7000802000F07DFA182000F058FA802000F031
:103E800077FA4E2000F052FA002000F071FA4F202D
:103E900000F04CFA272000F06BFA012000F068FADD
:103EA00000BF80BD80B582B000AF242000F03EFA94
:103EB00000237B6005E0FF2000F05AFA7B680133A5
:103EC0007B607B68B3F5FD6FF5D300BF00BF08379B
:103ED000BD4680BD80B586B000AF78607B68002BA2
:103EE00027D00B23FB60B823BB60242000F01EFA10
:103EF00000233B6118E000237B610EE03B69FA6818
:103F000003FB02F27B6913447A6813441B7818465A
:103F100000F02EFA7B6901337B617A69FB689A4273
:103F2000ECD33B6901333B613A69BB689A42E2D307
:103F300000E000BF1837BD4680BD80B500AF22202D
:103F400000F0F4F9F72000F013FA202000F0EEF969
:103F500000BF80BD80B500AF0C4B1B78DBB2002BDF
:103F60000AD10B4B1B681846FFF7C0FE034683F0CF
:103F70000103DBB2002B01D0002304E0002101206B
:103F8000FFF7C4FE0123184680BD00BFD11C0020EE
:103F9000D81C002080B582B000AF78607B68002B11
:103FA0000FD00D4B1B78DBB2002B0AD10B4B1B68DB
:103FB0001846FFF79BFE034683F00103DBB2002B9C
:103FC00001D0002304E079680220FFF79FFE01235F
:103FD00018460837BD4680BDD11C0020D81C0020E3
:103FE00080B400AF064B1B78DBB2002B14BF01235B
:103FF0000023DBB21846BD465DF8047B704700BF66
:10400000D11C002080B400AF064B1B78DBB2033B11
:10401000032B01D8012300E000231846BD465DF8BC
:10402000047B7047D11C002080B500AF664B1B7825
:10403000DBB2062B00F2B08001A252F823F000BFE1
:10404000AD4100085D40000893400008B3400008FF
:10405000CF400008114100085F4100085B4B1B681E
:104060001846FFF743FE034683F00103DBB2002B43
:1040700040F09E8001224021554804F0BDFA02F034
:1040800017F803460A33514A13604F4B02221A7045
:1040900099E04E4B1B681846FFF728FE034683F055
:1040A0000103DBB2002B40F08580474B03221A70DE
:1040B00089E08021464804F087FA0346012B7BD033
:1040C000122000F033F9404B04221A707BE080216B
:1040D0003F4804F079FA0346012B6FD03D4B1B7823
:1040E000DBB2012B02D1FFF739FE0DE0394B1B7813
:1040F000DBB2022B02D1FFF783FE05E0324B002238
:104100001A70344B00221A702F4B05221A705AE095
:1041100080212F4804F058FA0346012B50D02D4B34
:104120001B78DBB2012B02D1FFF7BCFE11E0294B5B
:104130001B78DBB2022B05D1274B1B681846FFF713
:10414000C9FE06E0204B00221A70224B00221A7092
:1041500039E0FFF7F2FE1C4B06221A7033E0802193
:104160001B4804F031FA0346012B2BD0102000F03D
:10417000DDF8012000F0FCF801F09AFF03466433FB
:10418000164A1360104B00221A70124B00221A704C
:10419000114B00221A6016E00B4B00221A700D4BD7
:1041A00000221A700C4B00221A600CE000BF0AE0DB
:1041B00000BF08E000BF06E000BF04E000BF02E06F
:1041C00000BF00E000BF80BDD11C0020D41C002037
:1041D00000040048D01C0020DC1C0020D81C00205B
:1041E00080B485B000AF78604FF0B043DA6C4FF028
:1041F000B0417B681343CB644FF0B043DA6C7B680B
:104200001340FB60FB6800BF1437BD465DF8047BBC
:104210007047000080B586B000AF3B1D00221A60D9
:104220005A609A60DA601A610120FFF7D9FF022014
:10423000FFF7D6FF4FF400437B600123BB600023F0
:10424000FB6000233B613B1D19464FF0904003F09B
:104250006DFF10237B603B1D1946184803F066FF75
:1042600040237B603B1D1946144803F05FFF202369
:104270007B603B1D1946114803F058FF08237B6003
:104280003B1D19460D4803F051FF80237B604FF41E
:104290004413BB600123FB603B1D1946074803F034
:1042A00045FF00220521172003F0F5F9172003F040
:1042B0000CFA00BF1837BD4680BD00BF000400489F
:1042C00080B584B000AF0346FB7100220821164878
:1042D00004F092F90023FB731EE097F90730002BDE
:1042E00005DA01222021104804F086F904E00022BA
:1042F00020210D4804F080F9012208210A4804F029
:104300007BF900220821084804F076F9FB795B006C
:10431000FB71FB7B0133FB73FB7B072BDDD900BFFC
:1043200000BF1037BD4680BD0004004880B582B094
:1043300000AF0346FB7100224FF400414FF0904064
:1043400004F05AF900221021084804F055F9FB79CD
:104350001846FFF7B5FF01224FF400414FF090409F
:1043600004F04AF900BF0837BD4680BD000400488C
:1043700080B582B000AF0346FB7100224FF40041CC
:104380004FF0904004F038F901221021084804F061
:1043900033F9FB791846FFF793FF01224FF40041F0
:1043A0004FF0904004F028F900BF0837BD4680BDAB
:1043B0000004004880B485B000AFF860084611469C
:1043C0001A4603467B810B463B811346FB80214BFB
:1043D00000221A601F4AFB6813601E4A7B89138102
:1043E0001C4A3B8953811B4A3B8B93817B8903F099
:1043F00007039BB2002B03D17B89DB089BB204E04F
:104400007B89DB089BB201339BB2124A5382114A6B
:104410003B8993820F4AFB88D3810E4B00221A827C
:10442000FB88002B02D0FB88B42B06D1094A7B897C
:104430009380084A3B89D38006E0064A3B899380F3
:10444000044A7B89D38000BF00BF1437BD465DF8A6
:10445000047B7047E01C002080B483B000AF78601C
:10446000044A7B68136000BF0C37BD465DF8047BCF
:10447000704700BFE01C002080B487B000AF034647
:10448000FB800B46BB8013467B80634B9B88FA887E
:104490009A4200F2B480604BDB88BA889A4200F2FC
:1044A000AE805D4BDB89B3F5877F2BD0B3F5877F7B
:1044B00000F3A780B42B16D0B42B00F3A280002BFE
:1044C00002D05A2B05D09CE0FB88FB82BB88BB82C4
:1044D00022E0514B1A89BB88D31A9BB2013BFB8265
:1044E000FB88BB8218E04C4B1A89FB88D31A9BB21D
:1044F000013BFB82484B5A89BB88D31A9BB2013BD4
:10450000BB8209E0BB88FB82434B5A89FB88D31AE4
:104510009BB2013BBB8200BF3F4B1B8A032B72D86F
:1045200001A252F823F000BF774500083945000882
:104530004945000859450008374B1A89FB8AD31AA8
:104540009BB2013BFB8217E0334B5A89BB8AD31ADB
:104550009BB2013BBB820FE02F4B1A89FB8AD31A17
:104560009BB2013BFB822C4B5A89BB8AD31A9BB26C
:10457000013BBB8200E000BF274B1B89FA8A9A42AD
:1045800043D8254B5B89BA8A9A423ED8FB8ADB081E
:104590009BB21946BB8A204A528A02FB03F30B44A2
:1045A0003B611D4B1A683B6913441B78FB737B8886
:1045B000002B12D1FB8A03F007036FF0800242FA4E
:1045C00003F35AB297F90F30134059B2124B1A68DD
:1045D0003B691344CAB21A7018E0FB8A03F0070360
:1045E000802242FA03F35AB297F90F30134359B2BB
:1045F000094B1A683B691344CAB21A7006E000BF3F
:1046000004E000BF02E000BF00E000BF1C37BD4671
:104610005DF8047B704700BFE01C002080B485B0CB
:1046200000AF0346FB800023BB811CE00023FB811D
:1046300011E0FA89BB891249498A01FB03F313444B
:10464000BB600F4B1A68BB681344FA88D2B21A7069
:10465000FB890133FB810A4B5B8AFA899A42E8D3D2
:10466000BB890133BB81064B9B8ABA899A42DDD351
:1046700000BF00BF1437BD465DF8047B704700BF24
:10468000E01C002090B585B000AF044608461146F6
:104690001A462346FB800346BB800B467B801346AD
:1046A0007B70424B9B88FA889A427AD83F4BDB88D2
:1046B000BA889A4275D897F82030012B44D100234C
:1046C000FB8139E00023BB8129E0FA88B7F90E307D
:1046D0001A447B78D31A002B28DBBA88B7F90C3040
:1046E0001A447B78D31A002B20DBFA89FB88134409
:1046F0009AB27B789BB2D31A98B2BA89BB8813441A
:104700009AB27B789BB2D31A9BB27A881946FFF78C
:10471000B3FEB7F90C309BB201339BB2BB81B7F942
:104720000C207B785B00013B9A42CEDBB7F90E3060
:104730009BB201339BB2FB81B7F90E207B785B0003
:10474000013B9A42BEDB2DE00023FB8123E00023E6
:10475000BB8115E0FA89FB8813449BB2013B98B2F8
:10476000BA89BB8813449BB2013B9BB27A88194635
:10477000FFF782FEB7F90C309BB201339BB2BB81CD
:10478000B7F90C207B789A42E4DBB7F90E309BB284
:1047900001339BB2FB81B7F90E207B789A42D6DBBE
:1047A00000E000BF1437BD4690BD00BFE01C0020F4
:1047B00090B58DB002AF0446084611461A4623460E
:1047C000FB800346BB800B467B8013463B804B4BF4
:1047D0009B88FA889A4200F28880484BDB88BA8826
:1047E0009A4200F28280454B9B887A889A427CD814
:1047F000424BDB883A889A4277D8FB88FB84BB8897
:10480000BB847A88FB88D31A002BB8BF5B42BB619C
:104810003A88BB88D31A002BB8BF5B425B427B61EE
:10482000FA887B889A4201D2012301E04FF0FF33DE
:104830003B61BA883B889A4201D2012301E04FF0E4
:10484000FF33FB60BA697B6913443B620023FB774B
:10485000FB7F0133FB7797F83C30012B17D1FA7FB0
:10486000274BA3FB021359080B465B000B44D31ADA
:10487000DBB2002B0BD197F84030B98CF88C0122B9
:104880000092FF22FFF7FEFE0023FB7708E097F877
:1048900040303A8FB98CF88C01240094FFF7F2FE77
:1048A0003B6A5B007A699A420CDCFA8C7B889A42FC
:1048B0001DD03A6A7B6913443B623B699AB2FB8C18
:1048C0001344FB843B6A5B00BA699A42C0DBBA8C32
:1048D0003B889A420DD03A6ABB6913443B62FB683D
:1048E0009AB2BB8C1344BB84B2E700BF02E000BFA6
:1048F00000E000BF2C37BD4690BD00BFE01C00208B
:10490000ABAAAAAA90B589B004AF044608461146DE
:104910001A462346FB800346BB800B467B8013462A
:104920003B80374B9B88FA889A4264D8344BDB88AB
:10493000BA889A425FD8324B9B887A889A425AD872
:104940002F4BDB883A889A4255D897F82430002BB1
:1049500018D0BB88FB8110E0FC897A88F989F88837
:1049600097F828300293002301933B8C0093234651
:10497000FFF71EFFFB890133FB81FA893B889A42CE
:10498000EAD339E0BC887A88B988F88897F8283063
:104990000293002301933B8C00932346FFF708FF0B
:1049A0003C88FA88B988F88897F828300293002361
:1049B00001933B8C00932346FFF7FAFEBC887A886C
:1049C0003988788897F828300293002301933B8C2C
:1049D00000932346FFF7ECFE3C88FA8839887888F4
:1049E00097F828300293002301933B8C00932346D1
:1049F000FFF7DEFE00E000BF1437BD4690BD00BFEC
:104A0000E01C002080B588B000AF7B600346FB81CE
:104A10000B46BB811346FB724C4B9B88FA899A422A
:104A200000F28F80494BDB88BA899A4200F2898074
:104A3000FB7A203B7A68D28802FB03F37A6892887B
:104A4000D20892B211467A68928802F0070292B2B6
:104A5000002A14BF01220022D2B20A4402FB03F34F
:104A60007B617B681A687B691344BB610023FB830D
:104A700061E00023BB834CE03B8DFF2B18D1BB6969
:104A80001B781946BB8B03F00703802242FA03F31D
:104A90000B40002B31D0FA89BB8B134498B2BA89F2
:104AA000FB8B13449BB2BA8D1946FFF7E5FC24E05B
:104AB000BB691B781946BB8B03F00703802242FABF
:104AC00003F30B40002B0CD0FA89BB8B134498B234
:104AD000BA89FB8B13449BB2BA8D1946FFF7CCFC05
:104AE0000BE0FA89BB8B134498B2BA89FB8B134451
:104AF0009BB23A8D1946FFF7BFFCBB8B03F007034F
:104B00009BB2072B02D1BB690133BB61BB8B013365
:104B1000BB837B689B88BA8B9A42ADD37B689B88AA
:104B200003F007039BB2002B02D0BB690133BB61CA
:104B3000FB8B0133FB837B68DB88FA8B9A4298D32B
:104B400000E000BF2037BD4680BD00BFE01C002054
:104B500080B588B002AFBA607B600346FB810B462C
:104B6000BB81FB89FB82BB89BB82214B9B88FA8975
:104B70009A4238D81E4BDB88BA899A4233D82DE046
:104B8000FB8A7A6892881344194A9288934206DD18
:104B9000FB89FB827B68DA88BB8A1344BB82BB8AB1
:104BA0007A68D2881344124AD288934203DDFB8983
:104BB000FB82BB89BB82BB681A78B98AF88ABB8C36
:104BC00001933B8C00937B68FFF71CFFBB680133AC
:104BD000BB607B689A88FB8A1344FB82BB681B78A6
:104BE000002BCDD100E000BF1837BD4680BD00BF0F
:104BF000E01C002080B582B000AF78607B68002B9D
:104C000004D07B681B680C4A934201D000230FE05C
:104C100048220021094813F069FE084A7B681360A6
:104C2000064B01221A71054B4FF400421A820123F0
:104C300018460837BD4680BD00540040F81C0020CF
:104C400080B582B000AF0346FB71264B1B7983F021
:104C50000103DBB2002B3FD1224B5B79FA799A42F8
:104C60003CD0204AFB795371FB7983F00103DBB21E
:104C7000002B12D0002210214FF0904003F0BCFC1A
:104C8000184B00229A71174B0022DA71154B002243
:104C90001A72144B00225A7321E0012210214FF0A6
:104CA000904003F0A9FC0F4B01229A710D4B00229A
:104CB000DA710C4B00221A7201F0FAF90346094A24
:104CC0005361084B00229A61064B5B69054AD36128
:104CD000044B01225A7302E000BF00E000BF083716
:104CE000BD4680BDF81C002080B588B000AF714B78
:104CF0001B7983F00103DBB2002B40F0CE806D4BBB
:104D00005B7983F00103DBB2002B40F0C680694B76
:104D10009B7983F00103DBB2002B40F0BE8001F0F1
:104D2000C7F9F861634B5B69FA69D31A312B40F21A
:104D3000B680604BDB691946F86900F093FD0346C5
:104D400083F00103DBB2002B40F0AB80594BDB79E1
:104D500083F00103DBB2002B16D000F045FB0346C5
:104D600083F00103DBB2002B08D0524B00221A72F1
:104D7000FB6903F57A734F4AD36197E04D4B0122EB
:104D8000DA714C4B01225A7300F0AAFB0346FB7602
:104D9000484B5B7B002B04D1464B5B7AFA7E9A42F0
:104DA0000AD0FB7E002B02D000F0C0FC01E000F036
:104DB00013FD404B00225A733E4B5B7A83F0010394
:104DC000DBB2002B2CD03B4B1B7A83F00103DBB210
:104DD000002B07D1374B9B69FA69D31A4EF65F2235
:104DE000934260D9BB1D184600F04EFB0346002BD2
:104DF0000DD0B7F906202F4BDA812E4B01221A7203
:104E00002C4AFB6993612B4AFB69D3614BE0294B28
:104E100000221A72FB6903F57A73264AD36142E0D5
:104E200007F1080207F114031146184600F016FCBA
:104E3000034683F00103DBB2002B36D17A691D4BA8
:104E40005B6AD31A3B2B31D93B1D184600F01CFB83
:104E50000346002B18D0B7F90420164BDA81154B06
:104E600001221A727B69134A5362124AFB699361E9
:104E7000104AFB69D361B7F9043007F10801012238
:104E8000184600F01BFC11E00A4B00221A72FB6965
:104E900003F57A73074AD36108E000BF06E000BF5C
:104EA00004E000BF02E000BF00E000BF2037BD46C5
:104EB00080BD00BFF81C002080B400AF074B1B79F9
:104EC00083F00103DBB2002B03D1044B01225A73A0
:104ED00000E000BFBD465DF8047B7047F81C002071
:104EE00080B588B000AF78607B68002B14D0414B50
:104EF0001B7983F00103DBB2002B0DD13D4B5B79B5
:104F000083F00103DBB2002B06D13A4B9B7983F08F
:104F10000103DBB2002B01D0002367E001F0C8F8E9
:104F2000F861344B5B69FA69D31A312B01D800233D
:104F30005CE0304BDB7983F00103DBB2002B14D053
:104F400000F052FA034683F00103DBB2002B09D0D4
:104F5000284B00221A72FB6903F57A73254AD36144
:104F6000002343E0234B0122DA7107F11A031846AC
:104F700000F08AFA034683F00103DBB2002B09D06C
:104F80001C4B00221A72FB6903F57A73194AD3612C
:104F900000232BE0B7F91A20164BDA81154B0122BA
:104FA0001A72144AFB699361124AFB69D361B7F91B
:104FB0001A207B681A800F4B5B7A002B15D007F103
:104FC000080207F114031146184600F047FB034698
:104FD000002B0AD07B69074A5362B7F91A3007F1F0
:104FE00008010122184600F069FB0123184620370A
:104FF000BD4680BDF81C002080B584B000AF78604D
:105000007B68002B0AD007F10E031846FFF768FFF4
:10501000034683F00103DBB2002B01D0002309E03B
:10502000B7F90E30184600F02FFC03461A467B688D
:105030001A70012318461037BD4680BD80B582B076
:1050400000AF78607B68002B62D030220021786846
:1050500013F04CFC7B6801221A602F4B1A6A7B68A4
:105060009A602D4B1B7A002B03D02B4BB3F90E20EB
:1050700000E02A4A7B68DA81274B9B7A002B03D019
:10508000254BB3F9102000E0244A7B689A81224B1B
:105090009B7A002B0CD07B685B6843F001027B6835
:1050A0005A607B681C4A1033283207CA03C31A802F
:1050B000194B5B7A002B05D07B685B6843F00202DA
:1050C0007B685A60144BDB7A002B0FD07B685B68DF
:1050D00043F004027B685A607B680F4A1A3332320D
:1050E000106851681860596012891A810A4B1B7B3D
:1050F000002B0ED07B685B6843F008027B685A6027
:105100007B68054A24333C3207CA03C31A8000E097
:1051100000BF0837BD4680BDF81C00200080FFFF9F
:1051200080B586B000AF78607B68002B03D07B68C9
:105130001B68012B01D0002397E07B689B684D4AD8
:1051400013627B685B6803F00103002B14BF01232B
:105150000023DAB2474B9A727B685B6803F0020364
:10516000002B14BF01230023DAB2424B5A727B6832
:105170005B6803F00403002B14BF01230023DAB2A1
:105180003C4BDA727B685B6803F00803002B14BFAA
:1051900001230023DAB2374B1A737B68B3F90E3060
:1051A00013F5004F08D07B68B3F90E20314BDA813C
:1051B000304B01221A7202E02E4B00221A722D4B44
:1051C0009B7A002B0CD07B68B3F90C20294B1A82F8
:1051D000284B7A682833103207CA03C31A8008E0C4
:1051E000244B4FF400421A820A220021224813F075
:1051F0007DFB204BDB7A002B0AD01E4B7A683233C2
:105200001A32106851681860596012891A8104E0D6
:105210000A220021194813F069FB164B1B7B002B57
:1052200007D0144B7A683C33243207CA03C31A8070
:1052300004E00A220021124813F058FB0D4B5B7A60
:10524000002B11D007F1080207F11403114618468C
:1052500000F004FA0346002B03D07B69054A536231
:1052600002E0044B00225A62012318461837BD465B
:1052700080BD00BFF81C0020201D00202A1D00203A
:10528000341D002080B586B002AF03463960FB7143
:105290001346BB803B68002B02D0BB88022B01D990
:1052A00000231BE0FB793B73BA8807F10C03013341
:1052B0003968184613F04EFB0A4B1868BB88013357
:1052C0009BB207F10C0205210091922103F060FAD4
:1052D0000346002B0CBF01230023DBB21846103716
:1052E000BD4680BDF81C002080B586B004AF0346E3
:1052F0003960FB711346BB803B68002B01D1002352
:1053000013E00C4B1868FB799AB205230293BB8813
:1053100001933B6800930123922103F051FB034664
:10532000002B0CBF01230023DBB218460837BD4613
:1053300080BD00BFF81C002080B485B000AF0346DC
:10534000FB80FB887B81B7F90A301B117B81B7F9A1
:105350000A2013469B0013445B00FB60FB68002B94
:1053600007DBFB680833002B00DA0F331B11FB60EF
:1053700006E0FB68083B002B00DA0F331B11FB60D3
:10538000FB681BB218461437BD465DF8047B7047B6
:1053900080B485B000AF0346FB80B7F906301B012F
:1053A000FB60FB68002B09DBFB6805330D4A82FBC1
:1053B00003129210DB17D31AFB6008E0FB68053B71
:1053C000084A82FB03129210DB17D31AFB60FB68BA
:1053D0009BB21B019BB218461437BD465DF8047B97
:1053E000704700BF6766666680B582B000AF602315
:1053F0003B7100237B713B1D022219460120FFF700
:1054000041FF034683F00103DBB2002B01D00023F0
:1054100036E0F020FFF7BCFF0346FB80FB881B0A49
:105420009BB2DBB23B70FB88DBB27B703B46022257
:1054300019460220FFF726FF034683F00103DBB283
:10544000002B01D000231BE0FA20FFF7A1FF034649
:10545000FB80FB881B0A9BB2DBB23B70FB88DBB294
:105460007B703B46022219460320FFF70BFF0346E1
:1054700083F00103DBB2002B01D0002300E0012305
:1054800018460837BD4680BD80B584B000AF78604F
:105490007B68002B0CD007F10C0302221946002078
:1054A000FFF722FF034683F00103DBB2002B01D09C
:1054B000002311E03B7B1BB21B021AB27B7B1BB2A9
:1054C00013431BB2FB81FB891846FFF735FF0346E8
:1054D0001A467B681A80012318461037BD4680BDE6
:1054E00080B500AF08214FF0904003F06DF80346FF
:1054F000002B0CBF01230023DBB2184680BD000047
:1055000080B584B000AF786039600023FB607B68B1
:10551000002B12D03B68002B0FD07B689B78002BB0
:105520000BD07B689B780C2B07D87B68DB78002B33
:1055300003D07B68DB781F2B01D9002354E04FF4A4
:10554000FA637B8111E07B89184600F055F8034629
:10555000002B02D04FF4B77301E040F26D13FA68EC
:105560001344FB607B8901337B817B681B887A89CC
:105570009A42E8D37B689B78013B1D4A32F813308E
:105580001A46FB681344FB607B689B78022B0AD9A0
:105590007B681B88184600F02FF80346002B02D0CA
:1055A000FB680133FB607B68DB781A46FB681344B9
:1055B000013BFB60FB680F4A03FB02F27B689B79AF
:1055C00019464FF4616301FB03F31A447B68DB79EE
:1055D00019460B461B015B1A9B0013447A68127A2A
:1055E0001A443B681A60012318461037BD4680BD37
:1055F000D8C201088051010080B483B000AF0346D7
:10560000FB80FB8803F003039BB2002B1AD1FB88BD
:10561000114AA2FB03125209642101FB02F29B1AF8
:105620009BB2002B0CD1FB880B4AA2FB0312D209C0
:105630004FF4C87101FB02F29B1A9BB2002B01D1FF
:10564000012300E0002303F00103DBB218460C370E
:10565000BD465DF8047B70471F85EB5180B586B071
:1056600000AF7860396007F10C03184600F0A4FB26
:10567000034683F00103DBB2002B0BD107F10C03CF
:1056800079681846FFF73CFF034683F00103DBB25D
:10569000002B01D000230CE03B68002B08D03B68B6
:1056A0001A4607F10C0303CB106051601B8813816D
:1056B000012318461837BD4680BD000080B582B072
:1056C00000AF03463960FB8013467B71154B9B7A14
:1056D00083F00103DBB2002B06D1124BB3F910307B
:1056E000B7F906209A4219DD0E4B01229A720D4A33
:1056F000FB8813827B79002B0BD03B68002B08D0F2
:10570000084B3A6828331068516803C312891A801D
:1057100004E00A220021044813F0E8F800BF08372B
:10572000BD4680BDF81C0020201D002080B586B03D
:1057300000AF284B01225A7207F10C0207F108034F
:1057400011461846FFF78AFF0346002B10D0214B65
:1057500003F1320207F10C0303CB106051601B8888
:1057600013811C4B0122DA72BB681A4A536205E0AE
:10577000184B0022DA72174B00225A62BB1D1846E2
:10578000FFF782FE0346002B15D0B7F90620114B18
:10579000DA81104B01221A7200F08AFC03460D4A8E
:1057A0009361B7F906300B4AD27A07F10C0118461B
:1057B000FFF784FF09E0074B00221A7200F078FC23
:1057C000034603F57A73034AD36100BF1837BD4619
:1057D00080BD00BFF81C002080B586B000AF1F4B15
:1057E000DB7A002B30D007F10C03184600F0E4FA06
:1057F0000346002B28D007F1080319461848FFF785
:105800007FFE0346002B1FD03A1D07F10C03114603
:105810001846FFF775FE0346002B15D07A68BB6863
:105820009A4211D30D4B1A6A7968BB68CB1A13449C
:105830000A4A1362094B3C3307F10C0207CA03C33F
:105840001A80064B01221A73044B00225A72034B32
:105850000022DA7200BF1837BD4680BDF81C002058
:105860002A1D002080B483B000AF786039607A6868
:105870003B68D31ADB43DB0FDBB218460C37BD465F
:105880005DF8047B7047000080B485B000AF03462C
:10589000FB80B7F90630002B0ADBB7F90630053379
:1058A000134A82FB03129210DB17D31AFB8109E023
:1058B000B7F90630053B0E4A82FB03129210DB1744
:1058C000D31AFB81B7F90E307F2B01DD7F23FB81DB
:1058D000B7F90E3013F1800F02DA4FF68073FB81B7
:1058E000FB895BB218461437BD465DF8047B7047F0
:1058F0006766666680B483B000AF78607B68002B13
:1059000001D1002312E07B681B78172B01D90023FB
:105910000CE07B685B783B2B01D9002306E07B68B9
:105920009B783B2B01D9002300E0012318460C375C
:10593000BD465DF8047B704780B483B000AF7860EB
:105940007B68002B01D100232BE07B681B88B3F51B
:10595000FA6F05D37B681B8840F63302934201D966
:1059600000231EE07B689B78002B03D07B689B782C
:105970000C2B01D9002314E07B68DB78002B03D0CB
:105980007B68DB781F2B01D900230AE07B681B7939
:10599000002B03D07B681B79072B01D9002300E083
:1059A000012318460C37BD465DF8047B70470000A4
:1059B00080B483B000AF114B7B6000233B600FE0ED
:1059C0000F4A3B6813441B781A467B6853407B6040
:1059D0007B680C4A02FB03F37B603B6801333B604E
:1059E000074A3B6813441B78002BE9D17B681846B3
:1059F0000C37BD465DF8047B704700BFC59D1C8118
:105A0000F0C201089301000180B485B000AF786056
:105A10007B68002B01D1002329E00023FB7322E0E7
:105A20007B681A78FB7B154911F823309A4217D10D
:105A30007B6801331A78FB7B10499B000B445B7831
:105A40009A420DD17B6802331A78FB7B0B499B008D
:105A50000B449B789A4203D1FB7B0133DBB206E017
:105A6000FB7B0133FB73FB7B0B2BD9D9002318463F
:105A70001437BD465DF8047B704700BF08C30108BA
:105A800080B485B000AF0346FB800B467B711346A4
:105A90003B71FB88FB817B79022B02D8FB89013BA0
:105AA000FB81FB89FA89920892B21344FA8916495C
:105AB000A1FB0212520992B29B1AFA891249A1FB68
:105AC0000212D20992B213447A79013A0F498A5CE0
:105AD0001A443B791A440E4BA3FB0213D11A49080E
