:020000040800F2
:100000006007002001070008D5020008D702000899
:10001000DB020008DF020008E30200080000000025
:10002000000000000000000000000000E7020008DF
:10003000E902000800000000EB020008ED020008E1
:100040001B0700081B0700081B0700081B07000808
:100050001B0700081B0700081B0700081B070008F8
:100060001B0700081B0700081B0700081B070008E8
:100070001B0700081B0700081B0700081B070008D8
:100080001B0700081B0700081B0700081B070008C8
:100090001B0700081B0700081B0700081B070008B8
:1000A0001B0700081B0700081B0700081B070008A8
:1000B0001B0700081B0700081B0700081B07000898
:1000C0001B0700081B0700081B0700081B07000888
:1000D0001B070008750600081B0700081B0700081F
:1000E0001B0700081B0700081B0700081B07000868
:1000F0001B0700081B0700081B0700081B07000858
:100100001B0700081B0700081B0700081B07000847
:100110001B0700081B0700081B0700081B07000837
:100120001B0700081B0700081B0700081B07000827
:1001300000F002F800F03AF80AA090E8000C8244BF
:100140008344AAF10107DA4501D100F02FF8AFF29C
:10015000090EBAE80F0013F0010F18BFFB1A43F0A5
:1001600001031847F86F000018700000103A24BF10
:1001700078C878C1FAD8520724BF30C830C144BF0C
:1001800004680C607047000000230024002500264E
:10019000103A28BF78C1FBD8520728BF30C148BFEA
:1001A0000B6070471FB51FBD10B510BD01F08FFD6E
:1001B0001146FFF7F7FF00F009F801F0ADFD03B4B9
:1001C000FFF7F2FF03BC00F0FBF900008EB000F077
:1001D0007DF900F0EFF901F0E1FC6DE001F0B9F814
:1001E00001F0EDF901F0BEFA022000F0CEF901F0C5
:1001F000B0F8324801F0C1F901F0B4FA022000F081
:10020000C4F901F00FF92E4801F0C8F901F0AAFA7B
:10021000022000F0BAF901F09CF801F0D0F901F0E9
:10022000A1FA01F03BF9274801F08AFC01F09AFAA3
:10023000022000F0AAF901F08CF8234801F0DFF960
:10024000002427E02021182220489823CDE90930F6
:10025000CDE90B2108461D49603980222023CDE9D4
:100260000532CDE907101A4868211A46174B603B42
:10027000CDE90132CDE903105020009004EB440099
:10028000194601EB401220233821184601F0D9FA13
:10029000601CC4B2062CD5DB01F064FA022000F029
:1002A00074F901F056F801F08AF901F05BFA0220C6
:1002B00000F06BF900BFFEE790E700004C22000859
:1002C000342A00088C6100081C3200088C1D0008CC
:1002D000EC200008704700BFFEE700BFFEE700BF4C
:1002E000FEE700BFFEE770477047704770470000A9
:1002F0000CB50020019000906B48006840F48030FD
:100300006949086000BF6848006800F40030009048
:100310000198401C0190009818B90198B0F5A06FA1
:10032000F1D16148006810F4003F02D00120009034
:1003300001E0002000900098012842D15B4800684D
:1003400040F01000594908600846006820F003009A
:1003500008600846006840F00200086052484068A3
:10036000514948600846406848600846406840F483
:10037000806048600846406820F47C104860084669
:10038000406840F4E81048600846006840F080701B
:10039000086000BF4448006810F0007FFAD042486F
:1003A000406820F00300404948600846406840F03B
:1003B0000200486000BF3C48406800F00C0008287C
:1003C000F9D10CBD10B5FFF793FF10BD10B536483D
:1003D000006840F00100344908600846406834492C
:1003E00008403149486008460068324908402E49B3
:1003F00008600846006820F48020086008464068CD
:1004000020F4FE0048604FF41F008860FFF7DAFF19
:100410004FF000602849086010BD10B50021002091
:100420000022214B5B6803F00C0121B1042906D0A6
:10043000082928D107E0214B214C236027E01F4BDE
:100440001F4C236023E0184B5B6803F47010164BBD
:100450005B6803F48032022303EB904022B9194B0E
:100460004343174C23600DE00F4B5B6813F4003FD0
:1004700004D0144B4343124C236003E00F4B43431F
:100480000F4C236003E00D4B0D4C236000BF00BFF9
:10049000054B5B68C3F303130B4CE15C084B1B6813
:1004A000CB40074C236010BD0010024000200240EA
:1004B0000000FFF8FFFFF6FE08ED00E000127A00F2
:1004C0000000002000093D000400002010B56FF07E
:1004D000040000F085F9334800683349B0FBF1F0BF
:1004E000324908700846007800EB4001C1EBC010AB
:1004F0004FF6FF7101EAC0002D49088010BD01468A
:100500002A4A12784A434FF0E0235A6100229A6146
:100510001A46126942F001021A6100BF4FF0E02250
:10052000106910F0010F02D010F4803FF6D04FF0A8
:10053000E022126922F001024FF0E0231A6100224A
:100540009A61704701461A4A12884A434FF0E023E5
:100550005A6100229A611A46126942F001021A6138
:1005600000BF4FF0E022106910F0010F02D010F42C
:10057000803FF6D04FF0E022126922F001024FF0E6
:10058000E0231A6100229A61704730B504460025C5
:1005900005E04FF47A70FFF7D5FF681C85B2A542DD
:1005A000F7DB30BD0000002000127A0014000020AC
:1005B0001600002010B54FF4A06000F0C1F810BD87
:1005C000014600BF704700BF494A128812F0400F31
:1005D000FAD0C2B2464B1B1D1A80704710B586B0C8
:1005E0000446012144F2050000F02EFC4FF4007097
:1005F000ADF8140003208DF8160018208DF81700B0
:1006000005A93C4800F06AF94FF48060ADF8140089
:1006100004208DF8170005A9364800F05FF9252061
:100620008DF8000003208DF801008DF802000120F4
:100630008DF80300684600F088F801940020ADF8BA
:100640000800ADF80A00ADF80C00ADF810000C2061
:10065000ADF80E0001A9264800F0A1FC012240F2ED
:100660002551234800F033FD0121214800F023FDEE
:1006700006B010BD10B540F225511D4800F00CFE2B
:1006800010B31B4800F088FDC4B21B48008810F46A
:10069000004F2BD11848008810F4804F0CD00A2C42
:1006A00003D000201449088020E01348008840F45B
:1006B00000401149088019E00D2C06D10E48008831
:1006C00040F480400C49088010E00B480088C0F3DB
:1006D0000D000A490C5408480088401C064908804F
:1006E00008460088C72801DD0020088010BD0000F2
:1006F00000380140000801401800002034000020AC
:100700000948804709480047FEE7FEE7FEE7FEE7A5
:10071000FEE7FEE7FEE7FEE7FEE7FEE704480549E1
:10072000054A064B70470000CD0300083101000860
:1007300060010020600700206003002060030020AB
:1007400031490143314A1160704770B500210023DF
:100750000F22C4780CB32D4C246804F4E064C4F573
:10076000E064210AC1F10403CA40447804FA03F1A9
:100770008478144021430901254C0678A15504785A
:1007800004F01F050124AC4005786D114FF0E02600
:1007900006EB8505C5F8004109E0047804F01F0563
:1007A0000124AC401B4D0678761145F8264070BDFB
:1007B000194A0A400243154B1B1F1A60704739B192
:1007C000124A121D12680243104B1B1D1A6006E0EC
:1007D0000E4A121D126882430C4B1B1D1A60704793
:1007E000042808D14FF0E021096941F004014FF0DD
:1007F000E022116107E04FF0E021096921F00401D6
:100800004FF0E022116170470000FA050CED00E0A6
:1008100000E400E080E100E080FFFF1F10B5044627
:10082000CA48844208D10121042000F027FB00219E
:10083000042000F023FB46E0C548844208D1012192
:10084000082000F01BFB0021082000F017FB3AE015
:10085000C048844208D10121102000F00FFB002184
:10086000102000F00BFB2EE0BB48844208D1012190
:10087000202000F003FB0021202000F0FFFA22E0FE
:10088000B648844208D10121402000F0F7FA002147
:10089000402000F0F3FA16E0B148844208D101216B
:1008A000802000F0EBFA0021802000F0E7FA0AE057
:1008B000AC48844207D10121801500F0DFFA002105
:1008C000A01500F0DBFA10BD10B50121084600F0BC
:1008D000D5FA0021012000F0D1FA10BD2DE9F04138
:1008E000024600250026002000230024002791F85E
:1008F00003C00CF00F0591F803C01CF0100F03D0DB
:1009000091F802C04CEA050591F800C0BCF1000F57
:1009100031D0146800202BE04FF0010C0CFA00F3EA
:10092000B1F800C00CEA03069E4220D183004FF0CC
:100930000F0C0CFA03F7BC4305FA03FC4CEA040461
:1009400091F803C0BCF1280F06D14FF0010C0CFA4E
:1009500000FCC2F814C00AE091F803C0BCF1480FD3
:1009600005D14FF0010C0CFA00FCC2F810C0401C7D
:100970000828D1D31460B1F800C0BCF1FF0F34DDFA
:10098000546800202EE000F1080C4FF0010808FA2E
:100990000CF3B1F800C00CEA03069E4221D183009B
:1009A0004FF00F0C0CFA03F7BC4305FA03FC4CEABA
:1009B000040491F803C0BCF1280F05D100F1080C24
:1009C00008FA0CF8C2F8148091F803C0BCF1480F83
:1009D00007D100F1080C4FF0010808FA0CF8C2F832
:1009E0001080401C0828CED35460BDE8F0814FF63B
:1009F000FF710180022181700421C170704702469D
:100A0000002093680B4201D0012000E000207047D5
:100A10000146886880B2704702460020D3680B42C6
:100A200001D0012000E0002070470146C86880B274
:100A3000704701617047416170470AB1016100E090
:100A400041617047C16070474FF480320A43826150
:100A50008161826182698269704702460020424B4F
:100A600018684FF68073184040EA021008433E4B66
:100A7000186070473D49C8617047F0B50A460023C9
:100A800000240021002500F00046B6F1004F02D1FD
:100A9000354EF16901E0344E7168C0F3034583B20D
:100AA00000F44016B6F5401F08D121F070612E4EBB
:100AB000766826F070662C4F7E6012E000F4801697
:100AC000B6F5801F06D1032606FA05F4A14341F0CE
:100AD000706106E0460D360103FA06F6B14341F0B7
:100AE000706122B1460D360103FA06F6314300F07B
:100AF0000046B6F1004F02D11B4EF16101E01A4EE3
:100B00007160F0BD30B500228B071C0F0F2303FA74
:100B100004F2154B08338C1053F824309343124CD5
:100B200008348D1044F8253023468C1053F82430B7
:100B30008C07240F00FA04F423430B4C08348D1067
:100B400044F8253030BD0A4908607047000801406C
:100B5000000C014000100140001401400018014049
:100B6000001C014000200140000001400000204224
:100B7000DC002042DD48006840F00100DB490860ED
:100B800008464068DA490840D84948600846006885
:100B9000D8490840D54908600846006820F48020FC
:100BA00008600846406820F4FE0048604FF41F00CB
:100BB00088607047CD49096821F48031CB4A1160C3
:100BC0001146096821F480211160B0F5803F03D0FF
:100BD000B0F5802F0ED106E0C449096841F4803198
:100BE000C24A116007E0C149096841F4A021BF4A27
:100BF000116000E000BF00BF704710B50146002241
:100C0000002300204A11012A02D1B84C236806E0D3
:100C1000022A02D1B54C236A01E0B44C636A01F0A8
:100C20001F02012494401C4201D0012000E000205A
:100C300010BD38B5002000900024002500BF3120F1
:100C4000FFF7DBFF05460098401C00900098B0F5C8
:100C5000A06F01D0002DF2D03120FFF7CEFF08B1F8
:100C6000012400E00024204638BD014600209F4AB0
:100C7000106820F0F80040EAC100106070479E49FB
:100C80000860704702460020984B586820F47C109A
:100C900042EA01031843954B58607047964908662D
:100CA000704701460020914A506820F00300084335
:100CB000506070478D48406800F00C007047014656
:100CC00000208A4A506820F0F000084350607047C6
:100CD00001460020854A506820F4E06008435060D7
:100CE000704701460020814A506820F4605040EA75
:100CF000C1005060704729B17C4A527A02437B4B55
:100D00005A7204E0794A527A8243784B5A72704799
:100D10007A490860704701460020744A506820F400
:100D200040400843506070470021754A11706F4A77
:100D300082F82010012802D0042808D103E0012104
:100D40006F4A117004E005216D4A117000E000BF88
:100D500000BF70476B49086070476449096A0143E6
:100D6000624A11627047674944390860704730B57C
:100D700000210022002400235C4D6D6805F00C0169
:100D800021B1042905D0082923D105E05E4D056075
:100D900022E05D4D05601FE0544D6D6805F4701252
:100DA000524D6D6805F48034022505EB92421CB962
:100DB000564D554305600BE04C4D6D6815F4003FF2
:100DC00003D0524D5543056002E04F4D5543056039
:100DD00002E04D4D056000BF00BF444D6D6805F059
:100DE000F00109094A4D6B5C0568DD4045603F4DE7
:100DF0006D6805F4E061090A454D6B5C4568DD40AE
:100E000085603A4D6D6805F46051C90A404D6B5CD0
:100E10004568DD40C560354D6D6805F44041890B7E
:100E20003C4D6B5CC568B5FBF3F5056130BD29B180
:100E30002E4A526902432D4B5A6104E02B4A5269F3
:100E400082432A4B5A61704729B1284A926902436A
:100E5000264B9A6104E0254A92698243234B9A61AA
:100E6000704729B1214AD2690243204BDA6104E07C
:100E70001E4AD26982431D4BDA61704729B11B4A71
:100E8000D2680243194BDA6004E0184AD268824300
:100E9000164BDA60704729B1144A12690243134BAA
:100EA0001A6104E0114A12698243104B1A617047BB
:100EB00014494039086070470F49C86470470B49AE
:100EC000C87170470948406A40F08070074948621D
:100ED000704701460020054A92680A4201D001206D
:100EE00000E00020704701498872704700100240FE
:100EF0000000FFF8FFFFF6FE00004242D800424229
:100F0000201002408004424200127A0000093D0095
:100F1000200000203000002010B50446FB48844229
:100F200009D101218803FFF7A9FF00214FF4804078
:100F3000FFF7A4FF32E0F648844209D101214804BA
:100F4000FFF7A9FF00214FF40030FFF7A4FF25E0D1
:100F5000F048844209D101218804FFF79CFF002159
:100F60004FF48020FFF797FF18E0EB48844209D147
:100F70000121C804FFF78FFF00214FF40020FFF785
:100F80008AFF0BE0E548844208D101210805FFF7FC
:100F900082FF00214FF48010FFF77DFF10BD2DE987
:100FA000F04786B005460E460024A24600BFA14683
:100FB0000027B08900B100BF2F462C8A4CF6FF7085
:100FC0000440F08804432C82AC894EF6F3100440B0
:100FD000B08831890843718908430443AC81AC8AE5
:100FE0004FF6FF400440B0890443AC8201A8FFF7EC
:100FF000BEFEC648874202D1DDF810A001E0DDF850
:101000000CA0A88910F4004F08D00AEBCA0000EB2E
:101010000A1031684900B0FBF1F807E00AEBCA009A
:1010200000EB0A1031688900B0FBF1F86420B8FBCE
:10103000F0F004012009642101FB1089A88910F453
:10104000004F08D0322000EBC900B0FBF1F000F0F7
:101050000700044308E0322000EB09106421B0FBD4
:10106000F1F000F00F0004432C8106B0BDE8F087DA
:101070004FF41651016000218180C18001810C2153
:10108000418100218181704710B502460020108AFD
:101090004FF2FF0318400B884C8823438C8823436E
:1010A000CC8823431843108210BD00210180418069
:1010B0008180C180704721B1828942F400528281CF
:1010C00004E082894DF6FF731A4082817047F0B5C3
:1010D00003460024002600250020A1F510676A3F82
:1010E00000D100BF1846C1F3421401F01F060127CA
:1010F00007FA06F5012C01D10C3004E0022C01D1D5
:10110000103000E014301AB107682F43076002E086
:101110000768AF430760F0BD1AB1838A0B4383822F
:1011200002E0838A8B4383827047028A4FF6F07312
:101130001A400282028A0A430282704782894FF271
:10114000FF731A40828182890A438281704721B1EC
:10115000828942F00202828104E082894FF6FD73A7
:101160001A4082817047028A4FF6DF731A4002826A
:10117000028A0A430282704721B1028A42F4804205
:10118000028204E0028A4BF6FF731A400282704723
:10119000C1F308028280704701468888C0F30800C6
:1011A0007047818941F0010181817047028BD2B281
:1011B0000283028B42EA012202837047028B02F40F
:1011C0007F420283028B0A430283704721B1828AE5
:1011D00042F02002828204E0828A4FF6DF731A40D6
:1011E0008282704721B1828A42F01002828204E03A
:1011F000828A4FF6EF731A408282704721B1828A49
:1012000042F00802828204E0828A4FF6F7731A40A5
:101210008282704721B1828942F40042828103E0D8
:101220008289C2F30E028281704721B1828A42F420
:101230000062828204E0828A4FF2FF731A40828247
:101240007047828A4FF6FB731A408282828A0A4371
:101250008282704721B1828A42F00202828204E0D7
:10126000828A4FF6FD731A40828270470246002040
:10127000B1F5007F00D100BF13880B4201D00120DF
:1012800000E00020704701F40072B2F5007F00D149
:1012900000BFCA430280704770B502460024002395
:1012A00000250020A1F510666A3E00D100BFC1F301
:1012B000421501F01F03012606FA03F3012D02D1A6
:1012C0009689334006E0022D02D1168A334001E0B0
:1012D000968A33400C12012606FA04F4168834402C
:1012E00013B10CB1012000E0002070BD10B5002248
:1012F0000023A1F510646A3C00D100BF0A1201244A
:101300009440A3B2DC43048010BD000000380140CB
:101310000044004000480040004C004000500040A5
:1013200006E042F6E06100BF0A00A1F10101FBD135
:101330000200A0F10100F4D1704710B506E04FF4AF
:101340000051FE48FFF75BFB00B900E0F7E700BF84
:1013500010BD10B54FF48041F848FFF76CFB0A2030
:10136000FFF7DEFF4FF48041F448FFF762FB0A20ED
:10137000FFF7D6FFFFF7E1FF122000F075FCFFF743
:10138000DCFF012000F070FCB72000F082FC0020A0
:1013900000F07FFC002000F07CFC112000F064FCD9
:1013A000012000F076FC442000F05EFC002000F0FC
:1013B00070FC0A2000F06DFC452000F055FCB720C1
:1013C00000F067FC002000F064FC002000F061FCED
:1013D000002000F05EFC3C2000F046FC052000F000
:1013E00058FC212000F040FC002000F052FC80203E
:1013F00000F04FFC182000F037FC802000F049FC82
:101400004E2000F031FC002000F043FC4F2000F0A3
:101410002BFCB72000F03DFC002000F03AFCFFF769
:101420008CFF10BD10B54FF48041C448FFF703FB9B
:101430000A20FFF775FF4FF48041C048FFF7F9FA23
:101440000A20FFF76DFF122000F00EFCFFF775FF7A
:10145000182000F009FC802000F01BFC222000F086
:1014600003FCB12000F015FC202000F0FDFBFFF78D
:1014700064FF1A2000F0F8FB642000F00AFC002052
:1014800000F007FC222000F0EFFB912000F001FCAF
:10149000202000F0E9FBFFF750FF10BD10B54FF41E
:1014A0008041A648FFF7C7FA0A20FFF739FF4FF43B
:1014B0008041A248FFF7BDFA0A20FFF731FF122052
:1014C00000F0D2FBFFF739FF182000F0CDFB8020A1
:1014D00000F0DFFB222000F0C7FBB12000F0D9FBB9
:1014E000202000F0C1FBFFF728FF1A2000F0BCFB12
:1014F0005A2000F0CEFB002000F0CBFB222000F0B1
:10150000B3FB912000F0C5FB202000F0ADFBFFF7FE
:1015100014FF3C2000F0A8FB052000F0BAFB2C20B3
:1015200000F0A2FB082000F0B4FB10BD10B5222093
:1015300000F09AFBF72000F0ACFB202000F094FBB9
:10154000FFF7FBFE10BD10B5222000F08DFBC72079
:1015500000F09FFB202000F087FBFFF7EEFE10BDA0
:1015600010B5222000F080FBFF2000F092FB20202D
:1015700000F07AFBFFF7E1FE10BD70B505462420B0
:1015800000F072FB002403E0285D00F082FB641C85
:10159000B4F5FD6FF8D3FFF7C9FF70BD70B5054610
:1015A000242000F061FB002403E0285D00F071FBC3
:1015B000641CB4F5FD6FF8D3FFF7C5FF70BD10B51F
:1015C000242000F051FB002403E0FF2000F061FB29
:1015D000641CB4F5FD6FF8D3FFF7A8FF10BD10B57C
:1015E000242000F041FB002403E0002000F051FB28
:1015F000641CB4F5FD6FF8D3FFF798FF10BD70B50C
:101600000546242000F030FB002403E0285D00F0B4
:1016100040FB641CB4F5FD6FF8D3262000F024FBDA
:10162000002403E0285D00F034FB641CB4F5FD6F7A
:10163000F8D3FFF77BFF70BD2DE9F05F05460C4640
:1016400090461E46DDF82890ED0805EBD900A0F184
:10165000010B00BFA019A0F1010A4FF480413748E7
:10166000FFF7E9F90A20FFF75BFE4FF480413348AA
:10167000FFF7DFF90A20FFF753FE3C2000F0F4FAF1
:10168000802000F006FB442000F0EEFAE8B200F003
:1016900000FB0BF0FF0000F0FCFA452000F0E4FA3C
:1016A000E0B200F0F6FAC4F3072000F0F2FA0AF014
:1016B000FF0000F0EEFACAF3072000F0EAFA4E202D
:1016C00000F0D2FAE8B200F0E4FA4F2000F0CCFAD1
:1016D000E0B200F0DEFAC4F3072000F0DAFA2420CA
:1016E00000F0C2FA002704E018F8070000F0D1FA71
:1016F0007F1C06FB09F0B7EBD00FF5D3FFF730FFE7
:10170000BDE8F09F2DE9F0410546B82758264FF473
:1017100080410A48FFF78FF90A20FFF701FE4FF4D6
:1017200080410648FFF785F90A20FFF7F9FD3C20C4
:1017300000F09AFA802000F0ACFA01E000180140B5
:10174000242000F091FA002403E0285D00F0A1FAC3
:10175000641C07FB06F0B4EBD00FF6D3FFF700FFD5
:10176000BDE8F08110B5102000F07EFA012000F0F5
:1017700090FA6420FFF7D4FD10BD2DE9F05F054617
:101780000C4690461E46DDF82890ED0805EBD90082
:10179000A0F1010B641EA019A0F1010A4FF48041D1
:1017A000FD48FFF748F90A20FFF7BAFD4FF48041E2
:1017B000F948FFF73EF90A20FFF7B2FD3C2000F0A0
:1017C00053FA802000F065FA442000F04DFAE8B2A8
:1017D00000F05FFA0BF0FF0000F05BFA452000F02C
:1017E00043FAE0B200F055FAC4F3072000F051FAD2
:1017F0000AF0FF0000F04DFACAF3072000F049FAA2
:101800004E2000F031FAE8B200F043FA4F2000F029
:101810002BFAE0B200F03DFAC4F3072000F039FAE9
:10182000242000F021FA002704E018F8070000F057
:1018300030FA7F1C06FB09F0B7EBD00FF5D3BDE8FB
:10184000F09F2DE9F84F06460F4690461D46DDE90C
:101850000BABDDF82890169C009442463946304682
:10186000159BFFF78AFF0094524649462846159B70
:10187000FFF783FF00945846159BDDE90D12FFF733
:101880007CFF0094159B0FA807C8FFF776FF009414
:1018900012A80FC8FFF771FFFFF762FEBDE8F88FCF
:1018A00010B54FF48041BC48FFF7C5F80A20FFF798
:1018B00037FD4FF48041B848FFF7BBF80A20FFF727
:1018C0002FFDFFF73AFD122000F0CEF9FFF735FDAE
:1018D0003C2000F0C9F9052000F0DBF9012000F000
:1018E000C3F9B72000F0D5F9002000F0D2F90020AC
:1018F00000F0CFF9112000F0B7F9022000F0C9F98B
:10190000442000F0B1F90A2000F0C3F9002000F0F3
:10191000C0F9452000F0A8F9002000F0BAF9002035
:1019200000F0B7F9B72000F0B4F9002000F0B1F9E9
:10193000212000F099F9002000F0ABF9802000F0A0
:10194000A8F9182000F090F9802000F0A2F94E20AC
:1019500000F08AF90A2000F09CF94F2000F084F989
:10196000002000F096F9002000F093F9FFF7E5FC65
:1019700010BD10B54FF480418748FFF75CF80A208E
:10198000FFF7CEFC4FF480418348FFF752F80A205E
:10199000FFF7C6FCFFF7D1FC122000F065F9FFF756
:1019A000CCFC012000F060F9272000F072F9012042
:1019B00000F06FF9012000F06CF9112000F054F9EB
:1019C000012000F066F9442000F04EF9002000F0FC
:1019D00060F90A2000F05DF9452000F045F9272064
:1019E00000F057F9012000F054F9002000F051F9FF
:1019F000002000F04EF93C2000F036F9052000F000
:101A000048F9212000F030F9002000F042F9802050
:101A100000F03FF9182000F027F9802000F039F994
:101A20004E2000F021F9002000F033F94F2000F0A3
:101A30001BF9272000F02DF9012000F02AF9FFF70B
:101A40007CFC10BD2DE9F04106460B274FF0B8088D
:101A5000242000F009F900250AE0002405E005FB38
:101A60000741705C00F015F9641CBC42F7D36D1C93
:101A70004545F2D3FFF75AFDBDE8F08170B5044645
:101A80000D46002022462B46002110E04606300E6F
:101A900002F0C006C02E03D002F0C006402E02D1D4
:101AA00040F0010000E000BF9606320E491C0429F8
:101AB000ECD3002110E04606300E03F0C006C02E25
:101AC00003D003F0C006402E02D140F0010000E038
:101AD00000BF9E06330E491C0429ECD370BD70B5BF
:101AE00004460D46002022462B46002110E0460603
:101AF000300E02F0C006C02E03D002F0C006802EC9
:101B000002D140F0010000E000BF9606320E491CF1
:101B10000429ECD3002110E04606300E03F0C00685
:101B2000C02E03D003F0C006802E02D140F0010089
:101B300000E000BF9E06330E491C0429ECD370BDA3
:101B400070B50546242000F08FF800240AE02A1919
:101B50005178285DFFF792FF0646F143C8B200F0C6
:101B600098F8A41CB4F57D6FF1D3262000F07CF822
:101B700000240AE02A195178285DFFF7B0FF0646D5
:101B8000F143C8B200F085F8A41CB4F57D6FF1D321
:101B9000FFF7D9FC70BD00000018014008B5012115
:101BA0006020FFF751F94FF4E060ADF8000010201D
:101BB0008DF8030002208DF8020069463F48FEF7C9
:101BC0008DFE4FF44040ADF8000010208DF803006A
:101BD00002208DF8020069463948FEF77FFE4FF477
:101BE0000050ADF8000048208DF8030002208DF869
:101BF000020069463248FEF771FE4FF48050ADF89E
:101C0000000010208DF8030002208DF802006946C4
:101C10002B48FEF763FE08BD70B504464FF4007113
:101C20002648FEF708FF00251BE014F0800F05D0C2
:101C30004FF480612148FEF7FCFE04E04FF4806120
:101C40001E48FEF7F8FE4FF400711C48FEF7F1FE47
:101C50004FF400711948FEF7EEFE6006040E681C92
:101C6000C5B2082DE1DB70BD10B504464FF480719C
:101C70001248FEF7E0FE4FF400411148FEF7DBFE8C
:101C80002046FFF7C9FF4FF480710C48FEF7D1FEE4
:101C900010BD10B504464FF480710848FEF7CBFE26
:101CA0004FF400410648FEF7C4FE2046FFF7B4FF9C
:101CB0004FF480710148FEF7BCFE10BD00140140D6
:101CC000001801407047704770477047704775466D
:101CD00000F028F8AE4605006946534620F007009C
:101CE000854618B020B5FEF719FDBDE820404FF03D
:101CF00000064FF000074FF000084FF0000B21F0F6
:101D00000701AC46ACE8C009ACE8C009ACE8C009C2
:101D1000ACE8C0098D4670470446AFF3008020460A
:101D2000FEF74DFA00487047FC000020FFFFFFFF60
:101D3000FFFFFFFFFFF80FFFFFC001FFFF8000FF65
:101D4000FF00007FFE0FF83FFE3FFE3FFC7FFF1FBE
:101D5000FCFFFF9FFDFFFFDFFDFFFFDFFDFFFFDF5C
:101D6000FDFFFFDFFCFFFF9FFCFFFF1FFE3FFE3F6D
:101D7000FE0FF83FFF00007FFF8000FFFFC001FF64
:101D8000FFF80FFFFFFFFFFFFFFFFFFFFFFFFFFF5A
:101D9000FFFFFFFFFFFFFFFFFFFFFFFFFFFFFFFF53
:101DA000FFFFFFFFFF7FFFDFFF7FFFDFFF7FFFDF23
:101DB000FF7FFFDFFF7FFF9FFE00001FFE00001F71
:101DC000FC00001FFC00001FFFFFFF9FFFFFFFDF65
:101DD000FFFFFFDFFFFFFFDFFFFFFFDFFFFFFFFF73
:101DE000FFFFFFFFFFFFFFFFFFFFFFFFFFFFFFFF03
:101DF000FFFFFFFFFFFFFF9FFF8FFF1FFF07FE1F7C
:101E0000FE07FC9FFE07F89FFEE7F99FFCFFF39F8C
:101E1000FDFFE79FFDFFE79FFDFFCF9FFDFF9F9F1A
:101E2000FDFF9F9FFCFF3F9FFCFE3F9FFC787F9F35
:101E3000FE00FF1FFE00FC1FFF01F81FFF87F8FFD9
:101E4000FFFFFFFFFFFFFFFFFFFFFFFFFFFFFFFFA2
:101E5000FFFFFFFFFFFFFFFFFFFFFCFFFF9FF87F7C
:101E6000FF0FF83FFE0FF83FFE0FF89FFCCFFF9FDC
:101E7000FDFEFFDFFDFEFFDFFDFEFFDFFDFEFFDFFE
:101E8000FDFEFFDFFDFC7FDFFCFC7F9FFC793FBF99
:101E9000FE011E3FFE03803FFF07807FFF8FC0FFD4
:101EA000FFFFE1FFFFFFFFFFFFFFFFFFFFFFFFFF60
:101EB000FFFFFFFFFFFFF7FFFFFFC7FFFFFF87FFEA
:101EC000FFFF17FFFFFE37FFFFFC77FFFFF8F7FF6D
:101ED000FFF1F7EFFFE3F7EFFFC7F7EFFF8FF7EF44
:101EE000FF1FF7CFFE00000FFC00000FFC00000FEB
:101EF000FC00000FFFFFF7CFFFFFF7EFFFFFF7EF4B
:101F0000FFFFF7EFFFFFF7EFFFFFFFFFFFFFFFFF11
:101F1000FFFFFFFFFFFFFFFFFFFFFCFFFFE0787FFA
:101F2000FC00783FFC1C783FFCFCF9BFFCF9FF9FEC
:101F3000FCF9FFDFFCFBFFDFFCFBFFDFFCFBFFDF4F
:101F4000FCFBFFDFFCFBFFDFFCF9FF9FFCF8FF1F42
:101F5000FCFC7E3FFCFC003FFCFE007FFCFF00FF22
:101F6000FFFF83FFFFFFFFFFFFFFFFFFFFFFFFFFFD
:101F7000FFFFFFFFFFF807FFFFE001FFFFC000FFCB
:101F8000FF80007FFF0F3C3FFE3E7F3FFE7EFF1F36
:101F9000FCFCFF9FFCFDFFDFFDFDFFDFFDFDFFDF24
:101FA000FDFDFFDFFDFDFFDFFC3CFF9FFC3CFF9FD5
:101FB000FC3E3E3FFE3E003FFF3E007FFFFF00FF36
:101FC000FFFFC1FFFFFFFFFFFFFFFFFFFFFFFFFF5F
:101FD000FFFFFFFFFFFFFFFFFFCFFFFFFC0FFFFF34
:101FE000FC1FFFFFFC7FFFFFFCFFFFFFFCFFFC3F30
:101FF000FCFFF01FFCFFC01FFCFF001FFCFE001FCA
:10200000FCFC3FFFFCF0FFFFFCE1FFFFFCC7FFFF14
:10201000FC8FFFFFFC1FFFFFFC7FFFFFFCFFFFFFAC
:10202000FDFFFFFFFFFFFFFFFFFFFFFFFFFFFFFFC2
:10203000FFFFFFFFFFFFF1FFFF87C07FFF03C07FB0
:10204000FE01803FFE018F3FFE703F9FFCF87F9FA7
:10205000FCF87FDFFDFC7FDFFDFC7FDFFDFE7FDF27
:10206000FDFE3FDFFDFE3FDFFCFE1F9FFCFC1F9FD0
:10207000FE790F3FFE01803FFE03C07FFF03C07F5C
:10208000FF87F1FFFFFFFFFFFFFFFFFFFFFFFFFFE6
:10209000FFFFFFFFFFC1FFFFFF807FFFFF003E3F0D
:1020A000FE003E3FFE3E1E1FFC7F9E1FFCFF9E1F4C
:1020B000FDFFDFDFFDFFDFDFFDFFDFDFFDFFDFDF38
:1020C000FDFFDF9FFDFF9F9FFCFFBF3FFE7F3C3F6B
:1020D000FE3E607FFF0000FFFF0001FFFFC003FF27
:1020E000FFF01FFFFFFFFFFFFFFFFFFFFFFFFFFFEF
:1020F000FFFFFFFFFFFFFFFFFFFFFFFFFFFFFFFFF0
:10210000FFFFFFFFFFFFFFFFFFFFFFFFFFFFFFFFDF
:10211000FFCFF3FFFF87E1FFFF87E1FFFF87E1FFCD
:10212000FFCFF3FFFFFFFFFFFFFFFFFFFFFFFFFFFB
:10213000FFFFFFFFFFFFFFFFFFFFFFFFFFFFFFFFAF
:10214000FFFFFFFFFFFFFFFFFFFFFFFFFFFFFFFF9F
:10215000FFFFFFFFFFFFFFFFFFFFFFFFFFFFFFFF8F
:10216000FFFFFFFFFFFFFFFFFFFFFFFFFFFFFFFF7F
:10217000FFFFFFFFFFFFFFFFFFFFFFFFFFFFFFFF6F
:10218000FFFFFFFFFFFFFFFFFFFFFFFFFFFFFFFF5F
:10219000FFFFFFFFFFFFFFFFFFFFFFFFFFFFFFFF4F
:1021A000FFFFFFFFFFFFFFFFFFFFFFFFFFFFFFFF3F
:1021B000FFFFFFFFFFFFFFFFFFFFFFFFFFFFFFFF2F
:1021C000FFFFFFFFFFFFFFFFFFFFFFFFFFFFFFFF1F
:1021D000FFFFFFFFFFFFFFFFFFFFFFFFFFFFFFFF0F
:1021E000FFFFFFFFFFFFFFFFFFFFFFFFFFFFFFFFFF
:1021F000FFFFFFFFFFFFFFFFFFFFFFFFFFFFFFFFEF
:10220000FFFFFFFFFFFFFFFFFFFFFFFFFFFFFFFFDE
:10221000FFFFFFFFFFFFFFFFFFFFFFFFFFFFFFFFCE
:10222000FFFFFFFFFFFFFFFFFFFFFFFFFFFFFFFFBE
:10223000FFFFFFFFFFFFFFFFFFFFFFFFFFFFFFFFAE
:10224000FFFFFFFFFFFFFFFFFFFFFFFFFFFFFFFF9E
:10225000FFFFFFFFFFFFFFFFFFFFFFFFFFFFFFFF8E
:10226000FFFFFFFFFFFFFFFFFFFFFFFFFFFFFFFF7E
:10227000FFFFFFFFFFFFFFFFFFFFFFFFFFFFFFFF6E
:10228000FFFFFFFFFFFFFFFFFFFFFFFFFFFFFFFF5E
:10229000FFFFFFFFFFFFFFFFFFFFFFFFFFFFFFFF4E
:1022A000FFFFFFFFFFFFFFFFFF007FFFFFFFFFFFBD
:1022B000FFFFFFC00001FFFFFFFFFFFFFFFE000069
:1022C000003FFFFFFFFFFFFFF000000007FFFFFFE1
:1022D000FFFFFFC001FFC001FFFFFFFFFFFF003F47
:1022E000FFFE007FFFFFFFFFFE07FFFFFFF01FFF66
:1022F000FFFFFFF80FFFFFFFF80FFFFFFFFFF03FAB
:10230000FFFFFFFE07FFFFFFFFC07FFFFFFFFF0193
:10231000FFFFFFFF81FFFFFFFFFFC0FFFFFFFF0386
:10232000FFFFFFFFFFE07FFFFFFE07FFFFFFFFFF55
:10233000F83FFFFFFC1FFFFFFFFFFFFC1FFFFFF841
:102340003FFFFFFFFFFFFE0FFFFFF07FFFFFFFFFDD
:10235000FFFF07FFFFF0FFFFC0FFFFFFFF87FFFF4B
:10236000E0FFFF003FFFFFFFC3FFFFC1FFFE001FB5
:10237000FFFFFFC1FFFFC3FFFC000FFFFFFFE0FFF8
:10238000FF87FFF80007FFCFFFF0FFFF07FFF80010
:1023900007FF83FFF07FFF0FFFF00003FF80FFF8D0
:1023A0007FFE1FFFF00003FFF03FFC3FFE1FFFF02A
:1023B0000003FFFC1FFC3FFC3FFFF00003FFFE0F8C
:1023C000FE1FFC7FFFF00003FFFF07FF1FFC7FFFE6
:1023D000F80003FFFF83FF1FF87FFFF80007FFFFF0
:1023E000C1FF0FF87FFFF80007FFFFE0FF0FF87F46
:1023F000FFFC000FFFFFF0FF0FF0FFFFFE001FFFCD
:10240000FFF07F87F0FFFFFF003FFFFFF83F87F0FF
:10241000FFFFFFC0FFFFFFF83F87F0FFFFFFFFFF59
:10242000FFFFFC3F87F0FFFFFFFFFFFFFFFC1FC721
:10243000F1FFFFFFFFFFFFFFFE1FC3E1FFFFFFFFF5
:10244000FFFFFFFE1FC3E1FFFFFFFFFFFFFFFE0FC8
:10245000C3E1FFFFFFFFFFFFFFFE0FC3E1FFFFFF31
:10246000FFFFFFFFFE0FE3E1FFFFFFFFFFFFFFFEA8
:102470000FE3E1FFFFFFFFFFFFFFFE0FE3E1FFFFC1
:10248000FFFFFFFFFFFE0FC3E1FFFFFFFFFFFFFFA7
:10249000FE0FC3E1FFFFFFFFFFFFFFFE1FC3F1FFC2
:1024A000FFFFFFFFFFFFFE1FC3F0FFFFFFFFFFFF68
:1024B000FFFE1FC7F0FFFFFFFFFFFFFFFC3F87F09E
:1024C000FFFFFFFFFFFFFFFC3F87F0FFFFFFC0FFA5
:1024D000FFFFFC3F87F0FFFFFF003FFFFFF87F8714
:1024E000F87FFFFE001FFFFFF87F8FF87FFFFC00E3
:1024F0000FFFFFF0FF0FF87FFFF80007FFFFE1FF7E
:102500000FFC7FFFF80007FFFFC1FF1FFC7FFFF0FC
:102510000003FFFF83FF1FFC3FFFF00003FFFF07E7
:10252000FE1FFE1FFFF00003FFFC1FFC3FFE1FFF0E
:10253000F00003FFF03FFC3FFF0FFFF00003FF80C0
:10254000FFF87FFF07FFF80003FF83FFF07FFF879F
:10255000FFF80007FFCFFFF0FFFF83FFF80007FF42
:10256000FFFFE0FFFFC1FFFC000FFFFFFFC1FFFF08
:10257000E1FFFE001FFFFFFFC3FFFFF0FFFF003F73
:10258000FFFFFF87FFFFF07FFFC0FFFFFFFF07FF99
:10259000FFF83FFFFFFFFFFFFF0FFFFFFC1FFFFFE5
:1025A000FFFFFFFC1FFFFFFE0FFFFFFFFFFFF83FD6
:1025B000FFFFFF03FFFFFFFFFFE07FFFFFFF81FF44
:1025C000FFFFFFFFC0FFFFFFFFC07FFFFFFFFF0117
:1025D000FFFFFFFFF03FFFFFFFFE07FFFFFFFFF8DA
:1025E0000FFFFFFFF80FFFFFFFFFFC07FFFFFFF0EC
:1025F0001FFFFFFFFFFF003FFFFE007FFFFFFFFF0A
:10260000FFC001FFE001FFFFFFFFFFFFF0001C0024
:1026100007FFFFFFFFF807FE0000003FFFFFFFFF7F
:10262000E001FFC00001FFFFFFFFFFE7F8FFFF0031
:102630007FFFFFFFFFFFDFFEFFFFFFFFFFFFFFFF4B
:10264000FFDFFEFFFFFFFFFFFFFFFFFFDFFEFFFFDC
:10265000FFFFFFFFFFFFFFC7F9FFFFFFFFF87FF35B
:10266000FFFFE001FFFFFFFFE01FF9FFFFF807FF9B
:10267000FFFFFFC01FF9FFFFFFFFFFFFFFFFC70FB7
:10268000FCFFFFFFFFFFFFFFFFCF87FCFFFFFFFC0B
:10269000FFFFFFFF9FC7FCFFFFFFFCFFFFFFFF9F48
:1026A000C3FCFFFFFFFFFFFFFFFF9FE3FCFFFFFFF8
:1026B000FFFFFFFFFF9FE1FCFFFFF07FFFFFFFFF3A
:1026C0009FF1F8FFFFE03DF0003FFF9FF071FFFF3B
:1026D000CF9EF0003FFF8FF801FFFFDFDEF7DFBF87
:1026E000FFCFFC03FFFFDFDEF7DFBFFFFFFF0FFFC2
:1026F000FFDFDCF7DFBFFFFFFFFFFFFFC7B9F7DF3B
:10270000BFFFFFFFFFFFFFE003F7FFBFFFFFFFFF7C
:10271000FFFFF80FFFFFFFFFFFFFFFFFFFFFFFFFC0
:10272000FFFFFF800000FFFFFFFFFFF7FFFF8000BC
:1027300000FFFFDFFFFFF7FFFF800000FFFFDFFF6D
:10274000FFF7FFFF87FFFFFFFFDFFEFFF7FFFFC081
:10275000FFFFFFFFDFF0FFF7FFFFF03FFFFFFFDFAF
:1027600081FFF7FFFFFE07FFFFFFDE0FFFFFFFFF09
:10277000FF81FFFFFFD07FFFFFFFFFFFE03FFFFF75
:10278000C3FFFFFFFFFFFFFC0FFFFFDFFFF0003F76
:10279000FFFFFF01FFFFFFFFF0003FFFFFFFC0FF54
:1027A000FFFFFFF7EFFFFFFFFFE0FFFFFFFFF7EF88
:1027B000FFFFFFFF01FFFFFFFFF7EFFFFFFFF80F36
:1027C000FFFFFFFFF3CFFFFFFFC07FFFFFFFFFF81B
:1027D0001FFFFFFF03FFFFFFFFFFFC3FFFFFF81F8F
:1027E000FFFFFFCFFCFFFFFFFFC0FFFFFFFFC000A9
:1027F000FFFFBFFF83FFFFFFFFC000FFFC3FFF8025
:102800000000FFFFCFFCFFF07FFF800000FFFFFF15
:10281000FFFFC3FFFF800000FFFFFFFFFE03FFFF7E
:10282000FFFFFFFFFFC000F81BFFFFFFFFFFFFFFE1
:10283000C000F0FBFFFFFFFFFFFFFFC7FFF0FBFF44
:10284000FFFFFFFFFFFFE1FFF81BFFFF9FFFFCFF04
:10285000FFF87FFF03FFFF9FFFFCFFFFFE3FFFE04E
:102860007FFF800000FFFFFF8FFFFC3FFF80000025
:10287000FFFFFFE3FFFFBFFF800000FFFFFFF8FF48
:10288000FFFFFF9FFFFCFFFFC000FFFFFFFF9FFF59
:10289000FCFFFFC000F0003FFFFFFFFFFFFFFFFF57
:1028A000F0003FFFFFFFFFFFFFFFFFF7EFFFFFFF1E
:1028B000FFFFFFFFFFFFF7EFFFFFFFFFFFFFFFFC43
:1028C0000FF7EFFFFF800000FFFFF003F3CFFFFFE4
:1028D000800000FFFFE3F1F81FFFFF800000FFFF13
:1028E000E7FDFC3FFFFFFFFFFCFFFFCFFCFFFFFF0B
:1028F000FFFFFFFCFFFFDFFEFFFFFFFFFFFFFCFF0F
:10290000FFDFFEFFFFFFFFFFFFFCFFFFDFFEF0002A
:102910003FFFFFFFFCFFFFDFFEF0003FFFFFFFFC7C
:10292000FFFFEFFDF7DFBFFFFFFFFCFFFFFFFFF73C
:10293000DFBFFFFFFFFCFFFFFFFFF7DFBFFFFFFF72
:10294000FCFFFFFFFFF7DFBFFFFFFFFFFFFFC00040
:10295000F7FFBFFFFFFFFFFFFFC000FFFFFFFFFF0D
:10296000FFFFFFFFFF7FFFFFFFFF800000FFFFFF74
:102970007FFFFFFFFF800000FFFFFF7FF0003FFFB2
:10298000800000FFFFFF7FF0003FFF9FE7FCFFFF9D
:10299000FF7FF7EFFFFF9FE7FCFFFFFF7FF7EFFFF2
:1029A000FF9FE7FCFFFFFF7FF7EFFFFF9FE7FCFFC5
:1029B000FFC000F7E7FFFF9FE7FCFFFFC000F3C386
:1029C000FFFF9FE7FCFFFFFFFFF818FFFF9FE7FCFB
:1029D000FFFFFFFFFC3C7FFF9FE7FCFFFFFFFFFFC8
:1029E000FF3FFF9FFFFCFFFFFFFFFFFFBFFFFFFF5A
:1029F000FFFFFFFFFFFFFFFFFFFFFFFFFFFFFFFFE7
:102A0000FFFFFFFFFFFFFFFFFFFFFFFFFFFFFFFFD6
:102A1000FFFFFFFFFFFFFFFFFFFFFFFFFFFFFFFFC6
:102A2000FFFFFFFFFFFFFFFFFFFFFFFFFFFFFFFFB6
:102A3000FFFFFFFFFFFFFFFFFFFFFFFFFFFFFFFFA6
:102A4000FFFFFFFFFFFFFFFFFFFFFFFFFFFFFFFF96
:102A5000FFFFFFFFFFFFFFFFFFFFFFFFFFFFFFFF86
:102A6000FFFFFFFFFFFFFFFFFFFFFFFFFFFFFFFF76
:102A7000FFFFFFFFFFFFFFE000000003FFFFFFFF7E
:102A8000FFFFE7FFFFFFF3FFFFFFFFFFFFE7FFFF92
:102A9000FFF3FFFFFFFFFFFFE7FFFFFFF3FFFFFF76
:102AA000FFFFFFE7FFEFBFF3FFFFFC000FFFE7FFB4
:102AB000DE3FF3FFFFFC000FFFE7FFDE3FF3FFFF0A
:102AC000FC000FFFE7FFDDBFF3FFFFFFFFFFFFE7A6
:102AD000FFC3BFF3FFFFFFCFFFFFE7FFC3BFF3FF5E
:102AE000FFFFCFFFFFE7FFFFFFF3FFFFFF000FFF39
:102AF000E7FFC03FF3FFFFFF000FFFE7FFDFBFF37C
:102B0000FFFFFFCFEFFFE7FFDFBFF3FFFFFFCFEFD9
:102B1000FFE7FFDFBFF3FFFFFFFFFFFFE7FFC03F60
:102B2000F3FFFFFFFFFFFFE7FFC03FF3FFFFFFFFE4
:102B3000FFFFE7FFFFFFF3FFFFFC3FFFFFE7FFDFC4
:102B4000FFF3FFFFFC3FFFFFE7FFDFFFF3FFFFFCAB
:102B50003FFFFFE7FF2FFFF3FFFFFFFFFFFFE7FF51
:102B6000DFFFF3FFFFFFF1DFFFE7FFDFFFF3FFFF13
:102B7000FFF1DFFFE7FFF07FF3FFFFFFC0CFFFE7CD
:102B8000FFCE7FF3FFFFFFCEEFFFE7FF3FBFF3FF77
:102B9000FFFFCEEFFFE7FF3FBFF3FFFFFFCEEFFFEB
:102BA000E7FF3FBFF3FFFFFFC60FFFE7FF3FBFF3A6
:102BB000FFFFFFF71FFFE7FF3FBFF3FFFFFFF71F19
:102BC000FFE7FFFFFFF3FFFFFFFFFFFFE7FFFFFF51
:102BD000F3FFFFFFFFFFFFE7FFFFFFF3FFFFFFFF35
:102BE000FFFFE7FFFFFFF3FFFFFFFFFFFFE7FFFF31
:102BF000FFF3FFFFFFFFFFFFE7FFFE3FF3FFFFFFD6
:102C0000FFFFFFE7FFFE3FF3FFFFFFFFFFFFE7FFD1
:102C1000E1FFF3FFFFFFFFFFFFE7FFDFFFF3FFFF32
:102C2000FFFFFFFFE7FFDFFFF3FFFFFFFFFFFFE710
:102C3000FFFFFFF3FFFFFFF01FFFE7FFFFFFF3FFC3
:102C4000FFFFC00FFFE7FFFFFFF3FFFFFFC00FFF16
:102C5000E7FFFFFFF3FFFFFFCFEFFFE7FFEFBFF35C
:102C6000FFFFFFCFEFFFE7FFEFBFF3FFFFFFCFEF68
:102C7000FFE7FFDE3FF3FFFFFFC7CFFFE7FFDDBF4B
:102C8000F3FFFFFFF7DFFFE7FFC3BFF3FFFFFFFF28
:102C9000FFFFE7FFC3BFF3FFFFFFFFFFFFE7FFFFFC
:102CA000FFF3FFFFFFFFFFFFE7FFE27FF3FFFFFC04
:102CB000000FFFE7FFE27FF3FFFFFC000FFFE7FFDE
:102CC000D3BFF3FFFFFC000FFFE7FFD3BFF3FFFF0E
:102CD000FFFFFFFFE7FFD3BFF3FFFFFFFFFFFFE7AC
:102CE000FFDC7FF3FFFFFFFFFFFFE7FFFFFFF3FFC7
:102CF000FFFFF01FFFE7FFDFFFF3FFFFFFC00FFF46
:102D0000E7FFDFFFF3FFFFFFC00FFFE7FF2FFFF33A
:102D1000FFFFFFCFEFFFE7FFDFFFF3FFFFFFCFEF87
:102D2000FFE7FFDFFFF3FFFFFFCFEFFFE7FFF07FDE
:102D3000F3FFFFFFC00FFFE7FFCE7FF3FFFFFFF0C2
:102D40001FFFE7FFCE7FF3FFFFFFF01FFFE7FF3F0F
:102D5000BFF3FFFFFFFFFFFFE7FF3FBFF3FFFFFFF3
:102D6000FFFFFFE7FF3FBFF3FFFFFFFFFFFFE7FFAF
:102D70003FBFF3FFFFFFC01FFFE7FFFFFFF3FFFFB2
:102D8000FFC00FFFE7FFFFFFF3FFFFFFFFEFFFE7CE
:102D9000FFFFFFF3FFFFFFFFEFFFE000000003FF77
:102DA000FFFFFFEFFFFFFFFFFFFFFFFFFFC00FFF72
:102DB000FFFFFFFFFFFFFFFFC00FFFFFFFFFFFFF52
:102DC000FFFFFFC00FFFFFFFFFFFFFFFFFFFFFFF42
:102DD000FFFFFFFFFFFFFFFFFFFFFFFFFFFFFFFF03
:102DE000FFFFFFFFFFFFFFFFFFFFFFFFFFFFFFF002
:102DF0001FFFFFFFFFFFFFFFFFFFC00FFFFFFFFFF2
:102E0000FFFFFFFFFFC00FFFFE7FFFFFFFFFFFFF82
:102E1000CFEFFFF80E3FFFFFFFFFFFC7EFFFF80EFA
:102E20003FFFFFFFFFFFC7EFFFE0000FFFFFFFFFC8
:102E3000FC000FFFE00003FFFFFFFFFC000FFFE0BF
:102E40000003FFFFFFFFFC000FFFC00003FFFFFFB9
:102E5000FFFFFFFFFFC00003FFFFFFFFFFFFFFFFBC
:102E6000C00003FFFFFFFFFFFFFFFFC00001FFFFE8
:102E7000FFFFFFC7FEFF000001FFFFFFFFFFC03E97
:102E8000FE000001FFFFFF9FFFF800FE000001FFB2
:102E9000FFFF9FFFF800F8000001FFFFFF1FFFF892
:102EA00001F00000000FFFFC0FFFC03FF00000002A
:102EB0000FFFFC0FFFC03FF00000000FFFFC0FFFF3
:102EC000C7FFE000000007FC7C1FFFFFFFE00000E1
:102ED0000007FC7C1FFFFFFFE000000007FC3F1F16
:102EE000FFFFFFE000000007F01FFFFFFFFFE00013
:102EF000000007E01FFFFFFFFFE000000007E01FEA
:102F0000FFFFFFFFE000000003E007FFFFFFFFE01F
:102F100000000003F007FFFFFFFFE000000003F0E8
:102F200007FFFFFFFFF000000003F007FFFFCFFFE8
:102F3000F000000003E007FFFF000FF000000003B7
:102F4000E007FFFF000FF000000007E007FFFF00B1
:102F50000FF000000007E01FFFFFCFEFF0000000C0
:102F600007E01FFFFFCFEFF00000000FF01FFFFF93
:102F7000FFFFE000000007F03FFFFFFFFFE0000061
:102F80000003FDFFFFFFF01FE000000003FDFFFF57
:102F9000FFF01F8000000000FFFFFFFFC00F800058
:102FA000000000FFFFFFFFCFEF8000000000FFFFE9
:102FB000FFFFCFEF8000000000FFFFFFFFCFEF809B
:102FC00000000000FFFFFFFFC00F8000000000FFB7
:102FD000FFFFFFC00F8000000000FFFFFFFFF01F9A
:102FE0008000000000FFFFFFFFFFFF8000000000E7
:102FF000FFFFFFFFFFFF8000000000FFFFFFFFFF5C
:10300000FFE000000000FFFFFFFFF01FE0000000F6
:1030100000FFFFFFFFC00FE000000000FFFFFFFF09
:10302000C00FF000000003FFFFFFFFCFEFF0000034
:103030000003FFFFFFFFC7EFF000000003FFFFFFEB
:10304000FFC7EFF800000007FFFFFFFC000FF800CC
:1030500000000FFFFFFFFC000FF80000000FFFFF54
:10306000FFFC000FF80000000FFFFFFFFFFFFFF85D
:103070000000000FFFFFFFFFFFFFF00000000FFF49
:10308000FFFFFFF71FF00000000FFFFFFFFFF71F1C
:10309000F00000000FFFFFFFFFC60FF00000000F61
:1030A000FFFFFFFFCEEFF00000000FFFFFFFFFCE9E
:1030B000EFF00000000FFFFFFFFFCECFF000000099
:1030C0003FFFFFFFFFC00FF00000003FFFFFFFFFCB
:1030D000C00FF80000003FFFFFFFFFF00FF80000F7
:1030E000007FFFFFFFFFFFFFF80000007FFFFFFFF3
:1030F000FFFFFFF80000007FFFFFFFFFFFFFFE0064
:103100000001FFFFFFFFFFC7FEFE00001FFFFFFFE4
:10311000FFFFC03EFE00001FFFFFFFFFFFC03EFF9E
:10312000F8001FFFFFFFFFFFF800FFFC001FFFFF7D
:10313000FFFFFFF801FFFC001FFFFFFFFFFFF8018B
:10314000FFFC003FFFFFFFFFFFC03FFFFE003FFF10
:10315000FFFFFFFFC7FFFFFE003FFFFFFFFFFFC7AF
:10316000FFFFFFC1FFFFFFFFFFFFFFFFFFFFFFFFAD
:10317000FFFFFFFFFFFFFFFFFFFFFFFFFFFFFFFF5F
:10318000FFFFFFFFFFFFFFFFFFFFFFFFFFFFFFFF4F
:10319000FFFFFFFFFFFFFFFFFFFFFFFFFFFFFFFF3F
:1031A000FFFFFFFFFFFFFFFFFFFFFFFFFFFFFFFF2F
:1031B000FFFFFFFFFFFFFFFFFFFFFFFFFFFFFFFF1F
:1031C000FFFFFFFFFFFFFFFFFFFFFFFFFFFFFFFF0F
:1031D000FFFFFFFFFFFFFFFFFFFFFFFFFFFFFFFFFF
:1031E000FFFFFFFFFFFFFFFFFFFFFFFFFFFFFFFFEF
:1031F000FFFFFFFFFFFFFFFFFFFFFFFFFFFFFFFFDF
:10320000FFFFFFFFFFFFFFFFFFFFFFFFFFFFFFFFCE
:10321000FFFFFFFFFFFFFFFFFFFFFFFFFFFFFFFFBE
:10322000FFFFFFFFFFFFFFFFFFFFFFFFFFFFFFFFAE
:10323000FFFFFFFFFFFFFFFFFFFFFFFFFFFFFFFF9E
:10324000FFFFFFFFFFFFFFFFFFFFFFFFFFFFFFFF8E
:10325000FFFFFFFFFFFFFFFFFFFFFFFFFFFFFFFF7E
:10326000FFFFFFFFFFFFFFFFFFFFFFFFFFFFFFFF6E
:10327000FFFFFFFFFFFFFFFFFFFFFFFFFFFFFFFF5E
:10328000FFFFFFFFFFFFFFFFFFFFFFFFFFFFFFFF4E
:10329000FFFFFFFFFFFFFFFFFFFFFFFFFFFFFFFF3E
:1032A000FFFFFFFFFFFFFFFFFFFFFFFFFFFFFFFF2E
:1032B000FFFFFFFFFFFFFFFFFFFFFFFFFFFFFFFF1E
:1032C000FFFFFFFFFFFFFFFFFFFFFFFFFFFFFFFF0E
:1032D000FFFFFFFFFFFFFFFFFFFFFFFFFFFFFFFFFE
:1032E000FFFFFFFFFFFFFFFFFFFFFFFFFFFFFFFFEE
:1032F000FFFFFFFFFFFFFFFFFFFFFFFFFFFFFFFFDE
:10330000FFFFFFFFFFFFFFFFFFFFFFFFFFFFFC01CE
:10331000FFFFFFFFFFFFFFFFFFFC01FFFFFFFFFFBE
:10332000FFFFFFFFF800FFFFFFFFFFFFFFFFFFE3CF
:10333000FE3FFFFFFFFFFFFFFFFFE3FE3FFFFFFF3B
:10334000FFFFFFFFFFE7FF3FFFFFFFFFFFFFFFFF65
:10335000E7CF3FFFFFFFFFFFFFFFFFE7CF3FFFFF8D
:10336000FFFFFFFFFFFFE3CE3FFFFFFFFFFFFFFF7A
:10337000FFE0C03FFFFFFFFFFFFFFFFFE0C03FFF99
:10338000FFFFFFFFFFFFFFFCC0FFFFFFFFFFFFFF8F
:10339000FFFFFFFFFFFFFFFFFFFFFFFFFFFC01FF3E
:1033A000FFFFFFFFFFFFFFFFFC01FFFFFFFFFFFF2E
:1033B000FFFFFFF800FFFFFFFFFFFFFFFFFFE3FE40
:1033C0003FFFFFFFFFFFFFFFFFE3FE3FFFFFFFFFAA
:1033D000FFFFFFFFE7FF3FFFFFFFFFFFFFFFFFE7ED
:1033E000FF3FFFFFFFFFFFFFFFFFE7FF3FFFFFFF85
:1033F000FFFFFFFFFFE3FE3FFFFFFFFFFFFFFFFFBA
:10340000F800FFFFFFFFFFFFFFFFFFFC01FFFFFFD3
:10341000FFFFFFFFFFFFFC01FFFFFFFFFFFFFFFFBD
:10342000FFFFFFFFFFFFFFFFFFFFFFFFFC01FFFFAD
:10343000FFFFFFFFFFFFFFFC01FFFFFFFFFFFFFF9D
:10344000FFFFF800FFFFFFFFFFFFFFFFFFE3FE3F6F
:10345000FFFFFFFFFFFFFFFFE3FE3FFFFFFFFFFF59
:10346000FFFFFFE7FF3FFFFFFFFFFFFFFFFFE7FF5C
:103470003FFFFFFFFFFFFFFFFFE7FF3FFFFFFFFFF4
:10348000FFFFFFFFE3FE3FFFFFFFFFFFFFFFFFF830
:1034900000FFFFFFFFFFFFFFFFFFFC01FFFFFFFF3C
:1034A000FFFFFFFFFFFC01FFFFFFFFFFFFFFFFFF2D
:1034B000FFFFFFFFFFFFFFFFFFFFFFE0003FFFFFFA
:1034C000FFFFFFFFFFFFE0003FFFFFFFFFFFFFFFEA
:1034D000FFE0003FFFFFFFFFFFFFFFFFE7FF3FFFB2
:1034E000FFFFFFFFFFFFFFE7FF3FFFFFFFFFFFFFC4
:1034F000FFFFE7FF3FFFFFFFFFFFFFFFFFE3FE3F91
:10350000FFFFFFFFFFFFFFFFF800FFFFFFFFFFFFD1
:10351000FFFFFFF800FFFFFFFFFFFFFFFFFFFC01C2
:10352000FFFFFFFFFFFFFFFFFFFFFFFFFFFFFFFFAB
:10353000FFFFFFFFFFFFFFFFFFFFFFFFFFFFFFFF9B
:10354000FFFFFFFFFFFFFFFFFFFFFFFFFFFFFFFF8B
:10355000FFFFFFFFFFFFFFFFFFFFFFFFFFFFFFFF7B
:10356000FFFFFFFFFFFFFFFFFFFFFFFFFFFFFFFF6B
:10357000FFFFFFFFFFFFFFFFFFFFFFFFFFFFFFFF5B
:10358000FFE0003FFFFFFFFFFFFFFFFFE0003FFF07
:10359000FFFFFFFFFFFFFFE7FF3FFFFFFFFFFFFF13
:1035A000FFFFE7FF3FFFFFFFFFFFFFFFFFE7FF3FDB
:1035B000FFFFFFFFFFFFFFFFE3FE3FFFFFFFFFFFF8
:1035C000FFFFFFE3FE3FFFFFFFFFFFFFFFFFF800EE
:1035D000FFFFFFFFFFFFFFFFFFFC01FFFFFFFFFFFC
:1035E000FFFFFFFFFC01FFFFFFFFFFFFFFFFFFFFEC
:1035F000FFFFFFFFFFFFFFFFFFFFE0003FFFFFFFB9
:10360000FFFFFFFFFFE0003FFFFFFFFFFFFFFFFFA8
:10361000E0003FFFFFFFFFFFFFFFFFFFFFFFFFFF98
:10362000FFFFFFFFFFFFF878FFFFFFFFFFFFFFFF38
:10363000FFF878FFFFFFFFFFFFFFFFFFE0383FFFCE
:10364000FFFFFFFFFFFFFFE7BE3FFFFFFFFFFFFFA3
:10365000FFFFE7BE3FFFFFFFFFFFFFFFFFE78F3FDB
:10366000FFFFFFFFFFFFFFFFE3CF3FFFFFFFFFFF76
:10367000FFFFFFE3CF3FFFFFFFFFFFFFFFFFE0C0C4
:103680003FFFFFFFFFFFFFFFFFF8F0FFFFFFFFFF20
:10369000FFFFFFFFFFFFFFFFFFFFFFFFFFFFFFFF3A
:1036A000FFFFFFFFFFFFFFFFFFFFE0003FFFFFFF08
:1036B000FFFFFFFFFFE0003FFFFFFFFFFFFFFFFFF8
:1036C000E0003FFFFFFFFFFFFFFFFFE7CFFFFFFF30
:1036D000FFFFFFFFFFFFE7CFFFFFFFFFFFFFFFFF42
:1036E000FFE7CFFFFFFFFFFFFFFFFFFFE00FFFFF41
:1036F000FFFFFFFFFFFFFFF83FFFFFFFFFFFFFFFA1
:10370000FFFFFFFFFFFFFFFFFFFFFFFFFFFFFFFFC9
:10371000FFFFFFFFFFFFFFFFE0003FFFFFFFFFFF97
:10372000FFFFFFE0003FFFFFFFFFFFFFFFFFE000A5
:103730003FFFFFFFFFFFFFFFFFFFFF3FFFFFFFFF19
:10374000FFFFFFFFFFFF3FFFFFFFFFFFFFFFFFFF49
:10375000FF3FFFFFFFFFFFFFFFFFFFFF3FFFFFFFF9
:10376000FFFFFFFFFFFFFF3FFFFFFFFFFFFFFFFF29
:10377000FFFF3FFFFFFFFFFFFFFFFFFFFFFFFFFF19
:10378000FFFFFFFFFFFFFFFE3FFFFFFFFFFFFFFF0A
:10379000FFFF803FFFFFFFFFFFFFFFFFFF803FFFB7
:1037A000FFFFFFFFFFFFFFF801FFFFFFFFFFFFFF2E
:1037B000FFFFE0F7FFFFFFFFFFFFFFFFFFE0F7FF67
:1037C000FFFFFFFFFFFFFFFFE0F7FFFFFFFFFFFF30
:1037D000FFFFFFF801FFFFFFFFFFFFFFFFFFF80103
:1037E000FFFFFFFFFFFFFFFFFFFF803FFFFFFFFF28
:1037F000FFFFFFFFFFFE3FFFFFFFFFFFFFFFFFFF9A
:10380000FFFFFFFFFFFFFFFFFFFFFFFFFFFFFFFFC8
:10381000FFFFFFFFFFE7FFFFFFFFFFFFFFFFFFFFD0
:10382000E0FFFFFFFFFFFFFFFFFFFFE0FFFFFFFFE6
:10383000FFFFFFFFFFFFF83FFFFFFFFFFFFFFFFF5F
:10384000FFFF003FFFFFFFFFFFFFFFFFFF003FFF06
:10385000FFFFFFFFFFFFFFFF003FFFFFFFFFFFFF37
:10386000FFFFF83FFFFFFFFFFFFFFFFFFFF83FFFF6
:10387000FFFFFFFFFFFFFFFFE0FFFFFFFFFFFFFF77
:10388000FFFFFFE7FFFFFFFFFFFFFFFFFFFFFFFF60
:10389000FFFFFFFFFFFFFFFFFFFFFFFFFFFFFFFF38
:1038A000FFFFFFFFFFFFFFFFFFFFFFFFFFFFFFFF28
:1038B000FFFFFFFFFFFFFFFFFFFFFFFFFFFFFFFF18
:1038C000FFFFFFFFFFFFFFFFFFFFFFFFFFFFFFFF08
:1038D000FFFFFFFFFFFFFFFFFFFFFFFFFFFFFFFFF8
:1038E000FFFFFFFFFFFFFFFFFFFFFFFFFFFFFFFFE8
:1038F000FFFFFFFFFFFFFFFFFFFFFFFFFFFFFFFFD8
:10390000FFFFFFFFFFFFFFFFFFFFFFFFFFFFFFFFC7
:10391000FFFFFFFFFFFFFFFFFFFFFFFFFFFFFFFFB7
:10392000FFFFFFFFFFFFFFFFFFFFFFFFFFFFFFFFA7
:10393000FFFFFFFFFFFFFFFFFFFFFFFFFFFFFFFF97
:10394000FFFFFFFFFFFFFFFFFFFFFFFFFFFFFFFF87
:10395000FFFFFFFFFFFFFFFFFFFFFFFFFFFFFFFF77
:10396000FFFFFFFFFFFFFFFFFFFFFFFFFFFFFFFF67
:10397000FFFFFFFFFFFFFFFFFFFFFFFFFFFFFFFF57
:10398000FFFFFFFFFFFFFFFFFFFFFFFFFFFFFFFF47
:10399000FFFFFFFFFFFFFFFFFFFFFFFFFFFFFFFF37
:1039A000FFFFFFFFFFFFFFFFFFFFFFFFFFFFFFFF27
:1039B000FFFFFFFFFFFFFFFFFFFFFFFFFFFFFFFF17
:1039C000FFFFFFFFFFFFFFFFFFFFFFFFFFFFFFFF07
:1039D000FFFFFFFFFFFFFFFFFFFFFFFFFFFFFFFFF7
:1039E000FFFFFFFFFFFFFFFFFFFFFFFFFFFFFFFFE7
:1039F000FFFFFFFFFFFFFFFFFFFFFFFFFFFFFFFFD7
:103A0000FFFFFFFFFFFFFFFFFFFFFFFF8FFFFFFF36
:103A1000FFFFFFFFFFFFFF8FFFFFFFFFFFFFFFFF26
:103A2000FFFF8FFFFFFFFFFFFF0000003F8FFFFF43
:103A3000FFFFFFFF0000003F8FFFFFFFFFFFFF00C2
:103A400000003F8FFFFFFFFFFFFFC3FFFFFF8FFF60
:103A5000FFFFFFFFFFE0FFFFFF8FFFFFFFFFFFFF05
:103A6000E0FFFFFF8FFFFFFFFFFFFFFC3FFFFF8F28
:103A7000FFFFFFFFFFFFFF0FFFFF8FFFFFFFFFFFB6
:103A8000FFFF0FFFFF8FFFFFFFFFFFFFFFC1FFFFE4
:103A90008FFFFFFFFFFFFFFFF0FFFF8FFFFFFFFF25
:103AA000FFFFFFFE1FFF8FFFFFFFFFFFFFFFFE1F58
:103AB000FF8FFFFFFFFFFFFFFFFF0FFF8FFFFFFFE6
:103AC000FFFFFFFFFFE1FF8FFFFFFFFFFFFFFFFF94
:103AD000E1FF8FFFFFFFFFFFFFFFFFF07F8FFFFF83
:103AE000FFFFFFFF0000003F8FFFFFFFFFFFFF0012
:103AF00000003F8FFFFFFC01FFFF0000003F8E0032
:103B00001FFC01FFFFFFFFFFFF8FBFFFF800FFFF5C
:103B1000FFFFFFFF8FC7FFE3FE3FFFFFFFFFFF8FAA
:103B2000C7FFE3FE3FFFFFFFFFFF8FF87FE7FF3F89
:103B3000FFFFF003FF8FFF9FE7CF3FFFFFF003FF83
:103B40008FFF9FE7CF3FFFFFC001FF8FF87FE3CEDE
:103B50003FFFFF87F07F8FC7FFE0C03FFFFF87F089
:103B60007F8FC7FFE0C03FFFFF0FFC3F8FBFFFFC11
:103B7000C0FFFFFF3FFE3F8E001FFFFFFFFFFF3F25
:103B8000FE3F8E001FFC01FFFFFF3FFE3F8FFFFF48
:103B9000FC01FFFFFF3FFE3F8FFFFFF800FFFFFF2D
:103BA0003FFE3F8FFFFFE3FE3FFFFF3FFE3F8FFFE4
:103BB000FFE3FE3FFFFF0FFC3F8FFFFFE7FF3FFFED
:103BC000FF87F07F8FE47FE7FF3FFFFF87F07F8F66
:103BD000E47FE7FF3FFFFFC001FF8FDB9FE3FE3F76
:103BE000FFFFF003FF8FDB9FF800FFFFFFF003FFF5
:103BF0008FDB9FFC01FFFFFFFFFFFF8FDB7FFC01DF
:103C0000FFFFFFFFFFFF8FE01FFFFFFFFFFFFFFF33
:103C1000FF8FFFFFFC01FFFFFFFFFFFF8FFFFFFC98
:103C200001FFFFFFFFFFFF8FFFFFF800FFFFFF3FD8
:103C3000FE3F8FFFFFE3FE3FFFFF3FFE3F8FFFFF93
:103C4000E3FE3FFFFF3FFE3F8FE07FE7FF3FFFFFC9
:103C5000FFFFFF8FDF9FE7FF3FFFFFFFFFFF8FDFCC
:103C60009FE7FF3FFFFFFFFFFF8FDF9FE3FE3FFF69
:103C7000FFFFFFFF8FE77FF800FFFFFFFFFFFF8FD2
:103C8000E77FFC01FFFFFFFFFFFF8E001FFC01FF2E
:103C9000FFFFFFFFFF8FFFFFFFFFFFFFFFFFFFFFA4
:103CA0008FFFFFE0003FFFFFFFFFFF8FFFFFE00000
:103CB0003FFFFFFFFFFF8FFFFFE0003FFFFFFFFF22
:103CC000FF8FE07FE7FF3FFFFFFFFFFF8FE07FE712
:103CD000FF3FFFFFFFFFFF8FDB9FE7FF3FFFFFFF80
:103CE000FFFF8FDB9FE3FE3FFFFFFFFFFF8FDB9FA9
:103CF000F800FFFFFFFFFFFF8FDB9FF800FFFFFFD4
:103D0000FFFFFF8FE37FFC01FFFFFFFFFFFF8FFF40
:103D1000FFFFFFFFFFFFFFFFFF8FFFFFFFFFFFFF23
:103D2000FFFFFFFF8FFFFFFFFFFFFFFFFFFFFF8F83
:103D3000FFFFFFFFFFFFFFFFFFFF8FFFFFFFFFFF03
:103D4000FFFCFFFCFF8FFFFFFFFFFFFFFCFFFCFFFF
:103D50008FFFFFFFFFFFFFF8FFFCFF8FFFFFFFFF5D
:103D6000FFFFF9FFFCFF8FFFFFE0003FFFF9FFFCC3
:103D7000FF8FFFFFE0003FFFF80000FF8FFFFFE72E
:103D8000FF3FFFF00000FF8FFFFFE7FF3FFFF00066
:103D900000FF8FFFFFE7FF3FFFFFFFFCFF8E401F8D
:103DA000E3FE3FFFFFFFFCFF8E401FE3FE3FFFFFF0
:103DB000FFFCFF8FFFFFF800FFFFFFFFFCFF8FFFFF
:103DC000FFFC01FFFFFFFFFCFF8FFFFFFC01FFFF78
:103DD000FFFFFFFF8FFFFFFFFFFFFFFFFFFFFF8FD3
:103DE000C01FE0003FFFFFFFFCFF8FC01FE0003F50
:103DF000FFFCFFF8FF8FDFFFE0003FFFF9FFF0FF60
:103E00008FDFFFFFFFFFFFF9FFE0FF8FDFFFF87895
:103E1000FFFFF3FFC4FF8FDFFFF878FFFFF3FF8C96
:103E2000FF8FE01FE0383FFFF3FF1CFF8FFFFFE72E
:103E3000BE3FFFF3FE3CFF8FFFFFE7BE3FFFF1F801
:103E40007CFF8FFFFFE78F3FFFF1F0FCFF8FFFFF4D
:103E5000E3CF3FFFF801FCFF8FFFFFE3CF3FFFFC05
:103E600003FCFF8FFFFFE0C03FFFFE0FFCFF8FFF53
:103E7000FFF8F0FFFFFFFFFFFF8FFFFFFFFFFFFFD8
:103E8000FFFFFFFF8FFFFFFFFFFFFFFFFFFFFF8F22
:103E9000FFFFE0003FFFFFFFFFFF8FFFFFE0003F5E
:103EA000FFFFFFF3FF8FFFFFE0003FFFF9FFF9FF88
:103EB0008FC0FFE7CFFFFFFBF9F8FF8FBF7FE7CF92
:103EC000FFFFF3F9FCFF8FBF7FE7CFFFFFF3F9FCA4
:103ED000FF8E7F9FE00FFFFFF3F9FCFF8E7F9FF8BF
:103EE0003FFFFFF3F9FCFF8E7F9FFFFFFFFFF3F122
:103EF000FCFF8E7F9FFFFFFFFFF1E0F8FF8E3F1F6B
:103F0000E0003FFFF80471FF8FBF7FE0003FFFF844
:103F10000E01FF8FBF7FE0003FFFFE1E03FF8FFFFC
:103F2000FFFFFF3FFFFFFF07FF8FFFFFFFFF3FFF89
:103F3000FFFFFFFF8FFFFFFFFF3FFFFFFF9FFF8F91
:103F4000FFFFFFFF3FFFFFFE1FFF8FFFFFFFFF3F52
:103F5000FFFFFC1FFF8FFFFFFFFF3FFFFFF09FFFF3
:103F60008E001FFFFFFFFFFFE39FFF8FE7FFFFFEB6
:103F70003FFFFFC79FFF8FE7FFFF803FFFFF1F9FB0
:103F8000FF8FDFFFFF803FFFFE3F9FFF8FDFFFF8C8
:103F900001FFFFF87F9FFF8FE01FE0F7FFFFF1FFBA
:103FA0009FFF8FE01FE0F7FFFFF00000FF8FFFFF94
:103FB000E0F7FFFFF00000FF8FFFFFF801FFFFF0C9
:103FC0000000FF8FFFFFF801FFFFFFFF9FFF8FFF44
:103FD000FFFF803FFFFFFF9FFF8E401FFFFE3FFF61
:103FE000FFFF9FFF8E401FFFFFFFFFFFFFFFFF8FC1
:103FF000FFFFFFFFFFFFFFFFFFFF8FFFFFE7FFFF59
:10400000FFFFFFF9FF8FFFFFE0FFFFFFF003F8FF67
:104010008FFFFFE0FFFFFFF003FCFF8FC01FF83FA3
:10402000FFFFF003FCFF8FDFFFFF003FFFF3F3FC18
:10403000FF8FDFFFFF003FFFF3F3FCFF8FDFFFFF8A
:10404000003FFFF3F3FCFF8FDFFFF83FFFFFF3F1CB
:10405000F8FF8FDFFFF83FFFFFF3F0F1FF8FE01F66
:10406000E0FFFFFFF3F801FF8FFFFFE7FFFFFFF324
:10407000FC03FF8FFFFFFFFFFFFFFFFE0FFF8FFF20
:10408000FFFFFFFFFFFFFFFFFF8FFFFFFFFFFFFFB0
:10409000FFFFFFFF8FE47FFFFFFFFFFFFFFFFF8FAB
:1040A000E47FFFFFFFFFFFFFFFFF8FDB9FFFFFFFAF
:1040B000FFFFE01FFF8FDB9FFFFFFFFFFF0007FFFA
:1040C0008FDB9FFFFFFFFFFE0001FF8FDB7FFFFF06
:1040D000FFFFFC3CF1FF8FE01FFFFFFFFFF8F9F847
:1040E000FF8FE01FFFFFFFFFF9F3FCFF8FFFFFFFD4
:1040F000FFFFFFF3F3FCFF8FFFFFFFFFFFFFF3F373
:10410000FCFF8FFFFFFFFFFFFFF3F1F8FF8FFFFFC3
:10411000FFFFFFFFF3F0F1FF8FFFFFFFFFFFFFF354
:10412000F801FF8FFFFFFFFFFFFFF9FC03FF8FFF89
:10413000FFFFFFFFFFFFFE0FFF8FFFFFFFFFFFFFF0
:10414000FFFFFFFF8FFFFFFFFFFFFFFFFFFFFF8F5F
:10415000FFFFFFFFFFFFFFFFFFFF8FFFFFFFFFFFDF
:10416000FFFFFFFFFF8FFFFFFFFFFFFFFFFFFFFFCF
:104170008FFFFFFFFFFFFFFFFFFFFF8FFFFFFFFF2F
:10418000FFFFFFFFFFFF8FFFFFFFFFFFFFFFFFFFAF
:10419000FF8FFFFFFFFFFFFFFFFFFFFF8FFFFFFF0F
:1041A000FFFFFFFFFFFFFF8FFFFFFFFFFFFFFFFF8F
:1041B000FFFF8FFFFFFFFFFFFFFFFFFFFF8FFFFFEF
:1041C000FFFFFFFFFFFFFFFF8FFFFFFFFFFFFFFF6F
:1041D000FFFFFF8FFFFFFFFFFFFFFFFFFFFF8FFFCF
:1041E000FFFFFFFFFFFFFFFFFF8FFFFFFFFFFFFF4F
:1041F000FFFFFFFF8FFFFFFFFFFFFFFFFFFFFF8FAF
:10420000FFFFFFFFFFFFFFFFFFFF8FFFFFFFFFFF2E
:10421000FF0000003F8FFFFFFFFFFFFF0000003F98
:104220008FFFFFFFFFFFFF0000003F8FFFFFFFFF3B
:10423000FFFFC3FFFFFF8FFFFFFFFFFFFFE0FFFF59
:10424000FF8FFFFFFFFFFFFFE0FFFFFF8FFFFFFF7D
:10425000FFFFFFFC3FFFFF8FFFFFFFFFFFFFFF0F91
:10426000FFFF8FFFFFFFFFFFFFFF0FFFFF8FFFFF2E
:10427000FFFFFFFFFFC1FFFF8FFFFFFFFFFFFFFFFC
:10428000F0FFFF8FFFFFFFFFFFFFFFFE1FFF8FFF0E
:10429000FFFFFFFFFFFFFE1FFF8FFFFFFFFFFFFF7F
:1042A000FFFF0FFF8FFFFFFFFFFFFFFFFFE1FF8F0C
:1042B000FFFFFFFFFFFFFFFFE1FF8FFFFFFFFFFF9C
:1042C000FFFFFFF07F8FFFFFFFFFFFFF0000003FBA
:1042D0008FFFFFFFFFFFFF0000003F8FFFFFFC018C
:1042E000FFFF0000003F8E001FFC01FFFFFFFFFFEC
:1042F000FF8FBFFFF800FFFFFFFFFFFF8FC7FFE348
:10430000FE3FFFFFFFFFFF8FC7FFE3FE3FFFFFFF03
:10431000FFFF8FF87FE7FF3FFFFFF003FF8FFF9F57
:10432000E7CF3FFFFFF003FF8FFF9FE7CF3FFFFF88
:10433000C001FF8FF87FE3CE3FFFFF87F07F8FC77D
:10434000FFE0C03FFFFF87F07F8FC7FFE0C03FFF68
:10435000FF0FFC3F8FBFFFFCC0FFFFFF3FFE3F8E04
:10436000001FFFFFFFFFFF3FFE3F8E001FFC01FF0E
:10437000FFFF3FFE3F8FFFFFFC01FFFFFF3FFE3FC0
:104380008FFFFFF800FFFFFF3FFE3F8FFFFFE3FEC1
:104390003FFFFF3FFE3F8FFFFFE3FE3FFFFF0FFCAE
:1043A0003F8FFFFFE7FF3FFFFF87F07F8FE47FE74F
:1043B000FF3FFFFF87F07F8FE47FE7FF3FFFFFC0F6
:1043C00001FF8FDB9FE3FE3FFFFFF003FF8FDB9FCB
:1043D000F800FFFFFFF003FF8FDB9FFC01FFFFFFF3
:1043E000FFFFFF8FDB7FFC01FFFFFFFFFFFF8FE081
:1043F0001FFFFFFFFFFFFFFFFF8FFFFFFC01FFFF1E
:10440000FFFFFFFF8FFFFFFC01FFFFFFFFFFFF8F9D
:10441000FFFFF800FFFFFF3FFE3F8FFFFFE3FE3F80
:10442000FFFF3FFE3F8FFFFFE3FE3FFFFF3FFE3FEB
:104430008FE07FE7FF3FFFFFFFFFFF8FDF9FE7FF7B
:104440003FFFFFFFFFFF8FDF9FE7FF3FFFFFFFFF04
:10445000FF8FDF9FE3FE3FFFFFFFFFFF8FE77FF848
:1044600000FFFFFFFFFFFF8FE77FFC01FFFFFFFF64
:10447000FFFF8E001FFC01FFFFFFFFFFFF8FFFFF0D
:10448000FFFFFFFFFFFFFFFF8FFFFFE0003FFFFF8A
:10449000FFFFFF8FFFFFE0003FFFFFFFFFFF8FFFEA
:1044A000FFE0003FFFFFFFFFFF8FE07FE7FF3FFFE1
:1044B000FFFFFFFF8FE07FE7FF3FFFFFFFFFFF8F63
:1044C000DB9FE7FF3FFFFFFFFFFF8FDB9FE3FE3F29
:1044D000FFFFFFFFFF8FDB9FF800FFFFFFFFFFFFE6
:1044E0008FDB9FF800FFFFFFFFFFFF8FE37FFC01E3
:1044F000FFFFFFFFFFFF8FFFFFFFFFFFFFFFFFFF3C
:10450000FF8FFFFFFFFFFFFFFFFFFFFF8FFFFFFF9B
:10451000FFFFFFFFFFFFFF8FFFFFFFFFFFFFFFFF1B
:10452000FFFF8FFFFFFFFFFFFFFCFFFCFF8FFFFF81
:10453000FFFFFFFFFCFFFCFF8FFFFFFFFFFFFFF808
:10454000FFFCFF8FFFFFFFFFFFFFF9FFFCFF8FFF67
:10455000FFE0003FFFF9FFFCFF8FFFFFE0003FFFA0
:10456000F80000FF8FFFFFE7FF3FFFF00000FF8F25
:10457000FFFFE7FF3FFFF00000FF8FFFFFE7FF3F78
:10458000FFFFFFFCFF8E401FE3FE3FFFFFFFFCFF2E
:104590008E401FE3FE3FFFFFFFFCFF8FFFFFF80091
:1045A000FFFFFFFFFCFF8FFFFFFC01FFFFFFFFFC92
:1045B000FF8FFFFFFC01FFFFFFFFFFFF8FFFFFFFEC
:1045C000FFFFFFFFFFFFFF8FC01FE0003FFFFFFF68
:1045D000FCFF8FC01FE0003FFFFCFFF8FF8FDFFFF5
:1045E000E0003FFFF9FFF0FF8FDFFFFFFFFFFFF964
:1045F000FFE0FF8FDFFFF878FFFFF3FFC4FF8FDFDF
:10460000FFF878FFFFF3FF8CFF8FE01FE0383FFFDC
:10461000F3FF1CFF8FFFFFE7BE3FFFF3FE3CFF8F62
:10462000FFFFE7BE3FFFF1F87CFF8FFFFFE78F3F03
:10463000FFF1F0FCFF8FFFFFE3CF3FFFF801FCFF2E
:104640008FFFFFE3CF3FFFFC03FCFF8FFFFFE0C0C6
:104650003FFFFE0FFCFF8FFFFFF8F0FFFFFFFFFFA4
:10466000FF8FFFFFFFFFFFFFFFFFFFFF8FFFFFFF3A
:10467000FFFFFFFFFFFFFF8FFFFFE0003FFFFFFF98
:10468000FFFF8FFFFFE0003FFFFFFFF3FF8FFFFF04
:10469000E0003FFFF9FFF9FF8FC0FFE7CFFFFFFB0F
:1046A000F9F8FF8FBF7FE7CFFFFFF3F9FCFF8FBF64
:1046B0007FE7CFFFFFF3F9FCFF8E7F9FE00FFFFF47
:1046C000F3F9FCFF8E7F9FF83FFFFFF3F9FCFF8EAD
:1046D0007F9FFFFFFFFFF3F1FCFF8E7F9FFFFFFF38
:1046E000FFF1E0F8FF8E3F1FE0003FFFF80471FF8D
:1046F0008FBF7FE0003FFFF80E01FF8FBF7FE0001C
:104700003FFFFE1E03FF8FFFFFFFFF3FFFFFFF077F
:10471000FF8FFFFFFFFF3FFFFFFFFFFF8FFFFFFF49
:10472000FF3FFFFFFF9FFF8FFFFFFFFF3FFFFFFEEA
:104730001FFF8FFFFFFFFF3FFFFFFC1FFF8FFFFFEC
:10474000FFFF3FFFFFF09FFF8E001FFFFFFFFFFFF8
:10475000E39FFF8FE7FFFFFE3FFFFFC79FFF8FE74E
:10476000FFFF803FFFFF1F9FFF8FDFFFFF803FFFA7
:10477000FE3F9FFF8FDFFFF801FFFFF87F9FFF8F56
:10478000E01FE0F7FFFFF1FF9FFF8FE01FE0F7FF63
:10479000FFF00000FF8FFFFFE0F7FFFFF00000FFDA
:1047A0008FFFFFF801FFFFF00000FF8FFFFFF80110
:1047B000FFFFFFFF9FFF8FFFFFFF803FFFFFFF9F78
:1047C000FF8E401FFFFE3FFFFFFF9FFF8E401FFF3A
:1047D000FFFFFFFFFFFFFF8FFFFFFFFFFFFFFFFF59
:1047E000FFFF8FFFFFE7FFFFFFFFFFF9FF8FFFFFD7
:1047F000E0FFFFFFF003F8FF8FFFFFE0FFFFFFF098
:1048000003FCFF8FC01FF83FFFFFF003FCFF8FDFAB
:10481000FFFF003FFFF3F3FCFF8FDFFFFF003FFFD1
:10482000F3F3FCFF8FDFFFFF003FFFF3F3FCFF8F8D
:10483000DFFFF83FFFFFF3F1F8FF8FDFFFF83FFFE7
:10484000FFF3F0F1FF8FE01FE0FFFFFFF3F801FF40
:104850008FFFFFE7FFFFFFF3FC03FF8FFFFFFFFF6B
:10486000FFFFFFFE0FFF8FFFFFFFFFFFFFFFFFFFB9
:10487000FF8FFFFFFFFFFFFFFFFFFFFF8FE47FFFC3
:10488000FFFFFFFFFFFFFF8FE47FFFFFFFFFFFFF43
:10489000FFFF8FDB9FFFFFFFFFFFFFF9FF8FDB9F16
:1048A000FFFFFFFFF003F8FF8FDB9FFFFFFFFFF02D
:1048B00003FCFF8FDB7FFFFFFFFFF003FCFF8FE0B8
:1048C0001FFFFFFFFFF3F3FCFF8FE01FFFFFFFFF62
:1048D000F3F3FCFF8FFFFFFFFFFFFFF3F3FCFF8FFE
:1048E000FFFFFFFFFFFFF3F1F8FF8FFFFFFFFFFF69
:1048F000FFF3F0F1FF8FFFFFFFFFFFFFF3F801FF72
:104900008FFFFFFFFFFFFFF3FC03FF8FFFFFFFFFA2
:10491000FFFFFFFE0FFF8FFFFFFFFFFFFFFFFFFF08
:10492000FF8FFFFFFFFFFFFFFFFFFFFF8FFFFFFF77
:10493000FFFFFFFFFFFFFF8FFFFFFFFFFFFFFFFFF7
:10494000FFFF8FFFFFFFFFFFFFFFFFFFFF8FFFFF57
:10495000FFFFFFFFFFFFFFFF8FFFFFFFFFFFFFFFD7
:10496000FFFFFF8FFFFFFFFFFFFFFFFFFFFF8FFF37
:10497000FFFFFFFFFFFFFFFFFF8FFFFFFFFFFFFFB7
:10498000FFFFFFFF8FFFFFFFFFFFFFFFFFFFFF8F17
:10499000FFFFFFFFFFFFFFFFFFFF8FFFFFFFFFFF97
:1049A000FFFFFFFFFF8FFFFFFFFFFFFFFFFFFFFF87
:1049B0008FFFFFFFFFFFFFFFFFFFFF8FFFFFFFFFE7
:1049C000FFFFFFFFFFFF8FFFFFFFFFFFFFFFFFFF67
:1049D000FF8FFFFFFFFFFFFFFFFFFFFF8FFFFFFFC7
:1049E000FFFFFFFFFFFFFF8FFFFFFFFFFFFFFFFF47
:1049F000FFFF8FFFFFFFFFFFFF0000003F8FFFFF64
:104A0000FFFFFFFF0000003F8FFFFFFFFFFFFF00E2
:104A100000003F8FFFFFFFFFFFFFC3FFFFFF8FFF80
:104A2000FFFFFFFFFFE0FFFFFF8FFFFFFFFFFFFF25
:104A3000E0FFFFFF8FFFFFFFFFFFFFFC3FFFFF8F48
:104A4000FFFFFFFFFFFFFF0FFFFF8FFFFFFFFFFFD6
:104A5000FFFF0FFFFF8FFFFFFFFFFFFFFFC1FFFF04
:104A60008FFFFFFFFFFFFFFFF0FFFF8FFFFFFFFF45
:104A7000FFFFFFFE1FFF8FFFFFFFFFFFFFFFFE1F78
:104A8000FF8FFFFFFFFFFFFFFFFF0FFF8FFFFFFF06
:104A9000FFFFFFFFFFE1FF8FFFFFFFFFFFFFFFFFB4
:104AA000E1FF8FFFFFFFFFFFFFFFFFF07F8FFFFFA3
:104AB000FFFFFFFF0000003F8FFFFFFFFFFFFF0032
:104AC00000003F8FFFFFFC01FFFF0000003F8E0052
:104AD0001FFC01FFFFFFFFFFFF8FBFFFF800FFFF7D
:104AE000FFFFFFFF8FC7FFE3FE3FFFFFFFFFFF8FCB
:104AF000C7FFE3FE3FFFFFFFFFFF8FF87FE7FF3FAA
:104B0000FFFFF003FF8FFF9FE7CF3FFFFFF003FFA3
:104B10008FFF9FE7CF3FFFFFC001FF8FF87FE3CEFE
:104B20003FFFFF87F07F8FC7FFE0C03FFFFF87F0A9
:104B30007F8FC7FFE0C03FFFFF0FFC3F8FBFFFFC31
:104B4000C0FFFFFF3FFE3F8E001FFFFFFFFFFF3F45
:104B5000FE3F8E001FFC01FFFFFF3FFE3F8FFFFF68
:104B6000FC01FFFFFF3FFE3F8FFFFFF800FFFFFF4D
:104B70003FFE3F8FFFFFE3FE3FFFFF3FFE3F8FFF04
:104B8000FFE3FE3FFFFF0FFC3F8FFFFFE7FF3FFF0D
:104B9000FF87F07F8FE47FE7FF3FFFFF87F07F8F86
:104BA000E47FE7FF3FFFFFC001FF8FDB9FE3FE3F96
:104BB000FFFFF003FF8FDB9FF800FFFFFFF003FF15
:104BC0008FDB9FFC01FFFFFFFFFFFF8FDB7FFC01FF
:104BD000FFFFFFFFFFFF8FE01FFFFFFFFFFFFFFF54
:104BE000FF8FFFFFFC01FFFFFFFFFFFF8FFFFFFCB9
:104BF00001FFFFFFFFFFFF8FFFFFF800FFFFFF3FF9
:104C0000FE3F8FFFFFE3FE3FFFFF3FFE3F8FFFFFB3
:104C1000E3FE3FFFFF3FFE3F8FE07FE7FF3FFFFFE9
:104C2000FFFFFF8FDF9FE7FF3FFFFFFFFFFF8FDFEC
:104C30009FE7FF3FFFFFFFFFFF8FDF9FE3FE3FFF89
:104C4000FFFFFFFF8FE77FF800FFFFFFFFFFFF8FF2
:104C5000E77FFC01FFFFFFFFFFFF8E001FFC01FF4E
:104C6000FFFFFFFFFF8FFFFFFFFFFFFFFFFFFFFFC4
:104C70008FFFFFE0003FFFFFFFFFFF8FFFFFE00020
:104C80003FFFFFFFFFFF8FFFFFE0003FFFFFFFFF42
:104C9000FF8FE07FE7FF3FFFFFFFFFFF8FE07FE732
:104CA000FF3FFFFFFFFFFF8FDB9FE7FF3FFFFFFFA0
:104CB000FFFF8FDB9FE3FE3FFFFFFFFFFF8FDB9FC9
:104CC000F800FFFFFFFFFFFF8FDB9FF800FFFFFFF4
:104CD000FFFFFF8FE37FFC01FFFFFFFFFFFF8FFF61
:104CE000FFFFFFFFFFFFFFFFFF8FFFFFFFFFFFFF44
:104CF000FFFFFFFF8FFFFFFFFFFFFFFFFFFFFF8FA4
:104D0000FFFFFFFFFFFFFFFFFFFF8FFFFFFFFFFF23
:104D1000FFFCFFFCFF8FFFFFFFFFFFFFFCFFFCFF1F
:104D20008FFFFFFFFFFFFFF8FFFCFF8FFFFFFFFF7D
:104D3000FFFFF9FFFCFF8FFFFFE0003FFFF9FFFCE3
:104D4000FF8FFFFFE0003FFFF80000FF8FFFFFE74E
:104D5000FF3FFFF00000FF8FFFFFE7FF3FFFF00086
:104D600000FF8FFFFFE7FF3FFFFFFFFCFF8E401FAD
:104D7000E3FE3FFFFFFFFCFF8E401FE3FE3FFFFF10
:104D8000FFFCFF8FFFFFF800FFFFFFFFFCFF8FFF1F
:104D9000FFFC01FFFFFFFFFCFF8FFFFFFC01FFFF98
:104DA000FFFFFFFF8FFFFFFFFFFFFFFFFFFFFF8FF3
:104DB000C01FE0003FFFFFFFFCFF8FC01FE0003F70
:104DC000FFFCFFF8FF8FDFFFE0003FFFF9FFF0FF80
:104DD0008FDFFFFFFFFFFFF9FFE0FF8FDFFFF878B6
:104DE000FFFFF3FFC4FF8FDFFFF878FFFFF3FF8CB7
:104DF000FF8FE01FE0383FFFF3FF1CFF8FFFFFE74F
:104E0000BE3FFFF3FE3CFF8FFFFFE7BE3FFFF1F821
:104E10007CFF8FFFFFE78F3FFFF1F0FCFF8FFFFF6D
:104E2000E3CF3FFFF801FCFF8FFFFFE3CF3FFFFC25
:104E300003FCFF8FFFFFE0C03FFFFE0FFCFF8FFF73
:104E4000FFF8F0FFFFFFFFFFFF8FFFFFFFFFFFFFF8
:104E5000FFFFFFFF8FFFFFFFFFFFFFFFFFFFFF8F42
:104E6000FFFFE0003FFFFFFFFFFF8FFFFFE0003F7E
:104E7000FFFFFFF3FF8FFFFFE0003FFFF9FFF9FFA8
:104E80008FC0FFE7CFFFFFFBF9F8FF8FBF7FE7CFB2
:104E9000FFFFF3F9FCFF8FBF7FE7CFFFFFF3F9FCC4
:104EA000FF8E7F9FE00FFFFFF3F9FCFF8E7F9FF8DF
:104EB0003FFFFFF3F9FCFF8E7F9FFFFFFFFFF3F142
:104EC000FCFF8E7F9FFFFFFFFFF1E0F8FF8E3F1F8B
:104ED000E0003FFFF80471FF8FBF7FE0003FFFF865
:104EE0000E01FF8FBF7FE0003FFFFE1E03FF8FFF1D
:104EF000FFFFFF3FFFFFFF07FF8FFFFFFFFF3FFFAA
:104F0000FFFFFFFF8FFFFFFFFF3FFFFFFF9FFF8FB1
:104F1000FFFFFFFF3FFFFFFE1FFF8FFFFFFFFF3F72
:104F2000FFFFFC1FFF8FFFFFFFFF3FFFFFF09FFF13
:104F30008E001FFFFFFFFFFFE39FFF8FE7FFFFFED6
:104F40003FFFFFC79FFF8FE7FFFF803FFFFF1F9FD0
:104F5000FF8FDFFFFF803FFFFE3F9FFF8FDFFFF8E8
:104F600001FFFFF87F9FFF8FE01FE0F7FFFFF1FFDA
:104F70009FFF8FE01FE0F7FFFFF00000FF8FFFFFB4
:104F8000E0F7FFFFF00000FF8FFFFFF801FFFFF0E9
:104F90000000FF8FFFFFF801FFFFFFFF9FFF8FFF64
:104FA000FFFF803FFFFFFF9FFF8E401FFFFE3FFF81
:104FB000FFFF9FFF8E401FFFFFFFFFFFFFFFFF8FE1
:104FC000FFFFFFFFFFFFFFFFFFFF8FFFFFE7FFFF79
:104FD000FFFFFFF9FF8FFFFFE0FFFFFFF003F8FF88
:104FE0008FFFFFE0FFFFFFF003FCFF8FC01FF83FC4
:104FF000FFFFF003FCFF8FDFFFFF003FFFF3F3FC39
:10500000FF8FDFFFFF003FFFF3F3FCFF8FDFFFFFAA
:10501000003FFFF3F3FCFF8FDFFFF83FFFFFF3F1EB
:10502000F8FF8FDFFFF83FFFFFF3F0F1FF8FE01F86
:10503000E0FFFFFFF3F801FF8FFFFFE7FFFFFFF344
:10504000FC03FF8FFFFFFFFFFFFFFFFE0FFF8FFF40
:10505000FFFFFFFFFFFFFFFFFF8FFFFFFFFFFFFFD0
:10506000FFFFFFFF8FE47FFFFFFFFFFFFF9FFF8F2B
:10507000E47FFFFFFFFFFFFE1FFF8FDB9FFFFFFFB0
:10508000FFFFFC1FFF8FDB9FFFFFFFFFFFF09FFF76
:105090008FDB9FFFFFFFFFFFE39FFF8FDB7FFFFFA4
:1050A000FFFFFFC79FFF8FE01FFFFFFFFFFF1F9F57
:1050B000FF8FE01FFFFFFFFFFE3F9FFF8FFFFFFF00
:1050C000FFFFFFF87F9FFF8FFFFFFFFFFFFFF1FF55
:1050D0009FFF8FFFFFFFFFFFFFF00000FF8FFFFF2D
:1050E000FFFFFFFFF00000FF8FFFFFFFFFFFFFF05C
:1050F0000000FF8FFFFFFFFFFFFFFFFF9FFF8FFFFE
:10510000FFFFFFFFFFFFFF9FFF8FFFFFFFFFFFFF7F
:10511000FFFF9FFF8FFFFFFFFFFFFFFFFFFFFF8FDF
:10512000FFFFFFFFFFFFFFFFFFFF8FFFFFFFFFFFFF
:10513000FFFFFFFFFF8FFFFFFFFFFFFFFFFFFFFFEF
:105140008FFFFFFFFFFFFFFFFFFFFF8FFFFFFFFF4F
:10515000FFFFFFFFFFFF8FFFFFFFFFFFFFFFFFFFCF
:10516000FF8FFFFFFFFFFFFFFFFFFFFF8FFFFFFF2F
:10517000FFFFFFFFFFFFFF8FFFFFFFFFFFFFFFFFAF
:10518000FFFF8FFFFFFFFFFFFFFFFFFFFF8FFFFF0F
:10519000FFFFFFFFFFFFFFFF8FFFFFFFFFFFFFFF8F
:1051A000FFFFFF8FFFFFFFFFFFFFFFFFFFFF8FFFEF
:1051B000FFFFFFFFFFFFFFFFFF8FFFFFFFFFFFFF6F
:1051C000FFFFFFFF8FFFFFFFFFFFFFFFFFFFFF8FCF
:1051D000FFFFFFFFFFFFFFFFFFFF8FFFFFFFFFFF4F
:1051E000FF0000003F8FFFFFFFFFFFFF0000003FB9
:1051F0008FFFFFFFFFFFFF0000003F8FFFFFFFFF5C
:10520000FFFFC3FFFFFF8FFFFFFFFFFFFFE0FFFF79
:10521000FF8FFFFFFFFFFFFFE0FFFFFF8FFFFFFF9D
:10522000FFFFFFFC3FFFFF8FFFFFFFFFFFFFFF0FB1
:10523000FFFF8FFFFFFFFFFFFFFF0FFFFF8FFFFF4E
:10524000FFFFFFFFFFC1FFFF8FFFFFFFFFFFFFFF1C
:10525000F0FFFF8FFFFFFFFFFFFFFFFE1FFF8FFF2E
:10526000FFFFFFFFFFFFFE1FFF8FFFFFFFFFFFFF9F
:10527000FFFF0FFF8FFFFFFFFFFFFFFFFFE1FF8F2C
:10528000FFFFFFFFFFFFFFFFE1FF8FFFFFFFFFFFBC
:10529000FFFFFFF07F8FFFFFFFFFFFFF0000003FDA
:1052A0008FFFFFFFFFFFFF0000003F8FFFFFFC01AC
:1052B000FFFF0000003F8E001FFC01FFFFFFFFFF0C
:1052C000FF8FBFFFF800FFFFFFFFFFFF8FC7FFE368
:1052D000FE3FFFFFFFFFFF8FC7FFE3FE3FFFFFFF24
:1052E000FFFF8FF87FE7FF3FFFFFF003FF8FFF9F78
:1052F000E7CF3FFFFFF003FF8FFF9FE7CF3FFFFFA9
:10530000C001FF8FF87FE3CE3FFFFF87F07F8FC79D
:10531000FFE0C03FFFFF87F07F8FC7FFE0C03FFF88
:10532000FF0FFC3F8FBFFFFCC0FFFFFF3FFE3F8E24
:10533000001FFFFFFFFFFF3FFE3F8E001FFC01FF2E
:10534000FFFF3FFE3F8FFFFFFC01FFFFFF3FFE3FE0
:105350008FFFFFF800FFFFFF3FFE3F8FFFFFE3FEE1
:105360003FFFFF3FFE3F8FFFFFE3FE3FFFFF0FFCCE
:105370003F8FFFFFE7FF3FFFFF87F07F8FE47FE76F
:10538000FF3FFFFF87F07F8FE47FE7FF3FFFFFC016
:1053900001FF8FDB9FE3FE3FFFFFF003FF8FDB9FEB
:1053A000F800FFFFFFF003FF8FDB9FFC01FFFFFF13
:1053B000FFFFFF8FDB7FFC01FFFFFFFFFFFF8FE0A1
:1053C0001FFFFFFFFFFFFFFFFF8FFFFFFC01FFFF3E
:1053D000FFFFFFFF8FFFFFFC01FFFFFFFFFFFF8FBE
:1053E000FFFFF800FFFFFF3FFE3F8FFFFFE3FE3FA1
:1053F000FFFF3FFE3F8FFFFFE3FE3FFFFF3FFE3F0C
:105400008FE07FE7FF3FFFFFFFFFFF8FDF9FE7FF9B
:105410003FFFFFFFFFFF8FDF9FE7FF3FFFFFFFFF24
:10542000FF8FDF9FE3FE3FFFFFFFFFFF8FE77FF868
:1054300000FFFFFFFFFFFF8FE77FFC01FFFFFFFF84
:10544000FFFF8E001FFC01FFFFFFFFFFFF8FFFFF2D
:10545000FFFFFFFFFFFFFFFF8FFFFFE0003FFFFFAA
:10546000FFFFFF8FFFFFE0003FFFFFFFFFFF8FFF0A
:10547000FFE0003FFFFFFFFFFF8FE07FE7FF3FFF01
:10548000FFFFFFFF8FE07FE7FF3FFFFFFFFFFF8F83
:10549000DB9FE7FF3FFFFFFFFFFF8FDB9FE3FE3F49
:1054A000FFFFFFFFFF8FDB9FF800FFFFFFFFFFFF06
:1054B0008FDB9FF800FFFFFFFFFFFF8FE37FFC0103
:1054C000FFFFFFFFFFFF8FFFFFFFFFFFFFFFFFFF5C
:1054D000FF8FFFFFFFFFFFFFFFFFFFFF8FFFFFFFBC
:1054E000FFFFFFFFFFFFFF8FFFFFFFFFFFFFFFFF3C
:1054F000FFFF8FFFFFFFFFFFFFFCFFFCFF8FFFFFA2
:10550000FFFFFFFFFCFFFCFF8FFFFFFFFFFFFFF828
:10551000FFFCFF8FFFFFFFFFFFFFF9FFFCFF8FFF87
:10552000FFE0003FFFF9FFFCFF8FFFFFE0003FFFC0
:10553000F80000FF8FFFFFE7FF3FFFF00000FF8F45
:10554000FFFFE7FF3FFFF00000FF8FFFFFE7FF3F98
:10555000FFFFFFFCFF8E401FE3FE3FFFFFFFFCFF4E
:105560008E401FE3FE3FFFFFFFFCFF8FFFFFF800B1
:10557000FFFFFFFFFCFF8FFFFFFC01FFFFFFFFFCB2
:10558000FF8FFFFFFC01FFFFFFFFFFFF8FFFFFFF0C
:10559000FFFFFFFFFFFFFF8FC01FE0003FFFFFFF88
:1055A000FCFF8FC01FE0003FFFFCFFF8FF8FDFFF15
:1055B000E0003FFFF9FFF0FF8FDFFFFFFFFFFFF984
:1055C000FFE0FF8FDFFFF878FFFFF3FFC4FF8FDFFF
:1055D000FFF878FFFFF3FF8CFF8FE01FE0383FFFFD
:1055E000F3FF1CFF8FFFFFE7BE3FFFF3FE3CFF8F83
:1055F000FFFFE7BE3FFFF1F87CFF8FFFFFE78F3F24
:10560000FFF1F0FCFF8FFFFFE3CF3FFFF801FCFF4E
:105610008FFFFFE3CF3FFFFC03FCFF8FFFFFE0C0E6
:105620003FFFFE0FFCFF8FFFFFF8F0FFFFFFFFFFC4
:10563000FF8FFFFFFFFFFFFFFFFFFFFF8FFFFFFF5A
:10564000FFFFFFFFFFFFFF8FFFFFE0003FFFFFFFB8
:10565000FFFF8FFFFFE0003FFFFFFFF3FF8FFFFF24
:10566000E0003FFFF9FFF9FF8FC0FFE7CFFFFFFB2F
:10567000F9F8FF8FBF7FE7CFFFFFF3F9FCFF8FBF84
:105680007FE7CFFFFFF3F9FCFF8E7F9FE00FFFFF67
:10569000F3F9FCFF8E7F9FF83FFFFFF3F9FCFF8ECD
:1056A0007F9FFFFFFFFFF3F1FCFF8E7F9FFFFFFF58
:1056B000FFF1E0F8FF8E3F1FE0003FFFF80471FFAD
:1056C0008FBF7FE0003FFFF80E01FF8FBF7FE0003C
:1056D0003FFFFE1E03FF8FFFFFFFFF3FFFFFFF07A0
:1056E000FF8FFFFFFFFF3FFFFFFFFFFF8FFFFFFF6A
:1056F000FF3FFFFFFF9FFF8FFFFFFFFF3FFFFFFE0B
:105700001FFF8FFFFFFFFF3FFFFFFC1FFF8FFFFF0C
:10571000FFFF3FFFFFF09FFF8E001FFFFFFFFFFF18
:10572000E39FFF8FE7FFFFFE3FFFFFC79FFF8FE76E
:10573000FFFF803FFFFF1F9FFF8FDFFFFF803FFFC7
:10574000FE3F9FFF8FDFFFF801FFFFF87F9FFF8F76
:10575000E01FE0F7FFFFF1FF9FFF8FE01FE0F7FF83
:10576000FFF00000FF8FFFFFE0F7FFFFF00000FFFA
:105770008FFFFFF801FFFFF00000FF8FFFFFF80130
:10578000FFFFFFFF9FFF8FFFFFFF803FFFFFFF9F98
:10579000FF8E401FFFFE3FFFFFFF9FFF8E401FFF5A
:1057A000FFFFFFFFFFFFFF8FFFFFFFFFFFFFFFFF79
:1057B000FFFF8FFFFFE7FFFFFFFFFFF9FF8FFFFFF7
:1057C000E0FFFFFFF003F8FF8FFFFFE0FFFFFFF0B8
:1057D00003FCFF8FC01FF83FFFFFF003FCFF8FDFCC
:1057E000FFFF003FFFF3F3FCFF8FDFFFFF003FFFF2
:1057F000F3F3FCFF8FDFFFFF003FFFF3F3FCFF8FAE
:10580000DFFFF83FFFFFF3F1F8FF8FDFFFF83FFF07
:10581000FFF3F0F1FF8FE01FE0FFFFFFF3F801FF60
:105820008FFFFFE7FFFFFFF3FC03FF8FFFFFFFFF8B
:10583000FFFFFFFE0FFF8FFFFFFFFFFFFFFFFFFFD9
:10584000FF8FFFFFFFFFFFFFFFFFFFFF8FE47FFFE3
:10585000FFFFFFFFFFFFFF8FE47FFFFFFFFFFFFF63
:10586000FFFF8FDB9FFFFFFFFFFFFFF3FF8FDB9F3C
:10587000FFFFFFFFF9FFF9FF8FDB9FFFFFFFFFFB3C
:10588000F9F8FF8FDB7FFFFFFFFFF3F9FCFF8FE0ED
:105890001FFFFFFFFFF3F9FCFF8FE01FFFFFFFFF7C
:1058A000F3F9FCFF8FFFFFFFFFFFFFF3F9FCFF8F12
:1058B000FFFFFFFFFFFFF3F1FCFF8FFFFFFFFFFF85
:1058C000FFF1E0F8FF8FFFFFFFFFFFFFF80471FF1C
:1058D0008FFFFFFFFFFFFFF80E01FF8FFFFFFFFFAE
:1058E000FFFFFE1E03FF8FFFFFFFFFFFFFFFFF070E
:1058F000FF8FFFFFFFFFFFFFFFFFFFFF8FFFFFFF98
:10590000FFFFFFFFFFFFFF8FFFFFFFFFFFFFFFFF17
:10591000FFFF8FFFFFFFFFFFFFFFFFFFFF8FFFFF77
:10592000FFFFFFFFFFFFFFFF8FFFFFFFFFFFFFFFF7
:10593000FFFFFF8FFFFFFFFFFFFFFFFFFFFF8FFF57
:10594000FFFFFFFFFFFFFFFFFF8FFFFFFFFFFFFFD7
:10595000FFFFFFFF8FFFFFFFFFFFFFFFFFFFFF8F37
:10596000FFFFFFFFFFFFFFFFFFFF8FFFFFFFFFFFB7
:10597000FFFFFFFFFF8FFFFFFFFFFFFFFFFFFFFFA7
:105980008FFFFFFFFFFFFFFFFFFFFF8FFFFFFFFF07
:10599000FFFFFFFFFFFF8FFFFFFFFFFFFFFFFFFF87
:1059A000FF8FFFFFFFFFFFFFFFFFFFFF8FFFFFFFE7
:1059B000FFFFFFFFFFFFFF8FFFFFFFFFFFFFFFFF67
:1059C000FFFF8FFFFFFFFFFFFF0000003F8FFFFF84
:1059D000FFFFFFFF0000003F8FFFFFFFFFFFFF0003
:1059E00000003F8FFFFFFFFFFFFFC3FFFFFF8FFFA1
:1059F000FFFFFFFFFFE0FFFFFF8FFFFFFFFFFFFF46
:105A0000E0FFFFFF8FFFFFFFFFFFFFFC3FFFFF8F68
:105A1000FFFFFFFFFFFFFF0FFFFF8FFFFFFFFFFFF6
:105A2000FFFF0FFFFF8FFFFFFFFFFFFFFFC1FFFF24
:105A30008FFFFFFFFFFFFFFFF0FFFF8FFFFFFFFF65
:105A4000FFFFFFFE1FFF8FFFFFFFFFFFFFFFFE1F98
:105A5000FF8FFFFFFFFFFFFFFFFF0FFF8FFFFFFF26
:105A6000FFFFFFFFFFE1FF8FFFFFFFFFFFFFFFFFD4
:105A7000E1FF8FFFFFFFFFFFFFFFFFF07F8FFFFFC3
:105A8000FFFFFFFF0000003F8FFFFFFFFFFFFF0052
:105A900000003F8FFFFFFC01FFFF0000003F8E0072
:105AA0001FFC01FFFFFFFFFFFF8FBFFFF800FFFF9D
:105AB000FFFFFFFF8FC7FFE3FE3FFFFFFFFFFF8FEB
:105AC000C7FFE3FE3FFFFFFFFFFF8FF87FE7FF3FCA
:105AD000FFFFF003FF8FFF9FE7CF3FFFFFF003FFC4
