:020000040800F2
:1000000000000320792A00088127000889270008BA
:100010009127000899270008A12700080000000088
:10002000000000000000000000000000A9270008F8
:10003000B727000800000000C5270008D3270008E4
:10004000D12A0008D12A0008D12A0008DF27000899
:10005000D12A0008EB270008D12A0008D12A00087D
:10006000D12A0008D12A0008D12A0008D12A000884
:10007000D12A0008D12A0008D12A0008D12A000874
:10008000D12A0008D12A0008D12A0008D12A000864
:10009000D12A0008D12A0008D12A0008D12A000854
:1000A000D12A0008D12A0008D12A0008D12A000844
:1000B000D12A0008D12A0008D12A0008D12A000834
:1000C000D12A0008D12A0008D12A0008D12A000824
:1000D000D12A0008D12A0008D12A0008D12A000814
:1000E000D12A0008D12A0008D12A0008D12A000804
:1000F000F92700080528000811280008D12A00085F
:100100001D280008D12A0008D12A0008D12A000899
:10011000D12A0008D12A0008D12A0008D12A0008D3
:10012000D12A0008D12A0008D12A0008D12A0008C3
:0C013000D12A0008D12A0008D12A0008BA
:1001400010B5054C237833B9044B13B10448AFF311
:1001500000800123237010BD380200200000000041
:1001600018C1000808B5034B1BB103490348AFF39E
:10017000008008BD000000003C02002018C10008FB
:1001800001F0FF01102A2BDB10F0070F08D010F848
:10019000013B013A8B422DD010F0070F42B3F6D14C
:1001A000F0B441EA012141EA014122F007047FF065
:1001B00000070023F0E80256083C85EA010586EABC
:1001C000010685FA47F5A3FA87F586FA47F6A5FAF8
:1001D00087F68EB9EED1F0BC01F0FF0102F0070204
:1001E00032B110F8013B013A83EA010313B1F8D1AF
:1001F0000020704701387047002D06BF3546033890
:10020000073815F0010F07D1013015F4807F02BFC8
:10021000013015F4C03F0130F0BC0138704700BF19
:10022000034613F8012B002AFBD1181A0138704736
:1002300081F0004102E000BF83F0004330B54FEA97
:1002400041044FEA430594EA050F08BF90EA020F04
:100250001FBF54EA000C55EA020C7FEA645C7FEA97
:10026000655C00F0E2804FEA5454D4EB5555B8BFBA
:100270006D420CDD2C4480EA020281EA030382EA2B
:10028000000083EA010180EA020281EA0303362DBD
:1002900088BF30BD11F0004F4FEA01314FF4801C90
:1002A0004CEA113102D0404261EB410113F0004FA2
:1002B0004FEA03334CEA133302D0524263EB430359
:1002C00094EA050F00F0A780A4F10104D5F1200EF7
:1002D0000DDB02FA0EFC22FA05F2801841F1000152
:1002E00003FA0EF2801843FA05F359410EE0A5F126
:1002F00020050EF1200E012A03FA0EFC28BF4CF057
:10030000020C43FA05F3C01851EBE37101F000450C
:1003100007D54FF0000EDCF1000C7EEB00006EEB19
:100320000101B1F5801F1BD3B1F5001F0CD34908A3
:100330005FEA30004FEA3C0C04F101044FEA4452FA
:1003400012F5800F80F09A80BCF1004F08BF5FEA81
:10035000500C50F1000041EB045141EA050130BD61
:100360005FEA4C0C404141EB0101013C28BFB1F573
:10037000801FE9D291F0000F04BF01460020B1FABE
:1003800081F308BF2033A3F10B03B3F120020CDA91
:100390000C3208DD02F1140CC2F10C0201FA0CF06F
:1003A00021FA02F10CE002F11402D8BFC2F1200CD4
:1003B00001FA02F120FA0CFCDCBF41EA0C0190408A
:1003C000E41AA2BF01EB0451294330BD6FEA0404D3
:1003D0001F3C1CDA0C340EDC04F11404C4F12002BE
:1003E00020FA04F001FA02F340EA030021FA04F3D0
:1003F00045EA030130BDC4F10C04C4F1200220FA27
:1004000002F001FA04F340EA0300294630BD21FA64
:1004100004F0294630BD94F0000F83F4801306BF2A
:1004200081F480110134013D4EE77FEA645C18BF1E
:100430007FEA655C29D094EA050F08BF90EA020FB5
:1004400005D054EA000C04BF1946104630BD91EAAD
:10045000030F1EBF0021002030BD5FEA545C05D1B0
:100460004000494128BF41F0004130BD14F58004EF
:100470003CBF01F5801130BD01F0004545F0FE4163
:1004800041F470014FF0000030BD7FEA645C1ABF98
:10049000194610467FEA655C1CBF0B46024650EACF
:1004A000013406BF52EA033591EA030F41F40021FB
:1004B00030BD00BF90F0000F04BF0021704730B581
:1004C0004FF4806404F132044FF000054FF0000156
:1004D00050E700BF90F0000F04BF0021704730B517
:1004E0004FF4806404F1320410F0004548BF4042EC
:1004F0004FF000013EE700BF42004FEAE2014FEA41
:1005000031014FEA02701FBF12F07F4393F07F4F1B
:1005100081F06051704732F07F4208BF704793F01E
:100520007F4F04BF41F40021704730B54FF4607431
:1005300001F0004521F000411CE700BF50EA010234
:1005400008BF704730B54FF000050AE050EA0102DD
:1005500008BF704730B511F0004502D5404261EB4D
:1005600041014FF4806404F132045FEA915C3FF48E
:10057000D8AE4FF003025FEADC0C18BF03325FEA2B
:10058000DC0C18BF033202EBDC02C2F1200300FADC
:1005900003FC20FA02F001FA03FE40EA0E0021FA01
:1005A00002F11444BDE600BF70B54FF0FF0C4CF4EF
:1005B000E06C1CEA11541DBF1CEA135594EA0C0FA1
:1005C00095EA0C0F00F0DEF82C4481EA030621EADC
:1005D0004C5123EA4C5350EA013518BF52EA033517
:1005E00041F4801143F4801338D0A0FB02CE4FF0C9
:1005F0000005E1FB02E506F00042E0FB03E54FF0F9
:100600000006E1FB03569CF0000F18BF4EF0010EF0
:10061000A4F1FF04B6F5007F64F5407404D25FEAEC
:100620004E0E6D4146EB060642EAC62141EA55519F
:100630004FEAC52040EA5E504FEACE2EB4F1FD0CE1
:1006400088BFBCF5E06F1ED8BEF1004F08BF5FEA5F
:10065000500E50F1000041EB045170BD06F0004611
:1006600046EA010140EA020081EA0301B4EB5C04BE
:10067000C2BFD4EB0C0541EA045170BD41F48011B6
:100680004FF0000E013C00F3AB8014F1360FDEBFDB
:10069000002001F0004170BDC4F10004203C35DAB7
:1006A0000C341BDC04F11404C4F1200500FA05F33A
:1006B00020FA04F001FA05F240EA020001F00042DB
:1006C00021F0004110EBD37021FA04F642EB060151
:1006D0005EEA430E08BF20EAD37070BDC4F10C047B
:1006E000C4F1200500FA04F320FA05F001FA04F23F
:1006F00040EA020001F0004110EBD37041F100012B
:100700005EEA430E08BF20EAD37070BDC4F1200535
:1007100000FA05F24EEA020E20FA04F301FA05F29D
:1007200043EA020321FA04F001F0004121FA04F245
:1007300020EA020000EBD3705EEA430E08BF20EA15
:10074000D37070BD94F0000F0FD101F0004640004F
:1007500041EB010111F4801F08BF013CF7D041EAD1
:10076000060195F0000F18BF704703F000465200D5
:1007700043EB030313F4801F08BF013DF7D043EAA6
:100780000603704794EA0C0F0CEA135518BF95EA5C
:100790000C0F0CD050EA410618BF52EA4306D1D1E3
:1007A00081EA030101F000414FF0000070BD50EA02
:1007B000410606BF1046194652EA430619D094EA8C
:1007C0000C0F02D150EA013613D195EA0C0F05D176
:1007D00052EA03361CBF104619460AD181EA0301CA
:1007E00001F0004141F0FE4141F470014FF0000082
:1007F00070BD41F0FE4141F4780170BD70B54FF01D
:10080000FF0C4CF4E06C1CEA11541DBF1CEA13559C
:1008100094EA0C0F95EA0C0F00F0A7F8A4EB05047E
:1008200081EA030E52EA03354FEA013100F0888075
:100830004FEA03334FF0805545EA131343EA12633E
:100840004FEA022245EA111545EA10654FEA0026F3
:100850000EF000419D4208BF964244F1FD0404F5AC
:10086000407402D25B084FEA3202B61A65EB030508
:100870005B084FEA32024FF480104FF4002CB6EBC5
:10088000020E75EB030E22BFB61A754640EA0C0045
:100890005B084FEA3202B6EB020E75EB030E22BF85
:1008A000B61A754640EA5C005B084FEA3202B6EBC6
:1008B000020E75EB030E22BFB61A754640EA9C0085
:1008C0005B084FEA3202B6EB020E75EB030E22BF55
:1008D000B61A754640EADC0055EA060E18D04FEA13
:1008E000051545EA16754FEA06164FEAC30343EAB3
:1008F00052734FEAC2025FEA1C1CC0D111F4801F80
:100900000BD141EA00014FF000004FF0004CB6E778
:1009100011F4801F04BF01430020B4F1FD0C88BF17
:10092000BCF5E06F3FF6AFAEB5EB030C04BFB6EB22
:10093000020C5FEA500C50F1000041EB045170BD15
:100940000EF0004E4EEA113114EB5C04C2BFD4EB42
:100950000C0541EA045170BD41F480114FF0000EC6
:10096000013C90E645EA060E8DE60CEA135594EA42
:100970000C0F08BF95EA0C0F3FF43BAF94EA0C0F45
:100980000AD150EA01347FF434AF95EA0C0F7FF4BA
:1009900025AF104619462CE795EA0C0F06D152EA0E
:1009A00003353FF4FDAE1046194622E750EA4106F2
:1009B00018BF52EA43067FF4C5AE50EA41047FF403
:1009C0000DAF52EA43057FF4EBAE12E74FF0FF3C68
:1009D00006E000BF4FF0010C02E000BF4FF0010C39
:1009E0004DF804CD4FEA410C7FEA6C5C4FEA430CB2
:1009F00018BF7FEA6C5C1BD001B050EA410C0CBF01
:100A000052EA430C91EA030F02BF90EA020F002062
:100A1000704710F1000F91EA030F58BF994208BFC9
:100A200090422CBFD8176FEAE37040F00100704786
:100A30004FEA410C7FEA6C5C02D150EA013C07D1DD
:100A40004FEA430C7FEA6C5CD6D152EA033CD3D028
:100A50005DF8040B704700BF8446104662468C4622
:100A60001946634600E000BF01B5FFF7B7FF002855
:100A700048BF10F1000F01BD4DF808EDFFF7F4FF7E
:100A80000CBF012000205DF808FB00BF4DF808ED09
:100A9000FFF7EAFF34BF012000205DF808FB00BF2C
:100AA0004DF808EDFFF7E0FF94BF012000205DF84E
:100AB00008FB00BF4DF808EDFFF7CEFF94BF012003
:100AC00000205DF808FB00BF4DF808EDFFF7C4FFFC
:100AD00034BF012000205DF808FB00BF4FEA410C45
:100AE0007FEA6C5C02D150EA013C0AD14FEA430C28
:100AF0007FEA6C5C02D152EA033C02D14FF0000065
:100B000070474FF0010070474FEA410212F50012A2
:100B100015D211D56FF47873B3EB625212D94FEA44
:100B2000C12343F0004343EA505311F0004F23FA2E
:100B300002F018BF404270474FF00000704750EA83
:100B4000013005D111F0004008BF6FF00040704740
:100B50004FF00000704700BFB0B588B000AF0B4B3E
:100B60003C1D1D460FCD0FC495E8070003C422802D
:100B70000234130C237007F099FB3B1D184606F056
:100B80002AFE00BF2037BD46B0BD00BF30C10008FF
:100B900080B483B000AF7860074BD3F8803023F087
:100BA000070205497B681343C1F8803000BF0C374A
:100BB000BD465DF8047B70470004005880B483B0E4
:100BC00000AF7860064BD3F8902005497B6813434B
:100BD000C1F8903000BF0C37BD465DF8047B70470C
:100BE0000008005880B483B000AF78604FF0B04385
:100BF0000A4AC3F89C204FF0B043D3F89C3023F44A
:100C00007C527B681B024FF0B0411343C1F89C300B
:100C100000BF0C37BD465DF8047B7047FECAFECAB4
:100C200080B483B000AF78604FF0B0439B6823F48A
:100C300000424FF0B0417B6813438B6000BF0C371C
:100C4000BD465DF8047B704780B400AF044B1B6861
:100C5000C3F30B031846BD465DF8047B704700BF25
:100C6000002004E080B400AF044B1B681B0C9BB257
:100C70001846BD465DF8047B704700BF002004E0C5
:100C800080B400AF054B1B69044A23F004031361D1
:100C900000BFBD465DF8047B704700BF00ED00E07B
:100CA00080B483B000AF78607B68FF225A6200BFD7
:100CB0000C37BD465DF8047B704780B483B000AF4D
:100CC00078607B68CA225A627B6853225A6200BFEE
:100CD0000C37BD465DF8047B704780B483B000AF2D
:100CE000786039607B689B6823F007023B681A4391
:100CF0007B689A6000BF0C37BD465DF8047B704787
:100D000080B500AF044B4FF400421A6100F024F8A4
:100D100000F029F800BF80BD0040005880B500AF4A
:100D200000F035F800F04EF80349002000F01CFEFA
:100D300000F056F800BF80BDF403002080B400AF7F
:100D400000BFBD465DF8047B704780B500AF502002
:100D5000FFF734FF00BF80BD80B400AF00BFBD46C9
:100D60005DF8047B704780B582B000AF002007F0CB
:100D700029FB78607B68002B05D07B689B7918463F
:100D8000FFF730FF00BF00BF0837BD4680BD80B50C
:100D900000AFFFF7D3FFFFF7D8FF00F003F800BF65
:100DA00080BD000080B500AF0548FFF786FF002139
:100DB0000348FFF792FF0248FFF772FF00BF80BDB4
:100DC0000028004080B500AF4FF40040FFF728FF37
:100DD00008F0B4FA0420FFF7DBFE00BF80BD00007E
:100DE00080B588B000AF07F0ABF8114A00210420AD
:100DF00008F0E2FB0F4B3B600F4B7B603B46194614
:100E00000E4806F05FFF0E4BBB600E4BFB600E4BB7
:100E10003B6140F23C537B6107F10803184607F041
:100E2000D1F907F087F800BF2037BD4680BD00BF6D
:100E3000FD7C0008340703204D0E0008650E0008F5
:100E40004C09032040080320F801032080B483B03C
:100E500000AF0346FB7100BF0C37BD465DF8047B55
:100E60007047000080B588B000AF78607B685B6831
:100E70000B33FB61FB691B889BB2A3F51243072B65
:100E80001FD801A252F823F0A90E0008BB0E0008DB
:100E9000C30E0008C30E0008C30E0008C30E0008EE
:100EA000C30E0008C30E000807F10C03184606F035
:100EB000BFFC786800F01BF804E0786800F006F8E2
:100EC00000E000BF00BF2037BD4680BD80B485B0C4
:100ED00000AF78607B685B680B33FB60FB680233B4
:100EE000BB6000BF1437BD465DF8047B704780B51A
:100EF0008AB000AF786007F1080300221A605A60D8
:100F00009A60DA6000237B6200233B627B685B6847
:100F10000B33FB61FB690233BB61BB691B78002BA0
:100F20001DD1FFF719FE0F233B727F23BB72FFF722
:100F300099FE78627B6A9BB2BB82FFF785FE3862BE
:100F40003B6A9BB2FB8207F10803184606F05AFC85
:100F500007F042FB0021012008F002FA07E0BB691C
:100F60001B78012B03D17B6800221A7000BF00BFE1
:100F70002837BD4680BD80B584B000AF786001F0F1
:100F800017FEB8607B68FB60FB68B3F1FF3F0AD0D7
:100F900001F026FE03461A46FB681344FB6002E09C
:100FA000FFF76EFE30BF01F003FE0246BB68D31AA6
:100FB000FA689A42F4D800BF00BF1037BD4680BD22
:100FC00080B500AF4FF0FF3008F0FAF900BF80BDE8
:100FD00080B400AF00BFBD465DF8047B704780B5AC
:100FE00082B000AF78600021042008F007FB00BF4A
:100FF0000837BD4680BD80B582B000AF7860022062
:1010000008F068FB00BF0837BD4680BD80B582B0E0
:1010100000AF7860022008F07DFB00BF0837BD46B6
:1010200080BD80B485B000AF78604FF0B043DA6C1B
:101030004FF0B0417B681343CB644FF0B043DA6CA0
:101040007B681340FB60FB6800BF1437BD465DF84A
:10105000047B704780B586B000AF3B1D00221A604C
:101060005A609A60DA601A610420FFF7DAFF022002
:10107000FFF7D7FF0120FFF7D4FF002248F29001CD
:101080004FF0904002F0B8F9002279212B4802F08D
:10109000B3F965237B600023BB600123FB603B1D2C
:1010A00019464FF0904001F041FF02237B6003237B
:1010B000BB600023FB603B1D19464FF0904001F0E0
:1010C00035FF48F290037B600123BB600023FB6087
:1010D00000233B613B1D19464FF0904001F026FF75
:1010E0004FF440737B600223BB600023FB6000234E
:1010F0003B6103237B613B1D19464FF0904001F09B
:1011000015FF79237B600123BB600023FB60002374
:101110003B613B1D1946094801F008FF80237B60B5
:101120000023BB600023FB603B1D1946034801F010
:10113000FDFE00BF1837BD4680BD00BF000400485B
:1011400080B483B000AF7860064BD3F880200549A7
:101150007B681343C1F8803000BF0C37BD465DF893
:10116000047B70470008005880B483B000AF7860FB
:10117000054B1A6804497B6813430B6000BF0C37AA
:10118000BD465DF8047B70470008005880B483B00A
:1011900000AF0D4B9B6A9BB27B600B4B9B6A9BB273
:1011A0003B6005E03B687B60074B9B6A9BB23B6002
:1011B0007A683B689A42F5D13B6818460C37BD46C1
:1011C0005DF8047B704700BF0028004080B485B004
:1011D00000AF03460A46FB711346BB71BA791D493D
:1011E00013465B001344DB000B4415331B78FB7381
:1011F000FB7B062B09D0FA7B164913465B00134490
:10120000DB000B441433FA791A70FA79114913464A
:101210005B001344DB000B441533FA7B1A70FA7938
:101220000C4913465B001344DB000B441433BA79BA
:101230001A70BA79074913465B001344DB000B446C
:101240001533FA791A7000BF1437BD465DF8047B78
:10125000704700BF5402002080B485B000AF034641
:101260000A46FB711346BB71294B1B78DBB2BA7976
:101270009A4232D0BA79274913465B001344DB0007
:101280000B4414331B78FB73FA7B224913465B0033
:101290001344DB000B441533FA791A70FA791D49AF
:1012A00013465B001344DB000B441533BA791A7004
:1012B000FA79184913465B001344DB000B441433DE
:1012C000FA7B1A70BA79134913465B001344DB00AA
:1012D0000B441433FA791A7014E0FA790D49134665
:1012E0005B001344DB000B441533BA791A70BA79EA
:1012F000084913465B001344DB000B441433FA79AE
:101300001A7000BF1437BD465DF8047B704700BFFC
:10131000E40200205402002080B584B000AF0346F0
:10132000FB714E4B1B78DBB2062B18D14B4B1B7855
:10133000DAB24B4B1A70494AFB791370FA79494972
:1013400013465B001344DB000B44153306221A706E
:10135000454B4FF0FF321A600023FB8178E000F02C
:1013600009F90346FB81FA793E4913465B001344B1
:10137000DB000B4408331968FB89FA7919443948B2
:1013800013465B001344DB00034408331960FA7909
:10139000344913465B001344DB000B4408331B68DD
:1013A000BB602E4B1B78DBB219462E4A0B465B0006
:1013B0000B44DB00134408331B68BA689A4237D3E6
:1013C000264B1B787B737A7B264913465B001344BC
:1013D000DB000B4415331B783B7313E07A7B214908
:1013E00013465B001344DB000B4415331B787B73FF
:1013F0007A7B1C4913465B001344DB000B44153316
:101400001B783B733B7B062B0BD03A7B154913466D
:101410005B001344DB000B4408331B68BA689A4234
:10142000DCD27A7BFB7911461846FFF7CFFE0FE03E
:101430000A4B1B78DAB2FB7911461846FFF70CFF0E
:10144000064B1B78DAB2064B1A70044AFB7913700C
:10145000FB8918461037BD4680BD00BFE40200205E
:10146000E502002054020020E802002080B485B08C
:1014700000AF03460A46FB711346BB71394B1B781C
:10148000DBB2FA799A4211D1364B1B78DAB2364B7D
:101490001A70FA79354913465B001344DB000B449C
:1014A00015331B78DAB22F4B1A703EE0FA792F49C8
:1014B00013465B001344DB000B4414331B78FB73AF
:1014C000FA792A4913465B001344DB000B441533B9
:1014D0001B78BB73F979FA7B24480B465B000B44FD
:1014E000DB00034415331B78D8B2204913465B0058
:1014F0001344DB000B44153302461A70BB7B062BEA
:1015000013D0F979BA7B19480B465B000B44DB001A
:10151000034414331B78D8B2144913465B001344B8
:10152000DB000B44143302461A70FA790F49134654
:101530005B001344DB000B440C3301221A70094B8F
:101540001B78DBB2062B07D1BB79002B04D1084BEB
:101550004FF0FF321A6000BF00BF1437BD465DF880
:10156000047B7047E4020020E502002054020020C2
:10157000E802002080B582B000AF1A4B1B68B3F1BF
:10158000FF3F26D0FFF702FE7860164B1B687A6893
:101590009A4205D8134B1A687B68D31A7B600AE01D
:1015A000114B1B881A467B68D31A3B600D4B1B6896
:1015B0003A6813447B600D4B1B781A467B6802FB2C
:1015C00003F37B600A4B1B781A467B68D3407B6031
:1015D00001E000237B607B689BB218460837BD465C
:1015E00080BD00BFE8020020F0020020EE020020D3
:1015F000ED02002080B582B000AF0346FB80FB887F
:10160000002B08D1FFF7C2FD0346214A13600320D7
:1016100001F06FFC39E0FB88012B03D81D4B1B78D0
:10162000012B02D0FB88013BFB8000BF1A4B1B68DB
:10163000DB6803F00403002BF8D0174B1B68DB6852
:10164000DAB2154B1B6862F49062DA60134B4FF408
:101650000022DA60032001F05AFC114B5B691B0C7D
:101660001B04FA880E4913434B61FFF78FFD0346B5
:10167000074A1360084B1B689A68074B1B6842F4C3
:1016800080629A60AFF3008000BF0837BD4680BD1E
:10169000E8020020ED020020F403002000080058BA
:1016A0000028004080B584B000AF454B9B6803F430
:1016B0008063B3F5806F07D100BF424B1B68DB68C6
:1016C00003F00403002BF8D13E4B1B689A683D4B96
:1016D0001B6822F480629A603B4B1B78FB73FA7B99
:1016E0003A4913465B001344DB000B4408331B6884
:1016F000BB60FFF73FFF0346FB80FB88BA689A4256
:1017000005D20023BB81324B01221A704DE0FB88C9
:10171000304A128892B213441A46BB68934206D9E3
:101720002C4B1B88BB812A4B00221A703DE0BB6802
:101730009AB2FB88D31ABB81254B01221A7034E080
:10174000FA7B224913465B001344DB000B44083349
:101750001A68FB889A420AD2FA7B1C4913465B003E
:101760001344DB000B44083300221A6013E0FA7BB9
:10177000164913465B001344DB000B440833196819
:10178000FB88FA7BC91A114813465B001344DB003F
:10179000034408331960FA7B0C4913465B00134479
:1017A000DB000B4415331B78FB73FB7B062BC7D187
:1017B000BB891846FFF71EFF00BF1037BD4680BD2E
:1017C00000280040F4030020E4020020540200201E
:1017D000EC020020F202002080B58AB000AFEFF3E7
:1017E00010837B617B697B6272B600BF594B1B68BB
:1017F000CA225A62574B1B6853225A62554B1B68C8
:101800009A68544B1B6822F480629A60524B1B7892
:1018100087F8233097F82320504913465B00134480
:10182000DB000B440C331B78DBB2022B6ED197F834
:1018300023204A4913465B001344DB000B441B681A
:10184000FB6197F82320454913465B001344DB00F6
:101850000B4410331B68BB61414B1B78DBB2002B80
:101860004CD097F823203D4913465B001344DB001E
:101870000B440D331B78DBB2012B24D197F82330B6
:1018800001211846FFF7F2FD7B6A3B613B6983F358
:10189000108800BF97F82320304913465B0013449B
:1018A000DB000B4404331A6897F8233011461846BE
:1018B00000F0B8F9274B1B68CA225A62254B1B68F7
:1018C00053225A6212E07B6AFB60FB6883F3108844
:1018D00000BF97F82330184600F020F91D4B1B6815
:1018E000CA225A621B4B1B6853225A6297F8233054
:1018F000FA691946B86900F01BFA22E0FFF7D2FE38
:101900007B6ABB60BB6883F310881AE000BF114B91
:101910001B68DB6803F00403002BF8D00D4B1B6839
:10192000DB68DAB20B4B1B6862F49062DA600D4B35
:101930004FF40022DA607B6A7B607B6883F3108857
:1019400000BF044B1B68FF225A6200BF2837BD4608
:1019500080BD00BFF4030020E402002054020020F8
:10196000EC0200200008005880B588B000AF0346A4
:101970003960FB715E4B1B68CA225A625C4B1B6864
:1019800053225A625B4B9B685A4A43F02003936090
:10199000584B9B68DBB203F00703DBB2C3F10403CF
:1019A000DAB2554B1A70534B1B6903F4FE034FF424
:1019B000FE023A613A6992FAA2F2FA60FA687A6132
:1019C0007A69002A01D1202203E07A69B2FA82F210
:1019D000D2B2D340DBB20133DAB2484B1A70454B76
:1019E0001B699BB2C3F30E039BB201339AB2444B03
:1019F0001A80434B1B88013B404A127802FB03F3D9
:101A0000A3F5A0733C4A1278D340BB61BB694FF683
:101A1000FE72934204D93B4B4FF6FF721A8003E0EB
:101A2000BB699AB2374B1A804FF40020FFF79CFB3A
:101A30004FF40020FFF784FBFB79002B3DD1324BA4
:101A400001221A70314B4FF0FF321A600023FB77EE
:101A50000CE0FA7F2E4913465B001344DB000B4475
:101A60000C3300221A70FB7F0133FB77FB7F052BC1
:101A7000EFD9284B06221A701D4B1B689A681C4B25
:101A80001B6822F480629A60194B1B68DB68DAB22B
:101A9000174B1B6862F49062DA601F4B4FF4002210
:101AA000DA60032001F033FA114B1B689A68104B7F
:101AB0001B6842F480429A6009E00D4B1B68DB68AA
:101AC00003F48063002B02D0032001F012FA084BCC
:101AD0001B68FF225A6200220321032001F0C7F98C
:101AE000032001F0DEF900BF2037BD4680BD00BFF6
:101AF000F403002000280040ED020020EE02002048
:101B0000F0020020F2020020EC020020E802002097
:101B100054020020E40200200008005880B586B07E
:101B200000AF0346FB71EFF31083FB60FB687B6142
:101B300072B600BF032001F0C2F9344B1B68CA2201
:101B40005A62324B1B6853225A62FA793049134663
:101B50005B001344DB000B440C331B78DBB2022B1D
:101B600042D1FB7900211846FFF780FC294B1B78F6
:101B7000FB74FB7C062B2FD1274B9B6803F48063FF
:101B8000B3F5806F07D100BF204B1B68DB6803F003
:101B90000403002BF8D11D4B1B689A681B4B1B6874
:101BA00022F480629A6000BF184B1B68DB6803F068
:101BB0000403002BF8D0154B1B68DB68DAB2134B1B
:101BC0001B6862F49062DA60144B4FF40022DA6012
:101BD000032001F09CF907E0114B1B78DBB2FA7C83
:101BE0009A4201D0FFF75EFD084B1B68FF225A6244
:101BF000032001F056F97B69BB60BB6883F3108852
:101C000000BF00BF1837BD4680BD00BFF4030020F1
:101C100054020020E4020020002800400008005880
:101C2000E502002080B586B000AF03463960FB7145
:101C3000FA793B4913465B001344DB000B440C3339
:101C40001B78DBB2022B03D1FB791846FFF766FF46
:101C5000EFF31083FB60FB687B6172B600BF03206B
:101C600001F02DF92F4B1B68CA225A622D4B1B68BD
:101C700053225A62FA792A4913465B001344DB0067
:101C80000B440C3302221A70FA79254913465B0083
:101C90001344DB000B4408333A681A60FA79204990
:101CA00013465B001344DB000B4404333A681A60AC
:101CB000FB791846FFF730FB03467B821A4B1B78F3
:101CC0007B741A4B1B78DBB27A7C9A4202D0FFF706
:101CD000E9FC13E0FA79124913465B001344DB0078
:101CE0000B44083319687B8AFA79C91A0C481346E1
:101CF0005B001344DB00034408331960094B1B6885
:101D0000FF225A62032001F0CCF87B69BB60BB68FC
:101D100083F3108800BF00BF1837BD4680BD00BFE9
:101D200054020020F4030020E4020020E502002019
:101D300080B584B000AFF8600B467A60FB727B68B8
:101D4000984700BF1037BD4680BD80B485B000AF56
:101D500078604FF0B043DA6C4FF0B0417B681343CA
:101D6000CB644FF0B043DA6C7B681340FB60FB68D8
:101D700000BF1437BD465DF8047B704780B485B062
:101D800000AF78604FF0B0439A6D4FF0B0417B6880
:101D900013438B654FF0B0439A6D7B681340FB6033
:101DA000FB6800BF1437BD465DF8047B7047000038
:101DB00080B500AF1B4B1C4A1A601A4B1B4A5A6075
:101DC000184B00229A60174B0122DA60154B002253
:101DD0001A61144B00225A61124B00229A61114B76
:101DE0000022DA610F4B00221A620E4801F040FB1C
:101DF0000346002B01D000F0A5FB0021094801F0AB
:101E0000D2FB0346002B01D000F09CFB00210548CB
:101E100001F014FC0346002B01D000F093FB00BF3F
:101E200080BD00BFF402002000540040140D1000DB
:101E300080B59CB000AF786007F15C0300221A60A7
:101E40005A609A60DA601A6107F10C03502200218F
:101E5000184608F038FA7B681B681F4A934237D14E
:101E60000423FB604FF44033FB6207F10C03184678
:101E700003F08DFC0346002B01D000F063FB022031
:101E8000FFF763FF4FF44073FB6512233B660023AB
:101E90007B660023BB660423FB6607F15C031946DF
:101EA0000E4801F043F84FF40010FFF767FF4FF4BE
:101EB0004073FB6512233B6601237B660023BB66F0
:101EC0000423FB6607F15C031946044801F02EF871
:101ED00000BF7037BD4680BD00540040000400487C
:101EE00080B485B000AF78604FF0B0431A6D4FF00A
:101EF000B0417B6813430B654FF0B0431A6D7B68AC
:101F00001340FB60FB6800BF1437BD465DF8047BDF
:101F10007047000080B500AF064B074A1A600548BD
:101F200001F0D8FB0346002B01D000F00BFB00BFF3
:101F300080BD00BF48030020000C005880B582B06F
:101F400000AF78607B681B680D4A934213D14FF451
:101F50008010FFF7C5FF002200212C2000F087FF32
:101F60002C2000F09EFF002200212D2000F07FFF9A
:101F70002D2000F096FF00BF0837BD4680BD00BF92
:101F8000000C005880B485B000AF78604FF0B043CB
:101F9000DA6C4FF0B0417B681343CB644FF0B04331
:101FA000DA6C7B681340FB60FB6800BF1437BD46EA
:101FB0005DF8047B704780B485B000AF78604FF067
:101FC000B0439A6D4FF0B0417B6813438B654FF07F
:101FD000B0439A6D7B681340FB60FB6800BF143709
:101FE000BD465DF8047B704780B485B000AF786073
:101FF0004FF0B043DA6D4FF0B0417B681343CB65CF
:102000004FF0B043DA6D7B681340FB60FB6800BFA4
:102010001437BD465DF8047B704780B483B000AFD1
:1020200078604FF0B0439A6D7B68DB434FF0B0416E
:1020300013408B6500BF0C37BD465DF8047B7047CD
:1020400080B483B000AF78604FF0B043DA6D7B6846
:10205000DB434FF0B0411340CB6500BF0C37BD46AA
:102060005DF8047B7047000080B500AF124B134A47
:102070001A60114B00225A600F4B00229A600E4BDF
:102080004FF6FF725A610C4B00221A620A4B002273
:102090005A62094B00229A62074B0022DA62064B11
:1020A00000221A63044801F0E5FB0346002B01D02F
:1020B00000F048FA00BF80BD84030020007C00408F
:1020C00080B500AF124B134A1A60114B00225A60C0
:1020D0000F4B00229A600E4B4FF6FF725A610C4B69
:1020E00000221A620A4B00225A62094B00229A62AD
:1020F000074B0022DA62064B00221A63044801F003
:10210000B9FB0346002B01D000F01CFA00BF80BDD4
:10211000BC0300200094004080B59CB000AF786004
:1021200007F15C0300221A605A609A60DA601A6153
:1021300007F10C0350220021184608F0C4F87B6810
:102140001B68264A934226D11023FB604FF440239C
:102150007B6307F10C03184603F019FB0346002BC1
:1021600001D000F0EFF94FF00040FFF724FF02200C
:10217000FFF708FF0423FB6502233B6600237B6611
:102180000023BB660123FB6607F15C031946144874
:1021900000F0CCFE1EE07B681B68124A934219D106
:1021A0002023FB604FF03013BB6307F10C0318468C
:1021B00003F0EDFA0346002B01D000F0C3F9202014
:1021C000FFF712FF00220221302000F050FE3020E5
:1021D00000F067FE00BF7037BD4680BD007C004048
:1021E000000400480094004080B582B000AF7860E1
:1021F0007B681B680D4A934208D14FF00040FFF7FF
:102200000CFF04210A4801F001F80AE07B681B6812
:10221000084A934205D12020FFF712FF302000F03A
:102220004EFE00BF0837BD4680BD00BF007C0040A9
:10223000000400480094004080B483B000AF786090
:102240004FF0B043D3F8903023F018024FF0B04174
:102250007B681343C1F8903000BF0C37BD465DF872
:10226000047B704780B483B000AF78604FF0B04318
:10227000DA6C7B68DB434FF0B0411340CB6400BFA6
:102280000C37BD465DF8047B704780B584B000AF65
:1022900000F020FCFEF734FD00F04AF800F0BAF838
:1022A000FFF738FEFEF7D6FEFFF7DEFE00F082F9FC
:1022B000FFF77EFDFFF704FF00F04AF90023FB6003
:1022C00000237B600023FB7200F072FC786021E049
:1022D00001214FF0904001F077F80346002B17D111
:1022E000FB7A002B05D10123FB7200F061FCF86042
:1022F00010E000F05DFC0246FB68D31AB3F5FA6FFC
:1023000008D34FF47A7000F0A5F800F0BFF801E0B0
:102310000023FB7200F04CFC02467B68D31A40F6A7
:10232000B8329342D4D9FEF7F9FCFEF749FEFCE738
:1023300080B59AB000AF07F120034822002118466B
:1023400007F0C1FF3B1D00221A605A609A60DA60F4
:102350001A615A619A6101F00BFE1020FFF76CFFC1
:102360002B4B1B6823F4C063294A43F400731360AA
:10237000274B1B6803F4C0633B603B6827233B6229
:102380004FF480337B620123BB624FF48073FB62A6
:102390000123FB6300233B6300233B6460237B64D6
:1023A0000223FB6401233B6500237B652023BB657F
:1023B0004FF40033FB654FF000537B664FF08063B2
:1023C0003B6607F12003184602F05CFA0346002B37
:1023D00001D000F0B7F86F237B600323BB6080233C
:1023E000FB604FF4C0633B6100237B618023BB61D2
:1023F0000023FB613B1D0321184602F0B7FD034695
:10240000002B01D000F09EF800BF6837BD4680BDAC
:102410000004005880B594B000AF3B465022002124
:10242000184607F050FF4FF440533B604FF4804391
:102430007B640023BB641023FB643B46184603F017
:10244000A6F90346002B01D000F07CF800BF5037FE
:10245000BD4680BD80B584B000AF786040F2E73300
:10246000FB604FF4FA73BB60BA68F968064801F084
:10247000CBFA7868FEF77FFD034801F012FB00BF3E
:102480001037BD4680BD00BF8403002080B584B0F6
:1024900000AF72B600BF244B0322A3F840200420F3
:1024A000FFF7E0FE0220FFF7DDFE0120FFF7DAFE76
:1024B0001E4801F081FA02F049F91D4B00221A6012
:1024C0001B4B00225A601A4B00229A600023FB73B8
:1024D00010E0184AFB7B20334FF0FF3142F8231005
:1024E000144AFB7B60334FF0FF3142F82310FB7B33
:1024F0000133FB73FB7B072BEBD962B600BF0E4B9E
:102500001B68BB600D4B1B683B603B6883F308880E
:1025100000BFBB687B600A4B01221A607B6898474A
:1025200000BF1037BD4680BD006800408403002016
:1025300010E000E000E100E00400FF1F0000FF1FCA
:102540000000014080B400AF72B600BF00BFFDE7DD
:1025500080B400AF00BFBD465DF8047B704780B417
:1025600000AF4FF0B043D3F890304FF0B04243F497
:102570000043C2F8903000BFBD465DF8047B704751
:1025800080B485B000AF78604FF0B0439A6D4FF0E3
:10259000B0417B6813438B654FF0B0439A6D7B6805
:1025A0001340FB60FB6800BF1437BD465DF8047B39
:1025B0007047000080B586B000AF3B1D00221A6056
:1025C0005A609A60DA601A6100233B602C4B2D4AF6
:1025D0001A602B4B00225A60294B0F229A60284B1D
:1025E00047F6FF72DA60264B00221A61244B002264
:1025F0009A61234B0022DA61214B00225A61204864
:1026000003F04CFB0346002B01D0FFF79BFF002398
:102610003B7100237B710023BB710023BB6000234F
:102620003B6100237B613B1D01221946144803F0E6
:10263000BFFB0346002B01D0FFF784FF01233B7053
:1026400001237B700123BB700023FB703B460122FA
:1026500019460B4803F04BFC0346002B01D0FFF753
:1026600071FF00220021064803F06CFD0346002B99
:1026700001D0FFF767FF00BF1837BD4680BD00BF20
:10268000F40300200028004080B596B000AF7860C9
:1026900007F1080350220021184607F014FE7B685A
:1026A0001B68124A93421DD14FF40063BB604FF484
:1026B0008073BB6407F10803184603F068F803460B
:1026C000002B01D0FFF73EFFFFF749FF4FF480607A
:1026D000FFF756FF00220021032000F0C8FB032073
:1026E00000F0DFFB00BF5837BD4680BD002800402A
:1026F00080B485B000AF78604FF0B0431A6D4FF0F2
:10270000B0417B6813430B654FF0B0431A6D7B6893
:102710001340FB60FB6800BF1437BD465DF8047BC7
:10272000704780B582B000AF3B4600221A605A6005
:102730004FF40020FFF7DCFF002202216FF00100C0
:1027400000F095FB00220221052000F090FB0520FF
:1027500000F0A7FB002200212E2000F088FB2E2095
:1027600000F09FFB00233B6000237B603B46184644
:1027700001F00EFC01F04EFC00BF0837BD4680BDE5
:1027800080B400AF00BFFDE780B400AF00BFFDE73D
:1027900080B400AF00BFFDE780B400AF00BFFDE72D
:1027A00080B400AF00BFFDE780B400AF00BFBD46FE
:1027B0005DF8047B704780B400AF00BFBD465DF894
:1027C000047B704780B400AF00BFBD465DF8047B5A
:1027D000704780B500AF00F0D7F900BF80BD80B56D
:1027E00000AFFEF7F9FF00BF80BD80B400AF00BFAF
:1027F000BD465DF8047B704780B500AF06F0E4FB92
:1028000000BF80BD80B500AF06F014FC00BF80BDE6
:1028100080B500AF00F008FE00BF80BD80B500AFFE
:10282000024801F05AF900BF80BD00BFBC03002080
:1028300080B400AF01231846BD465DF8047B7047A5
:1028400080B582B000AF7860396007F08FFD034635
:1028500016221A604FF0FF3318460837BD4680BD78
:1028600080B582B000AF78604FF0FF317868FFF735
:10287000E7FF00BFFDE780B586B000AFF860B96044
:102880007A6000237B610AE0AFF300800146BB68F9
:102890005A1CBA60CAB21A707B6901337B617A69CB
:1028A0007B689A42F0DB7B6818461837BD4680BDCE
:1028B00080B586B000AFF860B9607A6000237B61B4
:1028C00009E0BB685A1CBA601B781846AFF3008059
:1028D0007B6901337B617A697B689A42F1DB7B68B3
:1028E00018461837BD4680BD80B483B000AF78600D
:1028F0004FF0FF3318460C37BD465DF8047B704738
:1029000080B483B000AF786039603B684FF4005208
:102910005A60002318460C37BD465DF8047B7047AB
:1029200080B483B000AF7860012318460C37BD46F1
:102930005DF8047B704780B485B000AFF860B96083
:102940007A60002318461437BD465DF8047B704753
:1029500080B586B000AF7860144A154BD31A7B61FE
:102960007B693B61134B1B68002B02D1114B124A50
:102970001A60104B1A687B6813443A699A4207D26E
:1029800007F0F4FC03460C221A604FF0FF3309E015
:10299000084B1B68FB60074B1A687B681344054AA9
:1029A0001360FB6818461837BD4680BD0000032041
:1029B00000040000180400201807002080B400AFB5
:1029C000244BD3F88830234A43F47003C2F888308C
:1029D0004FF0B0431B684FF0B04243F00103136067
:1029E0004FF0B0434FF4E0229A604FF0B0431A68C2
:1029F0004FF0B041184B13400B604FF0B043D3F889
:102A000094304FF0B04223F00503C2F894304FF0F9
:102A1000B043D3F898304FF0B04223F00103C2F82E
:102A200098304FF0B0430D4ADA604FF0B0430B4A94
:102A30001A614FF0B0431B684FF0B04223F480237B
:102A400013604FF0B04300229A6100BFBD465DF8AD
:102A5000047B704700ED00E0FBFEF6FA0010042254
:102A6000D458C4500433C4188C42F9D3704703605F
:102A700004308842FBD370470C488546FFF79EFF21
:102A80000B480C490C4A0023FFF7EDFF0B480C499B
:102A90000C4A0023FFF7E7FF0B480C490023FFF720
:102AA000E8FF07F069FCFFF7F0FBFEE700000320FA
:102AB00008000020EC0100201CC70008E4010320EE
:102AC000670A032046C900083802002018070020C2
:102AD000FEE7000080B582B000AF0023FB710C4B15
:102AE0001B680B4A43F480731360032000F0B4F9B1
:102AF0000F2000F00FF80346002B02D00123FB71DA
:102B000001E0FFF70EFEFB7918460837BD4680BD91
:102B10000040005880B584B000AF78600023FB739C
:102B2000174B1B78002B24D002F0CCFB0246144B31
:102B30001B7819464FF47A73B3FBF1F3B2FBF3F34E
:102B4000184600F0CAF90346002B0FD17B680F2B03
:102B500009D8002279684FF0FF3000F088F9094A5F
:102B60007B68136007E00123FB7304E00123FB7320
:102B700001E00123FB73FB7B18461037BD4680BD87
:102B8000100000200C00002080B400AF064B1B7822
:102B90001A46064B1B681344044A136000BFBD4627
:102BA0005DF8047B704700BF100000201C0400206B
:102BB00080B400AF034B1B681846BD465DF8047B2C
:102BC000704700BF1C04002080B400AF034B1B689B
:102BD0001846BD465DF8047B704700BF0C0000201E
:102BE00080B400AF034B1B781846BD465DF8047BEC
:102BF000704700BF1000002080B485B000AF78603F
:102C00007B6803F00703FB600C4BDB68BB60BA68B2
:102C10004FF6FF031340BB60FB681A02BB68134307
:102C200043F0BF6343F40033BB60044ABB68D36026
:102C300000BF1437BD465DF8047B704700ED00E02F
:102C400080B400AF044BDB681B0A03F0070318468F
:102C5000BD465DF8047B704700ED00E080B483B0B2
:102C600000AF0346FB7197F90730002B0BDBFB79B4
:102C700003F01F02074997F907305B09012000FAAA
:102C800002F241F8232000BF0C37BD465DF8047BFB
:102C9000704700BF00E100E080B483B000AF03469E
:102CA000FB7197F90730002B12DBFB7903F01F0251
:102CB0000A4997F907305B09012000FA02F2203334
:102CC00041F82320BFF34F8F00BFBFF36F8F00BFCA
:102CD00000BF0C37BD465DF8047B704700E100E0A3
:102CE00080B483B000AF0346FB7197F90730002B27
:102CF0000CDBFB7903F01F02074997F907305B09EA
:102D0000012000FA02F2403341F8232000BF0C37C3
:102D1000BD465DF8047B704700E100E080B483B0FD
:102D200000AF0346FB7197F90730002B0CDBFB79F2
:102D300003F01F02074997F907305B09012000FAE9
:102D400002F2603341F8232000BF0C37BD465DF826
:102D5000047B704700E100E080B483B000AF03461D
:102D60003960FB7197F90730002B0ADB3B68DAB258
:102D70000C4997F907301201D2B20B4483F80023B3
:102D80000AE03B68DAB20849FB7903F00F03043B21
:102D90001201D2B20B441A7600BF0C37BD465DF863
:102DA000047B704700E100E000ED00E080B489B0F2
:102DB00000AFF860B9607A60FB6803F00703FB615D
:102DC000FB69C3F10703042B28BF0423BB61FB6924
:102DD0000433062B02D9FB69033B00E000237B612F
:102DE0004FF0FF32BB6902FA03F3DA43BB681A40C3
:102DF0007B699A404FF0FF317B6901FA03F3D943B5
:102E00007B680B40134318462437BD465DF8047BAE
:102E10007047000080B582B000AF78607B68013BEE
:102E2000B3F1807F01D301230FE00A4A7B68013BA5
:102E300053600F214FF0FF30FFF78EFF054B00224C
:102E40009A60044B07221A60002318460837BD46D3
:102E500080BD00BF10E000E080B582B000AF7860B8
:102E60007868FFF7C9FE00BF0837BD4680BD80B552
:102E700086B000AF0346B9607A60FB73FFF7E0FEEF
:102E800078617A68B9687869FFF790FF024697F928
:102E90000F3011461846FFF75FFF00BF1837BD46D9
:102EA00080BD80B582B000AF0346FB7197F9073053
:102EB0001846FFF7D3FE00BF0837BD4680BD80B57A
:102EC00082B000AF0346FB7197F907301846FFF751
:102ED000E3FE00BF0837BD4680BD80B582B000AFBD
:102EE00078607868FFF796FF034618460837BD46B6
:102EF00080BD80B582B000AF0346FB7197F9073003
:102F00001846FFF7EDFE00BF0837BD4680BD80B50F
:102F100082B000AF0346FB7197F907301846FFF700
:102F2000FDFE00BF0837BD4680BD000080B487B0FD
:102F300000AF7860396000237B614CE13B681A6820
:102F400001217B6901FA03F31340FB60FB68002B4E
:102F500000F03E813B685B6803F00303012B05D062
:102F60003B685B6803F00303022B30D17B689B68EE
:102F70003B617B695B00032202FA03F3DB433A699E
:102F800013403B613B68DA687B695B0002FA03F33C
:102F90003A6913433B617B683A699A607B685B6876
:102FA0003B6101227B6902FA03F3DB433A69134078
:102FB0003B613B685B681B0903F001027B6902FA15
:102FC00003F33A6913433B617B683A695A603B6893
:102FD0005B6803F00303032B17D07B68DB683B615E
:102FE0007B695B00032202FA03F3DB433A69134077
:102FF0003B613B689A687B695B0002FA03F33A69BC
:1030000013433B617B683A69DA603B685B6803F0B5
:103010000303022B23D17B69DA087B68083253F85B
:1030200022303B617B6903F007039B000F2202FA09
:1030300003F3DB433A6913403B613B681A697B69E0
:1030400003F007039B0002FA03F33A6913433B6161
:103050007B69DA087B680832396943F822107B689B
:103060001B683B617B695B00032202FA03F3DB43CD
:103070003A6913403B613B685B6803F003027B697C
:103080005B0002FA03F33A6913433B617B683A69D8
:103090001A603B685B6803F44033002B00F09880B3
:1030A000544A7B699B08023352F823303B617B69A9
:1030B00003F003039B000F2202FA03F3DB433A6998
:1030C00013403B617B68B3F1904F19D07B684A4A4B
:1030D000934213D07B68494A93420DD07B68484A9B
:1030E000934207D07B68474A934201D1042308E00A
:1030F000072306E0032304E0022302E0012300E0AB
:1031000000237A6902F00302920093403A69134364
:103110003B6138497B699B0802333A6941F82320B7
:10312000394B1B683B61FB68DB433A6913403B61E9
:103130003B685B6803F48013002B03D03A69FB689B
:1031400013433B61304A3B6913602F4B5B683B6123
:10315000FB68DB433A6913403B613B685B6803F4FF
:103160000013002B03D03A69FB6813433B61264AE6
:103170003B695360244BD3F880303B61FB68DB43F1
:103180003A6913403B613B685B6803F48033002B72
:1031900003D03A69FB6813433B611B4A3B69C2F8A1
:1031A0008030194BD3F884303B61FB68DB433A69CC
:1031B00013403B613B685B6803F40033002B03D092
:1031C0003A69FB6813433B610F4A3B69C2F884309C
:1031D0007B6901337B613B681A687B6922FA03F3E0
:1031E000002B7FF4ABAE00BF00BF1C37BD465DF8BF
:1031F000047B7047000001400004004800080048BC
:10320000000C0048001000480008005880B487B047
:1032100000AF7860396000237B61BBE001227B69ED
:1032200002FA03F33A6813403B613B69002B00F05C
:10323000AE805F4A7B699B08023352F82330FB6003
:103240007B6903F003039B000F2202FA03F3FA6881
:103250001340FB607B68B3F1904F19D07B68554AEF
:10326000934213D07B68544A93420DD07B68534AF3
:10327000934207D07B68524A934201D1042308E06D
:10328000072306E0032304E0022302E0012300E019
:1032900000237A6902F0030292009340FA689A428E
:1032A00036D1484BD3F880203B69DB434549134076
:1032B000C1F88030434BD3F884203B69DB4341495C
:1032C0001340C1F884303F4B1A683B69DB433D49EA
:1032D00013400B603B4B5A683B69DB433949134051
:1032E0004B607B6903F003039B000F2202FA03F398
:1032F000FB602F4A7B699B08023352F82310FB685E
:10330000DA432B487B699B080A40023340F82320AC
:103310007B681A687B695B00032101FA03F31A4397
:103320007B681A607B69DA087B68083253F82210E0
:103330007B6903F007039B000F2202FA03F3DB43D0
:103340007A69D20819407B68083243F822107B68FA
:10335000DA687B695B00032101FA03F3DB431A405F
:103360007B68DA607B685A6801217B6901FA03F3A4
:10337000DB431A407B685A607B689A687B695B0014
:10338000032101FA03F3DB431A407B689A607B69EF
:1033900001337B613A687B6922FA03F3002B7FF4E7
:1033A0003DAF00BF00BF1C37BD465DF8047B7047D2
:1033B000000001400004004800080048000C0048DC
:1033C000001000480008005880B485B000AF786055
:1033D0000B467B807B681A697B881340002B02D0E8
:1033E0000123FB7301E00023FB73FB7B18461437BA
:1033F000BD465DF8047B704780B483B000AF786051
:103400000B467B8013467B707B78002B03D07A8839
:103410007B689A6102E07A887B689A6200BF0C3709
:10342000BD465DF8047B704780B582B000AF0A4BA3
:10343000DB687B60084B1A687B68DB4306491340F6
:103440000B60054A7B685360786800F007F800BF9E
:103450000837BD4680BD00BF0015005880B483B05A
:1034600000AF786000BF0C37BD465DF8047B704745
:1034700080B582B000AF78607B68002B01D101235A
:103480008DE07B6893F84130DBB2002B06D17B687E
:10349000002283F840207868FEF7CAFC7B6824226B
:1034A00083F841207B681B681A687B681B6822F0E0
:1034B00001021A607B685A687B681B6822F07062A0
:1034C0001A617B681B689A687B681B6822F400425B
:1034D0009A607B68DB68012B07D17B689A687B6800
:1034E0001B6842F400429A6006E07B689A687B6839
:1034F0001B6842F404429A607B68DB68022B08D1A7
:103500007B681B685A687B681B6842F400625A60DB
:1035100007E07B681B685A687B681B6822F40062BE
:103520005A607B681B685B687A68126843F00073B6
:1035300043F4004353607B681B68DA687B681B6850
:1035400022F40042DA607B681A697B685B6942EAB0
:1035500003017B689B691A027B681B680A43DA6077
:103560007B68D9697B681A6A7B681B680A431A60A2
:103570007B681B681A687B681B6842F001021A604E
:103580007B6800225A647B68202283F841207B6894
:1035900000221A637B68002283F842200023184629
:1035A0000837BD4680BD80B483B000AF7860396015
:1035B0007B6893F84130DBB2202B38D17B6893F8DD
:1035C0004030012B01D1022332E07B68012283F8D5
:1035D00040207B68242283F841207B681B681A689E
:1035E0007B681B6822F001021A607B681B681A68FE
:1035F0007B681B6822F480521A607B681B6819681C
:103600007B681B683A680A431A607B681B681A6803
:103610007B681B6842F001021A607B68202283F8F5
:1036200041207B68002283F84020002300E0022331
:1036300018460C37BD465DF8047B704780B485B0F2
:1036400000AF786039607B6893F84130DBB2202BA3
:1036500039D17B6893F84030012B01D1022333E04C
:103660007B68012283F840207B68242283F8412074
:103670007B681B681A687B681B6822F001021A606D
:103680007B681B681B68FB60FB6823F47063FB604E
:103690003B681B02FA681343FB607B681B68FA688F
:1036A0001A607B681B681A687B681B6842F001021D
:1036B0001A607B68202283F841207B68002283F80F
:1036C0004020002300E0022318461437BD465DF871
:1036D000047B704780B584B000AF78600023FB7333
:1036E0007B68002B1ED0134BBB607B6893F838308F
:1036F000DBB2002B02D17868FEF720FCB86800F03E
:103700005BF8BB681B6843F00112BB681A607868FD
:1037100000F02CF87B6800225A637B68012283F852
:10372000382001E00123FB73FB7B18461037BD46B0
:1037300080BD00BF000C005880B485B000AFF860B9
:10374000B9601346FB7100BF1437BD465DF8047BBA
:10375000704780B485B000AFF860B9601346FB7164
:1037600000BF1437BD465DF8047B704780B485B058
:1037700000AF78600023FB600FE07A68FB689B0075
:1037800013440B4A5A607A68FB6806339B00134463
:10379000084A5A60FB680133FB60FB68052BECD9D3
:1037A00000BF00BF1437BD465DF8047B704700BF03
:1037B000393700085337000880B483B000AF786011
:1037C0007B6800221A607B684FF03F125A607B686A
:1037D0003F229A6000BF0C37BD465DF8047B7047FE
:1037E00080B483B000AF78604FF0B0439A6B4FF075
:1037F000B0417B6813438B6300BF0C37BD465DF857
:10380000047B704780B483B000AF78604FF0B04362
:10381000DA6B4FF0B0417B681343CB6300BF0C37CA
:10382000BD465DF8047B704780B483B000AF78601C
:103830004FF0B0439A6B7B68DB434FF0B0411340CD
:103840008B6300BF0C37BD465DF8047B704780B4C6
:1038500083B000AF78604FF0B043DA6B7B68DB4336
:103860004FF0B0411340CB6300BF0C37BD465DF84D
:10387000047B704780B584B000AF78607B68002B14
:1038800001D101238FE07B685B68012B7B6893F893
:103890003630DBB2002B06D17B68002283F835205E
:1038A0007868FEF739FC7B68022283F836207B6853
:1038B0001B68DB68FB607B685B68012B04D07B685E
:1038C0009B6AB3F5000F03D1FB6823F01E03FB6076
:1038D0007B685B694FF6FF72934205D0FB6823F467
:1038E000604323F0C003FB60FA68314B1340FB6078
:1038F0007B685A687B689B681A437B681B6A1A431B
:103900007B685B6A1A437B689B6A1343FA681343BC
:10391000FB607B685B68002B07D17B68DA697B689A
:103920001B691343FA681343FB607B685B68012BD8
:1039300004D07B689B6AB3F5000F07D17B68DA6817
:103940007B681B691343FA681343FB607B685B6900
:103950004FF6FF7293420AD07B685A697B689B6975
:103960001A437B68DB691343FA681343FB607B6887
:103970001B68FA68DA607B681B680E4A934208D1BC
:103980007B68D96A7B681A6B7B681B680A431A627A
:1039900004E07B681B687A68D26A1A627B6801223D
:1039A00083F83620002318461037BD4680BD00BF7F
:1039B000FEF119FF007C004080B582B000AF786056
:1039C0007B68002B01D101231AE07B68022283F877
:1039D0003620786800F0A0F9786800F05FF90346B7
:1039E000032B01D103230BE07868FEF7FDFB7B6816
:1039F000002283F836207B68002283F835200023DC
:103A000018460837BD4680BD80B584B000AFF86069
:103A1000B9607A60FB68022283F83620FB681B6875
:103A2000DA68FB681B6822F48012DA60FB681B68A6
:103A30001A69FB681B6842F001021A61FB681B6887
:103A400010225A60FB681B68BA689A611021F868F6
:103A500000F032F90346032B01D103231DE0FB687C
:103A60001B6808225A60FB681B687A685A61082143
:103A7000F86800F021F90346032B01D103230CE081
:103A8000FB681B681A69FB681B6842F004021A6134
:103A9000FB68012283F83620002318461037BD4604
:103AA00080BD80B582B000AF78607B68022283F869
:103AB0003620786800F030F9786800F0EFF80346B7
:103AC000032B01D1032304E07B68012283F8362015
:103AD000002318460837BD4680BD80B582B000AFD0
:103AE00078607B681B681B6803F00103012B0DD114
:103AF0007B681B689B6803F00103012B06D17B6880
:103B00001B6801225A60786800F082F87B681B68A5
:103B10001B6803F00203022B0DD17B681B689B68B6
:103B200003F00203022B06D17B681B6802225A6055
:103B3000786800F077F87B681B681B6803F0040363
:103B4000042B0DD17B681B689B6803F00403042BD6
:103B500006D17B681B6804225A60786800F06CF814
:103B60007B681B681B6803F00803082B0DD17B687A
:103B70001B689B6803F00803082B06D17B681B6851
:103B800008225A60786800F061F87B681B681B683F
:103B900003F01003102B0DD17B681B689B6803F0AA
:103BA0001003102B06D17B681B6810225A607868BE
:103BB00000F056F87B681B681B6803F02003202B7D
:103BC0000DD17B681B689B6803F02003202B06D176
:103BD0007B681B6820225A60786800F04BF87B688D
:103BE0001B681B6803F04003402B0DD17B681B68EA
:103BF0009B6803F04003402B06D17B681B68402282
:103C00005A60786800F040F800BF0837BD4680BDB4
:103C100080B483B000AF786000BF0C37BD465DF85C
:103C2000047B704780B483B000AF786000BF0C376E
:103C3000BD465DF8047B704780B483B000AF786008
:103C400000BF0C37BD465DF8047B704780B483B07D
:103C500000AF786000BF0C37BD465DF8047B70474D
:103C600080B483B000AF786000BF0C37BD465DF80C
:103C7000047B704780B483B000AF786000BF0C371E
:103C8000BD465DF8047B704780B483B000AF7860B8
:103C900000BF0C37BD465DF8047B704780B483B02D
:103CA00000AF78607B6893F83630DBB218460C378B
:103CB000BD465DF8047B704780B485B000AF786086
:103CC00039600023FB73124B1B68124AA2FB0323CB
:103CD0009B0B4FF47A7202FB03F3BB60BB68013BA2
:103CE000BB60BB68002B01D10323FB737B681B689F
:103CF0001A683B6813403A689A4202D0BB68002BAE
:103D0000ECD1FB7B18461437BD465DF8047B704749
:103D1000080000205917B7D180B58CB000AF78608B
:103D2000EFF310833B613B69FB6201237B617B699D
:103D300083F3108800BF7B681B689B68BB627B684D
:103D40001B68DB687B627B681B685B693B627B6826
:103D50001B689B69FB617B681B681B6ABB617B6896
:103D60001B683B4A934203D03A4A934209D00FE082
:103D70004FF00040FFF734FD4FF00040FFF754FDD7
:103D800006E02020FFF73EFD2020FFF760FD00BF8A
:103D90003B6A002B02D1FB69002B3BD03B6A002B16
:103DA0001AD07B681B681A697B681B6842F00102A5
:103DB0001A617B681B683A6A5A6108217868FFF7C4
:103DC0007BFF0346032B03D17B68032283F8362055
:103DD0007B681B6808225A60FB69002B1AD07B683D
:103DE0001B681A697B681B6842F001021A617B68D4
:103DF0001B68FA699A6110217868FFF75DFF034636
:103E0000032B03D17B68032283F836207B681B6871
:103E100010225A607B681B681A697B681B6822F055
:103E200001021A617B681B68BA6A9A607B681B682A
:103E30007A6ADA607B681B68BA691A62FB6AFB609F
:103E4000FB6883F3108800BF00BF3037BD4680BDDC
:103E5000007C00400094004080B483B000AF7860E4
:103E6000064BD3F8802005497B681343C1F88030A6
:103E700000BF0C37BD465DF8047B70470008005852
:103E800080B483B000AF7860074BD3F880207B68A4
:103E9000DB4305491340C1F8803000BF0C37BD46F5
:103EA0005DF8047B704700BF0008005880B483B001
:103EB00000AF7860074BD3F8C0207B68DB4305492F
:103EC0001340C1F8C03000BF0C37BD465DF8047B1D
:103ED000704700BF0008005880B483B000AF78601E
:103EE000054B1A6804497B6813430B6000BF0C370D
:103EF000BD465DF8047B70470008005880B483B06D
:103F000000AF7860064B1A687B68DB4304491340B6
:103F10000B6000BF0C37BD465DF8047B704700BFE7
:103F20000008005880B483B000AF7860054B5A6831
:103F300004497B6813434B6000BF0C37BD465DF8F6
:103F4000047B70470008005880B483B000AF7860ED
:103F5000064B5A687B68DB43044913404B6000BF43
:103F60000C37BD465DF8047B704700BF0008005861
:103F700080B400AF054B1B68044A43F480731360A0
:103F800000BFBD465DF8047B704700BF00040058C9
:103F900080B582B000AF78601D4B5B6823F00E02E5
:103FA0007B681B681A4913434B604FF48030FFF75E
:103FB00067FF4FF48030FFF779FF4FF48030FFF751
:103FC000C3FF4FF48030FFF799FF7B685B6803F411
:103FD0008033002B03D04FF48030FFF73DFF7B6828
:103FE0005B6803F00103002B03D04FF48030FFF730
:103FF00073FF7B685B6803F00203002B03D04FF470
:104000008030FFF78FFF002318460837BD4680BD7C
:104010000004005880B400AF054B5B68044A43F0CD
:104020000103536000BFBD465DF8047B704700BFCD
:104030000004005880B400AF044B1B6803F4C06355
:104040001846BD465DF8047B704700BF0004005869
:1040500080B400AF4FF0B0431B6803F48013B3F596
:10406000801F01D1012300E000231846BD465DF802
:10407000047B704780B400AF4FF0B0431B684FF033
:10408000B04243F48033136000BFBD465DF8047B4B
:10409000704780B400AF4FF0B0431B684FF0B042A0
:1040A00023F48033136000BFBD465DF8047B704786
:1040B00080B400AF4FF0B0431B6803F40033B3F596
:1040C000003F01D1012300E000231846BD465DF802
:1040D000047B704780B400AF4FF0B0431B684FF0D3
:1040E000B04243F48073136000BFBD465DF8047BAB
:1040F000704780B400AF4FF0B0431B684FF0B04240
:1041000023F48073136000BFBD465DF8047B7047E5
:1041100080B400AF4FF0B0431B6803F48063B3F585
:10412000806F01D1012300E000231846BD465DF8F1
:10413000047B704780B483B000AF78604FF0B04329
:104140005B6823F0FE427B681B064FF0B0411343CF
:104150004B6000BF0C37BD465DF8047B704780B4F0
:1041600000AF4FF0B043D3F898304FF0B04243F077
:104170000103C2F8983000BFBD465DF8047B70476C
:1041800080B400AF4FF0B043D3F898304FF0B04256
:1041900023F00103C2F8983000BFBD465DF8047BF0
:1041A000704780B400AF4FF0B043D3F8983003F0BD
:1041B0000203022B01D1012300E000231846BD4673
:1041C0005DF8047B704780B400AF4FF0B043D3F884
:1041D00090304FF0B04243F00103C2F8903000BF7E
:1041E000BD465DF8047B704780B400AF4FF0B0432C
:1041F000D3F890304FF0B04223F00103C2F8903072
:1042000000BFBD465DF8047B704780B400AF4FF03F
:10421000B043D3F890304FF0B04243F00403C2F8FB
:10422000903000BFBD465DF8047B704780B400AF9E
:104230004FF0B043D3F890304FF0B04223F0040376
:10424000C2F8903000BFBD465DF8047B704780B473
:1042500000AF4FF0B043D3F8903003F00203022BCD
:1042600001D1012300E000231846BD465DF8047B20
:10427000704780B400AF4FF0B043D3F894304FF0A4
:10428000B04243F00103C2F8943000BFBD465DF870
:10429000047B704780B400AF4FF0B043D3F8943044
:1042A0004FF0B04223F00103C2F8943000BFBD4686
:1042B0005DF8047B704780B400AF4FF0B043D3F893
:1042C000943003F00203022B01D1012300E000230C
:1042D0001846BD465DF8047B704780B400AF4FF0D0
:1042E000B043D3F894304FF0B04243F00403C2F827
:1042F000943000BFBD465DF8047B704780B400AFCA
:104300004FF0B043D3F894304FF0B04223F00403A1
:10431000C2F8943000BFBD465DF8047B704780B49E
:1043200000AF4FF0B043D3F8943003F00803082BEC
:1043300001D1012300E000231846BD465DF8047B4F
:10434000704780B483B000AF78604FF0B043D3F8CB
:10435000943023F470627B681B024FF0B04113432A
:10436000C1F8943000BF0C37BD465DF8047B704740
:1043700080B400AF4FF0B0431B684FF0B04243F041
:104380000103136000BFBD465DF8047B704780B435
:1043900000AF4FF0B0431B684FF0B04223F0010371
:1043A000136000BFBD465DF8047B704780B400AF6A
:1043B0004FF0B0431B6803F00203022B01D101232D
:1043C00000E000231846BD465DF8047B704780B4CA
:1043D00000AF4FF0B0431B684FF0B04223F004032E
:1043E000136000BFBD465DF8047B704780B483B0A6
:1043F00000AF78604FF0B0431B6823F0F0024FF03D
:10440000B0417B6813430B6000BF0C37BD465DF8BD
:10441000047B704780B483B000AF4FF0B0431B689B
:1044200003F0F0037B607B68B02B01D9B0237B6085
:104430007B6818460C37BD465DF8047B704780B436
:1044400083B000AF78604FF0B0435B6823F47F42E5
:104450007B681B024FF0B04113434B6000BF0C3729
:10446000BD465DF8047B704780B483B000AF7860D0
:104470004FF0B0439B6823F003024FF0B0417B68DC
:1044800013438B6000BF0C37BD465DF8047B70475B
:1044900080B400AF4FF0B0439B6803F00C031846A4
:1044A000BD465DF8047B704780B483B000AF786090
:1044B0004FF0B0439B6823F0F0024FF0B0417B68AF
:1044C00013438B6000BF0C37BD465DF8047B70471B
:1044D00080B483B000AF78604FF0B043D3F80831B8
:1044E00023F0F0024FF0B0417B681343C1F808316C
:1044F00000BF0C37BD465DF8047B704780B483B0C5
:1045000000AF78604FF0B043D3F8083123F00F02CA
:104510007B681B094FF0B0411343C1F8083100BF5D
:104520000C37BD465DF8047B704780B483B000AFA4
:1045300078604FF0B0439B6823F4E0624FF0B041E5
:104540007B6813438B6000BF0C37BD465DF8047B6E
:10455000704780B483B000AF78604FF0B0439B6881
:1045600023F460524FF0B0417B6813438B6000BF6F
:104570000C37BD465DF8047B704780B400AF4FF048
:10458000B0439B6803F0F0031846BD465DF8047B1A
:10459000704780B400AF4FF0B043D3F808311B012F
:1045A00003F0F0031846BD465DF8047B704780B405
:1045B00000AF4FF0B0431B684FF0B04243F0807340
:1045C000136000BFBD465DF8047B704780B400AF48
:1045D0004FF0B0431B684FF0B04223F0807313607C
:1045E00000BFBD465DF8047B704780B400AF4FF05C
:1045F000B0431B6803F00073B3F1007F01D10123C6
:1046000000E000231846BD465DF8047B704780B487
:1046100000AF4FF0B043DB681B0A03F07F0318467E
:10462000BD465DF8047B704780B400AF4FF0B043E7
:10463000DB6803F060431846BD465DF8047B7047B5
:1046400080B400AF4FF0B043DB6803F0700318464E
:10465000BD465DF8047B704780B400AF4FF0B043B7
:104660001B6803F00063B3F1006F01D1012300E088
:1046700000231846BD465DF8047B704780B400AF48
:104680004FF0B043DB6803F003031846BD465DF806
:10469000047B704780B400AF4FF0B0439B6803F4D5
:1046A0008033B3F5803F01D1012300E00023184699
:1046B000BD465DF8047B704780B400AF4FF0B04357
:1046C000D3F8083103F40033B3F5003F01D10123DF
:1046D00000E000231846BD465DF8047B704780B4B7
:1046E00000AF4FF0B043D3F8083103F48033B3F593
:1046F000803F01D1012300E000231846BD465DF84C
:10470000047B704780B400AF4FF0B0439B6803F464
:104710000033B3F5003F01D1012300E00023184628
:10472000BD465DF8047B704780B400AF4FF0B043E6
:104730009B6803F48023B3F5802F01D1012300E0AF
:1047400000231846BD465DF8047B704780B582B0F3
:1047500000AFFEF72DFA7860FFF739FEFFF708FE8D
:1047600008E0FEF725FA02467B68D31A022B01D92E
:10477000032378E0FFF71AFE0346002BF1D06020F8
:10478000FFF734FE0020FFF75AFE4020FFF7D2FC6F
:10479000FEF70EFA78604FF0B04300229A600AE00C
:1047A000FEF706FA02467B68D31A41F2883293423A
:1047B00001D9032357E04FF0B0439B6803F00C038B
:1047C000002BEDD14FF0B0431A684FF0B041284BA9
:1047D00013400B60FEF7ECF9786008E0FEF7E8F9AB
:1047E00002467B68D31A022B01D903233BE0FFF773
:1047F000FCFE0346002BF1D14FF0B0431D4ADA60B6
:10480000FEF7D6F9786008E0FEF7D2F902467B6839
:10481000D31A022B01D9032325E0FFF71DFF03461E
:10482000002BF1D14FF0B043124A1A614FF0B04360
:1048300000229A614FF0B0434FF0FF321A624FF0FE
:10484000B0434FF44032C3F808210B4B0B4A1A60B7
:104850000B4B1B681846FEF75DF90346002B01D091
:10486000012300E0002318460837BD4680BD00BF85
:10487000FFF4EEFA000104220800002000093D00C8
:104880000C00002090B58DB000AF78607B68002BE5
:1048900001D1012363E37B681B6803F02003002B35
:1048A00000F08D80FFF7F4FDF862FFF7E7FEB862D5
:1048B000FB6A002B05D0FB6A0C2B47D1BB6A012B8E
:1048C00044D17B68DB69002B01D1012347E37B687E
:1048D0005C6AFFF79FFD03469C4214D97B685B6AC4
:1048E000184600F003FD0346002B01D0012336E3F8
:1048F0007B685B6A1846FFF779FD7B681B6A184680
:10490000FFF79DFD13E07B685B6A1846FFF76EFDBD
:104910007B681B6A1846FFF792FD7B685B6A184646
:1049200000F0E4FC0346002B01D0012317E300F064
:10493000C9FC0346A44A1360A44B1B681846FEF743
:10494000E9F80346002B39D0012308E37B68DB69D3
:10495000002B1ED0FFF70CFDFEF72AF9786208E065
:10496000FEF726F902467B6AD31A022B01D90323EC
:10497000F5E2FFF71BFD0346002BF1D07B685B6A75
:104980001846FFF733FD7B681B6A1846FFF757FD93
:1049900015E0FFF7FCFCFEF70BF9786208E0FEF784
:1049A00007F902467B6AD31A022B01D90323D6E208
:1049B000FFF7FCFC0346002BF1D100E000BF7B6851
:1049C0001B6803F00103002B47D0FFF761FD38623D
:1049D000FFF754FEF8613B6A082B05D03B6A0C2BAD
:1049E00008D1FB69032B05D17B685B68002B34D1B0
:1049F0000123B4E27B685B68B3F5803F02D1FFF727
:104A000039FB01E0FFF745FB7B685B68002B12D0A8
:104A1000FEF7CEF8786208E0FEF7CAF802467B6A35
:104A2000D31A642B01D9032399E2FFF741FB034614
:104A3000002BF1D011E0FEF7BBF8786208E0FEF73A
:104A4000B7F802467B6AD31A642B01D9032386E2A6
:104A5000FFF72EFB0346002BF1D17B681B6803F0A8
:104A60000203002B4CD0FFF713FDB861FFF706FEE1
:104A70007861BB69042B05D0BB690C2B0ED17B6917
:104A8000022B0BD17B68DB68002B01D1012366E28E
:104A90007B681B691846FFF74DFB31E07B68DB68DC
:104AA000002B19D0FFF716FBFEF782F8786208E0BA
:104AB000FEF77EF802467B6AD31A022B01D9032344
:104AC0004DE2FFF725FB0346002BF1D07B681B6905
:104AD0001846FFF72FFB13E0FFF70BFBFEF768F814
:104AE000786208E0FEF764F802467B6AD31A022B6C
:104AF00001D9032333E2FFF70BFB0346002BF1D16F
:104B00007B681B6803F00803002B06D17B681B68D9
:104B100003F01003002B00F0A3807B685B69002B7F
:104B200076D07B681B6803F01003002B46D0FFF79C
:104B3000C2FB0346002B13D1FFF79BFBFEF738F8AF
:104B4000786208E0FEF734F802467B6AD31A022B3B
:104B500001D9032303E2FFF7AEFB0346002BF1D09C
:104B6000FFF7BBFBFEF724F8786208E0FEF720F8B9
:104B700002467B6AD31A032B01D90323EFE1FFF727
:104B8000CEFB0346002BF1D07B689B691846FFF7EC
:104B9000D8FBFFF77FFBFEF70BF8786208E0FEF723
:104BA00007F802467B6AD31A022B01D90323D6E108
:104BB000FFF781FB0346002BF1D151E0FFF759FBD2
:104BC000FDF7F6FF78620CE0080000200C000020E2
:104BD000FDF7EEFF02467B6AD31A022B01D90323AD
:104BE000BDE1FFF768FB0346002BF1D0FFF786FB22
:104BF00008E0FDF7DDFF02467B6AD31A032B01D9DB
:104C00000323ACE1FFF78BFB0346002BF1D127E038
:104C1000FFF774FBFDF7CCFF786208E0FDF7C8FFF3
:104C200002467B6AD31A032B01D9032397E1FFF7CE
:104C300076FB0346002BF1D1FFF72CFBFDF7B8FF05
:104C4000786208E0FDF7B4FF02467B6AD31A022BB4
:104C500001D9032383E1FFF72EFB0346002BF1D19B
:104C60007B681B6803F00403002B5BD0A74B1B6819
:104C700003F48073002B14D1FFF77AF9FDF798FF46
:104C8000786208E0FDF794FF02467B6AD31A022B94
:104C900001D9032363E19D4B1B6803F48073002B50
:104CA000F0D07B689B68012B02D1FFF78CFA0CE0F7
:104CB0007B689B68052B04D1FFF7A7FAFFF783FAFF
:104CC00003E0FFF791FAFFF7B1FA7B689B68002BCE
:104CD00014D0FDF76DFF78620AE0FDF769FF024628
:104CE0007B6AD31A41F28832934201D9032336E119
:104CF000FFF7ADFA0346002BEFD013E0FDF758FFA6
:104D000078620AE0FDF754FF02467B6AD31A41F24B
:104D10008832934201D9032321E1FFF798FA034631
:104D2000002BEFD17B681B6803F04003002B2CD0D5
:104D30007B689B6A002B14D0FFF711FAFDF738FF50
:104D4000786208E0FDF734FF02467B6AD31A022B33
:104D500001D9032303E1FFF724FA0346002BF1D026
:104D600013E0FFF70DFAFDF723FF786208E0FDF787
:104D70001FFF02467B6AD31A022B01D90323EEE000
:104D8000FFF70FFA0346002BF1D17B68DB6A002B9B
:104D900000F0E480FFF77CFB38614FF0B043DB6844
:104DA000FB607B68DB6A022B40F0B480FB6803F099
:104DB00003027B681B6B9A4223D1FB6803F07002ED
:104DC0007B685B6B9A421CD1FB681B0A03F07F0275
:104DD0007B689B6B9A4214D1FB6803F478127B6862
:104DE000DB6B9A420DD1FB6803F060627B681B6C41
:104DF0009A4206D1FB6803F060427B685B6C9A4282
:104E00005DD03B690C2B58D04FF0B0431B6803F0CA
:104E10008063002B01D00123A1E0FFF7D7FBFDF752
:104E2000C7FE786208E0FDF7C3FE02467B6AD31A2C
:104E3000022B01D9032392E04FF0B0431B6803F02B
:104E40000073002BEFD14FF0B043DA68304B1340C2
:104E50007A68116B7A68526B11437A68926B12020E
:104E600011437A68D26B11437A68126C11437A68E5
:104E7000526C0A434FF0B0411343CB60FFF797FBEE
:104E80004FF0B043DB684FF0B04243F08053D36043
:104E9000FDF78EFE786208E0FDF78AFE02467B6A27
:104EA000D31A022B01D9032359E04FF0B0431B68FA
:104EB00003F00073002BEFD050E001234FE04FF0E0
:104EC000B0431B6803F00073002B47D1FFF76FFB63
:104ED0004FF0B043DB684FF0B04243F08053D360F3
:104EE000FDF766FE786208E0FDF762FE02467B6A27
:104EF000D31A022B01D9032331E04FF0B0431B68D2
:104F000003F00073002BEFD028E000BF000400582E
:104F10008C80C1113B690C2B1ED0FFF757FBFDF7AE
:104F200047FE786208E0FDF743FE02467B6AD31A2B
:104F3000022B01D9032312E04FF0B0431B6803F0AA
:104F40000073002BEFD14FF0B043DA684FF0B0415F
:104F5000054B1340CB6001E0012300E0002318461D
:104F60003437BD4690BD00BFFCFFFEEE80B584B077
:104F700000AF786039607B68002B01D101232DE1FF
:104F8000984B1B6803F007033A689A421BD9954B6C
:104F90001B6823F0070293493B6813430B60FDF73E
:104FA00007FEF86008E0FDF703FE0246FB68D31A2F
:104FB000022B01D9032311E18A4B1B6803F007037D
:104FC0003A689A42EFD17B681B6803F00203002B1A
:104FD00016D07B689B681846FFF766FAFDF7E8FD78
:104FE000F86008E0FDF7E4FD0246FB68D31A022BE7
:104FF00001D90323F2E0FFF74DFB0346002BF1D06C
:105000007B681B6803F02003002B16D07B685B696C
:105010001846FFF75DFAFDF7CBFDF86008E0FDF7F5
:10502000C7FD0246FB68D31A022B01D90323D5E042
:10503000FFF742FB0346002BF1D07B681B6803F0AF
:105040004003002B16D07B689B691846FFF756FA81
:10505000FDF7AEFDF86008E0FDF7AAFD0246FB682B
:10506000D31A022B01D90323B8E0FFF738FB03461C
:10507000002BF1D07B681B6803F00403002B16D0D3
:105080007B68DB681846FFF750FAFDF791FDF86082
:1050900008E0FDF78DFD0246FB68D31A022B01D90B
:1050A00003239BE0FFF72EFB0346002BF1D07B6828
:1050B0001B6803F00803002B17D07B681B69DB001B
:1050C0001846FFF746FAFDF773FDF86008E0FDF7B4
:1050D0006FFD0246FB68D31A022B01D903237DE042
:1050E000FFF722FB0346002BF1D07B681B6803F01F
:1050F0000103002B43D07B685B68022B06D1FEF7CF
:10510000D7FF0346002B1ED1012367E07B685B6855
:10511000032B06D1FFF769FA0346002B13D10123B5
:105120005CE07B685B68002B06D1FFF73FF9034624
:10513000002B08D1012351E0FEF7EAFF0346002BC4
:1051400001D101234AE07B685B681846FFF78CF9C0
:10515000FDF72EFDF8600AE0FDF72AFD0246FB6828
:10516000D31A41F28832934201D9032336E0FFF784
:105170008FF902467B685B689B009A42ECD1194B21
:105180001B6803F007033A689A421BD2154B1B6851
:1051900023F0070213493B6813430B60FDF708FD3A
:1051A000F86008E0FDF704FD0246FB68D31A022B05
:1051B00001D9032312E00B4B1B6803F007033A6885
:1051C0009A42EFD100F07EF80346074A1360FDF7DC
:1051D000FBFC03461846FDF79DFC034618461037B6
:1051E000BD4680BD004000580800002090B585B045
:1051F00000AFFFF74DF978607B68002B0AD1FFF70D
:1052000009F903461B0903F00F032B4A52F8233018
:10521000FB604BE07B68042B02D1284BFB6045E030
:105220007B68082B0AD1FEF713FF0346012B02D13E
:10523000224BFB603AE0224BFB6037E0FFF71EFA9F
:1052400038603B68022B03D03B68032B03D00DE092
:105250001A4BBB6015E0FEF7FBFE0346012B02D1A3
:10526000164BBB600DE0164BBB600AE0FFF7D2F8AF
:1052700003461B0903F00F030F4A52F82330BB60AB
:1052800000BFFFF7C4F90246BB6803FB02F4FFF757
:10529000D7F903461B090133B4FBF3F4FFF7C4F954
:1052A00003465B0F0133B4FBF3F3FB60FB68184666
:1052B0001437BD4690BD00BF2CC300080024F40085
:1052C0000048E80198B500AFFFF790FF0446FFF7EC
:1052D00054F903461B0903F00F03034A52F8233025
:1052E000B4FBF3F3184698BDECC2000890B585B046
:1052F00000AF78607B68B02B03D9154BDB6AFB608D
:1053000007E07B681B0903F00F03114A52F82330B2
:10531000FB60FFF73EF903461B0903F00F030D4A3C
:1053200052F82330FA68B2FBF3F3BB60BB680A4A59
:10533000A2FB03239C0CFEF77DFE03461946204684
:1053400000F00CF8034618461437BD4690BD00BF68
:105350002CC30008ECC2000883DE1B4390B593B059
:1053600000AF78603960374B07F128040FCB84E831
:105370000F00354A07F11C0307CA83E80700334BC7
:1053800007F10C040FCB84E80F0000237B643B681B
:10539000B3F5007F1AD100233B6413E03B6C9B0004
:1053A00048333B4453F8203C7A689A4207D83B6C18
:1053B0009B0048333B4453F83C3C7B6420E03B6C0F
:1053C00001333B643B6C032BE8D919E00023FB63FA
:1053D00013E0FB6B9B0048333B4453F82C3C7A684A
:1053E0009A4207D8FB6B9B0048333B4453F83C3C44
:1053F0007B6405E0FB6B0133FB63FB6B022BE8D99D
:10540000134B1B6823F0070211497B6C13430B609D
:10541000FDF7CEFBB86308E0FDF7CAFB0246BB6BA5
:10542000D31A022B01D9032307E0094B1B6803F0B1
:1054300007037A6C9A42EFD1002318464C37BD46D9
:1054400090BD00BF4CC100085CC1000868C10008E5
:105450000040005880B400AF4FF0B043D3F8903014
:1054600003F00103012B01D1012300E000231846C2
:10547000BD465DF8047B704780B400AF4FF0B04389
:10548000D3F8903003F00203022B01D1012300E096
:1054900000231846BD465DF8047B704780B483B096
:1054A00000AF78604FF0B043D3F8943023F440421B
:1054B0004FF0B0417B681343C1F8943000BF0C3704
:1054C000BD465DF8047B704780B483B000AF786060
:1054D0004FF0B0435B6A23F003024FF0B0417B68AA
:1054E00013434B6200BF0C37BD465DF8047B704729
:1054F00080B483B000AF78604FF0B0435B6A23F0B4
:1055000030024FF0B0417B6813434B6200BF0C3751
:10551000BD465DF8047B704780B483B000AF78600F
:105520004FF0B043D3F8883023F003024FF0B0417E
:105530007B681343C1F8883000BF0C37BD465DF867
:10554000047B704780B483B000AF78604FF0B04305
:10555000D3F8883023F440624FF0B0417B681343A6
:10556000C1F8883000BF0C37BD465DF8047B70473A
:1055700080B483B000AF78604FF0B043D3F8882098
:105580007B681B0903F47F23DB431A407B681B0104
:1055900003F47F234FF0B0411343C1F8883000BFBC
:1055A0000C37BD465DF8047B704780B483B000AF14
:1055B00078604FF0B043D3F888207B681B0C1B0445
:1055C000DB431A407B681B044FF0B0411343C1F822
:1055D000883000BF0C37BD465DF8047B704780B44F
:1055E00083B000AF78604FF0B043D3F8883023F435
:1055F00040024FF0B0417B681343C1F8883000BFD0
:105600000C37BD465DF8047B704780B483B000AFB3
:1056100078604FF0B043D3F8883023F040424FF029
:10562000B0417B681343C1F8883000BF0C37BD46DA
:105630005DF8047B704780B483B000AF78604FF0B2
:10564000B043D3F8883023F040624FF0B0417B681C
:105650001343C1F8883000BF0C37BD465DF8047BAA
:10566000704780B582B000AF78607868FFF7E3FFDD
:1056700000BF0837BD4680BD80B483B000AF7860FE
:105680004FF0B043D3F8883023F040524FF0B04190
:105690007B681343C1F8883000BF0C37BD465DF806
:1056A000047B704780B483B000AF78604FF0B043A4
:1056B000D3F8903023F440724FF0B0417B6813432D
:1056C000C1F8903000BF0C37BD465DF8047B7047D1
:1056D00080B400AF4FF0B043D3F8903003F4407380
:1056E0001846BD465DF8047B704780B400AF4FF0AC
:1056F000B043D3F890304FF0B04243F48033C2F857
:10570000903000BFBD465DF8047B704780B400AFA9
:105710004FF0B043D3F890304FF0B04223F48033D1
:10572000C2F8903000BFBD465DF8047B704780B47E
:1057300000AF4FF0B0431B684FF0B04243F08063BE
:10574000136000BFBD465DF8047B704780B400AFB6
:105750004FF0B0431B684FF0B04223F080631360FA
:1057600000BFBD465DF8047B704780B400AF4FF0CA
:10577000B0431B6803F00063B3F1006F01D1012354
:1057800000E000231846BD465DF8047B704780B5F5
:1057900088B000AF78600023FB770023BB777B687D
:1057A0001B6803F04003002B34D07B681B6BB3F500
:1057B000400F21D0B3F5400F1BD8B3F5000F1DD01B
:1057C000B3F5000F15D8002B0BD0B3F5800F10D117
:1057D0004FF0B043DB684FF0B04243F48033D36006
:1057E0000DE07B680433184600F047F90346FB7769
:1057F00005E00123FB7702E000BF00E000BFFB7F74
:10580000002B05D17B681B6B1846FFF7E8FE01E013
:10581000FB7FBB777B681B6803F40063002B46D0DB
:10582000FFF756FFB8617B681B6CBA699A423CD09F
:10583000FEF79EFBBB69002B05D17B681B6C1846ED
:10584000FFF730FF2EE04FF0B043D3F890307B618C
:10585000FFF74BFFFFF75AFF7B6923F440727B6829
:105860001B6C13437B614FF0B0427B69C2F89030F0
:10587000FFF7F0FD0346012B14D1FDF799F93861CC
:105880000BE0FDF795F902463B69D31A41F28832E5
:10589000934202D90323FB7704E0FFF7EDFD0346B3
:1058A000012BEED1FB7FBB7701E0FB7FBB777B68F1
:1058B0001B6803F00103002B04D07B689B6918462A
:1058C000FFF72AFE7B681B6803F00203002B04D05D
:1058D0007B68DB691846FFF735FE7B681B6803F0C1
:1058E0001003002B04D07B689B6A1846FFF75DFE0F
:1058F0007B681B6803F02003002B04D07B68DB6A05
:105900001846FFF752FE7B681B6803F00403002B68
:1059100004D07B681B6A1846FFF72AFE7B681B6869
:1059200003F00803002B04D07B685B6A1846FFF77E
:105930001FFE7B681B6803F48073002B22D07B68FA
:105940005B6B1846FFF78DFE7B685B6BB3F1006FF6
:1059500007D14FF0B043DB684FF0B04243F08073A3
:10596000D3607B685B6BB3F1806F0BD17B680433D2
:10597000184600F0DDF80346FB77FB7F002B01D0D3
:10598000FB7FBB777B681B6803F40073002B2BD075
:105990007B689B6BB3F1804F08D07B689B6BB3F146
:1059A000004F03D07B689B6B002B05D17B689B6B02
:1059B0001846FFF72AFE0AE07B689B6B23F08053B2
:1059C000FB600020FFF721FEF868FFF734FE7B68DC
:1059D0009B6BB3F1C05F07D14FF0B043DB684FF072
:1059E000B04243F08073D3607B681B6803F480632C
:1059F000002B22D07B68DB6B1846FFF73DFE7B68EF
:105A0000DB6BB3F1005F07D14FF0B043DB684FF0C1
:105A1000B04243F48033D3607B68DB6BB3F1805FCB
:105A20000BD17B680433184600F0DDF80346FB77A2
:105A3000FB7F002B01D0FB7FBB777B681B6803F4E7
:105A40008053002B04D07B685B6C1846FFF726FD63
:105A50007B681B6803F40053002B09D07B68DB6C68
:105A60001846FFF745FD7B689B6C1846FFF72CFD39
:105A7000BB7F18462037BD4680BD80B584B000AFDF
:105A800078600023FB73FFF761FEFDF791F8B860C3
:105A900009E0FDF78DF80246BB68D31A022B02D944
:105AA0000323FB7304E0FFF760FE0346002BF0D1F5
:105AB000FB7B002B37D14FF0B0431B6923F4FE4230
:105AC0007B681B681B024FF0B04113430B614FF022
:105AD000B0431B6923F478127B685B684FF0B041D8
