:020000040800F2
:1000000000000320012E0008B92A0008C12A0008B8
:10001000C92A0008D12A0008D92A000800000000D7
:10002000000000000000000000000000E12A0008BD
:10003000EF2A000800000000FD2A00080B2B000832
:10004000592E0008592E0008592E0008172B0008B9
:10005000592E0008232B0008312B0008592E0008C8
:100060003F2B0008592E00084D2B0008592E000880
:10007000592E0008592E0008592E0008592E000844
:10008000592E0008592E0008592E0008592E000834
:100090005D2B0008592E0008592E0008592E000823
:1000A000592E0008592E0008592E0008592E000814
:1000B000592E0008592E0008592E0008592E000804
:1000C000592E0008592E0008592E0008592E0008F4
:1000D000592E0008592E0008712B0008592E0008CF
:1000E000592E0008592E0008592E0008592E0008D4
:1000F0007F2B00088B2B0008972B0008592E000837
:10010000A52B0008592E0008592E0008592E00086A
:10011000592E0008592E0008592E0008592E0008A3
:10012000592E0008592E0008592E0008592E000893
:0C013000592E0008592E0008592E000816
:1001400010B5054C237833B9044B13B10448AFF311
:1001500000800123237010BD400300200000000038
:10016000F860010808B5034B1BB103490348AFF31E
:10017000008008BD0000000044030020F860010872
:1001800001F0FF01102A2BDB10F0070F08D010F848
:10019000013B013A8B422DD010F0070F42B3F6D14C
:1001A000F0B441EA012141EA014122F007047FF065
:1001B00000070023F0E80256083C85EA010586EABC
:1001C000010685FA47F5A3FA87F586FA47F6A5FAF8
:1001D00087F68EB9EED1F0BC01F0FF0102F0070204
:1001E00032B110F8013B013A83EA010313B1F8D1AF
:1001F0000020704701387047002D06BF3546033890
:10020000073815F0010F07D1013015F4807F02BFC8
:10021000013015F4C03F0130F0BC0138704700BF19
:10022000034613F8012B002AFBD1181A0138704736
:1002300081F0004102E000BF83F0004330B54FEA97
:1002400041044FEA430594EA050F08BF90EA020F04
:100250001FBF54EA000C55EA020C7FEA645C7FEA97
:10026000655C00F0E2804FEA5454D4EB5555B8BFBA
:100270006D420CDD2C4480EA020281EA030382EA2B
:10028000000083EA010180EA020281EA0303362DBD
:1002900088BF30BD11F0004F4FEA01314FF4801C90
:1002A0004CEA113102D0404261EB410113F0004FA2
:1002B0004FEA03334CEA133302D0524263EB430359
:1002C00094EA050F00F0A780A4F10104D5F1200EF7
:1002D0000DDB02FA0EFC22FA05F2801841F1000152
:1002E00003FA0EF2801843FA05F359410EE0A5F126
:1002F00020050EF1200E012A03FA0EFC28BF4CF057
:10030000020C43FA05F3C01851EBE37101F000450C
:1003100007D54FF0000EDCF1000C7EEB00006EEB19
:100320000101B1F5801F1BD3B1F5001F0CD34908A3
:100330005FEA30004FEA3C0C04F101044FEA4452FA
:1003400012F5800F80F09A80BCF1004F08BF5FEA81
:10035000500C50F1000041EB045141EA050130BD61
:100360005FEA4C0C404141EB0101013C28BFB1F573
:10037000801FE9D291F0000F04BF01460020B1FABE
:1003800081F308BF2033A3F10B03B3F120020CDA91
:100390000C3208DD02F1140CC2F10C0201FA0CF06F
:1003A00021FA02F10CE002F11402D8BFC2F1200CD4
:1003B00001FA02F120FA0CFCDCBF41EA0C0190408A
:1003C000E41AA2BF01EB0451294330BD6FEA0404D3
:1003D0001F3C1CDA0C340EDC04F11404C4F12002BE
:1003E00020FA04F001FA02F340EA030021FA04F3D0
:1003F00045EA030130BDC4F10C04C4F1200220FA27
:1004000002F001FA04F340EA0300294630BD21FA64
:1004100004F0294630BD94F0000F83F4801306BF2A
:1004200081F480110134013D4EE77FEA645C18BF1E
:100430007FEA655C29D094EA050F08BF90EA020FB5
:1004400005D054EA000C04BF1946104630BD91EAAD
:10045000030F1EBF0021002030BD5FEA545C05D1B0
:100460004000494128BF41F0004130BD14F58004EF
:100470003CBF01F5801130BD01F0004545F0FE4163
:1004800041F470014FF0000030BD7FEA645C1ABF98
:10049000194610467FEA655C1CBF0B46024650EACF
:1004A000013406BF52EA033591EA030F41F40021FB
:1004B00030BD00BF90F0000F04BF0021704730B581
:1004C0004FF4806404F132044FF000054FF0000156
:1004D00050E700BF90F0000F04BF0021704730B517
:1004E0004FF4806404F1320410F0004548BF4042EC
:1004F0004FF000013EE700BF42004FEAE2014FEA41
:1005000031014FEA02701FBF12F07F4393F07F4F1B
:1005100081F06051704732F07F4208BF704793F01E
:100520007F4F04BF41F40021704730B54FF4607431
:1005300001F0004521F000411CE700BF50EA010234
:1005400008BF704730B54FF000050AE050EA0102DD
:1005500008BF704730B511F0004502D5404261EB4D
:1005600041014FF4806404F132045FEA915C3FF48E
:10057000D8AE4FF003025FEADC0C18BF03325FEA2B
:10058000DC0C18BF033202EBDC02C2F1200300FADC
:1005900003FC20FA02F001FA03FE40EA0E0021FA01
:1005A00002F11444BDE600BF70B54FF0FF0C4CF4EF
:1005B000E06C1CEA11541DBF1CEA135594EA0C0FA1
:1005C00095EA0C0F00F0DEF82C4481EA030621EADC
:1005D0004C5123EA4C5350EA013518BF52EA033517
:1005E00041F4801143F4801338D0A0FB02CE4FF0C9
:1005F0000005E1FB02E506F00042E0FB03E54FF0F9
:100600000006E1FB03569CF0000F18BF4EF0010EF0
:10061000A4F1FF04B6F5007F64F5407404D25FEAEC
:100620004E0E6D4146EB060642EAC62141EA55519F
:100630004FEAC52040EA5E504FEACE2EB4F1FD0CE1
:1006400088BFBCF5E06F1ED8BEF1004F08BF5FEA5F
:10065000500E50F1000041EB045170BD06F0004611
:1006600046EA010140EA020081EA0301B4EB5C04BE
:10067000C2BFD4EB0C0541EA045170BD41F48011B6
:100680004FF0000E013C00F3AB8014F1360FDEBFDB
:10069000002001F0004170BDC4F10004203C35DAB7
:1006A0000C341BDC04F11404C4F1200500FA05F33A
:1006B00020FA04F001FA05F240EA020001F00042DB
:1006C00021F0004110EBD37021FA04F642EB060151
:1006D0005EEA430E08BF20EAD37070BDC4F10C047B
:1006E000C4F1200500FA04F320FA05F001FA04F23F
:1006F00040EA020001F0004110EBD37041F100012B
:100700005EEA430E08BF20EAD37070BDC4F1200535
:1007100000FA05F24EEA020E20FA04F301FA05F29D
:1007200043EA020321FA04F001F0004121FA04F245
:1007300020EA020000EBD3705EEA430E08BF20EA15
:10074000D37070BD94F0000F0FD101F0004640004F
:1007500041EB010111F4801F08BF013CF7D041EAD1
:10076000060195F0000F18BF704703F000465200D5
:1007700043EB030313F4801F08BF013DF7D043EAA6
:100780000603704794EA0C0F0CEA135518BF95EA5C
:100790000C0F0CD050EA410618BF52EA4306D1D1E3
:1007A00081EA030101F000414FF0000070BD50EA02
:1007B000410606BF1046194652EA430619D094EA8C
:1007C0000C0F02D150EA013613D195EA0C0F05D176
:1007D00052EA03361CBF104619460AD181EA0301CA
:1007E00001F0004141F0FE4141F470014FF0000082
:1007F00070BD41F0FE4141F4780170BD70B54FF01D
:10080000FF0C4CF4E06C1CEA11541DBF1CEA13559C
:1008100094EA0C0F95EA0C0F00F0A7F8A4EB05047E
:1008200081EA030E52EA03354FEA013100F0888075
:100830004FEA03334FF0805545EA131343EA12633E
:100840004FEA022245EA111545EA10654FEA0026F3
:100850000EF000419D4208BF964244F1FD0404F5AC
:10086000407402D25B084FEA3202B61A65EB030508
:100870005B084FEA32024FF480104FF4002CB6EBC5
:10088000020E75EB030E22BFB61A754640EA0C0045
:100890005B084FEA3202B6EB020E75EB030E22BF85
:1008A000B61A754640EA5C005B084FEA3202B6EBC6
:1008B000020E75EB030E22BFB61A754640EA9C0085
:1008C0005B084FEA3202B6EB020E75EB030E22BF55
:1008D000B61A754640EADC0055EA060E18D04FEA13
:1008E000051545EA16754FEA06164FEAC30343EAB3
:1008F00052734FEAC2025FEA1C1CC0D111F4801F80
:100900000BD141EA00014FF000004FF0004CB6E778
:1009100011F4801F04BF01430020B4F1FD0C88BF17
:10092000BCF5E06F3FF6AFAEB5EB030C04BFB6EB22
:10093000020C5FEA500C50F1000041EB045170BD15
:100940000EF0004E4EEA113114EB5C04C2BFD4EB42
:100950000C0541EA045170BD41F480114FF0000EC6
:10096000013C90E645EA060E8DE60CEA135594EA42
:100970000C0F08BF95EA0C0F3FF43BAF94EA0C0F45
:100980000AD150EA01347FF434AF95EA0C0F7FF4BA
:1009900025AF104619462CE795EA0C0F06D152EA0E
:1009A00003353FF4FDAE1046194622E750EA4106F2
:1009B00018BF52EA43067FF4C5AE50EA41047FF403
:1009C0000DAF52EA43057FF4EBAE12E74FF0FF3C68
:1009D00006E000BF4FF0010C02E000BF4FF0010C39
:1009E0004DF804CD4FEA410C7FEA6C5C4FEA430CB2
:1009F00018BF7FEA6C5C1BD001B050EA410C0CBF01
:100A000052EA430C91EA030F02BF90EA020F002062
:100A1000704710F1000F91EA030F58BF994208BFC9
:100A200090422CBFD8176FEAE37040F00100704786
:100A30004FEA410C7FEA6C5C02D150EA013C07D1DD
:100A40004FEA430C7FEA6C5CD6D152EA033CD3D028
:100A50005DF8040B704700BF8446104662468C4622
:100A60001946634600E000BF01B5FFF7B7FF002855
:100A700048BF10F1000F01BD4DF808EDFFF7F4FF7E
:100A80000CBF012000205DF808FB00BF4DF808ED09
:100A9000FFF7EAFF34BF012000205DF808FB00BF2C
:100AA0004DF808EDFFF7E0FF94BF012000205DF84E
:100AB00008FB00BF4DF808EDFFF7CEFF94BF012003
:100AC00000205DF808FB00BF4DF808EDFFF7C4FFFC
:100AD00034BF012000205DF808FB00BF4FEA410C45
:100AE0007FEA6C5C02D150EA013C0AD14FEA430C28
:100AF0007FEA6C5C02D152EA033C02D14FF0000065
:100B000070474FF0010070474FEA410212F50012A2
:100B100015D211D56FF47873B3EB625212D94FEA44
:100B2000C12343F0004343EA505311F0004F23FA2E
:100B300002F018BF404270474FF00000704750EA83
:100B4000013005D111F0004008BF6FF00040704740
:100B50004FF00000704700BF80B485B000AF7860F0
:100B60004FF0B043DA6C4FF0B0417B681343CB6475
:100B70004FF0B043DA6C7B681340FB60FB6800BF4A
:100B80001437BD465DF8047B7047000080B586B021
:100B900000AF3B4600221A605A609A60DA601A6120
:100BA0005A61294B294A1A60274B00225A60264B6A
:100BB00000229A60244B0022DA60234B00221A6143
:100BC000214B04225A61204B01221A761E4B00222F
:100BD0005A761D4B0122DA611B4B002283F820203C
:100BE000194B00229A62184B0022DA62164B00223F
:100BF00083F83020144B00225A63134B002283F8F1
:100C00003820114802F048FB0346002B01D001F0C8
:100C10007FFD0F4B3B6006237B600023BB607F237F
:100C2000FB6004233B6100237B613B461946064879
:100C300002F07EFC0346002B01D001F069FD00BFED
:100C40001837BD4680BD00BF5C0300200000045083
:100C50004000201980B588B000AF786007F10C0320
:100C600000221A605A609A60DA601A617B681B6819
:100C70000D4A934213D14FF40050FFF76DFF01204E
:100C8000FFF76AFF0223FB6003233B6100237B61C4
:100C900007F10C0319464FF0904003F0A9F900BF8B
:100CA0002037BD4680BD00BF00000450B0B588B0FD
:100CB00000AF0B4B3C1D1D460FCD0FC495E8070040
:100CC00003C422800234130C237010F0D1FC3B1DAE
:100CD00018460FF05EFF00BF2037BD46B0BD00BF15
:100CE0001061010880B483B000AF7860074BD3F87F
:100CF000803023F0070205497B681343C1F8803038
:100D000000BF0C37BD465DF8047B704700040058F7
:100D100080B483B000AF7860064BD3F890200549CB
:100D20007B681343C1F8903000BF0C37BD465DF8B7
:100D3000047B70470008005880B483B000AF78602F
:100D40004FF0B0430A4AC3F89C204FF0B043D3F8A9
:100D50009C3023F47C527B681B024FF0B04113435C
:100D6000C1F89C3000BF0C37BD465DF8047B70476E
:100D7000FECAFECA80B483B000AF78604FF0B043C3
:100D80009B6823F400424FF0B0417B6813438B60B3
:100D900000BF0C37BD465DF8047B704780B400AFE0
:100DA000044B1B68C3F30B031846BD465DF8047B78
:100DB000704700BF002004E080B400AF044B1B6804
:100DC0001B0C9BB21846BD465DF8047B704700BF04
:100DD000002004E080B400AF054B1B69044A23F0F7
:100DE0000403136100BFBD465DF8047B704700BF7C
:100DF00000ED00E080B483B000AF78607B68FF2234
:100E00005A6200BF0C37BD465DF8047B704780B462
:100E100083B000AF78607B68CA225A627B68532235
:100E20005A6200BF0C37BD465DF8047B704780B442
:100E300083B000AF786039607B689B6823F007025D
:100E40003B681A437B689A6000BF0C37BD465DF86B
:100E5000047B704780B500AF044B4FF400421A6129
:100E600000F024F800F029F800BF80BD00400058D1
:100E700080B500AF00F035F800F04EF803490020CF
:100E800000F034FE00F056F800BF80BD6005002081
:100E900080B400AF00BFBD465DF8047B704780B5ED
:100EA00000AF5020FFF734FF00BF80BD80B400AF1B
:100EB00000BFBD465DF8047B704780B582B000AFCF
:100EC000002010F069FC78607B68002B05D07B68FF
:100ED0009B791846FFF730FF00BF00BF0837BD46BB
:100EE00080BD80B500AFFFF7D3FFFFF7D8FF00F05C
:100EF00003F800BF80BD000080B500AF0548FFF7D4
:100F000086FF00210348FFF792FF0248FFF772FFB8
:100F100000BF80BD0028004080B500AF4FF4004006
:100F2000FFF728FF12F058F90420FFF7DBFE00BF9F
:100F300080BD000080B588B000AF10F0DFF9114A25
:100F40000021042012F00CFB0F4B3B600F4B7B6029
:100F50003B4619460E4810F093F80E4BBB600E4B03
:100F6000FB600E4B3B6140F23C537B6107F1080391
:100F7000184610F009FB10F0BBF900BF2037BD4642
:100F800080BD00BFB910010834070320A10F00087D
:100F9000B90F00084C09032040080320F801032082
:100FA00080B483B000AF0346FB7100BF0C37BD4671
:100FB0005DF8047B7047000080B588B000AF7860B2
:100FC0007B685B680B33FB61FB691B889BB2A3F5F5
:100FD0001243072B1FD801A252F823F0FD0F00087F
:100FE0000F1000081710000817100008171000084D
:100FF00017100008171000081710000807F10C035D
:1010000018460FF0F3FD786800F01BF804E07868EC
:1010100000F006F800E000BF00BF2037BD4680BDED
:1010200080B485B000AF78607B685B680B33FB6091
:10103000FB680233BB6000BF1437BD465DF8047B1C
:10104000704780B58AB000AF786007F108030022CE
:101050001A605A609A60DA6000237B6200233B6268
:101060007B685B680B33FB61FB690233BB61BB6967
:101070001B78002B1DD1FFF719FE0F233B727F2336
:10108000BB72FFF799FE78627B6A9BB2BB82FFF767
:1010900085FE38623B6A9BB2FB8207F10803184663
:1010A0000FF08EFD10F0DEFC0021012012F0A6F8FA
:1010B00007E0BB691B78012B03D17B6800221A7003
:1010C00000BF00BF2837BD4680BD80B584B000AFEB
:1010D000786001F031FFB8607B68FB60FB68B3F1BA
:1010E000FF3F0AD001F040FF03461A46FB68134455
:1010F000FB6002E0FFF76EFE30BF01F01DFF02460D
:10110000BB68D31AFA689A42F4D800BF00BF103700
:10111000BD4680BD80B500AF4FF0FF3012F09EF8A5
:1011200000BF80BD80B400AF00BFBD465DF8047B4A
:10113000704780B582B000AF78600021042012F0C3
:1011400031FA00BF0837BD4680BD80B582B000AF20
:101150007860022012F092FA00BF0837BD4680BDC9
:1011600080B582B000AF7860022012F0A7FA00BF0D
:101170000837BD4680BD80B485B000AF78604FF0C1
:10118000B043DA6C4FF0B0417B681343CB644FF04F
:10119000B043DA6C7B681340FB60FB6800BF143718
:1011A000BD465DF8047B704780B586B000AF3B1D3F
:1011B00000221A605A609A60DA601A610420FFF710
:1011C000DAFF0220FFF7D7FF0120FFF7D4FF10203E
:1011D000FFF7D1FF002248F290014FF0904003F05A
:1011E0006DF900227921354803F068F905237B6009
:1011F0004FF40413BB600123FB603B1D19464FF005
:10120000904002F0F5FE48F290037B600123BB6042
:101210000023FB6000233B613B1D19464FF09040CB
:1012200002F0E6FE60237B600023BB600123FB60CD
:101230003B1D19464FF0904002F0DAFE79237B60A7
:101240000123BB600023FB6000233B613B1D19466B
:101250001A4802F0CDFE10237B604FF48813BB6068
:101260000023FB603B1D1946154802F0C1FE802398
:101270007B600023BB600023FB603B1D19460F48C9
:1012800002F0B6FE00220021062002F052FE0620E7
:1012900002F069FE00220021082002F04AFE082028
:1012A00002F061FE002200210A2002F042FE0A2024
:1012B00002F059FE00BF1837BD4680BD000400484B
:1012C0000010004880B483B000AF7860064BD3F8BC
:1012D000802005497B681343C1F8803000BF0C377C
:1012E000BD465DF8047B70470008005880B483B0A9
:1012F00000AF7860054B1A6804497B6813430B60A4
:1013000000BF0C37BD465DF8047B704700080058ED
:1013100080B483B000AF0D4B9B6A9BB27B600B4BDC
:101320009B6A9BB23B6005E03B687B60074B9B6A16
:101330009BB23B607A683B689A42F5D13B6818469D
:101340000C37BD465DF8047B704700BF00280040A5
:1013500080B485B000AF03460A46FB711346BB71EB
:10136000BA791D4913465B001344DB000B44153367
:101370001B78FB73FB7B062B09D0FA7B16491346BF
:101380005B001344DB000B441433FA791A70FA79CA
:10139000114913465B001344DB000B441533FA7B01
:1013A0001A70FA790C4913465B001344DB000B44B6
:1013B0001433BA791A70BA79074913465B0013449B
:1013C000DB000B441533FA791A7000BF1437BD46A1
:1013D0005DF8047B704700BFC003002080B485B077
:1013E00000AF03460A46FB711346BB71294B1B78BD
:1013F000DBB2BA799A4232D0BA79274913465B00F8
:101400001344DB000B4414331B78FB73FA7B224933
:1014100013465B001344DB000B441533FA791A7052
:10142000FA791D4913465B001344DB000B44153366
:10143000BA791A70FA79184913465B001344DB0035
:101440000B441433FA7B1A70BA79134913465B00C4
:101450001344DB000B441433FA791A7014E0FA7960
:101460000D4913465B001344DB000B441533BA7976
:101470001A70BA79084913465B001344DB000B4429
:101480001433FA791A7000BF1437BD465DF8047B37
:10149000704700BF50040020C003002080B584B016
:1014A00000AF0346FB714E4B1B78DBB2062B18D105
:1014B0004B4B1B78DAB24B4B1A70494AFB791370CD
:1014C000FA79494913465B001344DB000B4415339A
:1014D00006221A70454B4FF0FF321A600023FB8141
:1014E00078E000F009F90346FB81FA793E4913469A
:1014F0005B001344DB000B4408331968FB89FA795D
:101500001944394813465B001344DB000344083395
:101510001960FA79344913465B001344DB000B442D
:1015200008331B68BB602E4B1B78DBB219462E4A72
:101530000B465B000B44DB00134408331B68BA689E
:101540009A4237D3264B1B787B737A7B2649134606
:101550005B001344DB000B4415331B783B7313E033
:101560007A7B214913465B001344DB000B4415339F
:101570001B787B737A7B1C4913465B001344DB00AA
:101580000B4415331B783B733B7B062B0BD03A7B0C
:10159000154913465B001344DB000B4408331B68FA
:1015A000BA689A42DCD27A7BFB7911461846FFF77B
:1015B000CFFE0FE00A4B1B78DAB2FB7911461846D2
:1015C000FFF70CFF064B1B78DAB2064B1A70044A81
:1015D000FB791370FB8918461037BD4680BD00BFEC
:1015E0005004002051040020C003002054040020B7
:1015F00080B485B000AF03460A46FB711346BB7149
:10160000394B1B78DBB2FA799A4211D1364B1B78F1
:10161000DAB2364B1A70FA79354913465B00134437
:10162000DB000B4415331B78DAB22F4B1A703EE007
:10163000FA792F4913465B001344DB000B44143343
:101640001B78FB73FA792A4913465B001344DB00CD
:101650000B4415331B78BB73F979FA7B24480B468E
:101660005B000B44DB00034415331B78D8B22049E0
:1016700013465B001344DB000B44153302461A701B
:10168000BB7B062B13D0F979BA7B19480B465B005C
:101690000B44DB00034414331B78D8B214491346BF
:1016A0005B001344DB000B44143302461A70FA79D2
:1016B0000F4913465B001344DB000B440C3301223B
:1016C0001A70094B1B78DBB2062B07D1BB79002BB4
:1016D00004D1084B4FF0FF321A6000BF00BF14372F
:1016E000BD465DF8047B7047500400205104002083
:1016F000C00300205404002080B582B000AF1A4B14
:101700001B68B3F1FF3F26D0FFF702FE7860164B4F
:101710001B687A689A4205D8134B1A687B68D31AFB
:101720007B600AE0114B1B881A467B68D31A3B602A
:101730000D4B1B683A6813447B600D4B1B781A46AF
:101740007B6802FB03F37B600A4B1B781A467B68BD
:10175000D3407B6001E000237B607B689BB218462E
:101760000837BD4680BD00BF540400205C04002043
:101770005A0400205904002080B582B000AF03460F
:10178000FB80FB88002B08D1FFF7C2FD0346214AEE
:101790001360032002F00FFC39E0FB88012B03D813
:1017A0001D4B1B78012B02D0FB88013BFB8000BF47
:1017B0001A4B1B68DB6803F00403002BF8D0174BAF
:1017C0001B68DB68DAB2154B1B6862F49062DA6062
:1017D000134B4FF40022DA60032002F0FAFB114BA6
:1017E0005B691B0C1B04FA880E4913434B61FFF71E
:1017F0008FFD0346074A1360084B1B689A68074B26
:101800001B6842F480629A60AFF3008000BF083723
:10181000BD4680BD5404002059040020600500200E
:10182000000800580028004080B584B000AF454B48
:101830009B6803F48063B3F5806F07D100BF424B10
:101840001B68DB6803F00403002BF8D13E4B1B68D8
:101850009A683D4B1B6822F480629A603B4B1B7870
:10186000FB73FA7B3A4913465B001344DB000B44DD
:1018700008331B68BB60FFF73FFF0346FB80FB8814
:10188000BA689A4205D20023BB81324B01221A70FA
:101890004DE0FB88304A128892B213441A46BB6866
:1018A000934206D92C4B1B88BB812A4B00221A700D
:1018B0003DE0BB689AB2FB88D31ABB81254B01225D
:1018C0001A7034E0FA7B224913465B001344DB00B4
:1018D0000B4408331A68FB889A420AD2FA7B1C49E7
:1018E00013465B001344DB000B44083300221A60EC
:1018F00013E0FA7B164913465B001344DB000B44EC
:1019000008331968FB88FA7BC91A114813465B0033
:101910001344DB00034408331960FA7B0C49134677
:101920005B001344DB000B4415331B78FB73FB7B1C
:10193000062BC7D1BB891846FFF71EFF00BF103723
:10194000BD4680BD002800406005002050040020F6
:10195000C0030020580400205E04002080B58AB037
:1019600000AFEFF310837B617B697B6272B600BFCF
:10197000594B1B68CA225A62574B1B6853225A6242
:10198000554B1B689A68544B1B6822F480629A601E
:10199000524B1B7887F8233097F823205049134681
:1019A0005B001344DB000B440C331B78DBB2022BCF
:1019B0006ED197F823204A4913465B001344DB009D
:1019C0000B441B68FB6197F82320454913465B00D5
:1019D0001344DB000B4410331B68BB61414B1B7885
:1019E000DBB2002B4CD097F823203D4913465B0017
:1019F0001344DB000B440D331B78DBB2012B24D1E5
:101A000097F8233001211846FFF7F2FD7B6A3B610E
:101A10003B6983F3108800BF97F8232030491346B1
:101A20005B001344DB000B4404331A6897F823303F
:101A30001146184600F0B8F9274B1B68CA225A62B3
:101A4000254B1B6853225A6212E07B6AFB60FB68DD
:101A500083F3108800BF97F82330184600F020F970
:101A60001D4B1B68CA225A621B4B1B6853225A62C9
:101A700097F82330FA691946B86900F01BFA22E09A
:101A8000FFF7D2FE7B6ABB60BB6883F310881AE065
:101A900000BF114B1B68DB6803F00403002BF8D078
:101AA0000D4B1B68DB68DAB20B4B1B6862F490626B
:101AB000DA600D4B4FF40022DA607B6A7B607B6852
:101AC00083F3108800BF044B1B68FF225A6200BFDB
:101AD0002837BD4680BD00BF6005002050040020AF
:101AE000C0030020580400200008005880B588B0CA
:101AF00000AF03463960FB715E4B1B68CA225A6215
:101B00005C4B1B6853225A625B4B9B685A4A43F0FA
:101B100020039360584B9B68DBB203F00703DBB2F2
:101B2000C3F10403DAB2554B1A70534B1B6903F42B
:101B3000FE034FF4FE023A613A6992FAA2F2FA60A9
:101B4000FA687A617A69002A01D1202203E07A6971
:101B5000B2FA82F2D2B2D340DBB20133DAB2484BEE
:101B60001A70454B1B699BB2C3F30E039BB2013342
:101B70009AB2444B1A80434B1B88013B404A12786F
:101B800002FB03F3A3F5A0733C4A1278D340BB6178
:101B9000BB694FF6FE72934204D93B4B4FF6FF727E
:101BA0001A8003E0BB699AB2374B1A804FF40020C9
:101BB000FFF79CFB4FF40020FFF784FBFB79002B21
:101BC0003DD1324B01221A70314B4FF0FF321A6077
:101BD0000023FB770CE0FA7F2E4913465B00134489
:101BE000DB000B440C3300221A70FB7F0133FB77C0
:101BF000FB7F052BEFD9284B06221A701D4B1B6863
:101C00009A681C4B1B6822F480629A60194B1B680F
:101C1000DB68DAB2174B1B6862F49062DA601F4B24
:101C20004FF40022DA60032002F0D3F9114B1B6855
:101C30009A68104B1B6842F480429A6009E00D4B91
:101C40001B68DB6803F48063002B02D0032002F0E2
:101C5000B2F9084B1B68FF225A62002203210320BD
:101C600002F067F9032002F07EF900BF2037BD467D
:101C700080BD00BF600500200028004059040020FE
:101C80005A0400205C0400205E0400205804002058
:101C900054040020C0030020500400200008005815
:101CA00080B586B000AF0346FB71EFF31083FB6095
:101CB000FB687B6172B600BF032002F062F9344B0F
:101CC0001B68CA225A62324B1B6853225A62FA7945
:101CD000304913465B001344DB000B440C331B7884
:101CE000DBB2022B42D1FB7900211846FFF780FCC2
:101CF000294B1B78FB74FB7C062B2FD1274B9B6851
:101D000003F48063B3F5806F07D100BF204B1B68DD
:101D1000DB6803F00403002BF8D11D4B1B689A68A5
:101D20001B4B1B6822F480629A6000BF184B1B6833
:101D3000DB6803F00403002BF8D0154B1B68DB684D
:101D4000DAB2134B1B6862F49062DA60144B4FF402
:101D50000022DA60032002F03CF907E0114B1B7807
:101D6000DBB2FA7C9A4201D0FFF75EFD084B1B689C
:101D7000FF225A62032002F0F6F87B69BB60BB6861
:101D800083F3108800BF00BF1837BD4680BD00BF79
:101D900060050020C00300205004002000280040FF
:101DA000000800585104002080B586B000AF0346FB
:101DB0003960FB71FA793B4913465B001344DB0041
:101DC0000B440C331B78DBB2022B03D1FB79184692
:101DD000FFF766FFEFF31083FB60FB687B6172B671
:101DE00000BF032002F0CDF82F4B1B68CA225A62B5
:101DF0002D4B1B6853225A62FA792A4913465B001D
:101E00001344DB000B440C3302221A70FA79254983
:101E100013465B001344DB000B4408333A681A6036
:101E2000FA79204913465B001344DB000B4404336A
:101E30003A681A60FB791846FFF730FB03467B824D
:101E40001A4B1B787B741A4B1B78DBB27A7C9A4254
:101E500002D0FFF7E9FC13E0FA79124913465B0060
:101E60001344DB000B44083319687B8AFA79C91ADA
:101E70000C4813465B001344DB000344083319602D
:101E8000094B1B68FF225A62032002F06CF87B6941
:101E9000BB60BB6883F3108800BF00BF1837BD4626
:101EA00080BD00BFC003002060050020500400205A
:101EB0005104002080B584B000AFF8600B467A6012
:101EC000FB727B68984700BF1037BD4680BD80B469
:101ED00085B000AF78604FF0B043DA6C4FF0B0419E
:101EE0007B681343CB644FF0B043DA6C7B681340DC
:101EF000FB60FB6800BF1437BD465DF8047B70478C
:101F000080B485B000AF78604FF0B0439A6D4FF069
:101F1000B0417B6813438B654FF0B0439A6D7B688B
:101F20001340FB60FB6800BF1437BD465DF8047BBF
:101F30007047000080B500AF1B4B1C4A1A601A4B5B
:101F40001B4A5A60184B00229A60174B0122DA6034
:101F5000154B00221A61144B00225A61124B0022C9
:101F60009A61114B0022DA610F4B00221A620E486F
:101F700002F004FB0346002B01D000F0C9FB002156
:101F8000094802F096FB0346002B01D000F0C0FB8D
:101F90000021054802F0D8FB0346002B01D000F0D9
:101FA000B7FB00BF80BD00BF6004002000540040AC
:101FB000140D100080B59CB000AF786007F15C0391
:101FC00000221A605A609A60DA601A6107F10C0305
:101FD00050220021184612F068F97B681B681F4ADE
:101FE000934237D10423FB604FF44033FB6207F187
:101FF0000C03184606F0BFFB0346002B01D000F08F
:1020000087FB0220FFF763FF4FF44073FB65122349
:102010003B6601237B660023BB660423FB6607F156
:102020005C0319460E4801F0E3FF4FF40010FFF780
:1020300067FF4FF44073FB6512233B6601237B6609
:102040000023BB660423FB6607F15C0319460448C2
:1020500001F0CEFF00BF7037BD4680BD0054004088
:102060000004004880B485B000AF78604FF0B04302
:102070001A6D4FF0B0417B6813430B654FF0B043CE
:102080001A6D7B681340FB60FB6800BF1437BD46C8
:102090005DF8047B7047000080B500AF064B074A2F
:1020A0001A60054802F09CFB0346002B01D000F0AB
:1020B0002FFB00BF80BD00BFB4040020000C0058FF
:1020C00080B582B000AF78607B681B680D4A934290
:1020D00013D14FF48010FFF7C5FF002200212C2000
:1020E00001F027FF2C2001F03EFF002200212D20CF
:1020F00001F01FFF2D2001F036FF00BF0837BD465D
:1021000080BD00BF000C005880B485B000AF78607F
:102110004FF0B043DA6C4FF0B0417B681343CB64AF
:102120004FF0B043DA6C7B681340FB60FB6800BF84
:102130001437BD465DF8047B704780B485B000AFAE
:1021400078604FF0B0439A6D4FF0B0417B68134315
:102150008B654FF0B0439A6D7B681340FB60FB6862
:1021600000BF1437BD465DF8047B704780B485B06E
:1021700000AF78604FF0B043DA6D4FF0B0417B684C
:102180001343CB654FF0B043DA6D7B681340FB60BF
:10219000FB6800BF1437BD465DF8047B704780B410
:1021A00083B000AF78604FF0B0439A6D7B68DB433B
:1021B0004FF0B04113408B6500BF0C37BD465DF852
:1021C000047B704780B483B000AF78604FF0B043B9
:1021D000DA6D7B68DB434FF0B0411340CB6500BF45
:1021E0000C37BD465DF8047B7047000080B500AF3A
:1021F000124B134A1A60114B00225A600F4B0022F7
:102200009A600E4B4FF6FF725A610C4B00221A6215
:102210000A4B00225A62094B00229A62074B0022A5
:10222000DA62064B00221A63044802F0A9FB034657
:10223000002B01D000F06CFA00BF80BDF00400203C
:10224000007C004080B500AF124B134A1A60114B5E
:1022500000225A600F4B00229A600E4B4FF6FF721D
:102260005A610C4B00221A620A4B00225A62094B37
:1022700000229A62074B0022DA62064B00221A63A0
:10228000044802F07DFB0346002B01D000F040FA29
:1022900000BF80BD280500200094004080B59CB0A0
:1022A00000AF786007F15C0300221A605A609A6000
:1022B000DA601A6107F10C0350220021184611F070
:1022C000F4FF7B681B68264A934226D11023FB60EB
:1022D0004FF440237B6307F10C03184606F04BFADA
:1022E0000346002B01D000F013FA4FF00040FFF737
:1022F00024FF0220FFF708FF0423FB6502233B664F
:1023000000237B660023BB660123FB6607F15C03A9
:102310001946144801F06CFE1EE07B681B68124AE7
:10232000934219D12023FB604FF03013BB6307F1B8
:102330000C03184606F01FFA0346002B01D000F0EC
:10234000E7F92020FFF712FF00220221302001F0E0
:10235000F0FD302001F007FE00BF7037BD4680BDA4
:10236000007C0040000400480094004080B582B02A
:1023700000AF78607B681B680D4A934208D14FF02C
:102380000040FFF70CFF04210A4801F0A1FF0AE01A
:102390007B681B68084A934205D12020FFF712FF93
:1023A000302001F0EEFD00BF0837BD4680BD00BF04
:1023B000007C0040000400480094004080B483B0DA
:1023C00000AF78604FF0B043D3F8903023F018029C
:1023D0004FF0B0417B681343C1F8903000BF0C3719
:1023E000BD465DF8047B704780B483B000AF786071
:1023F0004FF0B043DA6C7B68DB434FF0B0411340E1
:10240000CB6400BF0C37BD465DF8047B704780B5D8
:1024100084B000AF00F022FDFEF71CFD00F058F87C
:1024200000F0CAF8FFF738FEFEF7BEFEFFF7DEFE4B
:1024300000F0A6F9FFF77EFDFFF704FFFEF7A6FB0D
:1024400000F056FA09F07CFD0346002B01D000F0A5
:102450005FF910F0BDF900F061F90023FB60002383
:102460007B600023FB7200F067FD786021E00121B2
:102470004FF0904002F00AF80346002B17D1FB7A88
:10248000002B05D10123FB7200F056FDF86010E02F
:1024900000F052FD0246FB68D31AB3F5FA6F08D379
:1024A0004FF47A7000F0BCF800F0D6F801E0002399
:1024B000FB7200F041FD02467B68D31A40F6B83249
:1024C0009342D4D9FEF7D4FCFEF724FEFCE70000CB
:1024D00080B59AB000AF07F12003482200211846CA
:1024E00011F0E3FE3B1D00221A605A609A60DA6028
:1024F0001A615A619A6104F031FB1020FFF75EFF08
:102500002C4B1B6823F4C0632A4A43F40073136006
:10251000284B1B6803F4C0633B603B6867233B6246
:102520004FF480337B620123BB624FF48073FB6204
:102530000123FB630123BB6400233B6300233B6453
:1025400060237B640223FB6401233B6500237B65DE
:102550002023BB654FF40033FB654FF000537B66CF
:102560004FF080633B6607F12003184604F090FFAC
:102570000346002B01D000F0CBF86F237B600323D0
:10258000BB608023FB604FF4C0633B6100237B6131
:102590008023BB610023FB613B1D0321184605F02E
:1025A000EBFA0346002B01D000F0B2F800BF683709
:1025B000BD4680BD0004005880B594B000AF3B46D6
:1025C00050220021184611F070FE4FF451533B6029
:1025D00018237B604FF40033BB604FF00073FB6047
:1025E0004FF000533B610D4B7B6100233B634FF089
:1025F0008053FB634FF480437B640023BB64102350
:10260000FB643B46184606F0B6F80346002B01D0A3
:1026100000F07EF800BF5037BD4680BD00000110BD
:1026200080B584B000AF786040F2E733FB604FF4D0
:10263000FA73BB60BA68F968064802F06BFA78680A
:10264000FEF743FD034802F0B2FA00BF1037BD4663
:1026500080BD00BFF004002080B584B000AF72B62A
:1026600000BF244B0322A3F840200420FFF7BCFE48
:102670000220FFF7B9FE0120FFF7B6FE1E4802F068
:1026800021FA04F069FE1D4B00221A601B4B002248
:102690005A601A4B00229A600023FB7310E0184A1C
:1026A000FB7B20334FF0FF3142F82310144AFB7BB1
:1026B00060334FF0FF3142F82310FB7B0133FB7393
:1026C000FB7B072BEBD962B600BF0E4B1B68BB60D0
:1026D0000D4B1B683B603B6883F3088800BFBB68F9
:1026E0007B600A4B01221A607B68984700BF103755
:1026F000BD4680BD00680040F004002010E000E00E
:1027000000E100E00400FF1F0000FF1F0000014087
:1027100080B400AF72B600BF00BFFDE780B400AF69
:1027200000BFBD465DF8047B704780B400AF4FF03A
:10273000B043D3F890304FF0B04243F40043C2F8B6
:10274000903000BFBD465DF8047B704780B485B013
:1027500000AF78604FF0B0439A6D4FF0B0417B68A6
:1027600013438B654FF0B0439A6D7B681340FB6059
:10277000FB6800BF1437BD465DF8047B704700005E
:1027800080B586B000AF3B1D00221A605A609A6087
:10279000DA601A6100233B602C4B2D4A1A602B4BE8
:1027A00000225A60294B0F229A60284B47F6FF728D
:1027B000DA60264B00221A61244B00229A61234BD7
:1027C0000022DA61214B00225A61204807F01EF8EE
:1027D0000346002B01D0FFF79BFF00233B71002332
:1027E0007B710023BB710023BB6000233B6100238E
:1027F0007B613B1D01221946144807F08FF8034600
:10280000002B01D0FFF784FF01233B7001237B7075
:102810000123BB700023FB703B46012219460B4885
:1028200007F01BF90346002B01D0FFF771FF0022D0
:102830000021064807F03CFA0346002B01D0FFF7C1
:1028400067FF00BF1837BD4680BD00BF6005002090
:102850000028004080B596B000AF786007F108030B
:1028600050220021184611F020FD7B681B68124A97
:1028700093421DD14FF40063BB604FF48073BB647F
:1028800007F10803184605F076FF0346002B01D038
:10289000FFF73EFFFFF749FF4FF48060FFF756FF59
:1028A00000220021032001F044FB032001F05BFB28
:1028B00000BF5837BD4680BD0028004080B485B0B9
:1028C00000AF78604FF0B0431A6E4FF0B0417B68B4
:1028D00013430B664FF0B0431A6E7B681340FB60E6
:1028E000FB6800BF1437BD465DF8047B70470000ED
:1028F00080B500AF2D4B2E4A1A602C4B00225A6433
:102900002A4B01225A60294B80229A64274B0022CD
:10291000DA64264B00221A65244B00229A60234B6E
:1029200000225A61214B00229A61204B00229A62B8
:102930001E4B0022DA611D4B1E4A1A621B4B4FF4DC
:102940008052DA62194B00221A63184B012283F875
:102950003820164B0222DA63144B4FF440721A648B
:10296000124B20225A65114B01229A650F4B00220F
:10297000DA650E4B00221A660C4B00225A660B4B8E
:1029800000229A66094B0022DA66084B02221A6777
:10299000064B03225A67054807F056FA0346002BF8
:1029A00001D0FFF7B5FE00BF80BD00BF8405002049
:1029B0000454014000EE020080B588B000AF78609A
:1029C0007B681B68164A934226D1164B1B68002B66
:1029D0000BD14FF40010FFF771FF002200212620D9
:1029E00001F0A7FA262001F0BEFA0E4B1B68013356
:1029F0000C4A13604FF4E163FB6002233B61002348
:102A00007B610023BB610323FB6107F10C031946C3
:102A10004FF0904001F0ECFA00BF2037BD4680BD7A
:102A2000045401401C06002080B485B000AF7860DB
:102A30004FF0B0431A6D4FF0B0417B6813430B6504
:102A40004FF0B0431A6D7B681340FB60FB6800BF1A
:102A50001437BD465DF8047B704780B582B000AF87
:102A60003B4600221A605A604FF40020FFF7DCFF5B
:102A7000002202216FF0010001F05BFA0022022126
:102A8000052001F056FA052001F06DFA0022002120
:102A90002E2001F04EFA2E2001F065FA00233B6053
:102AA00000237B603B46184604F068F804F0A8F861
:102AB00000BF0837BD4680BD80B400AF00BFFDE752
:102AC00080B400AF00BFFDE780B400AF00BFFDE7FA
:102AD00080B400AF00BFFDE780B400AF00BFFDE7EA
:102AE00080B400AF00BFBD465DF8047B704780B482
:102AF00000AF00BFBD465DF8047B704780B400AFF7
:102B000000BFBD465DF8047B704780B500AF00F0A4
:102B1000FFF900BF80BD80B500AFFEF71FFF00BF0B
:102B200080BD80B400AF00BFBD465DF8047B704738
:102B300080B500AF012001F0D9FC00BF80BD80B599
:102B400000AF042001F0D2FC00BF80BD80B500AF13
:102B5000102001F0CBFC00BF80BD000080B500AFAD
:102B6000024802F0EFFA00BF80BD00BF480C002011
:102B700080B400AF00BFBD465DF8047B704780B5F0
:102B800000AF0FF06BFC00BF80BD80B500AF0FF051
:102B90009BFC00BF80BD80B500AF01F0CBFC00BF47
:102BA00080BD000080B500AF024802F01CF800BFF5
:102BB00080BD00BF2805002080B400AF0123184667
:102BC000BD465DF8047B704780B582B000AF786089
:102BD000396011F0BDFB034616221A604FF0FF3337
:102BE00018460837BD4680BD80B582B000AF78601A
:102BF0004FF0FF317868FFF7E7FF00BFFDE780B5D2
:102C000086B000AFF860B9607A6000237B610AE0AB
:102C1000AFF300800146BB685A1CBA60CAB21A7092
:102C20007B6901337B617A697B689A42F0DB7B6860
:102C300018461837BD4680BD80B586B000AFF86035
:102C4000B9607A6000237B6109E0BB685A1CBA60F6
:102C50001B781846AFF300807B6901337B617A698A
:102C60007B689A42F1DB7B6818461837BD4680BD09
:102C700080B483B000AF78604FF0FF3318460C3754
:102C8000BD465DF8047B704780B483B000AF7860C8
:102C900039603B684FF400525A60002318460C37E5
:102CA000BD465DF8047B704780B483B000AF7860A8
:102CB000012318460C37BD465DF8047B704780B48D
:102CC00085B000AFF860B9607A6000231846143709
:102CD000BD465DF8047B704780B586B000AF786074
:102CE000144A154BD31A7B617B693B61134B1B68FC
:102CF000002B02D1114B124A1A60104B1A687B68E4
:102D000013443A699A4207D211F022FB03460C227F
:102D10001A604FF0FF3309E0084B1B68FB60074B5C
:102D20001A687B681344054A1360FB681846183715
:102D3000BD4680BD000003200004000020060020E6
:102D4000A013002080B400AF244BD3F88830234A6E
:102D500043F47003C2F888304FF0B0431B684FF063
:102D6000B04243F0010313604FF0B0434FF4E02250
:102D70009A604FF0B0431A684FF0B041184B1340BF
:102D80000B604FF0B043D3F894304FF0B04223F0D3
:102D90000503C2F894304FF0B043D3F898304FF0A9
:102DA000B04223F00103C2F898304FF0B0430D4A0F
:102DB000DA604FF0B0430B4A1A614FF0B0431B6822
:102DC0004FF0B04223F4802313604FF0B043002251
:102DD0009A6100BFBD465DF8047B704700ED00E0DE
:102DE000FBFEF6FA00100422D458C4500433C41871
:102DF0008C42F9D37047036004308842FBD370479C
:102E00000C488546FFF79EFF0B480C490C4A0023EF
:102E1000FFF7EDFF0B480C490C4A0023FFF7E7FFD3
:102E20000B480C490023FFF7E8FF11F097FAFFF772
:102E3000EEFAFEE70000032008000020F402002064
:102E4000E4670108E4010320670A0320166B010808
:102E5000400300209C130020FEE7000080B582B0F4
:102E600000AF0023FB710C4B1B680B4A43F48073CB
:102E70001360032001F052F80F2000F00FF8034612
:102E8000002B02D00123FB7101E0FFF7E6FDFB7987
:102E900018460837BD4680BD0040005880B584B054
:102EA00000AF78600023FB73174B1B78002B24D0F6
:102EB00005F00EF80246144B1B7819464FF47A734E
:102EC000B3FBF1F3B2FBF3F3184601F068F80346E5
:102ED000002B0FD17B680F2B09D8002279684FF0A7
:102EE000FF3001F026F8094A7B68136007E00123F0
:102EF000FB7304E00123FB7301E00123FB73FB7B05
:102F000018461037BD4680BD100000200C00002080
:102F100080B400AF064B1B781A46064B1B6813445F
:102F2000044A136000BFBD465DF8047B704700BFD4
:102F3000100000202406002080B400AF034B1B6863
:102F40001846BD465DF8047B704700BF240600208C
:102F500080B400AF034B1B681846BD465DF8047B88
:102F6000704700BF0C00002080B400AF034B1B78FB
:102F70001846BD465DF8047B704700BF1000002076
:102F800080B483B000AF786039607B689B6823F4BD
:102F90007C123B681A437B689A6000BF0C37BD46C1
:102FA0005DF8047B704780B483B000AF786039600F
:102FB0007B689B6823F0E0723B681A437B689A60E9
:102FC00000BF0C37BD465DF8047B704780B483B00A
:102FD00000AF78607B689B6803F0E07318460C379D
:102FE000BD465DF8047B704780B487B000AFF860E1
:102FF000B9607A603B60FB6860331A46BB689B002F
:1030000013447B617B691A68084B13407A6802F0AD
:10301000F8413A680A43134343F000427B691A605F
:1030200000BF1C37BD465DF8047B704700F0FF030E
:1030300080B485B000AF786039607B6860331A4631
:103040003B689B001344FB60FB681B6803F0F8437C
:1030500018461437BD465DF8047B704780B487B0CE
:1030600000AFF860B9607A60FB6860331A46BB68ED
:103070009B0013447B617B691B6823F000427B68E3
:103080001A437B691A6000BF1C37BD465DF8047B9C
:10309000704780B487B000AFF860B9607A60FB68B1
:1030A00030331A46BB681B0A9B0003F00C03134421
:1030B0007B617B691A68BB6803F01F031F2101FA5B
:1030C00003F3DB431A407B689B0E03F01F01BB68D0
:1030D00003F01F0301FA03F31A437B691A6000BF70
:1030E0001C37BD465DF8047B704780B487B000AFE5
:1030F000F860B9607A60FB6814331A46BB685B0EEF
:103100009B0003F0040313447B617B691A68BB686E
:103110001B0D03F01F03072101FA03F3DB431A40E1
:10312000BB681B0D03F01F03796801FA03F31A4310
:103130007B691A6000BF1C37BD465DF8047B704791
:1031400080B485B000AFF860B9607A60FB68D3F8EE
:10315000B020BB68C3F31203DB431A407B6803F063
:1031600018030849D940BB680B40C3F312031A4344
:10317000FB68C3F8B02000BF1437BD465DF8047B80
:10318000704700BFFFFF070080B483B000AF7860D6
:103190007B689B6823F0204323F03F037A689360A9
:1031A00000BF0C37BD465DF8047B704780B483B028
:1031B00000AF78607B689B6803F00053B3F1005F59
:1031C00001D1012300E0002318460C37BD465DF80D
:1031D000047B704780B483B000AF78607B689B68E5
:1031E00023F0104323F03F0343F080527B689A6042
:1031F00000BF0C37BD465DF8047B704780B483B0D8
:1032000000AF78607B689B6803F08053B3F1805F08
:1032100001D1012300E0002318460C37BD465DF8BC
:10322000047B704780B483B000AF78607B689B6894
:1032300003F00103012B01D1012300E00023184614
:103240000C37BD465DF8047B704780B483B000AF97
:1032500078607B689B6803F00403042B01D1012391
:1032600000E0002318460C37BD465DF8047B70472C
:1032700080B483B000AF78607B689B6803F008037C
:10328000082B01D1012300E0002318460C37BD466E
:103290005DF8047B7047000080B588B000AF7860AF
:1032A0000023FB770023BB610023BB607B68002BFE
:1032B00001D101232EE17B681B69002B7B685B6DCC
:1032C000002B09D17868FDF7C5FC7B6800229A6560
:1032D0007B68002283F850207B681B681846FFF744
:1032E00065FF0346002B04D07B681B681846FFF778
:1032F0004BFF7B681B681846FFF780FF0346002BD7
:1033000015D17B681B681846FFF764FF834B1B6869
:103310009B09834AA2FB03239B0901335B00BB602B
:1033200002E0BB68013BBB60BB68002BF9D17B6846
:103330001B681846FFF762FF0346002B0DD17B6820
:103340005B6D43F010027B685A657B689B6D43F0B0
:1033500001027B689A650123FB777B681B6818462E
:10336000FFF773FF78617B685B6D03F01003002B40
:1033700040F0C7807B69002B40F0C3807B685B6DA9
:1033800023F4817343F002027B685A657B681B68F3
:103390001846FFF747FF0346002B0BD16148FFF7A4
:1033A00041FF0346002B05D17B685B6819465E48E8
:1033B000FFF7E6FD7B685B7E5A037B685B6B1A4315
:1033C0007B68DB681A437B689B681A437B6893F8C9
:1033D00020301B041343BA691343BB617B6893F825
:1033E0002030012B06D17B685B6A013B5B04BA6924
:1033F0001343BB617B689B6A002B09D07B689B6A87
:1034000003F470727B68DB6A1343BA691343BB61D0
:103410007B681B68DA68454B13407A681268B969A3
:103420000B43D3607B681B681846FFF70EFF3861BB
:103430007B681B681846FFF71BFFF8603B69002B91
:103440003DD1FB68002B3AD17B681B7E9A037B68D9
:1034500093F830305B001343BB617B681B68DB680B
:1034600023F4804323F002037A681268B9690B439E
:10347000D3607B6893F83830012B18D17B681B68C8
:103480001B6923F4FF6323F004037A68D16B7A6825
:10349000126C11437A68526C11437A68926C0A4339
:1034A0001A437B681B6842F001021A6107E07B68DF
:1034B0001B681A697B681B6822F001021A617B682D
:1034C0001B69012B0CD17B681B681B6B23F00F0160
:1034D0007B68DB695A1E7B681B680A431A6307E036
:1034E0007B681B681A6B7B681B6822F00F021A63EB
:1034F0007B685B6D23F0030343F001027B685A6530
:1035000007E07B685B6D43F010027B685A6501231E
:10351000FB77FB7F18462037BD4680BD08000020A2
:10352000632D3E05000004500003045007C0F0FF67
:1035300080B5B6B000AF78603960002387F8D73027
:103540000023FB607B6893F85030012B01D10223EC
:103550009FE37B68012283F850207B681B68184634
:10356000FFF773FE0346002B40F084837B681868E6
:103570003B6859683B681B681A46FFF78AFD7B6801
:103580001B681846FFF761FEC7F8D0007B681B6810
:103590001846FFF76DFEC7F8CC00D7F8D030002BE7
:1035A00040F0A681D7F8CC30002B40F0A1817B6899
:1035B00018683B6819683B689B681A46FFF795FDD9
:1035C0003B685A697B681B68DB68DB0803F0030310
:1035D0005B0002FA03F3C7F8C8303B681B69042B91
:1035E0000AD07B6818683B6819693B681A68D7F885
:1035F000C830FFF7F9FC7BE17B681B6800211846A7
:10360000FFF716FD0346C3F31203002B0AD17B68B4
:103610001B6800211846FFF70BFD03469B0E03F0C5
:103620001F021EE07B681B6800211846FFF700FDA3
:103630000346C7F8BC30D7F8BC3093FAA3F3C7F8F9
:10364000C030D7F8C030C7F8B830D7F8B830002B42
:1036500001D1202304E0D7F8B830B3FA83F3DBB20A
:103660001A463B681B68C3F31203002B05D13B6865
:103670001B689B0E03F01F0318E03B681B68C7F82C
:10368000B030D7F8B03093FAA3F3C7F8AC30D7F81E
:10369000AC30C7F8B430D7F8B430002B01D12023B8
:1036A00004E0D7F8B430B3FA83F3DBB29A4206D120
:1036B0007B681B68002200211846FFF7CFFC7B685F
:1036C0001B6801211846FFF7B3FC0346C3F312033E
:1036D000002B0AD17B681B6801211846FFF7A8FC64
:1036E00003469B0E03F01F021EE07B681B6801214E
:1036F0001846FFF79DFC0346C7F8A430D7F8A4305E
:1037000093FAA3F3C7F8A030D7F8A030C7F8A830D1
:10371000D7F8A830002B01D1202304E0D7F8A83037
:10372000B3FA83F3DBB21A463B681B68C3F3120398
:10373000002B05D13B681B689B0E03F01F0318E0AC
:103740003B681B68C7F89830D7F8983093FAA3F312
:10375000C7F89430D7F89430C7F89C30D7F89C302D
:10376000002B01D1202304E0D7F89C30B3FA83F377
:10377000DBB29A4206D17B681B6800220121184601
:10378000FFF76CFC7B681B6802211846FFF750FCB2
:103790000346C3F31203002B0AD17B681B68022186
:1037A0001846FFF745FC03469B0E03F01F021EE080
:1037B0007B681B6802211846FFF73AFC0346C7F8EE
:1037C0008C30D7F88C3093FAA3F3C7F88830D7F849
:1037D0008830C7F89030D7F89030002B01D12023E3
:1037E00004E0D7F89030B3FA83F3DBB21A463B68B3
:1037F0001B68C3F31203002B05D13B681B689B0EAB
:1038000003F01F0316E03B681B68C7F88030D7F849
:10381000803093FAA3F3FB67FB6FC7F88430D7F8C7
:103820008430002B01D1202304E0D7F88430B3FA90
:1038300083F3DBB29A4206D17B681B680022022127
:103840001846FFF70BFC7B681B6803211846FFF73F
:10385000EFFB0346C3F31203002B0AD17B681B68FE
:1038600003211846FFF7E4FB03469B0E03F01F02FB
:1038700017E07B681B6803211846FFF7D9FB034656
:103880007B677B6F93FAA3F33B673B6FBB67BB6FB1
:10389000002B01D1202303E0BB6FB3FA83F3DBB22B
:1038A0001A463B681B68C3F31203002B05D13B6823
:1038B0001B689B0E03F01F0311E03B681B68BB668F
:1038C000BB6E93FAA3F37B667B6EFB66FB6E002BED
:1038D00001D1202303E0FB6EB3FA83F3DBB29A42FB
:1038E00006D17B681B68002203211846FFF7B6FB50
:1038F0007B681B681846FFF795FC0346002B40F0D9
:10390000C2817B6818683B6819683B68DB681A46A7
:10391000FFF716FC3B68DB688E4A934240F030812B
:103920007B6818683B681B68C3F31203002B0BD13C
:103930003B681B689B0E013303F01F03092B94BFE8
:1039400001230023DBB219E03B681B68FB65FB6DBC
:1039500093FAA3F3BB65BB6D3B663B6E002B01D1B5
:10396000202303E03B6EB3FA83F3DBB2013303F0B1
:103970001F03092B94BF01230023DBB2002B79D056
:103980003B681B68C3F31203002B07D13B681B681D
:103990009B0E01339B0603F0F84215E03B681B6861
:1039A0003B653B6D93FAA3F3FB64FB6C7B657B6D1E
:1039B000002B01D1202303E07B6DB3FA83F3DBB24C
:1039C00001339B0603F0F8423B681B68C3F3120304
:1039D000002B09D13B681B689B0E013303F01F03CA
:1039E000012101FA03F317E03B681B687B647B6CE1
:1039F00093FAA3F33B643B6CBB64BB6C002B01D11B
:103A0000202303E0BB6CB3FA83F3DBB2013303F092
:103A10001F03012101FA03F342EA03013B681B681B
:103A2000C3F31203002B0AD13B681B689B0E0133C2
:103A300003F01F0213465B0013441B0518E03B68AC
:103A40001B68BB63BB6B93FAA3F37B637B6BFB636A
:103A5000FB6B002B01D1202303E0FB6BB3FA83F354
:103A6000DBB2013303F01F0213465B0013441B0556
:103A70000B4380E03B681B68C3F31203002B07D1A4
:103A80003B681B689B0E01339B0603F0F84215E070
:103A90003B681B68FB62FB6A93FAA3F3BB62BB6AD9
:103AA0003B633B6B002B01D1202303E03B6BB3FA5C
:103AB00083F3DBB201339B0603F0F8423B681B68DB
:103AC000C3F31203002B09D13B681B689B0E013323
:103AD00003F01F03012101FA03F317E03B681B68A1
:103AE0003B623B6A93FAA3F3FB61FB697B627B6AEF
:103AF000002B01D1202303E07B6AB3FA83F3DBB20E
:103B0000013303F01F03012101FA03F342EA030129
:103B10003B681B68C3F31203002B0DD13B681B6885
:103B20009B0E013303F01F0213465B0013441E3B40
:103B30001B0543F000731DE03B681B687B617B69DC
:103B400093FAA3F33B613B69BB61BB69002B03D1D3
:103B5000202305E000007F40BB69B3FA83F3DBB2AA
:103B6000013303F01F0213465B0013441E3B1B0589
:103B700043F000730B433A6892681946FFF7B5FAB1
:103B80003B681A68454B1340002B7CD04448FFF734
:103B90001DFAC7F8C4004348FFF744FB0346002B57
:103BA0005ED13B681B68404A934227D1D7F8C430A6
:103BB00003F40003002B21D17B681B68394A934230
:103BC00061D1D7F8C43043F4000319463448FFF7F5
:103BD000EAF9364B1B689B09354AA2FB03239B0974
:103BE0005A1C13465B0013449B00FB6002E0FB6819
:103BF000013BFB60FB68002BF9D144E03B681B688C
:103C00002C4A934213D1D7F8C43003F08073002BB1
:103C10000DD17B681B68234A934234D1D7F8C43056
:103C200043F0807319461E48FFF7BDF92BE03B684F
:103C30001B68214A934226D1D7F8C43003F480038D
:103C4000002B20D17B681B68164A93421BD1D7F802
:103C5000C43043F4800319461148FFF7A4F912E079
:103C60007B685B6D43F020027B685A65012387F80F
:103C7000D73008E07B685B6D43F020027B685A65B3
:103C8000012387F8D7307B68002283F8502097F80B
:103C9000D7301846D837BD4680BD00BF0000088029
:103CA0000003045000000450000052C70800002028
:103CB000632D3E05000084CB0100008080B485B0F8
:103CC00000AF78607B6803F00703FB600C4BDB6898
:103CD000BB60BA684FF6FF031340BB60FB681A0273
:103CE000BB68134343F0BF6343F40033BB60044A33
:103CF000BB68D36000BF1437BD465DF8047B7047D6
:103D000000ED00E080B400AF044BDB681B0A03F059
:103D100007031846BD465DF8047B704700ED00E0E0
:103D200080B483B000AF0346FB7197F90730002BD6
:103D30000BDBFB7903F01F02074997F907305B099A
:103D4000012000FA02F241F8232000BF0C37BD46E3
:103D50005DF8047B704700BF00E100E080B483B0F1
:103D600000AF0346FB7197F90730002B12DBFB799C
:103D700003F01F020A4997F907305B09012000FA96
:103D800002F2203341F82320BFF34F8F00BFBFF36F
:103D90006F8F00BF00BF0C37BD465DF8047B7047D6
:103DA00000E100E080B483B000AF0346FB7197F9F7
:103DB0000730002B0CDBFB7903F01F02074997F952
:103DC00007305B09012000FA02F2403341F823205A
:103DD00000BF0C37BD465DF8047B704700E100E092
:103DE00080B483B000AF0346FB7197F90730002B16
:103DF0000CDBFB7903F01F02074997F907305B09D9
:103E0000012000FA02F2603341F8232000BF0C3792
:103E1000BD465DF8047B704700E100E080B483B0EC
:103E200000AF03463960FB7197F90730002B0ADBBE
:103E30003B68DAB20C4997F907301201D2B20B4451
:103E400083F800230AE03B68DAB20849FB7903F003
:103E50000F03043B1201D2B20B441A7600BF0C3799
:103E6000BD465DF8047B704700E100E000ED00E036
:103E700080B489B000AFF860B9607A60FB6803F085
:103E80000703FB61FB69C3F10703042B28BF04236D
:103E9000BB61FB690433062B02D9FB69033B00E0DD
:103EA00000237B614FF0FF32BB6902FA03F3DA4370
:103EB000BB681A407B699A404FF0FF317B6901FA79
:103EC00003F3D9437B680B40134318462437BD46A0
:103ED0005DF8047B7047000080B582B000AF786069
:103EE0007B68013BB3F1807F01D301230FE00A4AD5
:103EF0007B68013B53600F214FF0FF30FFF78EFFCF
:103F0000054B00229A60044B07221A6000231846D2
:103F10000837BD4680BD00BF10E000E080B582B02C
:103F200000AF78607868FFF7C9FE00BF0837BD466C
:103F300080BD80B586B000AF0346B9607A60FB7380
:103F4000FFF7E0FE78617A68B9687869FFF790FF5B
:103F5000024697F90F3011461846FFF75FFF00BF82
:103F60001837BD4680BD80B582B000AF0346FB71F7
:103F700097F907301846FFF7D3FE00BF0837BD4654
:103F800080BD80B582B000AF0346FB7197F9073062
:103F90001846FFF7E3FE00BF0837BD4680BD80B579
:103FA00082B000AF78607868FFF796FF0346184646
:103FB0000837BD4680BD80B582B000AF0346FB71B7
:103FC00097F907301846FFF7EDFE00BF0837BD46EA
:103FD00080BD80B582B000AF0346FB7197F9073012
:103FE0001846FFF7FDFE00BF0837BD4680BD000044
:103FF00080B487B000AF7860396000237B614CE10A
:104000003B681A6801217B6901FA03F31340FB60E6
:10401000FB68002B00F03E813B685B6803F0030304
:10402000012B05D03B685B6803F00303022B30D102
:104030007B689B683B617B695B00032202FA03F3A8
:10404000DB433A6913403B613B68DA687B695B009C
:1040500002FA03F33A6913433B617B683A699A6059
:104060007B685B683B6101227B6902FA03F3DB43F7
:104070003A6913403B613B685B681B0903F001022E
:104080007B6902FA03F33A6913433B617B683A693F
:104090005A603B685B6803F00303032B17D07B680F
:1040A000DB683B617B695B00032202FA03F3DB43BD
:1040B0003A6913403B613B689A687B695B0002FA8E
:1040C00003F33A6913433B617B683A69DA603B6802
:1040D0005B6803F00303022B23D17B69DA087B685A
:1040E000083253F822303B617B6903F007039B00E1
:1040F0000F2202FA03F3DB433A6913403B613B684A
:104100001A697B6903F007039B0002FA03F33A691B
:1041100013433B617B69DA087B680832396943F8ED
:1041200022107B681B683B617B695B00032202FAFB
:1041300003F3DB433A6913403B613B685B6803F080
:1041400003027B695B0002FA03F33A6913433B61A4
:104150007B683A691A603B685B6803F44033002B64
:1041600000F09880544A7B699B08023352F8233050
:104170003B617B6903F003039B000F2202FA03F308
:10418000DB433A6913403B617B68B3F1904F19D030
:104190007B684A4A934213D07B68494A93420DD0C8
:1041A0007B68484A934207D07B68474A934201D1D3
:1041B000042308E0072306E0032304E0022302E0CF
:1041C000012300E000237A6902F003029200934089
:1041D0003A6913433B6138497B699B0802333A696A
:1041E00041F82320394B1B683B61FB68DB433A698C
:1041F00013403B613B685B6803F48013002B03D0E2
:104200003A69FB6813433B61304A3B6913602F4BAB
:104210005B683B61FB68DB433A6913403B613B6889
:104220005B6803F40013002B03D03A69FB68134367
:104230003B61264A3B695360244BD3F880303B6195
:10424000FB68DB433A6913403B613B685B6803F4FE
:104250008033002B03D03A69FB6813433B611B4A50
:104260003B69C2F88030194BD3F884303B61FB685E
:10427000DB433A6913403B613B685B6803F40033FE
:10428000002B03D03A69FB6813433B610F4A3B693B
:10429000C2F884307B6901337B613B681A687B69B3
:1042A00022FA03F3002B7FF4ABAE00BF00BF1C3734
:1042B000BD465DF8047B70470000014000040048E3
:1042C00000080048000C0048001000480008005892
:1042D00080B487B000AF7860396000237B61BBE0B9
:1042E00001227B6902FA03F33A6813403B613B69A0
:1042F000002B00F0AE805F4A7B699B08023352F8C6
:104300002330FB607B6903F003039B000F2202FA5A
:1043100003F3FA681340FB607B68B3F1904F19D048
:104320007B68554A934213D07B68544A93420DD020
:104330007B68534A934207D07B68524A934201D12B
:10434000042308E0072306E0032304E0022302E03D
:10435000012300E000237A6902F0030292009340F7
:10436000FA689A4236D1484BD3F880203B69DB4348
:1043700045491340C1F88030434BD3F884203B6952
:10438000DB4341491340C1F884303F4B1A683B6915
:10439000DB433D4913400B603B4B5A683B69DB43B1
:1043A000394913404B607B6903F003039B000F22E4
:1043B00002FA03F3FB602F4A7B699B08023352F831
:1043C0002310FB68DA432B487B699B080A400233C1
:1043D00040F823207B681A687B695B00032101FA9F
:1043E00003F31A437B681A607B69DA087B6808323A
:1043F00053F822107B6903F007039B000F2202FA97
:1044000003F3DB437A69D20819407B68083243F82A
:1044100022107B68DA687B695B00032101FA03F3F1
:10442000DB431A407B68DA607B685A6801217B694C
:1044300001FA03F3DB431A407B685A607B689A6891
:104440007B695B00032101FA03F3DB431A407B68BD
:104450009A607B6901337B613A687B6922FA03F3D6
:10446000002B7FF43DAF00BF00BF1C37BD465DF899
:10447000047B704700000140000400480008004829
:10448000000C0048001000480008005880B485B0B7
:1044900000AF78600B467B807B681A697B8813408D
:1044A000002B02D00123FB7301E00023FB73FB7B95
:1044B00018461437BD465DF8047B704780B483B05E
:1044C00000AF78600B467B8013467B707B78002BB7
:1044D00003D07A887B689A6102E07A887B689A6266
:1044E00000BF0C37BD465DF8047B704780B582B0D5
:1044F00000AF0346FB80084BDA68FB881340002BB3
:1045000006D0054AFB88D360FB88184600F006F801
:1045100000BF0837BD4680BD0008005880B483B096
:1045200000AF0346FB8000BF0C37BD465DF8047B3F
:104530007047000080B582B000AF0A4BDB687B603B
:10454000084B1A687B68DB43064913400B60054A39
:104550007B685360786800F007F800BF0837BD46F5
:1045600080BD00BF0015005880B483B000AF7860F4
:1045700000BF0C37BD465DF8047B704780B582B044
:1045800000AF78607B68002B01D101238DE07B6850
:1045900093F84130DBB2002B06D17B68002283F810
:1045A00040207868FDF706FD7B68242283F84120CF
:1045B0007B681B681A687B681B6822F001021A601E
:1045C0007B685A687B681B6822F070621A617B689E
:1045D0001B689A687B681B6822F400429A607B68BB
:1045E000DB68012B07D17B689A687B681B6842F403
:1045F00000429A6006E07B689A687B681B6842F418
:1046000004429A607B68DB68022B08D17B681B68D8
:104610005A687B681B6842F400625A6007E07B6856
:104620001B685A687B681B6822F400625A607B68CA
:104630001B685B687A68126843F0007343F40043B8
:1046400053607B681B68DA687B681B6822F4004251
:10465000DA607B681A697B685B6942EA03017B6800
:104660009B691A027B681B680A43DA607B68D96918
:104670007B681A6A7B681B680A431A607B681B6840
:104680001A687B681B6842F001021A607B6800228E
:104690005A647B68202283F841207B6800221A63D9
:1046A0007B68002283F84220002318460837BD4665
:1046B00080BD80B483B000AF786039607B6893F8C8
:1046C0004130DBB2202B38D17B6893F84030012B8E
:1046D00001D1022332E07B68012283F840207B680D
:1046E000242283F841207B681B681A687B681B685A
:1046F00022F001021A607B681B681A687B681B68DD
:1047000022F480521A607B681B6819687B681B68FA
:104710003A680A431A607B681B681A687B681B68E2
:1047200042F001021A607B68202283F841207B68F6
:10473000002283F84020002300E0022318460C37B3
:10474000BD465DF8047B704780B485B000AF7860EB
:1047500039607B6893F84130DBB2202B39D17B681C
:1047600093F84030012B01D1022333E07B68012212
:1047700083F840207B68242283F841207B681B68F3
:104780001A687B681B6822F001021A607B681B684C
:104790001B68FB60FB6823F47063FB603B681B02D3
:1047A000FA681343FB607B681B68FA681A607B68D1
:1047B0001B681A687B681B6842F001021A607B68FC
:1047C000202283F841207B68002283F840200023C8
:1047D00000E0022318461437BD465DF8047B70479D
:1047E00080B584B000AF78600023FB737B68002B3A
:1047F0001ED0134BBB607B6893F83830DBB2002BC4
:1048000002D17868FDF75CFCB86800F05BF8BB6823
:104810001B6843F00112BB681A60786800F02CF83E
:104820007B6800225A637B68012283F8382001E00C
:104830000123FB73FB7B18461037BD4680BD00BFCC
:10484000000C005880B485B000AFF860B960134622
:10485000FB7100BF1437BD465DF8047B704780B420
:1048600085B000AFF860B9601346FB7100BF143724
:10487000BD465DF8047B704780B485B000AF7860BA
:104880000023FB600FE07A68FB689B0013440B4A2F
:104890005A607A68FB6806339B001344084A5A60E2
:1048A000FB680133FB60FB68052BECD900BF00BF40
:1048B0001437BD465DF8047B704700BF45480008CB
:1048C0005F48000880B483B000AF78607B68002246
:1048D0001A607B684FF03F125A607B683F229A60F3
:1048E00000BF0C37BD465DF8047B704780B483B0D1
:1048F00000AF78604FF0B0439A6B4FF0B0417B68E7
:1049000013438B6300BF0C37BD465DF8047B7047D3
:1049100080B483B000AF78604FF0B043DA6B4FF0F3
:10492000B0417B681343CB6300BF0C37BD465DF8D5
:10493000047B704780B483B000AF78604FF0B04321
:104940009A6B7B68DB434FF0B04113408B6300BF31
:104950000C37BD465DF8047B704780B483B000AF70
:1049600078604FF0B043DA6B7B68DB434FF0B041C7
:104970001340CB6300BF0C37BD465DF8047B704726
:1049800080B584B000AF78607B68002B01D1012333
:104990008FE07B685B68012B7B6893F83630DBB275
:1049A000002B06D17B68002283F835207868FDF75C
:1049B00075FC7B68022283F836207B681B68DB6805
:1049C000FB607B685B68012B04D07B689B6AB3F556
:1049D000000F03D1FB6823F01E03FB607B685B695B
:1049E0004FF6FF72934205D0FB6823F4604323F037
:1049F000C003FB60FA68314B1340FB607B685A6868
:104A00007B689B681A437B681B6A1A437B685B6AF6
:104A10001A437B689B6A1343FA681343FB607B6805
:104A20005B68002B07D17B68DA697B681B691343DD
:104A3000FA681343FB607B685B68012B04D07B68DA
:104A40009B6AB3F5000F07D17B68DA687B681B6946
:104A50001343FA681343FB607B685B694FF6FF7290
:104A600093420AD07B685A697B689B691A437B68CA
:104A7000DB691343FA681343FB607B681B68FA68C1
:104A8000DA607B681B680E4A934208D17B68D96A5A
:104A90007B681A6B7B681B680A431A6204E07B68B8
:104AA0001B687A68D26A1A627B68012283F8362012
:104AB000002318461037BD4680BD00BFFEF119FF28
:104AC000007C004080B582B000AF78607B68002B2E
:104AD00001D101231AE07B68022283F8362078682E
:104AE00000F0A0F9786800F05FF90346032B01D1CC
:104AF00003230BE07868FDF739FC7B68002283F81C
:104B000036207B68002283F83520002318460837BA
:104B1000BD4680BD80B584B000AFF860B9607A60F2
:104B2000FB68022283F83620FB681B68DA68FB68A2
:104B30001B6822F48012DA60FB681B681A69FB6844
:104B40001B6842F001021A61FB681B6810225A6060
:104B5000FB681B68BA689A611021F86800F032F9A6
:104B60000346032B01D103231DE0FB681B680822C9
:104B70005A60FB681B687A685A610821F86800F07F
:104B800021F90346032B01D103230CE0FB681B68CA
:104B90001A69FB681B6842F004021A61FB68012273
:104BA00083F83620002318461037BD4680BD80B5F7
:104BB00082B000AF78607B68022283F83620786884
:104BC00000F030F9786800F0EFF80346032B01D1CC
:104BD000032304E07B68012283F836200023184673
:104BE0000837BD4680BD80B582B000AF78607B6875
:104BF0001B681B6803F00103012B0DD17B681B6848
:104C00009B6803F00103012B06D17B681B6801221E
:104C10005A60786800F082F87B681B681B6803F0B4
:104C20000203022B0DD17B681B689B6803F0020313
:104C3000022B06D17B681B6802225A60786800F05C
:104C400077F87B681B681B6803F00403042B0DD105
:104C50007B681B689B6803F00403042B06D17B6808
:104C60001B6804225A60786800F06CF87B681B6847
:104C70001B6803F00803082B0DD17B681B689B6839
:104C800003F00803082B06D17B681B6808225A60D2
:104C9000786800F061F87B681B681B6803F01003FC
:104CA000102B0DD17B681B689B6803F01003102B41
:104CB00006D17B681B6810225A60786800F056F8AD
:104CC0007B681B681B6803F02003202B0DD17B68D9
:104CD0001B689B6803F02003202B06D17B681B68B0
:104CE00020225A60786800F04BF87B681B681B68CC
:104CF00003F04003402B0DD17B681B689B6803F0D9
:104D00004003402B06D17B681B6840225A607868BC
:104D100000F040F800BF0837BD4680BD80B483B0C6
:104D200000AF786000BF0C37BD465DF8047B70476C
:104D300080B483B000AF786000BF0C37BD465DF82B
:104D4000047B704780B483B000AF786000BF0C373D
:104D5000BD465DF8047B704780B483B000AF7860D7
:104D600000BF0C37BD465DF8047B704780B483B04C
:104D700000AF786000BF0C37BD465DF8047B70471C
:104D800080B483B000AF786000BF0C37BD465DF8DB
:104D9000047B704780B483B000AF786000BF0C37ED
:104DA000BD465DF8047B704780B483B000AF786087
:104DB0007B6893F83630DBB218460C37BD465DF899
:104DC000047B704780B485B000AF78603960002301
:104DD000FB73124B1B68124AA2FB03239B0B4FF47D
:104DE0007A7202FB03F3BB60BB68013BBB60BB682C
:104DF000002B01D10323FB737B681B681A683B6897
:104E000013403A689A4202D0BB68002BECD1FB7B7E
:104E100018461437BD465DF8047B70470800002033
:104E20005917B7D180B58CB000AF7860EFF310831D
:104E30003B613B69FB6201237B617B6983F31088E3
:104E400000BF7B681B689B68BB627B681B68DB6874
:104E50007B627B681B685B693B627B681B689B6944
:104E6000FB617B681B681B6ABB617B681B683B4AF4
:104E7000934203D03A4A934209D00FE04FF00040EA
:104E8000FFF734FD4FF00040FFF754FD06E020200F
:104E9000FFF73EFD2020FFF760FD00BF3B6A002BBF
:104EA00002D1FB69002B3BD03B6A002B1AD07B68F8
:104EB0001B681A697B681B6842F001021A617B68F3
:104EC0001B683A6A5A6108217868FFF77BFF03463E
:104ED000032B03D17B68032283F836207B681B6891
:104EE00008225A60FB69002B1AD07B681B681A697C
:104EF0007B681B6842F001021A617B681B68FA69D3
:104F00009A6110217868FFF75DFF0346032B03D1F8
:104F10007B68032283F836207B681B6810225A6066
:104F20007B681B681A697B681B6822F001021A61A2
:104F30007B681B68BA6A9A607B681B687A6ADA6069
:104F40007B681B68BA691A62FB6AFB60FB6883F3C3
:104F5000108800BF00BF3037BD4680BD007C0040D8
:104F60000094004080B584B000AF78607B68002B6F
:104F700001D10123C0E07B6893F89132DBB2002BB2
:104F800006D17B68002283F8902278680DF0F6FD48
:104F90007B68032283F891227B681B68184605F022
:104FA00036F90023FB733EE0FA7B796813469B00D9
:104FB0001344DB000B44113301221A70FA7B796829
:104FC00013469B001344DB000B441033FA7B1A702A
:104FD000FA7B796813469B001344DB000B441333C0
:104FE00000221A70FA7B796813469B001344DB0099
:104FF0000B44203300221A60FA7B796813469B0029
:105000001344DB000B44243300221A60FB7B7968D5
:105010005A1C13469B001344DB000B4400221A6009
:10502000FB7B0133FB737B681B79FA7B9A42BBD312
:105030000023FB7344E0FA7B796813469B0013441A
:10504000DB000B4403F2511300221A70FA7B7968DB
:1050500013469B001344DB000B4403F5A873FA7B53
:105060001A70FA7B796813469B001344DB000B44EB
:1050700003F2531300221A70FA7B796813469B00DF
:105080001344DB000B4403F5B07300221A60FA7B73
:10509000796813469B001344DB000B4403F5B2739D
:1050A00000221A60FA7B796813469B001344DB00E8
:1050B0000B4403F5B47300221A60FB7B0133FB73CE
:1050C0007B681B79FA7B9A42B5D37B6818687B684A
:1050D000043393E8060005F0B5F87B6800221A73E4
:1050E0007B68012283F891227B689B7A012B02D195
:1050F000786801F07CFC002318461037BD4680BD5F
:1051000080B582B000AF78607B6893F89032012B55
:1051100001D1022312E07B68012283F890227B6890
:105120001B68184605F05CF87B681B68184606F09B
:1051300051FE7B68002283F890220023184608372E
:10514000BD4680BD80B584B000AF78607B681B68C9
:10515000184606F056FEF860FB6803F40043002B87
:1051600003D0786800F033FB10E1FB6803F4806340
:10517000002B13D07B681B68B3F844309AB27B686D
:105180001B6822F4806292B2A3F8442078680DF084
:1051900098FD0021786800F0FCF8F7E0FB6803F464
:1051A0008043002B0CD07B681B68B3F844309AB264
:1051B0007B681B6822F4804292B2A3F84420E5E0A9
:1051C000FB6803F40053002B0CD07B681B68B3F81A
:1051D00044309AB27B681B6822F4005292B2A3F862
:1051E0004420D3E0FB6803F48053002B34D07B6869
:1051F0001B68B3F840309AB27B681B6822F0040247
:1052000092B2A3F840207B681B68B3F840309AB292
:105210007B681B6822F0080292B2A3F840207B68EA
:1052200093F8C832012B07D17B68002283F8C8228B
:10523000002178680DF050FF78680DF07BFD7B68E9
:105240001B68B3F844309AB27B681B6822F4805222
:1052500092B2A3F8442099E0FB6803F40063002BAA
:1052600027D07B681B68B3F840309AB27B681B6814
:1052700042F0080292B2A3F840207B681B68B3F8A2
:1052800044309AB27B681B6822F4006292B2A3F8A1
:1052900044207B681B68B3F840309AB27B681B6877
:1052A00042F0040292B2A3F8402078680DF028FD85
:1052B0006CE0FB6803F08003002B40D07B681B6828
:1052C000B3F844309AB27B681B6822F0800292B235
:1052D000A3F844207B6893F8C832002B2BD17B685D
:1052E0001B68B3F840309AB27B681B6842F0040236
:1052F00092B2A3F840207B681B68B3F840309AB2A2
:105300007B681B6842F0080292B2A3F840207B68D9
:10531000012283F8C8227B681B68B3F854309BB223
:105320009B0803F03C027B68C3F8CC22012178681B
:105330000DF0D2FE2AE078680DF0E2FC26E0FB6872
:1053400003F40073002B0FD07B681B68B3F8443064
:105350009AB27B681B6822F4007292B2A3F84420D0
:1053600078680DF0A0FC11E0FB6803F48073002B5B
:105370000CD07B681B68B3F844309AB27B681B681A
:1053800022F4807292B2A3F8442000BF1037BD46C9
:1053900080BD80B582B000AF78600B46FB707B6843
:1053A00093F89032012B01D1022312E07B68012295
:1053B00083F890227B68FA781A737B681B68FA7806
:1053C0001146184606F0F2FC7B68002283F8902212
:1053D000002318460837BD4680BD80B584B000AFB5
:1053E0007860084611461A460346FB700B463B8020
:1053F0001346BB700023FB7297F90330002B0EDAC3
:10540000FB7803F0070213469B001344DB001033C4
:105410007A681344FB60FB6801225A700EE0FB7847
:1054200003F0070213469B001344DB0003F5A87347
:105430007A681344FB60FB6800225A70FB7803F023
:105440000703DAB2FB681A703B88C3F30A02FB68F1
:105450001A61FB68BA78DA70BB78022B02D1FB685C
:1054600000221A717B6893F89032012B01D102233C
:105470000EE07B68012283F890227B681B68F96844
:10548000184604F015FF7B68002283F89022FB7A0F
:1054900018461037BD4680BD80B584B000AF786037
:1054A0000B46FB7097F90330002B0EDAFB7803F004
:1054B000070213469B001344DB0010337A68134441
:1054C000FB60FB6801225A700EE0FB7803F00702D4
:1054D00013469B001344DB0003F5A8737A6813445A
:1054E000FB60FB6800225A70FB7803F00703DAB216
:1054F000FB681A707B6893F89032012B01D102236C
:105500000EE07B68012283F890227B681B68F968B3
:10551000184605F0B5FB7B68002283F89022002333
:1055200018461037BD4680BD80B586B000AFF86024
:105530007A603B600B46FB72FB7A03F0070213466E
:105540009B001344DB0003F5A873FA6813447B61E6
:105550007B697A685A617B693A689A617B69002243
:10556000DA617B6900225A70FB7A03F00703DAB232
:105570007B691A70FB681B687969184605F06DFD38
:10558000002318461837BD4680BD80B483B000AFF5
:1055900078600B46FB70FB7803F0070279681346CE
:1055A0009B001344DB000B4403F5B6731B681846DD
:1055B0000C37BD465DF8047B704780B586B000AF00
:1055C000F8607A603B600B46FB72FB7A03F00702DF
:1055D00013469B001344DB001033FA6813447B61CD
:1055E0007B697A685A617B693A689A617B690122B2
:1055F00083F824207B693A681A627B690022DA61A9
:105600007B6901225A70FB7A03F00703DAB27B69E7
:105610001A70FB681B687969184605F01EFD0023A7
:1056200018461837BD4680BD80B584B000AF78609D
:105630000B46FB70FB7803F007037A6812799342FC
:1056400001D901233EE097F90330002B0EDAFB78F5
:1056500003F0070213469B001344DB0010337A6803
:105660001344FB60FB6801225A700CE0FA78134681
:105670009B001344DB0003F5A8737A681344FB60B6
:10568000FB6800225A70FB6801229A70FB7803F0D5
:105690000703DAB2FB681A707B6893F89032012B2B
:1056A00001D102230EE07B68012283F890227B68FF
:1056B0001B68F968184606F07FFA7B68002283F8B9
:1056C0009022002318461037BD4680BD80B584B0B7
:1056D00000AF78600B46FB70FB7803F00F037A682D
:1056E0001279934201D9012340E097F90330002B4E
:1056F0000EDAFB7803F0070213469B001344DB002D
:1057000010337A681344FB60FB6801225A700EE084
:10571000FB7803F0070213469B001344DB0003F5FC
:10572000A8737A681344FB60FB6800225A70FB6818
:1057300000229A70FB7803F00703DAB2FB681A7054
:105740007B6893F89032012B01D102230EE07B6835
:10575000012283F890227B681B68F968184606F0DE
:105760007CFA7B68002283F89022002318461037C9
:10577000BD4680BD80B582B000AF78600B46FB703F
:105780007B6893F89032012B01D102231BE07B68E8
:10579000012283F8902297F90330002B09DA7B6805
:1057A0001A68FB7803F007031946104604F068FDF9
:1057B00004E07B681B68184604F06EFD7B680022DD
:1057C00083F89022002318460837BD4680BD80B577
:1057D00094B000AF786074E37B681B68B3F8443022
:1057E000A7F84230B7F84230DBB203F00F0387F876
:1057F000413097F84130002B40F04381B7F84230F8
:1058000003F01003002B4CD17B681B681B889BB2F4
:1058100023F4E14323F070037B817B681A687B8962
:105820006FEA43436FEA53439BB213807B681033A4
:10583000BB647B681B68B3F850309BB21A46BB6CE4
:105840001B78DB0013447A681268134403F20243A6
:105850001B88C3F30902BB6CDA61BB6C5A69BB6C71
:10586000DB691A44BB6C5A61002178680DF001FABB
:105870007B681B7BDBB2002B00F02383BB6C9B6936
:10588000002B40F01E837B681B7BDBB263F07F0341
:10589000DAB27B681B68A3F84C207B6800221A737D
:1058A0000FE37B6803F5A873BB647B681B681B88E8
:1058B000FB87FB8F03F40063002B7BD07B681B68A6
:1058C000B3F850309BB21A46BB6C1B78DB00134414
:1058D0007A681268134403F206431B88C3F3090273
:1058E000BB6CDA61BB6CDB69082B44D07B681B683E
:1058F0001B889BB223F4804323F070033B823B8AD6
:1059000083F480533B827B681A683B8A43F07F4371
:1059100043F47F0343F4004343F080039BB21380BE
:105920007B681B681B889BB223F4E04323F0400391
:10593000FB81FB8983F01003FB817B681A68FB897C
:1059400043F07F4343F47F0343F4004343F0800379
:105950009BB213807B681B681B889AB240F68F73DA
:105960001340BB817B681B68BA8942F0800292B207
:105970001A800023AFE27B6818687B6803F5267104
:10598000BB6CDA88BB6CDB699BB206F08DFA7B6876
:105990001B681B889AB240F68F7313407B827B682A
:1059A0001B687A8A42F0800292B21A8078680DF001
:1059B00033F986E2B7F93E30002B80F282827B68B1
:1059C0001B681B889AB240F68F731340FB827B687A
:1059D0001B68FA8A42F0800292B21A807B681B68C8
:1059E000B3F850309BB21A46BB6C1B78DB001344F3
:1059F0007A681268134403F206431B88C3F3090252
:105A0000BB6CDA61BB6CDB69002B1ED17B681B6849
:105A10001B889BB223F4804323F07003BB82BB8AB4
:105A200083F48053BB82BB8A83F40053BB827B68C0
:105A30001A68BB8A43F07F4343F47F0343F4004377
:105A400043F080039BB213803BE2BB6C5B69002B8D
:105A500000F037827B681868BB6C5969BB6CDA88C8
:105A6000BB6CDB699BB206F01FFABB6C5A69BB6C5E
:105A7000DB691A44BB6C5A61002178680DF0DEF8CE
:105A80001FE27B681B681A4697F841309B0013445D
:105A90001B88FB87B7F93E30002B80F2F5807B68CE
:105AA0001B681A4697F841309B0013441B889AB232
:105AB00040F68F731340A7F846307B681B681A4680
:105AC00097F841309B001344B7F8462042F080021B
:105AD00092B21A8097F8412013469B001344DB00D2
