:020000040800F2
:10000000000003206D310008252E00082D2E000869
:10001000352E00083D2E0008452E00080000000087
:100020000000000000000000000000004D2E00084D
:100030005B2E000800000000692E0008772E0008E3
:10004000C5310008C5310008C5310008832E0008FD
:10005000C53100088F2E00089D2E0008C53100080C
:10006000AB2E0008C5310008B92E0008C5310008C4
:10007000C5310008C5310008C5310008C531000888
:10008000C5310008C5310008C5310008C531000878
:10009000C92E0008C5310008C5310008C531000867
:1000A000C5310008C5310008C5310008C531000858
:1000B000C5310008C5310008C5310008C531000848
:1000C000C5310008C5310008C5310008C531000838
:1000D000C5310008C5310008DD2E0008C531000813
:1000E000C5310008C5310008C5310008C531000818
:1000F000EB2E0008F72E0008032F0008C53100087A
:10010000112F0008C5310008C5310008C5310008AD
:10011000C5310008C5310008C5310008C5310008E7
:10012000C5310008C5310008C5310008C5310008D7
:0C013000C5310008C5310008C5310008C9
:1001400010B5054C237833B9044B13B10448AFF311
:1001500000800123237010BD5C030020000000001C
:10016000A8BC010808B5034B1BB103490348AFF312
:10017000008008BD0000000060030020A8BC01084A
:1001800001F0FF01102A2BDB10F0070F08D010F848
:10019000013B013A8B422DD010F0070F42B3F6D14C
:1001A000F0B441EA012141EA014122F007047FF065
:1001B00000070023F0E80256083C85EA010586EABC
:1001C000010685FA47F5A3FA87F586FA47F6A5FAF8
:1001D00087F68EB9EED1F0BC01F0FF0102F0070204
:1001E00032B110F8013B013A83EA010313B1F8D1AF
:1001F0000020704701387047002D06BF3546033890
:10020000073815F0010F07D1013015F4807F02BFC8
:10021000013015F4C03F0130F0BC0138704700BF19
:10022000034613F8012B002AFBD1181A0138704736
:1002300081F0004102E000BF83F0004330B54FEA97
:1002400041044FEA430594EA050F08BF90EA020F04
:100250001FBF54EA000C55EA020C7FEA645C7FEA97
:10026000655C00F0E2804FEA5454D4EB5555B8BFBA
:100270006D420CDD2C4480EA020281EA030382EA2B
:10028000000083EA010180EA020281EA0303362DBD
:1002900088BF30BD11F0004F4FEA01314FF4801C90
:1002A0004CEA113102D0404261EB410113F0004FA2
:1002B0004FEA03334CEA133302D0524263EB430359
:1002C00094EA050F00F0A780A4F10104D5F1200EF7
:1002D0000DDB02FA0EFC22FA05F2801841F1000152
:1002E00003FA0EF2801843FA05F359410EE0A5F126
:1002F00020050EF1200E012A03FA0EFC28BF4CF057
:10030000020C43FA05F3C01851EBE37101F000450C
:1003100007D54FF0000EDCF1000C7EEB00006EEB19
:100320000101B1F5801F1BD3B1F5001F0CD34908A3
:100330005FEA30004FEA3C0C04F101044FEA4452FA
:1003400012F5800F80F09A80BCF1004F08BF5FEA81
:10035000500C50F1000041EB045141EA050130BD61
:100360005FEA4C0C404141EB0101013C28BFB1F573
:10037000801FE9D291F0000F04BF01460020B1FABE
:1003800081F308BF2033A3F10B03B3F120020CDA91
:100390000C3208DD02F1140CC2F10C0201FA0CF06F
:1003A00021FA02F10CE002F11402D8BFC2F1200CD4
:1003B00001FA02F120FA0CFCDCBF41EA0C0190408A
:1003C000E41AA2BF01EB0451294330BD6FEA0404D3
:1003D0001F3C1CDA0C340EDC04F11404C4F12002BE
:1003E00020FA04F001FA02F340EA030021FA04F3D0
:1003F00045EA030130BDC4F10C04C4F1200220FA27
:1004000002F001FA04F340EA0300294630BD21FA64
:1004100004F0294630BD94F0000F83F4801306BF2A
:1004200081F480110134013D4EE77FEA645C18BF1E
:100430007FEA655C29D094EA050F08BF90EA020FB5
:1004400005D054EA000C04BF1946104630BD91EAAD
:10045000030F1EBF0021002030BD5FEA545C05D1B0
:100460004000494128BF41F0004130BD14F58004EF
:100470003CBF01F5801130BD01F0004545F0FE4163
:1004800041F470014FF0000030BD7FEA645C1ABF98
:10049000194610467FEA655C1CBF0B46024650EACF
:1004A000013406BF52EA033591EA030F41F40021FB
:1004B00030BD00BF90F0000F04BF0021704730B581
:1004C0004FF4806404F132044FF000054FF0000156
:1004D00050E700BF90F0000F04BF0021704730B517
:1004E0004FF4806404F1320410F0004548BF4042EC
:1004F0004FF000013EE700BF42004FEAE2014FEA41
:1005000031014FEA02701FBF12F07F4393F07F4F1B
:1005100081F06051704732F07F4208BF704793F01E
:100520007F4F04BF41F40021704730B54FF4607431
:1005300001F0004521F000411CE700BF50EA010234
:1005400008BF704730B54FF000050AE050EA0102DD
:1005500008BF704730B511F0004502D5404261EB4D
:1005600041014FF4806404F132045FEA915C3FF48E
:10057000D8AE4FF003025FEADC0C18BF03325FEA2B
:10058000DC0C18BF033202EBDC02C2F1200300FADC
:1005900003FC20FA02F001FA03FE40EA0E0021FA01
:1005A00002F11444BDE600BF70B54FF0FF0C4CF4EF
:1005B000E06C1CEA11541DBF1CEA135594EA0C0FA1
:1005C00095EA0C0F00F0DEF82C4481EA030621EADC
:1005D0004C5123EA4C5350EA013518BF52EA033517
:1005E00041F4801143F4801338D0A0FB02CE4FF0C9
:1005F0000005E1FB02E506F00042E0FB03E54FF0F9
:100600000006E1FB03569CF0000F18BF4EF0010EF0
:10061000A4F1FF04B6F5007F64F5407404D25FEAEC
:100620004E0E6D4146EB060642EAC62141EA55519F
:100630004FEAC52040EA5E504FEACE2EB4F1FD0CE1
:1006400088BFBCF5E06F1ED8BEF1004F08BF5FEA5F
:10065000500E50F1000041EB045170BD06F0004611
:1006600046EA010140EA020081EA0301B4EB5C04BE
:10067000C2BFD4EB0C0541EA045170BD41F48011B6
:100680004FF0000E013C00F3AB8014F1360FDEBFDB
:10069000002001F0004170BDC4F10004203C35DAB7
:1006A0000C341BDC04F11404C4F1200500FA05F33A
:1006B00020FA04F001FA05F240EA020001F00042DB
:1006C00021F0004110EBD37021FA04F642EB060151
:1006D0005EEA430E08BF20EAD37070BDC4F10C047B
:1006E000C4F1200500FA04F320FA05F001FA04F23F
:1006F00040EA020001F0004110EBD37041F100012B
:100700005EEA430E08BF20EAD37070BDC4F1200535
:1007100000FA05F24EEA020E20FA04F301FA05F29D
:1007200043EA020321FA04F001F0004121FA04F245
:1007300020EA020000EBD3705EEA430E08BF20EA15
:10074000D37070BD94F0000F0FD101F0004640004F
:1007500041EB010111F4801F08BF013CF7D041EAD1
:10076000060195F0000F18BF704703F000465200D5
:1007700043EB030313F4801F08BF013DF7D043EAA6
:100780000603704794EA0C0F0CEA135518BF95EA5C
:100790000C0F0CD050EA410618BF52EA4306D1D1E3
:1007A00081EA030101F000414FF0000070BD50EA02
:1007B000410606BF1046194652EA430619D094EA8C
:1007C0000C0F02D150EA013613D195EA0C0F05D176
:1007D00052EA03361CBF104619460AD181EA0301CA
:1007E00001F0004141F0FE4141F470014FF0000082
:1007F00070BD41F0FE4141F4780170BD70B54FF01D
:10080000FF0C4CF4E06C1CEA11541DBF1CEA13559C
:1008100094EA0C0F95EA0C0F00F0A7F8A4EB05047E
:1008200081EA030E52EA03354FEA013100F0888075
:100830004FEA03334FF0805545EA131343EA12633E
:100840004FEA022245EA111545EA10654FEA0026F3
:100850000EF000419D4208BF964244F1FD0404F5AC
:10086000407402D25B084FEA3202B61A65EB030508
:100870005B084FEA32024FF480104FF4002CB6EBC5
:10088000020E75EB030E22BFB61A754640EA0C0045
:100890005B084FEA3202B6EB020E75EB030E22BF85
:1008A000B61A754640EA5C005B084FEA3202B6EBC6
:1008B000020E75EB030E22BFB61A754640EA9C0085
:1008C0005B084FEA3202B6EB020E75EB030E22BF55
:1008D000B61A754640EADC0055EA060E18D04FEA13
:1008E000051545EA16754FEA06164FEAC30343EAB3
:1008F00052734FEAC2025FEA1C1CC0D111F4801F80
:100900000BD141EA00014FF000004FF0004CB6E778
:1009100011F4801F04BF01430020B4F1FD0C88BF17
:10092000BCF5E06F3FF6AFAEB5EB030C04BFB6EB22
:10093000020C5FEA500C50F1000041EB045170BD15
:100940000EF0004E4EEA113114EB5C04C2BFD4EB42
:100950000C0541EA045170BD41F480114FF0000EC6
:10096000013C90E645EA060E8DE60CEA135594EA42
:100970000C0F08BF95EA0C0F3FF43BAF94EA0C0F45
:100980000AD150EA01347FF434AF95EA0C0F7FF4BA
:1009900025AF104619462CE795EA0C0F06D152EA0E
:1009A00003353FF4FDAE1046194622E750EA4106F2
:1009B00018BF52EA43067FF4C5AE50EA41047FF403
:1009C0000DAF52EA43057FF4EBAE12E74FF0FF3C68
:1009D00006E000BF4FF0010C02E000BF4FF0010C39
:1009E0004DF804CD4FEA410C7FEA6C5C4FEA430CB2
:1009F00018BF7FEA6C5C1BD001B050EA410C0CBF01
:100A000052EA430C91EA030F02BF90EA020F002062
:100A1000704710F1000F91EA030F58BF994208BFC9
:100A200090422CBFD8176FEAE37040F00100704786
:100A30004FEA410C7FEA6C5C02D150EA013C07D1DD
:100A40004FEA430C7FEA6C5CD6D152EA033CD3D028
:100A50005DF8040B704700BF8446104662468C4622
:100A60001946634600E000BF01B5FFF7B7FF002855
:100A700048BF10F1000F01BD4DF808EDFFF7F4FF7E
:100A80000CBF012000205DF808FB00BF4DF808ED09
:100A9000FFF7EAFF34BF012000205DF808FB00BF2C
:100AA0004DF808EDFFF7E0FF94BF012000205DF84E
:100AB00008FB00BF4DF808EDFFF7CEFF94BF012003
:100AC00000205DF808FB00BF4DF808EDFFF7C4FFFC
:100AD00034BF012000205DF808FB00BF4FEA410C45
:100AE0007FEA6C5C02D150EA013C0AD14FEA430C28
:100AF0007FEA6C5C02D152EA033C02D14FF0000065
:100B000070474FF0010070474FEA410212F50012A2
:100B100015D211D56FF47873B3EB625212D94FEA44
:100B2000C12343F0004343EA505311F0004F23FA2E
:100B300002F018BF404270474FF00000704750EA83
:100B4000013005D111F0004008BF6FF00040704740
:100B50004FF00000704700BF80B485B000AF7860F0
:100B60004FF0B043DA6C4FF0B0417B681343CB6475
:100B70004FF0B043DA6C7B681340FB60FB6800BF4A
:100B80001437BD465DF8047B7047000080B586B021
:100B900000AF3B4600221A605A609A60DA601A6120
:100BA0005A61294B294A1A60274B00225A60264B6A
:100BB00000229A60244B0022DA60234B00221A6143
:100BC000214B04225A61204B01221A761E4B00222F
:100BD0005A761D4B0122DA611B4B002283F820203C
:100BE000194B00229A62184B0022DA62164B00223F
:100BF00083F83020144B00225A63134B002283F8F1
:100C00003820114803F0C0FA0346002B01D001F050
:100C100035FF0F4B3B6006237B600023BB607F23C7
:100C2000FB6004233B6100237B613B461946064879
:100C300003F0D0FD0346002B01D001F01FFF00BFE1
:100C40001837BD4680BD00BF780300200000045067
:100C50004000201980B588B000AF786007F10C0320
:100C600000221A605A609A60DA601A617B681B6819
:100C70000D4A934213D14FF40050FFF76DFF01204E
:100C8000FFF76AFF0223FB6003233B6100237B61C4
:100C900007F10C0319464FF0904004F09DFE00BF91
:100CA0002037BD4680BD00BF00000450B0B588B0FD
:100CB00000AF0B4B3C1D1D460FCD0FC495E8070040
:100CC00003C422800234130C237013F0D9F83B1DA7
:100CD000184612F066FB00BF2037BD46B0BD00BF0E
:100CE000C0BC010880B483B000AF7860074BD3F874
:100CF000803023F0070205497B681343C1F8803038
:100D000000BF0C37BD465DF8047B704700040058F7
:100D100080B483B000AF7860064BD3F890200549CB
:100D20007B681343C1F8903000BF0C37BD465DF8B7
:100D3000047B70470008005880B483B000AF78602F
:100D40004FF0B0430A4AC3F89C204FF0B043D3F8A9
:100D50009C3023F47C527B681B024FF0B04113435C
:100D6000C1F89C3000BF0C37BD465DF8047B70476E
:100D7000FECAFECA80B483B000AF78604FF0B043C3
:100D80009B6823F400424FF0B0417B6813438B60B3
:100D900000BF0C37BD465DF8047B704780B400AFE0
:100DA000044B1B68C3F30B031846BD465DF8047B78
:100DB000704700BF002004E080B400AF044B1B6804
:100DC0001B0C9BB21846BD465DF8047B704700BF04
:100DD000002004E080B400AF054B1B69044A23F0F7
:100DE0000403136100BFBD465DF8047B704700BF7C
:100DF00000ED00E080B483B000AF78607B68FF2234
:100E00005A6200BF0C37BD465DF8047B704780B462
:100E100083B000AF78607B68CA225A627B68532235
:100E20005A6200BF0C37BD465DF8047B704780B442
:100E300083B000AF786039607B689B6823F007025D
:100E40003B681A437B689A6000BF0C37BD465DF86B
:100E5000047B704780B500AF044B4FF400421A6129
:100E600000F024F800F029F800BF80BD00400058D1
:100E700080B500AF00F035F800F04EF803490020CF
:100E800000F034FE00F056F800BF80BD8805002059
:100E900080B400AF00BFBD465DF8047B704780B5ED
:100EA00000AF5020FFF734FF00BF80BD80B400AF1B
:100EB00000BFBD465DF8047B704780B582B000AFCF
:100EC000002013F071F878607B68002B05D07B68F8
:100ED0009B791846FFF730FF00BF00BF0837BD46BB
:100EE00080BD80B500AFFFF7D3FFFFF7D8FF00F05C
:100EF00003F800BF80BD000080B500AF0548FFF7D4
:100F000086FF00210348FFF792FF0248FFF772FFB8
:100F100000BF80BD0028004080B500AF4FF4004006
:100F2000FFF728FF17F052FD0420FFF7DBFE00BF9C
:100F300080BD000080B588B000AF12F0E7FD114A17
:100F40000021042017F006FF0F4B3B600F4B7B6026
:100F50003B4619460E4812F09BFC0E4BBB600E4BF5
:100F6000FB600E4B3B6140F23C537B6107F1080391
:100F7000184612F011FF12F0C3FD00BF2037BD4626
:100F800080BD00BFC938010834070320A10F000845
:100F9000B90F00084C09032040080320F801032082
:100FA00080B483B000AF0346FB7100BF0C37BD4671
:100FB0005DF8047B7047000080B588B000AF7860B2
:100FC0007B685B680B33FB61FB691B889BB2A3F5F5
:100FD0001243072B1FD801A252F823F0FD0F00087F
:100FE0000F1000081710000817100008171000084D
:100FF00017100008171000081710000807F10C035D
:10100000184612F0FBF9786800F01BF804E07868E5
:1010100000F006F800E000BF00BF2037BD4680BDED
:1010200080B485B000AF78607B685B680B33FB6091
:10103000FB680233BB6000BF1437BD465DF8047B1C
:10104000704780B58AB000AF786007F108030022CE
:101050001A605A609A60DA6000237B6200233B6268
:101060007B685B680B33FB61FB690233BB61BB6967
:101070001B78002B1DD1FFF719FE0F233B727F2336
:10108000BB72FFF799FE78627B6A9BB2BB82FFF767
:1010900085FE38623B6A9BB2FB8207F10803184663
:1010A00012F096F916F076F80021012017F0A0FC56
:1010B00007E0BB691B78012B03D17B6800221A7003
:1010C00000BF00BF2837BD4680BD80B584B000AFEB
:1010D000786002F047FDB8607B68FB60FB68B3F1A5
:1010E000FF3F0AD002F056FD03461A46FB68134440
:1010F000FB6002E0FFF76EFE30BF02F033FD0246F8
:10110000BB68D31AFA689A42F4D800BF00BF103700
:10111000BD4680BD80B500AF4FF0FF3017F098FCA2
:1011200000BF80BD80B400AF00BFBD465DF8047B4A
:10113000704780B582B000AF78600021042017F0BE
:101140002BFE00BF0837BD4680BD80B582B000AF22
:101150007860022017F08CFE00BF0837BD4680BDC6
:1011600080B582B000AF7860022017F0A1FE00BF0A
:101170000837BD4680BD80B485B000AF78604FF0C1
:10118000B043DA6C4FF0B0417B681343CB644FF04F
:10119000B043DA6C7B681340FB60FB6800BF143718
:1011A000BD465DF8047B704780B586B000AF3B1D3F
:1011B00000221A605A609A60DA601A610420FFF710
:1011C000DAFF0220FFF7D7FF0120FFF7D4FF10203E
:1011D000FFF7D1FF002248F290014FF0904004F059
:1011E00061FE00227921354804F05CFE05237B6016
:1011F0004FF40413BB600123FB603B1D19464FF005
:10120000904004F0E9FB48F290037B600123BB604F
:101210000023FB6000233B613B1D19464FF09040CB
:1012200004F0DAFB60237B600023BB600123FB60DA
:101230003B1D19464FF0904004F0CEFB79237B60B4
:101240000123BB600023FB6000233B613B1D19466B
:101250001A4804F0C1FB10237B604FF44413BB60B9
:101260000023FB603B1D1946154804F0B5FB8023A5
:101270007B600023BB600023FB603B1D19460F48C9
:1012800004F0AAFB00220021062004F046FB062001
:1012900004F05DFB00220021082004F03EFB082042
:1012A00004F055FB002200210A2004F036FB0A203E
:1012B00004F04DFB00BF1837BD4680BD0004004858
:1012C0000010004880B483B000AF7860064BD3F8BC
:1012D000802005497B681343C1F8803000BF0C377C
:1012E000BD465DF8047B70470008005880B483B0A9
:1012F00000AF7860054B1A6804497B6813430B60A4
:1013000000BF0C37BD465DF8047B704700080058ED
:1013100080B483B000AF0D4B9B6A9BB27B600B4BDC
:101320009B6A9BB23B6005E03B687B60074B9B6A16
:101330009BB23B607A683B689A42F5D13B6818469D
:101340000C37BD465DF8047B704700BF00280040A5
:1013500080B485B000AF03460A46FB711346BB71EB
:10136000BA791D4913465B001344DB000B44153367
:101370001B78FB73FB7B062B09D0FA7B16491346BF
:101380005B001344DB000B441433FA791A70FA79CA
:10139000114913465B001344DB000B441533FA7B01
:1013A0001A70FA790C4913465B001344DB000B44B6
:1013B0001433BA791A70BA79074913465B0013449B
:1013C000DB000B441533FA791A7000BF1437BD46A1
:1013D0005DF8047B704700BFDC03002080B485B05B
:1013E00000AF03460A46FB711346BB71294B1B78BD
:1013F000DBB2BA799A4232D0BA79274913465B00F8
:101400001344DB000B4414331B78FB73FA7B224933
:1014100013465B001344DB000B441533FA791A7052
:10142000FA791D4913465B001344DB000B44153366
:10143000BA791A70FA79184913465B001344DB0035
:101440000B441433FA7B1A70BA79134913465B00C4
:101450001344DB000B441433FA791A7014E0FA7960
:101460000D4913465B001344DB000B441533BA7976
:101470001A70BA79084913465B001344DB000B4429
:101480001433FA791A7000BF1437BD465DF8047B37
:10149000704700BF6C040020DC03002080B584B0DE
:1014A00000AF0346FB714E4B1B78DBB2062B18D105
:1014B0004B4B1B78DAB24B4B1A70494AFB791370CD
:1014C000FA79494913465B001344DB000B4415339A
:1014D00006221A70454B4FF0FF321A600023FB8141
:1014E00078E000F009F90346FB81FA793E4913469A
:1014F0005B001344DB000B4408331968FB89FA795D
:101500001944394813465B001344DB000344083395
:101510001960FA79344913465B001344DB000B442D
:1015200008331B68BB602E4B1B78DBB219462E4A72
:101530000B465B000B44DB00134408331B68BA689E
:101540009A4237D3264B1B787B737A7B2649134606
:101550005B001344DB000B4415331B783B7313E033
:101560007A7B214913465B001344DB000B4415339F
:101570001B787B737A7B1C4913465B001344DB00AA
:101580000B4415331B783B733B7B062B0BD03A7B0C
:10159000154913465B001344DB000B4408331B68FA
:1015A000BA689A42DCD27A7BFB7911461846FFF77B
:1015B000CFFE0FE00A4B1B78DAB2FB7911461846D2
:1015C000FFF70CFF064B1B78DAB2064B1A70044A81
:1015D000FB791370FB8918461037BD4680BD00BFEC
:1015E0006C0400206D040020DC0300207004002047
:1015F00080B485B000AF03460A46FB711346BB7149
:10160000394B1B78DBB2FA799A4211D1364B1B78F1
:10161000DAB2364B1A70FA79354913465B00134437
:10162000DB000B4415331B78DAB22F4B1A703EE007
:10163000FA792F4913465B001344DB000B44143343
:101640001B78FB73FA792A4913465B001344DB00CD
:101650000B4415331B78BB73F979FA7B24480B468E
:101660005B000B44DB00034415331B78D8B22049E0
:1016700013465B001344DB000B44153302461A701B
:10168000BB7B062B13D0F979BA7B19480B465B005C
:101690000B44DB00034414331B78D8B214491346BF
:1016A0005B001344DB000B44143302461A70FA79D2
:1016B0000F4913465B001344DB000B440C3301223B
:1016C0001A70094B1B78DBB2062B07D1BB79002BB4
:1016D00004D1084B4FF0FF321A6000BF00BF14372F
:1016E000BD465DF8047B70476C0400206D0400204B
:1016F000DC0300207004002080B582B000AF1A4BDC
:101700001B68B3F1FF3F26D0FFF702FE7860164B4F
:101710001B687A689A4205D8134B1A687B68D31AFB
:101720007B600AE0114B1B881A467B68D31A3B602A
:101730000D4B1B683A6813447B600D4B1B781A46AF
:101740007B6802FB03F37B600A4B1B781A467B68BD
:10175000D3407B6001E000237B607B689BB218462E
:101760000837BD4680BD00BF70040020780400200B
:10177000760400207504002080B582B000AF0346D7
:10178000FB80FB88002B08D1FFF7C2FD0346214AEE
:101790001360032004F003F939E0FB88012B03D820
:1017A0001D4B1B78012B02D0FB88013BFB8000BF47
:1017B0001A4B1B68DB6803F00403002BF8D0174BAF
:1017C0001B68DB68DAB2154B1B6862F49062DA6062
:1017D000134B4FF40022DA60032004F0EEF8114BB3
:1017E0005B691B0C1B04FA880E4913434B61FFF71E
:1017F0008FFD0346074A1360084B1B689A68074B26
:101800001B6842F480629A60AFF3008000BF083723
:10181000BD4680BD700400207504002088050020AE
:10182000000800580028004080B584B000AF454B48
:101830009B6803F48063B3F5806F07D100BF424B10
:101840001B68DB6803F00403002BF8D13E4B1B68D8
:101850009A683D4B1B6822F480629A603B4B1B7870
:10186000FB73FA7B3A4913465B001344DB000B44DD
:1018700008331B68BB60FFF73FFF0346FB80FB8814
:10188000BA689A4205D20023BB81324B01221A70FA
:101890004DE0FB88304A128892B213441A46BB6866
:1018A000934206D92C4B1B88BB812A4B00221A700D
:1018B0003DE0BB689AB2FB88D31ABB81254B01225D
:1018C0001A7034E0FA7B224913465B001344DB00B4
:1018D0000B4408331A68FB889A420AD2FA7B1C49E7
:1018E00013465B001344DB000B44083300221A60EC
:1018F00013E0FA7B164913465B001344DB000B44EC
:1019000008331968FB88FA7BC91A114813465B0033
:101910001344DB00034408331960FA7B0C49134677
:101920005B001344DB000B4415331B78FB73FB7B1C
:10193000062BC7D1BB891846FFF71EFF00BF103723
:10194000BD4680BD00280040880500206C040020B2
:10195000DC030020740400207A04002080B58AB0E3
:1019600000AFEFF310837B617B697B6272B600BFCF
:10197000594B1B68CA225A62574B1B6853225A6242
:10198000554B1B689A68544B1B6822F480629A601E
:10199000524B1B7887F8233097F823205049134681
:1019A0005B001344DB000B440C331B78DBB2022BCF
:1019B0006ED197F823204A4913465B001344DB009D
:1019C0000B441B68FB6197F82320454913465B00D5
:1019D0001344DB000B4410331B68BB61414B1B7885
:1019E000DBB2002B4CD097F823203D4913465B0017
:1019F0001344DB000B440D331B78DBB2012B24D1E5
:101A000097F8233001211846FFF7F2FD7B6A3B610E
:101A10003B6983F3108800BF97F8232030491346B1
:101A20005B001344DB000B4404331A6897F823303F
:101A30001146184600F0B8F9274B1B68CA225A62B3
:101A4000254B1B6853225A6212E07B6AFB60FB68DD
:101A500083F3108800BF97F82330184600F020F970
:101A60001D4B1B68CA225A621B4B1B6853225A62C9
:101A700097F82330FA691946B86900F01BFA22E09A
:101A8000FFF7D2FE7B6ABB60BB6883F310881AE065
:101A900000BF114B1B68DB6803F00403002BF8D078
:101AA0000D4B1B68DB68DAB20B4B1B6862F490626B
:101AB000DA600D4B4FF40022DA607B6A7B607B6852
:101AC00083F3108800BF044B1B68FF225A6200BFDB
:101AD0002837BD4680BD00BF880500206C0400206B
:101AE000DC030020740400200008005880B588B092
:101AF00000AF03463960FB715E4B1B68CA225A6215
:101B00005C4B1B6853225A625B4B9B685A4A43F0FA
:101B100020039360584B9B68DBB203F00703DBB2F2
:101B2000C3F10403DAB2554B1A70534B1B6903F42B
:101B3000FE034FF4FE023A613A6992FAA2F2FA60A9
:101B4000FA687A617A69002A01D1202203E07A6971
:101B5000B2FA82F2D2B2D340DBB20133DAB2484BEE
:101B60001A70454B1B699BB2C3F30E039BB2013342
:101B70009AB2444B1A80434B1B88013B404A12786F
:101B800002FB03F3A3F5A0733C4A1278D340BB6178
:101B9000BB694FF6FE72934204D93B4B4FF6FF727E
:101BA0001A8003E0BB699AB2374B1A804FF40020C9
:101BB000FFF79CFB4FF40020FFF784FBFB79002B21
:101BC0003DD1324B01221A70314B4FF0FF321A6077
:101BD0000023FB770CE0FA7F2E4913465B00134489
:101BE000DB000B440C3300221A70FB7F0133FB77C0
:101BF000FB7F052BEFD9284B06221A701D4B1B6863
:101C00009A681C4B1B6822F480629A60194B1B680F
:101C1000DB68DAB2174B1B6862F49062DA601F4B24
:101C20004FF40022DA60032003F0C7FE114B1B685B
:101C30009A68104B1B6842F480429A6009E00D4B91
:101C40001B68DB6803F48063002B02D0032003F0E1
:101C5000A6FE084B1B68FF225A62002203210320C4
:101C600003F05BFE032003F072FE00BF2037BD4689
:101C700080BD00BF880500200028004075040020BA
:101C800076040020780400207A04002074040020E8
:101C900070040020DC0300206C04002000080058C1
:101CA00080B586B000AF0346FB71EFF31083FB6095
:101CB000FB687B6172B600BF032003F056FE344B15
:101CC0001B68CA225A62324B1B6853225A62FA7945
:101CD000304913465B001344DB000B440C331B7884
:101CE000DBB2022B42D1FB7900211846FFF780FCC2
:101CF000294B1B78FB74FB7C062B2FD1274B9B6851
:101D000003F48063B3F5806F07D100BF204B1B68DD
:101D1000DB6803F00403002BF8D11D4B1B689A68A5
:101D20001B4B1B6822F480629A6000BF184B1B6833
:101D3000DB6803F00403002BF8D0154B1B68DB684D
:101D4000DAB2134B1B6862F49062DA60144B4FF402
:101D50000022DA60032003F030FE07E0114B1B780D
:101D6000DBB2FA7C9A4201D0FFF75EFD084B1B689C
:101D7000FF225A62032003F0EAFD7B69BB60BB6867
:101D800083F3108800BF00BF1837BD4680BD00BF79
:101D900088050020DC0300206C040020002800409F
:101DA000000800586D04002080B586B000AF0346DF
:101DB0003960FB71FA793B4913465B001344DB0041
:101DC0000B440C331B78DBB2022B03D1FB79184692
:101DD000FFF766FFEFF31083FB60FB687B6172B671
:101DE00000BF032003F0C1FD2F4B1B68CA225A62BB
:101DF0002D4B1B6853225A62FA792A4913465B001D
:101E00001344DB000B440C3302221A70FA79254983
:101E100013465B001344DB000B4408333A681A6036
:101E2000FA79204913465B001344DB000B4404336A
:101E30003A681A60FB791846FFF730FB03467B824D
:101E40001A4B1B787B741A4B1B78DBB27A7C9A4254
:101E500002D0FFF7E9FC13E0FA79124913465B0060
:101E60001344DB000B44083319687B8AFA79C91ADA
:101E70000C4813465B001344DB000344083319602D
:101E8000094B1B68FF225A62032003F060FD7B6947
:101E9000BB60BB6883F3108800BF00BF1837BD4626
:101EA00080BD00BFDC030020880500206C040020FA
:101EB0006D04002080B584B000AFF8600B467A60F6
:101EC000FB727B68984700BF1037BD4680BD80B469
:101ED00085B000AF78604FF0B043DA6C4FF0B0419E
:101EE0007B681343CB644FF0B043DA6C7B681340DC
:101EF000FB60FB6800BF1437BD465DF8047B70478C
:101F000080B485B000AF78604FF0B0439A6D4FF069
:101F1000B0417B6813438B654FF0B0439A6D7B688B
:101F20001340FB60FB6800BF1437BD465DF8047BBF
:101F30007047000080B500AF1B4B1C4A1A601A4B5B
:101F40001B4A5A60184B00229A60174B0122DA6034
:101F5000154B00221A61144B00225A61124B0022C9
:101F60009A61114B0022DA610F4B00221A620E486F
:101F700003F0ECFF0346002B01D000F07FFD0021B1
:101F8000094804F033FD0346002B01D000F076FD34
:101F90000021054804F075FD0346002B01D000F038
:101FA0006DFD00BF80BD00BF7C04002000540040D8
:101FB000140D100080B59CB000AF786007F15C0391
:101FC00000221A605A609A60DA601A6107F10C0305
:101FD00050220021184617F098FD7B681B681F4AA5
:101FE000934237D10423FB604FF44033FB6207F187
:101FF0000C03184608F0A4FD0346002B01D000F0A6
:102000003DFD0220FFF763FF4FF44073FB65122391
:102010003B6601237B660023BB660423FB6607F156
:102020005C0319460E4803F0D7FC4FF40010FFF78D
:1020300067FF4FF44073FB6512233B6601237B6609
:102040000023BB660423FB6607F15C0319460448C2
:1020500003F0C2FC00BF7037BD4680BD0054004095
:102060000004004880B485B000AF78604FF0B04302
:102070001A6D4FF0B0417B6813430B654FF0B043CE
:102080001A6D7B681340FB60FB6800BF1437BD46C8
:102090005DF8047B7047000080B500AF064B074A2F
:1020A0001A60054804F03AFD0346002B01D000F009
:1020B000E5FC00BF80BD00BFD0040020000C00582C
:1020C00080B582B000AF78607B681B680D4A934290
:1020D00013D14FF48010FFF7C5FF002200212C2000
:1020E00003F01BFC2C2003F032FC002200212D20E9
:1020F00003F013FC2D2003F02AFC00BF0837BD4677
:1021000080BD00BF000C005880B485B000AF78607F
:102110004FF0B043DA6C4FF0B0417B681343CB64AF
:102120004FF0B043DA6C7B681340FB60FB6800BF84
:102130001437BD465DF8047B704780B485B000AFAE
:1021400078604FF0B0439A6D4FF0B0417B68134315
:102150008B654FF0B0439A6D7B681340FB60FB6862
:1021600000BF1437BD465DF8047B704780B485B06E
:1021700000AF78604FF0B043DA6D4FF0B0417B684C
:102180001343CB654FF0B043DA6D7B681340FB60BF
:10219000FB6800BF1437BD465DF8047B704780B410
:1021A00083B000AF78604FF0B0439A6D7B68DB433B
:1021B0004FF0B04113408B6500BF0C37BD465DF852
:1021C000047B704780B483B000AF78604FF0B043B9
:1021D000DA6D7B68DB434FF0B0411340CB6500BF45
:1021E0000C37BD465DF8047B7047000080B500AF3A
:1021F000124B134A1A60114B00225A600F4B0022F7
:102200009A600E4B4FF6FF725A610C4B00221A6215
:102210000A4B00225A62094B00229A62074B0022A5
:10222000DA62064B00221A63044804F047FD0346B5
:10223000002B01D000F022FC00BF80BD0C05002067
:10224000007C004080B500AF124B134A1A60114B5E
:1022500000225A600F4B00229A600E4B4FF6FF721D
:102260005A610C4B00221A620A4B00225A62094B37
:1022700000229A62074B0022DA62064B00221A63A0
:10228000044804F01BFD0346002B01D000F0F6FBD0
:1022900000BF80BD440500200094004080B59CB084
:1022A00000AF786007F15C0300221A605A609A6000
:1022B000DA601A6107F10C0350220021184617F06A
:1022C00024FC7B681B68264A934226D11023FB60BE
:1022D0004FF440237B6307F10C03184608F030FCF1
:1022E0000346002B01D000F0C9FB4FF00040FFF780
:1022F00024FF0220FFF708FF0423FB6502233B664F
:1023000000237B660023BB660123FB6607F15C03A9
:102310001946144803F060FB1EE07B681B68124AF4
:10232000934219D12023FB604FF03013BB6307F1B8
:102330000C03184608F004FC0346002B01D000F003
:102340009DFB2020FFF712FF00220221302003F026
:10235000E4FA302003F0FBFA00BF7037BD4680BDC1
:10236000007C0040000400480094004080B582B02A
:1023700000AF78607B681B680D4A934208D14FF02C
:102380000040FFF70CFF04210A4803F095FC0AE027
:102390007B681B68084A934205D12020FFF712FF93
:1023A000302003F0E2FA00BF0837BD4680BD00BF11
:1023B000007C0040000400480094004080B483B0DA
:1023C00000AF78604FF0B043D3F8903023F018029C
:1023D0004FF0B0417B681343C1F8903000BF0C3719
:1023E000BD465DF8047B704780B483B000AF786071
:1023F0004FF0B043DA6C7B68DB434FF0B0411340E1
:10240000CB6400BF0C37BD465DF8047B704780B4D9
:1024100085B000AF78604FF0B0439A6D4FF0B04197
:102420007B6813438B654FF0B0439A6D7B68134014
:10243000FB60FB6800BF1437BD465DF8047B704746
:1024400080B487B000AFF8600B467A60FB7200235F
:10245000FB75FB681B78FA7A9A4231D0FB685B689F
:102460007A68D21AFB689B689A422CD3FB68FA7A86
:102470001A70FB687A685A60FB681B7B002B07D0D8
:10248000FB681B78002B0CBF01230023DBB206E0A6
:10249000FB681B78012B0CBF01230023DBB2BB754B
:1024A000FB685B78BA7D9A420DD0FB68BA7D5A70A2
:1024B000BB7D002B01D0012300E00223FB7502E06D
:1024C000FB687A685A60FB7D18461C37BD465DF88C
:1024D000047B704790B593B004AF01F0D5FAFEF7D6
:1024E000B9FC00F06FF900F001FAFFF7D5FDFEF737
:1024F0005BFEFFF77BFE00F0F9FAFFF71BFDFFF72D
:10250000A1FEFEF743FB00F0A9FB0CF0C1F8034667
:10251000002B01D000F0B2FA00F0B6FA012210212F
:102520004FF0904003F0BEFC0520FEF7CEFD9C4826
:102530000CF020F801F0D0F8002000F067FE6422D3
:10254000C82140F68C2001F007F81021954803F0CF
:1025500091FC0346012B0CBF01230023DBB21A467A
:10256000914B1A70904B1B78002B1BD08F4B1B7814
:10257000002B17D115F0FAFC8C4B01221A700121A7
:102580004FF0904003F076FC0346002B0AD1884BB5
:1025900001221A7001F0E6FA034603F59C53083352
:1025A000844A1360804B1B78002B14BF0123002347
:1025B000DBB2184601F080F8FEF75AFCFEF7AAFDE0
:1025C0007D4B1B78DBB2002B4DD07B4B00221A7069
:1025D0001021744803F04EFC0346012B0CBF01236D
:1025E0000023DBB287F8363097F83630002B1CD04A
:1025F0006E4B1B78002B18D115F0B8FC6B4B0122E9
:102600001A7001214FF0904003F034FC0346002B78
:102610001BD1674B01221A7001F0A4FA034603F59F
:102620009C530833634A13600FE097F83630002B51
:102630000BD15E4B1B78002B07D015F0A9FC5B4B30
:1026400000221A705A4B00221A70574A97F83630F7
:102650001370554B1B78002B14BF01230023DBB2F2
:10266000184601F029F8524B1B78002B18D001F0C6
:1026700079FA02464F4B1B68D31A002B05DB00F09A
:1026800085F94B4B00221A700AE001214FF090406F
:1026900003F0F0FB0346002B02D0454B00221A70DA
:1026A00004214FF0904003F0E5FB0346012B0CBFE3
:1026B00001230023DBB21C4601F054FA03461A46FC
:1026C00021463E48FFF7BCFE034687F8353097F8B1
:1026D0003530012B61D107F1180300221946384823
:1026E00009F0DBFB07F1140300221946344809F016
:1026F000BBFCFB7D03F5FA637B867B7D87F831307D
:10270000BB7D87F830303B7E87F82F307B7E87F8A3
:102710002E304FF000033B61802387F8373007F1FC
:10272000100319461E480BF061FF0346002B16D11B
:10273000D7ED047AF5EEC07AF1EE10FA02DBB6EED0
:10274000007A01E0BEEE007AD7ED047A77EE277AC0
:10275000FDEEE77AC7ED017A3B7987F83730012340
:1027600087F82D3097F82F4097F8302097F83110E0
:10277000788E97F93730029397F82D30019397F8B8
:102780002E300093234600F0DDFF07F108031846C2
:1027900000F0FAFD642000F0DDF830BF0EE700BF66
:1027A0007C040020001000487E0500207F050020EA
:1027B00080050020840500207D0500200800002001
:1027C0008805002080B5A0B000AF07F1380348228B
:1027D0000021184617F099F907F11C0300221A602E
:1027E0005A609A60DA601A615A619A6106F076FB63
:1027F0001020FFF7E3FD3C4B1B6823F4C0633A4A0B
:1028000043F400731360384B1B6803F4C0633B60F0
:102810003B686723BB634FF48033FB6301233B6456
:102820004FF480737B6401237B6501233B660023A7
:10283000BB640023BB656023FB6502237B66012329
:10284000BB660023FB6620233B674FF400337B67A6
:102850004FF00053FB674FF08063BB6707F138030D
:10286000184606F0D5FF0346002B01D000F006F90C
:102870006F23FB6103233B6280237B624FF4C063C1
:10288000BB620023FB6280233B6300237B6307F171
:102890001C030321184607F02FFB0346002B01D031
:1028A00000F0ECF84FF08070FFF7B1FD3B1D002207
:1028B0001A605A609A60DA601A615A6100237B607C
:1028C0004FF08053BB600023FB604FF0FF333B6150
:1028D00022237B614023BB613B1D184608F0BCFEF0
:1028E00000BF8037BD4680BD0004005880B594B05D
:1028F00000AF3B4650220021184617F006F94FF46E
:1029000051533B6018237B604FF40033BB604FF0A2
:102910000073FB604FF000533B610D4B7B61002364
:102920003B634FF08053FB634FF480437B64002391
:10293000BB641023FB643B46184608F001F90346CC
:10294000002B01D000F09AF800BF5037BD4680BD83
:102950000000011080B584B000AF786040F2E7332A
:10296000FB604FF4FA73BB60BA68F968064804F07C
:102970006FFA7868FEF7A9FB034804F0B6FA00BFC7
:102980001037BD4680BD00BF0C05002080B584B067
:1029900000AF72B600BF244B0322A3F840200420EE
:1029A000FFF722FD0220FFF71FFD0120FFF71CFDAE
:1029B0001E4804F025FA06F08FFE1D4B00221A6017
:1029C0001B4B00225A601A4B00229A600023FB73B3
:1029D00010E0184AFB7B20334FF0FF3142F8231000
:1029E000144AFB7B60334FF0FF3142F82310FB7B2E
:1029F0000133FB73FB7B072BEBD962B600BF0E4B99
:102A00001B68BB600D4B1B683B603B6883F3088809
:102A100000BFBB687B600A4B01221A607B68984745
:102A200000BF1037BD4680BD006800400C05002087
:102A300010E000E000E100E00400FF1F0000FF1FC5
:102A40000000014080B483B000AF0346FB80FB88E8
:102A5000042B03D1074B01221A7005E0FB88102BD1
:102A600002D1054B01221A7000BF0C37BD465DF83C
:102A7000047B70477C0500207D05002080B400AFFA
:102A800072B600BF00BFFDE780B400AF00BFBD4617
:102A90005DF8047B704780B400AF4FF0B043D3F8CB
:102AA00090304FF0B04243F40043C2F8903000BF82
:102AB000BD465DF8047B704780B485B000AF786098
:102AC0004FF0B0439A6D4FF0B0417B6813438B6574
:102AD0004FF0B0439A6D7B681340FB60FB6800BF0A
:102AE0001437BD465DF8047B7047000080B586B0A2
:102AF00000AF3B1D00221A605A609A60DA601A61CA
:102B000000233B602C4B2D4A1A602B4B00225A604D
:102B1000294B0F229A60284B47F6FF72DA60264B4A
:102B200000221A61244B00229A61234B0022DA61B1
:102B3000214B00225A61204809F088F80346002BF7
:102B400001D0FFF79BFF00233B7100237B71002323
:102B5000BB710023BB6000233B6100237B613B1DF5
:102B600001221946144809F0F9F80346002B01D058
:102B7000FFF784FF01233B7001237B700123BB70AF
:102B80000023FB703B46012219460B4809F0E3F98C
:102B90000346002B01D0FFF771FF002200210648F9
:102BA00009F072FB0346002B01D0FFF767FF00BF5F
:102BB0001837BD4680BD00BF8805002000280040B2
:102BC00080B596B000AF786007F10803502200216D
:102BD000184616F09AFF7B681B68124A93421DD173
:102BE0004FF40063BB604FF48073BB6407F10803CC
:102BF000184607F0A5FF0346002B01D0FFF73EFF64
:102C0000FFF749FF4FF48060FFF756FF00220021D5
:102C1000032002F082FE032002F099FE00BF583725
:102C2000BD4680BD0028004080B485B000AF78600C
:102C30004FF0B0431A6E4FF0B0417B6813430B6600
:102C40004FF0B0431A6E7B681340FB60FB6800BF17
:102C50001437BD465DF8047B7047000080B500AFB7
:102C60002D4B2E4A1A602C4B00225A642A4B01220B
:102C70005A60294B80229A64274B0022DA64264B43
:102C800000221A65244B00229A60234B00225A61CD
:102C9000214B00229A61204B00229A621E4B002297
:102CA000DA611D4B1E4A1A621B4B4FF48052DA62E6
:102CB000194B00221A63184B012283F83820164B57
:102CC0000222DA63144B4FF440721A64124B202232
:102CD0005A65114B01229A650F4B0022DA650E4BA3
:102CE00000221A660C4B00225A660B4B00229A6691
:102CF000094B0022DA66084B02221A67064B0322B0
:102D00005A67054809F08CFB0346002B01D0FFF7FA
:102D1000B5FE00BF80BD00BFAC05002004540140DB
:102D200000EE020080B588B000AF78607B681B6859
:102D3000164A934226D1164B1B68002B0BD14FF439
:102D40000010FFF771FF00220021262002F0E5FDB0
:102D5000262002F0FCFD0E4B1B6801330C4A136069
:102D60004FF4E163FB6002233B6100237B6100239E
:102D7000BB610323FB6107F10C0319464FF0904040
:102D800002F02AFE00BF2037BD4680BD045401403A
:102D90004406002080B485B000AF78604FF0B043A7
:102DA0001A6D4FF0B0417B6813430B654FF0B04391
:102DB0001A6D7B681340FB60FB6800BF1437BD468B
:102DC0005DF8047B704780B582B000AF3B460022BF
:102DD0001A605A604FF40020FFF7DCFF0022022146
:102DE0006FF0010002F099FD00220221052002F09F
:102DF00094FD052002F0ABFD002200212E2002F000
:102E00008CFD2E2002F0A3FD00233B6000237B609D
:102E10003B46184606F072F806F0B2F800BF0837D5
:102E2000BD4680BD80B400AF00BFFDE780B400AFF9
:102E300000BFFDE780B400AF00BFFDE780B400AF86
:102E400000BFFDE780B400AF00BFFDE780B400AF76
:102E500000BFBD465DF8047B704780B400AF00BF83
:102E6000BD465DF8047B704780B400AF00BFBD462F
:102E70005DF8047B704780B500AF00F05FFE00BFD7
:102E800080BD80B500AFFEF769FD00BF80BD80B496
:102E900000AF00BFBD465DF8047B704780B500AF52
:102EA000012003F017F800BF80BD80B500AF0420FB
:102EB00003F010F800BF80BD80B500AF102003F014
:102EC00009F800BF80BD000080B500AF024804F0E3
:102ED000F9FA00BF80BD00BFD810012080B400AF58
:102EE00000BFBD465DF8047B704780B500AF14F0AD
:102EF0004DFE00BF80BD80B500AF14F07DFE00BF69
:102F000080BD80B500AF02F0FDFF00BF80BD0000B6
:102F100080B500AF024804F004F800BF80BD00BFD8
:102F20004405002080B400AF01231846BD465DF87B
:102F3000047B704780B582B000AF7860396016F0CE
:102F400037FE034616221A604FF0FF331846083743
:102F5000BD4680BD80B582B000AF78604FF0FF31D4
:102F60007868FFF7E7FF00BFFDE780B586B000AFE8
:102F7000F860B9607A6000237B610AE0AFF30080FB
:102F80000146BB685A1CBA60CAB21A707B69013329
:102F90007B617A697B689A42F0DB7B681846183758
:102FA000BD4680BD80B586B000AFF860B9607A607C
:102FB00000237B6109E0BB685A1CBA601B78184685
:102FC000AFF300807B6901337B617A697B689A4249
:102FD000F1DB7B6818461837BD4680BD80B483B0EE
:102FE00000AF78604FF0FF3318460C37BD465DF8F0
:102FF000047B704780B483B000AF786039603B6871
:103000004FF400525A60002318460C37BD465DF855
:10301000047B704780B483B000AF7860012318460A
:103020000C37BD465DF8047B704780B485B000AFB7
:10303000F860B9607A60002318461437BD465DF821
:10304000047B704780B586B000AF7860144A154B9A
:10305000D31A7B617B693B61134B1B68002B02D148
:10306000114B124A1A60104B1A687B6813443A6974
:103070009A4207D216F09CFD03460C221A604FF0CC
:10308000FF3309E0084B1B68FB60074B1A687B683D
:103090001344054A1360FB6818461837BD4680BDC7
:1030A0000000032000040000480600203018012022
:1030B00080B400AF244BD3F88830234A43F4700324
:1030C000C2F888304FF0B0431B684FF0B04243F075
:1030D000010313604FF0B0434FF4E0229A604FF0C9
:1030E000B0431A684FF0B041184B13400B604FF0DB
:1030F000B043D3F894304FF0B04223F00503C2F848
:1031000094304FF0B043D3F898304FF0B04223F0F2
:103110000103C2F898304FF0B0430D4ADA604FF027
:10312000B0430B4A1A614FF0B0431B684FF0B042F6
:1031300023F4802313604FF0B04300229A6100BF54
:10314000BD465DF8047B704700ED00E0FBFEF6FA3B
:1031500000100422D458C4500433C4188C42F9D34C
:103160007047036004308842FBD370470C488546A3
:10317000FFF79EFF0B480C490C4A0023FFF7EDFFB9
:103180000B480C490C4A0023FFF7E7FF0B480C499A
:103190000023FFF7E8FF16F011FDFFF79BF9FEE7AC
:1031A000000003200800002010030020ACC4010828
:1031B000E4010320670A0320FAC701085C0300202A
:1031C0002C180120FEE780B500AF4FF480614FF06E
:1031D000904002F04FFE0346002B0CBF012300235A
:1031E000DBB2184680BD000080B582B000AF034658
:1031F000FB71FB791A460121034802F053FE00BF20
:103200000837BD4680BD00BF0004004880B582B0CD
:1032100000AF0346FB71FB791846FFF7E5FF00BFDF
:103220000837BD4680BD000080B588B000AF3B1DAB
:1032300000221A605A609A60DA601A615A611E4B65
:103240007B600623BB600723FB603B1D19461B48C0
:1032500001F0C0FA0346002B02D040F6B83327E055
:10326000164801F0DDF80346002B02D040F6B833D3
:103270001EE00521114801F05AF90346002B05D044
:103280000E4801F021F940F6B83311E00B4801F087
:1032900093FA0346FB83094801F016F9084B1B8893
:1032A0001A464FF4616303FB02F2FB8BB2FBF3F3AC
:1032B00018462037BD4680BD0100008078030020FD
:1032C000AA75FF1F80B58CB000AF786007F10C03C2
:1032D00000221A605A609A60DA601A615A61254BBE
:1032E000FB6006233B6107237B6107F10C03194652
:1032F000214801F06FFA0346002B02D04FF0FF3354
:1033000033E01D4801F08CF80346002B02D04FF04B
:10331000FF332AE00521184801F009F90346002B84
:1033200005D0154801F0D0F84FF0FF331DE01248EA
:1033300001F042FA0346FB850F4801F0C5F8FB8D0A
:103340007A6803FB02F20D4BA3FB0213D21A520858
:103350001344DB0ABB62BB6A094A02FB03F3094A56
:10336000A2FB03239B0B7B627B6A18463037BD466A
:1033700080BD00BF4000201978030020010110002B
:1033800088E307001B923D5980B586B000AF786096
:10339000FFF719FF0346002B14BF01230023DBB204
:1033A0003B74FFF741FF78617869FFF78BFF0346B5
:1033B000FB60FB687969184600F004F97B681A46DF
:1033C00007F10C0393E8030082E8030078681837DC
:1033D000BD4680BD80B485B000AF786039607B6841
:1033E0004BF2987202FB03F3DB08114AA2FB0323A2
:1033F0005B0BBB603B68002B02D140F6B8333B60EF
:10340000BA6813461B039A1A3B68B2FBF3F3FB60DE
:10341000FB68B3F5805F02D340F6FF73FB60FB6887
:103420009BB218461437BD465DF8047B704700BF59
:10343000F37A732080B586B000AF3B4600221A6055
:103440005A609A60DA601A615A610E4B3B604FF421
:1034500040037B600C4BBB6001233B7340F6FF7362
:103460003B610A4B1B887B613B461946084801F0CB
:1034700077FD074B1B6880221A6000BF1837BD46D6
:1034800080BD00BF0000C07D400020194E06002016
:103490007803002080B586B000AF3B4600221A605A
:1034A0005A609A60DA601A615A610D4B3B604FF4C2
:1034B00040037B600B4BBB6001233B730A4B1B88B3
:1034C0003B6100237B613B461946084801F048FDFB
:1034D000064B1B6880221A6000BF1837BD4680BDAE
:1034E0000000C07D40002019500600207803002015
:1034F00080B586B000AF3B4600221A605A609A60E1
:10350000DA601A615A61094B3B6006237B6007232E
:10351000BB603B461946064801F05CF9044801F0DF
:1035200093F800BF1837BD4680BD00BF400020198A
:103530007803002080B500AF064B1B685A68054B26
:103540001B6822F080025A60024801F0FAF800BFBE
:1035500080BD00BF7803002080B584B000AFF86064
:10356000B9607A60074AFB681360074ABB6813605A
:10357000064A7B68136000F00BF800BF1037BD46A9
:1035800080BD00BF1C00002020000020240000207F
:1035900080B500AFFFF7CEFF064B00221A70064B36
:1035A00000221A70054B00221A80054B00221A8057
:1035B00000BF80BD4C0600204D0600204E060020B6
:1035C0005006002080B584B000AF786039607B6819
:1035D000002B02DAFFF7DCFF5AE0FFF725FEF86068
:1035E0002D4B1B68F9681846FFF7F4FE03461A4690
:1035F0002A4B1A80284B1A68294B1B681344F96818
:103600001846FFF7E7FE03461A46264B1A80254B5D
:103610001A88224B1B889A4205D8204B1B880133FD
:103620009AB2204B1A807A681B4B1B689A4212D8B8
:103630001D4B01221A701D4B02221A70FFF758FF12
:10364000FFF728FF1A4B1B685A68194B1B6842F09A
:1036500080025A601CE0104B1A68164B1B681A4413
:103660007B689A4212D3104B00221A700F4B012232
:103670001A70FFF73DFFFFF7DDFE0D4B1B685A6820
:103680000B4B1B6842F080025A6001E0FFF780FF9D
:103690001037BD4680BD00BF1C0000204E06002034
:1036A00020000020500600204C0600204D0600207F
:1036B000780300202400002080B483B000AF0346CC
:1036C000FB71044AFB79137000BF0C37BD465DF8EF
:1036D000047B70475206002080B584B002AF0122FF
:1036E0001549164812F084FA0346FB71FB790D2B3D
:1036F00017D14FF400730093114B4FF4007209215E
:103700000D4813F09BF80346FB71FB79002B01D0A9
:1037100000230CE001220849084812F069FA034628
:10372000FB71FB79002B0CBF01230023DBB2184691
:103730000837BD4680BD00BFDCBC01085C08012025
:1037400058060120F0B5ADF5317D04AF05460C46B5
:103750001046194607F52C73A3F2AA232A461A80AD
:1037600007F52C73A3F2AB2322461A7007F52C73CE
:10377000A3F52B7302461A7007F52C73A3F2AD2341
:103780000A461A70B64B1B78DBB2002B40F0618101
:1037900007F52C73A3F2AA231B884FF6FF729342FE
:1037A00018D007F52C73A3F2AB231B78FF2B11D095
:1037B00007F52C73A3F52B731B78FF2B0AD007F5A5
:1037C0002C73A3F2AD231B78FF2B03D097F8C832DC
:1037D000FF2B01D1012300E0002387F8AF3297F8D7
:1037E000AF3203F0010387F8AF3297F8AF3283F0BE
:1037F0000103DBB2002B53D007F52C73A3F2AA23ED
:103800001B88984AA2FB0312520B42F2107101FB73
:1038100002F29B1A9BB29C4607F52C73A3F2AB23D2
:103820001B78914AA2FB03125209642101FB02F2A8
:103830009B1ADBB21C4607F52C73A3F52B731B7880
:10384000894AA2FB03125209642101FB02F29B1A6E
:10385000DBB21D4607F52C73A3F2AD231B78824A19
:10386000A2FB03125209642101FB02F29B1ADBB294
:103870001E4697F8C8327C4AA2FB03125209642103
:1038800001FB02F29B1ADBB207F11C0003930296C4
:10389000019500946346754A0D2116F0BDF80CE0C1
:1038A00007F11C030C222F21184616F02EF907F5FC
:1038B0002C73A3F5257300221A7397F8CC32FF2BD3
:1038C00008D097F8CC3207F11400694A052116F0A8
:1038D000A3F803E007F114032F221A8097F9D032DE
:1038E00013F1800F08D097F9D03207F10C00614A2C
:1038F000062116F091F803E007F10C032F221A803D
:1039000007F11C0207F12C0007F10C03019307F1EA
:10391000140300931346584A402116F07DF807F12E
:103920002C031846FCF77CFCC7F8A80207F17003CB
:1039300012225249184612F0A1F9034687F8A7321D
:1039400097F8A732002B40F0868007F52C73A3F57B
:103950001073DB68C7F8A032494B1B7883F0010372
:10396000DBB2002B44D0D7F8A032B3F5803F3FD272
:10397000444AD7F8A0321360D7F8A022D7F8A8326B
:103980001344B3F5803F18D807F17003D7F8A0129D
:10399000184612F04AFD07F16C0307F12C0107F1FC
:1039A0007000D7F8A82212F023FB364B1A68D7F81C
:1039B000A8321344334A136045E0314B01221A7098
:1039C000304B00221A6007F170030021184612F0F4
:1039D0002CFD07F16C0307F12C0107F17000D7F8FB
:1039E000A82212F005FB274AD7F8A83213602AE074
:1039F000244B1B684FF6C072934202D9214B002220
:103A00001A60204B1A6807F170031146184612F02D
:103A10000CFD07F16C0307F12C0107F17000D7F8DA
:103A2000A82212F0E5FA174B1A68D7F8A832134407
:103A3000144A1360134B1B684FF6C072934202D9AD
:103A4000104B00221A6007F17003184612F0C3FCF5
:103A500002E000BF00E000BF07F52D77BD46F0BDD6
:103A6000520600205917B7D11F85EB51E0BC010861
:103A7000F8BC0108FCBC010800BD01080CBD010830
:103A8000530600205406002080B582B000AF00230A
:103A9000FB710C4B1B680B4A43F4807313600320CB
:103AA00001F030FF0F2000F00FF80346002B02D08A
:103AB0000123FB7101E0FFF786F9FB79184608370F
:103AC000BD4680BD0040005880B584B000AF78602E
:103AD0000023FB73174B1B78002B24D006F0B8FB98
:103AE0000246144B1B7819464FF47A73B3FBF1F37B
:103AF000B2FBF3F3184601F046FF0346002B0FD14B
:103B00007B680F2B09D8002279684FF0FF3001F055
:103B100004FF094A7B68136007E00123FB7304E09C
:103B20000123FB7301E00123FB73FB7B1846103775
:103B3000BD4680BD2C0000202800002080B400AFCE
:103B4000064B1B781A46064B1B681344044A136045
:103B500000BFBD465DF8047B704700BF2C0000200D
:103B60005808012080B400AF034B1B681846BD46BF
:103B70005DF8047B704700BF5808012080B400AF97
:103B8000034B1B681846BD465DF8047B704700BFB9
:103B90002800002080B400AF034B1B781846BD46B8
:103BA0005DF8047B704700BF2C00002080B483B018
:103BB00000AF786039607B689B6823F47C123B68B7
:103BC0001A437B689A6000BF0C37BD465DF8047BE2
:103BD000704780B483B000AF786039607B689B68C1
:103BE00023F0E0723B681A437B689A6000BF0C3791
:103BF000BD465DF8047B704780B483B000AF786049
:103C00007B689B6803F0E07318460C37BD465DF88F
:103C1000047B704780B487B000AFF860B9607A6009
:103C20003B60FB6860331A46BB689B0013447B61B2
:103C30007B691A68084B13407A6802F0F8413A68C9
:103C40000A43134343F000427B691A6000BF1C37EC
:103C5000BD465DF8047B704700F0FF0380B485B07B
:103C600000AF786039607B6860331A463B689B0020
:103C70001344FB60FB681B6803F0F84318461437D5
:103C8000BD465DF8047B704780B487B000AFF86034
:103C9000B9607A60FB6860331A46BB689B001344C6
:103CA0007B617B691B6823F000427B681A437B6958
:103CB0001A6000BF1C37BD465DF8047B704780B4B6
:103CC00083B000AF78607B68DB6803F44063002B4F
:103CD00001D1012300E0002318460C37BD465DF8F2
:103CE000047B704780B487B000AFF860B9607A6039
:103CF000FB6830331A46BB681B0A9B0003F00C03B9
:103D000013447B617B691A68BB6803F01F031F21A2
:103D100001FA03F3DB431A407B689B0E03F01F019B
:103D2000BB6803F01F0301FA03F31A437B691A60AF
:103D300000BF1C37BD465DF8047B704780B487B078
:103D400000AFF860B9607A60FB6814331A46BB684C
:103D50005B0E9B0003F0040313447B617B691A68CC
:103D6000BB681B0D03F01F03072101FA03F3DB43BC
:103D70001A40BB681B0D03F01F03796801FA03F3B7
:103D80001A437B691A6000BF1C37BD465DF8047B8F
:103D90007047000080B485B000AFF860B9607A6009
:103DA000FB68D3F8B020BB68C3F31203DB431A40AF
:103DB0007B6803F018030849D940BB680B40C3F384
:103DC00012031A43FB68C3F8B02000BF1437BD4686
:103DD0005DF8047B704700BFFFFF070080B487B029
:103DE00000AFF860B9607A60FB680C331846BB68B6
:103DF0001B0D03F00301BB6803F001021346DB0057
:103E000013449B000B449B0003447B617B691A684D
:103E1000BB6823F0024323F46013DB431A40796844
:103E2000BB680B401A437B691A6000BF1C37BD4654
:103E30005DF8047B704780B487B000AFF860B9606C
:103E40007A603B60FB6820331A46BB681B0D9B0001
:103E500003F00C0313447B617B691B6803F0F022C1
:103E60007B6819043B680B431A437B691A6000BFE7
:103E70001C37BD465DF8047B704780B483B000AF4B
:103E800078607B689B6823F0204323F03F037A68C7
:103E9000936000BF0C37BD465DF8047B704780B46B
:103EA00083B000AF78607B689B6803F00053B3F188
:103EB000005F01D1012300E0002318460C37BD4606
:103EC0005DF8047B704780B483B000AF78607B6896
:103ED0009B6823F0104323F03F0343F080527B683C
:103EE0009A6000BF0C37BD465DF8047B704780B414
:103EF00083B000AF78607B689B6803F08053B3F1B8
:103F0000805F01D1012300E0002318460C37BD4635
:103F10005DF8047B704780B483B000AF78607B6845
:103F20009B6823F0004323F03F0343F001027B68CA
:103F30009A6000BF0C37BD465DF8047B704780B4C3
:103F400083B000AF78607B689B6823F0004323F068
:103F50003F0343F002027B689A6000BF0C37BD4606
:103F60005DF8047B704780B483B000AF78607B68F5
:103F70009B6803F00103012B01D1012300E0002322
:103F800018460C37BD465DF8047B704780B483B09B
:103F900000AF78607B689B6803F00203022B01D1BD
:103FA000012300E0002318460C37BD465DF8047B72
:103FB000704780B483B000AF78607B689B6823F063
:103FC000004323F03F0343F004027B689A6000BF84
:103FD0000C37BD465DF8047B704780B483B000AFFA
:103FE00078607B689B6823F0004323F03F0343F035
:103FF00010027B689A6000BF0C37BD465DF8047BF9
:10400000704780B483B000AF78607B689B6803F032
:104010000403042B01D1012300E0002318460C37D0
:10402000BD465DF8047B704780B483B000AF786014
:104030007B689B6823F0004323F03F0343F020029A
:104040007B689A6000BF0C37BD465DF8047B704703
:1040500080B483B000AF78607B689B6803F008038E
:10406000082B01D1012300E0002318460C37BD4680
:104070005DF8047B704780B483B000AF78607B68E4
:1040800080221A6000BF0C37BD465DF8047B704784
:1040900080B483B000AF78607B684FF480721A60A0
:1040A00000BF0C37BD465DF8047B704780B483B019
:1040B00000AF78607B684FF400721A6000BF0C3765
:1040C000BD465DF8047B704780B483B000AF786074
:1040D0007B685B6843F080027B685A6000BF0C37E6
:1040E000BD465DF8047B704780B483B000AF786054
:1040F0007B685B6843F480727B685A6000BF0C3752
:10410000BD465DF8047B704780B483B000AF786033
:104110007B685B6843F400727B685A6000BF0C37B1
:10412000BD465DF8047B704780B483B000AF786013
:104130007B685B6823F080027B685A6000BF0C37A5
:10414000BD465DF8047B704780B483B000AF7860F3
:104150007B685B6823F480727B685A6000BF0C3711
:10416000BD465DF8047B704780B483B000AF7860D3
:104170007B685B6823F400727B685A6000BF0C3771
:10418000BD465DF8047B704780B588B000AF7860AD
:104190000023FB770023BB610023BB607B68002BFF
:1041A00001D101232EE17B681B69002B7B685B6DCD
:1041B000002B09D17868FCF74DFD7B6800229A65D9
:1041C0007B68002283F850207B681B681846FFF745
:1041D00066FE0346002B04D07B681B681846FFF779
:1041E0004CFE7B681B681846FFF781FE0346002BD8
:1041F00015D17B681B681846FFF765FE834B1B686B
:104200009B09834AA2FB03239B0901335B00BB602C
:1042100002E0BB68013BBB60BB68002BF9D17B6847
:104220001B681846FFF763FE0346002B0DD17B6821
:104230005B6D43F010027B685A657B689B6D43F0B1
:1042400001027B689A650123FB777B681B6818462F
:10425000FFF7D7FE78617B685B6D03F01003002BDE
:1042600040F0C7807B69002B40F0C3807B685B6DAA
:1042700023F4817343F002027B685A657B681B68F4
:104280001846FFF770FE0346002B0BD16148FFF77D
:104290006AFE0346002B05D17B685B6819465E48C1
:1042A000FFF784FC7B685B7E5A037B685B6B1A4379
:1042B0007B68DB681A437B689B681A437B6893F8CA
:1042C00020301B041343BA691343BB617B6893F826
:1042D0002030012B06D17B685B6A013B5B04BA6925
:1042E0001343BB617B689B6A002B09D07B689B6A88
:1042F00003F470727B68DB6A1343BA691343BB61D2
:104300007B681B68DA68454B13407A681268B969A4
:104310000B43D3607B681B681846FFF772FE386159
:104320007B681B681846FFF793FEF8603B69002B1B
:104330003DD1FB68002B3AD17B681B7E9A037B68DA
:1043400093F830305B001343BB617B681B68DB680C
:1043500023F4804323F002037A681268B9690B439F
:10436000D3607B6893F83830012B18D17B681B68C9
:104370001B6923F4FF6323F004037A68D16B7A6826
:10438000126C11437A68526C11437A68926C0A433A
:104390001A437B681B6842F001021A6107E07B68E0
:1043A0001B681A697B681B6822F001021A617B682E
:1043B0001B69012B0CD17B681B681B6B23F00F0161
:1043C0007B68DB695A1E7B681B680A431A6307E037
:1043D0007B681B681A6B7B681B6822F00F021A63EC
:1043E0007B685B6D23F0030343F001027B685A6531
:1043F00007E07B685B6D43F010027B685A65012320
:10440000FB77FB7F18462037BD4680BD1800002093
:10441000632D3E05000004500003045007C0F0FF68
:1044200080B584B000AF78607B681B681846FFF7E2
:10443000E8FD0346002B40D17B6893F85030012BF8
:1044400001D102233CE07B68012283F85020786888
:1044500001F04EF80346FB73FB7B002B28D17B68F1
:104460005B6D23F4706323F0010343F480727B6877
:104470005A657B685B6D03F48053B3F5805F06D1AA
:104480007B689B6D23F006027B689A6502E07B687F
:1044900000229A657B681B681C221A607B680022D8
:1044A00083F850207B681B681846FFF782FD06E002
:1044B0007B68002283F8502001E00223FB73FB7B22
:1044C00018461037BD4680BD80B584B000AF786017
:1044D0007B6893F85030012B01D1022323E07B68E5
:1044E000012283F850200321786800F045FF03463D
:1044F000FB73FB7B002B11D1786801F073F8034646
:10450000FB73FB7B002B09D17B685B6D23F4885325
:1045100023F0010343F001027B685A657B680022A7
:1045200083F85020FB7B18461037BD4680BD80B510
:1045300084B000AF786039607B685B69082B02D17A
:104540000823FB6010E07B681B68DB6803F0010355
:10455000002B07D07B685B6D43F020027B685A65B7
:1045600001236DE00423FB60FFF7FCFAB86021E053
:104570003B68B3F1FF3F1DD0FFF7F4FA0246BB687A
:10458000D31A3A689A4202D33B68002B12D17B6857
:104590001B681A68FB681340002B0BD17B685B6DAE
:1045A00043F004027B685A657B68002283F8502040
:1045B000032345E07B681B681A68FB681340002BE7
:1045C000D6D07B685B6D43F400727B685A657B686C
:1045D0001B681846FFF773FB0346002B1CD07B6853
:1045E0005B7E002B18D17B681B681B6803F00803F7
:1045F000082B11D17B685B6D23F480727B685A6550
:104600007B685B6D03F48053002B05D17B685B6D89
:1046100043F001027B685A65FB68082B04D17B6874
:104620001B6808221A600AE07B681B68DB6803F4D9
:104630008043002B03D17B681B680C221A60002387
:1046400018461037BD4680BD80B584B000AF786095
:104650007B681B681846FFF7D4FC0346002B69D122
:104660007B6893F85030012B01D1022365E07B6811
:10467000012283F85020786800F03AFF0346FB736C
:10468000FB7B002B51D17B685B6D23F4706323F0BF
:10469000010343F480727B685A657B685B6D03F4A9
:1046A0008053002B06D07B689B6D23F006027B684D
:1046B0009A6502E07B6800229A657B681B681C2271
:1046C0001A607B68002283F850207B681B685A6858
:1046D0007B681B6822F01C025A607B685B69082BB0
:1046E00008D17B681B685A687B681B6842F0080227
:1046F0005A6008E07B681B685A687B681B6842F058
:1047000004025A6000BF7B685B6B002B07D17B689B
:104710001B685A687B681B6842F010025A607B680D
:104720001B681846FFF745FC06E07B68002283F80B
:10473000502001E00223FB73FB7B18461037BD4677
:1047400080BD80B584B000AF78607B6893F850304E
:10475000012B01D102232BE07B68012283F850203A
:104760000321786800F008FE0346FB73FB7B002BF7
:1047700019D17B681B685A687B681B6822F01C0291
:104780005A60786800F02EFF0346FB73FB7B002B1A
:1047900009D17B685B6D23F4885323F0010343F058
:1047A00001027B685A657B68002283F85020FB7BFE
:1047B00018461037BD4680BD80B483B000AF786026
:1047C0007B681B681B6C18460C37BD465DF8047B84
:1047D0007047000080B5B6B000AF78603960002344
:1047E00087F8D7300023FB607B6893F85030012BAB
:1047F00001D102239FE37B68012283F850207B686C
:104800001B681846FFF7FDFB0346002B40F084832E
:104810007B6818683B6859683B681B681A46FFF755
:1048200061FA7B681B681846FFF7EBFBC7F8D000FE
:104830007B681B681846FFF70BFCC7F8CC00D7F85D
:10484000D030002B40F0A681D7F8CC30002B40F0C0
:10485000A1817B6818683B6819683B689B681A46A9
:10486000FFF76CFA3B685A697B681B68DB68DB08FA
:1048700003F003035B0002FA03F3C7F8C8303B6898
:104880001B69042B0AD07B6818683B6819693B6870
:104890001A68D7F8C830FFF7BDF97BE17B681B6861
:1048A00000211846FFF7DAF90346C3F31203002B81
:1048B0000AD17B681B6800211846FFF7CFF9034631
:1048C0009B0E03F01F021EE07B681B680021184648
:1048D000FFF7C4F90346C7F8BC30D7F8BC3093FAE9
:1048E000A3F3C7F8C030D7F8C030C7F8B830D7F84E
:1048F000B830002B01D1202304E0D7F8B830B3FA48
:1049000083F3DBB21A463B681B68C3F31203002B28
:1049100005D13B681B689B0E03F01F0318E03B6842
:104920001B68C7F8B030D7F8B03093FAA3F3C7F8D4
:10493000AC30D7F8AC30C7F8B430D7F8B430002B6F
:1049400001D1202304E0D7F8B430B3FA83F3DBB20B
:104950009A4206D17B681B68002200211846FFF7A7
:1049600093F97B681B6801211846FFF777F9034626
:10497000C3F31203002B0AD17B681B680121184680
:10498000FFF76CF903469B0E03F01F021EE07B68E5
:104990001B6801211846FFF761F90346C7F8A430E8
:1049A000D7F8A43093FAA3F3C7F8A030D7F8A03013
:1049B000C7F8A830D7F8A830002B01D1202304E095
:1049C000D7F8A830B3FA83F3DBB21A463B681B680A
:1049D000C3F31203002B05D13B681B689B0E03F049
:1049E0001F0318E03B681B68C7F89830D7F8983069
:1049F00093FAA3F3C7F89430D7F89430C7F89C30F3
:104A0000D7F89C30002B01D1202304E0D7F89C304C
:104A1000B3FA83F3DBB29A4206D17B681B680022AB
:104A200001211846FFF730F97B681B680221184600
:104A3000FFF714F90346C3F31203002B0AD17B6876
:104A40001B6802211846FFF709F903469B0E03F085
:104A50001F021EE07B681B6802211846FFF7FEF864
:104A60000346C7F88C30D7F88C3093FAA3F3C7F815
:104A70008830D7F88830C7F89030D7F89030002BBE
:104A800001D1202304E0D7F89030B3FA83F3DBB2EE
:104A90001A463B681B68C3F31203002B05D13B6821
:104AA0001B689B0E03F01F0316E03B681B68C7F8EA
:104AB0008030D7F8803093FAA3F3FB67FB6FC7F819
:104AC0008430D7F88430002B01D1202304E0D7F8BC
:104AD0008430B3FA83F3DBB29A4206D17B681B6859
:104AE000002202211846FFF7CFF87B681B680321DC
:104AF0001846FFF7B3F80346C3F31203002B0AD19D
:104B00007B681B6803211846FFF7A8F803469B0E35
:104B100003F01F0217E07B681B6803211846FFF7AC
:104B20009DF803467B677B6F93FAA3F33B673B6F6C
:104B3000BB67BB6F002B01D1202303E0BB6FB3FA2F
:104B400083F3DBB21A463B681B68C3F31203002BE6
:104B500005D13B681B689B0E03F01F0311E03B6807
:104B60001B68BB66BB6E93FAA3F37B667B6EFB662A
:104B7000FB6E002B01D1202303E0FB6EB3FA83F31D
:104B8000DBB29A4206D17B681B68002203211846DB
:104B9000FFF77AF87B681B681846FFF7E4F90346CD
:104BA000002B40F0C2817B6818683B6819683B683D
:104BB000DB681A46FFF7EEF83B68DB688E4A9342E3
:104BC00040F030817B6818683B681B68C3F31203B0
:104BD000002B0BD13B681B689B0E013303F01F03B6
:104BE000092B94BF01230023DBB219E03B681B684B
:104BF000FB65FB6D93FAA3F3BB65BB6D3B663B6E38
:104C0000002B01D1202303E03B6EB3FA83F3DBB228
:104C1000013303F01F03092B94BF01230023DBB2F0
:104C2000002B79D03B681B68C3F31203002B07D11C
:104C30003B681B689B0E01339B0603F0F84215E0AE
:104C40003B681B683B653B6D93FAA3F3FB64FB6C0D
:104C50007B657B6D002B01D1202303E07B6DB3FAD4
:104C600083F3DBB201339B0603F0F8423B681B6819
:104C7000C3F31203002B09D13B681B689B0E013361
:104C800003F01F03012101FA03F317E03B681B68DF
:104C90007B647B6C93FAA3F33B643B6CBB64BB6C9F
:104CA000002B01D1202303E0BB6CB3FA83F3DBB20A
:104CB000013303F01F03012101FA03F342EA030168
:104CC0003B681B68C3F31203002B0AD13B681B68C7
:104CD0009B0E013303F01F0213465B0013441B05B8
:104CE00018E03B681B68BB63BB6B93FAA3F37B6361
:104CF0007B6BFB63FB6B002B01D1202303E0FB6B81
:104D0000B3FA83F3DBB2013303F01F0213465B00F7
:104D100013441B050B4380E03B681B68C3F312037D
:104D2000002B07D13B681B689B0E01339B0603F0E9
:104D3000F84215E03B681B68FB62FB6A93FAA3F339
:104D4000BB62BB6A3B633B6B002B01D1202303E0BA
:104D50003B6BB3FA83F3DBB201339B0603F0F842FB
:104D60003B681B68C3F31203002B09D13B681B6827
:104D70009B0E013303F01F03012101FA03F317E037
:104D80003B681B683B623B6A93FAA3F3FB61FB69D8
:104D90007B627B6A002B01D1202303E07B6AB3FA9C
:104DA00083F3DBB2013303F01F03012101FA03F3A4
:104DB00042EA03013B681B68C3F31203002B0DD1C9
:104DC0003B681B689B0E013303F01F0213465B0018
:104DD00013441E3B1B0543F000731DE03B681B683A
:104DE0007B617B6993FAA3F33B613B69BB61BB6960
:104DF000002B03D1202305E000007F40BB69B3FAFC
:104E000083F3DBB2013303F01F0213465B0013444C
:104E10001E3B1B0543F000730B433A68926819462A
:104E2000FEF78CFF3B681A68454B1340002B7CD083
:104E30004448FEF7E1FEC7F8C4004348FFF793F883
:104E40000346002B5ED13B681B68404A934227D142
:104E5000D7F8C43003F40003002B21D17B681B6812
:104E6000394A934261D1D7F8C43043F4000319465C
:104E70003448FEF7AEFE364B1B689B09354AA2FB51
:104E800003239B095A1C13465B0013449B00FB60E1
:104E900002E0FB68013BFB60FB68002BF9D144E0BA
:104EA0003B681B682C4A934213D1D7F8C43003F0F7
:104EB0008073002B0DD17B681B68234A934234D149
:104EC000D7F8C43043F0807319461E48FEF781FEC0
:104ED0002BE03B681B68214A934226D1D7F8C430A7
:104EE00003F48003002B20D17B681B68164A934291
:104EF0001BD1D7F8C43043F4800319461148FEF79C
:104F000068FE12E07B685B6D43F020027B685A65A7
:104F1000012387F8D73008E07B685B6D43F02002FF
:104F20007B685A65012387F8D7307B68002283F8B5
:104F3000502097F8D7301846D837BD4680BD00BFFF
:104F4000000008800003045000000450000052C715
:104F500018000020632D3E05000084CB0100008076
:104F600080B58EB000AF78603960002387F83730A5
:104F70003B685B68B3F5400F03D03B685B68B3F1F7
:104F8000A07F7B6893F85030012B01D10223ECE124
:104F90007B68012283F850207B681B681846FFF766
:104FA00030F838637B681B681846FFF751F8F862E1
:104FB0003B6B002B40F0CA81FB6A002B40F0C6819E
:104FC0003B681B689B4A934240F0A2803B685B6849
:104FD000B3F1E07F34D0B3F1E07F56D8B3F1C07FB6
:104FE0004BD0B3F1C07F50D8B3F1A07F1BD0B3F149
:104FF000A07F4AD8B3F1807F37D0B3F1807F44D807
:10500000B3F5000F29D0B3F5400F3ED17B68186887
:105010003B689B6823F07C7343F440031A46854940
:10502000FEF7DCFE39E07B6818683B689B6823F07C
:105030007C7343F0A0731A467E49FEF7CFFE2CE046
:105040007B6818683B689B6823F07C7343F0E073CF
:105050001A467849FEF7C2FE1FE07B681B68764A55
:1050600074491846FEF7BAFE17E07B681B68734A5E
:1050700070491846FEF7B2FE0FE07B681B68704A65
:105080006C491846FEF7AAFE07E07B681B68002201
:1050900068491846FEF7A2FE00BF3B681A697B68A4
:1050A0001B68DB68DB0803F003035B0002FA03F311
:1050B000BB623B685A697B681B68DB68DB0803F0EE
:1050C00003035B0002FA03F37B627B6818683B68AA
:1050D00019687B6ABA6AFEF7AEFE7B685B6D23F4E3
:1050E00080327B685A657B681B681846FEF7C3FFF1
:1050F0003B681B7B012B05D17B681B681846FEF7BC
:10510000E3FF2CE17B681B681846FFF70DF826E1EA
:105110003B685B68B3F1E07F1DD0B3F1E07F00F244
:105120009380B3F1C07F7BD0B3F1C07F00F28C805D
:10513000B3F1A07F0FD0B3F1A07F00F28580B3F16F
:10514000807F6DD0B3F1807F7ED8B3F5000F67D03C
:10515000B3F5400F78D13B681B683A4A93422FD190
:105160003B689B68C3F31203002B08D13B689B6824
:105170009B0E03F01F03012202FA03F316E03B68C3
:105180009B68FB61FB6993FAA3F3BB61BB693B625C
:105190003B6A002B01D1202303E03B6AB3FA83F37F
:1051A000DBB203F01F03012202FA03F37A681268EC
:1051B000D2F8A0107A6812680B43C2F8A0304CE015
:1051C0003B689B68C3F31203002B08D13B689B68C4
:1051D0009B0E03F01F03012202FA03F316E03B6863
:1051E0009B683B613B6993FAA3F3FB60FB687B61BF
:1051F0007B69002B01D1202303E07B69B3FA83F3A1
:10520000DBB203F01F03012202FA03F37A6812688B
:10521000D2F8A4107A6812680B43C2F8A4301CE0DC
:105220007B6818683B681B68054A1946FEF7D6FD7F
:1052300013E000BF0000C07DFFFF8700FFFF0701F4
:10524000FFFF8701FFFF17007B6818683B681B683A
:1052500000221946FEF7C2FD00BF7B681B68DB68B1
:1052600003F01803182B0FD03B681A697B681B6882
:10527000DB68DB0803F00303C3F102035B0003F008
:105280001E0322FA03F302E03B681B699B00BB622A
:105290007B681B68DB6803F01803182B0FD03B6892
:1052A0005A697B681B68DB68DB0803F00303C3F102
:1052B00002035B0003F01E0322FA03F302E03B68E3
:1052C0005B699B007B627B6818683B6819687B6A36
:1052D000BA6AFEF7B0FD3B681B68264A93421AD1B2
:1052E0007B685B6D23F400327B685A657B681B68C2
:1052F0001846FEF7CDFE3B681B7B012B05D17B6872
:105300001B681846FEF7F0FE29E07B681B6818460C
:10531000FEF71AFF23E07B685B6D23F480227B6835
:105320005A657B681B681846FEF7C0FE3B681B7B0E
:10533000012B05D17B681B681846FEF7E5FE0EE0E1
:105340007B681B681846FEF70FFF08E07B685B6D03
:1053500043F020027B685A65012387F837307B6869
:10536000002283F8502097F8373018463837BD466A
:1053700080BD00BFFFFF170080B588B000AF786028
:1053800039600023FB613B68BB617B681B68184682
:10539000FEF737FE38617B681B681846FEF758FE3B
:1053A000F8603B69002B03D1FB68002B00F098806C
:1053B0007B681B68DB6803F00073002B2AD07B68D6
:1053C0005B7E012B26D17B681B7E012B22D1012322
:1053D000BB6114E0FB69454A93420DD97B685B6D64
:1053E00043F010027B685A657B689B6D43F00102B5
:1053F0007B689A65012374E0FB690133FB617B687C
:105400001B681B6803F04003402BE3D17B681B68DB
:1054100040221A60BB69022B14D07B681B681846B7
:10542000FEF7EFFD0346002B0CD07B681B68184687
:10543000FEF7ACFD0346002B04D17B681B681846C1
:10544000FEF7CBFDBB69012B14D07B681B681846A7
:10545000FEF7FEFD0346002B0CD07B681B68184648
:10546000FEF794FD0346002B04D17B681B681846A9
:10547000FEF7DAFDBB69022B05D0BB69032B05D112
:105480000C237B6105E008237B6102E004237B6140
:1054900000BFFEF767FBB8601BE0FEF763FB024648
:1054A000BB68D31A052B14D97B681B689A687B6983
:1054B0001340002B0DD07B685B6D43F010027B68BE
:1054C0005A657B689B6D43F001027B689A650123F6
:1054D00007E07B681B689A687B691340002BDCD16E
:1054E000002318462037BD4680BD00BFFFFF3FA305
:1054F00080B584B000AF78600023BB607B681B6818
:105500001846FEF730FD0346002B5ED17B681B6812
:105510009A68304B1340002B0DD07B685B6D43F0D5
:1055200010027B685A657B689B6D43F001027B68C3
:105530009A6501234AE07B681B681846FEF7EBFC7E
:105540002548FEF759FB034603F40003002B0FD058
:10555000224B1B689B09224AA2FB03239B090133B0
:10556000BB6002E0BB68013BBB60BB68002BF9D1AC
:10557000FEF7F8FAF86021E07B681B681846FEF732
:10558000F2FC0346002B04D17B681B681846FEF72B
:10559000C2FCFEF7E7FA0246FB68D31A022B0DD9CC
:1055A0007B685B6D43F010027B685A657B689B6D7E
:1055B00043F001027B689A65012307E07B681B6862
:1055C0001B6803F00103012BD6D1002318461037C6
:1055D000BD4680BD3F00008000030450180000203D
:1055E000632D3E0580B584B000AF78607B681B6892
:1055F0001846FEF7CBFCF8607B681B681846FEF780
:10560000B2FC0346002B47D0FB68002B44D17B68DB
:105610001B689B6803F00D03012B0CD17B681B6892
:105620001846FEF78CFC7B681B6803221A60FEF7A5
:1056300099FAB86029E07B685B6D43F010027B68E3
:105640005A657B689B6D43F001027B689A65012374
:1056500023E0FEF787FA0246BB68D31A022B14D95F
:105660007B681B689B6803F00103002B0DD07B68EF
:105670005B6D43F010027B685A657B689B6D43F05D
:1056800001027B689A65012307E07B681B689B68C1
:1056900003F00103002BDCD1002318461037BD4670
:1056A00080BD000080B485B000AF78607B6803F0F7
:1056B0000703FB600C4BDB68BB60BA684FF6FF0367
:1056C0001340BB60FB681A02BB68134343F0BF631F
:1056D00043F40033BB60044ABB68D36000BF143797
:1056E000BD465DF8047B704700ED00E080B400AF7C
:1056F000044BDB681B0A03F007031846BD465DF840
:10570000047B704700ED00E080B483B000AF034637
:10571000FB7197F90730002B0BDBFB7903F01F02BD
:10572000074997F907305B09012000FA02F241F8B6
:10573000232000BF0C37BD465DF8047B704700BFD7
:1057400000E100E080B483B000AF0346FB7197F93D
:105750000730002B12DBFB7903F01F020A4997F98F
:1057600007305B09012000FA02F2203341F82320C0
:10577000BFF34F8F00BFBFF36F8F00BF00BF0C3769
:10578000BD465DF8047B704700E100E080B483B063
:1057900000AF0346FB7197F90730002B0CDBFB7958
:1057A00003F01F02074997F907305B09012000FA4F
:1057B00002F2403341F8232000BF0C37BD465DF8AC
:1057C000047B704700E100E080B483B000AF034683
:1057D000FB7197F90730002B0CDBFB7903F01F02FC
:1057E000074997F907305B09012000FA02F260339C
:1057F00041F8232000BF0C37BD465DF8047B70479D
:1058000000E100E080B483B000AF03463960FB7173
:1058100097F90730002B0ADB3B68DAB20C4997F99D
:1058200007301201D2B20B4483F800230AE03B6830
:10583000DAB20849FB7903F00F03043B1201D2B23C
:105840000B441A7600BF0C37BD465DF8047B7047E9
:1058500000E100E000ED00E080B489B000AFF86046
:10586000B9607A60FB6803F00703FB61FB69C3F171
:105870000703042B28BF0423BB61FB690433062BF9
:1058800002D9FB69033B00E000237B614FF0FF324C
:10589000BB6902FA03F3DA43BB681A407B699A409A
:1058A0004FF0FF317B6901FA03F3D9437B680B406A
:1058B000134318462437BD465DF8047B704700004B
:1058C00080B582B000AF78607B68013BB3F1807F28
:1058D00001D301230FE00A4A7B68013B53600F218B
:1058E0004FF0FF30FFF78EFF054B00229A60044B0C
:1058F00007221A60002318460837BD4680BD00BF46
:1059000010E000E080B582B000AF78607868FFF703
:10591000C9FE00BF0837BD4680BD80B586B000AF68
:105920000346B9607A60FB73FFF7E0FE78617A683E
:10593000B9687869FFF790FF024697F90F30114672
:105940001846FFF75FFF00BF1837BD4680BD80B522
:1059500082B000AF0346FB7197F907301846FFF796
:10596000D3FE00BF0837BD4680BD80B582B000AF12
:105970000346FB7197F907301846FFF7E3FE00BFB7
:105980000837BD4680BD80B582B000AF78607868CA
:10599000FFF796FF034618460837BD4680BD80B521
:1059A00082B000AF0346FB7197F907301846FFF746
:1059B000EDFE00BF0837BD4680BD80B582B000AFA8
:1059C0000346FB7197F907301846FFF7FDFE00BF4D
:1059D0000837BD4680BD000080B487B000AF786056
:1059E000396000237B614CE13B681A6801217B69C7
:1059F00001FA03F31340FB60FB68002B00F03E81CB
:105A00003B685B6803F00303012B05D03B685B68D0
:105A100003F00303022B30D17B689B683B617B69F9
:105A20005B00032202FA03F3DB433A6913403B6154
:105A30003B68DA687B695B0002FA03F33A69134357
:105A40003B617B683A699A607B685B683B610122D5
:105A50007B6902FA03F3DB433A6913403B613B681D
:105A60005B681B0903F001027B6902FA03F33A69E0
:105A700013433B617B683A695A603B685B6803F09B
:105A80000303032B17D07B68DB683B617B695B00FA
:105A9000032202FA03F3DB433A6913403B613B689C
:105AA0009A687B695B0002FA03F33A6913433B612E
:105AB0007B683A69DA603B685B6803F00303022B9A
:105AC00023D17B69DA087B68083253F822303B61C6
:105AD0007B6903F007039B000F2202FA03F3DB4309
